:100000000C9495010C94C6010C94C6010C94C60185
:100010000C94C6010C94C6010C94C6010C94C60144
:100020000C94C6010C94030C0C94030C0C94030C5C
:100030000C94C6010C94B2020C94C6010C94C60137
:100040000C94C6010C9462070C94C6010C94C60172
:100050000C94C6010C94C6010C94C6010C943A0E83
:100060000C94C6010C9421040C94F7030C94C60163
:100070000C94C6010C94C6010C94C6010C94C601E4
:100080000C94C6010C94C6010C94C6010C94C601D4
:100090000C94C6010C94C6010C94C6010C940D0C72
:1000A0000C94C6010C94C6010C94C6010C94C601B4
:1000B0000C94C6010C94C6010C94C6010C94D20495
:1000C0000C94C6010C94C6010C94C6010C94CD038B
:1000D0000C94A3030C94C6010C9479030C944F0365
:1000E0000C94C601120617061C0626063006A90641
:1000F0003A0642064A0654065E06680677068106F8
:10010000A9068B0695069F065A0D5D0D4C0D500DE8
:10011000560D940D610D650D6B0D6F0D730D790D01
:100120007D0D810D940D870D8B0D8F0D0C948F0D12
:100130000C94570B0C9487040C949F060C947D0D23
:100140000C9426060C94500D0C94730D0C943006F0
:100150000C94550B0C9481060C94810D0C94420662
:100160000C945D0D0C94820B0C94870D0C94940DE3
:100170000C94560D0C947A0B0C948B040C949506ED
:100180000C9417060C94660B0C94610D0C940102F0
:100190000C94C8010C9455110C94560B0C944A06FF
:1001A0000C9443020C944B040C94F2010C94540BE9
:1001B0000C941C060C9415020C946F0D0C9488047E
:1001C0000C945E060C946B0D0C948B0D0C944F11DB
:1001D0000C948B060C9490020C944C0D0C945406C9
:1001E0000C94790D0C9477060C9468060C94A9066F
:1001F0000C943A060C94AF0B0C9412060C94650DFB
:100200000C945A0D02000020002300260029002C27
:10021000002F003200000100000301060109010067
:10022000002100240027002A002D003000330001A7
:10023000010000040107010A010000220025002836
:10024000002B002E003100340002010000050108DF
:10025000010B01050505050705080808080202024B
:10026000020A0A0808040404040101010101010151
:10027000010303030303030303040707070C0C0C28
:100280000C0C0C0C0C020202020606060606060600
:10029000060B0B0B0B0B0B0B0B010210202008089D
:1002A00010204010204080020102010804020101D8
:1002B00002040810204080804020100804020180C1
:1002C0000402018040201008040201080402010118
:1002D0000204081020408001020408102040800021
:1002E000000A0B02090C0D0E0807030401000000B0
:1002F00000000000000000000000000000000000FE
:1003000000000000000000000000001211100000BA
:1003100000000000000000000000000000000000DD
:1003200000000000000055114F1111241FBECFEF37
:10033000D1E2DEBFCDBF00E00CBF12E0A0E0B2E032
:10034000EAE4FFE200E00BBF02C007900D92A03686
:10035000B107D9F727E0A0E6B2E001C01D92A633AD
:10036000B207E1F711E0C4E9D1E000E006C021974F
:100370000109802FFE010E94C814C339D10780E013
:100380000807A9F70E94840E0C9493170C940000A0
:10039000CF92DF92EF92FF920F931F93CF93DF9351
:1003A0006C017A018B01C0E0D0E0CE15DF0581F051
:1003B000D8016D918D01D601ED91FC910190F081F4
:1003C000E02DC6011995892B11F02196EECF7E0103
:1003D000C701DF91CF911F910F91FF90EF90DF90B8
:1003E000CF900895FC01538D448D252F30E0842F4C
:1003F00090E0821B930B541710F0CF96089501974D
:100400000895FC01918D828D981761F0828DDF0136
:10041000A80FB11D5D968C91928D9F5F9F73928FF7
:1004200090E008958FEF9FEF0895FC01918D828DEC
:10043000981731F0828DE80FF11D858D90E00895B9
:100440008FEF9FEF08950E947E1787ED92E00E9444
:100450004B0421E0892B09F420E0822F089584E7E2
:1004600093E00E944B0421E0892B09F420E0822FC5
:10047000089581E194E00E944B0421E0892B09F466
:1004800020E0822F0895EF92FF920F931F93CF9356
:10049000DF93EC0181E0888F9B8D8C8D981305C0D4
:1004A000E889F989808185FD26C0F62E0B8D10E044
:1004B0000F5F1F4F0F731127E02E8C8DE8120CC0B9
:1004C0000FB607FCFACFE889F989808185FFF5CF5F
:1004D000CE010E94B004F1CF8B8DFE01E80FF11D1B
:1004E000E35AFF4FF0829FB7F8940B8FEA89FB899C
:1004F000808180620AC09FB7F894EE89FF8960838B
:10050000E889F98980818370806480839FBF81E05E
:1005100090E0DF91CF911F910F91FF90EF900895A0
:10052000CF93DF93EC01888D8823C9F0EA89FB899A
:10053000808185FD05C0A889B9898C9186FD0FC091
:100540000FB607FCF5CF808185FFF2CFA889B98966
:100550008C9185FFEDCFCE010E94B004E7CFDF91F3
:10056000CF9108951F920F920FB60F9211240BB6E0
:100570000F922F933F934F935F936F937F938F933C
:100580009F93AF93BF93EF93FF93809161029091FC
:100590006202A0916302B0916402892B8A2B8B2B9B
:1005A00049F19091600280910000892780930000BA
:1005B0008091610290916202A0916302B091640205
:1005C000181619061A061B060CF056C08091610217
:1005D00090916202A0916302B09164020197A10917
:1005E000B1098093610290936202A0936302B09379
:1005F000640242C080910002E4E0F2E0E4919FEFE7
:1006000090930002E230C9F050F4EE2399F0E1300B
:1006100081F590916F009D7F90936F002AC0E43028
:1006200019F1E0F0E53029F5909173009D7F9093EA
:1006300073001FC010926E001CC0909170009D7FCF
:100640009093700091E09093B0009091B100987FEA
:1006500094609093B1001092B3000BC09091710020
:100660009D7F9093710005C0909172009D7F909343
:10067000720060E00E94950DFF91EF91BF91AF91E4
:100680009F918F917F916F915F914F913F912F91AA
:100690000F900BBE0F900FBE0F901F9018951F92DA
:1006A0000F920FB60F9211240BB60F922F933F9318
:1006B0004F935F936F937F938F939F93AF93BF936A
:1006C000EF93FF9387ED92E00E94B004FF91EF91CA
:1006D000BF91AF919F918F917F916F915F914F915A
:1006E0003F912F910F900BBE0F900FBE0F901F9058
:1006F00018951F920F920FB60F9211240BB60F92FE
:100700002F933F934F935F936F937F938F939F9319
:10071000AF93BF93EF93FF9387ED92E00E94090B95
:10072000FF91EF91BF91AF919F918F917F916F91C9
:100730005F914F913F912F910F900BBE0F900FBE85
:100740000F901F9018951F920F920FB60F921124C1
:100750000BB60F922F933F934F935F936F937F93BB
:100760008F939F93AF93BF93EF93FF9384E793E0AF
:100770000E94B004FF91EF91BF91AF919F918F9133
:100780007F916F915F914F913F912F910F900BBE91
:100790000F900FBE0F901F9018951F920F920FB6DB
:1007A0000F9211240BB60F922F933F934F935F93A9
:1007B0006F937F938F939F93AF93BF93EF93FF9329
:1007C00084E793E00E94090BFF91EF91BF91AF91F5
:1007D0009F918F917F916F915F914F913F912F9159
:1007E0000F900BBE0F900FBE0F901F9018951F9289
:1007F0000F920FB60F9211240BB60F922F933F93C7
:100800004F935F936F937F938F939F93AF93BF9318
:10081000EF93FF9381E194E00E94B004FF91EF9188
:10082000BF91AF919F918F917F916F915F914F9108
:100830003F912F910F900BBE0F900FBE0F901F9006
:1008400018951F920F920FB60F9211240BB60F92AC
:100850002F933F934F935F936F937F938F939F93C8
:10086000AF93BF93EF93FF9381E194E00E94090B54
:10087000FF91EF91BF91AF919F918F917F916F9178
:100880005F914F913F912F910F900BBE0F900FBE34
:100890000F901F901895FC01918D228D892F90E06B
:1008A000805C9F4F821B91098F7399270895E0E028
:1008B000F0E0199480E090E0892B21F00E94390249
:1008C000811119C080E090E0892B41F080E090E038
:1008D000892B21F00E940000811110C00E942F027C
:1008E00081110FC080E090E0892B81F00E942502E9
:1008F00081110AC008950E940000E4CF0E94000008
:10090000EDCF0E945704EECF0C9400000895089597
:1009100080E090E008950F931F93CF93DF938C01B5
:10092000C62FD62FD07FD1606D2F0E94E10A6D2F88
:10093000C8010E94F40A80E1C89FB0011124C62FAB
:10094000C1606C2FC8010E94E10A6C2FC8010E948F
:10095000F40A81E090E0DF91CF911F910F9108950B
:10096000FC01848DDF01A80FB11DA35ABF4F2C914C
:10097000848D90E001968F739927848FA689B7891B
:100980002C93A089B1898C91837080648C93938D12
:10099000848D981306C00288F389E02D80818F7DB5
:1009A000808308951F920F920FB60F9211240BB6F9
:1009B0000F922F933F934F935F936F937F938F93F8
:1009C0009F93AF93BF93CF93DF93EF93FF932091C8
:1009D000AF0430E0F901E152FD4F8491F901E7568F
:1009E000FD4FD491F901ED5AFD4FC491CC2379F01C
:1009F00081110E943F0DEC2FF0E0EE0FFF1FEB5F27
:100A0000FD4FA591B491EC91ED2381E009F480E0D4
:100A10002091B3043091B4042F5F3F4F3093B4045E
:100A20002093B3049091B204953618F096E0909319
:100A3000AE049091AE049430C9F128F4923069F07C
:100A40009330D1F05EC0953009F451C0963009F072
:100A500058C091E090937F0551C0811152C0209100
:100A6000B3043091B4042436310508F442C0109226
:100A70007F051092B2041CC0813009F042C0E091A1
:100A8000B20491E09E0F9093B204F0E02091B30481
:100A90003091B404EE0FFF1FE255FB4F30872783E0
:100AA0001092B4041092B30494E029C0811117C0CD
:100AB000E091B20491E09E0F9093B204F0E0209197
:100AC000B3043091B404EE0FFF1FE255FB4F3087A3
:100AD00027831092B4041092B30493E010C02091C5
:100AE000B3043091B4042536310558F007C08111A4
:100AF00008C01092B4041092B30403C095E0909320
:100B0000AE049091B1049923B9F081110AC080918B
:100B1000B004882321F08091B00461E009C02F9ACD
:100B20000BC08091B004882331F08091B00460E064
:100B30000E94950D01C02F98FF91EF91DF91CF9109
:100B4000BF91AF919F918F917F916F915F914F91E5
:100B50003F912F910F900BBE0F900FBE0F901F90E3
:100B600018958F929F92AF92BF92CF92DF92EF92A1
:100B7000FF920F931F93CF93DF938C016A017B0148
:100B800020E030E04FE753E4C701B6010E94A31311
:100B90004B015C0120E030E0A9010E94731518169A
:100BA0001CF4C501B40103C0C501B40190580E94F2
:100BB0003D15EB0120E030E0A901C701B6010E941C
:100BC0007315181614F460E001C061E0F80181812A
:100BD0000E94950DCF3FD10509F014F4DD2702C026
:100BE000CFEFD0E0F801108161E0812F0E94C40DA9
:100BF000209709F4B1C0CF3FD10509F4AFC0E12F70
:100C0000F0E0E152FD4FE4918E2F90E0FC0131972E
:100C1000E231F10508F09DC08827EE58FF4F8F4F55
:100C20000C94C81484B5806884BDC7BDA7C084B5C2
:100C3000806284BDC8BDA2C080918000806880931E
:100C40008000D0938900C093880098C08091800074
:100C5000806280938000D0938B00C0938A008EC006
:100C600080918000886080938000D0938D00C09335
:100C70008C0084C08091B00080688093B000C093E5
:100C8000B3007CC08091B00080628093B000C093BC
:100C9000B40074C080919000806880939000D093DD
:100CA0009900C09398006AC0809190008062809300
:100CB0009000D0939B00C0939A0060C080919000F8
:100CC000886080939000D0939D00C0939C0056C094
:100CD0008091A00080688093A0008091A0008F7B0D
:100CE0008093A000D093A900C093A80047C0809132
:100CF000A00080628093A000D093AB00C093AA00B4
:100D00003DC08091A00088608093A000D093AD008A
:100D1000C093AC0033C08091200180688093200193
:100D2000D0932901C093280129C0809120018062BD
:100D300080932001D0932B01C0932A011FC0809182
:100D40002001886080932001D0932D01C0932C0155
:100D500015C0C038D10514F460E001C061E0812FF6
:100D6000DF91CF911F910F91FF90EF90DF90CF9087
:100D7000BF90AF909F908F900C94950DDF91CF9185
:100D80001F910F91FF90EF90DF90CF90BF90AF90A9
:100D90009F908F9008958EBD00000DB407FEFDCF8B
:100DA0008EB50895CF93DF93EC0160E088810E94B7
:100DB000950D88E90E94CB0680E00E94CB0680E07A
:100DC0000E94CB0680E00E94CB0680E00E94CB060A
:100DD00061E088810E94950D8BE891E00197F1F721
:100DE00060E088810E94950D80EE0E94CB0661E054
:100DF0008881DF91CF910C94950DAF92BF92CF92E5
:100E0000DF92EF92FF920F931F93CF93DF93CDB7B3
:100E1000DEB760970FB6F894DEBF0FBECDBF5C01A2
:100E200060E0FC0180810E94950D80E60E94CB0667
:100E30008E010F5F1F4F7E01F1E1EF0EF11C680183
:100E400080E00E94CB0690E0A0E0B0E0F601819344
:100E50009193A193B1936F01EE15FF0589F761E0BE
:100E6000F50180810E94950D80E090E0DC01F801A1
:100E700041915191619171918F01BA2FA92F982FB2
:100E80008827840F951FA61FB71FEE15FF0579F75A
:100E90009C01AD0166277727CB01621B730B840B86
:100EA000950B60960FB6F894DEBF0FBECDBFDF91F5
:100EB000CF911F910F91FF90EF90DF90CF90BF9057
:100EC000AF9008951F920F920FB60F9211240BB698
:100ED0000F922F933F934F935F936F937F938F93D3
:100EE0009F93AF93BF93EF93FF938091800287FF0F
:100EF00005C0109285001092840016C020918002D7
:100F0000022E000C330B8091BC0590E028173907A6
:100F10005CF43091800225E03203F0011124E058A6
:100F2000FA4F808186FD15C0809180028F5F80938B
:100F3000800220918002022E000C330B8091BC05B0
:100F400090E02817390794F4809180028C302CF1BE
:100F50000DC0309180023203F0011124E058FA4FA5
:100F6000808160E08F730E94950DDECF80918400B8
:100F70009091850084349C4918F480E49CE905C074
:100F800080918400909185000496909389008093CD
:100F900088008FEF809380022AC040918400509196
:100FA00085003091800225E03203F0011124E058E1
:100FB000FA4F81819281840F951F909389008093CD
:100FC0008800309180023203F0011124E058FA4F7A
:100FD000808186FF0CC0309180023203F001112421
:100FE000E058FA4F808161E08F730E94950DFF9168
:100FF000EF91BF91AF919F918F917F916F915F9191
:101000004F913F912F910F900BBE0F900FBE0F90FD
:101010001F90189540E050E0BA018DED95E00E94D8
:10102000B10540E050E060E070E88FED95E00C9491
:10103000B1052F923F924F925F926F927F928F9263
:101040009F92AF92BF92CF92DF92EF92FF920F9357
:101050001F93CF93DF93CDB7DEB728970FB6F894E1
:10106000DEBF0FBECDBF6B017C0149015A0181EE8D
:1010700095E00E94D20683EE95E00E94D20625E814
:101080003BEA45E053E4C501B4010E94A3130E946A
:101090003D158B01B701A6018DED95E00E94B105CC
:1010A000B701A60170588FED95E00E94B1058FB78A
:1010B000F8948090BE069090BF06A090C006B090B5
:1010C000C1068FBF212C312C18861F82222733277F
:1010D000201B310B3E832D832F81388537FF03C0C2
:1010E000319521953109C80117FF02C08D819E817C
:1010F000281739070CF09DC02FB7F8948091BE06D1
:101100009091BF06A091C006B091C1062FBF24E602
:1011100030E040E050E0281B390B4A0B5B0BCA0162
:10112000B901680D791D8A1D9B1D0E94000E8FB7A5
:10113000F8948090BE069090BF06A090C006B09034
:10114000C1068FBF81EE95E00E94FD069B01AC01B8
:1011500088279927DC01821B930BA40BB50B4F81C9
:101160005885480F591F58874F8381EE95E00E949C
:10117000FD0669837A838B839C8381EE95E00E94D0
:10118000D20683EE95E00E94FD062B013C0183EE22
:1011900095E00E94D20689819A81AB81BC81B0958D
:1011A000A095909581959F4FAF4FBF4F9C01AD018A
:1011B0002419350946095709AAE0B0E00E948014B5
:1011C000260E371E0E94441327E137EB41ED58E30A
:1011D0000E94A313A70196010E94D1146B017C0108
:1011E000B101032C000C880B990B0E94441320EBD7
:1011F0003FE041E255E30E94A313A70196010E943C
:10120000D1146B017C0120E030E040E85FE30E94F4
:101210003D1387FD06C0C12CD12C80E8E82E8FE35A
:10122000F82EB701A60170588FED95E00E94B10528
:1012300053CF28960FB6F894DEBF0FBECDBFDF9117
:10124000CF911F910F91FF90EF90DF90CF90BF90C3
:10125000AF909F908F907F906F905F904F903F9056
:101260002F9008953091CA02313208F04BC080911E
:10127000A7028111FCCF9091FB0522E02093A702E9
:1012800021E02093A6022FEF2093A5021092A40242
:101290003093A302EAEAF2E0A3E8B2E020E03217DA
:1012A00021F041914D932F5FFACF1092820220914D
:1012B0008202990F922B9093820290918102913039
:1012C00061F410928102909182029093BB00909100
:1012D000BC0093FDF8CF95EC01C095EE9093BC0057
:1012E0009091A7029230E1F39091A5029F3F79F08F
:1012F0008091A502803241F08091A502803331F0C7
:1013000084E005C081E003C082E001C083E0109268
:10131000A9021092CA021092A8020895CF93DF93F7
:10132000009779F0FC0101900020E9F73197AF01B7
:10133000481B590BBC0181E194E00E94C801EC01FB
:1013400002C0C0E0D0E042E050E06FE372E081E133
:1013500094E00E94C8018C0F9D1FDF91CF910895EA
:101360001F93CF93DF93EC01162F88818C3008F008
:101370004DC061E0812F0E94C40DE88195E09E9FE1
:10138000F0011124E058FA4F1F738081807C182BE4
:1013900010831382E8819E9FF0011124E058FA4FD8
:1013A000148288816CE00E94BC149CE0899FA0019B
:1013B000112420E030E095E0BA01620F731F969F80
:1013C000F001979FF00D1124E058FA4F608166FDFF
:1013D00013C02F5F3F4F2C30310571F781110CC0C6
:1013E0001092800082E0809381001092850010921C
:1013F000840086BB80936F00E88185E0E89FF00160
:101400001124E058FA4F8081806480838881DF91C5
:10141000CF911F9108950F931F93CF93DF93162FB2
:10142000072FC4ECD5E09C8521E02093A80290937F
:10143000FB051092A9021092CA02AA85BB85ED9104
:10144000FC9111970190F081E02D682FCD01199545
:101450008A859B85DC01ED91FC910190F081E02D66
:10146000602F19958A859B85DC01ED91FC91019097
:10147000F081E02D612F1995DF91CF911F910F9190
:101480000C943209CF92DF92EF92FF92CF93DF93C9
:101490009091EF05891720F09091F005981750F47E
:1014A00082E492E0DF91CF91FF90EF90DF90CF90B8
:1014B0000C948E09C091F505CC3008F07BC0282F24
:1014C00030E0D0E0283C3105E4F595E09C9FF00148
:1014D0009D9FF00D1124E058FA4F938128E830E0E9
:1014E0006901C91AD10897FDD394CC0CDD1CCC0C32
:1014F000DD1C0D2C000CEE08FF08948128E532E07D
:10150000291B310997FD3395220F331F220F331FFB
:10151000A901330F660B770B9A01AB012C193D091A
:101520004E095F09A82FB0E00E94801424EB30E040
:1015300040E050E00E946114C20ED31EE41EF51E6E
:1015400027C085E08C9FF0018D9FF00D1124E0589D
:10155000FA4F838148E850E06A01C81AD10887FD34
:10156000D394CC0CDD1CCC0CDD1C2C153D0584F07B
:10157000448188E592E0841B910947FD9395880F8B
:10158000991F880F991F69018C159D050CF46C013A
:101590008FB7F89495E09C9FF0019D9FF00D11246A
:1015A000E058FA4F96E0C91AD108CC0CDD1CD28263
:1015B000C1828FBFDF91CF91FF90EF90DF90CF90EE
:1015C0000895FC01248131E03093A8022093FB05AB
:1015D0001092A9021092CA028485682B8BEC92E0CB
:1015E0000E94AF0B0C9432090F931F93CF938C0181
:1015F000C62F64600E94E10A6C2F6B7FC8010E94B5
:10160000E10A83EC90E00197F1F7CF911F910F91E0
:101610000895FC01A089B1898C91A689B78982FDC2
:101620000FC09C91818D8F5F8F73228D821749F03F
:10163000218DDF01A20FB11D5D969C93818F0895CE
:101640008C91089585ED8093BC008091BC0084FD51
:10165000FCCF1092A702089540910D07262F30E08D
:10166000240F311D21323105DCF42091A7022430F2
:10167000C9F4FC0180E090E0861758F430910D0722
:101680002191DC01A351B94FA30FB11D2C930196F9
:10169000F3CF80910D07680F60930D0780E00895E8
:1016A00081E0089582E00895089508950895E091F5
:1016B000C3068091C206E81730F4F0E0E353F94F17
:1016C000808190E008958FEF9FEF08959091C30679
:1016D0008091C206981750F4E92FF0E0E353F94FD8
:1016E000208130E09F5F9093C30602C02FEF3FEF51
:1016F000C90108958091C20690E02091C306821B23
:1017000091090895CF92DF92EF92FF920F931F936A
:10171000CF93DF937C01CB018A012091A802222381
:1017200089F0EB016B01C40ED51ECC15DD0569F007
:101730006991D701ED91FC910190F081E02DC701F5
:101740001995F3CF642F0E942C0BC801DF91CF9124
:101750001F910F91FF90EF90DF90CF900895CF935E
:10176000DF931F92CDB7DEB769832091A8022223B1
:10177000D1F02091CA02203240F021E030E0FC019B
:101780003383228380E090E015C08091A902E82F86
:10179000F0E0E655FD4F998190838F5F8093A90219
:1017A0008093CA0205C061E0CE0101960E942C0B15
:1017B00081E090E00F90DF91CF9108953FB7F894CA
:1017C0008091C9069091CA06A091CB06B091CC0633
:1017D00026B5A89B05C02F3F19F00196A11DB11D8C
:1017E0003FBFBA2FA92F982F8827820F911DA11DC7
:1017F000B11DBC01CD0142E0660F771F881F991F04
:101800004A95D1F708951F920F920FB60F921124A7
:101810000F900FBE0F901F9018951F920F920FB64A
:101820000F9211240BB60F922F933F934F935F9318
:101830006F937F938F939F93AF93BF93EF93FF9398
:101840008091B900887F803609F49CC068F58832A1
:1018500009F45BC090F4803109F454C038F4882353
:1018600009F4F6C0883009F44DC0F6C0883109F497
:101870004CC0803209F45DC0EFC0803409F468C008
:1018800048F4803309F455C0883309F0E5C08093EB
:10189000A502D8C0803509F44FC0883509F45DC071
:1018A000883409F0D9C0D6C0883909F4C7C0A8F473
:1018B000883709F467C038F4883609F463C0803784
:1018C00009F460C0C9C0883809F4B8C0803909F487
:1018D0005FC0803809F0C0C05BC0803B09F486C09F
:1018E00038F4803A09F466C0883A09F47FC0B4C07D
:1018F000803C09F4A7C0883C09F4A4C0883B09F4E3
:101900008AC0AAC08091820210C09091A4028091E6
:10191000A302981770F5E091A40281E08E0F8093E6
:10192000A402F0E0ED57FD4F80818093BB0085EC71
:1019300086C08093A5028EC0E091A40281E08E0F44
:101940008093A4028091BB00F0E0ED57FD4F8083AF
:101950009091A4028091A3026EC0E091A40281E064
:101960008E0F8093A4028091BB00F0E0ED57FD4FF5
:1019700080838091A60281116DC081E080938102F5
:1019800084EA61C083E08093A70210922F07CFCF33
:1019900080912F07803208F051C0E0912F0781E03D
:1019A0008E0F80932F078091BB00F0E0E15FF84F2E
:1019B0008083BDCF85EC8093BC001092A7028091FC
:1019C0002F07803230F4E0912F07F0E0E15FF84F0D
:1019D000108260912F0770E0E091C606F091C70673
:1019E0008FE097E0199510922F0736C084E080931E
:1019F000A70210920E0710920D07E091C406F09115
:101A0000C506199580910D07811105C081E080936D
:101A10000D071092ED06E0910E0781E08E0F809386
:101A20000E07F0E0E351F94F80818093BB00909165
:101A30000E0780910D07981708F479CF85E88093F9
:101A4000BC000AC085EC8093BC001092A70204C0C1
:101A50001092A5020E94220BFF91EF91BF91AF91CE
:101A60009F918F917F916F915F914F913F912F91B6
:101A70000F900BBE0F900FBE0F901F90189590E027
:101A8000FC013197E231F10508F04EC08827EC5790
:101A9000FF4F8F4F0C94C814809180008F7703C044
:101AA000809180008F7D80938000089580918000D8
:101AB000877FF9CF84B58F7702C084B58F7D84BDD1
:101AC00008958091B0008F7703C08091B0008F7D22
:101AD0008093B0000895809190008F7707C0809127
:101AE00090008F7D03C080919000877F809390004D
:101AF00008958091A0008F7707C08091A0008F7D0E
:101B000003C08091A000877F8093A00008958091FA
:101B100020018F7707C0809120018F7D03C08091C5
:101B20002001877F8093200108951F93CF93DF9337
:101B3000282F30E0F901E152FD4F8491F901E75679
:101B4000FD4FD491F901ED5AFD4FC491CC23C1F062
:101B5000162F81110E943F0DEC2FF0E0EE0FFF1FBA
:101B6000E75CFD4FA591B4919FB7F894111104C0A3
:101B70008C91D095D82302C0EC91DE2BDC939FBFD3
:101B8000DF91CF911F910895CF93DF9390E0FC01F7
:101B9000E756FD4F2491FC01ED5AFD4F84918823B7
:101BA00061F190E0880F991FFC01E15EFD4FC59146
:101BB000D491FC01E75CFD4FA591B491611109C07E
:101BC0009FB7F8948881209582238883EC912E23F7
:101BD0000BC0623061F49FB7F8948881322F309542
:101BE00083238883EC912E2B2C939FBF06C08FB745
:101BF000F894E8812E2B28838FBFDF91CF91089531
:101C00008F929F92AF92BF92CF92DF92EF92FF920C
:101C10006B017C010E94DE0B4B015C01C114D104FD
:101C2000E104F104F1F00E94DE0BDC01CB01881924
:101C30009909AA09BB09883E9340A105B10570F333
:101C400021E0C21AD108E108F10888EE880E83E08D
:101C5000981EA11CB11CC114D104E104F10419F7B0
:101C6000DDCFFF90EF90DF90CF90BF90AF909F902F
:101C70008F9008951F920F920FB60F9211242F93F9
:101C80003F938F939F93AF93BF938091BE069091A4
:101C9000BF06A091C006B091C1063091C80623E0EE
:101CA000230F2D3720F40196A11DB11D05C026E894
:101CB000230F0296A11DB11D2093C8068093BE0676
:101CC0009093BF06A093C006B093C1068091C90649
:101CD0009091CA06A091CB06B091CC060196A11DA9
:101CE000B11D8093C9069093CA06A093CB06B0930A
:101CF000CC06BF91AF919F918F913F912F910F9003
:101D00000FBE0F901F901895789484B5826084BDA3
:101D100084B5816084BD85B5826085BD85B58160EF
:101D200085BD80916E00816080936E00109281006D
:101D30008091810082608093810080918100816028
:101D400080938100809180008160809380008091E9
:101D5000B10084608093B1008091B0008160809375
:101D6000B0008091910082608093910080919100F9
:101D700081608093910080919000816080939000B9
:101D80008091A10082608093A1008091A100816078
:101D90008093A1008091A00081608093A000809139
:101DA00021018260809321018091210181608093D3
:101DB00021018091200181608093200180917A002F
:101DC000846080937A0080917A00826080937A00A8
:101DD00080917A00816080937A0080917A00806897
:101DE00080937A001092C100E0912104F0912204C6
:101DF00082E08083E0911D04F0911E041082E09146
:101E00001F04F09120048FEC808310922904E0914C
:101E10002504F091260486E08083E0912304F0916C
:101E20002404808180618083E0912304F091240464
:101E3000808188608083E0912304F0912404808174
:101E400080688083E0912304F091240480818F7D59
:101E5000808361E08091C5050E94C40D60E080919F
:101E6000C5050E94950D60E08091C4050E94C40DD7
:101E70008BEC92E09093CF058093CE051092C30631
:101E80001092C2061092A9021092CA021092A702E2
:101E900081E08093A6021092810261E084E10E94B9
:101EA000950D61E085E10E94950D8091B9008E7FCE
:101EB0008093B9008091B9008D7F8093B90088E448
:101EC0008093B80085E48093BC0084E59BE0909308
:101ED000C5068093C40685E59BE09093C706809372
:101EE000C60680E090E1A0E0B0E08093D105909339
:101EF000D205A093D305B093D4058AE090E0A0E08A
:101F0000B0E08093D5059093D605A093D705B09304
:101F1000D80580E090E0A0E0B0E48093D9059093EC
:101F2000DA05A093DB05B093DC0560E070E185E0A5
:101F30000E940B0A6FE979E380E00E940B0AC4EC6F
:101F4000D5E08E0122E0722E38E8A32E32E0B32EC7
:101F50004EEC842E42E0942E5BECE52E57E0F52EFD
:101F6000F80194818281898F9A8F61E00E94C40D6B
:101F700061E08A8D0E94C40DF801908586816E0112
:101F8000FDE1CF0ED11C8D8F9E8F61E00E94C40DAC
:101F900060E08E8D0E94C40D61E08D8D0E94950DD4
:101FA0006FB6F89480916502811126C0F501849185
:101FB000F4012491E82FF0E0EE0FFF1FE15EFD4FEA
:101FC000A591B4919C91822F892321F461E085E34E
:101FD0000E94950D61E085E30E94C40D8CB580617F
:101FE0008CBD8CB580648CBD61E084E30E94C40D1F
:101FF00061E083E30E94C40D809165028F5F80934E
:1020000065026FBEC7010197F1F760E08D8D0E94F8
:10201000950D88E80E94CB0683E00E94CB0661E024
:102020008D8D0E94950DC7010197F1F7C6010E94A1
:10203000D2067A940F5F1F4F2296711091CFC9EE8E
:10204000D5E00DEE15E060E089910E94C40DF5E049
:10205000CD3EDF07C1F7C5EED5E08FEEC82E85E097
:10206000D82E78012FEFE21AF20AF801608170E0B1
:10207000C80108960E94B009F701958183818A8B77
:102080009B8B60E00E94C40D61E08B890E94C40DAF
:1020900060E08B890E94950D22968701CE14DF04A3
:1020A00001F7F8941092200189E08093210180E2E9
:1020B00093E09093290180932801109225011092BA
:1020C000240182E08093730078948093AE04109290
:1020D000B2048091AF0460E00E94C40DC5E0D1E07D
:1020E000809166028111D2C06091ED0570E085EFAC
:1020F00095E00E94B00960E67AEE80E090E00E94F0
:10210000000E8DE20E94420A0E940A0868EE73E007
:1021100080E090E00E94000E20E030E040EF51E4CB
:102120006AE979E989E99EE30E9419080E940A0890
:1021300068EE73E080E090E00E94000E82E80E946A
:10214000420A0E940A0868EE73E080E090E00E9474
:10215000000E81EE95E00E94FD066B017C0181EE90
:1021600095E00E94D20688279927DC018C199D09E9
:10217000AE09BF098C0183EE95E00E94D2064AE9C0
:1021800059E969E17EE38DED95E00E94B1054AE9E8
:1021900059E969E17EE38FED95E00E94B105C80140
:1021A00017FF03C0919581959109853E9340CCF529
:1021B0006AE070E080E090E00E94000E81EE95E021
:1021C0000E94FD066B017C0183EE95E00E94FD06F6
:1021D000F094E094D094C094C11CD11CE11CF11C7B
:1021E0009601D7FE04C0222733272C193D09AB01E5
:1021F00077FF04C044275527461B570BB901640FCE
:10220000751F072E000C880B990B0E94441320E0C9
:1022100030E040E05FE30E94A3130E943D158B0174
:10222000BECF20E030E042ED52E46AE979E989E985
:102230009EE30E9419080E940A0868EE73E080E09D
:1022400090E00E94000E8DE20E94420A0E940A085D
:1022500068EE73E080E090E00E94000E20E030E045
:1022600040EF51E46AE979E989E99EEB0E94190897
:10227000E091F505CE9FF0011124E058FA4F8081DE
:102280008F7B80830E940A08D093660268EE73E019
:1022900080E090E00E94000E0E945A0421CF8091BD
:1022A000BD059091BE050C9410161092CE021092AE
:1022B000CD0288EE93E0A0E0B0E08093CF0290934F
:1022C000D002A093D102B093D20223E132E0309346
:1022D000CC022093CB021092DA021092D9028093A2
:1022E000DB029093DC02A093DD02B093DE0225E2D4
:1022F00032E03093D8022093D70245E351E0509367
:10230000E4024093E30244E351E05093E602409339
:10231000E50240E351E05093E8024093E70241E3D5
:1023200051E05093EA024093E90242E351E05093B6
:10233000EC024093EB0246E351E05093EE024093EF
:10234000ED021092F0021092F1021092F20210923D
:10235000F3021092770310927603809378039093A0
:102360007903A0937A03B0937B0330937503209392
:10237000740345ED50E0509381034093800344ED96
:1023800050E0509383034093820340ED50E050931C
:1023900085034093840341ED50E0509387034093BD
:1023A000860342ED50E0509389034093880346ED45
:1023B00050E050938B0340938A0310928D03109248
:1023C0008E0310928F0310929003109214041092B7
:1023D00013048093150490931604A0931704B093EC
:1023E0001804309312042093110485EC90E090932C
:1023F0001E0480931D0484EC90E09093200480934D
:102400001F0480EC90E0909322048093210481ECDF
:1024100090E0909324048093230482EC90E09093C6
:1024200026048093250486EC90E090932804809302
:10243000270410922A0410922B0410922C0410925C
:102440002D048091070290910802A0910902B09199
:102450000A028093E5059093E605A093E705B09303
:10246000E80580910B0290910C02A0910D02B091B1
:102470000E028093E9059093EA05A093EB05B093D3
:10248000EC0584E08093ED0587E08093EE051092E3
:10249000EF0584EB8093F00586E18093F10588E1F8
:1024A0008093F20587E18093F30589E18093F40539
:1024B000E091BC05EC3020F08FEF8093F50510C063
:1024C00081E08E0F8093BC05E093F50585E0E89FE1
:1024D000F0011124E058FA4F88EB9BE0928381834E
:1024E000E091BC05EC3020F08FEF8093F60510C032
:1024F00081E08E0F8093BC05E093F60585E0E89FB0
:10250000F0011124E058FA4F88EB9BE0928381831D
:102510008CE08093C40584E28093C50586E08093B7
:10252000C60585E08093C7058FE18093C8058EE1DD
:102530008093C90583E28093CA0582E28093CB052C
:1025400085E48093CC0584E48093CD0580E480937A
:10255000D0051092D5051092D6051092D70510928D
:10256000D8051092D9051092DA051092DB05109269
:10257000DC05E0E0F6E02EEB36E08FEF9FEFDC01CC
:102580001282138214821582168217821086118697
:1025900083879487A587B6878787908BA18BB28B1B
:1025A00012861182108273962E173F0749F78DE02D
:1025B00090E00E947815FC011382128287E392E07A
:1025C00091838083118687E2848384E1828784E01B
:1025D00083871486F093FD05E093FC051092FE05B9
:1025E0001092FF0585E28093AF041092B10410921F
:1025F000BE051092BD051092C0051092BF05109245
:10260000C2051092C10561E070E080E090E00E9498
:102610009916009789F09093BE058093BD0510929E
:10262000C0051092BF052091C1053091C205232B32
:10263000C1F4FC01108215C08091BD059091BE05CA
:10264000009711F00E9410161092BE051092BD0561
:102650001092C2051092C1051092C0051092BF05DC
:1026600008951092C2051092C10561E472E0809154
:10267000BD059091BE050C948C170E947F1308F441
:1026800081E00895E89409C097FB3EF49095809509
:10269000709561957F4F8F4F9F4F9923A9F0F92F28
:1026A00096E9BB279395F695879577956795B795A6
:1026B000F111F8CFFAF4BB0F11F460FF1BC06F5F8C
:1026C0007F4F8F4F9F4F16C0882311F096E911C09E
:1026D000772321F09EE8872F762F05C0662371F0BF
:1026E00096E8862F70E060E02AF09A95660F771FD3
:1026F000881FDAF7880F9695879597F90895990FAF
:102700000008550FAA0BE0E8FEEF16161706E807BB
:10271000F907C0F012161306E407F50798F0621BDC
:10272000730B840B950B39F40A2661F0232B242BB1
:10273000252B21F408950A2609F4A140A6958FEFD0
:10274000811D811D08950E94B6130C9427140E94C8
:10275000191438F00E94201420F0952311F00C94E5
:1027600010140C94161411240C945B140E94381449
:1027700070F3959FC1F3950F50E0551F629FF001D4
:10278000729FBB27F00DB11D639FAA27F00DB11DED
:10279000AA1F649F6627B00DA11D661F829F222776
:1027A000B00DA11D621F739FB00DA11D621F839FFD
:1027B000A00D611D221F749F3327A00D611D231FD3
:1027C000849F600D211D822F762F6A2F11249F5721
:1027D00050409AF0F1F088234AF0EE0FFF1FBB1F24
:1027E000661F771F881F91505040A9F79E3F5105E3
:1027F00080F00C9410140C945B145F3FE4F3983E4B
:10280000D4F3869577956795B795F795E7959F5F8C
:10281000C1F7FE2B880F911D9695879597F908951E
:1028200097F99F6780E870E060E008959FEF80EC83
:10283000089500240A941616170618060906089526
:1028400000240A9412161306140605060895092E8C
:102850000394000C11F4882352F0BB0F40F4BF2BFB
:1028600011F460FF04C06F5F7F4F8F4F9F4F08953B
:1028700057FD9058440F551F59F05F3F71F0479531
:10288000880F97FB991F61F09F3F79F08795089516
:10289000121613061406551FF2CF4695F1DF08C035
:1028A000161617061806991FF1CF86957105610552
:1028B00008940895E894BB2766277727CB0197F9FA
:1028C0000895052E97FB1EF400940E94781457FD7E
:1028D00007D00E948B1407FC03D04EF40C9478149C
:1028E00050954095309521953F4F4F4F5F4F08953C
:1028F00090958095709561957F4F8F4F9F4F08956C
:102900000E94AD14A59F900DB49F900DA49F800DC3
:10291000911D11240895A1E21A2EAA1BBB1BFD01D3
:102920000DC0AA1FBB1FEE1FFF1FA217B307E407AE
:10293000F50720F0A21BB30BE40BF50B661F771F06
:10294000881F991F1A9469F76095709580959095E6
:102950009B01AC01BD01CF010895A29FB001B39FBF
:10296000C001A39F700D811D1124911DB29F700D98
:10297000811D1124911D0895991B79E004C0991FB0
:10298000961708F0961B881F7A95C9F780950895C9
:10299000EE0FFF1F881F8BBF0790F691E02D199453
:1029A0005058BB27AA270E94E8140C9427140E94B1
:1029B000191438F00E94201420F039F49F3F19F4C4
:1029C00026F40C9416140EF4E095E7FB0C94101406
:1029D000E92F0E94381458F3BA1762077307840767
:1029E000950720F079F4A6F50C945A140EF4E095AE
:1029F0000B2EBA2FA02D0B01B90190010C01CA01B9
:102A0000A0011124FF27591B99F0593F50F4503E63
:102A100068F11A16F040A22F232F342F4427585F55
:102A2000F3CF469537952795A795F0405395C9F76D
:102A30007EF41F16BA0B620B730B840BBAF0915025
:102A4000A1F0FF0FBB1F661F771F881FC2F70EC0C4
:102A5000BA0F621F731F841F48F487957795679597
:102A6000B795F7959E3F08F0B0CF9395880F08F083
:102A70009927EE0F9795879508950E9444156894BD
:102A8000B1110C945B1408950E94401488F09F5774
:102A900098F0B92F9927B751B0F0E1F0660F771F82
:102AA000881F991F1AF0BA95C9F714C0B13091F078
:102AB0000E945A14B1E008950C945A14672F782F8D
:102AC0008827B85F39F0B93FCCF38695779567953D
:102AD000B395D9F73EF490958095709561957F4FA9
:102AE0008F4F9F4F08950E947F1308F48FEF089532
:102AF0000F931F93CF93DF938230910510F482E000
:102B000090E0E0913407F091350720E030E0A0E05C
:102B1000B0E0309719F1408151810281138148174B
:102B20005907C8F08417950769F4109731F0129689
:102B30000C93129713961C9327C00093340710939D
:102B4000350722C02115310519F04217530718F433
:102B50009A01BD01EF01DF01F801DBCF211531053D
:102B6000F9F0281B390B2430310580F48A819B81D0
:102B70006115710521F0FB019383828304C090935A
:102B8000350780933407FE01329644C0FE01E20F00
:102B9000F31F8193919322503109398328833AC0DE
:102BA0002091320730913307232B41F42091030207
:102BB00030910402309333072093320720910102B1
:102BC000309102022115310541F42DB73EB74091F5
:102BD000050250910602241B350BE0913207F0915B
:102BE0003307E217F307A0F42E1B3F0B2817390712
:102BF00078F0AC014E5F5F4F2417350748F04E0F59
:102C00005F1F50933307409332078193919302C023
:102C1000E0E0F0E0CF01DF91CF911F910F91089597
:102C2000CF93DF93009709F481C0FC0132971382A0
:102C30001282A0913407B0913507109781F420815A
:102C40003181820F931F209132073091330728176B
:102C5000390751F5F0933307E093320767C0ED0170
:102C600020E030E0CE17DF0740F44A815B819E010F
:102C700041155105F1F0EA01F5CFD383C2834081BC
:102C80005181840F951FC817D90759F488819981FC
:102C9000840F951F0296918380838A819B81938301
:102CA00082832115310529F4F0933507E093340729
:102CB0003DC0E901FB83EA8349915991C40FD51FB7
:102CC000EC17FD0761F480819181840F951F0296B6
:102CD000E90199838883828193819B838A83E0E0E1
:102CE000F0E012968D919C911397009719F0FD01D9
:102CF000DC01F7CF8D919C9111979D012E5F3F4F85
:102D0000820F931F2091320730913307281739071C
:102D100069F4309729F4109235071092340702C0F5
:102D200013821282B0933307A0933207DF91CF91C1
:102D300008956F927F928F929F92AF92BF92CF929F
:102D4000DF92EF92FF920F931F93CF93DF93009741
:102D500089F4CB01DF91CF911F910F91FF90EF90FC
:102D6000DF90CF90BF90AF909F908F907F906F90AB
:102D70000C947815FC01E60FF71F9C0122503109D5
:102D8000E217F30708F4A9C0EC01D9010D911C91D9
:102D9000119706171707B0F00530110508F49BC00E
:102DA000C80104978617970708F495C002501109C7
:102DB000061B170B019311936D937C93CF010E9417
:102DC000101689C05B01A01AB10A4C01800E911E39
:102DD000A0913407B0913507612C712CE12CF12CB6
:102DE000109709F446C08D919C911197A815B905CB
:102DF000B1F56C0142E0C40ED11CCA14DB0478F1B9
:102E00004C018A189B08640142E0C40ED11C129642
:102E1000BC9012971396AC91B5E0CB16D10440F05C
:102E2000B282A38391828082D9016D937C9309C081
:102E30000E5F1F4F800F911FF90191838083EB2D4F
:102E4000FA2FE114F10431F0D7011396FC93EE93BD
:102E5000129741C0F0933507E09334073CC06816E1
:102E6000790608F43C017D0112960D90BC91A02DCD
:102E7000B7CF809132079091330788169906E1F415
:102E800066167706C8F480910102909102020097BD
:102E900041F48DB79EB74091050250910602841B04
:102EA000950BE817F907C8F4F0933307E09332075E
:102EB000F901718360830FC0CB010E9478157C01FA
:102EC000009759F0A801BE010E948317CE010E940D
:102ED0001016C70104C0CE0102C080E090E0DF916F
:102EE000CF911F910F91FF90EF90DF90CF90BF9007
:102EF000AF909F908F907F906F90089581E090E0C9
:102F0000F8940C949317FB01DC0102C001900D9220
:102F100041505040D8F70895FB01DC0101900D921B
:102F20000020E1F7089511E0C4E9D1E000E006C017
:102F3000802FFE010E94C8142196011DC539D107BA
:0A2F400080E00807A9F7F894FFCF1E
:102F4A00FF000036072000363738391B1D1A1C00CF
:102F5A00000000AF0B820B8804560B7A0B660B57E6
:102F6A000B000000004302C801F20190024B040169
:102F7A00021502000000008B04C801880487040DB2
:102F8A000A00536572766F20616E676C65206973FB
:102F9A00206F7574206F662072616E67652100006C
:00000001FF
