:100000000C9495010C94C6010C94C6010C94C60185
:100010000C94C6010C94C6010C94C6010C94C60144
:100020000C94C6010C94C4080C94C4080C94C40825
:100030000C94C6010C944D030C94C6010C94C6019B
:100040000C94C6010C94BC0C0C94C6010C94C60113
:100050000C94C6010C94C6010C94C6010C940303C5
:100060000C94C6010C94BC040C9492040C94C6012C
:100070000C94C6010C94C6010C94C6010C94C601E4
:100080000C94C6010C94C6010C94C6010C94C601D4
:100090000C94C6010C94C6010C94C6010C949207F2
:1000A0000C94C6010C94C6010C94C6010C94C601B4
:1000B0000C94C6010C94C6010C94C6010C944D0A14
:1000C0000C94C6010C94C6010C94C6010C946804EF
:1000D0000C943E040C94C6010C9414040C94EA0392
:1000E0000C94C60152025502440248024E028C0290
:1000F00059025D02630267026B02710275027902A6
:100100008C027F02830287026C0B710B760B800BD3
:100110008A0B030C940B9C0BA40BAE0BB80BC20BFD
:10012000D10BDB0B030CE50BEF0BF90B0C94940BD1
:100130000C949C0B0C94030C0C94EF0B0C94770513
:100140000C949A050C9471110C9471020C94630236
:100150000C9467020C94C20B0C94710B0C94B80BAA
:100160000C94E50B0C946C0B0C9459020C94CF0579
:100170000C9493090C94D10B0C9444020C948C02B3
:100180000C9487020C94DB0B0C9449090C947F02AD
:100190000C9452020C9497090C9479020C947605F5
:1001A0000C9475020C948A0B0C946B020C94260927
:1001B0000C9448020C9483020C9455020C94A205F2
:1001C0000C94F90B0C9475050C94760B0C94940913
:1001D0000C94ED010C94AE0B0C9459130C9435094E
:1001E0000C9457090C944E020C94A40B0C945D02D1
:1001F0000C9474050C94DE090C9486050C94800B09
:100200000C942B0A0200002100240027002A002D54
:10021000003000330001010000040107010A010061
:10022000002200250028002B002E0031003400029F
:10023000010000050108010B010000200023002639
:100240000029002C002F00320000010000030106ED
:10025000010901050505050705080808080202024D
:10026000020A0A0808040404040101010101010151
:10027000010303030303030303040707070C0C0C28
:100280000C0C0C0C0C020202020606060606060600
:10029000060B0B0B0B0B0B0B0B010210202008089D
:1002A00010204010204080020102010804020101D8
:1002B00002040810204080804020100804020180C1
:1002C0000402018040201008040201080402010118
:1002D0000204081020408001020408102040800021
:1002E000000A0B02090C0D0E0807030401000000B0
:1002F00000000000000000000000000000000000FE
:1003000000000000000000000000001211100000BA
:1003100000000000000000000000000000000000DD
:100320000000000000007111591311241FBECFEF0F
:10033000D1E2DEBFCDBF00E00CBF12E0A0E0B2E032
:10034000EEE8FFE200E00BBF02C007900D92A0367E
:10035000B107D9F727E0A0E6B2E001C01D92A633AD
:10036000B207E1F711E0C4E9D1E000E006C021974F
:100370000109802FFE010E94EA14C339D10780E0F1
:100380000807A9F70E948C0E0C94B5170C94000076
:100390003FB7F89480916C0290916D02A0916E022B
:1003A000B0916F0226B5A89B05C02F3F19F00196AA
:1003B000A11DB11D3FBFBA2FA92F982F8827820FEB
:1003C000911DA11DB11DBC01CD0142E0660F771F3B
:1003D000881F991F4A95D1F70895CF92DF92EF9227
:1003E000FF920F931F93CF93DF936C017A018B01E0
:1003F000C0E0D0E0CE15DF0581F0D8016D918D0110
:10040000D601ED91FC910190F081E02DC601199586
:10041000892B11F02196EECF7E01C701DF91CF919C
:100420001F910F91FF90EF90DF90CF9008950E9461
:10043000A01787E892E00E94570921E0892B09F470
:1004400020E0822F089584E293E00E94570921E082
:10045000892B09F420E0822F089581EC93E00E941B
:10046000570921E0892B09F420E0822F089590E0BC
:10047000FC013197E231F10508F04EC08827EE58B3
:10048000FF4F8F4F0C94EA14809180008F7703C048
:10049000809180008F7D80938000089580918000FE
:1004A000877FF9CF84B58F7702C084B58F7D84BDF7
:1004B00008958091B0008F7703C08091B0008F7D48
:1004C0008093B0000895809190008F7707C080914D
:1004D00090008F7D03C080919000877F8093900073
:1004E00008958091A0008F7707C08091A0008F7D34
:1004F00003C08091A000877F8093A0000895809121
:1005000020018F7707C0809120018F7D03C08091EB
:100510002001877F809320010895CF93DF9390E09F
:10052000FC01E756FD4F2491FC01ED5AFD4F8491EB
:10053000882361F190E0880F991FFC01EB5FFD4F6C
:10054000C591D491FC01E15EFD4FA591B49161117B
:1005500009C09FB7F8948881209582238883EC9105
:100560002E230BC0623061F49FB7F8948881322F3C
:10057000309583238883EC912E2B2C939FBF06C04C
:100580008FB7F894E8812E2B28838FBFDF91CF910E
:1005900008958F929F92AF92BF92CF92DF92EF9287
:1005A000FF926B017C010E94C8014B015C01C114E8
:1005B000D104E104F104F1F00E94C801DC01CB0197
:1005C00088199909AA09BB09883E9340A105B1057C
:1005D00070F321E0C21AD108E108F10888EE880E14
:1005E00083E0981EA11CB11CC114D104E104F104E4
:1005F00019F7DDCFFF90EF90DF90CF90BF90AF90D5
:100600009F908F9008951F920F920FB60F92112412
:100610002F933F938F939F93AF93BF9380916002EB
:1006200090916102A0916202B091630230916B02DD
:1006300023E0230F2D3720F40196A11DB11D05C025
:1006400026E8230F0296A11DB11D20936B02809313
:10065000600290936102A0936202B0936302809162
:100660006C0290916D02A0916E02B0916F020196A2
:10067000A11DB11D80936C0290936D02A0936E0238
:10068000B0936F02BF91AF919F918F913F912F9146
:100690000F900FBE0F901F9018951F920F920FB6DC
:1006A0000F9211240BB60F922F933F934F935F93AA
:1006B0006F937F938F939F93AF93BF93EF93FF932A
:1006C0008091650290916602A0916702B0916802E4
:1006D000892B8A2B8B2B49F1909164028091000029
:1006E0008927809300008091650290916602A09115
:1006F0006702B0916802181619061A061B060CF05C
:1007000056C08091650290916602A0916702B091F7
:1007100068020197A109B10980936502909366026E
:10072000A0936702B093680242C080910002E4E0A7
:10073000F2E0E4919FEF90930002E230C9F050F4B0
:10074000EE2399F0E13081F590916F009D7F9093B9
:100750006F002AC0E43019F1E0F0E53029F59091FE
:1007600073009D7F909373001FC010926E001CC099
:10077000909170009D7F9093700091E09093B000F5
:100780009091B100987F94609093B1001092B30063
:100790000BC0909171009D7F9093710005C0909166
:1007A00072009D7F9093720060E00E94F708FF91B5
:1007B000EF91BF91AF919F918F917F916F915F91D9
:1007C0004F913F912F910F900BBE0F900FBE0F9046
:1007D0001F9018951F920F920FB60F9211240BB60F
:1007E0000F922F933F934F935F936F937F938F93CA
:1007F0009F93AF93BF93EF93FF9387E892E00E949C
:10080000BC09FF91EF91BF91AF919F918F917F9123
:100810006F915F914F913F912F910F900BBE0F9071
:100820000FBE0F901F9018951F920F920FB60F9248
:1008300011240BB60F922F933F934F935F936F93B7
:100840007F938F939F93AF93BF93EF93FF9387E82B
:1008500092E00E947907FF91EF91BF91AF919F9134
:100860008F917F916F915F914F913F912F910F9059
:100870000BBE0F900FBE0F901F9018951F920F92F6
:100880000FB60F9211240BB60F922F933F934F93F5
:100890005F936F937F938F939F93AF93BF93EF93E8
:1008A000FF9384E293E00E94BC09FF91EF91BF9116
:1008B000AF919F918F917F916F915F914F913F91F8
:1008C0002F910F900BBE0F900FBE0F901F90189599
:1008D0001F920F920FB60F9211240BB60F922F9307
:1008E0003F934F935F936F937F938F939F93AF93B8
:1008F000BF93EF93FF9384E293E00E947907FF9107
:10090000EF91BF91AF919F918F917F916F915F9187
:100910004F913F912F910F900BBE0F900FBE0F90F4
:100920001F9018951F920F920FB60F9211240BB6BD
:100930000F922F933F934F935F936F937F938F9378
:100940009F93AF93BF93EF93FF9381EC93E00E944B
:10095000BC09FF91EF91BF91AF919F918F917F91D2
:100960006F915F914F913F912F910F900BBE0F9020
:100970000FBE0F901F9018951F920F920FB60F92F7
:1009800011240BB60F922F933F934F935F936F9366
:100990007F938F939F93AF93BF93EF93FF9381ECDC
:1009A00093E00E947907FF91EF91BF91AF919F91E2
:1009B0008F917F916F915F914F913F912F910F9008
:1009C0000BBE0F900FBE0F901F90189530917A02BA
:1009D000313208F04BC0809178028111FCCF9091A8
:1009E000550622E02093780221E0209377022FEF32
:1009F000209333061092320630933106E5E3F6E099
:100A0000A1E1B6E020E0321721F041914D932F5F34
:100A1000FACF1092100620911006990F922B909306
:100A2000100690917602913061F4109276029091C6
:100A300010069093BB009091BC0093FDF8CF95EC0D
:100A400001C095EE9093BC00909178029230E1F352
:100A5000909133069F3F79F080913306803241F0C8
:100A600080913306803331F084E005C081E003C01B
:100A700082E001C083E01092790210927A02109213
:100A80003406089585ED8093BC008091BC0084FD00
:100A9000FCCF1092780208954091ED05262F30E0AA
:100AA000240F311D21323105DCF4209178022430ED
:100AB000C9F4FC0180E090E0861758F43091ED0510
:100AC0002191DC01A353BA4FA30FB11D2C930196C2
:100AD000F3CF8091ED05680F6093ED0580E00895F8
:100AE00081E0089582E00895089508950895E091C1
:100AF000710280917002E81730F4F0E0E355FA4F8C
:100B0000808190E008958FEF9FEF0895909171029A
:100B100080917002981750F4E92FF0E0E355FA4FF6
:100B2000208130E09F5F9093710202C02FEF3FEF72
:100B3000C90108958091700290E020917102821B9A
:100B400091090895CF92DF92EF92FF920F931F9336
:100B5000CF93DF937C01CB018A01209134062223BD
:100B600089F0EB016B01C40ED51ECC15DD0569F0D3
:100B70006991D701ED91FC910190F081E02DC701C1
:100B80001995F3CF642F0E944C05C801DF91CF91D6
:100B90001F910F91FF90EF90DF90CF900895CF932A
:100BA000DF931F92CDB7DEB76983209134062223ED
:100BB000D1F020917A02203240F021E030E0FC01B7
:100BC0003383228380E090E015C080917902E82F82
:100BD000F0E0EB5CF94F998190838F5F809379020D
:100BE00080937A0205C061E0CE0101960E944C0517
:100BF00081E090E00F90DF91CF910895CF93DF9344
:100C0000009779F0FC0101900020E9F73197AF01DE
:100C1000481B590BBC0181EC93E00E94ED01EC01F3
:100C200002C0C0E0D0E042E050E06FE372E081EC4F
:100C300093E00E94ED018C0F9D1FDF91CF910895ED
:100C40001F93CF93DF93EC01162F88818C3008F02F
:100C50004DC061E0812F0E948D02E88195E09E9F4A
:100C6000F0011124E05DFA4F1F738081807C182B06
:100C700010831382E8819E9FF0011124E05DFA4FFA
:100C8000148288816CE00E94DE149CE0899FA001A0
:100C9000112420E030E095E0BA01620F731F969FA7
:100CA000F001979FF00D1124E05DFA4F608166FD21
:100CB00013C02F5F3F4F2C30310571F781110CC0ED
:100CC0001092800082E08093810010928500109243
:100CD000840086BB80936F00E88185E0E89FF00187
:100CE0001124E05DFA4F8081806480838881DF91E8
:100CF000CF911F9108950F931F93CF93DF93162FDA
:100D0000072FC4E7D5E09C8521E02093340690931B
:100D100055061092790210927A02AA85BB85ED9150
:100D2000FC9111970190F081E02D682FCD0119956C
:100D30008A859B85DC01ED91FC910190F081E02D8D
:100D4000602F19958A859B85DC01ED91FC910190BE
:100D5000F081E02D612F1995DF91CF911F910F91B7
:100D60000C94E604CF92DF92EF92FF92CF93DF9341
:100D700090919F05891720F09091A005981750F445
:100D800082E492E0DF91CF91FF90EF90DF90CF90DF
:100D90000C94FE05C091A505CC3008F07BC0282F2F
:100DA00030E0D0E0283C3105E4F595E09C9FF0016F
:100DB0009D9FF00D1124E05DFA4F938128E830E00B
:100DC0006901C91AD10897FDD394CC0CDD1CCC0C59
:100DD000DD1C0D2C000CEE08FF08948128E532E0A4
:100DE000291B310997FD3395220F331F220F331F23
:100DF000A901330F660B770B9A01AB012C193D0942
:100E00004E095F09A82FB0E00E94A21424EB30E045
:100E100040E050E00E948314C20ED31EE41EF51E73
:100E200027C085E08C9FF0018D9FF00D1124E05DBF
:100E3000FA4F838148E850E06A01C81AD10887FD5B
:100E4000D394CC0CDD1CCC0CDD1C2C153D0584F0A2
:100E5000448188E592E0841B910947FD9395880FB2
:100E6000991F880F991F69018C159D050CF46C0161
:100E70008FB7F89495E09C9FF0019D9FF00D112491
:100E8000E05DFA4F96E0C91AD108CC0CDD1CD28285
:100E9000C1828FBFDF91CF91FF90EF90DF90CF9015
:100EA0000895FC01248131E03093340620935506E7
:100EB0001092790210927A028485682B8BE792E077
:100EC0000E94CF050C94E6040F931F93CF938C01DF
:100ED000C62F64600E9451076C2F6B7FC8010E946F
:100EE000510783EC90E00197F1F7CF911F910F919B
:100EF0000895FC01A089B1898C91A689B78982FDEA
:100F00000FC09C91818D8F5F8F73228D821749F066
:100F1000218DDF01A20FB11D5D969C93818F0895F5
:100F20008C9108951F920F920FB60F9211240BB659
:100F30000F922F933F934F935F936F937F938F9372
:100F40009F93AF93BF93EF93FF938091B900887FF6
:100F5000803609F49CC068F5883209F45BC090F4CF
:100F6000803109F454C038F4882309F4F6C088307D
:100F700009F44DC0F6C0883109F44CC0803209F440
:100F80005DC0EFC0803409F468C048F4803309F4D0
:100F900055C0883309F0E5C080933306D8C080354A
:100FA00009F44FC0883509F45DC0883409F0D9C010
:100FB000D6C0883909F4C7C0A8F4883709F467C0D7
:100FC00038F4883609F463C0803709F460C0C9C0BA
:100FD000883809F4B8C0803909F45FC0803809F056
:100FE000C0C05BC0803B09F486C038F4803A09F485
:100FF00066C0883A09F47FC0B4C0803C09F4A7C039
:10100000883C09F4A4C0883B09F48AC0AAC0809136
:10101000100610C09091320680913106981770F535
:10102000E091320681E08E0F80933206F0E0EF5EB1
:10103000F94F80818093BB0085EC86C08093330696
:101040008EC0E091320681E08E0F8093320680914F
:10105000BB00F0E0EF5EF94F808390913206809103
:1010600031066EC0E091320681E08E0F8093320629
:101070008091BB00F0E0EF5EF94F808380917702B2
:1010800081116DC081E08093760284EA61C083E0C3
:101090008093780210920F06CFCF80910F06803296
:1010A00008F051C0E0910F0681E08E0F80930F068B
:1010B0008091BB00F0E0E151FA4F8083BDCF85EC19
:1010C0008093BC001092780280910F06803230F439
:1010D000E0910F06F0E0E151FA4F108260910F06A7
:1010E00070E0E0917402F09175028FEE95E0199531
:1010F00010920F0636C084E0809378021092EE05BD
:101100001092ED05E0917202F091730219958091B1
:10111000ED05811105C081E08093ED051092CD05AC
:10112000E091EE0581E08E0F8093EE05F0E0E35351
:10113000FA4F80818093BB009091EE058091ED0580
:10114000981708F479CF85E88093BC000AC085EC35
:101150008093BC001092780204C0109233060E9463
:101160004205FF91EF91BF91AF919F918F917F9138
:101170006F915F914F913F912F910F900BBE0F9008
:101180000FBE0F901F9018951F920F920FB60F92DF
:1011900011240F900FBE0F901F901895CF93DF93DF
:1011A000282F30E0F901E152FD4F8491F901E75613
:1011B000FD4FD491F901ED5AFD4FC491CC2391F02C
:1011C00081110E943702EC2FF0E0EE0FFF1FE75C69
:1011D000FD4FA591B491EC91ED2381E090E021F4D5
:1011E00080E002C080E090E0DF91CF9108951F93EE
:1011F000CF93DF93282F30E0F901E152FD4F849126
:10120000F901E756FD4FD491F901ED5AFD4FC49114
:10121000CC23C1F0162F81110E943702EC2FF0E091
:10122000EE0FFF1FE15EFD4FA591B4919FB7F894BB
:10123000111104C08C91D095D82302C0EC91DE2B03
:10124000DC939FBFDF91CF911F910895FC01538DD7
:10125000448D252F30E0842F90E0821B930B541790
:1012600010F0CF96089501970895FC01918D828D1D
:10127000981761F0828DDF01A80FB11D5D968C91EA
:10128000928D9F5F9F73928F90E008958FEF9FEFF5
:101290000895FC01918D828D981731F0828DE80FB1
:1012A000F11D858D90E008958FEF9FEF0895FC016B
:1012B000918D228D892F90E0805C9F4F821B910938
:1012C0008F7399270895E0E0F0E0199480E090E0B2
:1012D000892B21F00E942D02811119C080E090E03D
:1012E000892B41F080E090E0892B21F00E940000E2
:1012F000811110C00E94230281110FC080E090E094
:10130000892B81F00E94190281110AC008950E9460
:101310000000E4CF0E940000EDCF0E946309EECFF1
:101320000C9400000895089580E090E008950F93D4
:101330001F93CF93DF938C01C62FD62FD07FD16020
:101340006D2F0E9451076D2FC8010E94640780E134
:10135000C89FB0011124C62FC1606C2FC8010E9424
:1013600051076C2FC8010E94640781E090E0DF9173
:10137000CF911F910F910895FC01848DDF01A80F7B
:10138000B11DA35ABF4F2C91848D90E001968F73AD
:101390009927848FA689B7892C93A089B1898C91CC
:1013A000837080648C93938D848D981306C002881B
:1013B000F389E02D80818F7D80830895EF92FF92E5
:1013C0000F931F93CF93DF93EC0181E0888F9B8D68
:1013D0008C8D981305C0E889F989808185FD26C028
:1013E000F62E0B8D10E00F5F1F4F0F731127E02EAD
:1013F0008C8DE8120CC00FB607FCFACFE889F9898A
:10140000808185FFF5CFCE010E94BC09F1CF8B8D85
:10141000FE01E80FF11DE35AFF4FF0829FB7F894E9
:101420000B8FEA89FB89808180620AC09FB7F8949C
:10143000EE89FF896083E889F989808183708064FF
:1014400080839FBF81E090E0DF91CF911F910F914A
:10145000FF90EF900895CF93DF93EC01888D882360
:10146000C9F0EA89FB89808185FD05C0A889B98911
:101470008C9186FD0FC00FB607FCF5CF808185FFEC
:10148000F2CFA889B9898C9185FFEDCFCE010E945A
:10149000BC09E7CFDF91CF9108951F920F920FB64D
:1014A0000F9211240BB60F922F933F934F935F939C
:1014B0006F937F938F939F93AF93BF93EF93FF931C
:1014C00080915F040E94CE082091630430916404EF
:1014D0002F5F3F4F30936404209363049091620424
:1014E000953618F096E090935E0490915E049430E7
:1014F000C9F128F4923069F09330D1F05EC0953094
:1015000009F451C0963009F058C091E090932F052E
:1015100051C0811152C0209163043091640424367B
:10152000310508F442C010922F05109262041CC0CD
:10153000813009F042C0E091620491E09E0F9093E7
:101540006204F0E02091630430916404EE0FFF1F09
:10155000E25AFB4F30872783109264041092630491
:1015600094E029C0811117C0E091620491E09E0FC0
:1015700090936204F0E02091630430916404EE0FD4
:10158000FF1FE25AFB4F30872783109264041092AA
:10159000630493E010C02091630430916404253605
:1015A000310558F007C0811108C0109264041092F0
:1015B000630403C095E090935E04909161049923C5
:1015C000B9F081110AC080916004882321F08091D4
:1015D000600461E009C02F9A0BC0809160048823E9
:1015E00031F08091600460E00E94F70801C02F98FC
:1015F000FF91EF91BF91AF919F918F917F916F91EB
:101600005F914F913F912F910F900BBE0F900FBEA6
:101610000F901F9018958F929F92AF92BF92CF928A
:10162000DF92EF92FF920F931F93CF93DF938C0182
:101630006A017B0120E030E04FE753E4C701B601C7
:101640000E94C5134B015C0120E030E0A9010E941B
:10165000951518161CF4C501B40103C0C501B401E9
:1016600090580E945F15EB0120E030E0A901C7010E
:10167000B6010E949515181614F460E001C061E0EF
:10168000F80181810E94F708CF3FD10509F014F4D9
:10169000DD2702C0CFEFD0E0F801108161E0812F9B
:1016A0000E948D02209709F4B1C0CF3FD10509F403
:1016B000AFC0E12FF0E0E152FD4FE4918E2F90E0BA
:1016C000FC013197E231F10508F09DC08827EC5705
:1016D000FF4F8F4F0C94EA1484B5806884BDC7BD5A
:1016E000A7C084B5806284BDC8BDA2C080918000BF
:1016F000806880938000D0938900C093880098C050
:1017000080918000806280938000D0938B00C09392
:101710008A008EC080918000886080938000D09382
:101720008D00C0938C0084C08091B000806880934D
:10173000B000C093B3007CC08091B0008062809301
:10174000B000C093B40074C0809190008068809312
:101750009000D0939900C09398006AC08091900047
:10176000806280939000D0939B00C0939A0060C0E9
:1017700080919000886080939000D0939D00C093EA
:101780009C0056C08091A00080688093A00080914A
:10179000A0008F7B8093A000D093A900C093A800E5
:1017A00047C08091A00080628093A000D093AB00DE
:1017B000C093AA003DC08091A00088608093A000E3
:1017C000D093AD00C093AC0033C0809120018068FD
:1017D00080932001D0932901C093280129C08091D2
:1017E0002001806280932001D0932B01C0932A01B5
:1017F0001FC080912001886080932001D0932D012B
:10180000C0932C0115C0C038D10514F460E001C0AC
:1018100061E0812FDF91CF911F910F91FF90EF90A9
:10182000DF90CF90BF90AF909F908F900C94F7086F
:10183000DF91CF911F910F91FF90EF90DF90CF90AC
:10184000BF90AF909F908F9008958EBD00000DB413
:1018500007FEFDCF8EB50895CF93DF93EC0160E0D6
:1018600088810E94F70888E90E94250C80E00E9488
:10187000250C80E00E94250C80E00E94250C80E071
:101880000E94250C61E088810E94F7088BE891E0B6
:101890000197F1F760E088810E94F70880EE0E94CE
:1018A000250C61E08881DF91CF910C94F708AF920D
:1018B000BF92CF92DF92EF92FF920F931F93CF933D
:1018C000DF93CDB7DEB760970FB6F894DEBF0FBEDB
:1018D000CDBF5C0160E0FC0180810E94F70880E6DA
:1018E0000E94250C8E010F5F1F4F7E01F1E1EF0E6C
:1018F000F11C680180E00E94250C90E0A0E0B0E0BF
:10190000F60181939193A193B1936F01EE15FF05B9
:1019100089F761E0F50180810E94F70880E090E09E
:10192000DC01F80141915191619171918F01BA2FC0
:10193000A92F982F8827840F951FA61FB71FEE1574
:10194000FF0579F79C01AD0166277727CB01621B64
:10195000730B840B950B60960FB6F894DEBF0FBE29
:10196000CDBFDF91CF911F910F91FF90EF90DF904E
:10197000CF90BF90AF9008951F920F920FB60F9225
:1019800011240BB60F922F933F934F935F936F9356
:101990007F938F939F93AF93BF93EF93FF93809128
:1019A000310787FF05C0109285001092840016C091
:1019B00020913107022E000C330B80916C0590E0D2
:1019C000281739075CF43091310725E03203F00124
:1019D0001124E05DFA4F808186FD15C080913107AA
:1019E0008F5F8093310720913107022E000C330B5B
:1019F00080916C0590E02817390794F480913107A5
:101A00008C302CF10DC0309131073203F0011124DC
:101A1000E05DFA4F808160E08F730E94F708DECFAF
:101A2000809184009091850084349C4918F480E46E
:101A30009CE905C080918400909185000496909364
:101A40008900809388008FEF809331072AC04091EE
:101A50008400509185003091310725E03203F00178
:101A60001124E05DFA4F81819281840F951F90933C
:101A7000890080938800309131073203F0011124EE
:101A8000E05DFA4F808186FF0CC030913107320350
:101A9000F0011124E05DFA4F808161E08F730E94B4
:101AA000F708FF91EF91BF91AF919F918F917F9137
:101AB0006F915F914F913F912F910F900BBE0F90BF
:101AC0000FBE0F901F90189540E050E0BA018DE8CE
:101AD00095E00E940B0B40E050E060E070E88FE87A
:101AE00095E00C940B0B2F923F924F925F926F9266
:101AF0007F928F929F92AF92BF92CF92DF92EF929E
:101B0000FF920F931F93CF93DF93CDB7DEB7289744
:101B10000FB6F894DEBF0FBECDBF6B017C0149014B
:101B20005A0181E995E00E942C0C83E995E00E941E
:101B30002C0C25E83BEA45E053E4C501B4010E94C2
:101B4000C5130E945F158B01B701A6018DE895E0D2
:101B50000E940B0BB701A60170588FE895E00E9418
:101B60000B0B8FB7F8948090600290906102A09068
:101B70006202B09063028FBF212C312C18861F8225
:101B800022273327201B310B3E832D832F8138855D
:101B900037FF03C0319521953109C80117FF02C0F5
:101BA0008D819E81281739070CF09DC02FB7F894BE
:101BB0008091600290916102A0916202B0916302F3
:101BC0002FBF24E630E040E050E0281B390B4A0BE1
:101BD0005B0BCA01B901680D791D8A1D9B1D0E940E
:101BE000C9028FB7F8948090600290906102A09033
:101BF0006202B09063028FBF81E995E00E94570CAA
:101C00009B01AC0188279927DC01821B930BA40B55
:101C1000B50B4F815885480F591F58874F8381E96D
:101C200095E00E94570C69837A838B839C8381E9BA
:101C300095E00E942C0C83E995E00E94570C2B0143
:101C40003C0183E995E00E942C0C89819A81AB814B
:101C5000BC81B095A095909581959F4FAF4FBF4F98
:101C60009C01AD012419350946095709AAE0B0E0E5
:101C70000E94A214260E371E0E94661327E137EB3E
:101C800041ED58E30E94C513A70196010E94F31489
:101C90006B017C01B101032C000C880B990B0E9495
:101CA000661320EB3FE041E255E30E94C513A70114
:101CB00096010E94F3146B017C0120E030E040E8C3
:101CC0005FE30E945F1387FD06C0C12CD12C80E822
:101CD000E82E8FE3F82EB701A60170588FE895E043
:101CE0000E940B0B53CF28960FB6F894DEBF0FBEA1
:101CF000CDBFDF91CF911F910F91FF90EF90DF90BB
:101D0000CF90BF90AF909F908F907F906F905F909B
:101D10004F903F902F900895789484B5826084BD51
:101D200084B5816084BD85B5826085BD85B58160DF
:101D300085BD80916E00816080936E00109281005D
:101D40008091810082608093810080918100816018
:101D500080938100809180008160809380008091D9
:101D6000B10084608093B1008091B0008160809365
:101D7000B0008091910082608093910080919100E9
:101D800081608093910080919000816080939000A9
:101D90008091A10082608093A1008091A100816068
:101DA0008093A1008091A00081608093A000809129
:101DB00021018260809321018091210181608093C3
:101DC00021018091200181608093200180917A001F
:101DD000846080937A0080917A00826080937A0098
:101DE00080917A00816080937A0080917A00806887
:101DF00080937A001092C100E091D103F091D20358
:101E000082E08083E091CD03F091CE031082E091D7
:101E1000CF03F091D0038FEC80831092D903E0912F
:101E2000D503F091D60386E08083E091D303F0914F
:101E3000D403808180618083E091D303F091D40347
:101E4000808188608083E091D303F091D403808106
:101E500080688083E091D303F091D40380818F7DEB
:101E6000808361E0809175050E948D0260E0809121
:101E700075050E94F70860E0809174050E948D024C
:101E80008BE792E090937F0580937E05109271021C
:101E9000109270021092790210927A0210927802D7
:101EA00081E0809377021092760261E084E10E94E3
:101EB000F70861E085E10E94F7088091B9008E7F04
:101EC0008093B9008091B9008D7F8093B90088E438
:101ED0008093B80085E48093BC0084E795E09093FC
:101EE00073028093720285E795E090937502809368
:101EF000740280E090E1A0E0B0E0809381059093CF
:101F00008205A0938305B09384058AE090E0A0E069
:101F1000B0E08093850590938605A0938705B093E4
:101F2000880580E090E0A0E0B0E48093890590937C
:101F30008A05A0938B05B0938C0560E070E185E085
:101F40000E947B066FE979E380E00E947B06C4E78C
:101F5000D5E08E0192E0792E28E8A22E22E0B22E62
:101F60003EEC832E32E0932E4BECE42E47E0F42E31
:101F7000F80194818281898F9A8F61E00E948D029D
:101F800061E08A8D0E948D02F801908586816E0144
:101F9000FDE1CF0ED11C8D8F9E8F61E00E948D02DE
:101FA00060E08E8D0E948D0261E08D8D0E94F708A9
:101FB0006FB6F89480916902811126C0F501849171
:101FC000F4012491E82FF0E0EE0FFF1FEB5FFD4FCF
:101FD000A591B4919C91822F892321F461E085E33E
:101FE0000E94F70861E085E30E948D028CB5806154
:101FF0008CBD8CB580648CBD61E084E30E948D0251
:1020000061E083E30E948D02809169028F5F80937B
:1020100069026FBEC7010197F1F760E08D8D0E94E4
:10202000F70888E80E94250C83E00E94250C61E0F7
:102030008D8D0E94F708C7010197F1F7C6010E9434
:102040002C0C7A940F5F1F4F2296711091CF09E9E3
:1020500015E0CDE9D5E060E0F80181918F010E94A3
:102060008D02C017D107B9F705E915E07E01FFEF32
:10207000EF1AFF0A688170E0CE0108960E942006E0
:10208000F70195818381F801828B938B60E00E9438
:102090008D0261E0F80183890E948D0260E0F80101
:1020A00083890E94F7080E5F1F4FE701F5E0CF39E3
:1020B000DF07E1F6F8941092200189E08093210176
:1020C00080E293E0909329018093280110922501EA
:1020D0001092240182E080937300789480935E04D0
:1020E0001092620480915F0460E00E948D02C5E05E
:1020F000D1E080916A028111EBC060919D0570E092
:1021000085EA95E00E94200680919C050E94CE08F9
:10211000892B39F46AE070E080E090E00E94C90207
:10212000F3CF60E67AEE80E090E00E94C9028DE293
:102130000E94B2060E94640D68EE73E080E090E0B9
:102140000E94C90220E030E040EF51E46AE979E9F9
:1021500089E99EE30E94730D8FE80E94B20620E099
:1021600030E040E251E46AE979E989E99EE30E94BE
:10217000730D0E94640D6AEF70E080E090E00E94B1
:10218000C90220E030E040E251E46AE979E989E9F6
:102190009EEB0E94730D81E995E00E94570C6B0144
:1021A0007C0181E995E00E942C0C88279927DC01AD
:1021B0008C199D09AE09BF098C0183E995E00E9445
:1021C0002C0C4AE959E969E17EEB8DE895E00E9423
:1021D0000B0B4AE959E969E17EEB8FE895E00E9433
:1021E0000B0BC80117FF03C0919581959109853E9E
:1021F0009340CCF56AE070E080E090E00E94C90274
:1022000081E995E00E94570C6B017C0183E995E020
:102210000E94570CF094E094D094C094C11CD11C3F
:10222000E11CF11C9601D7FE04C0222733272C198C
:102230003D09AB0177FF04C044275527461B570BC8
:10224000B901640F751F072E000C880B990B0E94B3
:10225000661320E030E040E05FE30E94C5130E9477
:102260005F158B01BECF20E030E040EF52E46AE919
:1022700079E989E99EE30E94730D0E94640D68EE7E
:1022800073E080E090E00E94C9028DE20E94B206F5
:102290000E94640D68EE73E080E090E00E94C90245
:1022A00020E030E040EF51E46AE979E989E99EEB0A
:1022B0000E94730DE091A505CE9FF0011124E05D11
:1022C000FA4F80818F7B80830E94640DD0936A02D5
:1022D00068EE73E080E090E00E94C9020E94660907
:1022E00008CF10927E0210927D0288EE93E0A0E06B
:1022F000B0E080937F0290938002A0938102B0931C
:10230000820223E132E030937C0220937B02109220
:102310008A021092890280938B0290938C02A09380
:102320008D02B0938E0225E232E030938802209332
:10233000870245E351E0509394024093930244E3B3
:1023400051E0509396024093950240E351E0509340
:1023500098024093970241E351E050939A024093D0
:10236000990242E351E050939C0240939B0246E362
:1023700051E050939E0240939D021092A002109251
:10238000A1021092A2021092A302109227031092AF
:1023900026038093280390932903A0932A03B093E4
:1023A0002B03309325032093240345ED50E05093F5
:1023B00031034093300344ED50E050933303409396
:1023C000320340ED50E0509335034093340341ED28
:1023D00050E0509337034093360342ED50E0509362
:1023E00039034093380346ED50E050933B0340934C
:1023F0003A0310923D0310923E0310923F03109255
:1024000040031092C4031092C3038093C5039093BA
:10241000C603A093C703B093C8033093C2032093AD
:10242000C10385EC90E09093CE038093CD0384ECC0
:1024300090E09093D0038093CF0380EC90E0909352
:10244000D2038093D10381EC90E09093D4038093E6
:10245000D30382EC90E09093D6038093D50386EC6F
:1024600090E09093D8038093D7031092DA031092F0
:10247000DB031092DC031092DD0380910702909140
:102480000802A0910902B0910A02809395059093E9
:102490009605A0939705B093980580910B029091B3
:1024A0000C02A0910D02B0910E02809399059093B9
:1024B0009A05A0939B05B0939C0584E080939D05AD
:1024C00087E080939E0510929F0584EB8093A00582
:1024D00086E18093A10588E18093A20587E180933E
:1024E000A30589E18093A405E0916C05EC3020F010
:1024F0008FEF8093A50510C081E08E0F80936C054F
:10250000E093A50585E0E89FF0011124E05DFA4F16
:1025100088EB9BE092838183E0916C05EC3020F0A6
:102520008FEF8093A60510C081E08E0F80936C051D
:10253000E093A60585E0E89FF0011124E05DFA4FE5
:1025400088EB9BE0928381838CE08093740584E226
:102550008093750586E08093760585E08093770506
:102560008FE1809378058EE18093790583E28093F3
:102570007A0582E280937B0585E480937C0584E480
:1025800080937D0580E480938005109285051092EC
:102590008605109287051092880510928905109281
:1025A0008A0510928B0510928C05EAE5F6E028E189
:1025B00037E08FEF9FEFDC011282138214821582C5
:1025C000168217821086118683879487A587B6871F
:1025D0008787908BA18BB28B1286118210827396A3
:1025E0002E173F0749F78DE090E00E949A15FC01F5
:1025F0001382128287E392E091838083118687E2BF
:10260000848384E1828784E083871486F09357066D
:10261000E0935606109258061092590685E2809370
:102620005F041092610410926E0510926D05109275
:10263000700510926F05109272051092710561E09D
:1026400070E080E090E00E94BB16009789F09093C4
:102650006E0580936D051092700510926F052091A4
:10266000710530917205232BC1F4FC01108215C055
:1026700080916D0590916E05009711F00E943216C1
:1026800010926E0510926D051092720510927105F0
:102690001092700510926F050895109272051092B5
:1026A000710561E472E080916D0590916E050C9466
:1026B000AE1780916D0590916E050C9432160E94B4
:1026C000A11308F481E00895E89409C097FB3EF453
:1026D00090958095709561957F4F8F4F9F4F99236F
:1026E000A9F0F92F96E9BB279395F69587957795ED
:1026F0006795B795F111F8CFFAF4BB0F11F460FFAD
:102700001BC06F5F7F4F8F4F9F4F16C0882311F004
:1027100096E911C0772321F09EE8872F762F05C018
:10272000662371F096E8862F70E060E02AF09A95B3
:10273000660F771F881FDAF7880F9695879597F9A8
:102740000895990F0008550FAA0BE0E8FEEF161642
:102750001706E807F907C0F012161306E407F50795
:1027600098F0621B730B840B950B39F40A2661F009
:10277000232B242B252B21F408950A2609F4A140AC
:10278000A6958FEF811D811D08950E94D8130C948A
:1027900049140E943B1438F00E94421420F0952303
:1027A00011F00C9432140C94381411240C947D14F0
:1027B0000E945A1470F3959FC1F3950F50E0551F76
:1027C000629FF001729FBB27F00DB11D639FAA2786
:1027D000F00DB11DAA1F649F6627B00DA11D661FD5
:1027E000829F2227B00DA11D621F739FB00DA11DF6
:1027F000621F839FA00D611D221F749F3327A00DB0
:10280000611D231F849F600D211D822F762F6A2F4B
:1028100011249F5750409AF0F1F088234AF0EE0FB0
:10282000FF1FBB1F661F771F881F91505040A9F7DD
:102830009E3F510580F00C9432140C947D145F3F40
:10284000E4F3983ED4F3869577956795B795F79519
:10285000E7959F5FC1F7FE2B880F911D9695879591
:1028600097F9089597F99F6780E870E060E0089510
:102870009FEF80EC089500240A9416161706180698
:102880000906089500240A94121613061406050674
:102890000895092E0394000C11F4882352F0BB0F05
:1028A00040F4BF2B11F460FF04C06F5F7F4F8F4F68
:1028B0009F4F089557FD9058440F551F59F05F3FA3
:1028C00071F04795880F97FB991F61F09F3F79F052
:1028D00087950895121613061406551FF2CF4695D4
:1028E000F1DF08C0161617061806991FF1CF869556
:1028F0007105610508940895E894BB27662777273A
:10290000CB0197F90895052E97FB1EF400940E94C1
:102910009A1457FD07D00E94AD1407FC03D04EF463
:102920000C949A1450954095309521953F4F4F4FF8
:102930005F4F089590958095709561957F4F8F4F6B
:102940009F4F08950E94CF14A59F900DB49F900DA6
:10295000A49F800D911D11240895A1E21A2EAA1B97
:10296000BB1BFD010DC0AA1FBB1FEE1FFF1FA2173F
:10297000B307E407F50720F0A21BB30BE40BF50B3C
:10298000661F771F881F991F1A9469F760957095C5
:10299000809590959B01AC01BD01CF010895A29F48
:1029A000B001B39FC001A39F700D811D1124911D23
:1029B000B29F700D811D1124911D0895991B79E01E
:1029C00004C0991F961708F0961B881F7A95C9F7BF
:1029D00080950895EE0FFF1F881F8BBF0790F6911B
:1029E000E02D19945058BB27AA270E940A150C9471
:1029F00049140E943B1438F00E94421420F039F42C
:102A00009F3F19F426F40C9438140EF4E095E7FB7C
:102A10000C943214E92F0E945A1458F3BA17620723
:102A200073078407950720F079F4A6F50C947C14BD
:102A30000EF4E0950B2EBA2FA02D0B01B9019001D9
:102A40000C01CA01A0011124FF27591B99F0593F1D
:102A500050F4503E68F11A16F040A22F232F342F65
:102A60004427585FF3CF469537952795A795F040B3
:102A70005395C9F77EF41F16BA0B620B730B840BC8
:102A8000BAF09150A1F0FF0FBB1F661F771F881F80
:102A9000C2F70EC0BA0F621F731F841F48F48795D8
:102AA00077956795B795F7959E3F08F0B0CF9395CA
:102AB000880F08F09927EE0F9795879508950E9443
:102AC00066156894B1110C947D1408950E946214E7
:102AD00088F09F5798F0B92F9927B751B0F0E1F0DF
:102AE000660F771F881F991F1AF0BA95C9F714C08F
:102AF000B13091F00E947C14B1E008950C947C14E4
:102B0000672F782F8827B85F39F0B93FCCF38695C7
:102B100077956795B395D9F73EF490958095709524
:102B200061957F4F8F4F9F4F08950E94A11308F426
:102B30008FEF08950F931F93CF93DF93823091050A
:102B400010F482E090E0E0913407F091350720E046
:102B500030E0A0E0B0E0309719F14081518102816E
:102B6000138148175907C8F08417950769F410971F
:102B700031F012960C93129713961C9327C0009372
:102B800034071093350722C02115310519F042177B
:102B9000530718F49A01BD01EF01DF01F801DBCF03
:102BA00021153105F9F0281B390B2430310580F44B
:102BB0008A819B816115710521F0FB0193838283DA
:102BC00004C09093350780933407FE01329644C0C9
:102BD000FE01E20FF31F8193919322503109398353
:102BE00028833AC02091320730913307232B41F4D8
:102BF000209103023091040230933307209332076F
:102C000020910102309102022115310541F42DB7C6
:102C10003EB74091050250910602241B350BE0910E
:102C20003207F0913307E217F307A0F42E1B3F0B96
:102C30002817390778F0AC014E5F5F4F241735072E
:102C400048F04E0F5F1F5093330740933207819334
:102C5000919302C0E0E0F0E0CF01DF91CF911F91AE
:102C60000F910895CF93DF93009709F481C0FC0181
:102C7000329713821282A0913407B09135071097D2
:102C800081F420813181820F931F2091320730918E
:102C900033072817390751F5F0933307E0933207CC
:102CA00067C0ED0120E030E0CE17DF0740F44A8135
:102CB0005B819E0141155105F1F0EA01F5CFD38307
:102CC000C28340815181840F951FC817D90759F4D9
:102CD00088819981840F951F0296918380838A81D0
:102CE0009B81938382832115310529F4F093350765
:102CF000E09334073DC0E901FB83EA834991599190
:102D0000C40FD51FEC17FD0761F480819181840FFA
:102D1000951F0296E90199838883828193819B8321
:102D20008A83E0E0F0E012968D919C9113970097D2
:102D300019F0FD01DC01F7CF8D919C9111979D0158
:102D40002E5F3F4F820F931F209132073091330740
:102D50002817390769F4309729F410923507109233
:102D6000340702C013821282B0933307A093320754
:102D7000DF91CF9108956F927F928F929F92AF9241
:102D8000BF92CF92DF92EF92FF920F931F93CF9358
:102D9000DF93009789F4CB01DF91CF911F910F91C1
:102DA000FF90EF90DF90CF90BF90AF909F908F906B
:102DB0007F906F900C949A15FC01E60FF71F9C0111
:102DC00022503109E217F30708F4A9C0EC01D90138
:102DD0000D911C91119706171707B0F005301105DA
:102DE00008F49BC0C80104978617970708F495C09C
:102DF00002501109061B170B019311936D937C93DD
:102E0000CF010E94321689C05B01A01AB10A4C01A1
:102E1000800E911EA0913407B0913507612C712C62
:102E2000E12CF12C109709F446C08D919C911197DB
:102E3000A815B905B1F56C0142E0C40ED11CCA1445
:102E4000DB0478F14C018A189B08640142E0C40E4F
:102E5000D11C1296BC9012971396AC91B5E0CB168C
:102E6000D10440F0B282A38391828082D9016D9314
:102E70007C9309C00E5F1F4F800F911FF901918352
:102E80008083EB2DFA2FE114F10431F0D701139672
:102E9000FC93EE93129741C0F0933507E09334070B
:102EA0003CC06816790608F43C017D0112960D902D
:102EB000BC91A02DB7CF809132079091330788162F
:102EC0009906E1F466167706C8F4809101029091A4
:102ED0000202009741F48DB79EB7409105025091D0
:102EE0000602841B950BE817F907C8F4F093330723
:102EF000E0933207F901718360830FC0CB010E9418
:102F00009A157C01009759F0A801BE010E94A517EF
:102F1000CE010E943216C70104C0CE0102C080E07B
:102F200090E0DF91CF911F910F91FF90EF90DF9094
:102F3000CF90BF90AF909F908F907F906F900895AB
:102F400081E090E0F8940C94B517FB01DC0102C01D
:102F500001900D9241505040D8F70895FB01DC01DB
:102F600001900D920020E1F7089511E0C4E9D1E04D
:102F700000E006C0802FFE010E94EA142196011D88
:0E2F8000C539D10780E00807A9F7F894FFCF04
:102F8E00FF000036072000363738391B1D1A1C008B
:102F9E00000000CF05A205940976059A05860577EF
:102FAE000500000000DE09ED0126092B0A57093540
:102FBE00094909000000009709ED01940993090DD4
:102FCE000A00536572766F20616E676C65206973B7
:102FDE00206F7574206F662072616E676521000028
:00000001FF
