:100000000C9495010C94C6010C94C6010C94C60185
:100010000C94C6010C94C6010C94C6010C94C60144
:100020000C94C6010C948C0D0C948C0D0C948C0DBE
:100030000C94C6010C94ED030C94C6010C94C601FB
:100040000C94C6010C94F2080C94C6010C94C601E1
:100050000C94C6010C94C6010C94C6010C94A30325
:100060000C94C6010C945C050C9432050C94C601EA
:100070000C94C6010C94C6010C94C6010C94C601E4
:100080000C94C6010C94C6010C94C6010C94C601D4
:100090000C94C6010C94C6010C94C6010C94960DE8
:1000A0000C94C6010C94C6010C94C6010C94C601B4
:1000B0000C94C6010C94C6010C94C6010C9427073D
:1000C0000C94C6010C94C6010C94C6010C9408054E
:1000D0000C94DE040C94C6010C94B4040C948A04B1
:1000E0000C94C601F202F502E402E802EE022C03CF
:1000F000F902FD02030307030B03110315031903A0
:100100002C031F032303270327062C0631063B0677
:100110004506BE064F0657065F06690673067D064E
:100120008C069606BE06A006AA06B4060C947306B4
:100130000C9419030C9407030C9414120C94EE0203
:100140000C9445060C941F030C94E4020C942303B6
:100150000C9496060C940D0C0C942C060C944F06E3
:100160000C94F5020C94C2050C942C030C941F0CF7
:100170000C9469060C94AA060C94E0060C94680C86
:100180000C94B4060C947D060C94E8020C940F0CAD
:100190000C9457060C9431060C9468020C940B03D3
:1001A0000C9417020C94A0060C9427030C945F0681
:1001B0000C94BE060C94C3050C9486050C94260280
:1001C0000C94F2020C94330C0C943B0C0C943B06F4
:1001D0000C9415030C943A020C94ED010C94B502A6
:1001E0000C94100C0C948C060C941A120C94F902BA
:1001F0000C9411030C94FD020C9427060C940E0C25
:100200000C9403030200002100240027002A002D83
:10021000003000330001010000040107010A010061
:10022000002200250028002B002E0031003400029F
:10023000010000050108010B010000200023002639
:100240000029002C002F00320000010000030106ED
:10025000010901050505050705080808080202024D
:10026000020A0A0808040404040101010101010151
:10027000010303030303030303040707070C0C0C28
:100280000C0C0C0C0C020202020606060606060600
:10029000060B0B0B0B0B0B0B0B010210202008089D
:1002A00010204010204080020102010804020101D8
:1002B00002040810204080804020100804020180C1
:1002C0000402018040201008040201080402010118
:1002D0000204081020408001020408102040800021
:1002E000000A0B02090C0D0E0807030401000000B0
:1002F00000000000000000000000000000000000FE
:1003000000000000000000000000001211100000BA
:1003100000000000000000000000000000000000DD
:100320000000000000001A12141211241FBECFEFAB
:10033000D1E2DEBFCDBF00E00CBF12E0A0E0B2E032
:10034000E4EEF0E300E00BBF02C007900D92A03690
:10035000B107D9F727E0A0E6B2E001C01D92A633AD
:10036000B207E1F711E0C4E9D1E000E006C021974F
:100370000109802FFE010E949515C339D10780E045
:100380000807A9F70E94200F0C9460180C94000035
:100390003FB7F89480916C0290916D02A0916E022B
:1003A000B0916F0226B5A89B05C02F3F19F00196AA
:1003B000A11DB11D3FBFBA2FA92F982F8827820FEB
:1003C000911DA11DB11DBC01CD0142E0660F771F3B
:1003D000881F991F4A95D1F70895CF92DF92EF9227
:1003E000FF920F931F93CF93DF936C017A018B01E0
:1003F000C0E0D0E0CE15DF0581F0D8016D918D0110
:10040000D601ED91FC910190F081E02DC601199586
:10041000892B11F02196EECF7E01C701DF91CF919C
:100420001F910F91FF90EF90DF90CF900895FC0106
:10043000538D448D252F30E0842F90E0821B930B49
:10044000541710F0CF96089501970895FC01918DEF
:10045000828D981761F0828DDF01A80FB11D5D9626
:100460008C91928D9F5F9F73928F90E008958FEF94
:100470009FEF0895FC01918D828D981731F0828D48
:10048000E80FF11D858D90E008958FEF9FEF08959F
:100490000E944B1881EA92E00E94860521E0892B98
:1004A00009F420E0822F08958EE393E00E948605F0
:1004B00021E0892B09F420E0822F08958BED93E051
:1004C0000E94860521E0892B09F420E0822F0895FF
:1004D000EF92FF920F931F93CF93DF93EC0181E094
:1004E000888F9B8D8C8D981305C0E889F989808150
:1004F00085FD26C0F62E0B8D10E00F5F1F4F0F738A
:100500001127E02E8C8DE8120CC00FB607FCFACF35
:10051000E889F989808185FFF5CFCE010E94050722
:10052000F1CF8B8DFE01E80FF11DE35AFF4FF082F2
:100530009FB7F8940B8FEA89FB89808180620AC09B
:100540009FB7F894EE89FF896083E889F9898081F3
:100550008370806480839FBF81E090E0DF91CF91C2
:100560001F910F91FF90EF900895CF93DF93EC01CF
:10057000888D8823C9F0EA89FB89808185FD05C0C3
:10058000A889B9898C9186FD0FC00FB607FCF5CFFD
:10059000808185FFF2CFA889B9898C9185FFEDCF45
:1005A000CE010E940507E7CFDF91CF91089590E03B
:1005B000FC013197E231F10508F04EC08827EE5872
:1005C000FF4F8F4F0C949515809180008F7703C05B
:1005D000809180008F7D80938000089580918000BD
:1005E000877FF9CF84B58F7702C084B58F7D84BDB6
:1005F00008958091B0008F7703C08091B0008F7D07
:100600008093B0000895809190008F7707C080910B
:1006100090008F7D03C080919000877F8093900031
:1006200008958091A0008F7707C08091A0008F7DF2
:1006300003C08091A000877F8093A00008958091DF
:1006400020018F7707C0809120018F7D03C08091AA
:100650002001877F809320010895CF93DF9390E05E
:10066000FC01E756FD4F2491FC01ED5AFD4F8491AA
:10067000882361F190E0880F991FFC01EB5FFD4F2B
:10068000C591D491FC01E15EFD4FA591B49161113A
:1006900009C09FB7F8948881209582238883EC91C4
:1006A0002E230BC0623061F49FB7F8948881322FFB
:1006B000309583238883EC912E2B2C939FBF06C00B
:1006C0008FB7F894E8812E2B28838FBFDF91CF91CD
:1006D00008958F929F92AF92BF92CF92DF92EF9246
:1006E000FF926B017C010E94C8014B015C01C114A7
:1006F000D104E104F104F1F00E94C801DC01CB0156
:1007000088199909AA09BB09883E9340A105B1053A
:1007100070F321E0C21AD108E108F10888EE880ED2
:1007200083E0981EA11CB11CC114D104E104F104A2
:1007300019F7DDCFFF90EF90DF90CF90BF90AF9093
:100740009F908F9008951F920F920FB60F921124D1
:100750002F933F938F939F93AF93BF9380916002AA
:1007600090916102A0916202B091630230916B029C
:1007700023E0230F2D3720F40196A11DB11D05C0E4
:1007800026E8230F0296A11DB11D20936B028093D2
:10079000600290936102A0936202B0936302809121
:1007A0006C0290916D02A0916E02B0916F02019661
:1007B000A11DB11D80936C0290936D02A0936E02F7
:1007C000B0936F02BF91AF919F918F913F912F9105
:1007D0000F900FBE0F901F9018951F920F920FB69B
:1007E0000F9211240BB60F922F933F934F935F9369
:1007F0006F937F938F939F93AF93BF93EF93FF93E9
:100800008091650290916602A0916702B0916802A2
:10081000892B8A2B8B2B49F19091640280910000E7
:100820008927809300008091650290916602A091D3
:100830006702B0916802181619061A061B060CF01A
:1008400056C08091650290916602A0916702B091B6
:1008500068020197A109B10980936502909366022D
:10086000A0936702B093680242C080910002E4E066
:10087000F2E0E4919FEF90930002E230C9F050F46F
:10088000EE2399F0E13081F590916F009D7F909378
:100890006F002AC0E43019F1E0F0E53029F59091BD
:1008A00073009D7F909373001FC010926E001CC058
:1008B000909170009D7F9093700091E09093B000B4
:1008C0009091B100987F94609093B1001092B30022
:1008D0000BC0909171009D7F9093710005C0909125
:1008E00072009D7F9093720060E00E94F10EFF9174
:1008F000EF91BF91AF919F918F917F916F915F9198
:100900004F913F912F910F900BBE0F900FBE0F9004
:100910001F9018951F920F920FB60F9211240BB6CD
:100920000F922F933F934F935F936F937F938F9388
:100930009F93AF93BF93EF93FF9381EA92E00E945E
:100940000507FF91EF91BF91AF919F918F917F919B
:100950006F915F914F913F912F910F900BBE0F9030
:100960000FBE0F901F9018951F920F920FB60F9207
:1009700011240BB60F922F933F934F935F936F9376
:100980007F938F939F93AF93BF93EF93FF9381EAEE
:1009900092E00E94730DFF91EF91BF91AF919F91F3
:1009A0008F917F916F915F914F913F912F910F9018
:1009B0000BBE0F900FBE0F901F9018951F920F92B5
:1009C0000FB60F9211240BB60F922F933F934F93B4
:1009D0005F936F937F938F939F93AF93BF93EF93A7
:1009E000FF938EE393E00E940507FF91EF91BF9183
:1009F000AF919F918F917F916F915F914F913F91B7
:100A00002F910F900BBE0F900FBE0F901F90189557
:100A10001F920F920FB60F9211240BB60F922F93C5
:100A20003F934F935F936F937F938F939F93AF9376
:100A3000BF93EF93FF938EE393E00E94730DFF91BA
:100A4000EF91BF91AF919F918F917F916F915F9146
:100A50004F913F912F910F900BBE0F900FBE0F90B3
:100A60001F9018951F920F920FB60F9211240BB67C
:100A70000F922F933F934F935F936F937F938F9337
:100A80009F93AF93BF93EF93FF938BED93E00E94FF
:100A90000507FF91EF91BF91AF919F918F917F914A
:100AA0006F915F914F913F912F910F900BBE0F90DF
:100AB0000FBE0F901F9018951F920F920FB60F92B6
:100AC00011240BB60F922F933F934F935F936F9325
:100AD0007F938F939F93AF93BF93EF93FF938BED90
:100AE00093E00E94730DFF91EF91BF91AF919F91A1
:100AF0008F917F916F915F914F913F912F910F90C7
:100B00000BBE0F900FBE0F901F901895FC01918D9A
:100B1000228D892F90E0805C9F4F821B91098F73FB
:100B200099270895E0E0F0E0199480E090E0892BA7
:100B300021F00E945E02811119C080E090E0892BB3
:100B400041F080E090E0892B21F00E9400008111AB
:100B500010C00E94540281110FC080E090E0892BE8
:100B600081F00E944A0281110AC008950E9400008B
:100B7000E4CF0E940000EDCF0E949205EECF0C94CE
:100B800000000895089580E090E008958F929F926C
:100B9000AF92BF92CF92DF92EF92FF920F931F938B
:100BA000CF93DF938C016A017B0120E030E04FE7B7
:100BB00053E4C701B6010E9468144B015C0120E0B8
:100BC00030E0A9010E94401618161CF4C501B401BA
:100BD00003C0C501B40190580E940A16EB0120E041
:100BE00030E0A901C701B6010E944016181614F49E
:100BF00060E001C061E0F80181810E94F10ECF3F09
:100C0000D10509F014F4DD2702C0CFEFD0E0F801E0
:100C1000108161E0812F0E942D03209709F4B1C05B
:100C2000CF3FD10509F4AFC0E12FF0E0E152FD4F15
:100C3000E4918E2F90E0FC013197E231F10508F04C
:100C40009DC08827EC57FF4F8F4F0C94951584B5A6
:100C5000806884BDC7BDA7C084B5806284BDC8BD9F
:100C6000A2C080918000806880938000D09389002A
:100C7000C093880098C0809180008062809380003B
:100C8000D0938B00C0938A008EC0809180008860D2
:100C900080938000D0938D00C0938C0084C080919D
:100CA000B00080688093B000C093B3007CC0809196
:100CB000B00080628093B000C093B40074C0809193
:100CC0009000806880939000D0939900C093980022
:100CD0006AC080919000806280939000D0939B00C6
:100CE000C0939A0060C080919000886080939000CB
:100CF000D0939D00C0939C0056C08091A000806856
:100D00008093A0008091A0008F7B8093A000D0935F
:100D1000A900C093A80047C08091A0008062809382
:100D2000A000D093AB00C093AA003DC08091A0006A
:100D300088608093A000D093AD00C093AC0033C016
:100D400080912001806880932001D0932901C09375
:100D5000280129C080912001806280932001D093D6
:100D60002B01C0932A011FC08091200188608093CD
:100D70002001D0932D01C0932C0115C0C038D1059E
:100D800014F460E001C061E0812FDF91CF911F91E9
:100D90000F91FF90EF90DF90CF90BF90AF909F901A
:100DA0008F900C94F10EDF91CF911F910F91FF90D6
:100DB000EF90DF90CF90BF90AF909F908F9008956D
:100DC0000F931F93CF93DF938C01C62FD62FD07F25
:100DD000D1606D2F0E944B0D6D2FC8010E945E0DDA
:100DE00080E1C89FB0011124C62FC1606C2FC801DB
:100DF0000E944B0D6C2FC8010E945E0D81E090E0B7
:100E0000DF91CF911F910F910895FC01848DDF0137
:100E1000A80FB11DA35ABF4F2C91848D90E001966D
:100E20008F739927848FA689B7892C93A089B1895C
:100E30008C91837080648C93938D848D981306C0FD
:100E40000288F389E02D80818F7D808308951F9231
:100E50000F920FB60F9211240BB60F922F933F9360
:100E60004F935F936F937F938F939F93AF93BF93B2
:100E7000EF93FF93809179040E94C80E20917D0426
:100E800030917E042F5F3F4F30937E0420937D048A
:100E900090917C04953618F096E0909378049091A8
:100EA00078049430C9F128F4923069F09330D1F08D
:100EB0005EC0953009F451C0963009F058C091E0F9
:100EC0009093490551C0811152C020917D04309109
:100ED0007E042436310508F442C010924905109270
:100EE0007C041CC0813009F042C0E0917C0491E098
:100EF0009E0F90937C04F0E020917D0430917E045D
:100F0000EE0FFF1FE858FB4F3087278310927E04B7
:100F100010927D0494E029C0811117C0E0917C04F7
:100F200091E09E0F90937C04F0E020917D0430913D
:100F30007E04EE0FFF1FE858FB4F30872783109287
:100F40007E0410927D0493E010C020917D043091C6
:100F50007E042536310558F007C0811108C0109273
:100F60007E0410927D0403C095E0909378049091E4
:100F70007B049923B9F081110AC080917A048823F7
:100F800021F080917A0461E009C02F9A0BC0809112
:100F90007A04882331F080917A0460E00E94F10E97
:100FA00001C02F98FF91EF91BF91AF919F918F91C9
:100FB0007F916F915F914F913F912F910F900BBE59
:100FC0000F900FBE0F901F9018958EBD00000DB4AE
:100FD00007FEFDCF8EB50895CF93DF93EC0160E05F
:100FE00088810E94F10E88E90E94E50780E00E9456
:100FF000E50780E00E94E50780E00E94E50780E0C9
:101000000E94E50761E088810E94F10E8BE891E083
:101010000197F1F760E088810E94F10E80EE0E9456
:10102000E50761E08881DF91CF910C94F10EAF92DA
:10103000BF92CF92DF92EF92FF920F931F93CF93C5
:10104000DF93CDB7DEB760970FB6F894DEBF0FBE63
:10105000CDBF5C0160E0FC0180810E94F10E80E662
:101060000E94E5078E010F5F1F4F7E01F1E1EF0E39
:10107000F11C680180E00E94E50790E0A0E0B0E08C
:10108000F60181939193A193B1936F01EE15FF0542
:1010900089F761E0F50180810E94F10E80E090E027
:1010A000DC01F80141915191619171918F01BA2F49
:1010B000A92F982F8827840F951FA61FB71FEE15FD
:1010C000FF0579F79C01AD0166277727CB01621BED
:1010D000730B840B950B60960FB6F894DEBF0FBEB2
:1010E000CDBFDF91CF911F910F91FF90EF90DF90D7
:1010F000CF90BF90AF900895CF92DF92EF92FF9282
:10110000CF93DF93FC01C081CC3008F064C0D0E005
:1011100085E08C9FF0018D9FF00D1124E65BFA4F66
:10112000838128E830E06901C81AD10887FDD3948B
:10113000CC0CDD1CCC0CDD1C683C71053CF50D2C89
:10114000000CEE08FF08848128E532E0281B3109F5
:1011500087FD3395220F331F220F331FC901330F31
:10116000AA0BBB0B9C01AD012C193D094E095F096F
:10117000DB010E94501524EB30E040E050E00E947B
:101180002615C20ED31EE41EF51E13C06C157D0578
:1011900084F0248188E592E0821B910927FD9395D4
:1011A000880F991F880F991F6B01861797070CF4FA
:1011B0006C018FB7F89495E09C9FF0019D9FF00D16
:1011C0001124E65BFA4F96E0C91AD108CC0CDD1C5D
:1011D000D282C1828FBFDF91CF91FF90EF90DF90DD
:1011E000CF9008951F920F920FB60F9211240BB655
:1011F0000F922F933F934F935F936F937F938F93B0
:101200009F93AF93BF93EF93FF938091890287FFE2
:1012100005C0109285001092840016C020918902AA
:10122000022E000C330B8091860590E028173907B9
:101230005CF43091890225E03203F0011124E65B71
:10124000FA4F808186FD15C0809189028F5F80935F
:10125000890220918902022E000C330B80918605B1
:1012600090E02817390794F4809189028C302CF192
:101270000DC0309189023203F0011124E65BFA4F70
:10128000808160E08F730E94F10EDECF8091840038
:101290009091850084349C4918F480E49CE905C051
:1012A00080918400909185000496909389008093AA
:1012B00088008FEF809389022AC04091840050916A
:1012C00085003091890225E03203F0011124E65BAC
:1012D000FA4F81819281840F951F909389008093AA
:1012E0008800309189023203F0011124E65BFA4F45
:1012F000808186FF0CC0309189023203F0011124F5
:10130000E65BFA4F808161E08F730E94F10EFF91DE
:10131000EF91BF91AF919F918F917F916F915F916D
:101320004F913F912F910F900BBE0F900FBE0F90DA
:101330001F9018958F929F92AF92BF92CF92DF929B
:10134000EF92FF92CF93DF936B017C0120E030E0BE
:10135000A9010E94021487FD03C0C1E0D0E002C0D1
:10136000CFEFDFEF20E030E449E754E4C701B601F6
:101370000E9468146B017C018BEA95E00E941708BB
:101380004B015C018BEA95E00E94EC0788279927C6
:10139000DC0188199909AA09BB09B82EA92E8DEA82
:1013A00095E00E94EC07BE010D2E000C880B990BF6
:1013B0000E9409142AE939E949E15EE30E946814B0
:1013C000AB01BC0187EA95E00E94C6056627772736
:1013D0006C1B7D0B072E000C880B990B0E940914C7
:1013E0002AE939E949E15EE30E946814AB01BC01D6
:1013F000705889EA95E00E94C605CB2DDA2DD7FFFB
:1014000003C0D195C195D109C701B6010E940A1642
:101410009B0177FF04C022273327261B370BC217F7
:10142000D307D4F56AE070E080E090E00E946903A1
:101430008BEA95E00E9417084B015C018DEA95E06C
:101440000E941708B094A09490948094811C911CE1
:10145000A11CB11C940197FE04C022273327281930
:101460003909AB0177FF04C044275527461B570BAA
:10147000B901640F751F072E000C880B990B0E9491
:10148000091420E030E040E05FE30E9468140E940D
:101490000A16B62EA72EB1CFDF91CF91FF90EF9015
:1014A000DF90CF90BF90AF909F908F90089540E0D5
:1014B00050E0BA0187EA95E00E94C60540E050E09E
:1014C00060E070E889EA95E00C94C6052F923F929F
:1014D0004F925F926F927F928F929F92AF92BF9244
:1014E000CF92DF92EF92FF920F931F93CF93DF93F0
:1014F000CDB7DEB728970FB6F894DEBF0FBECDBFCD
:101500006B017C0149015A018BEA95E00E94EC07CE
:101510008DEA95E00E94EC0725E83BEA45E053E4BC
:10152000C501B4010E9468140E940A168B01B7011C
:10153000A60187EA95E00E94C605B701A60170588A
:1015400089EA95E00E94C6058FB7F8948090600202
:1015500090906102A0906202B09063028FBF212C34
:10156000312C18861F8222273327201B310B3E8304
:101570002D832F81388537FF03C03195219531099F
:10158000C80117FF02C08D819E81281739070CF012
:101590009DC02FB7F8948091600290916102A09154
:1015A0006202B09163022FBF24E630E040E050E0D9
:1015B000281B390B4A0B5B0BCA01B901680D791D59
:1015C0008A1D9B1D0E9469038FB7F894809060026A
:1015D00090906102A0906202B09063028FBF8BEA8C
:1015E00095E00E9417089B01AC0188279927DC0130
:1015F000821B930BA40BB50B4F815885480F591FC5
:1016000058874F838BEA95E00E94170869837A8395
:101610008B839C838BEA95E00E94EC078DEA95E032
:101620000E9417082B013C018DEA95E00E94EC070F
:1016300089819A81AB81BC81B095A0959095819567
:101640009F4FAF4FBF4F9C01AD012419350946098B
:101650005709AAE0B0E00E944515260E371E0E94E9
:10166000091427E137EB41ED58E30E946814A70104
:1016700096010E949E156B017C01B101032C000CA8
:10168000880B990B0E94091420EB3FE041E255E3DF
:101690000E946814A70196010E949E156B017C01AF
:1016A00020E030E040E85FE30E94021487FD06C0BE
:1016B000C12CD12C80E8E82E8FE3F82EB701A601CB
:1016C000705889EA95E00E94C60553CF28960FB658
:1016D000F894DEBF0FBECDBFDF91CF911F910F9168
:1016E000FF90EF90DF90CF90BF90AF909F908F9042
:1016F0007F906F905F904F903F902F900895309122
:101700009402313208F04BC0809192028111FCCFDB
:1017100090916F0622E02093920221E020939102A3
:101720002FEF20934D0610924C0630934B06EFE4BA
:10173000F6E0ABE2B6E020E0321721F041914D93A4
:101740002F5FFACF10922A0620912A06990F922B2A
:1017500090932A0690919002913061F41092900239
:1017600090912A069093BB009091BC0093FDF8CF16
:1017700095EC01C095EE9093BC009091920292304E
:10178000E1F390914D069F3F79F080914D068032B4
:1017900041F080914D06803331F084E005C081E056
:1017A00003C082E001C083E0109293021092940281
:1017B00010924E06089585ED8093BC008091BC0088
:1017C00084FDFCCF10929202089540910506262FC9
:1017D00030E0240F311D21323105DCF420919202DA
:1017E0002430C9F4FC0180E090E0861758F4309171
:1017F00005062191DC01AB51BA4FA30FB11D2C930B
:101800000196F3CF80910506680F6093050680E08E
:10181000089581E0089582E0089508950895089557
:10182000E0918B0280918A02E81730F4F0E0EB53EC
:10183000FA4F808190E008958FEF9FEF0895909187
:101840008B0280918A02981750F4E92FF0E0EB5355
:10185000FA4F208130E09F5F90938B0202C02FEF00
:101860003FEFC901089580918A0290E020918B0298
:10187000821B91090895CF92DF92EF92FF920F930E
:101880001F93CF93DF937C01CB018A0120914E06F9
:10189000222389F0EB016B01C40ED51ECC15DD05AA
:1018A00069F06991D701ED91FC910190F081E02DF3
:1018B000C7011995F3CF642F0E94E50BC801DF9192
:1018C000CF911F910F91FF90EF90DF90CF900895EF
:1018D000CF93DF931F92CDB7DEB7698320914E0679
:1018E0002223D1F020919402203240F021E030E018
:1018F000FC013383228380E090E015C08091930245
:10190000E82FF0E0E15BF94F998190838F5F80933E
:1019100093028093940205C061E0CE0101960E947B
:10192000E50B81E090E00F90DF91CF910895CF9388
:10193000DF93009779F0FC0101900020E9F73197DF
:10194000AF01481B590BBC018BED93E00E94ED01E8
:10195000EC0102C0C0E0D0E042E050E06CE572E093
:101960008BED93E00E94ED018C0F9D1FDF91CF91D5
:1019700008951F93CF93DF93EC01162F88818C304D
:1019800008F04DC061E0812F0E942D03E88195E0B1
:101990009E9FF0011124E65BFA4F1F738081807CCB
:1019A000182B10831382E8819E9FF0011124E65BBF
:1019B000FA4F148288816CE00E9489159CE0899F0F
:1019C000A001112420E030E095E0BA01620F731FFE
:1019D000969FF001979FF00D1124E65BFA4F60810E
:1019E00066FD13C02F5F3F4F2C30310571F7811119
:1019F0000CC01092800082E08093810010928500DC
:101A00001092840086BB80936F00E88185E0E89F98
:101A1000F0011124E65BFA4F808180648083888125
:101A2000DF91CF911F9108950F931F93CF93DF9371
:101A3000162F072FCEE8D5E09C8521E020934E0697
:101A400090936F061092930210929402AA85BB8520
:101A5000ED91FC9111970190F081E02D682FCD015F
:101A600019958A859B85DC01ED91FC910190F081AF
:101A7000E02D602F19958A859B85DC01ED91FC9105
:101A80000190F081E02D612F1995DF91CF911F9189
:101A90000F910C947F0BFC01248131E030934E06B2
:101AA00020936F0610929302109294028485682B03
:101AB00085E992E00E94680C0C947F0B0F931F93B2
:101AC000CF938C01C62F64600E944B0D6C2F6B7FEF
:101AD000C8010E944B0D83EC90E00197F1F7CF9184
:101AE0001F910F910895FC01A089B1898C91A6895D
:101AF000B78982FD0FC09C91818D8F5F8F73228D7E
:101B0000821749F0218DDF01A20FB11D5D969C93D4
:101B1000818F08958C9108951F920F920FB60F92A6
:101B200011240F900FBE0F901F9018951F920F92C7
:101B30000FB60F9211240BB60F922F933F934F9332
:101B40005F936F937F938F939F93AF93BF93EF9325
:101B5000FF938091B900887F803609F49CC068F5B6
:101B6000883209F45BC090F4803109F454C038F431
:101B7000882309F4F6C0883009F44DC0F6C08831D6
:101B800009F44CC0803209F45DC0EFC0803409F420
:101B900068C048F4803309F455C0883309F0E5C0C3
:101BA00080934D06D8C0803509F44FC0883509F4BC
:101BB0005DC0883409F0D9C0D6C0883909F4C7C0DF
:101BC000A8F4883709F467C038F4883609F463C08C
:101BD000803709F460C0C9C0883809F4B8C08039BA
:101BE00009F45FC0803809F0C0C05BC0803B09F4D5
:101BF00086C038F4803A09F466C0883A09F47FC098
:101C0000B4C0803C09F4A7C0883C09F4A4C0883B58
:101C100009F48AC0AAC080912A0610C090914C068F
:101C200080914B06981770F5E0914C0681E08E0F7D
:101C300080934C06F0E0E55DF94F80818093BB0016
:101C400085EC86C080934D068EC0E0914C0681E005
:101C50008E0F80934C068091BB00F0E0E55DF94F5C
:101C6000808390914C0680914B066EC0E0914C06AB
:101C700081E08E0F80934C068091BB00F0E0E55D23
:101C8000F94F80838091910281116DC081E0809332
:101C9000900284EA61C083E080939202109227064A
:101CA000CFCF80912706803208F051C0E0912706FF
:101CB00081E08E0F809327068091BB00F0E0E95F02
:101CC000F94F8083BDCF85EC8093BC0010929202C7
:101CD00080912706803230F4E0912706F0E0E95F3A
:101CE000F94F10826091270670E0E0918E02F0912A
:101CF0008F0287E096E019951092270636C084E09F
:101D0000809392021092060610920506E0918C02D2
:101D1000F0918D02199580910506811105C081E031
:101D2000809305061092E505E091060681E08E0F8E
:101D300080930606F0E0EB51FA4F80818093BB0060
:101D40009091060680910506981708F479CF85E8EA
:101D50008093BC000AC085EC8093BC001092920274
:101D600004C010924D060E94DB0BFF91EF91BF91D2
:101D7000AF919F918F917F916F915F914F913F9123
:101D80002F910F900BBE0F900FBE0F901F901895C4
:101D9000CF93DF93282F30E0F901E152FD4F84917A
:101DA000F901E756FD4FD491F901ED5AFD4FC49169
:101DB000CC2391F081110E94D702EC2FF0E0EE0FBE
:101DC000FF1FE75CFD4FA591B491EC91ED2381E0FD
:101DD00090E021F480E002C080E090E0DF91CF91BC
:101DE00008951F93CF93DF93282F30E0F901E1523C
:101DF000FD4F8491F901E756FD4FD491F901ED5A59
:101E0000FD4FC491CC23C1F0162F81110E94D7023F
:101E1000EC2FF0E0EE0FFF1FE15EFD4FA591B491B6
:101E20009FB7F894111104C08C91D095D82302C0AB
:101E3000EC91DE2BDC939FBFDF91CF911F91089532
:101E4000789484B5826084BD84B5816084BD85B595
:101E5000826085BD85B5816085BD80916E008160A1
:101E600080936E0010928100809181008260809347
:101E70008100809181008160809381008091800049
:101E80008160809380008091B10084608093B10074
:101E90008091B00081608093B00080919100826059
:101EA0008093910080919100816080939100809156
:101EB00090008160809390008091A1008260809367
:101EC000A1008091A10081608093A1008091A00079
:101ED00081608093A0008091210182608093210124
:101EE0008091210181608093210180912001816096
:101EF0008093200180917A00846080937A008091A1
:101F00007A00826080937A0080917A008160809369
:101F10007A0080917A00806880937A001092C100E4
:101F2000E091EB03F091EC0382E08083E091E70322
:101F3000F091E8031082E091E903F091EA038FEC5D
:101F400080831092F303E091EF03F091F00386E0B9
:101F50008083E091ED03F091EE03808180618083C6
:101F6000E091ED03F091EE03808188608083E09141
:101F7000ED03F091EE03808180688083E091ED03B2
:101F8000F091EE0380818F7D808361E080918F05E9
:101F90000E942D0360E080918F050E94F10E60E0A9
:101FA00080918E050E942D0385E992E0909399051A
:101FB0008093980510928B0210928A0210929302DD
:101FC000109294021092920281E0809391021092FA
:101FD000900261E084E10E94F10E61E085E10E94DF
:101FE000F10E8091B9008E7F8093B9008091B90085
:101FF0008D7F8093B90088E48093B80085E4809356
:10200000BC008DE09CE090938D0280938C028EE06A
:102010009CE090938F0280938E0280E090E1A0E09C
:10202000B0E080939B0590939C05A0939D05B09391
:102030009E058AE090E0A0E0B0E080939F05909339
:10204000A005A093A105B093A20580E090E0A0E0D8
:10205000B0E48093A3059093A405A093A505B09345
:10206000A60560E070E185E00E94140D6FE979E358
:1020700080E00E94140DCEE8D5E08E01712C98E826
:10208000A92E92E0B92E2EEC822E22E0922E3BEC6D
:10209000E32E37E0F32EF80194818281898F9A8FA5
:1020A00061E00E942D0361E08A8D0E942D03F801FA
:1020B000908586816E01FDE1CF0ED11C8D8F9E8FA4
:1020C00061E00E942D0360E08E8D0E942D0361E08F
:1020D0008D8D0E94F10E6FB6F89480916902811186
:1020E00026C0F5018491F4012491E82FF0E0EE0F71
:1020F000FF1FEB5FFD4FA591B4919C91822F892327
:1021000021F461E085E30E94F10E61E085E30E9425
:102110002D038CB580618CBD8CB580648CBD61E075
:1021200084E30E942D0361E083E30E942D038091EC
:1021300069028F5F809369026FBEC7010197F1F753
:1021400060E08D8D0E94F10E88E80E94E50783E033
:102150000E94E50761E08D8D0E94F10EC701019795
:10216000F1F7C6010E94EC0773940F5F1F4F229690
:10217000F2E07F1290CF03EB15E0C7EBD5E060E013
:10218000F80181918F010E942D03C017D107B9F783
:102190000FEA15E07E01FFEFEF1AFF0A688170E099
:1021A000CE0108960E94B90CF70195818381F80150
:1021B000828B938B60E00E942D0361E0F80183899C
:1021C0000E942D0360E0F80183890E94F10E0E5FEA
:1021D0001F4FE701F5E0C93BDF07E1F6F8941092E5
:1021E000200189E08093210180E293E0909329010E
:1021F00080932801109225011092240182E080939F
:10220000730078948093780410927C048091790410
:1022100060E00E942D03C5E0D1E080916A02811147
:10222000FAC06091B70570E08FEB95E00E94B90CA1
:102230008091B6050E94C80E892B39F46AE070E0DF
:1022400080E090E00E946903F3CF60E070E080E0FE
:1022500090E40E949A0920E030E040E752E46AE905
:1022600079E989E99EE30E94660A60E070E080E017
:1022700090EC0E949A0920E030E042ED52E46AE9D5
:1022800079E989E99EE30E94660A60E070E080E8EF
:102290009FE30E949A0920E030E040E251E46AE9BD
:1022A00079E989E99EE30E94660A20E030E040EA8D
:1022B00051E46AE979E989E99EE30E94660A0E948D
:1022C000570A68EE73E080E090E00E946903809115
:1022D000B905803920F48091BA058F3828F48FE34E
:1022E00092E00E94970C06C06FE870E08FEB95E0DB
:1022F0000E947C080E94570A68EE73E080E090E03C
:102300000E94690320E030E040E85FE36EEC7CEC83
:102310008CE49EE30E94660A0E94570A68EE73E00E
:1023200080E090E00E94690320E030E040EF51E45B
:102330006AE979E989E99EEB0E94660A60E070E04B
:1023400080E490E40E949A0920E030E040E752E403
:102350006AE979E989E99EE30E94660A60E070E033
:1023600080E090E40E949A0920E030E040EA51E4E5
:102370006AE979E989E99EE30E94660A20E030E093
:1023800040EF51E46DEC7CEC8CEC9EE30E94660A1D
:102390000E94570A6CED75E080E090E00E946903AE
:1023A0008091B9058E3220F48091BA058D3228F4DF
:1023B0008FE392E00E94970C06C06DE270E08FEB15
:1023C00095E00E947C0868EE73E080E090E00E9457
:1023D000690320E030E04CE052E46AE979E989E9F8
:1023E0009EEB0E94660A20E030E040E752E46AE992
:1023F00079E989E99EEB0E94660AE091BF05CE9FCC
:10240000F0011124E65BFA4F80818F7B80830E946C
:10241000570AD0936A0268EE73E080E090E00E9471
:1024200069030E949505F9CE8091870590918805F2
:102430000C94DD16109298021092970288EE93E0A9
:10244000A0E0B0E08093990290939A02A0939B023F
:10245000B0939C0223E132E03093960220939502E0
:102460001092A4021092A3028093A5029093A60258
:10247000A093A702B093A80225E232E03093A20213
:102480002093A10245E351E05093AE024093AD0288
:1024900044E351E05093B0024093AF0240E351E077
:1024A0005093B2024093B10241E351E05093B40221
:1024B0004093B30242E351E05093B6024093B50219
:1024C00046E351E05093B8024093B7021092BA022B
:1024D0001092BB021092BC021092BD0210924103F6
:1024E000109240038093420390934303A0934403CC
:1024F000B093450330933F0320933E0345ED50E0F6
:1025000050934B0340934A0344ED50E050934D03E6
:1025100040934C0340ED50E050934F0340934E03E3
:1025200041ED50E0509351034093500342ED50E091
:10253000509353034093520346ED50E0509355039C
:10254000409354031092570310925803109259036A
:1025500010925A031092DE031092DD038093DF0382
:102560009093E003A093E103B093E2033093DC0384
:102570002093DB0385EC90E09093E8038093E703DE
:1025800084EC90E09093EA038093E90380EC90E080
:102590009093EC038093EB0381EC90E09093EE0337
:1025A0008093ED0382EC90E09093F0038093EF032F
:1025B00086EC90E09093F2038093F1031092F40381
:1025C0001092F5031092F6031092F7038091070220
:1025D00090910802A0910902B0910A028093AF0580
:1025E0009093B005A093B105B093B20580910B0212
:1025F00090910C02A0910D02B0910E028093B30550
:102600009093B405A093B505B093B60584E080938C
:10261000B70587E08093B8051092B90584EB8093E5
:10262000BA0586E18093BB0588E18093BC0587E10C
:102630008093BD0589E18093BE05E0918605EC306D
:1026400020F08FEF8093BF0510C081E08E0F809344
:102650008605E093BF0585E0E89FF0011124E65B65
:10266000FA4F88EB9BE092838183E0918605EC3002
:1026700020F08FEF8093C00510C081E08E0F809313
:102680008605E093C00585E0E89FF0011124E65B34
:10269000FA4F88EB9BE0928381838CE080938E05D8
:1026A00084E280938F0586E08093900585E0809397
:1026B00091058FE1809392058EE18093930583E2EB
:1026C0008093940582E28093950585E48093960536
:1026D00084E48093970580E480939A0510929F0587
:1026E0001092A0051092A1051092A2051092A305C8
:1026F0001092A4051092A5051092A605E4E7F6E055
:1027000022E337E08FEF9FEFDC0112821382148205
:102710001582168217821086118683879487A58773
:10272000B6878787908BA18BB28B1286118210821D
:1027300073962E173F0749F78DE090E00E944516EB
:10274000FC011382128287E392E0918380831186D9
:1027500087E2848384E1828784E083871486F09310
:102760007106E0937006109272061092730685E26D
:102770008093790410927B0410928805109287054B
:1027800010928A051092890510928C0510928B0583
:1027900061E070E080E090E00E946617009789F0A9
:1027A000909388058093870510928A051092890579
:1027B00020918B0530918C05232BC1F4FC011082F4
:1027C00015C08091870590918805009711F00E94AF
:1027D000DD16109288051092870510928C051092D4
:1027E0008B0510928A0510928905089510928C0528
:1027F00010928B056EE572E08091870590918805B7
:102800000C9459180E94441408F481E00895E89447
:1028100009C097FB3EF490958095709561957F4F28
:102820008F4F9F4F9923A9F0F92F96E9BB279395D6
:10283000F695879577956795B795F111F8CFFAF4E6
:10284000BB0F11F460FF1BC06F5F7F4F8F4F9F4F17
:1028500016C0882311F096E911C0772321F09EE875
:10286000872F762F05C0662371F096E8862F70E0DB
:1028700060E02AF09A95660F771F881FDAF7880FB5
:102880009695879597F90895990F0008550FAA0B0B
:10289000E0E8FEEF16161706E807F907C0F0121673
:1028A0001306E407F50798F0621B730B840B950B76
:1028B00039F40A2661F0232B242B252B21F40895CB
:1028C0000A2609F4A140A6958FEF811D811D089568
:1028D0000E947B140C94EC140E94DE1438F00E94C9
:1028E000E51420F0952311F00C94D5140C94DB140E
:1028F00011240C9420150E94FD1470F3959FC1F3D0
:10290000950F50E0551F629FF001729FBB27F00D9D
:10291000B11D639FAA27F00DB11DAA1F649F6627F2
:10292000B00DA11D661F829F2227B00DA11D621F41
:10293000739FB00DA11D621F839FA00D611D221FFB
:10294000749F3327A00D611D231F849F600D211DDF
:10295000822F762F6A2F11249F5750409AF0F1F062
:1029600088234AF0EE0FFF1FBB1F661F771F881FCB
:1029700091505040A9F79E3F510580F00C94D5141A
:102980000C9420155F3FE4F3983ED4F38695779539
:102990006795B795F795E7959F5FC1F7FE2B880F71
:1029A000911D9695879597F9089597F99F6780E807
:1029B00070E060E008959FEF80EC089500240A9491
:1029C0001616170618060906089500240A9412160A
:1029D0001306140605060895092E0394000C11F43D
:1029E000882352F0BB0F40F4BF2B11F460FF04C0EA
:1029F0006F5F7F4F8F4F9F4F089557FD9058440F43
:102A0000551F59F05F3F71F04795880F97FB991F4D
:102A100061F09F3F79F0879508951216130614060A
:102A2000551FF2CF4695F1DF08C016161706180697
:102A3000991FF1CF86957105610508940895E89472
:102A4000BB2766277727CB0197F90895052E97FBBB
:102A50001EF400940E943D1557FD07D00E945815A2
:102A600007FC03D04EF40C943D15509540953095DD
:102A700021953F4F4F4F5F4F0895909580957095EA
:102A800061957F4F8F4F9F4F08950E947A15A59FA4
:102A9000900DB49F900DA49F800D911D1124089559
:102AA000B7FF0C9445150E944515821B930B0895A2
:102AB000A1E21A2EAA1BBB1BFD010DC0AA1FBB1F42
:102AC000EE1FFF1FA217B307E407F50720F0A21BB4
:102AD000B30BE40BF50B661F771F881F991F1A9421
:102AE00069F760957095809590959B01AC01BD014B
:102AF000CF010895A29FB001B39FC001A39F700DA5
:102B0000811D1124911DB29F700D811D1124911DF5
:102B10000895991B79E004C0991F961708F0961B39
:102B2000881F7A95C9F780950895EE0FFF1F881FBB
:102B30008BBF0790F691E02D19945058BB27AA2718
:102B40000E94B5150C94EC140E94DE1438F00E941B
:102B5000E51420F039F49F3F19F426F40C94DB14AB
:102B60000EF4E095E7FB0C94D514E92F0E94FD14B8
:102B700058F3BA17620773078407950720F079F4B2
:102B8000A6F50C941F150EF4E0950B2EBA2FA02D70
:102B90000B01B90190010C01CA01A0011124FF270A
:102BA000591B99F0593F50F4503E68F11A16F04005
:102BB000A22F232F342F4427585FF3CF4695379504
:102BC0002795A795F0405395C9F77EF41F16BA0BC9
:102BD000620B730B840BBAF09150A1F0FF0FBB1F77
:102BE000661F771F881FC2F70EC0BA0F621F731FC0
:102BF000841F48F4879577956795B795F7959E3F1D
:102C000008F0B0CF9395880F08F09927EE0F9795AD
:102C1000879508950E9411166894B1110C9420159F
:102C200008950E94051588F09F5798F0B92F9927AD
:102C3000B751B0F0E1F0660F771F881F991F1AF0A7
:102C4000BA95C9F714C0B13091F00E941F15B1E0D8
:102C500008950C941F15672F782F8827B85F39F0D7
:102C6000B93FCCF3869577956795B395D9F73EF440
:102C700090958095709561957F4F8F4F9F4F0895E8
:102C80000E94441408F48FEF08950F931F93CF937D
:102C9000DF938230910510F482E090E0E0913407F8
:102CA000F091350720E030E0A0E0B0E0309719F176
:102CB000408151810281138148175907C8F0841758
:102CC000950769F4109731F012960C9312971396AA
:102CD0001C9327C0009334071093350722C0211599
:102CE000310519F04217530718F49A01BD01EF019D
:102CF000DF01F801DBCF21153105F9F0281B390B75
:102D00002430310580F48A819B816115710521F0A1
:102D1000FB019383828304C090933507809334072B
:102D2000FE01329644C0FE01E20FF31F819391939E
:102D300022503109398328833AC0209132073091DB
:102D40003307232B41F42091030230910402309386
:102D5000330720933207209101023091020221159E
:102D6000310541F42DB73EB740910502509106025E
:102D7000241B350BE0913207F0913307E217F3077C
:102D8000A0F42E1B3F0B2817390778F0AC014E5FDB
:102D90005F4F2417350748F04E0F5F1F50933307DE
:102DA000409332078193919302C0E0E0F0E0CF01BD
:102DB000DF91CF911F910F910895CF93DF930097EB
:102DC00009F481C0FC01329713821282A09134076A
:102DD000B0913507109781F420813181820F931FC4
:102DE00020913207309133072817390751F5F093B6
:102DF0003307E093320767C0ED0120E030E0CE17E3
:102E0000DF0740F44A815B819E0141155105F1F0D5
:102E1000EA01F5CFD383C28340815181840F951F8E
:102E2000C817D90759F488819981840F951F029694
:102E3000918380838A819B819383828321153105CD
:102E400029F4F0933507E09334073DC0E901FB8393
:102E5000EA8349915991C40FD51FEC17FD0761F41E
:102E600080819181840F951F0296E901998388835F
:102E7000828193819B838A83E0E0F0E012968D91BA
:102E80009C911397009719F0FD01DC01F7CF8D910C
:102E90009C9111979D012E5F3F4F820F931F2091B0
:102EA0003207309133072817390769F4309729F42E
:102EB000109235071092340702C013821282B09329
:102EC0003307A0933207DF91CF9108956F927F92DD
:102ED0008F929F92AF92BF92CF92DF92EF92FF922A
:102EE0000F931F93CF93DF93009789F4CB01DF916A
:102EF000CF911F910F91FF90EF90DF90CF90BF90F7
:102F0000AF909F908F907F906F900C944516FC012E
:102F1000E60FF71F9C0122503109E217F30708F46E
:102F2000A9C0EC01D9010D911C9111970617170743
:102F3000B0F00530110508F49BC0C801049786174E
:102F4000970708F495C002501109061B170B01934F
:102F500011936D937C93CF010E94DD1689C05B01B4
:102F6000A01AB10A4C01800E911EA0913407B091B5
:102F70003507612C712CE12CF12C109709F446C017
:102F80008D919C911197A815B905B1F56C0142E09E
:102F9000C40ED11CCA14DB0478F14C018A189B08BA
:102FA000640142E0C40ED11C1296BC901297139695
:102FB000AC91B5E0CB16D10440F0B282A3839182EC
:102FC0008082D9016D937C9309C00E5F1F4F800FE3
:102FD000911FF90191838083EB2DFA2FE114F10405
:102FE00031F0D7011396FC93EE93129741C0F09302
:102FF0003507E09334073CC06816790608F43C01B5
:103000007D0112960D90BC91A02DB7CF8091320713
:103010009091330788169906E1F466167706C8F48E
:103020008091010290910202009741F48DB79EB702
:103030004091050250910602841B950BE817F90791
:10304000C8F4F0933307E0933207F901718360838A
:103050000FC0CB010E9445167C01009759F0A801D2
:10306000BE010E945018CE010E94DD16C70104C0A7
:10307000CE0102C080E090E0DF91CF911F910F91CF
:10308000FF90EF90DF90CF90BF90AF909F908F9088
:103090007F906F90089581E090E0F8940C94601810
:1030A000FB01DC0102C001900D9241505040D8F765
:1030B0000895FB01DC0101900D920020E1F70895D5
:1030C00011E0C4E9D1E000E006C0802FFE010E94BB
:1030D00095152196011DC539D10780E00807A9F78C
:0430E000F894FFCF92
:1030E400FF000036072000363738391B1D1A1C0034
:1030F400000000680C3B0CC3050F0C330C1F0C10B4
:103104000C000000006802ED011702B502860526D6
:10311400023A0200000000E006ED01C305C20553B7
:103124006572766F20616E676C65206973206F75B8
:1031340074206F662072616E676521000D0A0000BD
:00000001FF
