:100000000C9461010C9492010C9492010C94920155
:100010000C9492010C9492010C9492010C94920114
:100020000C9492010C9418080C9418080C9418085D
:100030000C9492010C9456030C9492010C9492012E
:100040000C9492010C94CE050C9492010C949201A4
:100050000C9492010C9492010C9492010C940C0358
:100060000C9492010C94C5040C949B040C94920182
:100070000C9492010C9492010C9492010C949201B4
:100080000C9492010C9492010C9492010C949201A4
:100090000C9492010C9492010C9492010C942208FD
:1000A0000C9492010C9492010C9492010C94920184
:1000B0000C9492010C9492010C9492010C94EF0414
:1000C0000C9492010C9492010C9492010C94710482
:1000D0000C9447040C9492010C941D040C94F303AB
:1000E0000C9492016F097209610965096B09A909EC
:1000F00076097A098009840988098E099209960986
:10010000A9099C09A009A4090C9476090C946B090F
:100110000C9480090C94E1010C94E1020C94E70228
:100120000C9496090C943B020C9404070C94570D04
:100130000C94BE010C94EF010C9406070C94A409D6
:100140000C9488020C949C090C9488090C948E09D8
:100150000C9416070C9432070C94A9090C94510DB9
:100160000C9405070C9494010C942A070C946109D3
:100170000C9465090C9472090C94E2020C94920997
:100180000C946F090C94A0090C94CD010C945F079A
:100190000C9484090C9407070C947A090000200041
:1001A0002300260029002C002F003200000100004F
:1001B0000301060109010200002100240027002A92
:1001C000002D003000330001010000040107010A86
:1001D0000100002200250028002B002E00310034F1
:1001E0000002010000050108010B010505050507D6
:1001F0000508080808020202020A0A0808040404A2
:1002000004010101010101010103030303030303CD
:1002100003040707070C0C0C0C0C0C0C0C0202025C
:100220000206060606060606060B0B0B0B0B0B0B4F
:100230000B010210202008081020401020408002EE
:10024000010201080402010102040810204080801C
:1002500040201008040201800402018040201008A0
:100260000402010804020101020408102040800178
:100270000204081020408000000A0B02090C0D0E39
:100280000807030401000000000000000000000057
:10029000000000000000000000000000000000005E
:1002A000000000121110000000000000000000001B
:1002B0000000000000000000000000000000570DDA
:1002C000510D11241FBECFEFD1E2DEBFCDBF00E044
:1002D0000CBF12E0A0E0B2E0E4E4F3E200E00BBF08
:1002E00002C007900D92A234B107D9F727E0A2E42B
:1002F000B2E001C01D92A731B207E1F711E0C0E6FC
:10030000D1E000E006C021970109802FFE010E9484
:100310006D0FCF35D10780E00807A9F70E943A0A90
:100320000C9490110C940000CF92DF92EF92FF9208
:100330000F931F93CF93DF936C017A018B01C0E081
:10034000D0E0CE15DF0581F0D8016D918D01D60189
:10035000ED91FC910190F081E02DC6011995892B5A
:1003600011F02196EECF7E01C701DF91CF911F9151
:100370000F91FF90EF90DF90CF900895FC01538D87
:10038000448D252F30E0842F90E0821B930B54176F
:1003900010F0CF96089501970895FC01918D828DFC
:1003A000981761F0828DDF01A80FB11D5D968C91C9
:1003B000928D9F5F9F73928F90E008958FEF9FEFD4
:1003C0000895FC01918D828D981731F0828DE80F90
:1003D000F11D858D90E008958FEF9FEF0895FC014A
:1003E000918D228D892F90E0805C9F4F821B910917
:1003F0008F739927089582E892E00E94EF0121E02F
:10040000892B09F420E0822F08958FE193E00E9468
:10041000EF0121E0892B09F420E0822F08958CEB75
:1004200093E00E94EF0121E0892B09F420E0822F64
:100430000895FC01848DDF01A80FB11DA35ABF4FA1
:100440002C91848D90E001968F739927848FA689D3
:10045000B7892C93A089B1898C91837080648C9327
:10046000938D848D981306C00288F389E02D8081D6
:100470008F7D80830895EF92FF920F931F93CF9308
:10048000DF93EC0181E0888F9B8D8C8D981305C0E4
:10049000E889F989808185FD26C0F62E0B8D10E054
:1004A0000F5F1F4F0F731127E02E8C8DE8120CC0C9
:1004B0000FB607FCFACFE889F989808185FFF5CF6F
:1004C000CE010E941902F1CF8B8DFE01E80FF11DC4
:1004D000E35AFF4FF0829FB7F8940B8FEA89FB89AC
:1004E000808180620AC09FB7F894EE89FF8960839B
:1004F000E889F98980818370806480839FBF81E06F
:1005000090E0DF91CF911F910F91FF90EF900895B0
:10051000CF93DF93EC01888D8823C9F0EA89FB89AA
:10052000808185FD05C0A889B9898C9186FD0FC0A1
:100530000FB607FCF5CF808185FFF2CFA889B98976
:100540008C9185FFEDCFCE010E941902E7CFDF919C
:10055000CF910895E0E0F0E0199480E090E0892BDD
:1005600021F00E940F02811119C080E090E0892BD8
:1005700041F080E090E0892B21F00E940000811181
:1005800010C00E94050281110FC080E090E0892B0D
:1005900081F00E94FB0181110AC008950E940000B1
:1005A000E4CF0E940000EDCF0E94AA02EECF0C948F
:1005B000000008958EBD00000DB407FEFDCF8EB57E
:1005C0000895089580E090E008950E947B110F93B4
:1005D0001F93CF93DF938C01C62FD62FD07FD1608E
:1005E0006D2F0E94D7076D2FC8010E94EA0780E196
:1005F000C89FB0011124C62FC1606C2FC8010E9492
:10060000D7076C2FC8010E94EA0781E090E0DF91D4
:10061000CF911F910F9108951F920F920FB60F92D5
:1006200011242F933F938F939F93AF93BF93809108
:10063000630290916402A0916502B09166023091CC
:10064000620223E0230F2D3720F40196A11DB11D76
:1006500005C026E8230F0296A11DB11D209362025A
:100660008093630290936402A0936502B093660244
:100670008091670290916802A0916902B0916A022C
:100680000196A11DB11D8093670290936802A0930B
:100690006902B0936A02BF91AF919F918F913F9190
:1006A0002F910F900FBE0F901F9018951F920F92D1
:1006B0000FB60F9211240BB60F922F933F934F93C7
:1006C0005F936F937F938F939F93AF93BF93EF93BA
:1006D000FF9380915D0290915E02A0915F02B091C4
:1006E0006002892B8A2B8B2B49F190915C028091BF
:1006F000000089278093000080915D0290915E0246
:10070000A0915F02B0916002181619061A061B0626
:100710000CF056C080915D0290915E02A0915F0244
:10072000B09160020197A109B10980935D02909395
:100730005E02A0935F02B093600242C0809100020B
:10074000E6EBF1E0E4919FEF90930002E230C9F014
:1007500050F4EE2399F0E13081F590916F009D7F88
:1007600090936F002AC0E43019F1E0F0E53029F5EC
:10077000909173009D7F909373001FC010926E0044
:100780001CC0909170009D7F9093700091E09093B9
:10079000B0009091B100987F94609093B100109256
:1007A000B3000BC0909171009D7F9093710005C0C4
:1007B000909172009D7F9093720060E00E94AA0960
:1007C000FF91EF91BF91AF919F918F917F916F9129
:1007D0005F914F913F912F910F900BBE0F900FBEE5
:1007E0000F901F9018951F920F920FB60F92112421
:1007F0000BB60F922F933F934F935F936F937F931B
:100800008F939F93AF93BF93EF93FF9382E892E010
:100810000E941902FF91EF91BF91AF919F918F912B
:100820007F916F915F914F913F912F910F900BBEF0
:100830000F900FBE0F901F9018951F920F920FB63A
:100840000F9211240BB60F922F933F934F935F9308
:100850006F937F938F939F93AF93BF93EF93FF9388
:1008600082E892E00E94FF07FF91EF91BF91AF9164
:100870009F918F917F916F915F914F913F912F91B8
:100880000F900BBE0F900FBE0F901F9018951F92E8
:100890000F920FB60F9211240BB60F922F933F9326
:1008A0004F935F936F937F938F939F93AF93BF9378
:1008B000EF93FF938FE193E00E941902FF91EF9174
:1008C000BF91AF919F918F917F916F915F914F9168
:1008D0003F912F910F900BBE0F900FBE0F901F9066
:1008E00018951F920F920FB60F9211240BB60F920C
:1008F0002F933F934F935F936F937F938F939F9328
:10090000AF93BF93EF93FF938FE193E00E94FF07B4
:10091000FF91EF91BF91AF919F918F917F916F91D7
:100920005F914F913F912F910F900BBE0F900FBE93
:100930000F901F9018951F920F920FB60F921124CF
:100940000BB60F922F933F934F935F936F937F93C9
:100950008F939F93AF93BF93EF93FF938CEB93E0B1
:100960000E941902FF91EF91BF91AF919F918F91DA
:100970007F916F915F914F913F912F910F900BBE9F
:100980000F900FBE0F901F9018951F920F920FB6E9
:100990000F9211240BB60F922F933F934F935F93B7
:1009A0006F937F938F939F93AF93BF93EF93FF9337
:1009B0008CEB93E00E94FF07FF91EF91BF91AF9105
:1009C0009F918F917F916F915F914F913F912F9167
:1009D0000F900BBE0F900FBE0F901F9018951F9297
:1009E0000F920FB60F9211240BB60F922F933F93D5
:1009F0004F935F936F937F938F939F93AF93BF9327
:100A0000CF93DF93EF93FF9320915A0430E0F901E5
:100A1000E958FD4F8491F901EF5CFD4FD491F90144
:100A2000E551FE4FC491CC2379F081110E94540905
:100A3000EC2FF0E0EE0FFF1FE456FE4FA591B491AE
:100A4000EC91ED2381E009F480E020915E04309187
:100A50005F042F5F3F4F30935F0420935E049091BB
:100A60005D04953618F096E09093590490915904DE
:100A70009430C9F128F4923069F09330D1F05EC01F
:100A8000953009F451C0963009F058C091E0909328
:100A90002A0551C0811152C020915E0430915F043B
:100AA0002436310508F442C010922A0510925D04E4
:100AB0001CC0813009F042C0E0915D0491E09E0FBE
:100AC00090935D04F0E020915E0430915F04EE0F9E
:100AD000FF1FE75AFB4F3087278310925F04109265
:100AE0005E0494E029C0811117C0E0915D0491E09B
:100AF0009E0F90935D04F0E020915E0430915F04BE
:100B0000EE0FFF1FE75AFB4F3087278310925F04D9
:100B100010925E0493E010C020915E0430915F0457
:100B20002536310558F007C0811108C010925F04C6
:100B300010925E0403C095E09093590490915C0478
:100B40009923B9F081110AC080915B04882321F0B8
:100B500080915B0461E009C02F9A0BC080915B0417
:100B6000882331F080915B0460E00E94AA0901C0F3
:100B70002F98FF91EF91DF91CF91BF91AF919F910E
:100B80008F917F916F915F914F913F912F910F9036
:100B90000BBE0F900FBE0F901F9018951F920F92D3
:100BA0000FB60F9211240BB60F922F933F934F93D2
:100BB0005F936F937F938F939F93AF93BF93EF93C5
:100BC000FF9380915B0287FF05C010928500109211
:100BD000840016C020915B02022E000C330B809122
:100BE000670590E0281739075CF430915B0225E037
:100BF0003203F0011124E55DFA4F808186FD15C0B6
:100C000080915B028F5F80935B0220915B02022EDA
:100C1000000C330B8091670590E02817390794F496
:100C200080915B028C302CF10DC030915B0232035D
:100C3000F0011124E55DFA4F808160E08F730E941E
:100C4000AA09DECF809184009091850084349C496C
:100C500018F480E49CE905C080918400909185009F
:100C6000049690938900809388008FEF80935B02B5
:100C70002AC0409184005091850030915B0225E0AC
:100C80003203F0011124E55DFA4F81819281840FD6
:100C9000951F909389008093880030915B02320306
:100CA000F0011124E55DFA4F808186FF0CC0309180
:100CB0005B023203F0011124E55DFA4F808161E0AF
:100CC0008F730E94AA09FF91EF91BF91AF919F91FD
:100CD0008F917F916F915F914F913F912F910F90E5
:100CE0000BBE0F900FBE0F901F901895309175029C
:100CF000313208F04BC0809173028111FCCF90918A
:100D0000500622E02093730221E0209372022FEF1D
:100D100020932E0610922D0630932C06E0E3F6E089
:100D2000ACE0B6E020E0321721F041914D932F5F07
:100D3000FACF10920B0620910B06990F922B9093ED
:100D40000B0690917102913061F4109271029091B2
:100D50000B069093BB009091BC0093FDF8CF95ECEF
:100D600001C095EE9093BC00909173029230E1F334
:100D700090912E069F3F79F080912E06803241F0AF
:100D800080912E06803331F084E005C081E003C0FD
:100D900082E001C083E010927402109275021092FA
:100DA0002F06089585ED8093BC008091BC0084FDE2
:100DB000FCCF1092730208954091E605262F30E093
:100DC000240F311D21323105DCF4209173022430CF
:100DD000C9F4FC0180E090E0861758F43091E605F4
:100DE0002191DC01AA53BA4FA30FB11D2C93019698
:100DF000F3CF8091E605680F6093E60580E00895E3
:100E000081E0089582E00895089508950895E0919D
:100E10006C0280916B02E81730F4F0E0EA55FA4F6B
:100E2000808190E008958FEF9FEF089590916C027C
:100E300080916B02981750F4E92FF0E0EA55FA4FD1
:100E4000208130E09F5F90936C0202C02FEF3FEF54
:100E5000C901089580916B0290E020916C02821B81
:100E600091090895CF92DF92EF92FF920F931F9313
:100E7000CF93DF937C01CB018A0120912F0622239F
:100E800089F0EB016B01C40ED51ECC15DD0569F0B0
:100E90006991D701ED91FC910190F081E02DC7019E
:100EA0001995F3CF642F0E94DC06C801DF91CF9122
:100EB0001F910F91FF90EF90DF90CF900895CF9307
:100EC000DF931F92CDB7DEB7698320912F062223CF
:100ED000D1F020917502203240F021E030E0FC0199
:100EE0003383228380E090E015C080917402E82F64
:100EF000F0E0E05DF94F998190838F5F80937402F9
:100F00008093750205C061E0CE0101960E94DC0667
:100F100081E090E00F90DF91CF910895009769F004
:100F2000FC0101900020E9F73197AF01481B590BF4
:100F3000BC018CEB93E00C94940180E090E0089568
:100F40000F931F93CF93DF93162F072FCFE6D5E094
:100F50009C8521E020932F069093500610927402F6
:100F600010927502AA85BB85ED91FC9111970190B5
:100F7000F081E02D682FCD0119958A859B85DC01D4
:100F8000ED91FC910190F081E02D602F19958A85FB
:100F90009B85DC01ED91FC910190F081E02D612FAA
:100FA0001995DF91CF911F910F910C947606FC015A
:100FB000248131E030932F06209350061092740262
:100FC000109275028485682B86E792E00E945F0785
:100FD0000C9476060F931F93CF938C01C62F6460F9
:100FE0000E94D7076C2F6B7FC8010E94D70783EC44
:100FF00090E00197F1F7CF911F910F910895FC01B7
:10100000A089B1898C91A689B78982FD0FC09C9176
:10101000818D8F5F8F73228D821749F0218DDF01C3
:10102000A20FB11D5D969C93818F08958C910895B8
:101030001F920F920FB60F9211240F900FBE0F90B8
:101040001F9018951F920F920FB60F9211240BB696
:101050000F922F933F934F935F936F937F938F9351
:101060009F93AF93BF93EF93FF938091B900887FD5
:10107000803609F49CC068F5883209F45BC090F4AE
:10108000803109F454C038F4882309F4F6C088305C
:1010900009F44DC0F6C0883109F44CC0803209F41F
:1010A0005DC0EFC0803409F468C048F4803309F4AF
:1010B00055C0883309F0E5C080932E06D8C080352E
:1010C00009F44FC0883509F45DC0883409F0D9C0EF
:1010D000D6C0883909F4C7C0A8F4883709F467C0B6
:1010E00038F4883609F463C0803709F460C0C9C099
:1010F000883809F4B8C0803909F45FC0803809F035
:10110000C0C05BC0803B09F486C038F4803A09F463
:1011100066C0883A09F47FC0B4C0803C09F4A7C017
:10112000883C09F4A4C0883B09F48AC0AAC0809115
:101130000B0610C090912D0680912C06981770F523
:10114000E0912D0681E08E0F80932D06F0E0E45FA4
:10115000F94F80818093BB0085EC86C080932E067A
:101160008EC0E0912D0681E08E0F80932D06809138
:10117000BB00F0E0E45FF94F808390912D068091F1
:101180002C066EC0E0912D0681E08E0F80932D0617
:101190008091BB00F0E0E45FF94F808380917202A0
:1011A00081116DC081E08093710284EA61C083E0A7
:1011B0008093730210920806CFCF80910806803288
:1011C00008F051C0E091080681E08E0F8093080678
:1011D0008091BB00F0E0E851FA4F8083BDCF85ECF1
:1011E0008093BC001092730280910806803230F424
:1011F000E0910806F0E0E851FA4F1082609108068D
:1012000070E0E0916F02F091700288EE95E0199520
:101210001092080636C084E0809373021092E705AE
:101220001092E605E0916D02F0916E0219958091A1
:10123000E605811105C081E08093E6051092C605A0
:10124000E091E70581E08E0F8093E705F0E0EA5337
:10125000FA4F80818093BB009091E7058091E6056D
:10126000981708F479CF85E88093BC000AC085EC14
:101270008093BC001092730204C010922E060E944C
:10128000D206FF91EF91BF91AF919F918F917F9186
:101290006F915F914F913F912F910F900BBE0F90E7
:1012A0000FBE0F901F90189590E0FC013197E2312E
:1012B000F10508F04EC08827EE58FF4F8F4F0C9471
:1012C0006D0F809180008F7703C0809180008F7DAB
:1012D00080938000089580918000877FF9CF84B546
:1012E0008F7702C084B58F7D84BD08958091B00052
:1012F0008F7703C08091B0008F7D8093B0000895F8
:10130000809190008F7707C0809190008F7D03C0FF
:1013100080919000877F8093900008958091A00035
:101320008F7707C08091A0008F7D03C08091A000BF
:10133000877F8093A0000895809120018F7707C058
:10134000809120018F7D03C080912001877F809351
:10135000200108951F93CF93DF93282F30E0F901E8
:10136000E958FD4F8491F901EF5CFD4FD491F901EB
:10137000E551FE4FC491CC23C1F0162F81110E947C
:101380005409EC2FF0E0EE0FFF1FEF52FE4FA59136
:10139000B4919FB7F894111104C08C91D095D823C3
:1013A00002C0EC91DE2BDC939FBFDF91CF911F91A8
:1013B0000895CF93DF9390E0FC01EF5CFD4F249103
:1013C000FC01E551FE4F8491882361F190E0880F84
:1013D000991FFC01E954FE4FC591D491FC01EF52D5
:1013E000FE4FA591B491611109C09FB7F89488810F
:1013F000209582238883EC912E230BC0623061F408
:101400009FB7F8948881322F309583238883EC919D
:101410002E2B2C939FBF06C08FB7F894E8812E2BFC
:1014200028838FBFDF91CF9108953FB7F8948091C3
:10143000670290916802A0916902B0916A0226B594
:10144000A89B05C02F3F19F00196A11DB11D3FBFFC
:10145000BA2FA92F982F8827820F911DA11DB11D8A
:10146000BC01CD0142E0660F771F881F991F4A9586
:10147000D1F70895CF93DF93CDB7DEB7A1970FB61D
:10148000F894DEBF0FBECDBF789484B5826084BD72
:1014900084B5816084BD85B5826085BD85B5816078
:1014A00085BD80916E00816080936E0010928100F6
:1014B00080918100826080938100809181008160B1
:1014C0008093810080918000816080938000809172
:1014D000B10084608093B1008091B00081608093FE
:1014E000B000809191008260809391008091910082
:1014F0008160809391008091900081608093900042
:101500008091A10082608093A1008091A100816000
:101510008093A1008091A00081608093A0008091C1
:10152000210182608093210180912101816080935B
:1015300021018091200181608093200180917A00B7
:10154000846080937A0080917A00826080937A0030
:1015500080917A00816080937A0080917A0080681F
:1015600080937A001092C100E091CC03F091CD03FA
:1015700082E08083E091C803F091C9031082E0917A
:10158000CA03F091CB038FEC80831092D403E091D7
:10159000D003F091D10386E08083E091CE03F091F7
:1015A000CF03808180618083E091CE03F091CF03EF
:1015B000808188608083E091CE03F091CF038081A9
:1015C00080688083E091CE03F091CF0380818F7D8E
:1015D000808361E0809170050E94D90960E080916C
:1015E00070050E94AA0960E080916F050E94D909E8
:1015F00086E792E090937A058093790510926C02C9
:1016000010926B0210927402109275021092730283
:1016100081E0809372021092710261E084E10E9485
:10162000AA0961E085E10E94AA098091B9008E7F34
:101630008093B9008091B9008D7F8093B90088E4D0
:101640008093B80085E48093BC0084E097E0909399
:101650006E0280936D0285E097E090937002809314
:101660006F0280E090E1A0E0B0E080937C05909371
:101670007D05A0937E05B0937F058AE090E0A0E011
:10168000B0E08093800590938105A0938205B0938C
:10169000830580E090E0A0E0B0E48093840590931F
:1016A0008505A0938605B093870560E070E185E02D
:1016B0000E94A0076FE979E380E00E94A0070FE68F
:1016C00015E07801512CB0E26B2EB2E07B2E86E65D
:1016D000882E82E0982E9BECC92E97E0D92E2BE81D
:1016E000A22EBB24B394D70114969C911497129602
:1016F0008C91F801818F928F61E00E94D90961E09D
:10170000D8015A968C910E94D909F701908586815B
:10171000D8015D968C935D975E969C9361E00E94E4
:10172000D90960E0F801868D0E94D90961E0D801ED
:101730005D968C910E94AA094FB6F894809161023F
:10174000811126C0F3018491F4012491E82FF0E087
:10175000EE0FFF1FE954FE4FA591B4919C91822F8B
:10176000892321F461E085E30E94AA0961E085E311
:101770000E94D9098CB580618CBD8CB580648CBD0C
:1017800061E084E30E94D90961E083E30E94D90902
:10179000809161028F5F809361024FBEC601019705
:1017A000F1F760E0D8015D968C910E94AA0988E863
:1017B0000E94DA0283E00E94DA0261E0F801858D7E
:1017C0000E94AA09C6010197F1F760E0D8015D9671
:1017D0008C910E94AA0988E90E94DA0280E00E94A6
:1017E000DA0280E00E94DA0280E00E94DA0280E001
:1017F0000E94DA0261E0F801858D0E94AA09C50104
:101800000197F1F760E0D8015D968C910E94AA09DA
:1018100080EE0E94DA0261E0F801858D0E94AA093B
:101820005394FFEFEF1AFF0A0E5F1F4F22E0521290
:101830005ACF74E9E72E75E0F72E08E915E060E06D
:10184000D7018D917D010E94D9090E151F05B9F7A9
:1018500020E9E22E25E0F22E3AE9C32E35E0D32E20
:1018600045E0B42E5CE0952E62E0A62EF801819052
:101870008F0187818C3008F048C061E0882D0E947C
:10188000D909D80117968C91B89EF0011124E55D15
:10189000FA4F982D9F732081207C822E892A808286
:1018A00013821482692D0E94610FBCE08B9FA001FE
:1018B000112420E030E0BA01620F731FB69EF001E0
:1018C000B79EF00D1124E55DFA4F908196FD12C090
:1018D0002F5F3F4F2C30310571F781110BC01092F3
:1018E0008000A09281001092850010928400A6BA18
:1018F000A0926F00D8011796EC91BE9EF0011124C2
:10190000E55DFA4F808180648083F8019581838151
:10191000D70152968C93529753969C9360E00E9405
:10192000D90961E0F70183890E94D90960E0D701F4
:1019300053968C910E94AA09B2E0EB0EF11CC016DE
:10194000D10609F093CFF8941092200189E080939A
:10195000210180E293E09093290180932801109265
:1019600025011092240182E0809373007894809383
:10197000590410925D0480915A0460E00E94D909D4
:101980009AE0C92ED12CE12CF12C80919005863360
:1019900008F0865390917B00282F2870977F922B18
:1019A00090937B008770806480937C0080917A00A4
:1019B000806480937A0080917A0086FDFCCF8091CC
:1019C00078002091790090E0922B4C01092E000CB8
:1019D000AA08BB0897FF20C06DE28CEB93E00E9441
:1019E0003B0222273327A901281939094A095B0933
:1019F00019A28E010F5D1F4FCA01B901A7019601FF
:101A00000E943F0F605DF80162938F01211531053F
:101A10004105510589F715C0A501940119A28E0150
:101A20000F5D1F4FCA01B901A70196010E943F0F28
:101A3000605DD8016E938D01211531054105510579
:101A400089F7C8010E948E078FE392E00E948E07FB
:101A50000E94150A4B015C0184E6482E512C612C32
:101A6000712C0E94150ADC01CB0188199909AA0979
:101A7000BB09883E9340A105B10598F3B1E04B1A2C
:101A8000510861087108E8EE8E0EE3E09E1EA11C6D
:101A9000B11C411451046104710419F70E94AD0294
:101AA00074CF80916805909169050C940D10109287
:101AB00079021092780288EE93E0A0E0B0E0809383
:101AC0007A0290937B02A0937C02B0937D0223E183
:101AD00032E03093770220937602109285021092C2
:101AE00084028093860290938702A0938802B09329
:101AF000890225E232E0309383022093820245E39B
:101B000051E050938F0240938E0244E351E0509392
:101B100091024093900240E351E05093930240932E
:101B2000920241E351E0509395024093940242E3C4
:101B300051E0509397024093960246E351E0509350
:101B400099024093980210929B0210929C0210926C
:101B50009D0210929E021092220310922103809304
:101B6000230390932403A0932503B093260330937B
:101B7000200320931F0345ED50E050932C03409326
:101B80002B0344ED50E050932E0340932D0340ED82
:101B900050E05093300340932F0341ED50E05093B9
:101BA00032034093310342ED50E0509334034093AD
:101BB000330346ED50E050933603409335031092C3
:101BC00038031092390310923A0310923B0310929B
:101BD000BF031092BE038093C0039093C103A093F0
:101BE000C203B093C3033093BD032093BC0385ECC1
:101BF00090E09093C9038093C80384EC90E09093A5
:101C0000CB038093CA0380EC90E09093CD03809344
:101C1000CC0381EC90E09093CF038093CE0382ECD1
:101C200090E09093D1038093D00386EC90E0909362
:101C3000D3038093D2031092D5031092D60310924F
:101C4000D7031092D8038091070290910802A091C7
:101C50000902B0910A028093900590939105A09398
:101C60009205B093930580910B0290910C02A09184
:101C70000D02B0910E028093940590939505A09368
:101C80009605B093970584E08093980587E080934C
:101C9000990510929A0584EB80939B0586E18093C9
:101CA0009C0588E180939D0587E180939E0589E1ED
:101CB00080939F05E0916705EC3020F08FEF8093D3
:101CC000A00510C081E08E0F80936705E093A0050A
:101CD00085E0E89FF0011124E55DFA4F88EB9BE079
:101CE00092838183E0916705EC3020F08FEF809341
:101CF000A10510C081E08E0F80936705E093A105D8
:101D000085E0E89FF0011124E55DFA4F88EB9BE048
:101D1000928381838CE080936F0584E280937005C9
:101D200086E08093710585E0809372058FE1809352
:101D300073058EE18093740583E28093750582E2DA
:101D40008093760585E48093770584E48093780515
:101D500080E480937B05109280051092810510929B
:101D600082051092830510928405109285051092C9
:101D7000860510928705E5E5F6E023E137E08FEF71
:101D80009FEFDC0112821382148215821682178261
:101D90001086118683879487A587B6878787908B5F
:101DA000A18BB28B12861182108273962E173F0779
:101DB00049F78DE090E00E94750FFC0113821282BA
:101DC00087E392E091838083118687E2848384E1B4
:101DD000828784E083871486F0935206E09351064D
:101DE000109253061092540685E280935A04109282
:101DF0005C04109269051092680510926B051092B0
:101E00006A0510926D0510926C0561E070E080E04B
:101E100090E00E949610009789F090936905809356
:101E2000680510926B0510926A0520916C0530913F
:101E30006D05232BC1F4FC01108215C0809168054B
:101E400090916905009711F00E940D10109269059C
:101E50001092680510926D0510926C0510926B053A
:101E600010926A05089510926D0510926C0560E459
:101E700072E080916805909169050C948911A1E246
:101E80001A2EAA1BBB1BFD010DC0AA1FBB1FEE1FF4
:101E9000FF1FA217B307E407F50720F0A21BB30B3F
:101EA000E40BF50B661F771F881F991F1A9469F7BB
:101EB00060957095809590959B01AC01BD01CF0117
:101EC0000895991B79E004C0991F961708F0961B96
:101ED000881F7A95C9F780950895EE0FFF1F881F18
:101EE0008BBF0790F691E02D19940F931F93CF931A
:101EF000DF938230910510F482E090E0E0911507C5
:101F0000F091160720E030E0A0E0B0E0309719F142
:101F1000408151810281138148175907C8F0841705
:101F2000950769F4109731F012960C931297139657
:101F30001C9327C0009315071093160722C0211584
:101F4000310519F04217530718F49A01BD01EF014A
:101F5000DF01F801DBCF21153105F9F0281B390B22
:101F60002430310580F48A819B816115710521F04F
:101F7000FB019383828304C0909316078093150717
:101F8000FE01329644C0FE01E20FF31F819391934C
:101F900022503109398328833AC0209113073091A8
:101FA0001407232B41F42091030230910402309353
:101FB000140720931307209101023091020221158A
:101FC000310541F42DB73EB740910502509106020C
:101FD000241B350BE0911307F0911407E217F30768
:101FE000A0F42E1B3F0B2817390778F0AC014E5F89
:101FF0005F4F2417350748F04E0F5F1F50931407AB
:10200000409313078193919302C0E0E0F0E0CF0189
:10201000DF91CF911F910F910895CF93DF93009798
:1020200009F481C0FC01329713821282A091150736
:10203000B0911607109781F420813181820F931F90
:1020400020911307309114072817390751F5F093A1
:102050001407E093130767C0ED0120E030E0CE17CE
:10206000DF0740F44A815B819E0141155105F1F083
:10207000EA01F5CFD383C28340815181840F951F3C
:10208000C817D90759F488819981840F951F029642
:10209000918380838A819B8193838283211531057B
:1020A00029F4F0931607E09315073DC0E901FB837F
:1020B000EA8349915991C40FD51FEC17FD0761F4CC
:1020C00080819181840F951F0296E901998388830D
:1020D000828193819B838A83E0E0F0E012968D9168
:1020E0009C911397009719F0FD01DC01F7CF8D91BA
:1020F0009C9111979D012E5F3F4F820F931F20915E
:102100001307309114072817390769F4309729F419
:10211000109216071092150702C013821282B09314
:102120001407A0931307DF91CF9108956F927F92C8
:102130008F929F92AF92BF92CF92DF92EF92FF92D7
:102140000F931F93CF93DF93009789F4CB01DF9117
:10215000CF911F910F91FF90EF90DF90CF90BF90A4
:10216000AF909F908F907F906F900C94750FFC01B3
:10217000E60FF71F9C0122503109E217F30708F41C
:10218000A9C0EC01D9010D911C91119706171707F1
:10219000B0F00530110508F49BC0C80104978617FC
:1021A000970708F495C002501109061B170B0193FD
:1021B00011936D937C93CF010E940D1089C05B0138
:1021C000A01AB10A4C01800E911EA0911507B09182
:1021D0001607612C712CE12CF12C109709F446C0E4
:1021E0008D919C911197A815B905B1F56C0142E04C
:1021F000C40ED11CCA14DB0478F14C018A189B0868
:10220000640142E0C40ED11C1296BC901297139642
:10221000AC91B5E0CB16D10440F0B282A383918299
:102220008082D9016D937C9309C00E5F1F4F800F90
:10223000911FF90191838083EB2DFA2FE114F104B2
:1022400031F0D7011396FC93EE93129741C0F093AF
:102250001607E09315073CC06816790608F43C01A0
:102260007D0112960D90BC91A02DB7CF80911307E0
:102270009091140788169906E1F466167706C8F45B
:102280008091010290910202009741F48DB79EB7B0
:102290004091050250910602841B950BE817F9073F
:1022A000C8F4F0931407E0931307F9017183608376
:1022B0000FC0CB010E94750F7C01009759F0A80157
:1022C000BE010E948011CE010E940D10C70104C002
:1022D000CE0102C080E090E0DF91CF911F910F917D
:1022E000FF90EF90DF90CF90BF90AF909F908F9036
:1022F0007F906F90089581E090E0F8940C94901195
:10230000FB01DC0102C001900D9241505040D8F712
:102310000895FB01DC0101900D920020E1F7089582
:1023200011E0C0E6D1E000E006C0802FFE010E946F
:102330006D0F2196011DC136D10780E00807A9F76E
:04234000F894FFCF3F
:10234400FF000017072000363738391B1D1A1C0000
:102354000000005F073207E20206072A0716070794
:1023640007000000003B029401BE018802EF01CD8A
:1023740001E10100000000E7029401E202E1020A27
:02238400000057
:00000001FF
