:100000000C94CD010C94FE010C94FE010C94FE01A5
:100010000C94FE010C94FE010C94FE010C94FE0164
:100020000C94FE010C94460C0C94460C0C94460C5B
:100030000C94FE010C94D9030C94FE010C94FE0167
:100040000C94FE010C94E1070C94FE010C94FE014B
:100050000C94FE010C94FE010C94FE010C94CA1148
:100060000C94FE010C9448050C941E050C94FE01A2
:100070000C94FE010C94FE010C94FE010C94FE0104
:100080000C94FE010C94FE010C94FE010C94FE01F4
:100090000C94FE010C94FE010C94FE010C94500C87
:1000A0000C94FE010C94FE010C94FE010C94FE01D4
:1000B0000C94FE010C94FE010C94FE010C9472054C
:1000C0000C94FE010C94FE010C94FE010C94F404BB
:1000D0000C94CA040C94FE010C94A0040C947604B5
:1000E0000C94FE01910696069B06A506AF0628070E
:1000F000B906C106C906D306DD06E706F6060007FF
:1001000028070A0714071E07490B4C0B3B0B3F0B34
:10011000450B830B500B540B5A0B5E0B620B680B99
:100120006C0B700B830B760B7A0B7E0B084AD73B5C
:100130003BCE016E84BCBFFDC12F3D6C74319ABDB6
:1001400056833DDA3D00C77F11BED9E4BB4C3E91DA
:100150006BAAAABE000000803F000C94F5020C942C
:10016000FF0A0C943F0B0C945E0B0C94700B0C94D8
:100170006F160C944C0B0C94D3060C94A50A0C949B
:10018000F6060C943A020C943B0B0C949B060C94D0
:100190007E0B0C94760B0C94C3090C94B60A0C9449
:1001A000540B0C9401020C94A70A0C94AF060C9407
:1001B000B9060C9414070C9400070C94A40A0C9430
:1001C00047030C94CA0A0C9496060C9414120C94CF
:1001D000450B0C94C9060C946C0B0C94D20A0C942D
:1001E00028070C942B020C94680B0C94A5060C9415
:1001F0001E070C945C020C944E020C94620B0C943F
:10020000E7060C940A070C94A8020C9491060C942F
:10021000A60A0C9400020C94500B0C944A030C9404
:100220007A0B0C94490B0C944E030C94830B0C9496
:10023000DD060C945A0B0C94C1064E414E494E49B2
:100240005459494E46CDCCCC3D0AD7233C17B7D1A3
:100250003877CC2B329595E6241FB14F0A00002049
:10026000410000C84200401C4620BCBE4CCA1B0EC8
:100270005AAEC59D740200002100240027002A0008
:100280002D003000330001010000040107010A01C4
:1002900000002200250028002B002E003100340031
:1002A00002010000050108010B01000020002300ED
:1002B000260029002C002F0032000001000003015D
:1002C00006010901050505050705080808080202D9
:1002D00002020A0A080804040404010101010101E0
:1002E00001010303030303030303040707070C0CC3
:1002F0000C0C0C0C0C0C020202020606060606068A
:1003000006060B0B0B0B0B0B0B0B0102102020082E
:100310000810204010204080020102010804020160
:1003200001020408102040808040201008040201CF
:100330008004020180402010080402010804020128
:1003400001020408102040800102040810204080AF
:1003500000000A0B02090C0D0E080703040100003F
:10036000000000000000000000000000000000008D
:10037000000000000000000000000000121110004A
:10038000000000000000000000000000000000006D
:100390000000000000006F16141211241FBECFEFE2
:1003A000D1E2DEBFCDBF00E00CBF12E0A0E0B2E0C2
:1003B000E6E4FEE300E00BBF02C007900D92AA3B0B
:1003C000B107D9F727E0AAEBB2E001C01D92AA3924
:1003D000B207E1F711E0CCECD1E000E006C02197D4
:1003E0000109802FFE010E94211BCB3CD10780E038
:1003F0000807A9F70E9418120C94111F0C94000012
:100400000895CF92DF92EF92FF920F931F93CF93B5
:10041000DF936C017A018B01C0E0D0E0CE15DF05DF
:1004200081F0D8016D918D01D601ED91FC91019083
:10043000F081E02DC6011995892B11F02196EECFA0
:100440007E01C701DF91CF911F910F91FF90EF9037
:10045000DF90CF900895FC01538D448D252F30E01F
:10046000842F90E0821B930B541710F0CF960895C1
:1004700001970895FC01918D828D981761F0828D0E
:10048000DF01A80FB11D5D968C91928D9F5F9F73C8
:10049000928F90E008958FEF9FEF0895FC01918D6A
:1004A000828D981731F0828DE80FF11D858D90E0D7
:1004B00008958FEF9FEF0895FC01918D228D892F74
:1004C00090E0805C9F4F821B91098F73992708955C
:1004D00080EA93E00E945C0221E0892B09F420E08D
:1004E000822F08958DE394E00E945C0221E0892B25
:1004F00009F420E0822F08958AED94E00E945C02C6
:1005000021E0892B09F420E0822F0895FC01848DDD
:10051000DF01A80FB11DA35ABF4F2C91848D90E02D
:1005200001968F739927848FA689B7892C93A08908
:10053000B1898C91837080648C93938D848D981392
:1005400006C00288F389E02D80818F7D8083089525
:10055000EF92FF920F931F93CF93DF93EC0181E013
:10056000888F9B8D8C8D981305C0E889F9898081CF
:1005700085FD26C0F62E0B8D10E00F5F1F4F0F7309
:100580001127E02E8C8DE8120CC00FB607FCFACFB5
:10059000E889F989808185FFF5CFCE010E94860226
:1005A000F1CF8B8DFE01E80FF11DE35AFF4FF08272
:1005B0009FB7F8940B8FEA89FB89808180620AC01B
:1005C0009FB7F894EE89FF896083E889F989808173
:1005D0008370806480839FBF81E090E0DF91CF9142
:1005E0001F910F91FF90EF900895CF93DF93EC014F
:1005F000888D8823C9F0EA89FB89808185FD05C043
:10060000A889B9898C9186FD0FC00FB607FCF5CF7C
:10061000808185FFF2CFA889B9898C9185FFEDCFC4
:10062000CE010E948602E7CFDF91CF910895E0E0EE
:10063000F0E0199480E090E0892B21F00E947C0288
:10064000811119C080E090E0892B41F080E090E0BA
:10065000892B21F00E940000811110C00E947202BB
:1006600081110FC080E090E0892B81F00E94680228
:1006700081110AC008950E940000E4CF0E9400008A
:10068000EDCF0E941703EECF0C940000089580E098
:1006900090E0089581E008950E94F31E0F931F9348
:1006A000CF93DF938C01C62FD62FD07FD1606D2FD3
:1006B0000E94410E6D2FC8010E94550E80E1C89F17
:1006C000B0011124C62FC1606C2FC8010E94410ED9
:1006D0006C2FC8010E94550E81E090E0DF91CF9110
:1006E0001F910F9108950F931F93CF93DF938C0168
:1006F000EB01FC0180819181009739F0688179815B
:1007000061157105A1F40E94851D88819981F80108
:10071000918380838A819B81938382838C819D8155
:1007200095838483198218821B821A820FC0F80174
:10073000428153812C813D814217530720F30E944F
:100740000A1F8C819D81F801958384831D821C8200
:10075000DF91CF911F910F9108950F931F93CF9326
:10076000DF93EC0188819981009729F02A813B81F0
:100770002617370788F48B016F5F7F4F0E940E1E8C
:10078000009761F0998388831B830A832C813D81C4
:10079000232B11F4FC01108281E001C080E0DF9185
:1007A000CF911F910F910895FC01808191810C944C
:1007B000851D1F920F920FB60F9211240BB60F9248
:1007C0002F933F934F935F936F937F938F939F9359
:1007D000AF93BF93EF93FF938091D5029091D60290
:1007E000A091D702B091D802892B8A2B8B2B49F18B
:1007F0009091D4028091000089278093000080911D
:10080000D5029091D602A091D702B091D8021816C5
:1008100019061A061B060CF056C08091D50290915D
:10082000D602A091D702B091D8020197A109B109CF
:100830008093D5029093D602A093D702B093D802AA
:1008400042C080910002E5E7F2E0E4919FEF9093CF
:100850000002E230C9F050F4EE2399F0E13081F566
:1008600090916F009D7F90936F002AC0E43019F142
:10087000E0F0E53029F5909173009D7F909373002F
:100880001FC010926E001CC0909170009D7F9093CD
:10089000700091E09093B0009091B100987F9460C7
:1008A0009093B1001092B3000BC0909171009D7FA6
:1008B0009093710005C0909172009D7F909372009B
:1008C00060E00E94930EFF91EF91BF91AF919F91D5
:1008D0008F917F916F915F914F913F912F910F90E9
:1008E0000BBE0F900FBE0F901F9018951F920F9286
:1008F0000FB60F9211240BB60F922F933F934F9385
:100900005F936F937F938F939F93AF93BF93EF9377
:10091000FF9380EA93E00E948602FF91EF91BF91DE
:10092000AF919F918F917F916F915F914F913F9187
:100930002F910F900BBE0F900FBE0F901F90189528
:100940001F920F920FB60F9211240BB60F922F9396
:100950003F934F935F936F937F938F939F93AF9347
:10096000BF93EF93FF9380EA93E00E942D0CFF91D9
:10097000EF91BF91AF919F918F917F916F915F9117
:100980004F913F912F910F900BBE0F900FBE0F9084
:100990001F9018951F920F920FB60F9211240BB64D
:1009A0000F922F933F934F935F936F937F938F9308
:1009B0009F93AF93BF93EF93FF938DE394E00E94D7
:1009C0008602FF91EF91BF91AF919F918F917F919F
:1009D0006F915F914F913F912F910F900BBE0F90B0
:1009E0000FBE0F901F9018951F920F920FB60F9287
:1009F00011240BB60F922F933F934F935F936F93F6
:100A00007F938F939F93AF93BF93EF93FF938DE368
:100A100094E00E942D0CFF91EF91BF91AF919F91B7
:100A20008F917F916F915F914F913F912F910F9097
:100A30000BBE0F900FBE0F901F9018951F920F9234
:100A40000FB60F9211240BB60F922F933F934F9333
:100A50005F936F937F938F939F93AF93BF93EF9326
:100A6000FF938AED94E00E948602FF91EF91BF917F
:100A7000AF919F918F917F916F915F914F913F9136
:100A80002F910F900BBE0F900FBE0F901F901895D7
:100A90001F920F920FB60F9211240BB60F922F9345
:100AA0003F934F935F936F937F938F939F93AF93F6
:100AB000BF93EF93FF938AED94E00E942D0CFF917A
:100AC000EF91BF91AF919F918F917F916F915F91C6
:100AD0004F913F912F910F900BBE0F900FBE0F9033
:100AE0001F9018951F920F920FB60F9211240BB6FC
:100AF0000F922F933F934F935F936F937F938F93B7
:100B00009F93AF93BF93EF93FF93809178050E94DB
:100B10006A0E20917C0530917D052F5F3F4F309309
:100B20007D0520937C0590917B05953618F096E025
:100B300090937705909177059430C9F128F492301D
:100B400069F09330D1F05EC0953009F451C0963011
:100B500009F058C091E09093480651C0811152C0ED
:100B600020917C0530917D052436310508F442C082
:100B70001092480610927B051CC0813009F042C0DB
:100B8000E0917B0591E09E0F90937B05F0E0209132
:100B90007C0530917D05EE0FFF1FE958FA4F308735
:100BA000278310927D0510927C0594E029C0811165
:100BB00017C0E0917B0591E09E0F90937B05F0E0DC
:100BC00020917C0530917D05EE0FFF1FE958FA4F0B
:100BD0003087278310927D0510927C0593E010C02A
:100BE00020917C0530917D052536310558F007C0F0
:100BF000811108C010927D0510927C0503C095E01C
:100C00009093770590917A059923B9F081110AC0E4
:100C100080917905882321F08091790561E009C0F0
:100C20002F9A0BC080917905882331F08091790546
:100C300060E00E94930E01C02F98FF91EF91BF9149
:100C4000AF919F918F917F916F915F914F913F9164
:100C50002F910F900BBE0F900FBE0F901F90189505
:100C60008F929F92AF92BF92CF92DF92EF92FF92BC
:100C70000F931F93CF93DF938C016A017B0120E0D8
:100C800030E04FE753E4C701B6010E94181A4B0148
:100C90005C0120E030E0A9010E94D71C18161CF46A
:100CA000C501B40103C0C501B40190580E947A1C6B
:100CB000EB0120E030E0A901C701B6010E94D71C7A
:100CC000181614F460E001C061E0F80181810E940F
:100CD000930ECF3FD10509F014F4DD2702C0CFEF0A
:100CE000D0E0F801108161E0812F0E94F40E20977E
:100CF00009F4B1C0CF3FD10509F4AFC0E12FF0E056
:100D0000E05BFC4FE4918E2F90E0FC013197E231E3
:100D1000F10508F09DC08827EE58FF4F8F4F0C94C7
:100D2000211B84B5806884BDC7BDA7C084B580621F
:100D300084BDC8BDA2C0809180008068809380007F
:100D4000D0938900C093880098C080918000806211
:100D500080938000D0938B00C0938A008EC08091D6
:100D60008000886080938000D0938D00C0938C00B9
:100D700084C08091B00080688093B000C093B300BD
:100D80007CC08091B00080628093B000C093B400BA
:100D900074C080919000806880939000D0939900F7
:100DA000C09398006AC08091900080628093900008
:100DB000D0939B00C0939A0060C08091900088609F
:100DC00080939000D0939D00C0939C0056C080916A
:100DD000A00080688093A0008091A0008F7B80930A
:100DE000A000D093A900C093A80047C08091A000A4
:100DF00080628093A000D093AB00C093AA003DC056
:100E00008091A00088608093A000D093AD00C09333
:100E1000AC0033C080912001806880932001D09382
:100E20002901C093280129C080912001806280930C
:100E30002001D0932B01C0932A011FC08091200173
:100E4000886080932001D0932D01C0932C0115C0A0
:100E5000C038D10514F460E001C061E0812FDF915A
:100E6000CF911F910F91FF90EF90DF90CF90BF90A7
:100E7000AF909F908F900C94930EDF91CF911F9124
:100E80000F91FF90EF90DF90CF90BF90AF909F9029
:100E90008F9008958EBD00000DB407FEFDCF8EB576
:100EA0000895CF93DF93EC0160E088810E94930E58
:100EB00088E90E944A0780E00E944A0780E00E9479
:100EC0004A0780E00E944A0780E00E944A0761E0EA
:100ED00088810E94930E8BE891E00197F1F760E022
:100EE00088810E94930E80EE0E944A0761E088810B
:100EF000DF91CF910C94930EAF92BF92CF92DF927D
:100F0000EF92FF920F931F93CF93DF93CDB7DEB78E
:100F100060970FB6F894DEBF0FBECDBF5C0160E0F6
:100F2000FC0180810E94930E80E60E944A078E0198
:100F30000F5F1F4F7E01F1E1EF0EF11C680180E0B1
:100F40000E944A0790E0A0E0B0E0F60181939193FF
:100F5000A193B1936F01EE15FF0589F761E0F501EB
:100F600080810E94930E80E090E0DC01F8014191C5
:100F70005191619171918F01BA2FA92F982F8827D4
:100F8000840F951FA61FB71FEE15FF0579F79C016B
:100F9000AD0166277727CB01621B730B840B950B82
:100FA00060960FB6F894DEBF0FBECDBFDF91CF9134
:100FB0001F910F91FF90EF90DF90CF90BF90AF9077
:100FC00008951F920F920FB60F9211240BB60F9235
:100FD0002F933F934F935F936F937F938F939F9341
:100FE000AF93BF93EF93FF938091D30287FF05C028
:100FF000109285001092840016C02091D302022E18
:10100000000C330B8091850690E0281739075CF4BB
:101010003091D30225E03203F0011124E75BF94F50
:10102000808186FD15C08091D3028F5F8093D302AB
:101030002091D302022E000C330B8091850690E0A4
:101040002817390794F48091D3028C302CF10DC00D
:101050003091D3023203F0011124E75BF94F808114
:1010600060E08F730E94930EDECF80918400909198
:10107000850084349C4918F480E49CE905C0809183
:101080008400909185000496909389008093880055
:101090008FEF8093D3022AC0409184005091850045
:1010A0003091D30225E03203F0011124E75BF94FC0
:1010B00081819281840F951F90938900809388008D
:1010C0003091D3023203F0011124E75BF94F8081A4
:1010D00086FF0CC03091D3023203F0011124E75B8C
:1010E000F94F808161E08F730E94930EFF91EF9121
:1010F000BF91AF919F918F917F916F915F914F9130
:101100003F912F910F900BBE0F900FBE0F901F902D
:1011100018952F923F924F925F926F927F928F928B
:101120009F92AF92BF92CF92DF92EF92FF920F9376
:101130001F93CF93DF93CDB7DEB72E970FB6F894FA
:10114000DEBF0FBECDBF2B013C0169017A011A87BA
:1011500009878AEA96E00E9451078CEA96E00E948D
:10116000510725E83BEA45E053E4C701B6010E9478
:10117000181A0E947A1C8B01B301A20186EA96E03C
:101180000E943006B301A201705888EA96E00E94DE
:1011900030060E94BE1169837A838B839C830E94F0
:1011A000BE114B015C0173016201212C312C1E86A2
:1011B0001D8622273327201B310B3C872B872D854B
:1011C0003E8537FF03C0319521953109C80117FFCE
:1011D00002C08B859C85281739070CF0BBC084E6BC
:1011E00090E0A0E0B0E088199909AA09BB098980BC
:1011F0009A80AB80BC80880E991EAA1EBB1EC501BA
:10120000B4010E94300F0E94BE1169837A838B83E0
:101210009C838AEA96E00E947C079B01AC018827A8
:101220009927DC01821B930BA40BB50B8D849E8444
:10123000880E991E9E868D868AEA96E00E947C071B
:101240004B015C018AEA96E00E9451078CEA96E025
:101250000E947C076D837E838F8398878CEA96E05B
:101260000E94510788279927DC0188199909AA0942
:10127000BB099C01AD018D809E80AF80B884281988
:1012800039094A095B09AAE0B0E00E94D91A260E82
:10129000371E0E94B91927E137EB41ED58E30E9450
:1012A000181AA70196010E942A1B6B017C01B1014B
:1012B000032C000C880B990B0E94B91920EB3FE01E
:1012C00041E255E30E94181AA70196010E942A1BC9
:1012D0006B017C0120E030E040E85FE30E94B2193E
:1012E00087FD06C0C12CD12C80E8E82E8FE3F82EB4
:1012F000B701A601705888EA96E00E9430060E9465
:10130000BE114B015C01A7019601C301B201E98541
:10131000FA851995811153CF6FE372E08AED94E05D
:101320002E960FB6F894DEBF0FBECDBFDF91CF91E2
:101330001F910F91FF90EF90DF90CF90BF90AF90F3
:101340009F908F907F906F905F904F903F902F90E5
:101350000C94EC0F2E960FB6F894DEBF0FBECDBFE7
:10136000DF91CF911F910F91FF90EF90DF90CF9081
:10137000BF90AF909F908F907F906F905F904F90B5
:101380003F902F900895CF92DF92EF92FF920F93AC
:101390001F93CF93DF9380E00E947E118F7E482FB2
:1013A00050E060E070E080E00E941B116CE370E0B0
:1013B00080E090E00E94300F8091C406811102C04D
:1013C0000E946A0F84E10E94DE0DEC0186E10E941A
:1013D000DE0D8C0188E10E94DE0D8AE10E94DE0DA7
:1013E0008091C7069091C806853D910519F150F48A
:1013F000009729F1803C910541F56AE970E080E0B1
:1014000090E021C0863F910581F08F3F910541F02A
:101410008B3E9105D1F462E370E080E090E013C070
:1014200063E070E080E090E00EC068E170E080E092
:1014300090E009C065E670E080E090E004C06CEBED
:1014400072E080E090E00E94300F80E00E947E1108
:101450008061482F50E060E070E080E00E941B1146
:10146000B80180E090E00E94B7196B017C01BE01D9
:1014700080E090E00E94B7199B01AC01C701B60162
:101480000E94081C20E030E040E853E40E94181A53
:101490006B017C01AB01BC018AED94E00E94491014
:1014A00020E030E040E752E4C701B6010E94D71CBB
:1014B000181674F40AE413E020E030E040E751E449
:1014C0006DEC7CEC8CE49EEB0E94890880E001C00E
:1014D00081E0DF91CF911F910F91FF90EF90DF900E
:1014E000CF90089585ED8093BC008091BC0084FD71
:1014F000FCCF10926D03089540912003262F30E019
:10150000240F311D21323105DCF420916D0324308C
:10151000C9F4FC0180E090E0861758F43091200374
:101520002191DC01A250BD4FA30FB11D2C93019658
:10153000F3CF80912003680F6093200380E008952B
:1015400081E0089582E00895089508950895E09156
:101550006F0380916E03E81730F4F0E0E059FC4F20
:10156000808190E008958FEF9FEF089590916F0331
:1015700080916E03981750F4E92FF0E0E059FC4F8A
:10158000208130E09F5F90936F0302C02FEF3FEF09
:10159000C901089580916E0390E020916F03821B32
:1015A00091090895CF92DF92EF92FF920F931F93CC
:1015B000CF93DF937C01CB018A01209193032223F7
:1015C00089F0EB016B01C40ED51ECC15DD0569F069
:1015D0006991D701ED91FC910190F081E02DC70157
:1015E0001995F3CF642F0E947C0AC801DF91CF9137
:1015F0001F910F91FF90EF90DF90CF900895CF93C0
:10160000DF931F92CDB7DEB7698320919303222326
:10161000D1F020919003203240F021E030E0FC0135
:101620003383228380E090E015C080919103E82FFE
:10163000F0E0E252FD4F998190838F5F8093910398
:101640008093900305C061E0CE0101960E947C0A60
:1016500081E090E00F90DF91CF91089590E0FC0140
:101660003197E231F10508F04EC08827EC57FF4F63
:101670008F4F0C94211B809180008F7703C0809145
:1016800080008F7D80938000089580918000877F07
:10169000F9CF84B58F7702C084B58F7D84BD08955E
:1016A0008091B0008F7703C08091B0008F7D8093D0
:1016B000B0000895809190008F7707C080919000CE
:1016C0008F7D03C080919000877F80939000089564
:1016D0008091A0008F7707C08091A0008F7D03C00C
:1016E0008091A000877F8093A000089580912001C1
:1016F0008F7707C0809120018F7D03C080912001EA
:10170000877F8093200108950F931F930E94BE113D
:101710006093450470934604809347049093480473
:101720008DE394E00E943A0297FF1FC00E94BE1111
:1017300000914504109146042091470430914804DB
:10174000DC01CB01801B910BA20BB30B0091410478
:101750001091420420914304309144048017910772
:10176000A207B307E8F28FEF9FEF1F910F91089543
:101770000F931F93CF93DF93EC018B010E94AD0376
:101780002881398181110DC02115310519F0C90158
:101790000E94851D198218821D821C821B821A825A
:1017A00007C01D830C8366EA72E0C9010E940A1F0C
:1017B000CE01DF91CF911F910F910895CF92DF92CB
:1017C000EF92FF920F931F93CF93DF931F921F927D
:1017D000CDB7DEB78C01C62EFC01118210821382B8
:1017E00012821582148260E070E00E94B80B0E94A1
:1017F000840B0C2C000CDD0897FD23C08C159D0577
:1018000001F189831A82F801E480F580FFEFEF1A75
:10181000FF0AB701C8010E94AD03882379F0F801DF
:101820002081318184819581BE016F5F7F4F820F5E
:10183000931F0E940A1FF801F582E4820E94840B24
:10184000DBCFC8010F900F90DF91CF911F910F91C7
:10185000FF90EF90DF90CF900895FC01A089B189AF
:101860008C91A689B78982FD0FC09C91818D8F5F75
:101870008F73228D821749F0218DDF01A20FB11DD8
:101880005D969C93818F08958C9108951F920F927D
:101890000FB60F9211240F900FBE0F901F90189546
:1018A0001F920F920FB60F9211240BB60F922F9327
:1018B0003F934F935F936F937F938F939F93AF93D8
:1018C000BF93EF93FF938091B900887F803609F42E
:1018D0009CC068F5883209F45BC090F4803109F44B
:1018E00054C038F4882309F4F6C0883009F44DC098
:1018F000F6C0883109F44CC0803209F45DC0EFC0F5
:10190000803409F468C048F4803309F455C0883342
:1019100009F0E5C080936B03D8C0803509F44FC04F
:10192000883509F45DC0883409F0D9C0D6C088393B
:1019300009F4C7C0A8F4883709F467C038F48836BA
:1019400009F463C0803709F460C0C9C0883809F45D
:10195000B8C0803909F45FC0803809F0C0C05BC0EE
:10196000803B09F486C038F4803A09F466C0883AAE
:1019700009F47FC0B4C0803C09F4A7C0883C09F4D6
:10198000A4C0883B09F48AC0AAC08091680310C033
:1019900090916A0380916903981770F5E0916A034A
:1019A00081E08E0F80936A03F0E0E95BFC4F808159
:1019B0008093BB0085EC86C080936B038EC0E09162
:1019C0006A0381E08E0F80936A038091BB00F0E090
:1019D000E95BFC4F808390916A03809169036EC03C
:1019E000E0916A0381E08E0F80936A038091BB00CF
:1019F000F0E0E95BFC4F808380916C0381116DC046
:101A000081E08093670384EA61C083E080936D0383
:101A100010924403CFCF80914403803208F051C02C
:101A2000E091440381E08E0F809344038091BB00DA
:101A3000F0E0EC5DFC4F8083BDCF85EC8093BC0073
:101A400010926D0380914403803230F4E09144039E
:101A5000F0E0EC5DFC4F10826091440370E0E09197
:101A60002203F091230384E293E01995109244033A
:101A700036C084E080936D031092210310922003FE
:101A8000E0911E03F0911F031995809120038111AD
:101A900005C081E0809320031092FE02E0912103B3
:101AA00081E08E0F80932103F0E0E250FD4F8081B2
:101AB0008093BB009091210380912003981708F434
:101AC00079CF85E88093BC000AC085EC8093BC0088
:101AD00010926D0304C010926B030E94720AFF9172
:101AE000EF91BF91AF919F918F917F916F915F9196
:101AF0004F913F912F910F900BBE0F900FBE0F9003
:101B00001F90189530919003313208F04BC08091AE
:101B10006D038111FCCF9091920322E020936D031D
:101B200021E020936C032FEF20936B0310926A0344
:101B300030936903EEEDF2E0A7E4B3E020E0321762
:101B400021F041914D932F5FFACF109268032091BD
:101B50006803990F922B90936803909167039130DB
:101B600061F410926703909168039093BB00909189
:101B7000BC0093FDF8CF95EC01C095EE9093BC00AE
:101B800090916D039230E1F390916B039F3F79F058
:101B900080916B03803241F080916B03803331F090
:101BA00084E005C081E003C082E001C083E01092C0
:101BB000910310929003109293030895CF93DF93B3
:101BC00091E09093930399E2909392031092910382
:101BD00010929003806890E00E94161184E993E0CF
:101BE0000E94820D82E090E00E94351184E993E02A
:101BF0000E94B60AEC0184E993E00E94B60A20E054
:101C000030E0382FCE01822B932BDF91CF910895B6
:101C10000F931F93CF93DF93162F072FCDE8D6E0B6
:101C20009C8521E02093930390939203109291035B
:101C300010929003AA85BB85ED91FC9111970190BC
:101C4000F081E02D682FCD0119958A859B85DC01F7
:101C5000ED91FC910190F081E02D602F19958A851E
:101C60009B85DC01ED91FC910190F081E02D612FCD
:101C700019958A859B85DF91CF911F910F910C94C7
:101C8000820DFC01848191E09093930380939203F1
:101C900010929103109290038485862B90E00E940D
:101CA000161184E993E00C94820D0F931F93CF9348
:101CB0008C01C62F64600E94410E6C2F6B7FC8019F
:101CC0000E94410E83EC90E00197F1F7CF911F91B4
:101CD0000F910895CF93DF93282F30E0F901E05B57
:101CE000FC4F8491F901E65FFC4FD491F901EC536C
:101CF000FD4FC491CC2391F081110E942E0BEC2F4B
:101D0000F0E0EE0FFF1FE655FD4FA591B491EC9169
:101D1000ED2381E090E021F480E002C080E090E0DB
:101D2000DF91CF9108951F93CF93DF93282F30E059
:101D3000F901E05BFC4F8491F901E65FFC4FD4911F
:101D4000F901EC53FD4FC491CC23C1F0162F811142
:101D50000E942E0BEC2FF0E0EE0FFF1FE057FD4F1F
:101D6000A591B4919FB7F894111104C08C91D095AE
:101D7000D82302C0EC91DE2BDC939FBFDF91CF9183
:101D80001F91089510926F0310926E0310929103A9
:101D90001092900310926D0381E080936C03109277
:101DA000670361E084E10E94930E61E085E10E9497
:101DB000930EE9EBF0E080818E7F808380818D7FC0
:101DC000808388E48093B80085E48093BC0084EA33
:101DD0009AE090931F0380931E0385EA9AE0909304
:101DE0002303809322030895CF93DF9390E0FC01B7
:101DF000E65FFC4F2491FC01EC53FD4F8491882356
:101E000061F190E0880F991FFC01EA58FD4FC591E0
:101E1000D491FC01E057FD4FA591B491611109C027
:101E20009FB7F8948881209582238883EC912E2394
:101E30000BC0623061F49FB7F8948881322F3095DF
:101E400083238883EC912E2B2C939FBF06C08FB7E2
:101E5000F894E8812E2B28838FBFDF91CF910895CE
:101E60008F929F92AF92BF92CF92DF92EF92FF92AA
:101E70006B017C010E9499114B015C01C114D104DA
:101E8000E104F104F1F00E949911DC01CB01881901
:101E90009909AA09BB09883E9340A105B10570F3D1
:101EA00021E0C21AD108E108F10888EE880E83E02B
:101EB000981EA11CB11CC114D104E104F10419F74E
:101EC000DDCFFF90EF90DF90CF90BF90AF909F90CD
:101ED0008F900895CF93DF9384E993E00E94C20E20
:101EE00082E10E947E11843411F08031D1F581E0CD
:101EF0008093C406C091C706D091C806AE0160E0C9
:101F000070E00E941B11D093C806C093C706C09111
:101F1000C506D091C6068091C406811102C00E94F8
:101F20006A0FAE0160E070E08FE00E941B11D09359
:101F3000C606C093C50641E050E060E070E080E076
:101F40000E941B1163E070E080E090E00E94300F7F
:101F500043E050E060E070E080E00E941B1181E00F
:101F600001C080E0DF91CF910895FC01A089B18983
:101F700082E08C93A485B5851C92A685B7858FECED
:101F80008C93108EA489B58986E08C93A289B3893D
:101F90008C9180618C93A289B3898C9188608C9399
:101FA000A289B3898C9180688C930288F389E02D93
:101FB00080818F7D808308956115710551F0FB014B
:101FC00001900020E9F73197AF01461B570B0C94A5
:101FD000010280E090E008950F931F93CF93DF9369
:101FE000EC010E94DC0F8C0164EA72E0CE010E94D9
:101FF000DC0F800F911FDF91CF911F910F910895FA
:102000008F929F92AF92BF92EF92FF920F931F9386
:10201000CF93DF93CDB7DEB7A1970FB6F894DEBFAD
:102020000FBECDBF7C01FA01CB0119A2223008F40A
:102030002AE08E010F5D1F4F822E912CA12CB12C16
:10204000BF01A50194010E94E41AF901CA010150DF
:1020500011096A3014F4605D01C0695CD8016C93A9
:10206000232B242B252B61F7B801C7010E94DC0F1D
:10207000A1960FB6F894DEBF0FBECDBFDF91CF9112
:102080001F910F91FF90EF90BF90AF909F908F9016
:1020900008954F925F926F927F928F929F92AF922C
:1020A000BF92CF92DF92EF92FF921F93CF93DF9375
:1020B000EC016A017B019A01AB01C701B6010E94E4
:1020C000E81C882319F06DEA72E01AC04601570136
:1020D000E894B7F82FEF3FEF4FE75FE7C501B40192
:1020E0000E94E81C811111C02FEF3FEF4FE75FE71F
:1020F000C501B4010E94B21918163CF461EB72E0FC
:10210000CE010E94DC0F7C017AC02FEF3FEF4FE73A
:102110005FE4C701B6010E94D71C18161CF465EBDA
:1021200072E0EECF2FEF3FEF4FE75FECC701B60154
:102130000E94B21987FDF3CF20E030E0A901C7016A
:10214000B6010E94B21987FF0AC06DE2CE010E945B
:10215000A8025C01F7FAF094F7F8F09402C0A12C01
:10216000B12C2AE037ED43EA5BE3C701B6010E94D8
:102170002A1B2B013C010E94811C6B017C010E94E7
:10218000B7199B01AC01C301B2010E94291B2B01AD
:102190003C012AE0B701A601CE010E9400107C019B
:1021A000EA0CFB1C6EE2CE010E94A802E80EF91EAA
:1021B00013E0115021F120E030E040E251E4C3018E
:1021C000B2010E94181A2B013C010E94811C4B0194
:1021D000A12CB12C2AE0B501A401CE010E9400106F
:1021E000E80EF91EC501B4010E94B7199B01AC01AC
:1021F000C301B2010E94291B2B013C01DACF64EA22
:1022000072E0CE010E94DC0F8E0D9F1DDF91CF91F9
:102210001F91FF90EF90DF90CF90BF90AF909F9075
:102220008F907F906F905F904F900895682F84E912
:1022300093E00C94FF0ACF93C42F91E09093930303
:1022400099E2909392031092910310929003806808
:1022500090E00E9416116C2F84E993E00E94FF0A1F
:1022600084E993E0CF910C94820D90916D039111CC
:10227000FCCF982F813208F090E281E080936D03CB
:1022800080936C032FEF20936B0310926A03290F46
:10229000209369038093680380916803826580932B
:1022A000680380916703813061F410926703809125
:1022B00068038093BB008091BC0083FDF8CF85EC60
:1022C00001C085EE8093BC0080916D038130E1F305
:1022D00080916A03891710F490916A03E7E4F3E0B0
:1022E000A0E7B3E080E0891721F021912D938F5F63
:1022F000FACF10926F0380936E03089591E090934C
:10230000930399E290939203109291031092900399
:10231000806890E00E94161184E993E00E94820D8B
:1023200081E090E00E94351184E993E00E94B60AB2
:1023300008953FB7F8948091900790919107A091EC
:102340009207B091930726B5A89B05C02F3F19F0BF
:102350000196A11DB11D3FBFBA2FA92F982F882725
:10236000820F911DA11DB11DBC01CD0142E0660F80
:10237000771F881F991F4A95D1F708952FB7F894B2
:1023800060918C0770918D0780918E0790918F07D7
:102390002FBF08951F920F920FB60F9211242F9303
:1023A0003F938F939F93AF93BF9380918C079091AE
:1023B0008D07A0918E07B0918F0730918B0723E096
:1023C000230F2D3720F40196A11DB11D05C026E86D
:1023D000230F0296A11DB11D20938B0780938C07BC
:1023E00090938D07A0938E07B0938F0780919007ED
:1023F00090919107A0919207B09193070196A11D2A
:10240000B11D8093900790939107A0939207B0938A
:102410009307BF91AF919F918F913F912F910F9013
:102420000FBE0F901F90189586E896E00C94D40389
:10243000CF93DF93CDB7DEB760970FB6F894DEBFCA
:102440000FBECDBF789484B5826084BD84B58160B1
:1024500084BD85B5826085BD85B5816085BD80916F
:102460006E00816080936E001092810080918100E7
:1024700082608093810080918100816080938100DF
:10248000809180008160809380008091B1008460A1
:102490008093B1008091B00081608093B000809102
:1024A000910082608093910080919100816080937F
:1024B0009100809190008160809390008091A100B4
:1024C00082608093A1008091A10081608093A1002F
:1024D0008091A00081608093A000809121018260A2
:1024E000809321018091210181608093210180915D
:1024F000200181608093200180917A008460809324
:102500007A0080917A00826080937A0080917A00CC
:10251000816080937A0080917A00806880937A004D
:102520001092C1008AED94E00E94B50F61E08091A5
:102530008E060E94F40E60E080918E060E94930E3B
:1025400060E080918D060E94F40E84E993E0909300
:102550009806809397060E94C20E80E090E1A0E06A
:10256000B0E080939A0690939B06A0939C06B0934C
:102570009D068AE090E0A0E0B0E080939E069093F4
:102580009F06A093A006B093A10680E090E0A0E093
:10259000B0E48093A2069093A306A093A406B09300
:1025A000A50660E070E185E00E94080E6FE979E31E
:1025B00080E00E94080E0DE816E07801512CE9EF4A
:1025C0006E2EE2E07E2EFFE38F2EF3E09F2EABEC2B
:1025D000CA2EA7E0DA2ED70114969C911497129672
:1025E0008C91F801818F928F61E00E94F40E61E07E
:1025F000D8015A968C910E94F40EF701908586813D
:102600005801FDE1AF0EB11CD8015D968C935D972A
:102610005E969C9361E00E94F40E60E0F801868D66
:102620000E94F40E61E0D8015D968C910E94930E99
:102630004FB6F8948091D902811126C0F30184919C
:10264000F4012491E82FF0E0EE0FFF1FEA58FD4F50
:10265000A591B4919C91822F892321F461E085E3B7
:102660000E94930E61E085E30E94F40E8CB58061B8
:102670008CBD8CB580648CBD61E084E30E94F40E57
:1026800061E083E30E94F40E8091D9028F5F809312
:10269000D9024FBEC6010197F1F760E0D8015D96FF
:1026A0008C910E94930E88E80E944A0783E00E9462
:1026B0004A0761E0F801858D0E94930EC6010197DB
:1026C000F1F7C5010E9451075394FFEFEF1AFF0A7B
:1026D0000E5F1F4F22E052127ECF62EBE62E66E0C5
:1026E000F62E06EB16E060E0D7018D917D010E9489
:1026F000F40EB6EBEB16B6E0FB06A9F79EEAE92E60
:1027000096E0F92E28EBC22E26E0D22E35E0B32E2D
:102710004CE0942E52E0A52EF80181908F01878124
:102720008C3008F048C061E0882D0E94F40ED8017A
:1027300017968C91B89EF0011124E75BF94F982D04
:102740009F732081207C822E892A808213821482AA
:10275000692D0E94151BBCE08B9FA001112420E075
:1027600030E0BA01620F731FB69EF001B79EF00D04
:102770001124E75BF94F908196FD12C02F5F3F4F08
:102780002C30310571F781110BC010928000A0929E
:1027900081001092850010928400A6BAA0926F006A
:1027A000D8011796EC91BE9EF0011124E75BF94F1A
:1027B000808180648083F80195818381D70152965E
:1027C0008C93529753969C9360E00E94F40E61E0C4
:1027D000F70183890E94F40E60E0D70153968C9133
:1027E0000E94930EB2E0EB0EF11CC016D10609F068
:1027F00093CFF8941092200189E08093210180E228
:1028000093E0909329018093280110922501109262
:10281000240182E08093730078948093770510926E
:102820007B058091780560E00E94F40E8AED94E0CB
:102830000E94B50F8DE394E00E94B50FC12CD12CFE
:102840007601CD86DE86EF86F88A68E472E08DE355
:1028500094E00E94EC0F60E572E08DE394E00E944A
:10286000EC0F552453948DE394E00E945C02892B75
:1028700011F45110CAC066E972E08DE394E00E9441
:10288000EC0F40E050E0BA0186EA96E00E94300684
:1028900040E050E060E070E888EA96E00E94300690
:1028A00062E370E080E090E00E94300F2D853E856D
:1028B0004F855889C701B6010E94A91B4B015C01D5
:1028C00020E030E0A9010E94B21987FD03C001E0B9
:1028D00010E002C00FEF1FEF2FE63DEA4EE954E48F
:1028E000C501B4010E94181A2B013C018AEA96E046
:1028F0000E9451078CEA96E00E945107B801012E10
:10290000000C880B990B0E94B919A30192010E9437
:10291000181AAB01BC0186EA96E00E9430066627D1
:102920007727601B710B072E000C880B990B0E94F8
:10293000B919A30192010E94181AAB01BC01705889
:1029400088EA96E00E94300620E080E0022F182FEF
:1029500017FF03C0119501951109C301B2010E942F
:102960007A1C9B0177FF04C022273327261B370BD5
:1029700020173107D4F16AE070E080E090E00E9417
:10298000300F8AEA96E00E947C074B015C018CEADA
:1029900096E00E947C07B094A09490948094811C4F
:1029A000911CA11CB11C940197FE04C0222733275F
:1029B00028193909AB0177FF04C044275527461B66
:1029C000570BB901640F751F072E000C880B990B6C
:1029D0000E94B91920E030E040E05FE30E94181A3D
:1029E0000E947A1C262F872FB1CF40E050E0BA0119
:1029F00086EA96E00E94300640E050E060E070E831
:102A000088EA96E00E94300620CF6BE3CE0107965D
:102A10000E94DE0B8F80988481149104E9F10B856C
:102A20001C8501151105C1F154013501EFEF6E1A36
:102A30007E0AD5018C91082E000C990B0E949119E9
:102A4000892B11F05301F1CF01501109080D191D07
:102A5000F8018081082E000C990B0E949119892B96
:102A600031F00A151B0518F001501109F1CFA8012A
:102A70004F5F5F4F4A195B095C874B878A149B0441
:102A800020F4B501C4010E94F81EEF81F8858B8502
:102A90009C85E80FF91F10828B859C85892B09F492
:102AA000C7C0EF81F8858081882309F4C1C063E63F
:102AB00072E08DE394E00E94EC0F8B859C85892B5E
:102AC00041F06DE772E08F8198850E94011F892B8C
:102AD00011F16CE672E08DE394E00E94EC0FCE0100
:102AE00007960E94D40340E050E0BA0186EA96E0DF
:102AF0000E94300640E050E060E070E888EA96E02E
:102B00000E9430068DECC82E8CECD82E8CE4E82E7A
:102B10008EE3F82ED6C064E772E08DE394E00E9465
:102B2000EC0F6BE3CE0101960E94DE0BBE016F5FDE
:102B30007F4FCE0107960E947303CE0101960E943B
:102B4000D4038F819885009739F00E9431186D87E2
:102B50007E878F87988B04C01D861E861F86188AE5
:102B600060E872E08DE394E00E94DC0F4D855E85A5
:102B70006F8578898DE394E00E9449106BE3CE0164
:102B800001960E94DE0BBE016F5F7F4FCE0107965C
:102B90000E947303CE0101960E94D4038F81988511
:102BA000009729F00E9431186B017C0103C0C12CF1
:102BB000D12C760168E872E08DE394E00E94DC0F8E
:102BC000B701A6018DE394E00E9449106AE0CE01AE
:102BD00001960E94DE0BBE016F5F7F4FCE0107960C
:102BE0000E947303CE0101960E94D4038F819885C1
:102BF000009729F00E9431184B015C0103C0812C21
:102C0000912C540160E972E08DE394E00E94DC0FA6
:102C1000B501A4018DE394E00E9449108DE394E096
:102C20000E94F502CE0107960E94D403512C1BCEC0
:102C3000CE0107960E94D40316CEC092DA02D0923B
:102C4000DB02E092DC02F092DD026EE972E08AEDD6
:102C500094E00E94DC0F2AE041E050E060E070E088
:102C60008AED94E00E94001064EA72E08AED94E03C
:102C70000E94DC0F6091DA027091DB028091DC022D
:102C80009091DD0203EC19E020E030E048EC52E4E2
:102C90000E94890867EA72E08AED94E00E94DC0FE6
:102CA00040E050E0BA0186EA96E00E94300640E03B
:102CB00050E060E070E888EA96E00E9430060E94EA
:102CC0001A038091B5060E946A0E892B09F0B5CFD0
:102CD00062E370E080E090E00E94300FF2CF10924B
:102CE00097031092960388EE93E0A0E0B0E0809303
:102CF000980390939903A0939A03B0939B0323E1C5
:102D000032E030939503209394031092A303109222
:102D1000A2038093A4039093A503A093A603B0936A
:102D2000A70325E232E03093A1032093A00345E3FB
:102D300051E05093AD034093AC0344E351E0509312
:102D4000AF034093AE0340E351E05093B10340938F
:102D5000B00341E351E05093B3034093B20342E325
:102D600051E05093B5034093B40346E351E05093D0
:102D7000B7034093B6031092B9031092BA031092AE
:102D8000BB031092BC031092400410923F04809346
:102D9000410490934204A0934304B09344043093BD
:102DA0003E0420933D0445ED50E050934A04409387
:102DB000490444ED50E050934C0440934B0440EDE3
:102DC00050E050934E0440934D0441ED50E0509339
:102DD000500440934F0442ED50E05093520440930E
:102DE000510446ED50E05093540440935304109224
:102DF00056041092570410925804109259041092DD
:102E0000DD041092DC048093DE049093DF04A09331
:102E1000E004B093E1043093DB042093DA0485EC02
:102E200090E09093E7048093E60484EC90E0909324
:102E3000E9048093E80480EC90E09093EB048093A5
:102E4000EA0481EC90E09093ED048093EC0482EC32
:102E500090E09093EF048093EE0486EC90E09093E2
:102E6000F1048093F0041092F3041092F404109291
:102E7000F5041092F6048091070290910802A09147
:102E80000902B0910A028093AE069093AF06A09318
:102E9000B006B093B10680910B0290910C02A09104
:102EA0000D02B0910E028093B2069093B306A093E8
:102EB000B406B093B50684E08093B60687E08093AD
:102EC000B7061092B80684EB8093B90686E180932A
:102ED000BA0688E18093BB0687E18093BC0689E14E
:102EE0008093BD06E0918506EC3020F08FEF809353
:102EF000BE0610C081E08E0F80938506E093BE066B
:102F000025E0E29FF0011124E75BF94F88EB9BE09D
:102F100092838183E0918506EC3020F08FEF8093DF
:102F2000BF0610C081E08E0F80938506E093BF0638
:102F300085E0E89FF0011124E75BF94F88EB9BE007
:102F4000928381838CE080938D0684E280938E0649
:102F500086E080938F0685E0809390068FE18093D2
:102F600091068EE18093920683E28093930682E23B
:102F70008093940685E48093950684E48093960676
:102F800080E48093990610929E0610929F061092FC
:102F9000A0061092A1061092A2061092A30610920B
:102FA000A4061092A506EDECF6E08FEF9FEFDC0192
:102FB000128213821482158216821782108611865D
:102FC00083879487A587B6878787908BA18BB28BE1
:102FD000128611821082739627E0EB38F20741F7D0
:102FE0008DE090E00E94ED1CFC011382128287E3C9
:102FF00092E091838083118687E2848384E18287D3
:1030000084E083871486F093CA06E093C906109281
:10301000CB061092CC0685E28093780510927A0553
:1030200010928706109286061092890610928806E2
:1030300010928B0610928A0660E070E086E896E0B7
:103040000E94B80B1092C4068BEE90E09093C806D5
:103050008093C70681E090E09093C6068093C506F2
:103060000895662777270C9435188F929F92AF9218
:10307000BF92CF92DF92EF92FF920F931F93CF9365
:10308000DF93EC016B016115710519F0FB01918370
:1030900080837E01FFEFEF1AFF0A0881802F90E006
:1030A0000E949119892B11F0E701F3CF0D3239F409
:1030B0007E0182E0E80EF11C098111E008C00B32AC
:1030C00029F47E0192E0E90EF11C098110E0E7018C
:1030D000219743E050E062E472E0CE010E949A1929
:1030E000892BC1F4239645E050E06DE372E0CE01F8
:1030F0000E949A19892B09F42596C114D10419F05C
:10310000F601D183C0831111F6C060E070E080E861
:103110009FE7FAC043E050E06AE372E0CE010E940C
:103120009A19892B59F4C114D10409F4E9C0F2E0C9
:10313000EF0EF11CF601F182E082E2C020E030E007
:10314000A901C0E0D0E0F70160EDA62EA00E89E055
:103150008A1530F1912F9260B92E812F887012FF5D
:1031600004C0811124C0219622C081112197A5E0BD
:10317000B0E00E94D91ADC01CB01880F991FAA1F69
:10318000BB1F9C01AD012A0D311D411D511D283968
:1031900089E93807480789E1580748F0166006C0F2
:1031A0009EEFA9120AC013FD40C01860B12E8FEF28
:1031B000E81AF80A00811B2DC6CF802F8F7D853439
:1031C000A1F580818D3211F4106106C08B3221F09F
:1031D000319661E070E004C08181329662E070E077
:1031E00080538A3018F0E61BF70B1FC060E070E0D8
:1031F00060389CE079075CF4DB01AA0FBB1FAA0FC3
:10320000BB1F6A0F7B1F660F771F680F711D3196FA
:10321000DF0111978C9180538A3050F314FF03C063
:10322000719561957109C60FD71F11FF08C0C114B0
:10323000D10429F0CF010197F60191838083CA015F
:10324000B9010E94B719212F2370233019F04B01C7
:103250005C0106C04B015C01B7FAB094B7F8B094BA
:1032600020E030E0A901C501B4010E94B219882311
:1032700009F43EC0D7FF06C0D195C195D10909E533
:1032800012E002C001E712E06801F8E1CF1AD108AC
:1032900090E2E92EF12CCE15DF0574F0F8012591AE
:1032A000359145915491C501B4010E94181A4B0102
:1032B0005C01CE19DF09EFCF04501109F594E794B2
:1032C0000C151D0541F78A2D880F8B2D881F8F3F08
:1032D00049F020E030E0A901C501B4010E94B21913
:1032E000811106C082E290E0909395078093940745
:1032F000C501B40109C060E070E080E89FEF04C040
:1033000060E070E080EC9FE7DF91CF911F910F911B
:10331000FF90EF90DF90CF90BF90AF909F908F90F5
:10332000089591110C94851A803219F089508550B6
:10333000C8F70895FB01DC014150504088F08D91A1
:1033400081341CF08B350CF4805E659161341CF087
:103350006B350CF4605E861B611171F3990B089557
:10336000881BFCCF0E94F41908F481E00895E894CA
:1033700009C097FB3EF490958095709561957F4FBD
:103380008F4F9F4F9923A9F0F92F96E9BB2793956B
:10339000F695879577956795B795F111F8CFFAF47B
:1033A000BB0F11F460FF1BC06F5F7F4F8F4F9F4FAC
:1033B00016C0882311F096E911C0772321F09EE80A
:1033C000872F762F05C0662371F096E8862F70E070
:1033D00060E02AF09A95660F771F881FDAF7880F4A
:1033E0009695879597F90895990F0008550FAA0BA0
:1033F000E0E8FEEF16161706E807F907C0F0121608
:103400001306E407F50798F0621B730B840B950B0A
:1034100039F40A2661F0232B242B252B21F408955F
:103420000A2609F4A140A6958FEF811D811D0895FC
:103430000E942B1A0C949F1A0E94911A38F00E9435
:10344000981A20F0952311F00C94881A0C948E1A77
:1034500011240C94D31A0E94B01A70F3959FC1F3F3
:10346000950F50E0551F629FF001729FBB27F00D32
:10347000B11D639FAA27F00DB11DAA1F649F662787
:10348000B00DA11D661F829F2227B00DA11D621FD6
:10349000739FB00DA11D621F839FA00D611D221F90
:1034A000749F3327A00D611D231F849F600D211D74
:1034B000822F762F6A2F11249F5750409AF0F1F0F7
:1034C00088234AF0EE0FFF1FBB1F661F771F881F60
:1034D00091505040A9F79E3F510580F00C94881AF6
:1034E0000C94D31A5F3FE4F3983ED4F38695779516
:1034F0006795B795F795E7959F5FC1F7FE2B880F06
:10350000911D9695879597F908959927882708958D
:1035100097F99F6780E870E060E008959FEF80EC86
:10352000089500240A941616170618060906089529
:1035300000240A9412161306140605060895092E8F
:103540000394000C11F4882352F0BB0F40F4BF2BFE
:1035500011F460FF04C06F5F7F4F8F4F9F4F08953E
:1035600057FD9058440F551F59F05F3F71F0479534
:10357000880F97FB991F61F09F3F79F08795089519
:10358000121613061406551FF2CF4695F1DF08C038
:10359000161617061806991FF1CF86957105610555
:1035A00008940895E894BB2766277727CB0197F9FD
:1035B00008950E94061BA59F900DB49F900DA49F97
:1035C000800D911D11240895A1E21A2EAA1BBB1B88
:1035D000FD010DC0AA1FBB1FEE1FFF1FA217B307DF
:1035E000E407F50720F0A21BB30BE40BF50B661FF5
:1035F000771F881F991F1A9469F7609570958095B9
:1036000090959B01AC01BD01CF010895A29FB0012F
:10361000B39FC001A39F700D811D1124911DB29F06
:10362000700D811D1124911D0895991B79E004C02E
:10363000991F961708F0961B881F7A95C9F78095F1
:103640000895EE0FFF1F881F8BBF0790F691E02DA6
:1036500019945058BB27AA270E94411B0C949F1A0B
:103660000E94911A38F00E94981A20F039F49F3F76
:1036700019F426F40C948E1A0EF4E095E7FB0C94E2
:10368000881AE92F0E94B01A58F3BA176207730715
:103690008407950720F079F4A6F50C94D21A0EF45D
:1036A000E0950B2EBA2FA02D0B01B90190010C0152
:1036B000CA01A0011124FF27591B99F0593F50F46A
:1036C000503E68F11A16F040A22F232F342F4427C2
:1036D000585FF3CF469537952795A795F0405395BA
:1036E000C9F77EF41F16BA0B620B730B840BBAF08A
:1036F0009150A1F0FF0FBB1F661F771F881FC2F7F5
:103700000EC0BA0F621F731F841F48F48795779508
:103710006795B795F7959E3F08F0B0CF9395880FC2
:1037200008F09927EE0F9795879508950E94911AB2
:1037300060F080E891E009F49EEF0E94981A28F06A
:1037400040E851E071F45EEF0CC00C948E1A0C94BA
:10375000D21AE92FE0780E94B01A40F3092E052A08
:10376000B1F3261737074807590738F00E2E07F828
:10377000E02569F0E025E0640AC0EF6307F80094F3
:1037800007FADB01B9019D01DC01CA01AD01EF932C
:103790000E941F1C0E949F1A0E94D91B5F915523F3
:1037A00039F02BED3FE049E450FD49EC0C942A1B25
:1037B0000895DF93DD27B92FBF7740E85FE3161642
:1037C000170648075B0718F4D92F0E94DC1C9F934B
:1037D0008F937F936F930E94E41CECE2F1E00E94D0
:1037E000B01C0E949F1A2F913F914F915F910E94B0
:1037F0002B1ADD2351F09058A2EA2AED3FE049EC64
:103800005FE3D0785D270E94411BDF910C949F1AE3
:103810000E941C1C0C949F1A0E94981A58F00E9437
:10382000911A40F029F45F3F29F00C94881A511145
:103830000C94D31A0C948E1A0E94B01A68F3992330
:10384000B1F3552391F3951B550BBB27AA2762179C
:103850007307840738F09F5F5F4F220F331F441FA9
:10386000AA1FA9F335D00E2E3AF0E0E832D09150DD
:103870005040E695001CCAF72BD0FE2F29D0660FCA
:10388000771F881FBB1F261737074807AB07B0E80D
:1038900009F0BB0B802DBF01FF2793585F4F3AF013
:1038A0009E3F510578F00C94881A0C94D31A5F3F10
:1038B000E4F3983ED4F3869577956795B795F79599
:1038C0009F5FC9F7880F911D9695879597F9089581
:1038D000E1E0660F771F881FBB1F6217730784071D
:1038E000BA0720F0621B730B840BBA0BEE1F88F72C
:1038F000E09508950E94811C6894B1110C94D31A2C
:1039000008950E94B81A88F09F5798F0B92F992708
:10391000B751B0F0E1F0660F771F881F991F1AF0BA
:10392000BA95C9F714C0B13091F00E94D21AB1E033
:1039300008950C94D21A672F782F8827B85F39F032
:10394000B93FCCF3869577956795B395D9F73EF453
:1039500090958095709561957F4F8F4F9F4F0895FB
:10396000DF93CF931F930F93FF92EF92DF927B0130
:103970008C01689406C0DA2EEF010E942B1AFE011A
:10398000E894A5912591359145915591A6F3EF01C4
:103990000E94411BFE019701A801DA9469F7DF90AC
:1039A000EF90FF900F911F91CF91DF9108950E94AA
:1039B000F41908F48FEF08959B01AC0160E070E00A
:1039C00080E89FE30C94081C9B01AC010C94181A2E
:1039D0000E94F419880B990B08950F931F93CF93AE
:1039E000DF938230910510F482E090E0E091980737
:1039F000F091990720E030E0A0E0B0E0309719F1B5
:103A0000408151810281138148175907C8F08417FA
:103A1000950769F4109731F012960C93129713964C
:103A20001C9327C0009398071093990722C0211573
:103A3000310519F04217530718F49A01BD01EF013F
:103A4000DF01F801DBCF21153105F9F0281B390B17
:103A50002430310580F48A819B816115710521F044
:103A6000FB019383828304C0909399078093980706
:103A7000FE01329644C0FE01E20FF31F8193919341
:103A800022503109398328833AC02091960730911A
:103A90009707232B41F420910302309104023093C5
:103AA0009707209396072091010230910202211579
:103AB000310541F42DB73EB7409105025091060201
:103AC000241B350BE0919607F0919707E217F30757
:103AD000A0F42E1B3F0B2817390778F0AC014E5F7E
:103AE0005F4F2417350748F04E0F5F1F509397071D
:103AF000409396078193919302C0E0E0F0E0CF01FC
:103B0000DF91CF911F910F910895CF93DF9300978D
:103B100009F481C0FC01329713821282A0919807A8
:103B2000B0919907109781F420813181820F931F02
:103B300020919607309197072817390751F5F09390
:103B40009707E093960767C0ED0120E030E0CE17BD
:103B5000DF0740F44A815B819E0141155105F1F078
:103B6000EA01F5CFD383C28340815181840F951F31
:103B7000C817D90759F488819981840F951F029637
:103B8000918380838A819B81938382832115310570
:103B900029F4F0939907E09398073DC0E901FB836E
:103BA000EA8349915991C40FD51FEC17FD0761F4C1
:103BB00080819181840F951F0296E9019983888302
:103BC000828193819B838A83E0E0F0E012968D915D
:103BD0009C911397009719F0FD01DC01F7CF8D91AF
:103BE0009C9111979D012E5F3F4F820F931F209153
:103BF0009607309197072817390769F4309729F409
:103C0000109299071092980702C013821282B09303
:103C10009707A0939607DF91CF9108956F927F92B7
:103C20008F929F92AF92BF92CF92DF92EF92FF92CC
:103C30000F931F93CF93DF93009789F4CB01DF910C
:103C4000CF911F910F91FF90EF90DF90CF90BF9099
:103C5000AF909F908F907F906F900C94ED1CFC0123
:103C6000E60FF71F9C0122503109E217F30708F411
:103C7000A9C0EC01D9010D911C91119706171707E6
:103C8000B0F00530110508F49BC0C80104978617F1
:103C9000970708F495C002501109061B170B0193F2
:103CA00011936D937C93CF010E94851D89C05B01A8
:103CB000A01AB10A4C01800E911EA0919807B091F4
:103CC0009907612C712CE12CF12C109709F446C056
:103CD0008D919C911197A815B905B1F56C0142E041
:103CE000C40ED11CCA14DB0478F14C018A189B085D
:103CF000640142E0C40ED11C1296BC901297139638
:103D0000AC91B5E0CB16D10440F0B282A38391828E
:103D10008082D9016D937C9309C00E5F1F4F800F85
:103D2000911FF90191838083EB2DFA2FE114F104A7
:103D300031F0D7011396FC93EE93129741C0F093A4
:103D40009907E09398073CC06816790608F43C018F
:103D50007D0112960D90BC91A02DB7CF8091960752
:103D60009091970788169906E1F466167706C8F4CD
:103D70008091010290910202009741F48DB79EB7A5
:103D80004091050250910602841B950BE817F90734
:103D9000C8F4F0939707E0939607F9017183608365
:103DA0000FC0CB010E94ED1C7C01009759F0A801C7
:103DB000BE010E94F81ECE010E94851DC70104C0ED
:103DC000CE0102C080E090E0DF91CF911F910F9172
:103DD000FF90EF90DF90CF90BF90AF909F908F902B
:103DE0007F906F90089581E090E0F8940C94111FFB
:103DF000FB01DC0102C001900D9241505040D8F708
:103E00000895FB01DC018D91019080190110D9F317
:103E1000990B0895FB01DC0101900D920020E1F760
:103E2000089511E0CCECD1E000E006C0802FFE0147
:103E30000E94211B2196011DCD3CD10780E008077F
:063E4000A9F7F894FFCF82
:103E4600FF00009A072000363738391B1D1A1C0060
:103E5600000000FF0AD20A4703A60ACA0AB60AA742
:103E66000A00000000A80201022B02F5025C023AD9
:103E7600024E02000000004E030102470300023218
:103E86003134333234333200494E204C4F4F5000D8
:103E960057616974696E6720666F72205374726920
:103EA6006E6700495320454D505459004578697452
:103EB600696E67005265636569766564204F4E00DA
:103EC600706F735F783A2000706F735F793A2000E5
:103ED6007674733A200044524956494E47004D4F76
:103EE600563A20000D0A004444444444006E616E74
:0A3EF60000696E66006F766600003A
:00000001FF
