:100000000C9463010C9494010C9494010C9494014D
:100010000C9494010C9494010C9494010C9494010C
:100020000C9494010C94E0080C94E0080C94E00803
:100030000C9494010C940E040C9494010C9494016F
:100040000C9494010C9486060C9494010C949401E5
:100050000C9494010C9494010C9494010C94370327
:100060000C9494010C947D050C9453050C9494010C
:100070000C9494010C9494010C9494010C949401AC
:100080000C9494010C9494010C9494010C9494019C
:100090000C9494010C9494010C9494010C94EA082F
:1000A0000C9494010C9494010C9494010C9494017C
:1000B0000C9494010C9494010C9494010C94A70555
:1000C0000C9494010C9494010C9494010C942905C3
:1000D0000C94FF040C9494010C94D5040C94AB0480
:1000E0000C949401370A3A0A290A2D0A330A710A34
:1000F0003E0A420A480A4C0A500A560A5A0A5E0A3E
:10010000710A640A680A6C0A0C94290A0C94C103E7
:100110000C944C0A0C94E6020C942D0A0C943E0AA2
:100120000C945A0A0C945E0A0C9496010C94F80DE7
:100130000C94640A0C94C0010C94560A0C9412039B
:100140000C94E5020C943A0A0C94BF070C94480AEC
:100150000C94E3010C94E2070C94500A0C943D02B9
:100160000C948A020C94CF010C94BC070C94FE0DE5
:100170000C94BE070C94680A0C946C0A0C94420A06
:100180000C9417080C94370A0C94EA070C94330A61
:100190000C94CE070C94F1010C94BD070C94710AD9
:1001A000000020002300260029002C002F00320030
:1001B00000010000030106010901020000210024E2
:1001C0000027002A002D0030003300010100000448
:1001D0000107010A0100002200250028002B002E43
:1001E000003100340002010000050108010B010587
:1001F000050505070508080808020202020A0A08A0
:1002000008040404040101010101010101030303C5
:100210000303030303040707070C0C0C0C0C0C0C62
:100220000C0202020206060606060606060B0B0B69
:100230000B0B0B0B0B0102102020080810204010A4
:10024000204080020102010804020101020408109A
:1002500020408080402010080402018004020180B8
:1002600040201008040201080402010102040810E1
:10027000204080010204081020408000000A0B0288
:10028000090C0D0E08070304010000000000000027
:10029000000000000000000000000000000000005E
:1002A000000000000000001211100000000000001B
:1002B000000000000000000000000000000000003E
:1002C0000000FE0DF80D11241FBECFEFD1E2DEBFFE
:1002D000CDBF00E00CBF12E0A0E0B2E0ECECF3E236
:1002E00000E00BBF02C007900D92AA34B107D9F706
:1002F00027E0AAE4B2E001C01D92A132B207E1F703
:1003000011E0C2E6D1E000E006C021970109802F8C
:10031000FE010E94B10FC136D10780E00807A9F79E
:100320000E94020B0C94D4110C940000CF92DF9227
:10033000EF92FF920F931F93CF93DF936C017A019B
:100340008B01C0E0D0E0CE15DF0581F0D8016D91C2
:100350008D01D601ED91FC910190F081E02DC60157
:100360001995892B11F02196EECF7E01C701DF91FF
:10037000CF911F910F91FF90EF90DF90CF90089554
:10038000FC01538D448D252F30E0842F90E0821B9B
:10039000930B541710F0CF96089501970895FC0120
:1003A000918D828D981761F0828DDF01A80FB11DAC
:1003B0005D968C91928D9F5F9F73928F90E00895D0
:1003C0008FEF9FEF0895FC01918D828D981731F08A
:1003D000828DE80FF11D858D90E008958FEF9FEFDE
:1003E0000895FC01918D228D892F90E0805C9F4FB4
:1003F000821B91098F73992708958CE892E00E94DF
:10040000F10121E0892B09F420E0822F089589E28F
:1004100093E00E94F10121E0892B09F420E0822F72
:10042000089586EC93E00E94F10121E0892B09F404
:1004300020E0822F0895FC01848DDF01A80FB11DFB
:10044000A35ABF4F2C91848D90E001968F7399270A
:10045000848FA689B7892C93A089B1898C918370E8
:1004600080648C93938D848D981306C00288F389E1
:10047000E02D80818F7D80830895EF92FF920F930E
:100480001F93CF93DF93EC0181E0888F9B8D8C8D40
:10049000981305C0E889F989808185FD26C0F62E6C
:1004A0000B8D10E00F5F1F4F0F731127E02E8C8D07
:1004B000E8120CC00FB607FCFACFE889F9898081F1
:1004C00085FFF5CFCE010E941B02F1CF8B8DFE017F
:1004D000E80FF11DE35AFF4FF0829FB7F8940B8F9E
:1004E000EA89FB89808180620AC09FB7F894EE890F
:1004F000FF896083E889F9898081837080648083C3
:100500009FBF81E090E0DF91CF911F910F91FF900D
:10051000EF900895CF93DF93EC01888D8823C9F085
:10052000EA89FB89808185FD05C0A889B9898C91FC
:1005300086FD0FC00FB607FCF5CF808185FFF2CF97
:10054000A889B9898C9185FFEDCFCE010E941B024D
:10055000E7CFDF91CF910895E0916A02F0916B02AD
:10056000199480E090E0892B21F00E941102811102
:1005700019C080E090E0892B41F080E090E0892B69
:1005800021F00E940000811110C00E940702811119
:100590000FC080E090E0892B81F00E94FD01811165
:1005A0000AC008950E940000E4CF0E940000EDCF31
:1005B0000E94AC02EECF0C94000008958EBD0000A6
:1005C0000DB407FEFDCF8EB50895089580E090E04C
:1005D00008950E94BF110F931F93CF93DF93EC01F7
:1005E00088819981009729F02A813B812617370756
:1005F00088F48B016F5F7F4F0E94DA10009761F0E3
:10060000998388831B830A832C813D81232B11F4DA
:10061000FC01108281E001C080E0DF91CF911F9149
:100620000F9108950F931F93CF93DF938C01C62FE3
:10063000D62FD07FD1606D2F0E949F086D2FC801EB
:100640000E94B20880E1C89FB0011124C62FC1608A
:100650006C2FC8010E949F086C2FC8010E94B2082D
:1006600081E090E0DF91CF911F910F9108951F924B
:100670000F920FB60F9211242F933F938F939F9356
:10068000AF93BF9380916D0290916E02A0916F0223
:10069000B091700230916C0223E0230F2D3720F4CB
:1006A0000196A11DB11D05C026E8230F0296A11DCC
:1006B000B11D20936C0280936D0290936E02A09303
:1006C0006F02B09370028091710290917202A091BA
:1006D0007302B09174020196A11DB11D8093710245
:1006E00090937202A0937302B0937402BF91AF9182
:1006F0009F918F913F912F910F900FBE0F901F9060
:100700001895EF92FF920F931F93CF93DF93EC0115
:10071000198218821B821A821D821C826115710542
:1007200049F18B01FB0101900020E9F731977F012E
:10073000E61AF70AB7010E94EB022881398181117C
:100740000DC02115310519F0C9010E9451101982FF
:1007500018821D821C821B821A820CC0FD82EC82D0
:10076000B801C901DF91CF911F910F91FF90EF90D8
:100770000C94CD11DF91CF911F910F91FF90EF90CD
:1007800008950F931F93CF93DF93CDB7DEB72897CC
:100790000FB6F894DEBF0FBECDBF69E472E0CE01A4
:1007A00001960E94810389E293E00E94F101892B66
:1007B000F9F089E293E00E94CF018F8318860D81C2
:1007C0001E810F5F1F4FB801CE0101960E94EB0200
:1007D000882349F329813A818D819E81BE01695F19
:1007E0007F4F820F931F0E94CD111E830D83DBCF9D
:1007F000BE016F5F7F4F86EC93E00E944C088981B9
:100800009A810E94511028960FB6F894DEBF0FBE51
:10081000CDBFDF91CF911F910F9108951F920F923D
:100820000FB60F9211240BB60F922F933F934F9355
:100830005F936F937F938F939F93AF93BF93EF9348
:10084000FF938091650290916602A0916702B0913A
:100850006802892B8A2B8B2B49F19091640280913D
:1008600000008927809300008091650290916602C4
:10087000A0916702B0916802181619061A061B06A5
:100880000CF056C08091650290916602A0916702BB
:10089000B09168020197A109B10980936502909314
:1008A0006602A0936702B093680242C08091000282
:1008B000EAEBF1E0E4919FEF90930002E230C9F09F
:1008C00050F4EE2399F0E13081F590916F009D7F17
:1008D00090936F002AC0E43019F1E0F0E53029F57B
:1008E000909173009D7F909373001FC010926E00D3
:1008F0001CC0909170009D7F9093700091E0909348
:10090000B0009091B100987F94609093B1001092E4
:10091000B3000BC0909171009D7F9093710005C052
:10092000909172009D7F9093720060E00E94720A25
:10093000FF91EF91BF91AF919F918F917F916F91B7
:100940005F914F913F912F910F900BBE0F900FBE73
:100950000F901F9018951F920F920FB60F921124AF
:100960000BB60F922F933F934F935F936F937F93A9
:100970008F939F93AF93BF93EF93FF938CE892E095
:100980000E941B02FF91EF91BF91AF919F918F91B8
:100990007F916F915F914F913F912F910F900BBE7F
:1009A0000F900FBE0F901F9018951F920F920FB6C9
:1009B0000F9211240BB60F922F933F934F935F9397
:1009C0006F937F938F939F93AF93BF93EF93FF9317
:1009D0008CE892E00E94C708FF91EF91BF91AF9120
:1009E0009F918F917F916F915F914F913F912F9147
:1009F0000F900BBE0F900FBE0F901F9018951F9277
:100A00000F920FB60F9211240BB60F922F933F93B4
:100A10004F935F936F937F938F939F93AF93BF9306
:100A2000EF93FF9389E293E00E941B02FF91EF9105
:100A3000BF91AF919F918F917F916F915F914F91F6
:100A40003F912F910F900BBE0F900FBE0F901F90F4
:100A500018951F920F920FB60F9211240BB60F929A
:100A60002F933F934F935F936F937F938F939F93B6
:100A7000AF93BF93EF93FF9389E293E00E94C7087F
:100A8000FF91EF91BF91AF919F918F917F916F9166
:100A90005F914F913F912F910F900BBE0F900FBE22
:100AA0000F901F9018951F920F920FB60F9211245E
:100AB0000BB60F922F933F934F935F936F937F9358
:100AC0008F939F93AF93BF93EF93FF9386EC93E045
:100AD0000E941B02FF91EF91BF91AF919F918F9167
:100AE0007F916F915F914F913F912F910F900BBE2E
:100AF0000F900FBE0F901F9018951F920F920FB678
:100B00000F9211240BB60F922F933F934F935F9345
:100B10006F937F938F939F93AF93BF93EF93FF93C5
:100B200086EC93E00E94C708FF91EF91BF91AF91CF
:100B30009F918F917F916F915F914F913F912F91F5
:100B40000F900BBE0F900FBE0F901F9018951F9225
:100B50000F920FB60F9211240BB60F922F933F9363
:100B60004F935F936F937F938F939F93AF93BF93B5
:100B7000CF93DF93EF93FF932091640430E0F9016A
:100B8000E558FD4F8491F901EB5CFD4FD491F901DB
:100B9000E151FE4FC491CC2379F081110E941C0ACF
:100BA000EC2FF0E0EE0FFF1FE056FE4FA591B49141
:100BB000EC91ED2381E009F480E02091680430910C
:100BC00069042F5F3F4F309369042093680490912C
:100BD0006704953618F096E090936304909163044F
:100BE0009430C9F128F4923069F09330D1F05EC0AE
:100BF000953009F451C0963009F058C091E09093B7
:100C0000340551C0811152C02091680430916904AB
:100C10002436310508F442C010923405109267045E
:100C20001CC0813009F042C0E091670491E09E0F42
:100C300090936704F0E02091680430916904EE0F0E
:100C4000FF1FED59FB4F30872783109269041092E4
:100C5000680494E029C0811117C0E091670491E015
:100C60009E0F90936704F0E020916804309169042E
:100C7000EE0FFF1FED59FB4F308727831092690459
:100C80001092680493E010C02091680430916904C8
:100C90002536310558F007C0811108C0109269044B
:100CA0001092680403C095E09093630490916604E9
:100CB0009923B9F081110AC080916504882321F03D
:100CC0008091650461E009C02F9A0BC08091650492
:100CD000882331F08091650460E00E94720A01C0AF
:100CE0002F98FF91EF91DF91CF91BF91AF919F919D
:100CF0008F917F916F915F914F913F912F910F90C5
:100D00000BBE0F900FBE0F901F9018951F920F9261
:100D10000FB60F9211240BB60F922F933F934F9360
:100D20005F936F937F938F939F93AF93BF93EF9353
:100D3000FF938091630287FF05C010928500109297
:100D4000840016C020916302022E000C330B8091A8
:100D5000710590E0281739075CF43091630225E0B3
:100D60003203F0011124EB5CFA4F808186FD15C03F
:100D7000809163028F5F8093630220916302022E51
:100D8000000C330B8091710590E02817390794F41B
:100D9000809163028C302CF10DC0309163023203DC
:100DA000F0011124EB5CFA4F808160E08F730E94A8
:100DB000720ADECF809184009091850084349C4932
:100DC00018F480E49CE905C080918400909185002E
:100DD000049690938900809388008FEF809363023C
:100DE0002AC040918400509185003091630225E033
:100DF0003203F0011124EB5CFA4F81819281840F60
:100E0000951F90938900809388003091630232038C
:100E1000F0011124EB5CFA4F808186FF0CC0309109
:100E200063023203F0011124EB5CFA4F808161E030
:100E30008F730E94720AFF91EF91BF91AF919F91C2
:100E40008F917F916F915F914F913F912F910F9073
:100E50000BBE0F900FBE0F901F90189530917F0220
:100E6000313208F04BC080917D028111FCCF90910E
:100E70005A0622E020937D0221E020937C022FEF8E
:100E8000209338061092370630933606EAE3F6E0F0
:100E9000A6E1B6E020E0321721F041914D932F5F9B
:100EA000FACF1092150620911506990F922B909368
:100EB000150690917B02913061F410927B02909123
:100EC00015069093BB009091BC0093FDF8CF95EC74
:100ED00001C095EE9093BC0090917D029230E1F3B9
:100EE000909138069F3F79F080913806803241F02A
:100EF00080913806803331F084E005C081E003C082
:100F000082E001C083E010927E0210927F02109274
:100F10003906089585ED8093BC008091BC0084FD66
:100F2000FCCF10927D0208954091F005262F30E00D
:100F3000240F311D21323105DCF420917D02243053
:100F4000C9F4FC0180E090E0861758F43091F00578
:100F50002191DC01A053BA4FA30FB11D2C93019630
:100F6000F3CF8091F005680F6093F00580E008955D
:100F700081E0089582E00895089508950895E0912C
:100F8000760280917502E81730F4F0E0E055FA4FF0
:100F9000808190E008958FEF9FEF08959091760201
:100FA00080917502981750F4E92FF0E0E055FA4F60
:100FB000208130E09F5F9093760202C02FEF3FEFD9
:100FC000C90108958091750290E020917602821BFC
:100FD00091090895CF92DF92EF92FF920F931F93A2
:100FE000CF93DF937C01CB018A0120913906222324
:100FF00089F0EB016B01C40ED51ECC15DD0569F03F
:101000006991D701ED91FC910190F081E02DC7012C
:101010001995F3CF642F0E949407C801DF91CF91F7
:101020001F910F91FF90EF90DF90CF900895CF9395
:10103000DF931F92CDB7DEB7698320913906222353
:10104000D1F020917F02203240F021E030E0FC011D
:101050003383228380E090E015C080917E02E82FE8
:10106000F0E0E65CF94F998190838F5F80937E0278
:1010700080937F0205C061E0CE0101960E94940733
:1010800081E090E00F90DF91CF91089542E050E031
:1010900067E472E00C9496010F931F93CF93DF9354
:1010A000EC01FB0144815581608171810E949601B0
:1010B0008C01CE010E944608800F911FDF91CF91D5
:1010C0001F910F9108950F931F93CF93DF93162FC6
:1010D000072FC9E7D5E09C8521E02093390690933E
:1010E0005A0610927E0210927F02AA85BB85ED916E
:1010F000FC9111970190F081E02D682FCD01199599
:101100008A859B85DC01ED91FC910190F081E02DB9
:10111000602F19958A859B85DC01ED91FC910190EA
:10112000F081E02D612F1995DF91CF911F910F91E3
:101130000C942E07BC0189E293E00C944C08FC014E
:10114000248131E03093390620935A0610927E02B2
:1011500010927F028485682B80E892E00E94170835
:101160000C942E070F931F93CF938C01C62F6460AE
:101170000E949F086C2F6B7FC8010E949F0883EC20
:1011800090E00197F1F7CF911F910F910895FC0125
:10119000A089B1898C91A689B78982FD0FC09C91E5
:1011A000818D8F5F8F73228D821749F0218DDF0132
:1011B000A20FB11D5D969C93818F08958C91089527
:1011C0001F920F920FB60F9211240F900FBE0F9027
:1011D0001F9018951F920F920FB60F9211240BB605
:1011E0000F922F933F934F935F936F937F938F93C0
:1011F0009F93AF93BF93EF93FF938091B900887F44
:10120000803609F49CC068F5883209F45BC090F41C
:10121000803109F454C038F4882309F4F6C08830CA
:1012200009F44DC0F6C0883109F44CC0803209F48D
:101230005DC0EFC0803409F468C048F4803309F41D
:1012400055C0883309F0E5C080933806D8C0803592
:1012500009F44FC0883509F45DC0883409F0D9C05D
:10126000D6C0883909F4C7C0A8F4883709F467C024
:1012700038F4883609F463C0803709F460C0C9C007
:10128000883809F4B8C0803909F45FC0803809F0A3
:10129000C0C05BC0803B09F486C038F4803A09F4D2
:1012A00066C0883A09F47FC0B4C0803C09F4A7C086
:1012B000883C09F4A4C0883B09F48AC0AAC0809184
:1012C000150610C09091370680913606981770F574
:1012D000E091370681E08E0F80933706F0E0EA5EFA
:1012E000F94F80818093BB0085EC86C080933806DF
:1012F0008EC0E091370681E08E0F80933706809193
:10130000BB00F0E0EA5EF94F808390913706809150
:1013100036066EC0E091370681E08E0F8093370667
:101320008091BB00F0E0EA5EF94F808380917C02FF
:1013300081116DC081E080937B0284EA61C083E00B
:1013400080937D0210921206CFCF809112068032D8
:1013500008F051C0E091120681E08E0F80931206D2
:101360008091BB00F0E0EE50FA4F8083BDCF85EC5A
:101370008093BC0010927D0280911206803230F47E
:10138000E0911206F0E0EE50FA4F108260911206E2
:1013900070E0E0917902F0917A0282EF95E0199580
:1013A0001092120636C084E080937D021092F105FF
:1013B0001092F005E0917702F091780219958091F2
:1013C000F005811105C081E08093F0051092D005F1
:1013D000E091F10581E08E0F8093F105F0E0E0539C
:1013E000FA4F80818093BB009091F1058091F005C8
:1013F000981708F479CF85E88093BC000AC085EC83
:101400008093BC0010927D0204C0109238060E94A6
:101410008A07FF91EF91BF91AF919F918F917F913B
:101420006F915F914F913F912F910F900BBE0F9055
:101430000FBE0F901F90189590E0FC013197E2319C
:10144000F10508F04EC08827EE58FF4F8F4F0C94DF
:10145000B10F809180008F7703C0809180008F7DD5
:1014600080938000089580918000877FF9CF84B5B4
:101470008F7702C084B58F7D84BD08958091B000C0
:101480008F7703C08091B0008F7D8093B000089566
:10149000809190008F7707C0809190008F7D03C06E
:1014A00080919000877F8093900008958091A000A4
:1014B0008F7707C08091A0008F7D03C08091A0002E
:1014C000877F8093A0000895809120018F7707C0C7
:1014D000809120018F7D03C080912001877F8093C0
:1014E000200108951F93CF93DF93282F30E0F90157
:1014F000E558FD4F8491F901EB5CFD4FD491F90162
:10150000E151FE4FC491CC23C1F0162F81110E94EE
:101510001C0AEC2FF0E0EE0FFF1FEB52FE4FA591DF
:10152000B4919FB7F894111104C08C91D095D82331
:1015300002C0EC91DE2BDC939FBFDF91CF911F9116
:101540000895CF93DF9390E0FC01EB5CFD4F249175
:10155000FC01E151FE4F8491882361F190E0880FF6
:10156000991FFC01E554FE4FC591D491FC01EB524B
:10157000FE4FA591B491611109C09FB7F89488817D
:10158000209582238883EC912E230BC0623061F476
:101590009FB7F8948881322F309583238883EC910C
:1015A0002E2B2C939FBF06C08FB7F894E8812E2B6B
:1015B00028838FBFDF91CF9108953FB7F894809132
:1015C000710290917202A0917302B091740226B5DB
:1015D000A89B05C02F3F19F00196A11DB11D3FBF6B
:1015E000BA2FA92F982F8827820F911DA11DB11DF9
:1015F000BC01CD0142E0660F771F881F991F4A95F5
:10160000D1F70895CF93DF9300D000D0CDB7DEB7E8
:10161000789484B5826084BD84B5816084BD85B5CD
:10162000826085BD85B5816085BD80916E008160D9
:1016300080936E001092810080918100826080937F
:101640008100809181008160809381008091800081
:101650008160809380008091B10084608093B100AC
:101660008091B00081608093B00080919100826091
:10167000809391008091910081608093910080918E
:1016800090008160809390008091A100826080939F
:10169000A1008091A10081608093A1008091A000B1
:1016A00081608093A000809121018260809321015C
:1016B00080912101816080932101809120018160CE
:1016C0008093200180917A00846080937A008091D9
:1016D0007A00826080937A0080917A0081608093A2
:1016E0007A0080917A00806880937A001092C1001D
:1016F000E091D603F091D70382E08083E091D2039A
:10170000F091D3031082E091D403F091D5038FECD4
:1017100080831092DE03E091DA03F091DB0386E030
:101720008083E091D803F091D90380818061808328
:10173000E091D803F091D903808188608083E091A3
:10174000D803F091D903808180688083E091D80329
:10175000F091D90380818F7D808361E080917A054B
:101760000E94A10A60E080917A050E94720A60E0FE
:10177000809179050E94A10A80E892E09093840507
:1017800080938305109276021092750210927E0269
:1017900010927F0210927D0281E080937C02109271
:1017A0007B0261E084E10E94720A61E085E10E94AF
:1017B000720A8091B9008E7F8093B9008091B90040
:1017C0008D7F8093B90088E48093B80085E480938E
:1017D000BC008CEB97E090937802809377028DEBBE
:1017E00097E090937A028093790280E090E1A0E004
:1017F000B0E08093860590938705A0938805B09309
:1018000089058AE090E0A0E0B0E080938A0590939B
:101810008B05A0938C05B0938D0580E090E0A0E04F
:10182000B0E480938E0590938F05A0939005B093BC
:10183000910560E070E185E00E9463086FE979E35B
:1018400080E00E94630809E715E07801512CE4E28A
:101850006E2EE2E07E2EFAE68F2EF2E09F2EABECAB
:10186000CA2EA7E0DA2EBBE8AB2EBB24B394D70177
:1018700014969C91149712968C91F801818F928FF7
:1018800061E00E94A10A61E0D8015A968C910E9401
:10189000A10AF70190858681D8015D968C935D97AA
:1018A0005E969C9361E00E94A10A60E0F801868D3B
:1018B0000E94A10A61E0D8015D968C910E94720A93
:1018C0004FB6F89480916902811126C0F30184918A
:1018D000F4012491E82FF0E0EE0FFF1FE554FE4FD6
:1018E000A591B4919C91822F892321F461E085E335
:1018F0000E94720A61E085E30E94A10A8CB58061B2
:101900008CBD8CB580648CBD61E084E30E94A10A2B
:1019100061E083E30E94A10A809169028F5F809356
:1019200069024FBEC6010197F1F760E0D8015D96EC
:101930008C910E94720A88E80E94DE0283E00E9475
:10194000DE0261E0F801858D0E94720AC6010197EE
:10195000F1F760E0D8015D968C910E94720A88E9E7
:101960000E94DE0280E00E94DE0280E00E94DE0231
:1019700080E00E94DE0280E00E94DE0261E0F80169
:10198000858D0E94720AC5010197F1F760E0D801C8
:101990005D968C910E94720A80EE0E94DE0261E0E8
:1019A000F801858D0E94720A5394FFEFEF1AFF0A27
:1019B0000E5F1F4F22E052125ACF6EE9E62E65E00D
:1019C000F62E02EA15E060E0D7018D917D010E94BC
:1019D000A10AB2EAEB16B5E0FB06A9F79AE9E92EEF
:1019E00095E0F92E24EAC22E25E0D22E35E0B32E62
:1019F0004CE0942E52E0A52EF80181908F01878152
:101A00008C3008F048C061E0882D0E94A10AD801FE
:101A100017968C91B89EF0011124EB5CFA4F982D2B
:101A20009F732081207C822E892A808213821482D7
:101A3000692D0E94A50FBCE08B9FA001112420E01E
:101A400030E0BA01620F731FB69EF001B79EF00D31
:101A50001124EB5CFA4F908196FD12C02F5F3F4F2F
:101A60002C30310571F781110BC010928000A092CB
:101A700081001092850010928400A6BAA0926F0097
:101A8000D8011796EC91BE9EF0011124EB5CFA4F41
:101A9000808180648083F80195818381D70152968B
:101AA0008C93529753969C9360E00E94A10A61E048
:101AB000F70183890E94A10A60E0D70153968C91B7
:101AC0000E94720AB2E0EB0EF11CC016D10609F0BA
:101AD00093CFF8941092200189E08093210180E255
:101AE00093E0909329018093280110922501109290
:101AF000240112E010937300789410936304109201
:101B000067048091640460E00E94A10AE0913903B7
:101B1000F0913A031083E0913503F091360310827F
:101B2000E0913703F091380380E180831092410304
:101B3000E0913D03F0913E0386E08083E0913B031A
:101B4000F0913C03808180618083E0913B03F091C0
:101B50003C03808188608083E0913B03F0913C03EB
:101B6000808180688083E0913B03F0913C03808119
:101B70008F7D808381EC93E090936B0280936A0267
:101B80006FE372E0CE0101960E948103CE010196BF
:101B90000E949A0889819A810E9451100E94DD0A50
:101BA0004B015C0188EEC82E83E0D82EE12CF12C8D
:101BB0000E94DD0ADC01CB0188199909AA09BB0939
:101BC000883E9340A105B10598F3E1E0CE1AD10813
:101BD000E108F108F8EE8F0EF3E09F1EA11CB11C86
:101BE000C114D104E104F10419F70E94B102C8CF75
:101BF00080917205909173050C945110109283029C
:101C00001092820288EE93E0A0E0B0E0809384021C
:101C100090938502A0938602B093870223E132E07D
:101C2000309381022093800210928F0210928E02D4
:101C30008093900290939102A0939202B0939302AA
:101C400025E232E030938D0220938C0245E351E08F
:101C5000509399024093980244E351E050939B02C1
:101C600040939A0240E351E050939D0240939C02BE
:101C700041E351E050939F0240939E0242E351E0C2
:101C80005093A1024093A00246E351E05093A30277
:101C90004093A2021092A5021092A6021092A702EF
:101CA0001092A80210922C0310922B0380932D0304
:101CB00090932E03A0932F03B093300330932A0305
:101CC0002093290345ED50E05093360340933503AC
:101CD00044ED50E0509338034093370340ED50E01B
:101CE00050933A034093390341ED50E050933C0345
:101CF00040933B0342ED50E050933E0340933D033D
:101D000046ED50E05093400340933F03109242034E
:101D10001092430310924403109245031092C9039A
:101D20001092C8038093CA039093CB03A093CC0373
:101D3000B093CD033093C7032093C60385EC90E0A6
:101D40009093D3038093D20384EC90E09093D503D7
:101D50008093D40380EC90E09093D7038093D603D4
:101D600081EC90E09093D9038093D80382EC90E0CB
:101D70009093DB038093DA0386EC90E09093DD038D
:101D80008093DC031092DF031092E0031092E103D2
:101D90001092E2038091070290910802A09109023B
:101DA000B0910A0280939A0590939B05A0939C059D
:101DB000B0939D0580910B0290910C02A0910D02B1
:101DC000B0910E0280939E0590939F05A093A0056D
:101DD000B093A10584E08093A20587E08093A305DA
:101DE0001092A40584EB8093A50586E18093A60557
:101DF00088E18093A70587E18093A80589E1809316
:101E0000A905E0917105EC3020F08FEF8093AA05D1
:101E100010C081E08E0F80937105E093AA0525E044
:101E2000E29FF0011124EB5CFA4F88EB9BE0928378
:101E30008183E0917105EC3020F08FEF8093AB054A
:101E400010C081E08E0F80937105E093AB0585E0B3
:101E5000E89FF0011124EB5CFA4F88EB9BE0928342
:101E600081838CE08093790584E280937A0586E013
:101E700080937B0585E080937C058FE180937D05D1
:101E80008EE180937E0583E280937F0582E28093DA
:101E9000800585E48093810584E48093820580E455
:101EA0008093850510928A0510928B0510928C05FF
:101EB00010928D0510928E0510928F05109290054C
:101EC00010929105EFE5F6E08FEF9FEFDC011282B3
:101ED00013821482158216821782108611868387D8
:101EE0009487A587B6878787908BA18BB28B128644
:101EF00011821082739627E0ED31F20741F78DE0F1
:101F000090E00E94B90FFC011382128287E392E0F5
:101F100091838083118687E2848384E1828784E0D1
:101F200083871486F0935C06E0935B0610925D064F
:101F300010925E0685E2809364041092660469E460
:101F400072E082E795E00C948103991B79E004C06C
:101F5000991F961708F0961B881F7A95C9F78095E8
:101F60000895EE0FFF1F881F8BBF0790F691E02D9D
:101F700019940F931F93CF93DF938230910510F440
:101F800082E090E0E0911F07F091200720E030E030
:101F9000A0E0B0E0309719F14081518102811381B6
:101FA00048175907C8F08417950769F4109731F05E
:101FB00012960C93129713961C9327C000931F0739
:101FC0001093200722C02115310519F0421753073D
:101FD00018F49A01BD01EF01DF01F801DBCF2115F3
:101FE0003105F9F0281B390B2430310580F48A8142
:101FF0009B816115710521F0FB019383828304C0ED
:102000009093200780931F07FE01329644C0FE0183
:10201000E20FF31F81939193225031093983288372
:102020003AC020911D0730911E07232B41F42091C7
:1020300003023091040230931E0720931D07209164
:102040000102309102022115310541F42DB73EB74E
:102050004091050250910602241B350BE0911D07AB
:10206000F0911E07E217F307A0F42E1B3F0B281771
:10207000390778F0AC014E5F5F4F2417350748F001
:102080004E0F5F1F50931E0740931D07819391933E
:1020900002C0E0E0F0E0CF01DF91CF911F910F91FE
:1020A0000895CF93DF93009709F481C0FC01329724
:1020B00013821282A0911F07B0912007109781F41C
:1020C00020813181820F931F20911D0730911E07BF
:1020D0002817390751F5F0931E07E0931D0767C0D5
:1020E000ED0120E030E0CE17DF0740F44A815B814C
:1020F0009E0141155105F1F0EA01F5CFD383C2836A
:1021000040815181840F951FC817D90759F48881E0
:102110009981840F951F0296918380838A819B8188
:10212000938382832115310529F4F0932007E093EE
:102130001F073DC0E901FB83EA8349915991C40F10
:10214000D51FEC17FD0761F480819181840F951FE5
:102150000296E90199838883828193819B838A8394
:10216000E0E0F0E012968D919C911397009719F0A2
:10217000FD01DC01F7CF8D919C9111979D012E5FA0
:102180003F4F820F931F20911D0730911E07281784
:10219000390769F4309729F41092200710921F072D
:1021A00002C013821282B0931E07A0931D07DF9115
:1021B000CF9108956F927F928F929F92AF92BF922C
:1021C000CF92DF92EF92FF920F931F93CF93DF9303
:1021D000009789F4CB01DF91CF911F910F91FF9070
:1021E000EF90DF90CF90BF90AF909F908F907F90B7
:1021F0006F900C94B90FFC01E60FF71F9C01225061
:102200003109E217F30708F4A9C0EC01D9010D91D7
:102210001C91119706171707B0F00530110508F447
:102220009BC0C80104978617970708F495C0025011
:102230001109061B170B019311936D937C93CF012A
:102240000E94511089C05B01A01AB10A4C01800E96
:10225000911EA0911F07B0912007612C712CE12CD9
:10226000F12C109709F446C08D919C911197A815F7
:10227000B905B1F56C0142E0C40ED11CCA14DB04EF
:1022800078F14C018A189B08640142E0C40ED11C0D
:102290001296BC9012971396AC91B5E0CB16D10470
:1022A00040F0B282A38391828082D9016D937C93A6
:1022B00009C00E5F1F4F800F911FF901918380832A
:1022C000EB2DFA2FE114F10431F0D7011396FC93B2
:1022D000EE93129741C0F0932007E0931F073CC094
:1022E0006816790608F43C017D0112960D90BC91A8
:1022F000A02DB7CF80911D0790911E0788169906D3
:10230000E1F466167706C8F480910102909102020A
:10231000009741F48DB79EB7409105025091060297
:10232000841B950BE817F907C8F4F0931E07E09398
:102330001D07F901718360830FC0CB010E94B90FA3
:102340007C01009759F0A801BE010E94C411CE0182
:102350000E945110C70104C0CE0102C080E090E08D
:10236000DF91CF911F910F91FF90EF90DF90CF9071
:10237000BF90AF909F908F907F906F90089581E075
:1023800090E0F8940C94D411FB01DC0102C00190A0
:102390000D9241505040D8F70895FB01DC010190A7
:1023A0000D920020E1F7089511E0C2E6D1E000E0CF
:1023B00006C0802FFE010E94B10F2196011DC33679
:0C23C000D10780E00807A9F7F894FFCFD0
:1023CC00FF000021072000363738391B1D1A1C006E
:1023DC000000001708EA07E602BE07E207CE07BFB7
:1023EC0007000000003D029601C0018A02F101CFF6
:1023FC0001E3010000000012039601E602E5024130
:0A240C00542B4D41433F000D0A0020
:00000001FF
