:100000000C94B2010C94E3010C94E3010C94E30111
:100010000C94E3010C94E3010C94E3010C94E301D0
:100020000C94E3010C94A80C0C94A80C0C94A80C50
:100030000C94E3010C9473040C94E3010C94E3011D
:100040000C94E3010C947C070C94E3010C94E30101
:100050000C94E3010C94E3010C94E3010C941E1145
:100060000C94E3010C94E2050C94B8050C94E301A4
:100070000C94E3010C94E3010C94E3010C94E30170
:100080000C94E3010C94E3010C94E3010C94E30160
:100090000C94E3010C94E3010C94E3010C94240808
:1000A0000C94E3010C94E3010C94E3010C94E30140
:1000B0000C94E3010C94E3010C94E3010C940C0602
:1000C0000C94E3010C94E3010C94E3010C948E0571
:1000D0000C9464050C94E3010C943A050C941005FF
:1000E0000C94E301250A280A170A1B0A210A5F0A51
:1000F0002C0A300A360A3A0A3E0A440A480A4C0ACE
:100100005F0A520A560A5A0A6F0D740D790D830D53
:100110008D0D060E970D9F0DA70DB10DBB0DC50DD5
:10012000D40DDE0D060EE80DF20DFC0D0C94FC0D49
:100130000C943E0A0C94ED030C94BB0D0C942C0A09
:100140000C9484030C94DE0D0C9408170C94560A3E
:100150000C94A70D0C946F0D0C94B10D0C948C03A2
:100160000C945F0A0C941F020C9460030C94F20D23
:100170000C94480A0C94E5010C945E030C94740DE5
:100180000C94C50D0C94E8030C948D0D0C94D40DB7
:100190000C9461030C9470030C94440A0C945F0358
:1001A0000C94060E0C94250A0C94790D0C945A0AA2
:1001B0000C944C0A0C940E170C949F0D0C94100286
:1001C0000C94DA020C9441020C94300A0C94360A16
:1001D0000C94E80D0C9433020C94E6010C94970DEA
:1001E0000C948D020C94280A0C94170A0C94520A51
:1001F0000C94830D0C94B9030C94210A0C941B0AE3
:100200000C943A0A4E414E494E495459494E46CDF6
:10021000CCCC3D0AD7233C17B7D13877CC2B3295BD
:1002200095E6241FB14F0A000020410000C842009B
:10023000401C4620BCBE4CCA1B0E5AAEC59D740263
:1002400000002100240027002A002D003000330088
:1002500001010000040107010A010000220025003D
:1002600028002B002E00310034000201000005019F
:1002700008010B01000020002300260029002C00AB
:100280002F003200000100000301060109010505ED
:100290000505070508080808020202020A0A0808FC
:1002A000040404040101010101010101030303032A
:1002B00003030303040707070C0C0C0C0C0C0C0CB9
:1002C0000202020206060606060606060B0B0B0BCA
:1002D0000B0B0B0B010210202008081020401020EF
:1002E00040800201020108040201010204081020FA
:1002F00040808040201008040201800402018040F8
:100300002010080402010804020101020408102060
:100310004080010204081020408000000A0B0209FE
:100320000C0D0E080703040100000000000000008F
:1003300000000000000000000000000000000000BD
:10034000000000000000121110000000000000007A
:10035000000000000000000000000000000000009D
:100360000E17081711241FBECFEFD1E2DEBFCDBF9D
:1003700000E00CBF14E0A0E0B2E0E0E8FEE300E043
:100380000BBF02C007900D92A433B107D9F729E043
:10039000A4E3B4E001C01D92A131B207E1F711E07E
:1003A000C1EBD1E000E006C021970109802FFE01DA
:1003B0000E94E31BC03BD10780E00807A9F70E9419
:1003C00068110C942E1F0C9400000895CF92DF92B8
:1003D000EF92FF920F931F93CF93DF936C017A01FB
:1003E0008B01C0E0D0E0CE15DF0581F0D8016D9122
:1003F0008D01D601ED91FC910190F081E02DC601B7
:100400001995892B11F02196EECF7E01C701DF915E
:10041000CF911F910F91FF90EF90DF90CF900895B3
:10042000FC01538D448D252F30E0842F90E0821BFA
:10043000930B541710F0CF96089501970895FC017F
:10044000918D828D981761F0828DDF01A80FB11D0B
:100450005D968C91928D9F5F9F73928F90E008952F
:100460008FEF9FEF0895FC01918D828D981731F0E9
:10047000828DE80FF11D858D90E008958FEF9FEF3D
:100480000895FC01918D228D892F90E0805C9F4F13
:10049000821B91098F73992708958FE095E00E9440
:1004A000410221E0892B09F420E0822F08958CEA93
:1004B00095E00E94410221E0892B09F420E0822F7F
:1004C000089589E496E00E94410221E0892B09F415
:1004D00020E0822F0895FC01848DDF01A80FB11D5B
:1004E000A35ABF4F2C91848D90E001968F7399276A
:1004F000848FA689B7892C93A089B1898C91837048
:1005000080648C93938D848D981306C00288F38940
:10051000E02D80818F7D80830895EF92FF920F936D
:100520001F93CF93DF93EC0181E0888F9B8D8C8D9F
:10053000981305C0E889F989808185FD26C0F62ECB
:100540000B8D10E00F5F1F4F0F731127E02E8C8D66
:10055000E8120CC00FB607FCFACFE889F989808150
:1005600085FFF5CFCE010E946B02F1CF8B8DFE018E
:10057000E80FF11DE35AFF4FF0829FB7F8940B8FFD
:10058000EA89FB89808180620AC09FB7F894EE896E
:10059000FF896083E889F989808183708064808322
:1005A0009FBF81E090E0DF91CF911F910F91FF906D
:1005B000EF900895CF93DF93EC01888D8823C9F0E5
:1005C000EA89FB89808185FD05C0A889B9898C915C
:1005D00086FD0FC00FB607FCF5CF808185FFF2CFF7
:1005E000A889B9898C9185FFEDCFCE010E946B025D
:1005F000E7CFDF91CF910895E0E0F0E0199480E03B
:1006000090E0892B21F00E946102811119C080E0E5
:1006100090E0892B41F080E090E0892B21F00E944E
:100620000000811110C00E94570281110FC080E0AC
:1006300090E0892B81F00E944D0281110AC008953B
:100640000E940000E4CF0E940000EDCF0E94FC0257
:10065000EECF0C940000089585ED8093BC0080914E
:10066000BC0084FDFCCF1092EC04089540919504E9
:10067000262F30E0240F311D21323105DCF420918A
:10068000EC042430C9F4FC0180E090E0861758F4B3
:10069000309195042191DC01AD58BB4FA30FB11DE2
:1006A0002C930196F3CF80919504680F6093950485
:1006B00080E0089581E0089582E008950895089506
:1006C0000895E091EE048091ED04E81730F4F0E035
:1006D000E151FB4F808190E008958FEF9FEF0895E7
:1006E0009091EE048091ED04981750F4E92FF0E01A
:1006F000E151FB4F208130E09F5F9093EE0402C0F8
:100700002FEF3FEFC90108958091ED0490E0209113
:10071000EE04821B91090895CF92DF92EF92FF922F
:100720000F931F93CF93DF937C01CB018A0120911C
:100730007004222389F0EB016B01C40ED51ECC1589
:10074000DD0569F06991D701ED91FC910190F0818F
:10075000E02DC7011995F3CF642F0E943603C8011D
:10076000DF91CF911F910F91FF90EF90DF90CF908D
:100770000895CF93DF931F92CDB7DEB769832091A1
:1007800070042223D1F020917104203240F021E046
:1007900030E0FC013383228380E090E015C080913B
:1007A0007204E82FF0E0E05BFB4F998190838F5F4C
:1007B000809372048093710405C061E0CE010196BC
:1007C0000E94360381E090E00F90DF91CF91089571
:1007D00080E090E008950E94101F0F931F93CF9325
:1007E000DF938C01C62FD62FD07FD1606D2F0E9452
:1007F000630C6D2FC8010E947A0C80E1C89FB00184
:100800001124C62FC1606C2FC8010E94630C6C2F8D
:10081000C8010E947A0C81E090E0DF91CF911F9196
:100820000F9108950F931F93CF93DF938C01EB01EA
:10083000FC0180819181009739F06881798161158F
:100840007105A1F40E94A21D88819981F80191830C
:1008500080838A819B81938382838C819D81958310
:100860008483198218821B821A820FC0F801428188
:1008700053812C813D814217530720F30E94271F8B
:100880008C819D81F801958384831D821C82DF9178
:10089000CF911F910F9108950F931F93CF93DF93E3
:1008A000EC0188819981009729F02A813B812617E4
:1008B000370788F48B016F5F7F4F0E942B1E0097D4
:1008C00061F0998388831B830A832C813D81232BCC
:1008D00011F4FC01108281E001C080E0DF91CF9132
:1008E0001F910F9108951F920F920FB60F9211242E
:1008F0000BB60F922F933F934F935F936F937F931A
:100900008F939F93AF93BF93EF93FF938091BC041A
:100910009091BD04A091BE04B091BF04892B8A2B95
:100920008B2B49F19091BB04809100008927809323
:1009300000008091BC049091BD04A091BE04B091D0
:10094000BF04181619061A061B060CF056C0809133
:10095000BC049091BD04A091BE04B091BF04019766
:10096000A109B1098093BC049093BD04A093BE0477
:10097000B093BF0442C080910002EFE3F2E0E49143
:100980009FEF90930002E230C9F050F4EE2399F00B
:10099000E13081F590916F009D7F90936F002AC0A8
:1009A000E43019F1E0F0E53029F5909173009D7F76
:1009B000909373001FC010926E001CC09091700045
:1009C0009D7F9093700091E09093B0009091B10062
:1009D000987F94609093B1001092B3000BC09091F7
:1009E00071009D7F9093710005C0909172009D7F72
:1009F0009093720060E00E94DB0CFF91EF91BF9139
:100A0000AF919F918F917F916F915F914F913F91A6
:100A10002F910F900BBE0F900FBE0F901F90189547
:100A20001F920F920FB60F9211240BB60F922F93B5
:100A30003F934F935F936F937F938F939F93AF9366
:100A4000BF93EF93FF938FE095E00E946B02FF91BD
:100A5000EF91BF91AF919F918F917F916F915F9136
:100A60004F913F912F910F900BBE0F900FBE0F90A3
:100A70001F9018951F920F920FB60F9211240BB66C
:100A80000F922F933F934F935F936F937F938F9327
:100A90009F93AF93BF93EF93FF938FE095E00E94F6
:100AA0008F0CFF91EF91BF91AF919F918F917F91AB
:100AB0006F915F914F913F912F910F900BBE0F90CF
:100AC0000FBE0F901F9018951F920F920FB60F92A6
:100AD00011240BB60F922F933F934F935F936F9315
:100AE0007F938F939F93AF93BF93EF93FF938CEA82
:100AF00095E00E946B02FF91EF91BF91AF919F91A2
:100B00008F917F916F915F914F913F912F910F90B6
:100B10000BBE0F900FBE0F901F9018951F920F9253
:100B20000FB60F9211240BB60F922F933F934F9352
:100B30005F936F937F938F939F93AF93BF93EF9345
:100B4000FF938CEA95E00E948F0CFF91EF91BF918B
:100B5000AF919F918F917F916F915F914F913F9155
:100B60002F910F900BBE0F900FBE0F901F901895F6
:100B70001F920F920FB60F9211240BB60F922F9364
:100B80003F934F935F936F937F938F939F93AF9315
:100B9000BF93EF93FF9389E496E00E946B02FF916D
:100BA000EF91BF91AF919F918F917F916F915F91E5
:100BB0004F913F912F910F900BBE0F900FBE0F9052
:100BC0001F9018951F920F920FB60F9211240BB61B
:100BD0000F922F933F934F935F936F937F938F93D6
:100BE0009F93AF93BF93EF93FF9389E496E00E94A6
:100BF0008F0CFF91EF91BF91AF919F918F917F915A
:100C00006F915F914F913F912F910F900BBE0F907D
:100C10000FBE0F901F9018951F920F920FB60F9254
:100C200011240BB60F922F933F934F935F936F93C3
:100C30007F938F939F93AF93BF93EF93FF93809195
:100C4000E7060E94B20C2091EB063091EC062F5F74
:100C50003F4F3093EC062093EB069091EA069536D1
:100C600018F096E09093E6069091E6069430C9F16C
:100C700028F4923069F09330D1F05EC0953009F4D9
:100C800051C0963009F058C091E09093B70751C019
:100C9000811152C02091EB063091EC0624363105CB
:100CA00008F442C01092B7071092EA061CC08130C7
:100CB00009F042C0E091EA0691E09E0F9093EA06A7
:100CC000F0E02091EB063091EC06EE0FFF1FEA51A9
:100CD000F94F308727831092EC061092EB0694E0D0
:100CE00029C0811117C0E091EA0691E09E0F909310
:100CF000EA06F0E02091EB063091EC06EE0FFF1FC4
:100D0000EA51F94F308727831092EC061092EB06D8
:100D100093E010C02091EB063091EC0625363105AA
:100D200058F007C0811108C01092EC061092EB0633
:100D300003C095E09093E6069091E9069923B9F0F7
:100D400081110AC08091E806882321F08091E8068D
:100D500061E009C02F9A0BC08091E806882331F02A
:100D60008091E80660E00E94DB0C01C02F98FF91A3
:100D7000EF91BF91AF919F918F917F916F915F9113
:100D80004F913F912F910F900BBE0F900FBE0F9080
:100D90001F9018958F929F92AF92BF92CF92DF9241
:100DA000EF92FF920F931F93CF93DF93EC016A01B1
:100DB0007B0120E030E04FE753E4C701B6010E9419
:100DC000BB1A4B015C0120E030E0A9010E94001D2C
:100DD00018161CF4C501B40103C0C501B401905834
:100DE0000E94CA1C8B0120E030E0A901C701B601B6
:100DF0000E94001D181614F460E001C061E08981B2
:100E00000E94DB0C0F3F110509F01CF4B801772795
:100E100002C06FEF70E08881DF91CF911F910F9139
:100E2000FF90EF90DF90CF90BF90AF909F908F900A
:100E30000C94460D8EBD00000DB407FEFDCF8EB59F
:100E400008951F93CF93DF93EC01162F88818C3088
:100E500008F04DC061E0812F0E940A0DE88195E005
:100E60009E9FF0011124E854F84F1F738081807C0D
:100E7000182B10831382E8819E9FF0011124E854FF
:100E8000F84F148288816CE00E94D71B9CE0899FF8
:100E9000A001112420E030E095E0BA01620F731F39
:100EA000969FF001979FF00D1124E854F84F608150
:100EB00066FD13C02F5F3F4F2C30310571F7811154
:100EC0000CC01092800082E0809381001092850017
:100ED0001092840086BB80936F00E88185E0E89FD4
:100EE000F0011124E854F84F808180648083888168
:100EF000DF91CF911F9108951F920F920FB60F921D
:100F000011240BB60F922F933F934F935F936F93E0
:100F10007F938F939F93AF93BF93EF93FF938091B2
:100F2000BA0487FF05C0109285001092840016C095
:100F30002091BA04022E000C330B8091F40790E04C
:100F4000281739075CF43091BA0425E03203F00128
:100F50001124E854F84F808186FD15C08091BA04B1
:100F60008F5F8093BA042091BA04022E000C330BD9
:100F70008091F40790E02817390794F48091BA041F
:100F80008C302CF10DC03091BA043203F0011124E1
:100F9000E854F84F808160E08F730E94DB0CDECF55
:100FA000809184009091850084349C4918F480E4F9
:100FB0009CE905C0809184009091850004969093EF
:100FC0008900809388008FEF8093BA042AC04091F3
:100FD0008400509185003091BA0425E03203F0017D
:100FE0001124E854F84F81819281840F951F9093CA
:100FF0008900809388003091BA043203F0011124F3
:10100000E854F84F808186FF0CC03091BA04320357
:10101000F0011124E854F84F808161E08F730E9441
:10102000DB0CFF91EF91BF91AF919F918F917F91D9
:101030006F915F914F913F912F910F900BBE0F9049
:101040000FBE0F901F9018951F920F920FB60F9220
:1010500011240BB60F922F933F934F935F936F938F
:101060007F938F939F93AF93BF93EF93FF93809161
:10107000B900887F803609F49CC068F5883209F48D
:101080005BC090F4803109F454C038F4882309F42B
:10109000F6C0883009F44DC0F6C0883109F44CC060
:1010A000803209F45DC0EFC0803409F468C048F4B0
:1010B000803309F455C0883309F0E5C08093EA0411
:1010C000D8C0803509F44FC0883509F45DC0883434
:1010D00009F0D9C0D6C0883909F4C7C0A8F4883748
:1010E00009F467C038F4883609F463C0803709F41E
:1010F00060C0C9C0883809F4B8C0803909F45FC03D
:10110000803809F0C0C05BC0803B09F486C038F469
:10111000803A09F466C0883A09F47FC0B4C0803CC4
:1011200009F4A7C0883C09F4A4C0883B09F48AC02C
:10113000AAC08091E70410C09091E9048091E8046E
:10114000981770F5E091E90481E08E0F8093E9042F
:10115000F0E0EA53FB4F80818093BB0085EC86C0B2
:101160008093EA048EC0E091E90481E08E0F8093C1
:10117000E9048091BB00F0E0EA53FB4F808390913B
:10118000E9048091E8046EC0E091E90481E08E0FEB
:101190008093E9048091BB00F0E0EA53FB4F808329
:1011A0008091EB0481116DC081E08093E60484EAB4
:1011B00061C083E08093EC041092B904CFCF80919A
:1011C000B904803208F051C0E091B90481E08E0F7B
:1011D0008093B9048091BB00F0E0E756FB4F808319
:1011E000BDCF85EC8093BC001092EC048091B904D3
:1011F000803230F4E091B904F0E0E756FB4F108202
:101200006091B90470E0E0919704F091980489E945
:1012100094E019951092B90436C084E08093EC04F0
:101220001092960410929504E0919304F091940426
:10123000199580919504811105C081E080939504F2
:1012400010927304E091960481E08E0F80939604CF
:10125000F0E0ED58FB4F80818093BB0090919604A5
:1012600080919504981708F479CF85E88093BC00A5
:101270000AC085EC8093BC001092EC0404C010926C
:10128000EA040E942C03FF91EF91BF91AF919F91CF
:101290008F917F916F915F914F913F912F910F901F
:1012A0000BBE0F900FBE0F901F90189530917104D8
:1012B000313208F04BC08091EC048111FCCF909149
:1012C0004F0422E02093EC0421E02093EB042FEF65
:1012D0002093EA041092E9043093E804E0E5F4E096
:1012E000A6ECB4E020E0321721F041914D932F5F3E
:1012F000FACF1092E7042091E704990F922B909374
:10130000E7049091E604913061F41092E604909124
:10131000E7049093BB009091BC0093FDF8CF95EC4F
:1013200001C095EE9093BC009091EC049230E1F3F3
:101330009091EA049F3F79F08091EA04803241F075
:101340008091EA04803331F084E005C081E003C07D
:1013500082E001C083E01092720410927104109236
:101360007004089581E08093700460934F0410929C
:1013700072041092710408951092EE041092ED041C
:1013800010927204109271041092EC0481E0809328
:10139000EB041092E60461E084E10E94DB0C61E062
:1013A00085E10E94DB0CE9EBF0E080818E7F808399
:1013B00080818D7F808388E48093B80085E480936A
:1013C000BC008EE593E090939404809393048FE5A2
:1013D00093E090939804809397040895CF93DF93BC
:1013E000EC0165E083E398E00E94B209CE010E941F
:1013F000280F83E398E00E945609C82F6BED73E035
:1014000089E496E00E949A0F8C2F90E0DF91CF91B3
:101410000C94E00A90E0FC013197E231F10508F00C
:101420004EC08827EE58FF4F8F4F0C94E31B8091DE
:1014300080008F7703C0809180008F7D8093800033
:10144000089580918000877FF9CF84B58F7702C09F
:1014500084B58F7D84BD08958091B0008F7703C0DF
:101460008091B0008F7D8093B000089580919000AE
:101470008F7707C0809190008F7D03C0809190008E
:10148000877F8093900008958091A0008F7707C098
:101490008091A0008F7D03C08091A000877F809302
:1014A000A0000895809120018F7707C080912001CE
:1014B0008F7D03C080912001877F80932001089554
:1014C000CF93DF93C82FD42F69E283E398E00E9483
:1014D000B2098C2F806890E00E94280F6D2F83E363
:1014E00098E00E94B90383E398E0DF91CF910C94D8
:1014F00056092FB7F8948091C0049091C104A0912F
:10150000C204B091C3042FBF8093B4059093B50576
:10151000A093B605B093B7058CEA95E00E941F0230
:1015200097FF26C02FB7F8948091C0049091C10412
:10153000A091C204B091C3042FBF4091B405509153
:10154000B5056091B6057091B705841B950BA60B88
:10155000B70B4091B0055091B1056091B205709103
:10156000B30584179507A607B707B0F28FEF9FEF73
:101570000895CF93DF93C82F69E283E398E00E9438
:10158000B2098C2F806890E00E94280F83E398E0D6
:101590000E94560982E090E00E94B01083E398E038
:1015A0000E947003EC0183E398E00E94700320E046
:1015B00030E0382FCE01822B932BDF91CF9108950D
:1015C000CF92DF92EF92FF92CF93DF936C01990F4E
:1015D000EE08FF08F7FE15C06DE289E496E00E9470
:1015E0008D02EC0144275527BA014C195D096E099B
:1015F0007F092AE089E496E00E94510FC80FD91FA5
:1016000008C02AE0B701A60189E496E00E94510FC4
:10161000EC0160EF73E089E496E00E942D0F8C0FDF
:101620009D1FDF91CF91FF90EF90DF90CF900895B5
:10163000CF92DF92EF92FF92CF93DF93823018F038
:1016400063EF73E00AC090912708691720F090912A
:101650002808961760F465E074E089E496E0DF916D
:10166000CF91FF90EF90DF90CF900C943D0FE82F3B
:10167000F0E0E35EF74FC089CC3008F072C0262F4F
:1016800030E0D0E085E08C9FF0018D9FF00D1124BB
:10169000E854F84F8381283C31059CF528E830E078
:1016A0006901C81AD10887FDD394CC0CDD1CCC0C81
:1016B000DD1C0D2C000CEE08FF08848128E532E0CB
:1016C000281B310987FD3395220F331F220F331F4B
:1016D000C901330FAA0BBB0B9C01AD012C193D09AD
:1016E0004E095F09A62FB0E00E949B1B24EB30E05F
:1016F00040E050E00E947C1BC20ED31EE41EF51E8B
:101700001EC048E850E06A01C81AD10887FDD3948A
:10171000CC0CDD1CCC0CDD1C2C153D0584F044816B
:1017200088E592E0841B910947FD9395880F991FE6
:10173000880F991F69018C159D050CF46C018FB7FA
:10174000F89495E09C9FF0019D9FF00D1124E854C2
:10175000F84F96E0C91AD108CC0CDD1CD282C182A8
:101760008FBFDF91CF91FF90EF90DF90CF900895E2
:10177000FF920F931F93CF93DF93F82E162F072F0F
:10178000CCEFD7E06C858A859B850E94B2098A855B
:101790009B85DC01ED91FC910190F081E02D6F2D96
:1017A00019958A859B85DC01ED91FC910190F08172
:1017B000E02D602F19958A859B85DC01ED91FC91C8
:1017C0000190F081E02D612F19958A859B85DF912D
:1017D000CF911F910F91FF900C9456090F931F9377
:1017E000CF93DF93EC018B010E944C042881398157
:1017F00081110DC02115310519F0C9010E94A21DEA
:10180000198218821D821C821B821A8207C01D83C6
:101810000C8362EF73E0C9010E94271FCE01DF91A4
:10182000CF911F910F910895CF92DF92EF92FF9287
:101830000F931F93CF93DF931F921F92CDB7DEB705
:101840008C01C62EFC011182108213821282158235
:10185000148260E070E00E94EE0B0E94790A0C2C6A
:10186000000CDD0897FD23C08C159D0501F18983CF
:101870001A82F801E480F580FFEFEF1AFF0AB70142
:10188000C8010E944C04882379F0F801208131813D
:1018900084819581BE016F5F7F4F820F931F0E94ED
:1018A000271FF801F582E4820E94790ADBCFC80184
:1018B0000F900F90DF91CF911F910F91FF90EF90BC
:1018C000DF90CF9008951F93CF93DF93EC01162FF5
:1018D0006C8183E398E00E94B2096C85812F862B8E
:1018E00090E00E94280F83E398E0DF91CF911F9151
:1018F0000C9456090F931F93CF938C01C62F6460ED
:101900000E94630C6C2F6B7FC8010E94630C83ECF8
:1019100090E00197F1F7CF911F910F910895FC018D
:10192000A089B1898C91A689B78982FD0FC09C914D
:10193000818D8F5F8F73228D821749F0218DDF019A
:10194000A20FB11D5D969C93818F08958C9108958F
:101950001F920F920FB60F9211240F900FBE0F908F
:101960001F901895CF93DF93282F30E0F901E65EA2
:10197000FC4F8491F901EC52FD4FD491F901E257EB
:10198000FD4FC491CC2391F081110E940A0AEC2FE3
:10199000F0E0EE0FFF1FEC58FD4FA591B491EC91D4
:1019A000ED2381E090E021F480E002C080E090E04F
:1019B000DF91CF9108951F93CF93DF93282F30E0CD
:1019C000F901E65EFC4F8491F901EC52FD4FD49190
:1019D000F901E257FD4FC491CC23C1F0162F8111BC
:1019E0000E940A0AEC2FF0E0EE0FFF1FE65AFD4FAF
:1019F000A591B4919FB7F894111104C08C91D09522
:101A0000D82302C0EC91DE2BDC939FBFDF91CF91F6
:101A10001F910895CF93DF9390E0FC01EC52FD4FAE
:101A20002491FC01E257FD4F8491882361F190E0FD
:101A3000880F991FFC01E05CFD4FC591D491FC011A
:101A4000E65AFD4FA591B491611109C09FB7F89472
:101A50008881209582238883EC912E230BC06230ED
:101A600061F49FB7F8948881322F3095832388835F
:101A7000EC912E2B2C939FBF06C08FB7F894E88172
:101A80002E2B28838FBFDF91CF9108951F93CF9383
:101A9000DF93182FEB0161E00E940A0D209711F4EB
:101AA00060E004C0CF3FD10539F461E0812FDF91C0
:101AB000CF911F910C94DB0CE12FF0E0E65EFC4F20
:101AC000E4918E2F90E0FC013197E231F10508F0AE
:101AD0009DC08827EC57FF4F8F4F0C94E31B84B5B4
:101AE000806884BDC7BD97C084B5806284BDC8BD11
:101AF00092C080918000806880938000D09389009C
:101B0000C093880088C080918000806280938000AC
:101B1000D0938B00C0938A007EC080918000886043
:101B200080938000D0938D00C0938C0074C080910E
:101B3000B00080688093B000C093B3006CC0809107
:101B4000B00080628093B000C093B40064C0809104
:101B50009000806880939000D0939900C093980083
:101B60005AC080919000806280939000D0939B0037
:101B7000C0939A0050C0809190008860809390003C
:101B8000D0939D00C0939C0046C08091A0008068C7
:101B90008093A0008091A0008F7B8093A000D093C1
:101BA000A900C093A80037C08091A00080628093F4
:101BB000A000D093AB00C093AA002DC08091A000DC
:101BC00088608093A000D093AD00C093AC0023C088
:101BD00080912001806880932001D0932901C093D7
:101BE000280119C080912001806280932001D09348
:101BF0002B01C0932A010FC080912001886080933F
:101C00002001D0932D01C0932C0105C0C038D1050F
:101C10000CF04BCF45CFDF91CF911F9108958633C4
:101C200008F0865390917B00282F2870977F922B85
:101C300090937B008770806480937C0080917A0011
:101C4000806480937A0080917A0086FDFCCF809139
:101C500078002091790090E0922B08958F929F92C6
:101C6000AF92BF92CF92DF92EF92FF926B017C0115
:101C70000E94F9104B015C01C114D104E104F1048C
:101C8000F1F00E94F910DC01CB0188199909AA0929
:101C9000BB09883E9340A105B10570F321E0C21A4B
:101CA000D108E108F10888EE880E83E0981EA11C97
:101CB000B11CC114D104E104F10419F7DDCFFF9088
:101CC000EF90DF90CF90BF90AF909F908F9008954E
:101CD000CF93DF9383E398E00E94BC0969E283E33A
:101CE00098E00E94B20982E990E00E94280F83E305
:101CF00098E00E94560981E090E00E94B01083E3D2
:101D000098E00E947003843411F08031D1F581E0B5
:101D100080933F08C0914208D0914308AE0160E033
:101D200070E00E94600AD0934308C0934208C091BB
:101D30004008D091410880913F08811102C00E9463
:101D4000680EAE0160E070E08FE00E94600AD09300
:101D50004108C093400841E050E060E070E080E05E
:101D60000E94600A63E070E080E090E00E942E0E26
:101D700043E050E060E070E080E00E94600A81E0B3
:101D800001C080E0DF91CF910895CF92DF92EF9272
:101D9000FF92CF93DF93EC016A017B01E889F98917
:101DA00082E080834115514E61057105B1F060E01C
:101DB00079E08DE390E0A70196010E94A61BDA016D
:101DC000C9010197A109B109B695A795979587957E
:101DD0009C01211580E13807A8F0E889F989108273
:101DE00060E874E88EE190E0A70196010E94A61BCE
:101DF000DA01C9010197A109B109B695A79597958F
:101E000087959C01EC85FD853083EE85FF852083D9
:101E1000188EEC89FD8986E08083EA89FB898081C0
:101E200080618083EA89FB89808188608083EA8978
:101E3000FB89808180688083EA89FB8980818F7D2E
:101E40008083DF91CF91FF90EF90DF90CF90089546
:101E5000682F83E398E00C94B9036115710551F084
:101E6000FB0101900020E9F73197AF01461B570BAA
:101E70000C94E60180E090E008950F931F93CF93B8
:101E8000DF93EC010E942D0F8C0160EF73E0CE0117
:101E90000E942D0F800F911FDF91CF911F910F9105
:101EA00008958F929F92AF92BF92EF92FF920F93FD
:101EB0001F93CF93DF93CDB7DEB7A1970FB6F894FA
:101EC000DEBF0FBECDBF7C01FA01CB0119A22230CB
:101ED00008F42AE08E010F5D1F4F822E912CA12C59
:101EE000B12CBF01A50194010E94A61BF901CA01F2
:101EF000015011096A3014F4605D01C0695CD801B9
:101F00006C93232B242B252B61F7B801C7010E946A
:101F10002D0FA1960FB6F894DEBF0FBECDBFDF9197
:101F2000CF911F910F91FF90EF90BF90AF909F9036
:101F30008F9008950C942D0F62E274E089E496E08E
:101F40000E949A0F80911D080E940F0EAC0160E064
:101F500070E02AE089E496E00E94510F60EF73E0A0
:101F600089E496E00E942D0F80911D080E940F0EBB
:101F700021E08C32914008F420E0822F08957F9276
:101F80008F929F92AF92BF92CF92DF92EF92FF9289
:101F90000F931F93CF93DF938C016A017B01722E05
:101FA0009A01AB01C701B6010E94051D882319F0F3
:101FB00067E274E027C046015701E894B7F82FEFB5
:101FC0003FEF4FE75FE7C501B4010E94051D811196
:101FD0000DC02FEF3FEF4FE75FE7C501B4010E944F
:101FE000551A18161CF46BE274E00CC02FEF3FEF8B
:101FF0004FE75FE4C701B6010E94001D181694F474
:102000006FE274E0C801DF91CF911F910F91FF90B3
:10201000EF90DF90CF90BF90AF909F908F907F9088
:102020000C942D0F2FEF3FEF4FE75FECC701B60188
:102030000E94551A87FDE4CF20E030E0A901C701D6
:10204000B6010E94551A87FF0AC06DE2C8010E94BE
:102050008D02EC01F7FAF094F7F8F09402C0C0E0BA
:10206000D0E0B12C60E070E080E09FE37B1441F0B1
:1020700020E030E040E251E40E94581CB394F6CFD7
:10208000A70196010E94EC1B6B017C010E94D11CF0
:102090004B015C012AE0AB01BC01C8010E94510F59
:1020A000C80FD91F7720C1F1C501B4010E945A1A87
:1020B0009B01AC01C701B6010E94EB1B6B017C01C7
:1020C0006EE2C8010E948D02C80FD91F20E030E0E7
:1020D00040E251E4C701B6010E94BB1A4B015C010A
:1020E0000E94D11C6B01E12CF12C2AE0B701A60162
:1020F000C8010E94510FC80FD91FC701B6010E9425
:102100005A1A9B01AC01C501B4010E94EB1B6B0183
:102110007C017A947110DACFCE01DF91CF911F91BB
:102120000F91FF90EF90DF90CF90BF90AF909F9076
:102130008F907F9008950F931F93CF93DF93EC01BF
:1021400022E00E94BF0F8C0160EF73E0CE010E947D
:102150002D0F800F911FDF91CF911F910F91089547
:102160009091EC049111FCCF982F813208F090E20D
:1021700081E08093EC048093EB042FEF2093EA043A
:102180001092E904290F2093E8048093E7048091DA
:10219000E70482658093E7048091E604813061F46E
:1021A0001092E6048091E7048093BB008091BC000C
:1021B00083FDF8CF85EC01C085EE8093BC00809153
:1021C000EC048130E1F38091E904891710F49091D7
:1021D000E904E6ECF4E0AFEEB4E080E0891721F02A
:1021E00021912D938F5FFACF1092EE048093ED042E
:1021F00008953FB7F8948091070990910809A0913C
:102200000909B0910A0926B5A89B05C02F3F19F00E
:102210000196A11DB11D3FBFBA2FA92F982F882766
:10222000820F911DA11DB11DBC01CD0142E0660FC1
:10223000771F881F991F4A95D1F708951F920F9213
:102240000FB60F9211242F933F938F939F93AF93C9
:10225000BF938091C0049091C104A091C204B09139
:10226000C3043091060923E0230F2D3720F4019693
:10227000A11DB11D05C026E8230F0296A11DB11DA9
:10228000209306098093C0049093C104A093C204D4
:10229000B093C3048091070990910809A09109099E
:1022A000B0910A090196A11DB11D80930709909371
:1022B0000809A0930909B0930A09BF91AF919F91B2
:1022C0008F913F912F910F900FBE0F901F901895F7
:1022D000CF93DF93CDB7DEB762970FB6F894DEBF2A
:1022E0000FBECDBF789484B5826084BD84B5816013
:1022F00084BD85B5826085BD85B5816085BD8091D1
:102300006E00816080936E00109281008091810048
:102310008260809381008091810081608093810040
:10232000809180008160809380008091B100846002
:102330008093B1008091B00081608093B000809163
:1023400091008260809391008091910081608093E0
:102350009100809190008160809390008091A10015
:1023600082608093A1008091A10081608093A10090
:102370008091A00081608093A00080912101826003
:1023800080932101809121018160809321018091BE
:10239000200181608093200180917A008460809385
:1023A0007A0080917A00826080937A0080917A002E
:1023B000816080937A0080917A00806880937A00AF
:1023C0001092C10040E855E260E070E089E496E0D8
:1023D0000E94C50E61E08091FD070E940A0D60E039
:1023E0008091FD070E94DB0C60E08091FC070E9459
:1023F0000A0D83E398E090930708809306080E94F3
:10240000BC0980E090E1A0E0B0E0809309089093DF
:102410000A08A0930B08B0930C088AE090E0A0E0B3
:10242000B0E080930D0890930E08A0930F08B0932E
:10243000100880E090E0A0E0B0E480931108909351
:102440001208A0931308B093140860E070E185E0CF
:102450000E94B80B6FE979E380E00E94B80B0CEFA3
:1024600017E0780142E0542E53EC652E52E0752EB1
:1024700069E0862E63E0962E7BECC72E77E0D72EA0
:10248000EBE8AE2EBB24B394F70194818281F8016E
:10249000818F928F61E00E940A0D61E0F801828DC8
:1024A0000E940A0DF70190858681F801858F968F2D
:1024B00061E00E940A0D60E0F801868D0E940A0D1D
:1024C00061E0F801858D0E94DB0C4FB6F894809195
:1024D0003404811126C0F3018491F4012491E82F82
:1024E000F0E0EE0FFF1FE05CFD4FA591B4919C91D1
:1024F000822F892321F461E085E30E94DB0C61E0F7
:1025000085E30E940A0D8CB580618CBD8CB580641A
:102510008CBD61E084E30E940A0D61E083E30E94C8
:102520000A0D809134048F5F809334044FBEC6013E
:102530000197F1F760E0F801858D0E94DB0C88E8D7
:102540000E941A0783E00E941A0761E0F801858D56
:102550000E94DB0CC6010197F1F760E0F801858D60
:102560000E94DB0C88E90E941A0780E00E941A078B
:1025700080E00E941A0780E00E941A0780E00E9413
:102580001A0761E0F801858D0E94DB0CC5010197F7
:10259000F1F760E0F801858D0E94DB0C80EE0E946F
:1025A0001A0761E0F801858D0E94DB0C5A94FFEF59
:1025B000EF1AFF0A0E5F1F4F511066CF21E2E22E85
:1025C00028E0F22E05E218E060E0F70181917F013A
:1025D0000E940A0D0E151F05B9F79DE1E92E98E03E
:1025E000F92E6801FFEFCF1ADF0AF801608170E071
:1025F000C80108960E942107F60195818381F701A1
:10260000828B938B60E00E940A0D61E0F701838961
:102610000E940A0D60E0F70183890E94DB0CF2E062
:10262000EF0EF11C860128E007321207D1F6F8946C
:102630001092200189E08093210180E293E0909341
:10264000290180932801109225011092240182E033
:102650008093730078948093E6061092EA06809146
:10266000E70660E00E940A0D40E855E260E070E095
:1026700089E496E00E94C50E6091250870E08DE225
:1026800098E00E94210760E080E00E94180B61E062
:1026900082E00E940A0D60E086E30E940A0D60E07D
:1026A00087E30E940A0D0E94680E882319F06FE3E9
:1026B00072E002C06CE472E089E496E00E943D0F93
:1026C00040E056E960E070E08CEA95E00E94C50EBB
:1026D00083E398E00E94BC0982E090E00E94EE094A
:1026E00022242394312C69E772E089E496E00E9469
:1026F0003D0F8091350481110DC0809121080E9409
:10270000B20C892B39F489E496E00E944102892BAE
:1027100009F477C389E496E00E944102892B29F0ED
:1027200089E496E00E941F02F5CF31E03093350432
:102730008FB7F8942091C0043091C1044091C20435
:102740005091C3042D873E874F87588B8FBF2FB77B
:10275000F8948091C0049091C104A091C204B091FA
:10276000C3042FBF2D853E854F855889821B930B4F
:10277000A40BB50B88389341A105B10508F03EC301
:1027800065E872E089E496E00E943D0F0E949C0F8C
:102790008823A1F169E872E089E496E00E943D0F88
:1027A00040E050E0BA0185E198E00E94CA0640E0AE
:1027B00050E060E070E887E198E00E94CA0687E098
:1027C00090E00E94EE0968E780E00E94180B60ED3F
:1027D00077E080E090E00E942E0E60E080E00E94B2
:1027E000180B68EE73E080E090E00E942E0E0E94CD
:1027F0009C0F41E08427082F10E002C00FEF1FEF6D
:102800006DE872E089E496E00E949A0FC8010E9488
:10281000E00A0F3F5FEF150769F00130110519F469
:1028200060EA72E002C065EB72E089E496E00E9423
:102830003D0FDDC263ED72E089E496E00E943D0F3A
:102840006CE370E080E090E00E942E0E69E283E38A
:1028500098E00E94B20983E398E00E945609082F8D
:1028600010E00115110541F067ED72E089E496E092
:102870000E949A0FC80133C060EF72E089E496E0CD
:102880000E949A0F84E10E94B90A7C016AE472E016
:1028900089E496E00E949A0F86E10E94B90A6C01D1
:1028A00061E273E089E496E00E949A0F88E10E9459
:1028B000B90A8C0169E283E398E00E94B20983E3DC
:1028C00098E00E945609A82EB12CA114B10451F031
:1028D00067ED72E089E496E00E949A0FC5010E94BC
:1028E000E00A7DC062EF72E089E496E00E943D0F4D
:1028F0008AE10E94B90A9A8B898B64EF72E089E4BD
:1029000096E00E943D0FB60180E090E00E945A1AC6
:102910004B015C01B70180E090E00E945A1A6B0104
:102920007C019B01AC01C501B4010E94581C2B0124
:102930003C01B80180E090E00E945A1AA70196017C
:102940000E94581C4B015C01E989FA89BF0180E0B3
:1029500090E00E945A1AA70196010E94581C6B0130
:102960007C0168EF72E089E496E00E949A0F20E013
:1029700030E040E853E4C301B2010E94BB1AAB014E
:10298000BC0122E089E496E00E94BF0F62E073E0A0
:1029900089E496E00E949A0F20E030E040E853E49A
:1029A000C501B4010E94BB1AAB01BC0122E089E45D
:1029B00096E00E94BF0F67E073E089E496E00E9412
:1029C0009A0F20E030E040E853E4C701B6010E94CE
:1029D000BB1AAB01BC0189E496E00E949B106CE03D
:1029E00073E089E496E00E943D0F912C60E173E072
:1029F0008CEA95E00E943D0F68EE73E080E090E085
:102A00000E942E0E8CEA95E00E944102892B09F467
:102A100073C163E273E089E496E00E943D0F6BE3CB
:102A2000CE0107960E94140CCF80D884C114D10423
:102A3000E9F10B851C8501151105C1F176015701DE
:102A4000FFEFAF1ABF0AF7018081082E000C990B27
:102A50000E94341A892B11F07501F1CF0150110930
:102A60000C0D1D1DF8018081082E000C990B0E9491
:102A7000341A892B31F00E151F0518F00150110979
:102A8000F1CFA8014F5F5F4F4E195F095C874B87FD
:102A9000CE14DF0420F4B701C6010E94151FEF8198
:102AA000F8858B859C85E80FF91F10828B859C85A6
:102AB000892B09F410C10F8118856EE373E0C801FA
:102AC0000E941E1F892B09F0E1C065E373E08CEAC8
:102AD00095E00E943D0F6BE3CE0101960E94140C1D
:102AE000BE016F5F7F4FCE0107960E94120489815D
:102AF0009A810E94A21D8F819885009729F00E94DB
:102B0000D4184B015C0103C0812C912C540161E469
:102B100073E08CEA95E00E949A0FB501A4018CEA5B
:102B200095E00E949B106AE0CE0101960E94140C71
:102B3000BE016F5F7F4FCE0107960E94120489810C
:102B40009A810E94A21D8F819885009729F00E948A
:102B5000D4187B018C0104C0E12CF12C00E010E0C2
:102B600069E473E08CEA95E00E949A0FA701B8012E
:102B70008CEA95E00E949B108CEA95E00E94DA02B4
:102B800061E573E089E496E00E943D0F20E030E0CB
:102B9000A901C501B4010E94551A87FF1DC0C501D6
:102BA000B4010E94CA1C9B0177FF04C0222733276F
:102BB000261B370BB101621B730B072E000C880B11
:102BC000990B0E945C1A9701A8010E94BB1A570139
:102BD00068017B018C011AC0C501B4010E94CA1CA6
:102BE0009B0177FF04C022273327261B370BB10137
:102BF000621B730B072E000C880B990B0E945C1A4A
:102C00009701A8010E94BB1A5B016C0169E573E0A2
:102C100089E496E00E949A0F22E0A701B80189E4B6
:102C200096E00E94BF0F67E673E089E496E00E9499
:102C30009A0F22E0A501B60189E496E00E94BF0F39
:102C40002DEC3CEC4CE45EE3B701C8010E94BB1ADA
:102C5000AB01BC0185E198E00E94CA062DEC3CEC7A
:102C60004CE45EE3B501C6010E94BB1AAB01BC0196
:102C7000705887E198E00E94CA0668EC70E080E036
:102C800090E00E942E0E9924939430C060E773E088
:102C9000C8010E941E1F892B29F485E090E00E9444
:102CA000EE0924C066E773E0C8010E941E1F892B4D
:102CB000E9F06BE773E0C8010E941E1F892B59F4ED
:102CC00083E090E00E94EE096AE873E089E496E010
:102CD0000E949A0F0BC062EA73E089E496E00E94BA
:102CE0003D0F8F8198850E94A21D06C08F81988517
:102CF0000E94A21D91107ACE86E30E940F0E8C01D5
:102D000087E30E940F0E6C0168EC70E080E090E0B9
:102D10000E942E0E86E30E940F0E7C0187E30E9424
:102D20000F0E0E191F09C81AD90A6AEA73E089E45E
:102D300096E00E943D0FC8010E94E00AC6010E9471
:102D4000E00A075E1F4F0333110540F4F9E1CF0E8F
:102D5000D11C23E3C216D10408F444C067EB73E02E
:102D600089E496E00E943D0F84E090E00E94EE0925
:102D70006FEF70E082E00E94460D68EE73E080E045
:102D800090E00E942E0E68EC70E082E00E94460DFA
:102D900064EF71E080E090E00E942E0E66E970E042
:102DA00082E00E94460D64EF71E080E090E00E94B6
:102DB0002E0E65E083E398E00E94B20981E090E086
:102DC0000E94280F83E398E00E945609182F61ECB7
:102DD00073E089E496E00E949A0F812F90E00E94B0
:102DE000E00A05C060E070E082E00E94460D6AE003
:102DF00070E080E090E00E942E0EA9CC0E94FF02BD
:102E000072CC62E370E080E090E00E942E0E71CC04
:102E10008091F5079091F6070C94A21D109212056F
:102E20001092110548EE53E060E070E04093130506
:102E300050931405609315057093160583E192E095
:102E40009093100580930F0525E331E030931C0526
:102E500020931B0524E331E030931E0520931D05CC
:102E600020E331E03093200520931F0521E331E07A
:102E7000309322052093210522E331E0309324058D
:102E80002093230526E331E0309326052093250582
:102E9000109228051092290510922A0510922B05F0
:102EA0001092AF051092AE054093B0055093B10556
:102EB0006093B2057093B3059093AD058093AC0514
:102EC00025ED30E03093B9052093B80524ED30E0CE
:102ED0003093BB052093BA0520ED30E03093BD055B
:102EE0002093BC0521ED30E03093BF052093BE0553
:102EF00022ED30E03093C1052093C00526ED30E08F
:102F00003093C3052093C2051092C5051092C605E3
:102F10001092C7051092C80510924C0610924B06ED
:102F200040934D0650934E0660934F0670935006A3
:102F300090934A068093490685EC90E0909356065C
:102F40008093550684EC90E0909358068093570642
:102F500080EC90E090935A068093590681EC90E0C3
:102F600090935C0680935B0682EC90E090935E0603
:102F700080935D0686EC90E09093600680935F06F8
:102F80001092620610926306109264061092650613
:102F90008091070290910802A0910902B0910A0263
:102FA00080931D0890931E08A0931F08B0932008DB
:102FB00080910B0290910C02A0910D02B0910E0233
:102FC0008093210890932208A0932308B0932408AB
:102FD00084E08093250887E08093260810922708D4
:102FE00084EB8093280886E18093290888E1809308
:102FF0002A0887E180932B0889E180932C08E091CF
:10300000F407EC3020F08FEF80932D0810C081E0A2
:103010008E0F8093F407E0932D0825E0E29FF001E6
:103020001124E854F84F88EB9BE092838183E09170
:10303000F407EC3020F08FEF80932E0810C081E071
:103040008E0F8093F407E0932E0885E0E89FF0014F
:103050001124E854F84F88EB9BE0928381838CE045
:103060008093FC0784E28093FD0786E08093FE074F
:1030700085E08093FF078FE1809300088EE18093C5
:10308000010883E28093020882E28093030885E4CA
:103090008093040884E48093050880E48093080802
:1030A00010920D0810920E0810920F08109210083E
:1030B000109211081092120810921308109214081E
:1030C000E8E4F8E08FEF9FEFDC01128213821482B4
:1030D0001582168217821086118683879487A587AA
:1030E000B6878787908BA18BB28B12861182108254
:1030F000739629E0E630F20741F78DE090E00E94F8
:103100000A1DFC011382128285E292E09183808382
:10311000118687E2848384E1828784E08387148632
:10312000F0934508E093440810924608109247082F
:1031300085E28093E7061092E9061092F607109256
:10314000F5071092F8071092F7071092FA071092FD
:10315000F90760E070E085EF97E00E94EE0B1092B7
:1031600036081092350888EE93E0A0E0B0E0809336
:10317000370890933808A0933908B0933A0881E350
:1031800092E0909334088093330810923F088BEEBE
:1031900090E0909343088093420881E090E0909300
:1031A0004108809340080895662777270C94D81823
:1031B0008F929F92AF92BF92CF92DF92EF92FF9247
:1031C0000F931F93CF93DF93EC016B016115710592
:1031D00019F0FB01918380837E01FFEFEF1AFF0A54
:1031E0000881802F90E00E94341A892B11F0E701AA
:1031F000F3CF0D3239F47E0182E0E80EF11C098133
:1032000011E008C00B3229F47E0192E0E90EF11CB6
:10321000098110E0E701219743E050E06CE072E0A3
:10322000CE010E943D1A892BC1F4239645E050E05F
:1032300067E072E0CE010E943D1A892B09F42596C1
:10324000C114D10419F0F601D183C0831111F6C065
:1032500060E070E080E89FE7FAC043E050E064E09F
:1032600072E0CE010E943D1A892B59F4C114D10499
:1032700009F4E9C0F2E0EF0EF11CF601F182E08200
:10328000E2C020E030E0A901C0E0D0E0F70160ED4D
:10329000A62EA00E89E08A1530F1912F9260B92EEA
:1032A000812F887012FF04C0811124C0219622C092
:1032B00081112197A5E0B0E00E949B1BDC01CB01AE
:1032C000880F991FAA1FBB1F9C01AD012A0D311D3C
:1032D000411D511D283989E93807480789E15807F8
:1032E00048F0166006C09EEFA9120AC013FD40C048
:1032F0001860B12E8FEFE81AF80A00811B2DC6CF97
:10330000802F8F7D8534A1F580818D3211F410617D
:1033100006C08B3221F0319661E070E004C08181FB
:10332000329662E070E080538A3018F0E61BF70BAB
:103330001FC060E070E060389CE079075CF4DB015E
:10334000AA0FBB1FAA0FBB1F6A0F7B1F660F771F39
:10335000680F711D3196DF0111978C9180538A306F
:1033600050F314FF03C0719561957109C60FD71F03
:1033700011FF08C0C114D10429F0CF010197F60153
:1033800091838083CA01B9010E945A1A212F2370A8
:10339000233019F04B015C0106C04B015C01B7FA08
:1033A000B094B7F8B09420E030E0A901C501B401B1
:1033B0000E94551A882309F43EC0D7FF06C0D19554
:1033C000C195D10903E212E002C00BE312E06801EB
:1033D000F8E1CF1AD10890E2E92EF12CCE15DF05E5
:1033E00074F0F8012591359145915491C501B401CE
:1033F0000E94BB1A4B015C01CE19DF09EFCF0450CC
:103400001109F594E7940C151D0541F78A2D880FD5
:103410008B2D881F8F3F49F020E030E0A901C501C6
:10342000B4010E94551A811106C082E290E0909387
:103430000C0980930B09C501B40109C060E070E07C
:1034400080E89FEF04C060E070E080EC9FE7DF91D0
:10345000CF911F910F91FF90EF90DF90CF90BF9091
:10346000AF909F908F90089591110C94281B8032FB
:1034700019F089508550C8F70895FB01DC014150CF
:10348000504088F08D9181341CF08B350CF4805EB7
:10349000659161341CF06B350CF4605E861B611124
:1034A00071F3990B0895881BFCCF0E94971A08F4BA
:1034B00081E00895E89409C097FB3EF490958095CB
:1034C000709561957F4F8F4F9F4F9923A9F0F92FEA
:1034D00096E9BB279395F695879577956795B79568
:1034E000F111F8CFFAF4BB0F11F460FF1BC06F5F4E
:1034F0007F4F8F4F9F4F16C0882311F096E911C060
:10350000772321F09EE8872F762F05C0662371F080
:1035100096E8862F70E060E02AF09A95660F771F94
:10352000881FDAF7880F9695879597F90895990F70
:103530000008550FAA0BE0E8FEEF16161706E8077D
:10354000F907C0F012161306E407F50798F0621B9E
:10355000730B840B950B39F40A2661F0232B242B73
:10356000252B21F408950A2609F4A140A6958FEF92
:10357000811D811D08950E94CE1A0C94421B0E9449
:10358000341B38F00E943B1B20F0952311F00C9463
:103590002B1B0C94311B11240C94761B0E94531B83
:1035A00070F3959FC1F3950F50E0551F629FF00196
:1035B000729FBB27F00DB11D639FAA27F00DB11DAF
:1035C000AA1F649F6627B00DA11D661F829F222738
:1035D000B00DA11D621F739FB00DA11D621F839FBF
:1035E000A00D611D221F749F3327A00D611D231F95
:1035F000849F600D211D822F762F6A2F11249F57E3
:1036000050409AF0F1F088234AF0EE0FFF1FBB1FE5
:10361000661F771F881F91505040A9F79E3F5105A4
:1036200080F00C942B1B0C94761B5F3FE4F3983EC8
:10363000D4F3869577956795B795F795E7959F5F4E
:10364000C1F7FE2B880F911D9695879597F90895E0
:1036500099278827089597F99F6780E870E060E0D0
:1036600008959FEF80EC089500240A94161617061B
:1036700018060906089500240A9412161306140663
:1036800005060895092E0394000C11F4882352F0C6
:10369000BB0F40F4BF2B11F460FF04C06F5F7F4F7E
:1036A0008F4F9F4F089557FD9058440F551F59F065
:1036B0005F3F71F04795880F97FB991F61F09F3F1F
:1036C00079F087950895121613061406551FF2CF48
:1036D0004695F1DF08C0161617061806991FF1CF98
:1036E00086957105610508940895E894BB276627BF
:1036F0007727CB0197F90895052E97FB1EF40094C8
:103700000E94931B57FD07D00E94A61B07FC03D005
:103710004EF40C94931B50954095309521953F4F56
:103720004F4F5F4F089590958095709561957F4FAD
:103730008F4F9F4F08950E94C81BA59F900DB49F67
:10374000900DA49F800D911D11240895A1E21A2EC1
:10375000AA1BBB1BFD010DC0AA1FBB1FEE1FFF1F35
:10376000A217B307E407F50720F0A21BB30BE40B85
:10377000F50B661F771F881F991F1A9469F76095CC
:103780007095809590959B01AC01BD01CF01089586
:10379000A29FB001B39FC001A39F700D811D112492
:1037A000911DB29F700D811D1124911D0895991BCB
:1037B00079E004C0991F961708F0961B881F7A9528
:1037C000C9F780950895EE0FFF1F881F8BBF0790E4
:1037D000F691E02D19945058BB27AA270E94031C8C
:1037E0000C94421B0E94341B38F00E943B1B20F0BB
:1037F00039F49F3F19F426F40C94311B0EF4E09534
:10380000E7FB0C942B1BE92F0E94531B58F3BA17AC
:10381000620773078407950720F079F4A6F50C94E6
:10382000751B0EF4E0950B2EBA2FA02D0B01B901DC
:1038300090010C01CA01A0011124FF27591B99F026
:10384000593F50F4503E68F11A16F040A22F232F32
:10385000342F4427585FF3CF469537952795A79582
:10386000F0405395C9F77EF41F16BA0B620B730B29
:10387000840BBAF09150A1F0FF0FBB1F661F771F9A
:10388000881FC2F70EC0BA0F621F731F841F48F44F
:10389000879577956795B795F7959E3F08F0B0CFD8
:1038A0009395880F08F09927EE0F979587950895BF
:1038B0000E946C1C0C94421B0E943B1B58F00E94FF
:1038C000341B40F029F45F3F29F00C942B1B51115D
:1038D0000C94761B0C94311B0E94531B68F39923A4
:1038E000B1F3552391F3951B550BBB27AA276217FC
:1038F0007307840738F09F5F5F4F220F331F441F09
:10390000AA1FA9F335D00E2E3AF0E0E832D091503C
:103910005040E695001CCAF72BD0FE2F29D0660F29
:10392000771F881FBB1F261737074807AB07B0E86C
:1039300009F0BB0B802DBF01FF2793585F4F3AF072
:103940009E3F510578F00C942B1B0C94761B5F3F27
:10395000E4F3983ED4F3869577956795B795F795F8
:103960009F5FC9F7880F911D9695879597F90895E0
:10397000E1E0660F771F881FBB1F6217730784077C
:10398000BA0720F0621B730B840BBA0BEE1F88F78B
:10399000E09508950E94D11C6894B1110C94761B97
:1039A00008950E945B1B88F09F5798F0B92F9927C4
:1039B000B751B0F0E1F0660F771F881F991F1AF01A
:1039C000BA95C9F714C0B13091F00E94751BB1E0EF
:1039D00008950C94751B672F782F8827B85F39F0EE
:1039E000B93FCCF3869577956795B395D9F73EF4B3
:1039F00090958095709561957F4F8F4F9F4F08955B
:103A00000E94971A08F48FEF08950E94971A880B66
:103A1000990B08950F931F93CF93DF9382309105F5
:103A200010F482E090E0E0910F09F091100920E09D
:103A300030E0A0E0B0E0309719F14081518102817F
:103A4000138148175907C8F08417950769F4109730
:103A500031F012960C93129713961C9327C0009383
:103A60000F091093100922C02115310519F04217D2
:103A7000530718F49A01BD01EF01DF01F801DBCF14
:103A800021153105F9F0281B390B2430310580F45C
:103A90008A819B816115710521F0FB0193838283EB
:103AA00004C09093100980930F09FE01329644C020
:103AB000FE01E20FF31F8193919322503109398364
:103AC00028833AC020910D0930910E09232B41F42F
:103AD000209103023091040230930E0920930D09C6
:103AE00020910102309102022115310541F42DB7D8
:103AF0003EB74091050250910602241B350BE09120
:103B00000D09F0910E09E217F307A0F42E1B3F0BED
:103B10002817390778F0AC014E5F5F4F241735073F
:103B200048F04E0F5F1F50930E0940930D0981938B
:103B3000919302C0E0E0F0E0CF01DF91CF911F91BF
:103B40000F910895CF93DF93009709F481C0FC0192
:103B5000329713821282A0910F09B0911009109729
:103B600081F420813181820F931F20910D093091C2
:103B70000E092817390751F5F0930E09E0930D0946
:103B800067C0ED0120E030E0CE17DF0740F44A8146
:103B90005B819E0141155105F1F0EA01F5CFD38318
:103BA000C28340815181840F951FC817D90759F4EA
:103BB00088819981840F951F0296918380838A81E1
:103BC0009B81938382832115310529F4F093100999
:103BD000E0930F093DC0E901FB83EA8349915991C4
:103BE000C40FD51FEC17FD0761F480819181840F0C
:103BF000951F0296E90199838883828193819B8333
:103C00008A83E0E0F0E012968D919C9113970097E3
:103C100019F0FD01DC01F7CF8D919C9111979D0169
:103C20002E5F3F4F820F931F20910D0930910E0997
:103C30002817390769F4309729F410921009109267
:103C40000F0902C013821282B0930E09A0930D09CE
:103C5000DF91CF9108956F927F928F929F92AF9252
:103C6000BF92CF92DF92EF92FF920F931F93CF9369
:103C7000DF93009789F4CB01DF91CF911F910F91D2
:103C8000FF90EF90DF90CF90BF90AF909F908F907C
:103C90007F906F900C940A1DFC01E60FF71F9C01AA
:103CA00022503109E217F30708F4A9C0EC01D90149
:103CB0000D911C91119706171707B0F005301105EB
:103CC00008F49BC0C80104978617970708F495C0AD
:103CD00002501109061B170B019311936D937C93EE
:103CE000CF010E94A21D89C05B01A01AB10A4C013C
:103CF000800E911EA0910F09B0911009612C712CBA
:103D0000E12CF12C109709F446C08D919C911197EC
:103D1000A815B905B1F56C0142E0C40ED11CCA1456
:103D2000DB0478F14C018A189B08640142E0C40E60
:103D3000D11C1296BC9012971396AC91B5E0CB169D
:103D4000D10440F0B282A38391828082D9016D9325
:103D50007C9309C00E5F1F4F800F911FF901918363
:103D60008083EB2DFA2FE114F10431F0D701139683
:103D7000FC93EE93129741C0F0931009E0930F0962
:103D80003CC06816790608F43C017D0112960D903E
:103D9000BC91A02DB7CF80910D0990910E09881686
:103DA0009906E1F466167706C8F4809101029091B5
:103DB0000202009741F48DB79EB7409105025091E1
:103DC0000602841B950BE817F907C8F4F0930E0957
:103DD000E0930D09F901718360830FC0CB010E944C
:103DE0000A1D7C01009759F0A801BE010E94151F11
:103DF000CE010E94A21DC70104C0CE0102C080E016
:103E000090E0DF91CF911F910F91FF90EF90DF90A5
:103E1000CF90BF90AF909F908F907F906F900895BC
:103E200081E090E0F8940C942E1FFB01DC0102C0AD
:103E300001900D9241505040D8F70895FB01DC01EC
:103E40008D91019080190110D9F3990B0895FB0110
:103E5000DC0101900D920020E1F7089511E0C1EB23
:103E6000D1E000E006C0802FFE010E94E31B2196F6
:103E7000011DC23BD10780E00807A9F7F894FFCFE6
:103E8000FF000011092000363738391B1D1A1C00AD
:103E90000000008D02E6011002DA0241021F023327
:103EA0000200000000ED03E601E803E50100000068
:103EB00000B9038C03E803600384037003610346C5
:103EC0006F756E642073656E736F72004E6F205451
:103ED0004353333437323520666F756E64202E2E8F
:103EE0002E20636865636B20796F757220636F6E37
:103EF0006E656374696F6E73005374617274696E7A
:103F0000672E2E2E0070743100707432006F6E4F69
:103F100062737461636C65526573756C74203A00EA
:103F200052455553534920544153534552204C4F09
:103F3000424A4554005041532043415041424C4570
:103F400020444520544153534552204C274F424A68
:103F50004554007074340049324320636F6C6F72B3
:103F60002073656E736572206572726F72203A00FD
:103F70006300620070743500434F4C4F523A205238
:103F8000200020473A200020423A2000707433007D
:103F900057616974696E6720666F72205374726925
:103FA0006E670053455249414C3220415641494CBD
:103FB00041424C45005265636569766564204F4E09
:103FC00000706F735F783A2000706F735F793A20EA
:103FD0000044524956494E470053706565643A2083
:103FE0004C4546543A20002052494748543A200054
:103FF0004D5553494300464F4F440053544F505F73
:1040000052414E445F505552520053544F50504904
:104010004E472052414E444F4D2050555252494E2A
:10402000470045786974696E6700646F6E6E6565F8
:1040300020766962726F0050555252494E472121D5
:104040000053656E742053544F50206D757369632F
:1040500020726571756573743A200053656E742023
:104060006D7573696320726571756573743A2000AC
:104070000D0A00496E76616C696420736572766F13
:104080002069642100536572766F20616E676C65EC
:10409000206973206F7574206F662072616E67658A
:1040A00021004453543A006E616E00696E66006FE1
:0440B0007666000030
:00000001FF
