:100000000C94C9010C94FA010C94FA010C94FA01B5
:100010000C94FA010C94FA010C94FA010C94FA0174
:100020000C94FA010C94D3160C94D3160C94D3169A
:100030000C94FA010C9444110C94FA010C94FA01FA
:100040000C94FA010C94DE050C94FA010C94FA015C
:100050000C94FA010C94FA010C94FA010C94991086
:100060000C94FA010C94B3120C9489120C94FA01BA
:100070000C94FA010C94FA010C94FA010C94FA0114
:100080000C94FA010C94FA010C94FA010C94FA0104
:100090000C94FA010C94FA010C94FA010C94980651
:1000A0000C94FA010C94FA010C94FA010C94FA01E4
:1000B0000C94FA010C94FA010C94FA010C94DE03EE
:1000C0000C94FA010C94FA010C94FA010C945F124E
:1000D0000C9435120C94FA010C940B120C94E1114F
:1000E0000C94FA01940F990F9E0FA80FB20F2B10CA
:1000F000BC0FC40FCC0FD60FE00FEA0FF90F03109F
:100100002B100D1017102110F812FB12EA12EE122C
:10011000F4123213FF12031309130D1311131713E3
:100120001B131F133213251329132D13084AD73B12
:100130003BCE016E84BCBFFDC12F3D6C74319ABDB6
:1001400056833DDA3D00C77F11BED9E4BB4C3E91DA
:100150006BAAAABE000000803F000C94F6020C942B
:1001600003100C94F4120C94E00F0C940B020C94FA
:10017000D60F0C941F020C9432130C9477170C9426
:10018000C40F0C9425130C94A80F0C9417130C9403
:100190009E020C942D020C949E0F0C94210F0C9433
:1001A00011130C94EE120C949D020C94EA120C9410
:1001B00071170C94EA0F0C942B100C94CC0F0C9428
:1001C00028030C94FC010C94C1020C940D100C94A7
:1001D000BC030C9409130C94FF120C941B130C9485
:1001E0002D130C940D130C946F030C949C020C941F
:1001F000BC0F0C94F8120C9417100C94200F0C9454
:10020000F90F0C94940F0C9429130C94FB120C947A
:10021000AD020C949B020C9425030C94C9020C941F
:100220001F130C9403130C94B20F0C9421100C9414
:10023000990F4E414E494E495459494E46CDCCCC6A
:100240003D0AD7233C17B7D13877CC2B329595E6AA
:10025000241FB14F0A000020410000C84200401C8A
:100260004620BCBE4CCA1B0E5AAEC59D740200008F
:100270002100240027002A002D0030003300010156
:100280000000040107010A010000220025002800E7
:100290002B002E003100340002010000050108018E
:1002A0000B01000020002300260029002C002F0055
:1002B00032000001000003010601090105050505E2
:1002C000070508080808020202020A0A08080404CE
:1002D00004040101010101010101030303030303FC
:1002E0000303040707070C0C0C0C0C0C0C0C02028B
:1002F000020206060606060606060B0B0B0B0B0B88
:100300000B0B010210202008081020401020408014
:1003100002010201080402010102040810204080C9
:100320008040201008040201800402018040201057
:1003300008040201080402010102040810204080A0
:10034000010204081020408000000A0B02090C0D75
:100350000E08070304010000000000000000000078
:10036000000000000000000000000000000000008D
:10037000000000001211100000000000000000004A
:1003800000000000000000000000000000007717DF
:10039000711711241FBECFEFD1E2DEBFCDBF00E049
:1003A0000CBF13E0A0E0B2E0E8E5F7E400E00BBF2B
:1003B00002C007900D92A434B107D9F728E0A4E455
:1003C000B3E001C01D92A432B207E1F711E0C8EC1E
:1003D000D1E000E006C021970109802FFE010E94B4
:1003E000AA1FC73CD10780E00807A9F70E943D1962
:1003F0000C949A230C940000FC01538D448D252FFE
:1004000030E0842F90E0821B930B541710F0CF96AE
:10041000089501970895FC01918D828D981761F0E0
:10042000828DDF01A80FB11D5D968C91928D9F5F2B
:100430009F73928F90E008958FEF9FEF0895FC01D6
:10044000918D828D981731F0828DE80FF11D858D89
:1004500090E008958FEF9FEF0895FC01918D228D1C
:10046000892F90E0805C9F4F821B91098F739927A1
:100470000895E0E0F0E0199480E090E0892B21F00D
:100480000E94610F811119C080E090E0892B41F03A
:1004900080E090E0892B21F00E940000811110C0C3
:1004A0000E94570F81110FC080E090E0892B81F0EE
:1004B0000E944D0F81110AC008950E940000E4CFF0
:1004C0000E940000EDCF0E943902EECF0C94000094
:1004D000089585ED8093BC008091BC0084FDFCCF25
:1004E0001092F507089540919F03262F30E0240FC6
:1004F000311D21323105DCF42091F5072430C9F497
:10050000FC0180E090E0861758F430919F03219120
:10051000DC01A358BC4FA30FB11D2C930196F3CF60
:1005200080919F03680F60939F0380E0089581E0AE
:10053000089582E00895089508950895E091F707D9
:100540008091F607E81730F4F0E0E850F84F80812A
:1005500090E008958FEF9FEF08959091F7078091B5
:10056000F607981750F4E92FF0E0E850F84F208193
:1005700030E09F5F9093F70702C02FEF3FEFC90174
:1005800008958091F60790E02091F707821B91096A
:100590000895CF92DF92EF92FF920F931F93CF9324
:1005A000DF937C01CB018A0120911B08222389F073
:1005B000EB016B01C40ED51ECC15DD0569F0699108
:1005C000D701ED91FC910190F081E02DC7011995C3
:1005D000F3CF642F0E947302C801DF91CF911F9166
:1005E0000F91FF90EF90DF90CF900895CF93DF931E
:1005F0001F92CDB7DEB7698320911B082223D1F06B
:1006000020911808203240F021E030E0FC013383D3
:10061000228380E090E015C080911908E82FF0E077
:10062000E35AFC4F998190838F5F809319088093E0
:10063000180805C061E0CE0101960E94730281E0B6
:1006400090E00F90DF91CF91089580E090E00895C1
:100650000F931F93CF93DF938C01C62FD62FD07F9C
:10066000D1606D2F0E9491166D2FC8010E94A516B2
:1006700080E1C89FB0011124C62FC1606C2FC80152
:100680000E9491166C2FC8010E94A51681E090E08F
:10069000DF91CF911F910F910895FC01848DDF01AF
:1006A000A80FB11DA35ABF4F2C91848D90E00196E5
:1006B0008F739927848FA689B7892C93A089B189D4
:1006C0008C91837080648C93938D848D981306C075
:1006D0000288F389E02D80818F7D80830895EF92D9
:1006E000FF920F931F93CF93DF93EC0181E0888FEC
:1006F0009B8D8C8D981305C0E889F989808185FDD3
:1007000026C0F62E0B8D10E00F5F1F4F0F731127C1
:10071000E02E8C8DE8120CC00FB607FCFACFE889EA
:10072000F989808185FFF5CFCE010E944D03F1CF7D
:100730008B8DFE01E80FF11DE35AFF4FF0829FB74A
:10074000F8940B8FEA89FB89808180620AC09FB789
:10075000F894EE89FF896083E889F9898081837044
:10076000806480839FBF81E090E0DF91CF911F91F3
:100770000F91FF90EF900895CF93DF93EC01888D58
:100780008823C9F0EA89FB89808185FD05C0A88995
:10079000B9898C9186FD0FC00FB607FCF5CF80811B
:1007A00085FFF2CFA889B9898C9185FFEDCFCE0165
:1007B0000E944D03E7CFDF91CF9108951F920F92D2
:1007C0000FB60F9211240BB60F922F933F934F93B6
:1007D0005F936F937F938F939F93AF93BF93EF93A9
:1007E000FF9380919D050E94DD162091A105309117
:1007F000A2052F5F3F4F3093A2052093A105909152
:10080000A005953618F096E090939C0590919C0574
:100810009430C9F128F4923069F09330D1F05EC081
:10082000953009F451C0963009F058C091E090938A
:100830006D0651C0811152C02091A1053091A205D1
:100840002436310508F442C010926D061092A005BE
:100850001CC0813009F042C0E091A00591E09E0FDC
:100860009093A005F0E02091A1053091A205EE0F34
:10087000FF1FE456FA4F308727831092A20510928B
:10088000A10594E029C0811117C0E091A00591E075
:100890009E0F9093A005F0E02091A1053091A20554
:1008A000EE0FFF1FE456FA4F308727831092A20500
:1008B0001092A10593E010C02091A1053091A205EE
:1008C0002536310558F007C0811108C01092A205E5
:1008D0001092A10503C095E090939C0590919F050F
:1008E0009923B9F081110AC080919E05882321F0D7
:1008F00080919E0561E009C02F9A0BC080919E05F2
:10090000882331F080919E0560E00E94061701C0A7
:100910002F98FF91EF91BF91AF919F918F917F9110
:100920006F915F914F913F912F910F900BBE0F9060
:100930000FBE0F901F9018958F929F92AF92BF920B
:10094000CF92DF92EF92FF920F931F93CF93DF939B
:10095000EC016A017B0120E030E04FE753E4C7017E
:10096000B6010E94661E4B015C0120E030E0A90147
:100970000E94602118161CF4C501B40103C0C50112
:10098000B40190580E9403218B0120E030E0A901BE
:10099000C701B6010E946021181614F460E001C07E
:1009A00061E089810E9406170F3F110509F01CF4D0
:1009B000B801772702C06FEF70E08881DF91CF9197
:1009C0001F910F91FF90EF90DF90CF90BF90AF906D
:1009D0009F908F900C946B0F8EBD00000DB407FE9E
:1009E000FDCF8EB50895CF93DF93EC0160E0888151
:1009F0000E94061788E90E94EC0480E00E94EC0443
:100A000080E00E94EC0480E00E94EC0480E00E9400
:100A1000EC0461E088810E9406178BE891E0019761
:100A2000F1F760E088810E94061780EE0E94EC04D6
:100A300061E08881DF91CF910C940617AF92BF924D
:100A4000CF92DF92EF92FF920F931F93CF93DF939A
:100A5000CDB7DEB760970FB6F894DEBF0FBECDBF3F
:100A60005C0160E0FC0180810E94061780E60E9424
:100A7000EC048E010F5F1F4F7E01F1E1EF0EF11CC0
:100A8000680180E00E94EC0490E0A0E0B0E0F60194
:100A900081939193A193B1936F01EE15FF0589F7AF
:100AA00061E0F50180810E94061780E090E0DC01A2
:100AB000F80141915191619171918F01BA2FA92F44
:100AC000982F8827840F951FA61FB71FEE15FF05C7
:100AD00079F79C01AD0166277727CB01621B730B69
:100AE000840B950B60960FB6F894DEBF0FBECDBF9A
:100AF000DF91CF911F910F91FF90EF90DF90CF90FA
:100B0000BF90AF9008951F93CF93DF93EC01162F02
:100B100088818C3008F04DC061E0812F0E9435172C
:100B2000E88195E09E9FF0011124E259F94F1F736F
:100B30008081807C182B10831382E8819E9FF001B6
:100B40001124E259F94F148288816CE00E948A1FB7
:100B50009CE0899FA001112420E030E095E0BA01DB
:100B6000620F731F969FF001979FF00D1124E259B9
:100B7000F94F608166FD13C02F5F3F4F2C30310568
:100B800071F781110CC01092800082E08093810087
:100B9000109285001092840086BB80936F00E881DC
:100BA00085E0E89FF0011124E259F94F80818064CB
:100BB00080838881DF91CF911F9108951F920F92BA
:100BC0000FB60F9211240BB60F922F933F934F93B2
:100BD0005F936F937F938F939F93AF93BF93EF93A5
:100BE000FF938091C40387FF05C010928500109287
:100BF000840016C02091C403022E000C330B809198
:100C0000AA0690E0281739075CF43091C40325E068
:100C10003203F0011124E259F94F808186FD15C09D
:100C20008091C4038F5F8093C4032091C403022E7C
:100C3000000C330B8091AA0690E02817390794F432
:100C40008091C4038C302CF10DC03091C403320369
:100C5000F0011124E259F94F808160E08F730E9406
:100C60000617DECF809184009091850084349C49E2
:100C700018F480E49CE905C080918400909185007F
:100C8000049690938900809388008FEF8093C4032B
:100C90002AC040918400509185003091C40325E022
:100CA0003203F0011124E259F94F81819281840FBE
:100CB000951F90938900809388003091C40332037C
:100CC000F0011124E259F94F808186FF0CC0309168
:100CD000C4033203F0011124E259F94F808161E02D
:100CE0008F730E940617FF91EF91BF91AF919F9173
:100CF0008F917F916F915F914F913F912F910F90C5
:100D00000BBE0F900FBE0F901F901895823030F0E1
:100D100063E472E08FEF94E00C94760B813009F479
:100D2000705890E0880F991F8553994F0C949C043C
:100D30001F920F920FB60F9211240BB60F922F93A2
:100D40003F934F935F936F937F938F939F93AF9353
:100D5000BF93EF93FF938091B900887F803609F4A9
:100D60009CC068F5883209F45BC090F4803109F4C6
:100D700054C038F4882309F4F6C0883009F44DC013
:100D8000F6C0883109F44CC0803209F45DC0EFC070
:100D9000803409F468C048F4803309F455C08833BE
:100DA00009F0E5C08093F307D8C0803509F44FC03F
:100DB000883509F45DC0883409F0D9C0D6C08839B7
:100DC00009F4C7C0A8F4883709F467C038F4883636
:100DD00009F463C0803709F460C0C9C0883809F4D9
:100DE000B8C0803909F45FC0803809F0C0C05BC06A
:100DF000803B09F486C038F4803A09F466C0883A2A
:100E000009F47FC0B4C0803C09F4A7C0883C09F451
:100E1000A4C0883B09F48AC0AAC08091F00710C022
:100E20009091F2078091F107981770F5E091F20721
:100E300081E08E0F8093F207F0E0E153F84F80815C
:100E40008093BB0085EC86C08093F3078EC0E09151
:100E5000F20781E08E0F8093F2078091BB00F0E0F3
:100E6000E153F84F80839091F2078091F1076EC0B3
:100E7000E091F20781E08E0F8093F2078091BB0032
:100E8000F0E0E153F84F80838091F40781116DC049
:100E900081E08093EF0784EA61C083E08093F507E7
:100EA0001092C303CFCF8091C303803208F051C0AA
:100EB000E091C30381E08E0F8093C3038091BB0058
:100EC000F0E0ED55FC4F8083BDCF85EC8093BC00F6
:100ED0001092F5078091C303803230F4E091C30390
:100EE000F0E0ED55FC4F10826091C30370E0E0919B
:100EF000A103F091A20383EA93E019951092C30332
:100F000036C084E08093F5071092A00310929F03EF
:100F1000E0919D03F0919E03199580919F038111AB
:100F200005C081E080939F0310927D03E091A003B0
:100F300081E08E0F8093A003F0E0E358FC4F8081A6
:100F40008093BB009091A00380919F03981708F4B1
:100F500079CF85E88093BC000AC085EC8093BC0003
:100F60001092F50704C01092F3070E946902FF91E6
:100F7000EF91BF91AF919F918F917F916F915F9111
:100F80004F913F912F910F900BBE0F900FBE0F907E
:100F90001F90189530911808313208F04BC080919D
:100FA000F5078111FCCF90911A0822E02093F507F4
:100FB00021E02093F4072FEF2093F3071092F2071C
:100FC0003093F107EDE5F3E0AFECB7E020E0321746
:100FD00021F041914D932F5FFACF1092F0072091AD
:100FE000F007990F922B9093F0079091EF079130B3
:100FF00061F41092EF079091F0079093BB009091ED
:10100000BC0093FDF8CF95EC01C095EE9093BC0029
:101010009091F5079230E1F39091F3079F3F79F0BB
:101020008091F307803241F08091F307803331F0F3
:1010300084E005C081E003C082E001C083E010923B
:1010400019081092180810921B0808952F923F92C9
:101050004F925F926F927F928F929F92AF92BF92C8
:10106000CF92DF92EF92FF920F931F93CF93DF9374
:10107000CDB7DEB72C970FB6F894DEBF0FBECDBF4D
:1010800086E30E9434107C0187E30E9434108C01B7
:1010900068EC70E080E090E00E94531086E30E94CC
:1010A00034106C0187E30E943410081B190BEC18F4
:1010B000FD0884E6E80EF11CE9ECEE16F10428F4D4
:1010C0000C591F4F093C110510F16FEF70E082E0E1
:1010D0000E946B0F64EF71E080E090E00E9453107B
:1010E00064E670E082E00E946B0F64EF71E080E0E4
:1010F00090E00E94531062E370E082E00E946B0F68
:1011000064EF71E080E090E00E94531005C060E061
:1011100070E082E00E946B0FB12C3324339485E0A1
:10112000282E65E572E082E694E00E94760B68EE78
:1011300073E080E090E00E94531082E694E00E9409
:101140002D02892B09F42BC168E672E08FEF94E041
:101150000E94760B6BE3CE0107960E94A214CF800B
:10116000D884C114D104E9F10B851C850115110542
:10117000C1F176014701FFEF8F1A9F0AF7018081C5
:10118000082E000C990B0E94DF1D892B11F07401B1
:10119000F1CF015011090C0D1D1DF8018081082EA1
:1011A000000C990B0E94DF1D892B31F00E151F05D5
:1011B00018F001501109F1CFA8014F5F5F4F4E1990
:1011C0005F095C874B87CE14DF0420F4B701C601AA
:1011D0000E948123EF81F8858B859C85E80FF91F9C
:1011E00010828B859C85892B09F4BAC063E872E074
:1011F0008F8198850E948A23892B09F0B1C06AE704
:1012000072E082E694E00E94760B6BE3CE010196D9
:101210000E94A214BE016F5F7F4FCE0107960E940D
:10122000E31089819A810E940E228F819885009710
:1012300029F00E947F1C4B015C0103C0812C912C82
:10124000540166E872E082E694E00E94660BC501F4
:10125000B4010E94B0136BE3CE0101960E94A21468
:10126000BE016F5F7F4FCE0107960E94E310898118
:101270009A810E940E228F819885009729F00E9402
:101280007F1C6B017C0103C0C12CD12C76016EE860
:1012900072E082E694E00E94660BC701B6010E94EC
:1012A000B0136AE0CE0101960E94A214BE016F5FE6
:1012B0007F4FCE0107960E94E31089819A810E9498
:1012C0000E228F819885009729F00E947F1C2B01A8
:1012D0003C0103C0412C512C320166E972E082E6E8
:1012E00094E00E94660BC301B2010E94B01382E633
:1012F00094E00E94BC036CE972E08FEF94E00E94DE
:10130000760B40E050E0BA018BEC96E00E949C0422
:1013100040E050E060E070E88DEC96E00E949C04B4
:1013200062E370E080E090E00E945310A501940118
:10133000C701B6010E9432200E94510E40E050E0E9
:10134000BA018BEC96E00E949C0440E050E060E023
:1013500070E88DEC96E00E949C04BB24B3941BC003
:1013600030921B0820921A0810921908109218083F
:1013700084E090E00E94610B89EE96E00E94CA072B
:10138000182F64EA72E08FEF94E00E94660B812FC1
:1013900090E00E94D30B8F8198850E940E22B1109D
:1013A000C0CE2C960FB6F894DEBF0FBECDBFDF9136
:1013B000CF911F910F91FF90EF90DF90CF90BF9052
:1013C000AF909F908F907F906F905F904F903F90E5
:1013D0002F9008951092F7071092F60710921908AF
:1013E000109218081092F50781E08093F40710928C
:1013F000EF0761E084E10E94061761E085E10E9449
:101400000617E9EBF0E080818E7F808380818D7FFD
:10141000808388E48093B80085E48093BC008BE9E6
:1014200092E090939E0380939D038CE992E09093C9
:10143000A2038093A103089540E050E0BA018BEC31
:1014400096E00E949C0440E050E060E070E88DEC83
:1014500096E00C949C048F929F92AF92BF92CF9291
:10146000DF92EF92FF920F931F93CF93DF936B0165
:101470007C0149015A010E949B15882389F10E9431
:101480001C0A68E780E00E94B81560ED77E080E014
:1014900090E00E94531068E280E00E94B81568EE68
:1014A00073E080E090E00E9453100E949B15811130
:1014B0000CC0B701A6018BEC96E00E949C04B5011C
:1014C000A40181E00E9486060BC00E94EC0D20E082
:1014D00030E040E251E4C701B6010E94D00C7CC06C
:1014E00080E00E940B158F7E482F50E060E070E096
:1014F00080E00E94F1146CE370E080E090E00E94D4
:1015000053108091F506811102C00E94501584E1AC
:101510000E942615EC0186E10E94261588E10E94B2
:1015200026158C018AE10E9426158091F80690917B
:10153000F906853D910519F150F4009729F1803C99
:10154000910541F56AE970E080E090E021C0863FB6
:10155000910581F08F3F910541F08B3E9105D1F4CB
:1015600062E370E080E090E013C063E070E080E050
:1015700090E00EC068E170E080E090E009C065E6B0
:1015800070E080E090E004C06CEB72E080E090E0FE
:101590000E94531080E00E940B158061482F50E09C
:1015A00060E070E080E00E94F114B80180E090E01B
:1015B0009E0140E050E00E94591F322F22272D3318
:1015C000310560F00E941C0A62E370E080E090E068
:1015D0000E9453100E94EC0D80E003C00E94260878
:1015E00081E0DF91CF911F910F91FF90EF90DF90FD
:1015F000CF90BF90AF909F908F900895CF92DF9241
:10160000EF92FF92CF93DF93EC016A017B01E889AF
:10161000F98982E080834115514E61057105B1F071
:1016200060E079E08DE390E0A70196010E94591FE8
:10163000DA01C9010197A109B109B695A795979556
:1016400087959C01211580E13807A8F0E889F98980
:10165000108260E874E88EE190E0A70196010E9494
:10166000591FDA01C9010197A109B109B695A795DA
:10167000979587959C01EC85FD853083EE85FF85E8
:101680002083188EEC89FD8986E08083EA89FB89B6
:10169000808180618083EA89FB8980818860808382
:1016A000EA89FB89808180688083EA89FB8980815F
:1016B0008F7D8083DF91CF91FF90EF90DF90CF906F
:1016C0000895682F89EE96E00C94F6026115710575
:1016D00051F0FB0101900020E9F73197AF01461B63
:1016E000570B0C94210F80E090E008950F931F9307
:1016F000CF93DF93EC010E94660B8C0169EB72E0E3
:10170000CE010E94660B800F911FDF91CF911F9138
:101710000F9108958F929F92AF92BF92EF92FF9296
:101720000F931F93CF93DF93CDB7DEB7A1970FB67B
:10173000F894DEBF0FBECDBF7C01FA01CB0119A228
:10174000223008F42AE08E010F5D1F4F822E912C6B
:10175000A12CB12CBF01A50194010E94591FF901D0
:10176000CA01015011096A3014F4605D01C0695C5E
:10177000D8016C93232B242B252B61F7B801C701CB
:101780000E94660BA1960FB6F894DEBF0FBECDBFC8
:10179000DF91CF911F910F91FF90EF90BF90AF908D
:1017A0009F908F900895CF92DF92EF92FF92CF9308
:1017B000DF936C01990FEE08FF08F7FE15C06DE28C
:1017C0008FEF94E00E946F03EC0144275527BA0184
:1017D0004C195D096E097F092AE08FEF94E00E94A1
:1017E0008A0BC80FD91F08C02AE0B701A6018FEFE6
:1017F00094E00E948A0BEC0169EB72E08FEF94E0B9
:101800000E94660B8C0F9D1FDF91CF91FF90EF9090
:10181000DF90CF9008952F923F924F925F926F92F8
:101820007F928F929F92AF92BF92CF92DF92EF9270
:10183000FF920F931F93CF93DF9300D000D0CDB7CB
:10184000DEB78C0181E08983101611060CF4198231
:101850009981692E712CB801012E000C880B990B0F
:101860000E94071E25E535E541EB51E40E94661E06
:101870000E9403217B01CB010E94D30B4DEC5CEC59
:101880006CE47EE389810E94860681E010161106D1
:101890000CF080E040E050E0BA010E948606D301DF
:1018A000AA0FBB1F5D96AE54B94FBE83AD83CD0169
:1018B0000E94F304101611063CF4812C912C80E850
:1018C000A82E8FE3B82E03C0812C912C5401312C0B
:1018D000212CCC24DD24CE18DF08C301770CAA0B01
:1018E000BB0B89839A83AB83BC83832D922D97FF97
:1018F00003C09195819591099701F7FC9601821794
:101900009307ACF56AE070E080E090E00E9453102D
:101910008D819E811016110654F40E941E0590952B
:101920008095709561957F4F8F4F9F4F02C00E94A9
:101930001E05362E272E2DEC3CEC4CE45EE3C50153
:10194000B4010E94661E2B013C0169817A818B8162
:101950009C810E94071E2DEC3CEC4CE45EE30E944F
:10196000661EA30192010E942B0A8111BECF26960A
:101970000FB6F894DEBF0FBECDBFDF91CF911F91A0
:101980000F91FF90EF90DF90CF90BF90AF909F901E
:101990008F907F906F905F904F903F902F90089521
:1019A0002F923F924F925F926F927F928F929F926F
:1019B000AF92BF92CF92DF92EF92FF920F931F935D
:1019C000CF93DF93CDB7DEB72C970FB6F894DEBF79
:1019D0000FBECDBF362E272E89839A8369017A01E7
:1019E0008FEC96E00E94F30481ED96E00E94F304F0
:1019F00025E83BEA45E053E4C701B6010E94661EB4
:101A00000E9403217C836B83432D522D69817A814F
:101A10008BEC96E00E949C04432D522D69817A81C3
:101A200081E00E9486060E948D102B013C010E94DD
:101A30008D106B017C01032D122D29812C873A8199
:101A40003B87812C912CA12CB12C4B815C81519531
:101A5000419551095A8749879501B7FE04C022274D
:101A600033272A193B098B819C8197FF02C0898506
:101A70009A85281739070CF096C084E690E0A0E01C
:101A8000B0E08C199D09AE09BF09BC01CD01640D00
:101A9000751D861D971D0E9453100E948D102B01ED
:101AA0003C018FEC96E00E941E056B017C018827AB
:101AB0009927DC018C199D09AE09BF09A80EB91E32
:101AC0008FEC96E00E941E056B017C018FEC96E086
:101AD0000E94F30481ED96E00E941E056D837E83D3
:101AE0008F83988781ED96E00E94F30488279927D9
:101AF000DC018C199D09AE09BF099C01AD01CD80A7
:101B0000DE80EF80F8842C193D094E095F09AAE0B8
:101B1000B0E00E94461F860E971E0E94071E27E116
:101B200037EB41ED58E30E94661E98014C855B85BA
:101B30000E94B31F6B017C01B401092C000C880BBF
:101B4000990B0E94071E20EB3FE041E255E30E9403
:101B5000661EA70196010E94B31F8B018C879B878D
:101B600020E030E040E85FE30E94001E87FD06C0F1
:101B700000E010E020E82C873FE33B87A8016C855C
:101B80007B8581E00E9486060E948D106B017C019E
:101B900098014C855B85632D722D89819A810E9405
:101BA0002B0A811159CF2C960FB6F894DEBF0FBEC9
:101BB000CDBFDF91CF911F910F91FF90EF90DF90FC
:101BC000CF90BF90AF909F908F907F906F905F90DD
:101BD0004F903F902F900895CF92DF92EF92FF9217
:101BE0008FEC96E00E94F30481ED96E00E94F304EE
:101BF0004AE959E969E17EE38BEC96E00E949C0496
:101C00004AE959E969E17EEB81E00E948606E12C10
:101C1000F12CC701F7FE03C09195819591098C972E
:101C2000DCF56AE070E080E090E00E9453108FECF9
:101C300096E00E941E056B017C0181ED96E00E94FA
:101C40001E05F094E094D094C094C11CD11CE11CFA
:101C5000F11C9601D7FE04C0222733272C193D0919
:101C6000AB0177FF04C044275527461B570BB9012A
:101C7000640F751F072E000C880B990B0E94071E1E
:101C800020E030E040E05FE30E94661E0E940321F6
:101C90007B010E942608BDCFFF90EF90DF90CF9090
:101CA00008958F929F92AF92BF92CF92DF92EF9260
:101CB000FF92CF93DF936B017C0120E030E0A9011C
:101CC0000E94001E87FD03C0C1E0D0E002C0CFEF3C
:101CD000DFEF2EEC31EC4EE954E4C701B6010E946F
:101CE000661E6B017C018FEC96E00E94F30481ED8F
:101CF00096E00E94F304BE010D2E000C880B990B98
:101D00000E94071EA70196010E94661EAB01BC013E
:101D10008BEC96E00E949C04662777276C1B7D0B5A
:101D2000072E000C880B990B0E94071EA701960135
:101D30000E94661EAB01BC0181E00E948606A12CB8
:101D4000B12CE501B7FE03C0D195C195D109C701FA
:101D5000B6010E9403219B0177FF04C0222733278D
:101D6000261B370B2C173D07DCF16AE070E080E0A2
:101D700090E00E9453108FEC96E00E941E054B01EC
:101D80005C0181ED96E00E941E05B094A0949094B1
:101D90008094811C911CA11CB11C940197FE04C06D
:101DA0002227332728193909AB0177FF04C04427BC
:101DB0005527461B570BB901640F751F072E000CE2
:101DC000880B990B0E94071E20E030E040E05FE3A3
:101DD0000E94661E0E9403215B010E942608B1CF6B
:101DE000DF91CF91FF90EF90DF90CF90BF90AF90B9
:101DF0009F908F9008953FB7F8948091CB07909172
:101E0000CC07A091CD07B091CE0726B5A89B05C001
:101E10002F3F19F00196A11DB11D3FBFBA2FA92F69
:101E2000982F8827820F911DA11DB11DBC01CD01E6
:101E300042E0660F771F881F991F4A95D1F70895D2
:101E40000895CF92DF92EF92FF920F931F93CF935B
:101E5000DF936C017A018B01C0E0D0E0CE15DF0585
:101E600081F0D8016D918D01D601ED91FC91019029
:101E7000F081E02DC6011995892B11F02196EECF46
:101E80007E01C701DF91CF911F910F91FF90EF90DD
:101E9000DF90CF9008950E947C2385EC93E00E9410
:101EA0002D0221E0892B09F420E0822F089582E69B
:101EB00094E00E942D0221E0892B09F420E0822F7A
:101EC00008958FEF94E00E942D0221E0892B09F400
:101ED00020E0822F08951F93CF93DF93182FEB01FB
:101EE00061E00E943517209711F460E004C0CF3FF5
:101EF000D10539F461E0812FDF91CF911F910C94CE
:101F00000617E12FF0E0E85BFC4FE4918E2F90E0A4
:101F1000FC013197E231F10508F09DC08827EE58A9
:101F2000FF4F8F4F0C94AA1F84B5806884BDC7BD36
:101F300097C084B5806284BDC8BD92C08091800086
:101F4000806880938000D0938900C093880088C007
:101F500080918000806280938000D0938B00C0933A
:101F60008A007EC080918000886080938000D0933A
:101F70008D00C0938C0074C08091B0008068809305
:101F8000B000C093B3006CC08091B00080628093B9
:101F9000B000C093B40064C08091900080688093CA
:101FA0009000D0939900C09398005AC080919000FF
:101FB000806280939000D0939B00C0939A0050C0A1
:101FC00080919000886080939000D0939D00C09392
:101FD0009C0046C08091A00080688093A000809102
:101FE000A0008F7B8093A000D093A900C093A8008D
:101FF00037C08091A00080628093A000D093AB0096
:10200000C093AA002DC08091A00088608093A0009A
:10201000D093AD00C093AC0023C0809120018068B4
:1020200080932001D0932901C093280119C0809189
:102030002001806280932001D0932B01C0932A015C
:102040000FC080912001886080932001D0932D01E2
:10205000C0932C0105C0C038D1050CF04BCF45CF43
:10206000DF91CF911F910895863308F086539091A8
:102070007B00282F2870977F922B90937B0087708E
:10208000806480937C0080917A00806480937A00E1
:1020900080917A0086FDFCCF8091780020917900B4
:1020A00090E0922B08958F929F92AF92BF92CF9221
:1020B000DF92EF92FF926B017C010E94FB0E4B01BD
:1020C0005C01C114D104E104F104F1F00E94FB0EA3
:1020D000DC01CB0188199909AA09BB09883E934004
:1020E000A105B10570F321E0C21AD108E108F10899
:1020F00088EE880E83E0981EA11CB11CC114D10487
:10210000E104F10419F7DDCFFF90EF90DF90CF905D
:10211000BF90AF909F908F9008952FB7F8946091E3
:10212000C7077091C8078091C9079091CA072FBF50
:1021300008951F920F920FB60F9211242F933F9381
:102140008F939F93AF93BF938091C7079091C807D8
:10215000A091C907B091CA073091C60723E0230FA9
:102160002D3720F40196A11DB11D05C026E8230FCF
:102170000296A11DB11D2093C6078093C7079093B7
:10218000C807A093C907B093CA078091CB07909165
:10219000CC07A091CD07B091CE070196A11DB11D2E
:1021A0008093CB079093CC07A093CD07B093CE0735
:1021B000BF91AF919F918F913F912F910F900FBE43
:1021C0000F901F9018950F931F93CF93DF938C015F
:1021D000EB01FC0180819181009739F06881798160
:1021E00061157105A1F40E940E2288819981F80180
:1021F000918380838A819B81938382838C819D815B
:1022000095838483198218821B821A820FC0F80179
:10221000428153812C813D814217530720F30E9454
:1022200093238C819D81F801958384831D821C8278
:10223000DF91CF911F910F9108950F931F93CF932B
:10224000DF93EC0188819981009729F02A813B81F5
:102250002617370788F48B016F5F7F4F0E94972204
:10226000009761F0998388831B830A832C813D81C9
:10227000232B11F4FC01108281E001C080E0DF918A
:10228000CF911F910F9108951F920F920FB60F9249
:1022900011240BB60F922F933F934F935F936F933D
:1022A0007F938F939F93AF93BF93EF93FF9380910F
:1022B000BD079091BE07A091BF07B091C007892BC1
:1022C0008A2B8B2B49F19091BC07809100008927C4
:1022D000809300008091BD079091BE07A091BF0739
:1022E000B091C007181619061A061B060CF056C046
:1022F0008091BD079091BE07A091BF07B091C00724
:102300000197A109B1098093BD079093BE07A093DF
:10231000BF07B093C00742C080910002EDE6F2E033
:10232000E4919FEF90930002E230C9F050F4EE2365
:1023300099F0E13081F590916F009D7F90936F004F
:102340002AC0E43019F1E0F0E53029F590917300EE
:102350009D7F909373001FC010926E001CC09091DF
:1023600070009D7F9093700091E09093B0009091E9
:10237000B100987F94609093B1001092B3000BC0AD
:10238000909171009D7F9093710005C090917200B3
:102390009D7F9093720060E00E940617FF91EF917D
:1023A000BF91AF919F918F917F916F915F914F916D
:1023B0003F912F910F900BBE0F900FBE0F901F906B
:1023C00018951F920F920FB60F9211240BB60F9211
:1023D0002F933F934F935F936F937F938F939F932D
:1023E000AF93BF93EF93FF9385EC93E00E944D036F
:1023F000FF91EF91BF91AF919F918F917F916F91DD
:102400005F914F913F912F910F900BBE0F900FBE98
:102410000F901F9018951F920F920FB60F921124D4
:102420000BB60F922F933F934F935F936F937F93CE
:102430008F939F93AF93BF93EF93FF9385EC93E0BC
:102440000E94BA16FF91EF91BF91AF919F918F912A
:102450007F916F915F914F913F912F910F900BBEA4
:102460000F900FBE0F901F9018951F920F920FB6EE
:102470000F9211240BB60F922F933F934F935F93BC
:102480006F937F938F939F93AF93BF93EF93FF933C
:1024900082E694E00E944D03FF91EF91BF91AF91CE
:1024A0009F918F917F916F915F914F913F912F916C
:1024B0000F900BBE0F900FBE0F901F9018951F929C
:1024C0000F920FB60F9211240BB60F922F933F93DA
:1024D0004F935F936F937F938F939F93AF93BF932C
:1024E000EF93FF9382E694E00E94BA16FF91EF917A
:1024F000BF91AF919F918F917F916F915F914F911C
:102500003F912F910F900BBE0F900FBE0F901F9019
:1025100018951F920F920FB60F9211240BB60F92BF
:102520002F933F934F935F936F937F938F939F93DB
:10253000AF93BF93EF93FF938FEF94E00E944D030F
:10254000FF91EF91BF91AF919F918F917F916F918B
:102550005F914F913F912F910F900BBE0F900FBE47
:102560000F901F9018951F920F920FB60F92112483
:102570000BB60F922F933F934F935F936F937F937D
:102580008F939F93AF93BF93EF93FF938FEF94E05D
:102590000E94BA16FF91EF91BF91AF919F918F91D9
:1025A0007F916F915F914F913F912F910F900BBE53
:1025B0000F900FBE0F901F90189590E0FC0131977F
:1025C000E231F10508F04EC08827EC57FF4F8F4FDE
:1025D0000C94AA1F809180008F7703C080918000A7
:1025E0008F7D80938000089580918000877FF9CF50
:1025F00084B58F7702C084B58F7D84BD08958091A6
:10260000B0008F7703C08091B0008F7D8093B000C1
:102610000895809190008F7707C0809190008F7D02
:1026200003C080919000877F8093900008958091EF
:10263000A0008F7707C08091A0008F7D03C080919C
:10264000A000877F8093A0000895809120018F775C
:1026500007C0809120018F7D03C080912001877F7A
:102660008093200108959091F5079111FCCF982F48
:10267000813208F090E281E08093F5078093F407BF
:102680002FEF2093F3071092F207290F2093F10701
:102690008093F0078091F00782658093F007809126
:1026A000EF07813061F41092EF078091F00780937B
:1026B000BB008091BC0083FDF8CF85EC01C085EEA6
:1026C0008093BC008091F5078130E1F38091F2079F
:1026D000891710F49091F207EFECF7E0A8EFB7E05C
:1026E00080E0891721F021912D938F5FFACF10920E
:1026F000F7078093F60708950F931F930E948D109C
:1027000060936A0470936B0480936C0490936D04DF
:1027100082E694E00E940B0297FF1FC00E948D107A
:1027200000916A0410916B0420916C0430916D0447
:10273000DC01CB01801B910BA20BB30B0091660453
:102740001091670420916804309169048017910703
:10275000A207B307E8F28FEF9FEF1F910F91089543
:102760004F925F926F927F928F929F92AF92BF92A1
:10277000CF92DF92EF92FF92CF936B017C019B018E
:10278000AC010E947121882319F068E073E01AC03F
:1027900046015701E894B7F82FEF3FEF4FE75FE7A7
:1027A000C501B4010E947121811112C02FEF3FEFCA
:1027B0004FE75FE7C501B4010E94001E181644F4FC
:1027C0006CE073E082E694E00E94660B7C017EC0C0
:1027D0002FEF3FEF4FE75FE4C701B6010E94602192
:1027E00018161CF460E173E0EDCF2FEF3FEF4FE7D9
:1027F0005FECC701B6010E94001E87FDF3CF20E009
:1028000030E0A901C701B6010E94001E87FF0BC07E
:102810006DE282E694E00E946F035C01F7FAF094A7
:10282000F7F8F09402C0A12CB12C2AE037ED43EA6E
:102830005BE3C701B6010E94B31F2B013C010E945C
:102840000A216B017C010E94051E9B01AC01C301A2
:10285000B2010E94B21F2B013C012AE0B701A60180
:1028600082E694E00E948A0B7C01EA0CFB1C6EE27B
:1028700082E694E00E946F03E80EF91EC3E0C150A7
:1028800029F120E030E040E251E4C301B2010E94AE
:10289000661E2B013C010E940A214B01A12CB12C88
:1028A0002AE0B501A40182E694E00E948A0BE80EBA
:1028B000F91EC501B4010E94051E9B01AC01C301B4
:1028C000B2010E94B21F2B013C01D9CF69EB72E02B
:1028D00082E694E00E94660B8E0D9F1DCF91FF90C3
:1028E000EF90DF90CF90BF90AF909F908F907F90B0
:1028F0006F905F904F9008950F931F93CF93DF9346
:10290000EC018B010E941D112881398181110DC0BC
:102910002115310519F0C9010E940E221982188271
:102920001D821C821B821A8207C01D830C836BEBE5
:1029300072E0C9010E949323CE01DF91CF911F91D4
:102940000F910895CF92DF92EF92FF920F931F9312
:10295000CF93DF931F921F92CDB7DEB78C01C62EA7
:10296000FC0111821082138212821582148260E0AF
:1029700070E00E947C140E947C130C2C000CDD087B
:1029800097FD23C08C159D0501F189831A82F801FA
:10299000E480F580FFEFEF1AFF0AB701C8010E943B
:1029A0001D11882379F0F80120813181848195817E
:1029B000BE016F5F7F4F820F931F0E949323F80128
:1029C000F582E4820E947C13DBCFC8010F900F9048
:1029D000DF91CF911F910F91FF90EF90DF90CF90FB
:1029E0000895CF93C42F91E090931B0899E29093A0
:1029F0001A081092190810921808806890E00E9436
:102A0000610B6C2F89EE96E00E94F60289EE96E04B
:102A1000CF910C94CA0791E090931B0899E2909390
:102A20001A081092190810921808806890E00E9405
:102A3000610B89EE96E00E94CA0781E090E00E9457
:102A4000331389EE96E00E94AD020895CF93DF9391
:102A500091E090931B0899E290931A08109219083C
:102A600010921808806890E00E94610B89EE96E051
:102A70000E94CA0782E090E00E94331389EE96E03C
:102A80000E94AD02EC0189EE96E00E94AD0220E0CA
:102A900030E0382FCE01822B932BDF91CF91089518
:102AA000CF93DF9389EE96E00E94EA0982E10E94CB
:102AB0000B15843411F08031D1F581E08093F50657
:102AC000C091F806D091F906AE0160E070E00E9476
:102AD000F114D093F906C093F806C091F606D09190
:102AE000F7068091F506811102C00E945015AE01D3
:102AF00060E070E08FE00E94F114D093F706C0937D
:102B0000F60641E050E060E070E080E00E94F114E1
:102B100063E070E080E090E00E94531043E050E0FA
:102B200060E070E080E00E94F11481E001C080E08C
:102B3000DF91CF9108958091D3060E943410AC01AB
:102B400060E070E02AE08FEF94E00E948A0B69EB6E
:102B500072E08FEF94E00E94660B8091D3060E9492
:102B6000341021E08C32914008F420E0822F089547
:102B7000CF92DF92EF92FF92CF93DF93823018F0E3
:102B800064E173E00AC09091DD06691720F090912E
:102B9000DE06961760F466E273E08FEF94E0DF9153
:102BA000CF91FF90EF90DF90CF900C94760BE82FB1
:102BB000F0E0ED52F94FC089CC3008F072C0262FFA
:102BC00030E0D0E085E08C9FF0018D9FF00D112466
:102BD000E259F94F8381283C31059CF528E830E023
:102BE0006901C81AD10887FDD394CC0CDD1CCC0C2C
:102BF000DD1C0D2C000CEE08FF08848128E532E076
:102C0000281B310987FD3395220F331F220F331FF5
:102C1000C901330FAA0BBB0B9C01AD012C193D0957
:102C20004E095F09A62FB0E00E94461F24EB30E05A
:102C300040E050E00E94271FC20ED31EE41EF51E86
:102C40001EC048E850E06A01C81AD10887FDD39435
:102C5000CC0CDD1CCC0CDD1C2C153D0584F0448116
:102C600088E592E0841B910947FD9395880F991F91
:102C7000880F991F69018C159D050CF46C018FB7A5
:102C8000F89495E09C9FF0019D9FF00D1124E2596E
:102C9000F94F96E0C91AD108CC0CDD1CD282C18252
:102CA0008FBFDF91CF91FF90EF90DF90CF9008958D
:102CB0000F931F93CF93DF93162F072FC2EBD6E00E
:102CC0009C8521E020931B0890931A081092190804
:102CD00010921808AA85BB85ED91FC91119701907F
:102CE000F081E02D682FCD0119958A859B85DC0147
:102CF000ED91FC910190F081E02D602F19958A856E
:102D00009B85DC01ED91FC910190F081E02D612F1C
:102D100019958A859B85DF91CF911F910F910C9416
:102D2000CA07FC01848191E090931B0880931A08E4
:102D300010921908109218088485862B90E00E9442
:102D4000610B89EE96E00C94CA070F931F93CF9303
:102D50008C01C62F64600E9491166C2F6B7FC80196
:102D60000E94911683EC90E00197F1F7CF911F91AB
:102D70000F910895FC01A089B1898C91A689B7892A
:102D800082FD0FC09C91818D8F5F8F73228D821782
:102D900049F0218DDF01A20FB11D5D969C93818FBB
:102DA00008958C9108951F920F920FB60F921124DF
:102DB0000F900FBE0F901F901895CF93DF93282F81
:102DC00030E0F901E85BFC4F8491F901EE5FFC4FC4
:102DD000D491F901E454FD4FC491CC2391F08111B9
:102DE0000E94DD12EC2FF0E0EE0FFF1FEE55FD4FBD
:102DF000A591B491EC91ED2381E090E021F480E085
:102E000002C080E090E0DF91CF9108951F93CF93AF
:102E1000DF93282F30E0F901E85BFC4F8491F90142
:102E2000EE5FFC4FD491F901E454FD4FC491CC23E3
:102E3000C1F0162F81110E94DD12EC2FF0E0EE0F91
:102E4000FF1FE857FD4FA591B4919FB7F89411115A
:102E500004C08C91D095D82302C0EC91DE2BDC937A
:102E60009FBFDF91CF911F910895CF93DF9390E0A3
:102E7000FC01EE5FFC4F2491FC01E454FD4F849172
:102E8000882361F190E0880F991FFC01E259FD4F02
:102E9000C591D491FC01E857FD4FA591B491611102
:102EA00009C09FB7F8948881209582238883EC918C
:102EB0002E230BC0623061F49FB7F8948881322FC3
:102EC000309583238883EC912E2B2C939FBF06C0D3
:102ED0008FB7F894E8812E2B28838FBFDF91CF9195
:102EE00008958091AB069091AC060C940E2210923E
:102EF000C8031092C70348EE53E060E070E04093CF
:102F0000C9035093CA036093CB037093CC0387E14A
:102F100092E09093C6038093C50325E331E030939C
:102F2000D2032093D10324E331E03093D4032093E0
:102F3000D30320E331E03093D6032093D50321E37C
:102F400031E03093D8032093D70322E331E030936C
:102F5000DA032093D90326E331E03093DC03209396
:102F6000DB031092DE031092DF031092E003109255
:102F7000E103109265041092640440936604509338
:102F8000670460936804709369049093630480936A
:102F9000620425ED30E030936F0420936E0424ED3D
:102FA00030E0309371042093700420ED30E03093D2
:102FB00073042093720421ED30E030937504209364
:102FC000740422ED30E0309377042093760426EDEC
:102FD00030E0309379042093780410927B041092AF
:102FE0007C0410927D0410927E04109202051092CF
:102FF0000105409303055093040560930505709304
:103000000605909300058093FF0485EC90E0909373
:103010000C0580930B0584EC90E090930E05809353
:103020000D0580EC90E09093100580930F0581ECE6
:1030300090E0909312058093110582EC90E09093BC
:1030400014058093130586EC90E090931605809309
:103050001505109218051092190510921A05109274
:103060001B0580910B0290910C02A0910D02B09172
:103070000E028093D3069093D406A093D506B09306
:10308000D60680910F0290911002A0911102B0918A
:1030900012028093D7069093D806A093D906B093D6
:1030A000DA0684E08093DB0687E08093DC061092EA
:1030B000DD0684EB8093DE0686E18093DF0688E1FF
:1030C0008093E00687E18093E10689E18093E20640
:1030D000E091AA06EC3020F08FEF8093E30610C059
:1030E00081E08E0F8093AA06E093E30625E0E29F3D
:1030F000F0011124E259F94F88EB9BE09283818320
:10310000E091AA06EC3020F08FEF8093E40610C027
:1031100081E08E0F8093AA06E093E40685E0E89FA5
:10312000F0011124E259F94F88EB9BE092838183EF
:103130008CE08093B20684E28093B30686E08093AD
:10314000B40685E08093B5068FE18093B6068EE1E4
:103150008093B70683E28093B80682E28093B90633
:1031600085E48093BA0684E48093BB0680E4809370
:10317000BE061092C3061092C4061092C5061092A5
:10318000C6061092C7061092C8061092C906109281
:10319000CA06EEEFF6E08FEF9FEFDC01128213829A
:1031A000148215821682178210861186838794876F
:1031B000A587B6878787908BA18BB28B12861182E9
:1031C0001082739627E0EC3BF20741F78DE090E028
:1031D0000E947621FC011382128289E292E091839F
:1031E0008083118687E2848384E1828784E08387F9
:1031F0001486F093FB06E093FA061092FC061092F8
:10320000FD0685E280939D0510929F051092AC0605
:103210001092AB061092AE061092AD061092B00658
:103220001092AF0660E070E08BEA96E00E947C149A
:103230001092EC061092EB0688EE93E0A0E0B0E06E
:103240008093ED069093EE06A093EF06B093F00600
:1032500085E392E09093EA068093E9061092F506E2
:103260008BEE90E09093F9068093F80681E090E071
:103270009093F7068093F6060895789484B582605B
:1032800084BD84B5816084BD85B5826085BD85B50A
:10329000816085BD80916E00816080936E00109288
:1032A0008100809181008260809381008091810003
:1032B0008160809381008091800081608093800094
:1032C0008091B10084608093B1008091B0008160F2
:1032D0008093B000809191008260809391008091F2
:1032E0009100816080939100809190008160809333
:1032F00090008091A10082608093A1008091A10044
:1033000081608093A1008091A00081608093A000E3
:10331000809121018260809321018091210181604F
:103320008093210180912001816080932001809110
:103330007A00846080937A0080917A008260809322
:103340007A0080917A00816080937A0080917A007F
:10335000806880937A001092C10040E855E260E0F6
:1033600070E08FEF94E00E94FE0A61E08091B30666
:103370000E94351760E08091B3060E94061760E056
:103380008091B2060E94351789EE96E09093BD06B3
:103390008093BC060E94EA0980E090E1A0E0B0E0E2
:1033A0008093BF069093C006A093C106B093C20657
:1033B0008AE090E0A0E0B0E08093C3069093C4065A
:1033C000A093C506B093C60680E090E0A0E0B0E40C
:1033D0008093C7069093C806A093C906B093CA0607
:1033E00060E070E185E00E9458166FE979E380E0C3
:1033F0000E945816C2EBD6E08E0142E0742E51EFC7
:10340000A52E52E0B52E67E3862E63E0962E7BEC68
:10341000E72E77E0F72EF80194818281898F9A8FC9
:1034200061E00E94351761E08A8D0E943517F8012E
:10343000908586816E01FDE1CF0ED11C8D8F9E8F10
:1034400061E00E94351760E08E8D0E94351761E0C3
:103450008D8D0E9406176FB6F8948091C107811177
:1034600026C0F5018491F4012491E82FF0E0EE0FDD
:10347000FF1FE259FD4FA591B4919C91822F8923A2
:1034800021F461E085E30E94061761E085E30E9474
:1034900035178CB580618CBD8CB580648CBD61E0C6
:1034A00084E30E94351761E083E30E943517809121
:1034B000C1078F5F8093C1076FBEC7010197F1F706
:1034C00060E08D8D0E94061788E80E94EC0483E07E
:1034D0000E94EC0461E08D8D0E940617C7010197E0
:1034E000F1F7C6010E94F3047A940F5F1F4F2296F2
:1034F000711091CFC7EDD6E00BED16E060E0899139
:103500000E943517F6E0CB3DDF07C1F7C3EDD6E0EB
:103510002DEDC22E26E0D22E78012FEFE21AF20A0C
:10352000F801608170E0C80108960E948305F701E8
:10353000958183818A8B9B8B60E00E94351761E0C7
:103540008B890E94351760E08B890E9406172296AE
:103550008701CE14DF0401F7F8941092200189E06E
:103560008093210180E293E09093290180932801C8
:10357000109225011092240182E0809373007894C8
:1035800080939C051092A00580919D0560E00E94AB
:10359000351740E855E260E070E08FEF94E00E945C
:1035A000FE0A6091DB0670E083EE96E00E948305E0
:1035B00068E280E00E94B81561E082E00E94351761
:1035C00060E086E30E94351760E087E30E943517CC
:1035D0000E945015882319F06CEB72E002C069EC70
:1035E00072E08FEF94E00E94760B40E056E960E0D5
:1035F00070E082E694E00E94FE0A89EE96E00E9466
:10360000EA0985E0C82ED12CE12CF12C98E6292E70
:103610003324339466EF72E08FEF94E00E94660BE0
:103620008091D7060E94DD16892B09F4BFC00E9445
:10363000281C26E030E040E050E00E94271FEB010C
:1036400021960E94281C2AE030E040E050E00E94D1
:10365000271F8B010F5F1F4F0E94281C23E030E0C3
:1036600040E050E00E94271F6F5F7F4F8F4F9F4FBA
:103670000E94071E20E030E040E251E40E949120C9
:103680006093C2077093C3078093C4079093C507E4
:1036900062E073E08FEF94E00E94660BAE0160E0A1
:1036A00070E02AE08FEF94E00E948A0B69EB72E0F1
:1036B0008FEF94E00E94660BC330D10541F4C10145
:1036C000B8010E94961FCB010E940B0C1CC0C43095
:1036D000D10518F5C130D105D9F48AE0809FB00139
:1036E000819F700D112480E090E00E94051E9B01D7
:1036F000AC016091C2077091C3078091C40790919B
:10370000C5070E94D00C0E941C0A0E943C0282CF76
:103710002297C9F788E99EEFD3CFC430D10581F451
:10372000B80180E090E00E94051E9B01AC016BEDAA
:103730007FE089EC90E40E9491200E94510EE3CF3B
:10374000259709F70E941C0A0E94281CA7019601D0
:103750000E94271FDC01CB010196A11DB11D28EE9F
:1037600033E0829FE001839FD00D929FD00D112402
:103770000E948D104B015C012E01612C712C0E9466
:103780008D10DC01CB0188199909AA09BB098415A0
:103790009505A605B70508F0B6CF0E94260862E396
:1037A00070E080E090E00E945310E9CF62E370E0A7
:1037B00080E090E00E94531033CF8F929F92AF929F
:1037C000BF92CF92DF92EF92FF92CF93DF93EC0103
:1037D000688179818A819B816115710581059105D7
:1037E00021F464E279ED8BE597E02DE133EF41E0E0
:1037F00050E00E94271F49015A019B01AC01A7EA32
:10380000B1E40E94461F6B017C01ACEEB4EFA50150
:1038100094010E94541FDC01CB018C0D9D1DAE1D37
:10382000BF1DB7FF03C00197A109B04888839983E2
:10383000AA83BB83BC01CD019F77DF91CF91FF901D
:10384000EF90DF90CF90BF90AF909F908F900895B2
:103850008F929F92AF92BF92CF92DF92EF92FF92A0
:103860006091010270910202809103029091040222
:10387000611571058105910521F464E279ED8BE50F
:1038800097E02DE133EF41E050E00E94271F49010E
:103890005A019B01AC01A7EAB1E40E94461F6B01EB
:1038A0007C01ACEEB4EFA50194010E94541FDC0131
:1038B000CB018C0D9D1DAE1DBF1DB7FF03C0019731
:1038C000A109B0488093010290930202A0930302E1
:1038D000B0930402BC01CD019F77FF90EF90DF9081
:1038E000CF90BF90AF909F908F900895609301020A
:1038F0007093020280930302909304020895662756
:1039000077270C94831C8F929F92AF92BF92CF9295
:10391000DF92EF92FF920F931F93CF93DF93EC010F
:103920006B016115710519F0FB01918380837E01A4
:10393000FFEFEF1AFF0A0881802F90E00E94DF1D41
:10394000892B11F0E701F3CF0D3239F47E0182E0CB
:10395000E80EF11C098111E008C00B3229F47E0148
:1039600092E0E90EF11C098110E0E701219743E0A4
:1039700050E06AE372E0CE010E94E81D892BC1F499
:10398000239645E050E065E372E0CE010E94E81D19
:10399000892B09F42596C114D10419F0F601D183BD
:1039A000C0831111F6C060E070E080E89FE7FAC0C4
:1039B00043E050E062E372E0CE010E94E81D892BF3
:1039C00059F4C114D10409F4E9C0F2E0EF0EF11C7E
:1039D000F601F182E082E2C020E030E0A901C0E01F
:1039E000D0E0F70160EDA62EA00E89E08A1530F137
:1039F000912F9260B92E812F887012FF04C081111F
:103A000024C0219622C081112197A5E0B0E00E9438
:103A1000461FDC01CB01880F991FAA1FBB1F9C0109
:103A2000AD012A0D311D411D511D283989E9380785
:103A3000480789E1580748F0166006C09EEFA912B2
:103A40000AC013FD40C01860B12E8FEFE81AF80AC3
:103A500000811B2DC6CF802F8F7D8534A1F58081FD
:103A60008D3211F4106106C08B3221F0319661E085
:103A700070E004C08181329662E070E080538A3049
:103A800018F0E61BF70B1FC060E070E060389CE0A8
:103A900079075CF4DB01AA0FBB1FAA0FBB1F6A0FDB
:103AA0007B1F660F771F680F711D3196DF0111971D
:103AB0008C9180538A3050F314FF03C07195619547
:103AC0007109C60FD71F11FF08C0C114D10429F016
:103AD000CF010197F60191838083CA01B9010E9449
:103AE000051E212F2370233019F04B015C0106C005
:103AF0004B015C01B7FAB094B7F8B09420E030E025
:103B0000A901C501B4010E94001E882309F43EC02A
:103B1000D7FF06C0D195C195D10901E512E002C0D9
:103B200009E612E06801F8E1CF1AD10890E2E92E27
:103B3000F12CCE15DF0574F0F801259135914591F2
:103B40005491C501B4010E94661E4B015C01CE195F
:103B5000DF09EFCF04501109F594E7940C151D050A
:103B600041F78A2D880F8B2D881F8F3F49F020E069
:103B700030E0A901C501B4010E94001E811106C0F8
:103B800082E290E090931F0880931E08C501B40163
:103B900009C060E070E080E89FEF04C060E070E082
:103BA00080EC9FE7DF91CF911F910F91FF90EF90F5
:103BB000DF90CF90BF90AF909F908F90089591111C
:103BC0000C94D31E803219F089508550C8F708959F
:103BD000FB01DC014150504088F08D9181341CF094
:103BE0008B350CF4805E659161341CF06B350CF400
:103BF000605E861B611171F3990B0895881BFCCFE1
:103C00000E94421E08F481E00895E89409C097FBE1
:103C10003EF490958095709561957F4F8F4F9F4FA3
:103C20009923A9F0F92F96E9BB279395F6958795E7
:103C300077956795B795F111F8CFFAF4BB0F11F4AA
:103C400060FF1BC06F5F7F4F8F4F9F4F16C0882351
:103C500011F096E911C0772321F09EE8872F762F87
:103C600005C0662371F096E8862F70E060E02AF0C8
:103C70009A95660F771F881FDAF7880F96958795B4
:103C800097F90895990F0008550FAA0BE0E8FEEF89
:103C900016161706E807F907C0F012161306E40710
:103CA000F50798F0621B730B840B950B39F40A2609
:103CB00061F0232B242B252B21F408950A2609F4E7
:103CC000A140A6958FEF811D811D08950E94791E48
:103CD0000C94ED1E0E94DF1E38F00E94E61E20F0BC
:103CE000952311F00C94D61E0C94DC1E11240C9418
:103CF000211F0E94FE1E70F3959FC1F3950F50E0A7
:103D0000551F629FF001729FBB27F00DB11D639F8D
:103D1000AA27F00DB11DAA1F649F6627B00DA11D33
:103D2000661F829F2227B00DA11D621F739FB00DD9
:103D3000A11D621F839FA00D611D221F749F332749
:103D4000A00D611D231F849F600D211D822F762FE2
:103D50006A2F11249F5750409AF0F1F088234AF0BF
:103D6000EE0FFF1FBB1F661F771F881F915050402B
:103D7000A9F79E3F510580F00C94D61E0C94211F8C
:103D80005F3FE4F3983ED4F3869577956795B795B2
:103D9000F795E7959F5FC1F7FE2B880F911D9695CC
:103DA000879597F9089599278827089597F99F6728
:103DB00080E870E060E008959FEF80EC08950024B3
:103DC0000A941616170618060906089500240A9480
:103DD00012161306140605060895092E0394000C06
:103DE00011F4882352F0BB0F40F4BF2B11F460FF95
:103DF00004C06F5F7F4F8F4F9F4F089557FD9058BE
:103E0000440F551F59F05F3F71F04795880F97FB9E
:103E1000991F61F09F3F79F0879508951216130658
:103E20001406551FF2CF4695F1DF08C01616170687
:103E30001806991FF1CF86957105610508940895BC
:103E4000E894BB2766277727CB0197F90895052EBD
:103E500097FB1EF400940E943E1F57FD07D00E945E
:103E6000591F07FC03D04EF40C943E1F509540950B
:103E7000309521953F4F4F4F5F4F08959095809516
:103E8000709561957F4F8F4F9F4F08950E947B1FC4
:103E9000A59F900DB49F900DA49F800D911D11249E
:103EA0000895B7FF0C94461F0E94461F821B930B78
:103EB0000895A1E21A2EAA1BBB1BFD010DC0AA1F6B
:103EC000BB1FEE1FFF1FA217B307E407F50720F083
:103ED000A21BB30BE40BF50B661F771F881F991FFE
:103EE0001A9469F760957095809590959B01AC0147
:103EF000BD01CF010895A29FB001B39FC001A39F50
:103F0000700D811D1124911DB29F700D811D112412
:103F1000911D0895991B79E004C0991F961708F028
:103F2000961B881F7A95C9F780950895AA1BBB1B1D
:103F300051E107C0AA1FBB1FA617B70710F0A61BA9
:103F4000B70B881F991F5A95A9F780959095BC01CA
:103F5000CD010895EE0FFF1F881F8BBF0790F691CC
:103F6000E02D19945058BB27AA270E94CA1F0C9411
:103F7000ED1E0E94DF1E38F00E94E61E20F039F48C
:103F80009F3F19F426F40C94DC1E0EF4E095E7FB39
:103F90000C94D61EE92F0E94FE1E58F3BA17620732
:103FA00073078407950720F079F4A6F50C94201F79
:103FB0000EF4E0950B2EBA2FA02D0B01B901900144
:103FC0000C01CA01A0011124FF27591B99F0593F88
:103FD00050F4503E68F11A16F040A22F232F342FD0
:103FE0004427585FF3CF469537952795A795F0401E
:103FF0005395C9F77EF41F16BA0B620B730B840B33
:10400000BAF09150A1F0FF0FBB1F661F771F881FEA
:10401000C2F70EC0BA0F621F731F841F48F4879542
:1040200077956795B795F7959E3F08F0B0CF939534
:10403000880F08F09927EE0F9795879508950E94AD
:10404000DF1E60F080E891E009F49EEF0E94E61E1A
:1040500028F040E851E071F45EEF0CC00C94DC1ED7
:104060000C94201FE92FE0780E94FE1E40F3092ED9
:10407000052AB1F3261737074807590738F00E2EDF
:1040800007F8E02569F0E025E0640AC0EF6307F86F
:10409000009407FADB01B9019D01DC01CA01AD0101
:1040A000EF930E94A8200E94ED1E0E9462205F9163
:1040B000552339F02BED3FE049E450FD49EC0C94D9
:1040C000B31F0895DF93DD27B92FBF7740E85FE383
:1040D0001616170648075B0718F4D92F0E946521AA
:1040E0009F938F937F936F930E946D21ECE2F1E099
:1040F0000E9439210E94ED1E2F913F914F915F91B7
:104100000E94791EDD2351F09058A2EA2AED3FE08B
:1041100049EC5FE3D0785D270E94CA1FDF910C94C1
:10412000ED1E0E94A5200C94ED1E0E94E61E58F084
:104130000E94DF1E40F029F45F3F29F00C94D61E48
:1041400051110C94211F0C94DC1E0E94FE1E68F37A
:104150009923B1F3552391F3951B550BBB27AA2740
:1041600062177307840738F09F5F5F4F220F331F7A
:10417000441FAA1FA9F335D00E2E3AF0E0E832D042
:1041800091505040E695001CCAF72BD0FE2F29D045
:10419000660F771F881FBB1F261737074807AB0717
:1041A000B0E809F0BB0B802DBF01FF2793585F4F8C
:1041B0003AF09E3F510578F00C94D61E0C94211FC6
:1041C0005F3FE4F3983ED4F3869577956795B7956E
:1041D000F7959F5FC9F7880F911D9695879597F979
:1041E0000895E1E0660F771F881FBB1F62177307F2
:1041F0008407BA0720F0621B730B840BBA0BEE1F07
:1042000088F7E09508950E940A216894B1110C94F2
:10421000211F08950E94061F88F09F5798F0B92F1C
:104220009927B751B0F0E1F0660F771F881F991FEB
:104230001AF0BA95C9F714C0B13091F00E94201F4E
:10424000B1E008950C94201F672F782F8827B85F5E
:1042500039F0B93FCCF3869577956795B395D9F743
:104260003EF490958095709561957F4F8F4F9F4F4D
:104270000895DF93CF931F930F93FF92EF92DF92F6
:104280007B018C01689406C0DA2EEF010E94791E32
:10429000FE01E894A5912591359145915591A6F39C
:1042A000EF010E94CA1FFE019701A801DA9469F785
:1042B000DF90EF90FF900F911F91CF91DF910895C4
:1042C0000E94421E08F48FEF08959B01AC0160E04C
:1042D00070E080E89FE30C9491209B01AC010C946A
:1042E000661E0E94421E880B990B08950F931F9320
:1042F000CF93DF938230910510F482E090E0E0915B
:104300002208F091230820E030E0A0E0B0E03097F0
:1043100019F1408151810281138148175907C8F072
:104320008417950769F4109731F012960C93129741
:1043300013961C9327C0009322081093230822C0D1
:104340002115310519F04217530718F49A01BD01E0
:10435000EF01DF01F801DBCF21153105F9F0281B52
:10436000390B2430310580F48A819B8161157105F8
:1043700021F0FB019383828304C0909323088093F0
:104380002208FE01329644C0FE01E20FF31F819322
:10439000919322503109398328833AC02091200813
:1043A00030912108232B41F420910702309108021B
:1043B00030932108209320082091050230910602B5
:1043C0002115310541F42DB73EB7409109025091B6
:1043D0000A02241B350BE0912008F0912108E21716
:1043E000F307A0F42E1B3F0B2817390778F0AC0118
:1043F0004E5F5F4F2417350748F04E0F5F1F5093F5
:104400002108409320088193919302C0E0E0F0E0FE
:10441000CF01DF91CF911F910F910895CF93DF933B
:10442000009709F481C0FC01329713821282A09197
:104430002208B0912308109781F420813181820FE6
:10444000931F20912008309121082817390751F532
:10445000F0932108E093200867C0ED0120E030E0F0
:10446000CE17DF0740F44A815B819E01411551055B
:10447000F1F0EA01F5CFD383C28340815181840FEB
:10448000951FC817D90759F488819981840F951F02
:104490000296918380838A819B81938382832115F5
:1044A000310529F4F0932308E09322083DC0E90187
:1044B000FB83EA8349915991C40FD51FEC17FD077F
:1044C00061F480819181840F951F0296E90199839F
:1044D0008883828193819B838A83E0E0F0E0129657
:1044E0008D919C911397009719F0FD01DC01F7CF96
:1044F0008D919C9111979D012E5F3F4F820F931FCD
:1045000020912008309121082817390769F4309745
:1045100029F4109223081092220802C013821282FA
:10452000B0932108A0932008DF91CF9108956F9256
:104530007F928F929F92AF92BF92CF92DF92EF9233
:10454000FF920F931F93CF93DF93009789F4CB01D2
:10455000DF91CF911F910F91FF90EF90DF90CF905F
:10456000BF90AF909F908F907F906F900C9476212A
:10457000FC01E60FF71F9C0122503109E217F307F7
:1045800008F4A9C0EC01D9010D911C9111970617EF
:104590001707B0F00530110508F49BC0C801049757
:1045A0008617970708F495C002501109061B170BD0
:1045B000019311936D937C93CF010E940E2289C0C9
:1045C0005B01A01AB10A4C01800E911EA091220835
:1045D000B0912308612C712CE12CF12C109709F477
:1045E00046C08D919C911197A815B905B1F56C0144
:1045F00042E0C40ED11CCA14DB0478F14C018A18C5
:104600009B08640142E0C40ED11C1296BC90129724
:104610001396AC91B5E0CB16D10440F0B282A383DF
:1046200091828082D9016D937C9309C00E5F1F4FE8
:10463000800F911FF90191838083EB2DFA2FE114F4
:10464000F10431F0D7011396FC93EE93129741C019
:10465000F0932308E09322083CC06816790608F41A
:104660003C017D0112960D90BC91A02DB7CF809199
:1046700020089091210888169906E1F466167706BD
:10468000C8F48091050290910602009741F48DB71D
:104690009EB74091090250910A02841B950BE817BE
:1046A000F907C8F4F0932108E0932008F901718319
:1046B00060830FC0CB010E9476217C01009759F0E6
:1046C000A801BE010E948123CE010E940E22C701D3
:1046D00004C0CE0102C080E090E0DF91CF911F9135
:1046E0000F91FF90EF90DF90CF90BF90AF909F9091
:1046F0008F907F906F90089581E090E0F8940C94F3
:104700009A23FB01DC0102C001900D924150504000
:10471000D8F70895FB01DC018D91019080190110FB
:10472000D9F3990B0895FB01DC0101900D92002053
:10473000E1F7089511E0C8ECD1E000E006C0802F59
:10474000FE010E94AA1F2196011DC93CD10780E0ED
:084750000807A9F7F894FFCF58
:10475800FF01000000000024082000363738391B0C
:104768001D1A1C000000006F03210FFC01BC032D63
:10477800020B021F02000000002803210F2503205E
:104788000F00000000F602C90225039D02C102AD18
:10479800029E02496E76616C6964206D6F746F7257
:1047A800206964210057616974696E6720666F72B9
:1047B80020537472696E670053455249414C322048
:1047C800415641494C41424C450052656365697602
:1047D8006564204F4E00706F735F783A2000706FE9
:1047E800735F793A20007674733A20004452495630
:1047F800494E470053656E74206D75736963207266
:104808006571756573743A20000D0A00466F756E00
:10481800642073656E736F72004E6F205443533378
:104828003437323520666F756E64202E2E2E206345
:104838006865636B20796F757220636F6E6E656350
:1048480074696F6E73005374617274696E672E2E8B
:104858002E004D4F563A20006E616E00696E66005C
:104868006F766600496E76616C696420736572764E
:104878006F2069642100536572766F20616E676CE2
:1048880065206973206F7574206F662072616E678A
:044898006521000096
:00000001FF
