:100000000C94B2010C94E3010C94E3010C94E30111
:100010000C94E3010C94E3010C94E3010C94E301D0
:100020000C94E3010C942D0B0C942D0B0C942D0BC4
:100030000C94E3010C9473040C94E3010C94E3011D
:100040000C94E3010C947C070C94E3010C94E30101
:100050000C94E3010C94E3010C94E3010C9406105E
:100060000C94E3010C94E2050C94B8050C94E301A4
:100070000C94E3010C94E3010C94E3010C94E30170
:100080000C94E3010C94E3010C94E3010C94E30160
:100090000C94E3010C94E3010C94E3010C94240808
:1000A0000C94E3010C94E3010C94E3010C94E30140
:1000B0000C94E3010C94E3010C94E3010C940C0602
:1000C0000C94E3010C94E3010C94E3010C948E0571
:1000D0000C9464050C94E3010C943A050C941005FF
:1000E0000C94E3010E0A110A000A040A0A0A480ADB
:1000F000150A190A1F0A230A270A2D0A310A350A86
:10010000480A3B0A3F0A430AF40BF90BFE0B080CA2
:10011000120C8B0C1C0C240C2C0C360C400C4A0CB6
:10012000590C630C8B0C6D0C770C810C0C942D0A04
:100130000C94000A0C94350A0C9484030C947003FC
:100140000C94400C0C9461030C94FE0B0C944A0C20
:100150000C940E0A0C9456150C942C0C0C94100252
:100160000C94E8030C94310A0C943F0A0C9433026B
:100170000C94110A0C943B0A0C94120C0C94F40B82
:100180000C946D0C0C94480A0C941F020C9450159E
:100190000C945E030C94240C0C94F90B0C940A0A36
:1001A0000C94080C0C94270A0C948C030C94040AED
:1001B0000C94230A0C941C0C0C941F0A0C94190A1E
:1001C0000C948D020C94630C0C94430A0C94B903A8
:1001D0000C94E5010C94810C0C94770C0C94600346
:1001E0000C94E6010C948B0C0C94150A0C94DA0216
:1001F0000C94590C0C9441020C945F030C94360C33
:100200000C94ED034E414E494E495459494E46CD4A
:10021000CCCC3D0AD7233C17B7D13877CC2B3295BD
:1002200095E6241FB14F0A000020410000C842009B
:10023000401C4620BCBE4CCA1B0E5AAEC59D740263
:1002400000002100240027002A002D003000330088
:1002500001010000040107010A010000220025003D
:1002600028002B002E00310034000201000005019F
:1002700008010B01000020002300260029002C00AB
:100280002F003200000100000301060109010505ED
:100290000505070508080808020202020A0A0808FC
:1002A000040404040101010101010101030303032A
:1002B00003030303040707070C0C0C0C0C0C0C0CB9
:1002C0000202020206060606060606060B0B0B0BCA
:1002D0000B0B0B0B010210202008081020401020EF
:1002E00040800201020108040201010204081020FA
:1002F00040808040201008040201800402018040F8
:100300002010080402010804020101020408102060
:100310004080010204081020408000000A0B0209FE
:100320000C0D0E080703040100000000000000008F
:1003300000000000000000000000000000000000BD
:10034000000000000000121110000000000000007A
:10035000000000000000000000000000000000009D
:100360005615501511241FBECFEFD1E2DEBFCDBF11
:1003700000E00CBF13E0A0E0B2E0E4E6FCE300E044
:100380000BBF02C007900D92A434B107D9F728E043
:10039000A4E4B3E001C01D92A132B207E1F711E07D
:1003A000C1EBD1E000E006C021970109802FFE01DA
:1003B0000E94D51AC03BD10780E00807A9F70E9428
:1003C00050100C94201E0C9400000895CF92DF92E0
:1003D000EF92FF920F931F93CF93DF936C017A01FB
:1003E0008B01C0E0D0E0CE15DF0581F0D8016D9122
:1003F0008D01D601ED91FC910190F081E02DC601B7
:100400001995892B11F02196EECF7E01C701DF915E
:10041000CF911F910F91FF90EF90DF90CF900895B3
:10042000FC01538D448D252F30E0842F90E0821BFA
:10043000930B541710F0CF96089501970895FC017F
:10044000918D828D981761F0828DDF01A80FB11D0B
:100450005D968C91928D9F5F9F73928F90E008952F
:100460008FEF9FEF0895FC01918D828D981731F0E9
:10047000828DE80FF11D858D90E008958FEF9FEF3D
:100480000895FC01918D228D892F90E0805C9F4F13
:10049000821B91098F73992708958FE194E00E9440
:1004A000410221E0892B09F420E0822F08958CEB92
:1004B00094E00E94410221E0892B09F420E0822F80
:1004C000089589E595E00E94410221E0892B09F415
:1004D00020E0822F0895FC01848DDF01A80FB11D5B
:1004E000A35ABF4F2C91848D90E001968F7399276A
:1004F000848FA689B7892C93A089B1898C91837048
:1005000080648C93938D848D981306C00288F38940
:10051000E02D80818F7D80830895EF92FF920F936D
:100520001F93CF93DF93EC0181E0888F9B8D8C8D9F
:10053000981305C0E889F989808185FD26C0F62ECB
:100540000B8D10E00F5F1F4F0F731127E02E8C8D66
:10055000E8120CC00FB607FCFACFE889F989808150
:1005600085FFF5CFCE010E946B02F1CF8B8DFE018E
:10057000E80FF11DE35AFF4FF0829FB7F8940B8FFD
:10058000EA89FB89808180620AC09FB7F894EE896E
:10059000FF896083E889F989808183708064808322
:1005A0009FBF81E090E0DF91CF911F910F91FF906D
:1005B000EF900895CF93DF93EC01888D8823C9F0E5
:1005C000EA89FB89808185FD05C0A889B9898C915C
:1005D00086FD0FC00FB607FCF5CF808185FFF2CFF7
:1005E000A889B9898C9185FFEDCFCE010E946B025D
:1005F000E7CFDF91CF910895E0E0F0E0199480E03B
:1006000090E0892B21F00E946102811119C080E0E5
:1006100090E0892B41F080E090E0892B21F00E944E
:100620000000811110C00E94570281110FC080E0AC
:1006300090E0892B81F00E944D0281110AC008953B
:100640000E940000E4CF0E940000EDCF0E94FC0257
:10065000EECF0C940000089585ED8093BC0080914E
:10066000BC0084FDFCCF1092F20308954091A103D9
:10067000262F30E0240F311D21323105DCF420918A
:10068000F2032430C9F4FC0180E090E0861758F4AE
:100690003091A1032191DC01A158BC4FA30FB11DE2
:1006A0002C930196F3CF8091A103680F6093A1036F
:1006B00080E0089581E0089582E008950895089506
:1006C0000895E091F4038091F303E81730F4F0E02B
:1006D000EB50FC4F808190E008958FEF9FEF0895DD
:1006E0009091F4038091F303981750F4E92FF0E010
:1006F000EB50FC4F208130E09F5F9093F40302C0E9
:100700002FEF3FEFC90108958091F30390E020910E
:10071000F403821B91090895CF92DF92EF92FF922A
:100720000F931F93CF93DF937C01CB018A0120911C
:100730001804222389F0EB016B01C40ED51ECC15E1
:10074000DD0569F06991D701ED91FC910190F0818F
:10075000E02DC7011995F3CF642F0E943603C8011D
:10076000DF91CF911F910F91FF90EF90DF90CF908D
:100770000895CF93DF931F92CDB7DEB769832091A1
:1007800018042223D1F020911504203240F021E0FA
:1007900030E0FC013383228380E090E015C080913B
:1007A0001604E82FF0E0E15AFC4F998190838F5FA7
:1007B000809316048093150405C061E0CE01019674
:1007C0000E94360381E090E00F90DF91CF91089571
:1007D00080E090E008950E94021E0F931F93CF9334
:1007E000DF938C01C62FD62FD07FD1606D2F0E9452
:1007F000EB0A6D2FC8010E94FF0A80E1C89FB0017B
:100800001124C62FC1606C2FC8010E94EB0A6C2F07
:10081000C8010E94FF0A81E090E0DF91CF911F9113
:100820000F9108950F931F93CF93DF938C01EB01EA
:10083000FC0180819181009739F06881798161158F
:100840007105A1F40E94941C88819981F80191831B
:1008500080838A819B81938382838C819D81958310
:100860008483198218821B821A820FC0F801428188
:1008700053812C813D814217530720F30E94191E9A
:100880008C819D81F801958384831D821C82DF9178
:10089000CF911F910F9108950F931F93CF93DF93E3
:1008A000EC0188819981009729F02A813B812617E4
:1008B000370788F48B016F5F7F4F0E941D1D0097E3
:1008C00061F0998388831B830A832C813D81232BCC
:1008D00011F4FC01108281E001C080E0DF91CF9132
:1008E0001F910F9108951F920F920FB60F9211242E
:1008F0000BB60F922F933F934F935F936F937F931A
:100900008F939F93AF93BF93EF93FF938091C8030F
:100910009091C903A091CA03B091CB03892B8A2B74
:100920008B2B49F19091C703809100008927809318
:1009300000008091C8039091C903A091CA03B091AF
:10094000CB03181619061A061B060CF056C0809128
:10095000C8039091C903A091CA03B091CB0301973A
:10096000A109B1098093C8039093C903A093CA0356
:10097000B093CB0342C080910002EFE3F2E0E49138
:100980009FEF90930002E230C9F050F4EE2399F00B
:10099000E13081F590916F009D7F90936F002AC0A8
:1009A000E43019F1E0F0E53029F5909173009D7F76
:1009B000909373001FC010926E001CC09091700045
:1009C0009D7F9093700091E09093B0009091B10062
:1009D000987F94609093B1001092B3000BC09091F7
:1009E00071009D7F9093710005C0909172009D7F72
:1009F0009093720060E00E94600BFF91EF91BF91B5
:100A0000AF919F918F917F916F915F914F913F91A6
:100A10002F910F900BBE0F900FBE0F901F90189547
:100A20001F920F920FB60F9211240BB60F922F93B5
:100A30003F934F935F936F937F938F939F93AF9366
:100A4000BF93EF93FF938FE194E00E946B02FF91BD
:100A5000EF91BF91AF919F918F917F916F915F9136
:100A60004F913F912F910F900BBE0F900FBE0F90A3
:100A70001F9018951F920F920FB60F9211240BB66C
:100A80000F922F933F934F935F936F937F938F9327
:100A90009F93AF93BF93EF93FF938FE194E00E94F6
:100AA000140BFF91EF91BF91AF919F918F917F9127
:100AB0006F915F914F913F912F910F900BBE0F90CF
:100AC0000FBE0F901F9018951F920F920FB60F92A6
:100AD00011240BB60F922F933F934F935F936F9315
:100AE0007F938F939F93AF93BF93EF93FF938CEB81
:100AF00094E00E946B02FF91EF91BF91AF919F91A3
:100B00008F917F916F915F914F913F912F910F90B6
:100B10000BBE0F900FBE0F901F9018951F920F9253
:100B20000FB60F9211240BB60F922F933F934F9352
:100B30005F936F937F938F939F93AF93BF93EF9345
:100B4000FF938CEB94E00E94140BFF91EF91BF9107
:100B5000AF919F918F917F916F915F914F913F9155
:100B60002F910F900BBE0F900FBE0F901F901895F6
:100B70001F920F920FB60F9211240BB60F922F9364
:100B80003F934F935F936F937F938F939F93AF9315
:100B9000BF93EF93FF9389E595E00E946B02FF916D
:100BA000EF91BF91AF919F918F917F916F915F91E5
:100BB0004F913F912F910F900BBE0F900FBE0F9052
:100BC0001F9018951F920F920FB60F9211240BB61B
:100BD0000F922F933F934F935F936F937F938F93D6
:100BE0009F93AF93BF93EF93FF9389E595E00E94A6
:100BF000140BFF91EF91BF91AF919F918F917F91D6
:100C00006F915F914F913F912F910F900BBE0F907D
:100C10000FBE0F901F9018951F920F920FB60F9254
:100C200011240BB60F922F933F934F935F936F93C3
:100C30007F938F939F93AF93BF93EF93FF93809195
:100C4000F7050E94370B2091FB053091FC052F5FC3
:100C50003F4F3093FC052093FB059091FA059536A4
:100C600018F096E09093F6059091F6059430C9F14E
:100C700028F4923069F09330D1F05EC0953009F4D9
:100C800051C0963009F058C091E09093C70651C00A
:100C9000811152C02091FB053091FC0524363105AD
:100CA00008F442C01092C7061092FA051CC08130A9
:100CB00009F042C0E091FA0591E09E0F9093FA0589
:100CC000F0E02091FB053091FC05EE0FFF1FEA508C
:100CD000FA4F308727831092FC051092FB0594E0B1
:100CE00029C0811117C0E091FA0591E09E0F909301
:100CF000FA05F0E02091FB053091FC05EE0FFF1F97
:100D0000EA50FA4F308727831092FC051092FB05BA
:100D100093E010C02091FB053091FC05253631058C
:100D200058F007C0811108C01092FC051092FB0515
:100D300003C095E09093F6059091F9059923B9F0D9
:100D400081110AC08091F805882321F08091F8056F
:100D500061E009C02F9A0BC08091F805882331F01B
:100D60008091F80560E00E94600B01C02F98FF9110
:100D7000EF91BF91AF919F918F917F916F915F9113
:100D80004F913F912F910F900BBE0F900FBE0F9080
:100D90001F9018958F929F92AF92BF92CF92DF9241
:100DA000EF92FF920F931F93CF93DF93EC016A01B1
:100DB0007B0120E030E04FE753E4C701B6010E9419
:100DC000A5194B015C0120E030E0A9010E94F21B53
:100DD00018161CF4C501B40103C0C501B401905834
:100DE0000E94BC1B8B0120E030E0A901C701B601C5
:100DF0000E94F21B181614F460E001C061E08981C2
:100E00000E94600B0F3F110509F01CF4B801772711
:100E100002C06FEF70E08881DF91CF911F910F9139
:100E2000FF90EF90DF90CF90BF90AF909F908F900A
:100E30000C94CB0B8EBD00000DB407FEFDCF8EB51C
:100E400008951F93CF93DF93EC01162F88818C3088
:100E500008F04DC061E0812F0E948F0BE88195E082
:100E60009E9FF0011124E853F94F1F738081807C0D
:100E7000182B10831382E8819E9FF0011124E85300
:100E8000F94F148288816CE00E94C91A9CE0899F06
:100E9000A001112420E030E095E0BA01620F731F39
:100EA000969FF001979FF00D1124E853F94F608150
:100EB00066FD13C02F5F3F4F2C30310571F7811154
:100EC0000CC01092800082E0809381001092850017
:100ED0001092840086BB80936F00E88185E0E89FD4
:100EE000F0011124E853F94F808180648083888168
:100EF000DF91CF911F9108951F920F920FB60F921D
:100F000011240BB60F922F933F934F935F936F93E0
:100F10007F938F939F93AF93BF93EF93FF938091B2
:100F2000C60387FF05C0109285001092840016C08A
:100F30002091C603022E000C330B8091040790E031
:100F4000281739075CF43091C60325E03203F0011D
:100F50001124E853F94F808186FD15C08091C603A6
:100F60008F5F8093C6032091C603022E000C330BC3
:100F70008091040790E02817390794F48091C60304
:100F80008C302CF10DC03091C6033203F0011124D6
:100F9000E853F94F808160E08F730E94600BDECFD1
:100FA000809184009091850084349C4918F480E4F9
:100FB0009CE905C0809184009091850004969093EF
:100FC0008900809388008FEF8093C6032AC04091E8
:100FD0008400509185003091C60325E03203F00172
:100FE0001124E853F94F81819281840F951F9093CA
:100FF0008900809388003091C6033203F0011124E8
:10100000E853F94F808186FF0CC03091C60332034C
:10101000F0011124E853F94F808161E08F730E9441
:10102000600BFF91EF91BF91AF919F918F917F9155
:101030006F915F914F913F912F910F900BBE0F9049
:101040000FBE0F901F9018951F920F920FB60F9220
:1010500011240BB60F922F933F934F935F936F938F
:101060007F938F939F93AF93BF93EF93FF93809161
:10107000B900887F803609F49CC068F5883209F48D
:101080005BC090F4803109F454C038F4882309F42B
:10109000F6C0883009F44DC0F6C0883109F44CC060
:1010A000803209F45DC0EFC0803409F468C048F4B0
:1010B000803309F455C0883309F0E5C08093F0030C
:1010C000D8C0803509F44FC0883509F45DC0883434
:1010D00009F0D9C0D6C0883909F4C7C0A8F4883748
:1010E00009F467C038F4883609F463C0803709F41E
:1010F00060C0C9C0883809F4B8C0803909F45FC03D
:10110000803809F0C0C05BC0803B09F486C038F469
:10111000803A09F466C0883A09F47FC0B4C0803CC4
:1011200009F4A7C0883C09F4A4C0883B09F48AC02C
:10113000AAC08091ED0310C09091EF038091EE035F
:10114000981770F5E091EF0381E08E0F8093EF0325
:10115000F0E0E453FC4F80818093BB0085EC86C0B7
:101160008093F0038EC0E091EF0381E08E0F8093B7
:10117000EF038091BB00F0E0E453FC4F808390913B
:10118000EF038091EE036EC0E091EF0381E08E0FDC
:101190008093EF038091BB00F0E0E453FC4F808329
:1011A0008091F10381116DC081E08093EC0384EAAA
:1011B00061C083E08093F2031092C503CFCF80918A
:1011C000C503803208F051C0E091C50381E08E0F65
:1011D0008093C5038091BB00F0E0EB55FC4F80830A
:1011E000BDCF85EC8093BC001092F2038091C503C3
:1011F000803230F4E091C503F0E0EB55FC4F1082F3
:101200006091C50370E0E091A303F091A40385EA27
:1012100093E019951092C50336C084E08093F203E1
:101220001092A2031092A103E0919F03F091A003FA
:1012300019958091A103811105C081E08093A103DC
:1012400010927F03E091A20381E08E0F8093A203AE
:10125000F0E0E158FC4F80818093BB009091A203A5
:101260008091A103981708F479CF85E88093BC009A
:101270000AC085EC8093BC001092F20304C0109267
:10128000F0030E942C03FF91EF91BF91AF919F91CA
:101290008F917F916F915F914F913F912F910F901F
:1012A0000BBE0F900FBE0F901F9018953091150434
:1012B000313208F04BC08091F2038111FCCF909144
:1012C000170422E02093F20321E02093F1032FEF93
:1012D0002093F0031092EF033093EE03EFE5F3E079
:1012E000ACECB3E020E0321721F041914D932F5F39
:1012F000FACF1092ED032091ED03990F922B90936A
:10130000ED039091EC03913061F41092EC03909115
:10131000ED039093BB009091BC0093FDF8CF95EC4A
:1013200001C095EE9093BC009091F2039230E1F3EE
:101330009091F0039F3F79F08091F003803241F06B
:101340008091F003803331F084E005C081E003C078
:1013500082E001C083E010921604109215041092EE
:10136000180408951092F4031092F30310921604D7
:10137000109215041092F20381E08093F103109211
:10138000EC0361E084E10E94600B61E085E10E9472
:10139000600BE9EBF0E080818E7F808380818D7F20
:1013A000808388E48093B80085E48093BC008EE558
:1013B00093E09093A00380939F038FE593E0909335
:1013C000A4038093A303089540E050E0BA0185E2AE
:1013D00097E00E94CA0640E050E060E070E887E2D3
:1013E00097E00C94CA0690E0FC013197E231F105D8
:1013F00008F04EC08827EE58FF4F8F4F0C94D51A37
:10140000809180008F7703C0809180008F7D8093D2
:101410008000089580918000877FF9CF84B58F7711
:1014200002C084B58F7D84BD08958091B0008F7710
:1014300003C08091B0008F7D8093B00008958091AB
:1014400090008F7707C0809190008F7D03C08091BE
:101450009000877F8093900008958091A0008F77FF
:1014600007C08091A0008F7D03C08091A000877F7E
:101470008093A0000895809120018F7707C080910C
:1014800020018F7D03C080912001877F8093200100
:101490000895CF93C42F91E09093180499E290930C
:1014A00017041092160410921504806890E00E94B0
:1014B000F30D6C2F83E497E00E94B90383E497E077
:1014C000CF910C945609CF92DF92EF92FF920F9337
:1014D0001F93CF93DF931F921F92CDB7DEB78C017E
:1014E000C62EFC0111821082138212821582148290
:1014F00060E070E00E94BB0F0E947B0F0C2C000C80
:10150000DD0897FD23C08C159D0501F189831A82A2
:10151000F801E480F580FFEFEF1AFF0AB701C80178
:101520000E944C04882379F0F80120813181848164
:101530009581BE016F5F7F4F820F931F0E94191E1E
:10154000F801F582E4820E947B0FDBCFC8010F9087
:101550000F90DF91CF911F910F91FF90EF90DF904F
:10156000CF9008950F931F93CF93DF93162F072FDC
:10157000CCE0D7E09C8521E02093180490931704D9
:101580001092160410921504AA85BB85ED91FC916A
:1015900011970190F081E02D682FCD0119958A8572
:1015A0009B85DC01ED91FC910190F081E02D602F95
:1015B00019958A859B85DC01ED91FC910190F08164
:1015C000E02D612F19958A859B85DF91CF911F9121
:1015D0000F910C945609FC01848191E090931804BA
:1015E0008093170410921604109215048485862B9C
:1015F00090E00E94F30D83E497E00C9456090F935A
:101600001F93CF938C01C62F64600E94EB0A6C2F4E
:101610006B7FC8010E94EB0A83EC90E00197F1F721
:10162000CF911F910F910895FC01A089B1898C91F0
:10163000A689B78982FD0FC09C91818D8F5F8F73C2
:10164000228D821749F0218DDF01A20FB11D5D9619
:101650009C93818F08958C9108951F920F920FB6DD
:101660000F9211240F900FBE0F901F901895CF93DB
:10167000DF93282F30E0F901E65EFC4F8491F901F9
:10168000EC52FD4FD491F901E257FD4FC491CC23A8
:1016900091F081110E94F309EC2FF0E0EE0FFF1F93
:1016A000EC58FD4FA591B491EC91ED2381E090E0D1
:1016B00021F480E002C080E090E0DF91CF910895B6
:1016C0001F93CF93DF93282F30E0F901E65EFC4FA4
:1016D0008491F901EC52FD4FD491F901E257FD4F8D
:1016E000C491CC23C1F0162F81110E94F309EC2F75
:1016F000F0E0EE0FFF1FE65AFD4FA591B4919FB7A2
:10170000F894111104C08C91D095D82302C0EC91AB
:10171000DE2BDC939FBFDF91CF911F910895CF9374
:10172000DF9390E0FC01EC52FD4F2491FC01E25765
:10173000FD4F8491882361F190E0880F991FFC018F
:10174000E05CFD4FC591D491FC01E65AFD4FA59197
:10175000B491611109C09FB7F894888120958223C4
:101760008883EC912E230BC0623061F49FB7F8940C
:101770008881322F309583238883EC912E2B2C93F4
:101780009FBF06C08FB7F894E8812E2B28838FBFA8
:10179000DF91CF9108951F93CF93DF93182FEB0123
:1017A00061E00E948F0B209711F460E004C0CF3FEE
:1017B000D10539F461E0812FDF91CF911F910C9415
:1017C000600BE12FF0E0E65EFC4FE4918E2F90E09D
:1017D000FC013197E231F10508F09DC08827EC57F4
:1017E000FF4F8F4F0C94D51A84B5806884BDC7BD58
:1017F00097C084B5806284BDC8BD92C080918000CE
:10180000806880938000D0938900C093880088C04E
:1018100080918000806280938000D0938B00C09381
:101820008A007EC080918000886080938000D09381
:101830008D00C0938C0074C08091B000806880934C
:10184000B000C093B3006CC08091B0008062809300
:10185000B000C093B40064C0809190008068809311
:101860009000D0939900C09398005AC08091900046
:10187000806280939000D0939B00C0939A0050C0E8
:1018800080919000886080939000D0939D00C093D9
:101890009C0046C08091A00080688093A000809149
:1018A000A0008F7B8093A000D093A900C093A800D4
:1018B00037C08091A00080628093A000D093AB00DD
:1018C000C093AA002DC08091A00088608093A000E2
:1018D000D093AD00C093AC0023C0809120018068FC
:1018E00080932001D0932901C093280119C08091D1
:1018F0002001806280932001D0932B01C0932A01A4
:101900000FC080912001886080932001D0932D0129
:10191000C0932C0105C0C038D1050CF04BCF45CF8A
:10192000DF91CF911F910895863308F086539091EF
:101930007B00282F2870977F922B90937B008770D5
:10194000806480937C0080917A00806480937A0028
:1019500080917A0086FDFCCF8091780020917900FB
:1019600090E0922B08958F929F92AF92BF92CF9268
:10197000DF92EF92FF926B017C010E94E10F4B011D
:101980005C01C114D104E104F104F1F00E94E10F03
:10199000DC01CB0188199909AA09BB09883E93404B
:1019A000A105B10570F321E0C21AD108E108F108E0
:1019B00088EE880E83E0981EA11CB11CC114D104CE
:1019C000E104F10419F7DDCFFF90EF90DF90CF90A5
:1019D000BF90AF909F908F900895CF93DF9383E453
:1019E00097E00E94B20981E08093180489E2809315
:1019F0001704109216041092150482E990E00E94D8
:101A0000F30D83E497E00E9456098091F20381115F
:101A1000FCCF81E08093F2038093F1039FEF9093DA
:101A2000F0031092EF031092EE038093ED03809188
:101A3000ED0382658093ED038091EC03813061F4C6
:101A40001092EC038091ED038093BB008091BC0069
:101A500083FDF8CF85EC01C085EE8093BC008091BA
:101A6000F2038130E1F38091EF03811103C0909183
:101A7000EF0301C091E0ECECF3E0A5EFB3E080E010
:101A8000891721F021912D938F5FFACF1092F403E3
:101A90008093F30383E497E00E947003843411F091
:101AA0008031D1F581E080934F07C0915207D091EA
:101AB0005307AE0160E070E00E94490AD0935307DB
:101AC000C0935207C0915007D091510780914F07A2
:101AD000811102C00E94ED0CAE0160E070E08FE069
:101AE0000E94490AD0935107C093500741E050E04B
:101AF00060E070E080E00E94490A63E070E080E00E
:101B000090E00E94B30C43E050E060E070E080E0C1
:101B10000E94490A81E001C080E0DF91CF910895E1
:101B2000CF92DF92EF92FF92CF93DF93EC016A01A5
:101B30007B01E889F98982E080834115514E610576
:101B40007105B1F060E079E08DE390E0A7019601C6
:101B50000E94981ADA01C9010197A109B109B69545
:101B6000A795979587959C01211580E13807A8F0E6
:101B7000E889F989108260E874E88EE190E0A701B5
:101B800096010E94981ADA01C9010197A109B109C9
:101B9000B695A795979587959C01EC85FD85308333
:101BA000EE85FF852083188EEC89FD8986E0808391
:101BB000EA89FB89808180618083EA89FB89808151
:101BC00088608083EA89FB89808180688083EA89D4
:101BD000FB8980818F7D8083DF91CF91FF90EF9093
:101BE000DF90CF900895682F83E497E00C94B903B9
:101BF0006115710551F0FB0101900020E9F7319763
:101C0000AF01461B570B0C94E60180E090E008956D
:101C10000F931F93CF93DF93EC010E94F80D8C017B
:101C200061EB72E0CE010E94F80D800F911FDF91F1
:101C3000CF911F910F9108950C94F80D8F929F9260
:101C4000AF92BF92EF92FF920F931F93CF93DF93C8
:101C5000CDB7DEB7A1970FB6F894DEBF0FBECDBFEC
:101C60007C01FA01CB0119A2223008F42AE08E018E
:101C70000F5D1F4F822E912CA12CB12CBF01A5010D
:101C800094010E94981AF901CA01015011096A30A1
:101C900014F4605D01C0695CD8016C93232B242B84
:101CA000252B61F7B801C7010E94F80DA1960FB668
:101CB000F894DEBF0FBECDBFDF91CF911F910F9182
:101CC000FF90EF90BF90AF909F908F900895CF922C
:101CD000DF92EF92FF92CF93DF936C01990FEE08A2
:101CE000FF08F7FE15C06DE289E595E00E948D02C0
:101CF000EC0144275527BA014C195D096E097F098B
:101D00002AE089E595E00E941E0EC80FD91F08C081
:101D10002AE0B701A60189E595E00E941E0EEC01BC
:101D200061EB72E089E595E00E94F80D8C0F9D1F34
:101D3000DF91CF91FF90EF90DF90CF9008957F9249
:101D40008F929F92AF92BF92CF92DF92EF92FF92CB
:101D50000F931F93CF93DF938C016A017B01722E47
:101D60009A01AB01C701B6010E94F71B882319F045
:101D700067E373E027C046015701E894B7F82FEFF7
:101D80003FEF4FE75FE7C501B4010E94F71B8111E8
:101D90000DC02FEF3FEF4FE75FE7C501B4010E9491
:101DA0003F1918161CF46BE373E00CC02FEF3FEFE4
:101DB0004FE75FE4C701B6010E94F21B181694F4C6
:101DC0006FE373E0C801DF91CF911F910F91FF90F6
:101DD000EF90DF90CF90BF90AF909F908F907F90CB
:101DE0000C94F80D2FEF3FEF4FE75FECC701B60102
:101DF0000E943F1987FDE4CF20E030E0A901C70130
:101E0000B6010E943F1987FF0AC06DE2C8010E9417
:101E10008D02EC01F7FAF094F7F8F09402C0C0E0FC
:101E2000D0E0B12C60E070E080E09FE37B1441F0F3
:101E300020E030E040E251E40E944A1BB394F6CF28
:101E4000A70196010E94DE1A6B017C010E94C31B50
:101E50004B015C012AE0AB01BC01C8010E941E0ECF
:101E6000C80FD91F7720C1F1C501B4010E944419E0
:101E70009B01AC01C701B6010E94DD1A6B017C0118
:101E80006EE2C8010E948D02C80FD91F20E030E029
:101E900040E251E4C701B6010E94A5194B015C0163
:101EA0000E94C31B6B01E12CF12C2AE0B701A601B3
:101EB000C8010E941E0EC80FD91FC701B6010E949B
:101EC00044199B01AC01C501B4010E94DD1A6B01EC
:101ED0007C017A947110DACFCE01DF91CF911F91FE
:101EE0000F91FF90EF90DF90CF90BF90AF909F90B9
:101EF0008F907F9008952FB7F89480911B04909154
:101F00001C04A0911D04B0911E042FBF8093C40433
:101F10009093C504A093C604B093C7048CEB94E0DF
:101F20000E941F0297FF26C02FB7F89480911B04D0
:101F300090911C04A0911D04B0911E042FBF4091EC
:101F4000C4045091C5046091C6047091C704841BF9
:101F5000950BA60BB70B4091C0045091C104609142
:101F6000C2047091C30484179507A607B707B0F29F
:101F70008FEF9FEF08950F931F93CF93DF93EC01A3
:101F80008B010E944C042881398181110DC02115DB
:101F9000310519F0C9010E94941C198218821D8212
:101FA0001C821B821A8207C01D830C8363EB72E0C4
:101FB000C9010E94191ECE01DF91CF911F910F918F
:101FC00008953FB7F8948091170890911808A09150
:101FD0001908B0911A0826B5A89B05C02F3F19F023
:101FE0000196A11DB11D3FBFBA2FA92F982F882799
:101FF000820F911DA11DB11DBC01CD0142E0660FF4
:10200000771F881F991F4A95D1F708951F920F9245
:102010000FB60F9211242F933F938F939F93AF93FB
:10202000BF9380911B0490911C04A0911D04B0915A
:102030001E043091160823E0230F2D3720F401965B
:10204000A11DB11D05C026E8230F0296A11DB11DDB
:102050002093160880931B0490931C04A0931D04E6
:10206000B0931E048091170890911808A091190848
:10207000B0911A080196A11DB11D80931708909385
:102080001808A0931908B0931A08BF91AF919F91B7
:102090008F913F912F910F900FBE0F901F90189529
:1020A000CF93DF93CDB7DEB760970FB6F894DEBF5E
:1020B0000FBECDBF789484B5826084BD84B5816045
:1020C00084BD85B5826085BD85B5816085BD809103
:1020D0006E00816080936E0010928100809181007B
:1020E0008260809381008091810081608093810073
:1020F000809180008160809380008091B100846035
:102100008093B1008091B00081608093B000809195
:102110009100826080939100809191008160809312
:102120009100809190008160809390008091A10047
:1021300082608093A1008091A10081608093A100C2
:102140008091A00081608093A00080912101826035
:1021500080932101809121018160809321018091F0
:10216000200181608093200180917A0084608093B7
:102170007A0080917A00826080937A0080917A0060
:10218000816080937A0080917A00806880937A00E1
:102190001092C10040E855E260E070E089E595E00A
:1021A0000E94900D61E080910D070E948F0B60E00E
:1021B00080910D070E94600B60E080910C070E94E7
:1021C0008F0B83E497E090931707809316070E9484
:1021D000B20980E090E1A0E0B0E08093190790930D
:1021E0001A07A0931B07B0931C078AE090E0A0E0B9
:1021F000B0E080931D0790931E07A0931F07B09334
:10220000200780E090E0A0E0B0E480932107909365
:102210002207A0932307B093240760E070E185E0D4
:102220000E94B20A6FE979E380E00E94B20A0CE0F2
:1022300017E07801512CB3EC6B2EB2E07B2E89E0D5
:10224000882E83E0982E9BECC92E97E0D92E2BE8A0
:10225000A22EBB24B394F70194818281F801818F6F
:10226000928F61E00E948F0B61E0F801828D0E94E5
:102270008F0BF70190858681F801858F968F61E03D
:102280000E948F0B60E0F801868D0E948F0B61E049
:10229000F801858D0E94600B4FB6F894809144033D
:1022A000811126C0F3018491F4012491E82FF0E01C
:1022B000EE0FFF1FE05CFD4FA591B4919C91822F22
:1022C000892321F461E085E30E94600B61E085E3EE
:1022D0000E948F0B8CB580618CBD8CB580648CBDE9
:1022E00061E084E30E948F0B61E083E30E948F0B27
:1022F000809144038F5F809344034FBEC6010197D2
:10230000F1F760E0F801858D0E94600B88E80E947B
:102310001A0783E00E941A0761E0F801858D0E9488
:10232000600BC6010197F1F760E0F801858D0E940E
:10233000600B88E90E941A0780E00E941A0780E07B
:102340000E941A0780E00E941A0780E00E941A0784
:1023500061E0F801858D0E94600BC5010197F1F7DE
:1023600060E0F801858D0E94600B80EE0E941A07E4
:1023700061E0F801858D0E94600B5394FFEFEF1A26
:10238000FF0A0E5F1F4F22E0521265CFE1E3EE2EEF
:10239000E7E0FE2E05E317E060E0F70181917F01A1
:1023A0000E948F0B0E151F05B9F76DE2E62E67E050
:1023B000F62E77E3A72E77E0B72E6801FFEFCF1A4E
:1023C000DF0AF801608170E0C80108960E942107C9
:1023D000F60195818381F701828B938B60E00E94E7
:1023E0008F0B61E0F70183890E948F0B60E0F7019A
:1023F00083890E94600BF2E0EF0EF11C8601AC14A1
:10240000BD04D9F6F8941092200189E0809321014F
:1024100080E293E090932901809328011092250196
:102420001092240182E08093730078948093F605E3
:102430001092FA058091F70560E00E948F0B40E84A
:1024400055E260E070E089E595E00E94900D6091B2
:10245000350770E08DE397E00E94210780913707F0
:10246000893220F480913807883238F463E472E0CE
:1024700089E595E00E94080E4AC000913D070C30A6
:1024800008F045C025E0029F800111240853194F30
:10249000F801838128E830E06901C81AD10887FD76
:1024A000D394CC0CDD1CCC0CDD1C0D2C000CEE08E8
:1024B000FF08848128E532E0281B310987FD339528
:1024C000220F331F220F331FC901330FAA0BBB0B7F
:1024D0009C01AD012C193D094E095F09A8E2B0E04D
:1024E0000E94851A24EB30E040E050E00E94661A1A
:1024F000C20ED31EE41EF51EF6E0CF1AD108CC0C96
:10250000DD1C8FB7F894F801D282C1828FBF61E0E1
:1025100082E00E948F0B60E086E30E948F0B60E0F8
:1025200087E30E948F0B0E94ED0C882319F060E670
:1025300072E002C06DE672E089E595E00E94080E47
:1025400040E056E960E070E08CEB94E00E94900D72
:1025500083E497E00E94B20985E0B82E6AE972E050
:1025600089E595E00E94080E8091450381110DC018
:10257000809131070E94370B892B39F462E370E0B8
:1025800080E090E00E94B30CEFCF31E03093450340
:10259000809132070E94370B892B59F066EA72E06E
:1025A00089E595E00E94080E109245030E94E40917
:1025B00074C20E9467176BEA72E089E595E00E9499
:1025C0001C0E2AE045E050E060E070E089E595E00F
:1025D0000E941E0E61EB72E089E595E00E94F80D05
:1025E0000E94E4090E94671725E030E040E050E0D7
:1025F0000E94661ADC01CB010196A11DB11D28EED7
:1026000033E0829F1001839F300C929F300C112485
:102610008FB7F89420911B0430911C0440911D0445
:1026200050911E042D873E874F87588B8FBF412CBA
:10263000512CAA24A3942FB7F89480911B04909155
:102640001C04A0911D04B0911E042FBF2D853E8552
:102650004F855889821B930BA40BB50B82159305EC
:10266000A405B50508F019C2712C64EB72E08CEB7F
:1026700094E00E94080E68EE73E080E090E00E9413
:10268000B30C8CEB94E00E944102892B09F47BC1CE
:1026900067EC72E089E595E00E94080E6BE3CE01DD
:1026A00007960E94630ACF80D884C114D104E9F14F
:1026B0000B851C8501151105C1F1760147013FEF1E
:1026C000831A930AF7018081082E000C990B0E944F
:1026D0001E19892B11F07401F1CF015011090C0D55
:1026E0001D1DF8018081082E000C990B0E941E19F7
:1026F000892B31F00E151F0518F001501109F1CF8B
:10270000A8014F5F5F4F4E195F095C874B87CE145E
:10271000DF0420F4B701C6010E94071EEF81F8858F
:102720008B859C85E80FF91F10828B859C85892BF2
:1027300009F418C10F81188562EE72E0C8010E9489
:10274000101E892B09F0EBC069ED72E08CEB94E070
:102750000E94080E6BE3CE0101960E94630ABE013F
:102760006F5F7F4FCE0107960E94120489819A8184
:102770000E94941C8F819885009729F00E94BE17B3
:102780003B014C0103C0612C712C430165EE72E0EA
:102790008CEB94E00E941C0E22E0B401A3018CEBB0
:1027A00094E00E949F0E61EB72E08CEB94E00E943B
:1027B000F80D6AE0CE0101960E94630ABE016F5FC8
:1027C0007F4FCE0107960E94120489819A810E9450
:1027D000941C8F819885009729F00E94BE177B0179
:1027E0008C0104C0E12CF12C00E010E06DEE72E0F1
:1027F0008CEB94E00E941C0E22E0A701B8018CEB48
:1028000094E00E949F0E61EB72E08CEB94E00E94DA
:10281000F80D8CEB94E00E94DA0265EF72E089E536
:1028200095E00E94080E20E030E0A901C401B30148
:102830000E943F1987FF1EC0C401B3010E94BC1B48
:102840009B0177FF04C022273327261B370B61E04B
:1028500070E0621B730B072E000C880B990B0E9413
:1028600046199701A8010E94A519470168017B013B
:102870008C011BC0C401B3010E94BC1B9B0177FFEC
:1028800004C022273327261B370B61E070E0621B50
:10289000730B072E000C880B990B0E9446199701A9
:1028A000A8010E94A5194B016C016DEF72E089E54A
:1028B00095E00E941C0E22E0A701B80189E595E091
:1028C0000E949F0E6BE073E089E595E00E941C0E6C
:1028D00022E0A401B60189E595E00E949F0E2DEC4F
:1028E0003CEC4CE45EE3B701C8010E94A519AB01C2
:1028F000BC0185E297E00E94CA062DEC3CEC4CE45A
:102900005EE3B401C6010E94A519AB01BC01705879
:1029100087E297E00E94CA06772473942EC064E190
:1029200073E0C8010E94101E892BE1F4A0921804E4
:10293000B0921704109216041092150485E090E0EE
:102940000E94F30D83E497E00E945609182F6AE174
:1029500073E089E595E00E941C0E812F90E00E94B3
:10296000670E0BC06FE273E089E595E00E94080EE8
:102970008F8198850E94941C06C08F8198850E9443
:10298000941C711072CE86E30E94940C7C0187E344
:102990000E94940C8C0168EC70E080E090E00E9452
:1029A000B30C86E30E94940C6C0187E30E94940CA4
:1029B000081B190BEC18FD08F4E6EF0EF11C29ECCE
:1029C000E216F10430F40C591F4F093C110508F4CC
:1029D00058C0A0921804B0921704109216041092D6
:1029E000150484E090E00E94F30D83E497E00E94D8
:1029F0005609182F6AE173E089E595E00E941C0EE4
:102A0000812F90E00E94670E6FEF70E082E00E94DD
:102A1000CB0B68EE73E080E090E00E94B30C68ECB2
:102A200070E082E00E94CB0B64EF71E080E090E008
:102A30000E94B30C66E970E082E00E94CB0B64EF69
:102A400071E080E090E00E94B30CA0921804B09274
:102A50001704109216041092150481E090E00E9471
:102A6000F30D83E497E00E945609182F6AE173E0A2
:102A700089E595E00E941C0E812F90E00E94670E70
:102A800005C060E070E082E00E94CB0B62E370E082
:102A900080E090E00E94B30CCECD0E94FF025ECD9C
:102AA00080910507909106070C94941C10922204C3
:102AB0001092210448EE53E060E070E0409323045C
:102AC00050932404609325047093260487E192E0D8
:102AD0009093200480931F0425E331E030932C046D
:102AE00020932B0424E331E030932E0420932D0413
:102AF00020E331E03093300420932F0421E331E0D0
:102B0000309332042093310422E331E030933404D3
:102B10002093330426E331E03093360420933504C8
:102B2000109238041092390410923A0410923B0427
:102B30001092BF041092BE044093C0045093C1048D
:102B40006093C2047093C3049093BD048093BC044B
:102B500025ED30E03093C9042093C80424ED30E023
:102B60003093CB042093CA0420ED30E03093CD04A1
:102B70002093CC0421ED30E03093CF042093CE0499
:102B800022ED30E03093D1042093D00426ED30E0E4
:102B90003093D3042093D2041092D5041092D6041B
:102BA0001092D7041092D80410925C0510925B0525
:102BB00040935D0550935E0560935F0570936005DB
:102BC00090935A058093590585EC90E090936605A3
:102BD0008093650584EC90E0909368058093670589
:102BE00080EC90E090936A058093690581EC90E019
:102BF00090936C0580936B0582EC90E090936E054A
:102C000080936D0586EC90E09093700580936F053E
:102C1000109272051092730510927405109275054A
:102C200080910B0290910C02A0910D02B0910E02C6
:102C300080932D0790932E07A0932F07B093300712
:102C400080910F0290911002A0911102B091120296
:102C50008093310790933207A0933307B0933407E2
:102C600084E08093350787E080933607109237071A
:102C700084EB8093380786E18093390788E180935D
:102C80003A0787E180933B0789E180933C07E09115
:102C90000407EC3020F08FEF80933D0710C081E0F7
:102CA0008E0F80930407E0933D0725E0E29FF0013B
:102CB0001124E853F94F88EB9BE092838183E091E4
:102CC0000407EC3020F08FEF80933E0710C081E0C6
:102CD0008E0F80930407E0933E0785E0E89FF001A4
:102CE0001124E853F94F88EB9BE0928381838CE0B9
:102CF00080930C0784E280930D0786E080930E0793
:102D000085E080930F078FE1809310078EE1809319
:102D1000110783E28093120782E28093130785E410
:102D20008093140784E48093150780E48093180748
:102D300010921D0710921E0710921F071092200775
:102D40001092210710922207109223071092240755
:102D5000E8E5F7E08FEF9FEFDC0112821382148227
:102D60001582168217821086118683879487A5871D
:102D7000B6878787908BA18BB28B128611821082C7
:102D8000739628E0E631F20741F78DE090E00E946B
:102D9000FC1BFC011382128289E292E09183808302
:102DA000118687E2848384E1828784E083871486A6
:102DB000F0935507E0935407109256071092570767
:102DC00085E28093F7051092F9051092060710929C
:102DD0000507109208071092070710920A07109231
:102DE000090760E070E085E097E00E94BB0F109259
:102DF00046071092450788EE93E0A0E0B0E080938C
:102E0000470790934807A0934907B0934A0785E383
:102E100092E0909344078093430710924F078BEE04
:102E200090E0909353078093520781E090E0909355
:102E300051078093500708958F929F92AF92BF924F
:102E4000CF92DF92EF92FF92CF93DF93EC016881F4
:102E500079818A819B81611571058105910521F434
:102E600064E279ED8BE597E02DE133EF41E050E04E
:102E70000E94661A49015A019B01AC01A7EAB1E41C
:102E80000E94851A6B017C01ACEEB4EFA5019401A0
:102E90000E94931ADC01CB018C0D9D1DAE1DBF1D40
:102EA000B7FF03C00197A109B04888839983AA831B
:102EB000BB83BC01CD019F77DF91CF91FF90EF9055
:102EC000DF90CF90BF90AF909F908F9008958F929A
:102ED0009F92AF92BF92CF92DF92EF92FF9260915A
:102EE0000102709102028091030290910402611527
:102EF00071058105910521F464E279ED8BE597E098
:102F00002DE133EF41E050E00E94661A49015A0179
:102F10009B01AC01A7EAB1E40E94851A6B017C0118
:102F2000ACEEB4EFA50194010E94931ADC01CB0131
:102F30008C0D9D1DAE1DBF1DB7FF03C00197A109DC
:102F4000B0488093010290930202A0930302B093D1
:102F50000402BC01CD019F77FF90EF90DF90CF90EE
:102F6000BF90AF909F908F900895609301027093EF
:102F70000202809303029093040208956627772744
:102F80000C94C2178F929F92AF92BF92CF92DF9212
:102F9000EF92FF920F931F93CF93DF93EC016B019E
:102FA0006115710519F0FB01918380837E01FFEFAC
:102FB000EF1AFF0A0881802F90E00E941E19892BCA
:102FC00011F0E701F3CF0D3239F47E0182E0E80E13
:102FD000F11C098111E008C00B3229F47E0192E056
:102FE000E90EF11C098110E0E701219743E050E070
:102FF0006CE072E0CE010E942719892BC1F4239660
:1030000045E050E067E072E0CE010E942719892B6D
:1030100009F42596C114D10419F0F601D183C083B7
:103020001111F6C060E070E080E89FE7FAC043E06D
:1030300050E064E072E0CE010E942719892B59F418
:10304000C114D10409F4E9C0F2E0EF0EF11CF6015D
:10305000F182E082E2C020E030E0A901C0E0D0E0EF
:10306000F70160EDA62EA00E89E08A1530F1912FB0
:103070009260B92E812F887012FF04C0811124C084
:10308000219622C081112197A5E0B0E00E94851A07
:10309000DC01CB01880F991FAA1FBB1F9C01AD014A
:1030A0002A0D311D411D511D283989E9380748076E
:1030B00089E1580748F0166006C09EEFA9120AC0C1
:1030C00013FD40C01860B12E8FEFE81AF80A008196
:1030D0001B2DC6CF802F8F7D8534A1F580818D3249
:1030E00011F4106106C08B3221F0319661E070E07E
:1030F00004C08181329662E070E080538A3018F01B
:10310000E61BF70B1FC060E070E060389CE07907B9
:103110005CF4DB01AA0FBB1FAA0FBB1F6A0F7B1F4A
:10312000660F771F680F711D3196DF0111978C9123
:1031300080538A3050F314FF03C071956195710973
:10314000C60FD71F11FF08C0C114D10429F0CF0149
:103150000197F60191838083CA01B9010E94441945
:10316000212F2370233019F04B015C0106C04B0165
:103170005C01B7FAB094B7F8B09420E030E0A90150
:10318000C501B4010E943F19882309F43EC0D7FF4E
:1031900006C0D195C195D10903E212E002C00BE34C
:1031A00012E06801F8E1CF1AD10890E2E92EF12C83
:1031B000CE15DF0574F0F8012591359145915491B4
:1031C000C501B4010E94A5194B015C01CE19DF09AC
:1031D000EFCF04501109F594E7940C151D0541F744
:1031E0008A2D880F8B2D881F8F3F49F020E030E01B
:1031F000A901C501B4010E943F19811106C082E2F4
:1032000090E090931C0880931B08C501B40109C08D
:1032100060E070E080E89FEF04C060E070E080EC68
:103220009FE7DF91CF911F910F91FF90EF90DF907B
:10323000CF90BF90AF909F908F90089591110C9474
:10324000121A803219F089508550C8F70895FB0191
:10325000DC014150504088F08D9181341CF08B3559
:103260000CF4805E659161341CF06B350CF4605E8B
:10327000861B611171F3990B0895881BFCCF0E9486
:10328000811908F481E00895E89409C097FB3EF4A1
:1032900090958095709561957F4F8F4F9F4F9923A3
:1032A000A9F0F92F96E9BB279395F6958795779521
:1032B0006795B795F111F8CFFAF4BB0F11F460FFE1
:1032C0001BC06F5F7F4F8F4F9F4F16C0882311F039
:1032D00096E911C0772321F09EE8872F762F05C04D
:1032E000662371F096E8862F70E060E02AF09A95E8
:1032F000660F771F881FDAF7880F9695879597F9DD
:103300000895990F0008550FAA0BE0E8FEEF161676
:103310001706E807F907C0F012161306E407F507C9
:1033200098F0621B730B840B950B39F40A2661F03D
:10333000232B242B252B21F408950A2609F4A140E0
:10334000A6958FEF811D811D08950E94B8190C94D8
:103350002C1A0E941E1A38F00E94251A20F095237C
:1033600011F00C94151A0C941B1A11240C94601A69
:103370000E943D1A70F3959FC1F3950F50E0551FC1
:10338000629FF001729FBB27F00DB11D639FAA27BA
:10339000F00DB11DAA1F649F6627B00DA11D661F09
:1033A000829F2227B00DA11D621F739FB00DA11D2A
:1033B000621F839FA00D611D221F749F3327A00DE4
:1033C000611D231F849F600D211D822F762F6A2F80
:1033D00011249F5750409AF0F1F088234AF0EE0FE5
:1033E000FF1FBB1F661F771F881F91505040A9F712
:1033F0009E3F510580F00C94151A0C94601A5F3FA3
:10340000E4F3983ED4F3869577956795B795F7954D
:10341000E7959F5FC1F7FE2B880F911D96958795C5
:1034200097F9089599278827089597F99F6780E865
:1034300070E060E008959FEF80EC089500240A9406
:103440001616170618060906089500240A9412167F
:103450001306140605060895092E0394000C11F4B2
:10346000882352F0BB0F40F4BF2B11F460FF04C05F
:103470006F5F7F4F8F4F9F4F089557FD9058440FB8
:10348000551F59F05F3F71F04795880F97FB991FC3
:1034900061F09F3F79F08795089512161306140680
:1034A000551FF2CF4695F1DF08C01616170618060D
:1034B000991FF1CF86957105610508940895E894E8
:1034C000BB2766277727CB0197F90895052E97FB31
:1034D0001EF400940E947D1A57FD07D00E94981A8E
:1034E00007FC03D04EF40C947D1A5095409530950E
:1034F00021953F4F4F4F5F4F089590958095709560
:1035000061957F4F8F4F9F4F08950E94BA1AA59FD4
:10351000900DB49F900DA49F800D911D11240895CE
:10352000B7FF0C94851A0E94851A821B930B08958D
:10353000A1E21A2EAA1BBB1BFD010DC0AA1FBB1FB7
:10354000EE1FFF1FA217B307E407F50720F0A21B29
:10355000B30BE40BF50B661F771F881F991F1A9496
:1035600069F760957095809590959B01AC01BD01C0
:10357000CF010895A29FB001B39FC001A39F700D1A
:10358000811D1124911DB29F700D811D1124911D6B
:103590000895991B79E004C0991F961708F0961BAF
:1035A000881F7A95C9F780950895EE0FFF1F881F31
:1035B0008BBF0790F691E02D19945058BB27AA278E
:1035C0000E94F51A0C942C1A0E941E1A38F00E94C0
:1035D000251A20F039F49F3F19F426F40C941B1A95
:1035E0000EF4E095E7FB0C94151AE92F0E943D1AA2
:1035F00058F3BA17620773078407950720F079F428
:10360000A6F50C945F1A0EF4E0950B2EBA2FA02DA0
:103610000B01B90190010C01CA01A0011124FF277F
:10362000591B99F0593F50F4503E68F11A16F0407A
:10363000A22F232F342F4427585FF3CF4695379579
:103640002795A795F0405395C9F77EF41F16BA0B3E
:10365000620B730B840BBAF09150A1F0FF0FBB1FEC
:10366000661F771F881FC2F70EC0BA0F621F731F35
:10367000841F48F4879577956795B795F7959E3F92
:1036800008F0B0CF9395880F08F09927EE0F979523
:10369000879508950E945E1B0C942C1A0E94251A8F
:1036A00058F00E941E1A40F029F45F3F29F00C9454
:1036B000151A51110C94601A0C941B1A0E943D1A91
:1036C00068F39923B1F3552391F3951B550BBB2751
:1036D000AA2762177307840738F09F5F5F4F220F96
:1036E000331F441FAA1FA9F335D00E2E3AF0E0E88D
:1036F00032D091505040E695001CCAF72BD0FE2FD7
:1037000029D0660F771F881FBB1F2617370748076A
:10371000AB07B0E809F0BB0B802DBF01FF27935822
:103720005F4F3AF09E3F510578F00C94151A0C94B7
:10373000601A5F3FE4F3983ED4F3869577956795DA
:10374000B795F7959F5FC9F7880F911D9695879557
:1037500097F90895E1E0660F771F881FBB1F621776
:1037600073078407BA0720F0621B730B840BBA0B34
:10377000EE1F88F7E09508950E94C31B6894B1116D
:103780000C94601A08950E94451A88F09F5798F08B
:10379000B92F9927B751B0F0E1F0660F771F881F56
:1037A000991F1AF0BA95C9F714C0B13091F00E9470
:1037B0005F1AB1E008950C945F1A672F782F88275D
:1037C000B85F39F0B93FCCF3869577956795B39597
:1037D000D9F73EF490958095709561957F4F8F4F06
:1037E0009F4F08950E94811908F48FEF08950E9459
:1037F0008119880B990B08950F931F93CF93DF9333
:103800008230910510F482E090E0E0911F08F09181
:10381000200820E030E0A0E0B0E0309719F14081CE
:1038200051810281138148175907C8F08417950701
:1038300069F4109731F012960C93129713961C931B
:1038400027C000931F081093200822C021153105BE
:1038500019F04217530718F49A01BD01EF01DF0177
:10386000F801DBCF21153105F9F0281B390B243085
:10387000310580F48A819B816115710521F0FB017E
:103880009383828304C09093200880931F08FE01D5
:10389000329644C0FE01E20FF31F819391932250B0
:1038A0003109398328833AC020911D0830911E08C0
:1038B000232B41F4209107023091080230931E0817
:1038C00020931D0820910502309106022115310533
:1038D00041F42DB73EB74091090250910A02241BD2
:1038E000350BE0911D08F0911E08E217F307A0F4D4
:1038F0002E1B3F0B2817390778F0AC014E5F5F4F46
:103900002417350748F04E0F5F1F50931E08409351
:103910001D088193919302C0E0E0F0E0CF01DF91B8
:10392000CF911F910F910895CF93DF93009709F4E2
:1039300081C0FC01329713821282A0911F08B091BE
:103940002008109781F420813181820F931F2091EC
:103950001D0830911E082817390751F5F0931E08ED
:10396000E0931D0867C0ED0120E030E0CE17DF07CF
:1039700040F44A815B819E0141155105F1F0EA0155
:10398000F5CFD383C28340815181840F951FC8171F
:10399000D90759F488819981840F951F02969183E4
:1039A00080838A819B81938382832115310529F449
:1039B000F0932008E0931F083DC0E901FB83EA83F0
:1039C00049915991C40FD51FEC17FD0761F480810F
:1039D0009181840F951F0296E901998388838281E2
:1039E00093819B838A83E0E0F0E012968D919C9115
:1039F0001397009719F0FD01DC01F7CF8D919C9191
:103A000011979D012E5F3F4F820F931F20911D083C
:103A100030911E082817390769F4309729F410925D
:103A2000200810921F0802C013821282B0931E0851
:103A3000A0931D08DF91CF9108956F927F928F928E
:103A40009F92AF92BF92CF92DF92EF92FF920F932D
:103A50001F93CF93DF93009789F4CB01DF91CF9130
:103A60001F910F91FF90EF90DF90CF90BF90AF909C
:103A70009F908F907F906F900C94FC1BFC01E60F41
:103A8000F71F9C0122503109E217F30708F4A9C07F
:103A9000EC01D9010D911C91119706171707B0F091
:103AA0000530110508F49BC0C801049786179707D5
:103AB00008F495C002501109061B170B01931193CE
:103AC0006D937C93CF010E94941C89C05B01A01A66
:103AD000B10A4C01800E911EA0911F08B0912008E0
:103AE000612C712CE12CF12C109709F446C08D91BA
:103AF0009C911197A815B905B1F56C0142E0C40E6F
:103B0000D11CCA14DB0478F14C018A189B086401AB
:103B100042E0C40ED11C1296BC9012971396AC9141
:103B2000B5E0CB16D10440F0B282A38391828082AB
:103B3000D9016D937C9309C00E5F1F4F800F911FB9
:103B4000F90191838083EB2DFA2FE114F10431F018
:103B5000D7011396FC93EE93129741C0F09320087F
:103B6000E0931F083CC06816790608F43C017D010B
:103B700012960D90BC91A02DB7CF80911D08909109
:103B80001E0888169906E1F466167706C8F4809137
:103B9000050290910602009741F48DB79EB74091BF
:103BA000090250910A02841B950BE817F907C8F423
:103BB000F0931E08E0931D08F901718360830FC024
:103BC000CB010E94FC1B7C01009759F0A801BE01AB
:103BD0000E94071ECE010E94941CC70104C0CE01A2
:103BE00002C080E090E0DF91CF911F910F91FF9094
:103BF000EF90DF90CF90BF90AF909F908F907F908D
:103C00006F90089581E090E0F8940C94201EFB01E1
:103C1000DC0102C001900D9241505040D8F7089548
:103C2000FB01DC018D91019080190110D9F3990BF2
:103C30000895FB01DC0101900D920020E1F7089549
:103C400011E0C1EBD1E000E006C0802FFE010E9430
:103C5000D51A2196011DC23BD10780E00807A9F7BC
:043C6000F894FFCF06
:103C6400FF01000000000021082000363738391B0E
:103C74001D1A1C000000008D02E6011002DA024148
:103C8400021F02330200000000ED03E601E803E531
:103C94000100000000B9038C03E80360038403708F
:103CA400036103536572766F20616E676C652069EA
:103CB40073206F7574206F662072616E67652100D2
:103CC400466F756E642073656E736F72004E6F205D
:103CD400544353333437323520666F756E64202E67
:103CE4002E2E20636865636B20796F757220636F75
:103CF4006E6E656374696F6E730053746172746978
:103D04006E672E2E2E0053544F50004D4F563A20BE
:103D1400000D0A0057616974696E6720666F72202E
:103D2400537472696E670053455249414C322041C5
:103D34005641494C41424C4500526563656976657C
:103D440064204F4E00706F735F783A2000706F7379
:103D54005F793A200044524956494E4700537065F2
:103D640065643A204C4546543A200020524947485D
:103D7400543A20004D555349430053656E74206DE9
:103D84007573696320726571756573743A200045B3
:103D9400786974696E67006E616E00696E66006FA3
:043DA400766600003F
:00000001FF
