:100000000C94C9010C94FA010C94FA010C94FA01B5
:100010000C94FA010C94FA010C94FA010C94FA0174
:100020000C94FA010C94020D0C94020D0C94020D28
:100030000C94FA010C948A020C94FA010C94FA01C3
:100040000C94FA010C9414090C94FA010C94FA0122
:100050000C94FA010C94FA010C94FA010C946313B9
:100060000C94FA010C943D050C9413050C94FA01C0
:100070000C94FA010C94FA010C94FA010C94FA0114
:100080000C94FA010C94FA010C94FA010C94FA0104
:100090000C94FA010C94FA010C94FA010C940C0DD6
:1000A0000C94FA010C94FA010C94FA010C94FA01E4
:1000B0000C94FA010C94FA010C94FA010C94670563
:1000C0000C94FA010C94FA010C94FA010C94E904D2
:1000D0000C94BF040C94FA010C9495040C946B04DA
:1000E0000C94FA018F119211811185118B11C91194
:1000F00096119A11A011A411A811AE11B211B61146
:10010000C911BC11C011C4115E12631268127212BF
:100110007C12F51286128E129612A012AA12B41236
:10012000C312CD12F512D712E112EB12084AD73BD7
:100130003BCE016E84BCBFFDC12F3D6C74319ABDB6
:1001400056833DDA3D00C77F11BED9E4BB4C3E91DA
:100150006BAAAABE000000803F000C9486120C948B
:1001600072120C94210A0C94B4120C94E1120C94A7
:10017000A4030C940F0A0C948E120C94FD010C94A1
:10018000A4110C948F110C94F1030C947C120C9418
:10019000A0120C94B2110C94100A0C9492110C94AD
:1001A00081110C948B110C9446040C9468120C94DD
:1001B000A8110C94BC110C94F5120C94FC010C9435
:1001C00096120C94A6170C9427030C94AE110C9461
:1001D000A0170C94EB120C94AA120C9496110C9488
:1001E0005E120C94110A0C94C4110C94120A0C9413
:1001F0004A030C94C0110C9443040C9485110C9484
:10020000C9110C9458030C943D0A0C94350A0C94B3
:10021000A0110C946A0A0C949A110C94CD120C94AF
:1002200036030C9463120C94B6110C94D7120C94F0
:10023000C3124E414E494E495459494E46CDCCCC3D
:100240003D0AD7233C17B7D13877CC2B329595E6AA
:10025000241FB14F0A000020410000C84200401C8A
:100260004620BCBE4CCA1B0E5AAEC59D740200008F
:1002700020002300260029002C002F00320000015E
:100280000000030106010901050505050705080829
:100290000808020202020A0A080804040404010110
:1002A0000101010101010303030303030303040725
:1002B00007070C0C0C0C0C0C0C0C020202020606BC
:1002C0000606060606060B0B0B0B0B0B0B0B0102AF
:1002D0001020200808102040102040800201020158
:1002E0000804020101020408102040808040201010
:1002F0000804020180040201804020100804020169
:1003000008040201010204081020408001020408D0
:100310001020408000000A0B02090C0D0E08070394
:1003200004010000000000000000000000000000C8
:1003300000000000000000000000000000000000BD
:10034000121110000000000000000000000000007A
:100350000000000000000000000000002100240058
:1003600027002A002D0030003300010100000401A5
:1003700007010A0100002200250028002B002E00A2
:100380003100340002010000050108010B01A6172D
:10039000A01711241FBECFEFD1E2DEBFCDBF00E01A
:1003A0000CBF13E0A0E0B2E0EEE6F2E400E00BBF29
:1003B00002C007900D92A432B107D9F728E0A4E259
:1003C000B3E001C01D92A430B207E1F711E0C8EC20
:1003D000D1E000E006C021970109802FFE010E94B4
:1003E000351DC73CD10780E00807A9F70E94AD136F
:1003F0000C9425210C9400000895CF92DF92EF9287
:10040000FF920F931F93CF93DF936C017A018B01BF
:10041000C0E0D0E0CE15DF0581F0D8016D918D01EF
:10042000D601ED91FC910190F081E02DC601199566
:10043000892B11F02196EECF7E01C701DF91CF917C
:100440001F910F91FF90EF90DF90CF9008950E9441
:1004500007210F931F93CF93DF938C01EB01FC01D6
:1004600080819181009739F06881798161157105EA
:10047000A1F40E94991F88819981F801918380835A
:100480008A819B81938382838C819D8195838483E0
:10049000198218821B821A820FC0F801428153818F
:1004A0002C813D814217530720F30E941E218C812D
:1004B0009D81F801958384831D821C82DF91CF91F9
:1004C0001F910F9108950F931F93CF93DF93EC012A
:1004D00088819981009729F02A813B812617370767
:1004E00088F48B016F5F7F4F0E942220009761F09C
:1004F000998388831B830A832C813D81232B11F4EC
:10050000FC01108281E001C080E0DF91CF911F915A
:100510000F9108951F920F920FB60F9211240BB6F0
:100520000F922F933F934F935F936F937F938F938C
:100530009F93AF93BF93EF93FF9380912503909187
:100540002603A0912703B0912803892B8A2B8B2B9C
:1005500049F1909124038091000089278093000045
:100560008091250390912603A0912703B091280341
:10057000181619061A061B060CF056C080912503A2
:1005800090912603A0912703B09128030197A10918
:10059000B1098093250390932603A0932703B0937A
:1005A000280342C080910002EDE6F2E0E4919FEF63
:1005B00090930002E230C9F050F4EE2399F0E1305C
:1005C00081F590916F009D7F90936F002AC0E43079
:1005D00019F1E0F0E53029F5909173009D7F90933B
:1005E00073001FC010926E001CC0909170009D7F20
:1005F0009093700091E09093B0009091B100987F3B
:1006000094609093B1001092B3000BC09091710070
:100610009D7F9093710005C0909172009D7F909393
:10062000720060E00E94CA11FF91EF91BF91AF91FB
:100630009F918F917F916F915F914F913F912F91FA
:100640000F900BBE0F900FBE0F901F901895FC01DE
:10065000538D448D252F30E0842F90E0821B930B27
:10066000541710F0CF96089501970895FC01918DCD
:10067000828D981761F0828DDF01A80FB11D5D9604
:100680008C91928D9F5F9F73928F90E008958FEF72
:100690009FEF0895FC01918D828D981731F0828D26
:1006A000E80FF11D858D90E008958FEF9FEF08957D
:1006B000FC01918D228D892F90E0805C9F4F821BE1
:1006C00091098F73992708958AE094E00E94580356
:1006D00021E0892B09F420E0822F089587EA94E035
:1006E0000E94580321E0892B09F420E0822F08950D
:1006F00084E495E00E94580321E0892B09F420E06E
:10070000822F0895FC01848DDF01A80FB11DA35A2B
:10071000BF4F2C91848D90E001968F739927848F21
:10072000A689B7892C93A089B1898C918370806444
:100730008C93938D848D981306C00288F389E02DE5
:1007400080818F7D80830895EF92FF920F931F9396
:10075000CF93DF93EC0181E0888F9B8D8C8D981374
:1007600005C0E889F989808185FD26C0F62E0B8DAC
:1007700010E00F5F1F4F0F731127E02E8C8DE812D2
:100780000CC00FB607FCFACFE889F989808185FF94
:10079000F5CFCE010E948203F1CF8B8DFE01E80FD1
:1007A000F11DE35AFF4FF0829FB7F8940B8FEA894F
:1007B000FB89808180620AC09FB7F894EE89FF8927
:1007C0006083E889F98980818370806480839FBF1A
:1007D00081E090E0DF91CF911F910F91FF90EF901A
:1007E0000895CF93DF93EC01888D8823C9F0EA89BF
:1007F000FB89808185FD05C0A889B9898C9186FD1A
:100800000FC00FB607FCF5CF808185FFF2CFA88916
:10081000B9898C9185FFEDCFCE010E948203E7CF8D
:10082000DF91CF910895E0E0F0E0199480E090E04E
:10083000892B21F00E947803811119C080E090E09B
:10084000892B41F080E090E0892B21F00E9400008C
:10085000811110C00E946E0381110FC080E090E0F2
:10086000892B81F00E94640381110AC008950E94BF
:100870000000E4CF0E940000EDCF0E941304EECFF1
:100880000C940000089580E090E008950F931F936A
:10089000CF93DF938C01C62FD62FD07FD1606D2FE1
:1008A0000E94BF0C6D2FC8010E94D40C80E1C89F2C
:1008B000B0011124C62FC1606C2FC8010E94BF0C6B
:1008C0006C2FC8010E94D40C81E090E0DF91CF91A1
:1008D0001F910F9108951F920F920FB60F9211243E
:1008E0000BB60F922F933F934F935F936F937F932A
:1008F0008F939F93AF93BF93EF93FF938AE094E01E
:100900000E948203FF91EF91BF91AF919F918F91D0
:100910007F916F915F914F913F912F910F900BBEFF
:100920000F900FBE0F901F9018951F920F920FB649
:100930000F9211240BB60F922F933F934F935F9317
:100940006F937F938F939F93AF93BF93EF93FF9397
:100950008AE094E00E94E90CFF91EF91BF91AF9182
:100960009F918F917F916F915F914F913F912F91C7
:100970000F900BBE0F900FBE0F901F9018951F92F7
:100980000F920FB60F9211240BB60F922F933F9335
:100990004F935F936F937F938F939F93AF93BF9387
:1009A000EF93FF9387EA94E00E948203FF91EF9117
:1009B000BF91AF919F918F917F916F915F914F9177
:1009C0003F912F910F900BBE0F900FBE0F901F9075
:1009D00018951F920F920FB60F9211240BB60F921B
:1009E0002F933F934F935F936F937F938F939F9337
:1009F000AF93BF93EF93FF9387EA94E00E94E90CD3
:100A0000FF91EF91BF91AF919F918F917F916F91E6
:100A10005F914F913F912F910F900BBE0F900FBEA2
:100A20000F901F9018951F920F920FB60F921124DE
:100A30000BB60F922F933F934F935F936F937F93D8
:100A40008F939F93AF93BF93EF93FF9384E495E0CD
:100A50000E948203FF91EF91BF91AF919F918F917F
:100A60007F916F915F914F913F912F910F900BBEAE
:100A70000F900FBE0F901F9018951F920F920FB6F8
:100A80000F9211240BB60F922F933F934F935F93C6
:100A90006F937F938F939F93AF93BF93EF93FF9346
:100AA00084E495E00E94E90CFF91EF91BF91AF9132
:100AB0009F918F917F916F915F914F913F912F9176
:100AC0000F900BBE0F900FBE0F901F9018951F92A6
:100AD0000F920FB60F9211240BB60F922F933F93E4
:100AE0004F935F936F937F938F939F93AF93BF9336
:100AF000EF93FF938091E2050E94140F2091E60589
:100B00003091E7052F5F3F4F3093E7052093E605CF
:100B10009091E505953618F096E09093E105909157
:100B2000E1059430C9F128F4923069F09330D1F0A6
:100B30005EC0953009F451C0963009F058C091E07C
:100B40009093B20651C0811152C02091E6053091B8
:100B5000E7052436310508F442C01092B20610921F
:100B6000E5051CC0813009F042C0E091E50591E047
:100B70009E0F9093E505F0E02091E6053091E705A2
:100B8000EE0FFF1FEF51FA4F308727831092E705D2
:100B90001092E60594E029C0811117C0E091E505A7
:100BA00091E09E0F9093E505F0E02091E6053091ED
:100BB000E705EE0FFF1FEF51FA4F308727831092A2
:100BC000E7051092E60593E010C02091E60530910C
:100BD000E7052536310558F007C0811108C010928D
:100BE000E7051092E60503C095E09093E10590912A
:100BF000E4059923B9F081110AC08091E3058823A7
:100C000021F08091E30561E009C02F9A0BC080912B
:100C1000E305882331F08091E30560E00E94CA116A
:100C200001C02F98FF91EF91BF91AF919F918F914C
:100C30007F916F915F914F913F912F910F900BBEDC
:100C40000F900FBE0F901F9018958F929F92AF92AA
:100C5000BF92CF92DF92EF92FF920F931F93CF93A9
:100C6000DF93EC016A017B0120E030E04FE753E4C1
:100C7000C701B6010E94F11B4B015C0120E030E08E
:100C8000A9010E94EB1E18161CF4C501B40103C093
:100C9000C501B40190580E948E1E8B0120E030E007
:100CA000A901C701B6010E94EB1E181614F460E0FA
:100CB00001C061E089810E94CA110F3F110509F04E
:100CC0001CF4B801772702C06FEF70E08881DF91D4
:100CD000CF911F910F91FF90EF90DF90CF90BF9039
:100CE000AF909F908F900C9435124F925F926F92BD
:100CF0007F928F929F92AF92BF92CF92DF92EF92AC
:100D0000FF920F931F93CF93DF93CDB7DEB72C974E
:100D10000FB6F894DEBF0FBECDBF86E30E94FE1271
:100D20007C0187E30E94FE128C0168EC70E080E099
:100D300090E00E941D1386E30E94FE126C0187E37F
:100D40000E94FE12081B190BEC18FD0884E6E80E41
:100D5000F11CE9ECEE16F10428F40C591F4F093C84
:100D6000110510F16FEF70E082E00E94351264EF20
:100D700071E080E090E00E941D1364E670E082E084
:100D80000E94351264EF71E080E090E00E941D1334
:100D900062E370E082E00E94351264EF71E080E06F
:100DA00090E00E941D1305C060E070E082E00E94A8
:100DB000351210E06FEA72E087EA94E00E94B00F0B
:100DC00068EE73E080E090E00E941D1387EA94E0F3
:100DD0000E945803892B09F418C162EC72E084E484
:100DE00095E00E94B00F6BE3CE0107960E94370C8E
:100DF000CF80D884C114D104E9F10B851C8501157D
:100E00001105C1F176015701FFEFAF1ABF0AF701D3
:100E10008081082E000C990B0E946A1B892B11F00F
:100E20007501F1CF015011090C0D1D1DF8018081D4
:100E3000082E000C990B0E946A1B892B31F00E15AD
:100E40001F0518F001501109F1CFA8014F5F5F4F46
:100E50004E195F095C874B87CE14DF0420F4B7017D
:100E6000C6010E940C21EF81F8858B859C85E80FD7
:100E7000F91F10828B859C85892B41F065EE72E00D
:100E80008F8198850E941521892B59F064ED72E0BD
:100E900084E495E00E94B00F8F8198850E94991F8D
:100EA000B6C06CED72E087EA94E00E94B00F6BE38D
:100EB000CE0101960E94370CBE016F5F7F4FCE01BD
:100EC00007960E94290289819A810E94991F8F8129
:100ED0009885009729F00E940A1A4B015C0103C013
:100EE000812C912C540168EE72E087EA94E00E9414
:100EF000A00FC501B4010E94450B6BE3CE01019622
:100F00000E94370CBE016F5F7F4FCE0107960E9493
:100F1000290289819A810E94991F8F819885009763
:100F200029F00E940A1A6B017C0103C0C12CD12C4C
:100F3000760160EF72E087EA94E00E94A00FC7019B
:100F4000B6010E94450B6AE0CE0101960E94370C63
:100F5000BE016F5F7F4FCE0107960E9429028981F3
:100F60009A810E94991F8F819885009729F00E948D
:100F70000A1A2B013C0103C0412C512C320168EFAD
:100F800072E087EA94E00E94A00FC301B2010E94C0
:100F9000450B87EA94E00E94F1036EEF72E084E46F
:100FA00095E00E94B00F40E050E0BA0180E197E088
:100FB0000E94250640E050E060E070E882E197E0A2
:100FC0000E94250662E370E080E090E00E941D131D
:100FD000A5019401C701B6010E94BD1D0E94A51084
:100FE00040E050E0BA0180E197E00E94250640E031
:100FF00050E060E070E882E197E00E9425068F8172
:1010000098850E94991F11E0D5CE1111FCCF2C9626
:101010000FB6F894DEBF0FBECDBFDF91CF911F9109
:101020000F91FF90EF90DF90CF90BF90AF909F9087
:101030008F907F906F905F904F9008950E947506FB
:1010400081E008958EBD00000DB407FEFDCF8EB582
:101050000895CF93DF93EC0160E088810E94CA116C
:1010600088E90E94220880E00E94220880E00E9415
:10107000220880E00E94220880E00E94220861E0AD
:1010800088810E94CA118BE891E00197F1F760E036
:1010900088810E94CA1180EE0E94220861E0888146
:1010A000DF91CF910C94CA11AF92BF92CF92DF9291
:1010B000EF92FF920F931F93CF93DF93CDB7DEB7DD
:1010C00060970FB6F894DEBF0FBECDBF5C0160E045
:1010D000FC0180810E94CA1180E60E9422088E01D4
:1010E0000F5F1F4F7E01F1E1EF0EF11C680180E000
:1010F0000E94220890E0A0E0B0E0F6018193919375
:10110000A193B1936F01EE15FF0589F761E0F50139
:1011100080810E94CA1180E090E0DC01F8014191D9
:101120005191619171918F01BA2FA92F982F882722
:10113000840F951FA61FB71FEE15FF0579F79C01B9
:10114000AD0166277727CB01621B730B840B950BD0
:1011500060960FB6F894DEBF0FBECDBFDF91CF9182
:101160001F910F91FF90EF90DF90CF90BF90AF90C5
:1011700008951F93CF93DF93EC01162F88818C3055
:1011800008F04DC061E0812F0E94F911E88195E0DF
:101190009E9FF0011124ED54F94F1F738081807CD4
:1011A000182B10831382E8819E9FF0011124ED54C7
:1011B000F94F148288816CE00E94151D9CE0899F84
:1011C000A001112420E030E095E0BA01620F731F06
:1011D000969FF001979FF00D1124ED54F94F608117
:1011E00066FD13C02F5F3F4F2C30310571F7811121
:1011F0000CC01092800082E08093810010928500E4
:101200001092840086BB80936F00E88185E0E89FA0
:10121000F0011124ED54F94F80818064808388812E
:10122000DF91CF911F9108951F920F920FB60F92E9
:1012300011240BB60F922F933F934F935F936F93AD
:101240007F938F939F93AF93BF93EF93FF9380917F
:10125000470387FF05C0109285001092840016C0D6
:1012600020914703022E000C330B8091EF0690E093
:10127000281739075CF43091470325E03203F00169
:101280001124ED54F94F808186FD15C080914703EC
:101290008F5F8093470320914703022E000C330B8E
:1012A0008091EF0690E02817390794F48091470366
:1012B0008C302CF10DC0309147033203F001112422
:1012C000ED54F94F808160E08F730E94CA11DECF28
:1012D000809184009091850084349C4918F480E4C6
:1012E0009CE905C0809184009091850004969093BC
:1012F0008900809388008FEF809347032AC0409134
:101300008400509185003091470325E03203F001BD
:101310001124ED54F94F81819281840F951F909390
:10132000890080938800309147033203F001112433
:10133000ED54F94F808186FF0CC030914703320392
:10134000F0011124ED54F94F808161E08F730E9408
:10135000CA11FF91EF91BF91AF919F918F917F91B2
:101360006F915F914F913F912F910F900BBE0F9016
:101370000FBE0F901F901895823030F066E073E03A
:1013800084E495E00C94B00F813009F4705890E03B
:10139000880F991F805F984F0C94250640E050E01D
:1013A000BA0180E197E00E94250640E050E060E04D
:1013B00070E882E197E00C94250685ED8093BC00EF
:1013C0008091BC0084FDFCCF1092D703089540911A
:1013D0008A03262F30E0240F311D21323105DCF441
:1013E0002091D7032430C9F4FC0180E090E08617F7
:1013F00058F430918A032191DC01A859BC4FA30F06
:10140000B11D2C930196F3CF80918A03680F6093EE
:101410008A0380E0089581E0089582E008950895A8
:1014200008950895E091D9038091D803E81730F426
:10143000F0E0E652FC4F808190E008958FEF9FEF3F
:1014400008959091D9038091D803981750F4E92F0B
:10145000F0E0E652FC4F208130E09F5F9093D9038B
:1014600002C02FEF3FEFC90108958091D80390E0AB
:101470002091D903821B91090895CF92DF92EF92B8
:10148000FF920F931F93CF93DF937C01CB018A01CF
:101490002091FD03222389F0EB016B01C40ED51EC0
:1014A000CC15DD0569F06991D701ED91FC910190B2
:1014B000F081E02DC7011995F3CF642F0E94E70951
:1014C000C801DF91CF911F910F91FF90EF90DF90B6
:1014D000CF900895CF93DF931F92CDB7DEB7698386
:1014E0002091FD032223D1F02091FA03203240F015
:1014F00021E030E0FC013383228380E090E015C0DE
:101500008091FB03E82FF0E0E85BFC4F998190832A
:101510008F5F8093FB038093FA0305C061E0CE01E7
:1015200001960E94E70981E090E00F90DF91CF9152
:1015300008953091FA03313208F04BC08091D703FF
:101540008111FCCF9091FC0322E02093D70321E08E
:101550002093D6032FEF2093D5031092D40330931A
:10156000D303E8E4F3E0A1EBB3E020E0321721F08D
:1015700041914D932F5FFACF1092D2032091D20365
:10158000990F922B9093D2039091D103913061F4F3
:101590001092D1039091D2039093BB009091BC0024
:1015A00093FDF8CF95EC01C095EE9093BC0090911F
:1015B000D7039230E1F39091D5039F3F79F080916A
:1015C000D503803241F08091D503803331F084E03F
:1015D00005C081E003C082E001C083E01092FB03FC
:1015E0001092FA031092FD030895CF93C42F91E057
:1015F0009093FD0399E29093FC031092FB031092E9
:10160000FA03682F60688EEF93E00E946A0A6C2FDD
:101610008EEF93E00E946A0A8EEF93E0CF910C94D4
:10162000990A0F931F930E9457136093AF0470930E
:10163000B0048093B1049093B20487EA94E00E94CE
:10164000360397FF1FC00E9457130091AF041091FB
:10165000B0042091B1043091B204DC01CB01801BB5
:10166000910BA20BB30B0091AB041091AC04209131
:10167000AD043091AE0480179107A207B307E8F2DA
:101680008FEF9FEF1F910F9108954F925F926F928E
:101690007F928F929F92AF92BF92CF92DF92EF9202
:1016A000FF92CF936B017C019B01AC010E94FC1E59
:1016B000882319F068E173E01AC046015701E894E5
:1016C000B7F82FEF3FEF4FE75FE7C501B4010E9486
:1016D000FC1E811112C02FEF3FEF4FE75FE7C501FE
:1016E000B4010E948B1B181644F46CE173E087EA86
:1016F00094E00E94A00F7C017EC02FEF3FEF4FE7E8
:101700005FE4C701B6010E94EB1E18161CF460E2EC
:1017100073E0EDCF2FEF3FEF4FE75FECC701B6016E
:101720000E948B1B87FDF3CF20E030E0A901C701A9
:10173000B6010E948B1B87FF0BC06DE287EA94E025
:101740000E94A4035C01F7FAF094F7F8F09402C049
:10175000A12CB12C2AE037ED43EA5BE3C701B601C7
:101760000E943E1D2B013C010E94951E6B017C01D5
:101770000E94901B9B01AC01C301B2010E943D1D60
:101780002B013C012AE0B701A60187EA94E00E9400
:10179000C40F7C01EA0CFB1C6EE287EA94E00E9415
:1017A000A403E80EF91EC3E0C15029F120E030E0A7
:1017B00040E251E4C301B2010E94F11B2B013C0144
:1017C0000E94951E4B01A12CB12C2AE0B501A40169
:1017D00087EA94E00E94C40FE80EF91EC501B40127
:1017E0000E94901B9B01AC01C301B2010E943D1DF0
:1017F0002B013C01D9CF6CEA72E087EA94E00E94A9
:10180000A00F8E0D9F1DCF91FF90EF90DF90CF9096
:10181000BF90AF909F908F907F906F905F904F9010
:1018200008950F931F93CF93DF93EC018B010E94D8
:1018300063022881398181110DC02115310519F00C
:10184000C9010E94991F198218821D821C821B8265
:101850001A8207C01D830C836EEA72E0C9010E94E0
:101860001E21CE01DF91CF911F910F910895CF924C
:10187000DF92EF92FF920F931F93CF93DF931F920C
:101880001F92CDB7DEB78C01C62EFC0111821082EB
:10189000138212821582148260E070E00E94110CA3
:1018A0000E94110B0C2C000CDD0897FD23C08C1539
:1018B0009D0501F189831A82F801E480F580FFEF2C
:1018C000EF1AFF0AB701C8010E946302882379F06A
:1018D000F8012081318184819581BE016F5F7F4F46
:1018E000820F931F0E941E21F801F582E4820E945C
:1018F000110BDBCFC8010F900F90DF91CF911F919B
:101900000F91FF90EF90DF90CF9008950F931F936A
:10191000CF93DF93162F072FC7EFD6E09C8521E0EA
:101920002093FD039093FC031092FB031092FA03A3
:10193000AA85BB85ED91FC9111970190F081E02D76
:10194000682FCD0119958A859B85DC01ED91FC916D
:101950000190F081E02D602F19958A859B85DC012F
:10196000ED91FC910190F081E02D612F19958A8510
:101970009B85DF91CF911F910F910C94990AFC01E7
:10198000248131E03093FD032093FC031092FB038C
:101990001092FA038485682B8EEF93E00E946A0A06
:1019A0008EEF93E00C94990A0F931F93CF938C01C1
:1019B000C62F64600E94BF0C6C2F6B7FC8010E9411
:1019C000BF0C83EC90E00197F1F7CF911F910F913D
:1019D0000895FC01A089B1898C91A689B78982FDFF
:1019E0000FC09C91818D8F5F8F73228D821749F07C
:1019F000218DDF01A20FB11D5D969C93818F08950B
:101A00008C9108951F920F920FB60F9211240F9090
:101A10000FBE0F901F9018951F920F920FB60F9246
:101A200011240BB60F922F933F934F935F936F93B5
:101A30007F938F939F93AF93BF93EF93FF93809187
:101A4000B900887F803609F49CC068F5883209F4B3
:101A50005BC090F4803109F454C038F4882309F451
:101A6000F6C0883009F44DC0F6C0883109F44CC086
:101A7000803209F45DC0EFC0803409F468C048F4D6
:101A8000803309F455C0883309F0E5C08093D5034D
:101A9000D8C0803509F44FC0883509F45DC088345A
:101AA00009F0D9C0D6C0883909F4C7C0A8F488376E
:101AB00009F467C038F4883609F463C0803709F444
:101AC00060C0C9C0883809F4B8C0803909F45FC063
:101AD000803809F0C0C05BC0803B09F486C038F490
:101AE000803A09F466C0883A09F47FC0B4C0803CEB
:101AF00009F4A7C0883C09F4A4C0883B09F48AC053
:101B0000AAC08091D20310C09091D4038091D303D6
:101B1000981770F5E091D40381E08E0F8093D40381
:101B2000F0E0EF54FC4F80818093BB0085EC86C0D1
:101B30008093D5038EC0E091D40381E08E0F809313
:101B4000D4038091BB00F0E0EF54FC4F8083909170
:101B5000D4038091D3036EC0E091D40381E08E0F53
:101B60008093D4038091BB00F0E0EF54FC4F80835E
:101B70008091D60381116DC081E08093D10384EA06
:101B800061C083E08093D7031092AE03CFCF8091E2
:101B9000AE03803208F051C0E091AE0381E08E0FB9
:101BA0008093AE038091BB00F0E0E257FC4F80834E
:101BB000BDCF85EC8093BC001092D7038091AE031B
:101BC000803230F4E091AE03F0E0E257FC4F108237
:101BD0006091AE0370E0E0918C03F0918D038EE88C
:101BE00093E019951092AE0336C084E08093D7033A
:101BF00010928B0310928A03E0918803F09189037D
:101C0000199580918A03811105C081E080938A0330
:101C100010926803E0918B0381E08E0F80938B0319
:101C2000F0E0E859FC4F80818093BB0090918B03DA
:101C300080918A03981708F479CF85E88093BC00D7
:101C40000AC085EC8093BC001092D70304C01092A8
:101C5000D5030E94DD09FF91EF91BF91AF919F9154
:101C60008F917F916F915F914F913F912F910F9045
:101C70000BBE0F900FBE0F901F9018951092D903B6
:101C80001092D8031092FB031092FA031092D7031C
:101C900081E08093D6031092D10361E084E10E9439
:101CA000CA1161E085E10E94CA11E9EBF0E0808190
:101CB0008E7F808380818D7F808388E48093B800CD
:101CC00085E48093BC008FE09AE090938903809331
:101CD000880380E19AE090938D0380938C030895AC
:101CE000CF93DF938EEF93E00E943E0E81E08093CE
:101CF000FD0389E28093FC031092FB031092FA0328
:101D000062E98EEF93E00E946A0A8EEF93E00E94F0
:101D1000990A8091D7038111FCCF81E08093D7038A
:101D20008093D6039FEF9093D5031092D403109223
:101D3000D3038093D2038091D20382658093D20330
:101D40008091D103813061F41092D1038091D2034C
:101D50008093BB008091BC0083FDF8CF85EC01C06F
:101D600085EE8093BC008091D7038130E1F38091B0
:101D7000D403811103C09091D40301C091E0A1EB81
:101D8000B3E0EAEDF3E080E0891721F02D91219393
:101D90008F5FFACF1092D9038093D8038EEF93E030
:101DA0000E94210A843411F08031D1F581E08093C2
:101DB0002E07C0913107D0913207AE0160E070E08C
:101DC0000E94F50AD0933207C0933107C0912F07C4
:101DD000D091300780912E07811102C00E94700EB1
:101DE000AE0160E070E08FE00E94F50AD09330070A
:101DF000C0932F0741E050E060E070E080E00E9477
:101E0000F50A63E070E080E090E00E941D1343E07B
:101E100050E060E070E080E00E94F50A81E001C0DF
:101E200080E0DF91CF910895CF93DF93282F30E0AA
:101E3000F901EC5EFC4F8491F901E253FD4FD4911E
:101E4000F901E857FD4FC491CC2391F081110E9414
:101E50007411EC2FF0E0EE0FFF1FE259FD4FA5913A
:101E6000B491EC91ED2381E090E021F480E002C098
:101E700080E090E0DF91CF910895CF92DF92EF92D2
:101E8000FF92CF93DF93EC016A017B01E889F98926
:101E900082E080834115514E61057105B1F060E02B
:101EA00079E08DE390E0A70196010E94E41CDA013D
:101EB000C9010197A109B109B695A795979587958D
:101EC0009C01211580E13807A8F0E889F989108282
:101ED00060E874E88EE190E0A70196010E94E41C9E
:101EE000DA01C9010197A109B109B695A79597959E
:101EF00087959C01EC85FD853083EE85FF852083E9
:101F0000188EEC89FD8986E08083EA89FB898081CF
:101F100080618083EA89FB89808188608083EA8987
:101F2000FB89808180688083EA89FB8980818F7D3D
:101F30008083DF91CF91FF90EF90DF90CF90089555
:101F40006115710551F0FB0101900020E9F731970F
:101F5000AF01461B570B0C94FD0180E090E0089503
:101F60000F931F93CF93DF93EC010E94A00F8C017E
:101F70006CEA72E0CE010E94A00F800F911FDF91EA
:101F8000CF911F910F9108958F929F92AF92BF9220
:101F9000EF92FF920F931F93CF93DF93CDB7DEB7EE
:101FA000A1970FB6F894DEBF0FBECDBF7C01FA013A
:101FB000CB0119A2223008F42AE08E010F5D1F4FD9
:101FC000822E912CA12CB12CBF01A50194010E945D
:101FD000E41CF901CA01015011096A3014F4605D72
:101FE00001C0695CD8016C93232B242B252B61F74E
:101FF000B801C7010E94A00FA1960FB6F894DEBFEA
:102000000FBECDBFDF91CF911F910F91FF90EF9049
:10201000BF90AF909F908F9008958F929F92AF92B4
:10202000BF92DF92EF92FF920F931F93CF93DF93B4
:102030008C01DD24D394181619060CF4D12CCD2D67
:10204000D0E0B801012E000C880B990B0E94921B66
:1020500025E535E541EB51E40E94F11B0E948E1EFF
:102060007B014B01770FAA08BB08B7FE0EC06DE2DB
:1020700084E495E00E94A40344275527BA01481937
:1020800059096A097B092AE003C02AE0B501A401C5
:1020900084E495E00E94C40F6CEA72E084E495E069
:1020A0000E94A00F4DEC5CEC6CE47EE38D2D0E9451
:1020B000BC0981E0101611060CF080E040E050E011
:1020C000BA010E94BC09CC0FDD1F6D96C950D94FD3
:1020D000CE010E942908912CD12CAA24BB24AE1831
:1020E000BF08892D9D2D97FF03C09195819591097A
:1020F0009701F7FC950182179307DCF46AE070E022
:1021000080E090E00E941D13CE011016110654F4D9
:102110000E94540890958095709561957F4F8F4FE0
:102120009F4F02C00E945408962ED72E0E9475061B
:10213000D8CFDF91CF911F910F91FF90EF90DF905B
:10214000BF90AF909F908F9008958F929F92AF9283
:10215000BF92CF92DF92EF92FF92CF93DF936B010A
:102160007C0120E030E0A9010E948B1B87FD03C0A9
:10217000C1E0D0E002C0CFEFDFEF2EEC31EC4EE952
:1021800054E4C701B6010E94F11B6B017C0184E19C
:1021900097E00E94290886E197E00E942908BE0185
:1021A0000D2E000C880B990B0E94921BA701960123
:1021B0000E94F11BAB01BC0180E197E00E94250663
:1021C000662777276C1B7D0B072E000C880B990B5D
:1021D0000E94921BA70196010E94F11BAB01BC015A
:1021E00081E00E94BC09A12CB12CE501B7FE03C01F
:1021F000D195C195D109C701B6010E948E1E9B01E0
:1022000077FF04C022273327261B370B2C173D07E7
:10221000DCF16AE070E080E090E00E941D1384E150
:1022200097E00E9454084B015C0186E197E00E9410
:102230005408B094A09490948094811C911CA11C8B
:10224000B11C940197FE04C02227332728193909AD
:10225000AB0177FF04C044275527461B570BB90134
:10226000640F751F072E000C880B990B0E94921BA0
:1022700020E030E040E05FE30E94F11B0E948E1EF0
:102280005B010E947506B1CFDF91CF91FF90EF9077
:10229000DF90CF90BF90AF909F908F9008953FB701
:1022A000F8948091FA079091FB07A091FC07B091F8
:1022B000FD0726B5A89B05C02F3F19F00196A11D6B
:1022C000B11D3FBFBA2FA92F982F8827820F911DCC
:1022D000A11DB11DBC01CD0142E0660F771F881F13
:1022E000991F4A95D1F7089590E0FC013197E231AA
:1022F000F10508F04EC08827EE58FF4F8F4F0C9421
:10230000351D809180008F7703C0809180008F7D84
:1023100080938000089580918000877FF9CF84B5F5
:102320008F7702C084B58F7D84BD08958091B00001
:102330008F7703C08091B0008F7D8093B0000895A7
:10234000809190008F7707C0809190008F7D03C0AF
:1023500080919000877F8093900008958091A000E5
:102360008F7707C08091A0008F7D03C08091A0006F
:10237000877F8093A0000895809120018F7707C008
:10238000809120018F7D03C080912001877F809301
:10239000200108951F93CF93DF93282F30E0F90198
:1023A000EC5EFC4F8491F901E253FD4FD491F901A9
:1023B000E857FD4FC491CC23C1F0162F81110E9424
:1023C0007411EC2FF0E0EE0FFF1FEC58FC4FA591BD
:1023D000B4919FB7F894111104C08C91D095D82373
:1023E00002C0EC91DE2BDC939FBFDF91CF911F9158
:1023F0000895CF93DF9390E0FC01E253FD4F2491C9
:10240000FC01E857FD4F8491882361F190E0880F2B
:10241000991FFC01E65AFC4FC591D491FC01EC5880
:10242000FC4FA591B491611109C09FB7F8948881C0
:10243000209582238883EC912E230BC0623061F4B7
:102440009FB7F8948881322F309583238883EC914D
:102450002E2B2C939FBF06C08FB7F894E8812E2BAC
:1024600028838FBFDF91CF9108951F93CF93DF9380
:10247000182FEB0161E00E94F911209711F460E040
:1024800004C0CF3FD10539F461E0812FDF91CF91B6
:102490001F910C94CA11E12FF0E0EC5EFC4FE49127
:1024A0008E2F90E0FC013197E231F10508F09DC0DC
:1024B0008827EC57FF4F8F4F0C94351D84B58068EB
:1024C00084BDC7BD97C084B5806284BDC8BD92C0BD
:1024D00080918000806880938000D0938900C093B1
:1024E000880088C080918000806280938000D093B3
:1024F0008B00C0938A007EC08091800088608093AA
:102500008000D0938D00C0938C0074C08091B00087
:1025100080688093B000C093B3006CC08091B0001D
:1025200080628093B000C093B40064C0809190003A
:10253000806880939000D0939900C09398005AC00F
:1025400080919000806280939000D0939B00C09314
:102550009A0050C080919000886080939000D09342
:102560009D00C0939C0046C08091A000806880932D
:10257000A0008091A0008F7B8093A000D093A90041
:10258000C093A80037C08091A00080628093A00013
:10259000D093AB00C093AA002DC08091A0008860AA
:1025A0008093A000D093AD00C093AC0023C0809175
:1025B0002001806880932001D0932901C0932801D5
:1025C00019C080912001806280932001D0932B015B
:1025D000C0932A010FC08091200188608093200160
:1025E000D0932D01C0932C0105C0C038D1050CF04B
:1025F0004BCF45CFDF91CF911F910895863308F0DF
:10260000865390917B00282F2870977F922B909370
:102610007B008770806480937C0080917A00806466
:1026200080937A0080917A0086FDFCCF80917800BB
:102630002091790090E0922B08958F929F92AF9213
:10264000BF92CF92DF92EF92FF926B017C010E94CA
:102650004F114B015C01C114D104E104F104F1F00C
:102660000E944F11DC01CB0188199909AA09BB0905
:10267000883E9340A105B10570F321E0C21AD1084C
:10268000E108F10888EE880E83E0981EA11CB11CB9
:10269000C114D104E104F10419F7DDCFFF90EF90EC
:1026A000DF90CF90BF90AF909F908F9008952FB7FD
:1026B000F8946091F6077091F7078091F807909170
:1026C000F9072FBF08951F920F920FB60F92112492
:1026D0002F933F938F939F93AF93BF938091F60770
:1026E0009091F707A091F807B091F9073091F5079D
:1026F00023E0230F2D3720F40196A11DB11D05C045
:1027000026E8230F0296A11DB11D2093F5078093A3
:10271000F6079093F707A093F807B093F907809115
:10272000FA079091FB07A091FC07B091FD07019675
:10273000A11DB11D8093FA079093FB07A093FC079E
:10274000B093FD07BF91AF919F918F913F912F91D2
:102750000F900FBE0F901F901895CF93DF93CDB7BA
:10276000DEB728970FB6F894DEBF0FBECDBF7894C2
:1027700084B5826084BD84B5816084BD85B5826086
:1027800085BD85B5816085BD80916E008160809337
:102790006E001092810080918100826080938100A0
:1027A00080918100816080938100809180008160B0
:1027B000809380008091B10084608093B10080910B
:1027C000B00081608093B00080919100826080931E
:1027D00091008091910081608093910080919000A0
:1027E0008160809390008091A10082608093A1001D
:1027F0008091A10081608093A1008091A000816000
:102800008093A000809121018260809321018091BA
:10281000210181608093210180912001816080935A
:10282000200180917A00846080937A0080917A0000
:10283000826080937A0080917A00816080937A0030
:1028400080917A00806880937A001092C10040E8FD
:1028500055E260E070E084E495E00E943D0F61E0A5
:102860008091F8060E94F91160E08091F8060E94BC
:10287000CA1160E08091F7060E94F9118EEF93E093
:1028800090930207809301070E943E0E80E090E142
:10289000A0E0B0E08093040790930507A09306079B
:1028A000B09307078AE090E0A0E0B0E080930807CB
:1028B00090930907A0930A07B0930B0780E090E07C
:1028C000A0E0B0E480930C0790930D07A0930E074F
:1028D000B0930F0760E070E185E00E94860C6FE91D
:1028E00079E380E00E94860C27EF36E03A83298363
:1028F000890172E0772EEDEBAE2EE2E0BE2EF3E022
:102900008F2EF3E09F2EABECEA2EA7E0FA2EF80113
:1029100094818281E981FA81818F928F61E00E94A6
:10292000F91161E0E981FA81828D0E94F911F801C3
:1029300090858681C980DA80FDE1CF0ED11CE981C6
:10294000FA81858F968F61E00E94F91160E0E9813C
:10295000FA81868D0E94F91161E0E981FA81858D05
:102960000E94CA116FB6F89480912903811126C084
:10297000F5018491F4012491E82FF0E0EE0FFF1FA0
:10298000E65AFC4FA591B4919C91822F892321F4A2
:1029900061E085E30E94CA1161E085E30E94F911BC
:1029A0008CB580618CBD8CB580648CBD61E084E3A6
:1029B0000E94F91161E083E30E94F91180912903DB
:1029C0008F5F809329036FBEC7010197F1F760E025
:1029D000E981FA81858D0E94CA1188E80E94220847
:1029E00083E00E94220861E0E981FA81858D0E94DE
:1029F000CA11C7010197F1F7C6010E9429087A940C
:102A00000F5F1F4F29813A812E5F3F4F3A83298301
:102A100071107DCF4CE157E05A83498300E217E003
:102A200060E0E981FA818191FA83E9830E94F911DA
:102A300029813A812052374099F788E197E09A83BB
:102A4000898378019FEFE91AF90AF801608170E043
:102A5000C80108960E94B908F70195818381E98130
:102A6000FA81828B938B60E00E94F91161E0E98129
:102A7000FA8183890E94F91160E0E981FA818389F2
:102A80000E94CA1129813A812E5F3F4F3A832983E0
:102A9000870137E002321307A1F6F8941092200163
:102AA00089E08093210180E293E090932901809353
:102AB0002801109225011092240182E08093730076
:102AC00078948093E1051092E5058091E20560E03D
:102AD0000E94F91140E855E260E070E084E495E07E
:102AE0000E943D0F6091200770E088E297E00E940D
:102AF000B90880912207893220F480912307883217
:102B000038F463E472E084E495E00E94B00F4DC0B5
:102B1000409128074C3008F048C0E5E04E9FC001C6
:102B200011248D54994F9A838983FC01838128E86D
:102B300030E06901C81AD10887FDD394CC0CDD1CA4
:102B4000CC0CDD1C0D2C000CEE08FF08848128E560
:102B500032E0281B310987FD3395220F331F220FE6
:102B6000331FC901330FAA0BBB0B9C01AD012C19FC
:102B70003D094E095F09A8E2B0E00E94D11C24EB98
:102B800030E040E050E00E94B21CC20ED31EE41EB2
:102B9000F51EF6E0CF1AD108CC0CDD1C8FB7F894E7
:102BA000E981FA81D282C1828FBF61E082E00E9416
:102BB000F91160E086E30E94F91160E087E30E946A
:102BC000F9110E94700E882319F060E672E002C0CD
:102BD0006DE672E084E495E00E94B00F40E056E9B3
:102BE00060E070E087EA94E00E943D0F6AE972E0DD
:102BF00084E495E00E94A00F80911C070E94140FAE
:102C0000892B39F462E370E080E090E00E941D13AC
:102C1000F3CF0E94B31926E030E040E050E00E947C
:102C2000B21C8B010F5F1F4F0E94B3192AE030E0E6
:102C300040E050E00E94B21CAB014F5F5F4F5A83EF
:102C400049830E94B31923E030E040E050E00E9445
:102C5000B21C6F5F7F4F8F4F9F4F0E94921B20E0EF
:102C600030E040E251E40E941C1E60932A037093FE
:102C70002B0380932C0390932D0366EA72E084E487
:102C800095E00E94A00FA80160E070E02AE084E4D3
:102C900095E00E94C40F6CEA72E084E495E00E9423
:102CA000A00F0330110551F488E691E069817A8123
:102CB0000E94211DCB010E940D1059C00430110546
:102CC00008F0F0C00130110509F0E5C040902A037A
:102CD00050902B0360902C0370902D0384E197E0BB
:102CE0000E94290886E197E00E9429088AE0C980AD
:102CF000DA808C9DB0018D9D700D112480E090E0F4
:102D00000E94901B25E83BEA45E053E40E94F11B3A
:102D10000E948E1E8B01B301A20180E197E00E9408
:102D20002506B301A20181E00E94BC090E9457134D
:102D30004B015C010E9457136B017C01212C312C4B
:102D400018861F8222273327201B310B3E832D83B9
:102D50002F81388537FF03C0319521953109C8018E
:102D600017FF02C08D819E81281739072CF00E9421
:102D7000CE090E9416043ACF84E690E0A0E0B0E0CD
:102D80008C199D09AE09BF09BC01CD01680D791DE3
:102D90008A1D9B1D0E941D130E9457134B015C014D
:102DA00084E197E00E9454086B017C0188279927F1
:102DB000DC018C199D09AE09BF09EF80F884E80E8B
:102DC000F91EF886EF8284E197E00E9454086B01B7
:102DD0007C0184E197E00E94290886E197E00E9447
:102DE000540869837A838B839C8386E197E00E94F1
:102DF000290888279927DC018C199D09AE09BF098C
:102E00009C01AD01C980DA80EB80FC802C193D0962
:102E10004E095F09AAE0B0E00E94D11C260E371EC1
:102E20000E94921B27E137EB41ED58E30E94F11B12
:102E3000A30192010E943E1D6B017C01B101032C94
:102E4000000C880B990B0E94921B20EB3FE041E2A3
:102E500055E30E94F11BA70196010E943E1D2B0124
:102E60003C0120E030E040E85FE30E948B1B87FDDF
:102E700006C0412C512C80E8682E8FE3782EB301D8
:102E8000A20181E00E94BC090E9457136B017C01E2
:102E90000E9475065DCF0230110509F068CF88E900
:102EA0009EEF04CF0430110591F4E980FA80B70158
:102EB00080E090E00E94901B9B01AC016BED7FE0F5
:102EC00089EC90E40E941C1E0E94A51050CF053092
:102ED000110509F04CCF0E94CE090E94B31925E0DC
:102EE00030E040E050E00E94B21CDC01CB010196D2
:102EF000A11DB11D28EE33E0829F6001839FD00C9D
:102F0000929FD00C11240E9457134B015C01E12CBD
:102F1000F12C0E945713DC01CB0188199909AA09E9
:102F2000BB098C159D05AE05BF0508F020CF0E949A
:102F3000750662E370E080E090E00E941D13E9CF27
:102F40008091F0069091F1060C94991F1092010463
:102F50001092000488EE93E0A0E0B0E080930204B9
:102F600090930304A0930404B093050427E132E096
:102F70003093FF032093FE0310920D0410920C0473
:102F800080930E0490930F04A0931004B093110447
:102F900029E232E030930B0420930A0445E351E028
:102FA000509317044093160444E351E050931904DE
:102FB0004093180440E351E050931B0440931A04DB
:102FC00041E351E050931D0440931C0442E351E05F
:102FD00050931F0440931E0446E351E05093210494
:102FE000409320041092230410922404109225048C
:102FF000109226041092AA041092A9048093AB04A4
:103000009093AC04A093AD04B093AE043093A804A5
:103010002093A70445ED50E05093B4044093B304CB
:1030200044ED50E05093B6044093B50440ED50E0B9
:103030005093B8044093B70441ED50E05093BA0464
:103040004093B90442ED50E05093BC044093BB045C
:1030500046ED50E05093BE044093BD041092C0046E
:103060001092C1041092C2041092C304109247053A
:10307000109246058093480590934905A0934A0510
:10308000B0934B05309345052093440585EC90E0C3
:10309000909351058093500584EC90E090935305F4
:1030A0008093520580EC90E09093550580935405F1
:1030B00081EC90E0909357058093560582EC90E068
:1030C000909359058093580586EC90E090935B05AA
:1030D00080935A0510925D0510925E0510925F056F
:1030E0001092600580910B0290910C02A0910D024C
:1030F000B0910E028093180790931907A0931A07B6
:10310000B0931B0780910F0290911002A0911102C1
:10311000B091120280931C0790931D07A0931E0785
:10312000B0931F0784E08093200787E080932107F6
:103130001092220784EB8093230786E18093240773
:1031400088E18093250787E18093260789E18093B2
:103150002707E091EF06EC3020F08FEF80932807EF
:1031600010C081E08E0F8093EF06E093280725E0E2
:10317000E29FF0011124ED54F94F88EB9BE092831C
:103180008183E091EF06EC3020F08FEF80932907E8
:1031900010C081E08E0F8093EF06E093290785E051
:1031A000E89FF0011124ED54F94F88EB9BE09283E6
:1031B00081838CE08093F70684E28093F80686E0B2
:1031C0008093F90685E08093FA068FE18093FB06F1
:1031D0008EE18093FC0683E28093FD0682E2809379
:1031E000FE0685E48093FF0684E48093000780E474
:1031F00080930307109208071092090710920A079C
:1032000010920B0710920C0710920D0710920E07E8
:1032100010920F07E7E3F7E08FEF9FEFDC011282D8
:103220001382148215821682178210861186838774
:103230009487A587B6878787908BA18BB28B1286E0
:1032400011821082739627E0E53FF20741F78DE087
:1032500090E00E94011FFC01138212828BE392E036
:1032600091838083118687E2848384E1828784E06E
:1032700083871486F0933407E09333071092350761
:103280001092360785E28093E2051092E4051092D1
:10329000F1061092F0061092F3061092F2061092C8
:1032A000F5061092F40660E070E080EF96E00E9470
:1032B000110C10922E078BEE90E0909332078093C2
:1032C000310781E090E09093300780932F070895B5
:1032D0008F929F92AF92BF92CF92DF92EF92FF9226
:1032E000CF93DF93EC01688179818A819B8161159D
:1032F00071058105910521F464E279ED8BE597E094
:103300002DE133EF41E050E00E94B21C49015A0127
:103310009B01AC01A7EAB1E40E94D11C6B017C01C6
:10332000ACEEB4EFA50194010E94DF1CDC01CB01DF
:103330008C0D9D1DAE1DBF1DB7FF03C00197A109D8
:10334000B04888839983AA83BB83BC01CD019F7752
:10335000DF91CF91FF90EF90DF90CF90BF90AF9033
:103360009F908F9008958F929F92AF92BF92CF922D
:10337000DF92EF92FF9260910102709102028091C0
:10338000030290910402611571058105910521F4F4
:1033900064E279ED8BE597E02DE133EF41E050E019
:1033A0000E94B21C49015A019B01AC01A7EAB1E499
:1033B0000E94D11C6B017C01ACEEB4EFA50194011D
:1033C0000E94DF1CDC01CB018C0D9D1DAE1DBF1DBD
:1033D000B7FF03C00197A109B04880930102909301
:1033E0000202A0930302B0930402BC01CD019F77B7
:1033F000FF90EF90DF90CF90BF90AF909F908F9015
:1034000008956093010270930202809303029093E7
:1034100004020895662777270C940E1A8F929F92C4
:10342000AF92BF92CF92DF92EF92FF920F931F93D2
:10343000CF93DF93EC016B016115710519F0FB016E
:10344000918380837E01FFEFEF1AFF0A0881802FAE
:1034500090E00E946A1B892B11F0E701F3CF0D3237
:1034600039F47E0182E0E80EF11C098111E008C008
:103470000B3229F47E0192E0E90EF11C098110E083
:10348000E701219743E050E06AE372E0CE010E9439
:10349000731B892BC1F4239645E050E065E372E08D
:1034A000CE010E94731B892B09F42596C114D10407
:1034B00019F0F601D183C0831111F6C060E070E00D
:1034C00080E89FE7FAC043E050E062E372E0CE019B
:1034D0000E94731B892B59F4C114D10409F4E9C06B
:1034E000F2E0EF0EF11CF601F182E082E2C020E092
:1034F00030E0A901C0E0D0E0F70160EDA62EA00EFB
:1035000089E08A1530F1912F9260B92E812F887051
:1035100012FF04C0811124C0219622C0811121977D
:10352000A5E0B0E00E94D11CDC01CB01880F991FFF
:10353000AA1FBB1F9C01AD012A0D311D411D511D4C
:10354000283989E93807480789E1580748F01660A3
:1035500006C09EEFA9120AC013FD40C01860B12E2C
:103560008FEFE81AF80A00811B2DC6CF802F8F7DC0
:103570008534A1F580818D3211F4106106C08B3243
:1035800021F0319661E070E004C08181329662E002
:1035900070E080538A3018F0E61BF70B1FC060E024
:1035A00070E060389CE079075CF4DB01AA0FBB1F78
:1035B000AA0FBB1F6A0F7B1F660F771F680F711D55
:1035C0003196DF0111978C9180538A3050F314FFAC
:1035D00003C0719561957109C60FD71F11FF08C00F
:1035E000C114D10429F0CF010197F60191838083A2
:1035F000CA01B9010E94901B212F2370233019F0BA
:103600004B015C0106C04B015C01B7FAB094B7F8FE
:10361000B09420E030E0A901C501B4010E948B1BE9
:10362000882309F43EC0D7FF06C0D195C195D109C2
:1036300001E512E002C009E612E06801F8E1CF1AE4
:10364000D10890E2E92EF12CCE15DF0574F0F801D7
:103650002591359145915491C501B4010E94F11B0A
:103660004B015C01CE19DF09EFCF04501109F5942D
:10367000E7940C151D0541F78A2D880F8B2D881FA7
:103680008F3F49F020E030E0A901C501B4010E945C
:103690008B1B811106C082E290E09093FF0780931C
:1036A000FE07C501B40109C060E070E080E89FEF4B
:1036B00004C060E070E080EC9FE7DF91CF911F9144
:1036C0000F91FF90EF90DF90CF90BF90AF909F90C1
:1036D0008F90089591110C945E1C803219F08950DE
:1036E0008550C8F70895FB01DC014150504088F037
:1036F0008D9181341CF08B350CF4805E65916134C2
:103700001CF06B350CF4605E861B611171F3990B34
:103710000895881BFCCF0E94CD1B08F481E008951A
:10372000E89409C097FB3EF490958095709561955B
:103730007F4F8F4F9F4F9923A9F0F92F96E9BB2711
:103740009395F695879577956795B795F111F8CF8D
:10375000FAF4BB0F11F460FF1BC06F5F7F4F8F4FF8
:103760009F4F16C0882311F096E911C0772321F0EE
:103770009EE8872F762F05C0662371F096E8862F86
:1037800070E060E02AF09A95660F771F881FDAF7DD
:10379000880F9695879597F90895990F0008550F0A
:1037A000AA0BE0E8FEEF16161706E807F907C0F0C7
:1037B00012161306E407F50798F0621B730B840BCF
:1037C000950B39F40A2661F0232B242B252B21F4A9
:1037D00008950A2609F4A140A6958FEF811D811D49
:1037E00008950E94041C0C94781C0E946A1C38F0F6
:1037F0000E94711C20F0952311F00C94611C0C9414
:10380000671C11240C94AC1C0E94891C70F3959FBA
:10381000C1F3950F50E0551F629FF001729FBB27C7
:10382000F00DB11D639FAA27F00DB11DAA1F649F63
:103830006627B00DA11D661F829F2227B00DA11D16
:10384000621F739FB00DA11D621F839FA00D611D9C
:10385000221F749F3327A00D611D231F849F600DBD
:10386000211D822F762F6A2F11249F5750409AF0E6
:10387000F1F088234AF0EE0FFF1FBB1F661F771F72
:10388000881F91505040A9F79E3F510580F00C943D
:10389000611C0C94AC1C5F3FE4F3983ED4F3869516
:1038A00077956795B795F795E7959F5FC1F7FE2BDD
:1038B000880F911D9695879597F9089599278827E0
:1038C000089597F99F6780E870E060E008959FEFA2
:1038D00080EC089500240A941616170618060906A7
:1038E000089500240A941216130614060506089576
:1038F000092E0394000C11F4882352F0BB0F40F4FE
:10390000BF2B11F460FF04C06F5F7F4F8F4F9F4F3D
:10391000089557FD9058440F551F59F05F3F71F0BF
:103920004795880F97FB991F61F09F3F79F0879526
:103930000895121613061406551FF2CF4695F1DFAF
:1039400008C0161617061806991FF1CF869571053F
:10395000610508940895E894BB2766277727CB0173
:1039600097F90895052E97FB1EF400940E94C91C38
:1039700057FD07D00E94E41C07FC03D04EF40C94C2
:10398000C91C50954095309521953F4F4F4F5F4F43
:10399000089590958095709561957F4F8F4F9F4FBB
:1039A00008950E94061DA59F900DB49F900DA49FA1
:1039B000800D911D11240895B7FF0C94D11C0E9415
:1039C000D11C821B930B0895A1E21A2EAA1BBB1BCC
:1039D000FD010DC0AA1FBB1FEE1FFF1FA217B307DB
:1039E000E407F50720F0A21BB30BE40BF50B661FF1
:1039F000771F881F991F1A9469F7609570958095B5
:103A000090959B01AC01BD01CF010895A29FB0012B
:103A1000B39FC001A39F700D811D1124911DB29F02
:103A2000700D811D1124911D0895991B79E004C02A
:103A3000991F961708F0961B881F7A95C9F78095ED
:103A40000895AA1BBB1B51E107C0AA1FBB1FA617E5
:103A5000B70710F0A61BB70B881F991F5A95A9F737
:103A600080959095BC01CD010895EE0FFF1F881F32
:103A70008BBF0790F691E02D19945058BB27AA27C9
:103A80000E94551D0C94781C0E946A1C38F00E94FC
:103A9000711C20F039F49F3F19F426F40C94671C34
:103AA0000EF4E095E7FB0C94611CE92F0E94891C41
:103AB00058F3BA17620773078407950720F079F463
:103AC000A6F50C94AB1C0EF4E0950B2EBA2FA02D8E
:103AD0000B01B90190010C01CA01A0011124FF27BB
:103AE000591B99F0593F50F4503E68F11A16F040B6
:103AF000A22F232F342F4427585FF3CF46953795B5
:103B00002795A795F0405395C9F77EF41F16BA0B79
:103B1000620B730B840BBAF09150A1F0FF0FBB1F27
:103B2000661F771F881FC2F70EC0BA0F621F731F70
:103B3000841F48F4879577956795B795F7959E3FCD
:103B400008F0B0CF9395880F08F09927EE0F97955E
:103B5000879508950E946A1C60F080E891E009F45E
:103B60009EEF0E94711C28F040E851E071F45EEF76
:103B70000CC00C94671C0C94AB1CE92FE0780E94DD
:103B8000891C40F3092E052AB1F326173707480789
:103B9000590738F00E2E07F8E02569F0E025E064BB
:103BA0000AC0EF6307F8009407FADB01B9019D0131
:103BB000DC01CA01AD01EF930E94331E0E94781C04
:103BC0000E94ED1D5F91552339F02BED3FE049E454
:103BD00050FD49EC0C943E1D0895DF93DD27B92F6D
:103BE000BF7740E85FE31616170648075B0718F42F
:103BF000D92F0E94F01E9F938F937F936F930E9403
:103C0000F81EECE2F1E00E94C41E0E94781C2F9185
:103C10003F914F915F910E94041CDD2351F0905819
:103C2000A2EA2AED3FE049EC5FE3D0785D270E94ED
:103C3000551DDF910C94781C0E94301E0C94781C4A
:103C40000E94711C58F00E946A1C40F029F45F3FEA
:103C500029F00C94611C51110C94AC1C0C94671C41
:103C60000E94891C68F39923B1F3552391F3951BA6
:103C7000550BBB27AA2762177307840738F09F5F8D
:103C80005F4F220F331F441FAA1FA9F335D00E2EFA
:103C90003AF0E0E832D091505040E695001CCAF767
:103CA0002BD0FE2F29D0660F771F881FBB1F26172A
:103CB00037074807AB07B0E809F0BB0B802DBF0101
:103CC000FF2793585F4F3AF09E3F510578F00C94D0
:103CD000611C0C94AC1C5F3FE4F3983ED4F38695D2
:103CE00077956795B795F7959F5FC9F7880F911DF1
:103CF0009695879597F90895E1E0660F771F881FDD
:103D0000BB1F621773078407BA0720F0621B730B8F
:103D1000840BBA0BEE1F88F7E09508950E94951E5C
:103D20006894B1110C94AC1C08950E94911C88F009
:103D30009F5798F0B92F9927B751B0F0E1F0660F6F
:103D4000771F881F991F1AF0BA95C9F714C0B130B0
:103D500091F00E94AB1CB1E008950C94AB1C672F4E
:103D6000782F8827B85F39F0B93FCCF386957795DF
:103D70006795B395D9F73EF49095809570956195C8
:103D80007F4F8F4F9F4F0895DF93CF931F930F93D4
:103D9000FF92EF92DF927B018C01689406C0DA2ECD
:103DA000EF010E94041CFE01E894A5912591359134
:103DB00045915591A6F3EF010E94551DFE01970113
:103DC000A801DA9469F7DF90EF90FF900F911F91AF
:103DD000CF91DF9108950E94CD1B08F48FEF0895D5
:103DE0009B01AC0160E070E080E89FE30C941C1E36
:103DF0009B01AC010C94F11B0E94CD1B880B990B0D
:103E000008950F931F93CF93DF938230910510F4A1
:103E100082E090E0E0910208F091030820E030E0B9
:103E2000A0E0B0E0309719F1408151810281138107
:103E300048175907C8F08417950769F4109731F0AF
:103E400012960C93129713961C9327C000930208A6
:103E50001093030822C02115310519F042175307AA
:103E600018F49A01BD01EF01DF01F801DBCF211544
:103E70003105F9F0281B390B2430310580F48A8193
:103E80009B816115710521F0FB019383828304C03E
:103E90009093030880930208FE01329644C0FE010D
:103EA000E20FF31F819391932250310939832883C4
:103EB0003AC02091000830910108232B41F4209151
:103EC00007023091080230930108209300082091E6
:103ED0000502309106022115310541F42DB73EB798
:103EE0004091090250910A02241B350BE091000811
:103EF000F0910108E217F307A0F42E1B3F0B2817DF
:103F0000390778F0AC014E5F5F4F2417350748F052
:103F10004E0F5F1F509301084093000881939193C7
:103F200002C0E0E0F0E0CF01DF91CF911F910F914F
:103F30000895CF93DF93009709F481C0FC01329775
:103F400013821282A0910208B0910308109781F4A5
:103F500020813181820F931F209100083091010848
:103F60002817390751F5F0930108E093000867C05E
:103F7000ED0120E030E0CE17DF0740F44A815B819D
:103F80009E0141155105F1F0EA01F5CFD383C283BB
:103F900040815181840F951FC817D90759F4888132
:103FA0009981840F951F0296918380838A819B81DA
:103FB000938382832115310529F4F0930308E0935C
:103FC00002083DC0E901FB83EA8349915991C40F7E
:103FD000D51FEC17FD0761F480819181840F951F37
:103FE0000296E90199838883828193819B838A83E6
:103FF000E0E0F0E012968D919C911397009719F0F4
:10400000FD01DC01F7CF8D919C9111979D012E5FF1
:104010003F4F820F931F209100083091010828170D
:10402000390769F4309729F41092030810920208B6
:1040300002C013821282B0930108A0930008DF919E
:10404000CF9108956F927F928F929F92AF92BF927D
:10405000CF92DF92EF92FF920F931F93CF93DF9354
:10406000009789F4CB01DF91CF911F910F91FF90C1
:10407000EF90DF90CF90BF90AF909F908F907F9008
:104080006F900C94011FFC01E60FF71F9C0122505A
:104090003109E217F30708F4A9C0EC01D9010D9129
:1040A0001C91119706171707B0F00530110508F499
:1040B0009BC0C80104978617970708F495C0025063
:1040C0001109061B170B019311936D937C93CF017C
:1040D0000E94991F89C05B01A01AB10A4C01800E91
:1040E000911EA0910208B0910308612C712CE12C63
:1040F000F12C109709F446C08D919C911197A81549
:10410000B905B1F56C0142E0C40ED11CCA14DB0440
:1041100078F14C018A189B08640142E0C40ED11C5E
:104120001296BC9012971396AC91B5E0CB16D104C1
:1041300040F0B282A38391828082D9016D937C93F7
:1041400009C00E5F1F4F800F911FF901918380837B
:10415000EB2DFA2FE114F10431F0D7011396FC9303
:10416000EE93129741C0F0930308E09302083CC01D
:104170006816790608F43C017D0112960D90BC91F9
:10418000A02DB7CF8091000890910108881699065C
:10419000E1F466167706C8F4809105029091060254
:1041A000009741F48DB79EB74091090250910A02E1
:1041B000841B950BE817F907C8F4F0930108E09306
:1041C0000008F901718360830FC0CB010E94011FB9
:1041D0007C01009759F0A801BE010E940C21CE017C
:1041E0000E94991FC70104C0CE0102C080E090E088
:1041F000DF91CF911F910F91FF90EF90DF90CF90C3
:10420000BF90AF909F908F907F906F90089581E0C6
:1042100090E0F8940C942521FB01DC0102C0019090
:104220000D9241505040D8F70895FB01DC018D916B
:10423000019080190110D9F3990B0895FB01DC015D
:1042400001900D920020E1F7089511E0C8ECD1E053
:1042500000E006C0802FFE010E94351D2196011D41
:0E426000C93CD10780E00807A9F7F894FFCF0A
:10426E00FF01000000000004082000363738391B1B
:10427E001D1A1C000000006A0A3D0A4304110A358B
:10428E000A210A120A00000000A403FD012703F10F
:10429E0003580336034A03000000004604FD0143A1
:1042AE0004FC01536572766F20616E676C65206940
:1042BE0073206F7574206F662072616E67652100C2
:1042CE00466F756E642073656E736F72004E6F204D
:1042DE00544353333437323520666F756E64202E57
:1042EE002E2E20636865636B20796F757220636F65
:1042FE006E6E656374696F6E730053746172746968
:10430E006E672E2E2E004D4F563A20000D0A005786
:10431E00616974696E6720666F7220537472696E7C
:10432E00670053455249414C3220415641494C4158
:10433E00424C450045786974696E67005265636545
:10434E0069766564204F4E00706F735F783A200077
:10435E00706F735F793A20007674733A200044527E
:10436E004956494E4700496E76616C6964206D6FFF
:10437E00746F7220696421006E616E00696E660052
:04438E006F766600E0
:00000001FF
