:100000000C94B2010C94E3010C94E3010C94E30111
:100010000C94E3010C94E3010C94E3010C94E301D0
:100020000C94E3010C94F70E0C94F70E0C94F70E5D
:100030000C94E3010C940F040C94E3010C94E30181
:100040000C94E3010C94A8070C94E3010C94E301D5
:100050000C94E3010C94E3010C94E3010C94EB1079
:100060000C94E3010C947E050C9454050C94E3016C
:100070000C94E3010C94E3010C94E3010C94E30170
:100080000C94E3010C94E3010C94E3010C94E30160
:100090000C94E3010C94E3010C94E3010C946208CA
:1000A0000C94E3010C94E3010C94E3010C94E30140
:1000B0000C94E3010C94E3010C94E3010C94A80567
:1000C0000C94E3010C94E3010C94E3010C942A05D5
:1000D0000C9400050C94E3010C94D6040C94AC042D
:1000E0000C94E301630A660A550A590A5F0A9D0ADD
:1000F0006A0A6E0A740A780A7C0A820A860A8A0ADE
:100100009D0A900A940A980AE60FEB0FF00FFA0F77
:1001100004107D100E1016101E10281032103C1006
:100120004B1055107D105F10691073100C94551012
:100130000C944B100C94BA0F0C94820A0C94780A0D
:100140000C948C020C947D100C94860A0C945D0324
:100150000C943C100C940F020C945F100C94E70369
:100160000C94550A0C9416100C949D0A0C94F00FE4
:100170000C94D9020C9428100C941E020C946E0A54
:100180000C94980A0C9473100C94DF170C945E0373
:100190000C94EB0F0C94B8030C94EA030C94660ACD
:1001A0000C9432100C94401B0C948A0A0C945F0A35
:1001B0000C9432020C94900A0C94590A0C94FA0F85
:1001C0000C9440020C9483030C94630A0C946F0308
:1001D0000C94E60F0C94E5010C948B030C947C0AB0
:1001E0000C946A0A0C9460030C94940A0C940E10FC
:1001F0000C9469100C945F030C94740A0C941E10F8
:100200000C9404104E414E494E495459494E46CD26
:10021000CCCC3D0AD7233C17B7D13877CC2B3295BD
:1002200095E6241FB14F0A000020410000C842009B
:10023000401C4620BCBE4CCA1B0E5AAEC59D740263
:1002400000002100240027002A002D003000330088
:1002500001010000040107010A010000220025003D
:1002600028002B002E00310034000201000005019F
:1002700008010B01000020002300260029002C00AB
:100280002F003200000100000301060109010505ED
:100290000505070508080808020202020A0A0808FC
:1002A000040404040101010101010101030303032A
:1002B00003030303040707070C0C0C0C0C0C0C0CB9
:1002C0000202020206060606060606060B0B0B0BCA
:1002D0000B0B0B0B010210202008081020401020EF
:1002E00040800201020108040201010204081020FA
:1002F00040808040201008040201800402018040F8
:100300002010080402010804020101020408102060
:100310004080010204081020408000000A0B0209FE
:100320000C0D0E080703040100000000000000008F
:1003300000000000000000000000000000000000BD
:10034000000000000000121110000000000000007A
:10035000000000000000000000000000000000009D
:10036000401BDF1711241FBECFEFD1E2DEBFCDBF90
:1003700000E00CBF14E0A0E0B2E0E0E6F8E400E04A
:100380000BBF02C007900D92A033B107D9F728E048
:10039000A0E3B4E001C01D92A63FB207E1F711E06F
:1003A000C1EBD1E000E006C021970109802FFE01DA
:1003B0000E94D320C03BD10780E00807A9F70E9424
:1003C000E5170C941E240C940000CF92DF92EF925C
:1003D000FF920F931F93CF93DF936C017A018B01F0
:1003E000C0E0D0E0CE15DF0581F0D8016D918D0120
:1003F000D601ED91FC910190F081E02DC601199597
:10040000892B11F02196EECF7E01C701DF91CF91AC
:100410001F910F91FF90EF90DF90CF900895FC0116
:10042000538D448D252F30E0842F90E0821B930B59
:10043000541710F0CF96089501970895FC01918DFF
:10044000828D981761F0828DDF01A80FB11D5D9636
:100450008C91928D9F5F9F73928F90E008958FEFA4
:100460009FEF0895FC01918D828D981731F0828D58
:10047000E80FF11D858D90E008958FEF9FEF0895AF
:10048000FC01918D228D892F90E0805C9F4F821B13
:1004900091098F739927089589EF94E00E94400293
:1004A00021E0892B09F420E0822F089586E995E068
:1004B0000E94400221E0892B09F420E0822F089558
:1004C00083E396E00E94400221E0892B09F420E0BA
:1004D000822F0895FC01848DDF01A80FB11DA35A5E
:1004E000BF4F2C91848D90E001968F739927848F54
:1004F000A689B7892C93A089B1898C918370806477
:100500008C93938D848D981306C00288F389E02D17
:1005100080818F7D80830895EF92FF920F931F93C8
:10052000CF93DF93EC0181E0888F9B8D8C8D9813A6
:1005300005C0E889F989808185FD26C0F62E0B8DDE
:1005400010E00F5F1F4F0F731127E02E8C8DE81204
:100550000CC00FB607FCFACFE889F989808185FFC6
:10056000F5CFCE010E946A02F1CF8B8DFE01E80F1C
:10057000F11DE35AFF4FF0829FB7F8940B8FEA8981
:10058000FB89808180620AC09FB7F894EE89FF8959
:100590006083E889F98980818370806480839FBF4C
:1005A00081E090E0DF91CF911F910F91FF90EF904C
:1005B0000895CF93DF93EC01888D8823C9F0EA89F1
:1005C000FB89808185FD05C0A889B9898C9186FD4C
:1005D0000FC00FB607FCF5CF808185FFF2CFA88949
:1005E000B9898C9185FFEDCFCE010E946A02E7CFD9
:1005F000DF91CF910895E0E0F0E0199480E090E081
:10060000892B21F00E946002811119C080E090E0E6
:10061000892B41F080E090E0892B21F00E940000BE
:10062000811110C00E94560281110FC080E090E03D
:10063000892B81F00E944C0281110AC008950E940A
:100640000000E4CF0E940000EDCF0E94FB02EECF3D
:100650000C940000089585ED8093BC008091BC004F
:1006600084FDFCCF1092D604089540917604262F85
:1006700030E0240F311D21323105DCF42091D60405
:100680002430C9F4FC0180E090E0861758F43091E2
:1006900076042191DC01AC5ABB4FA30FB11D2C9302
:1006A0000196F3CF80917604680F6093760480E022
:1006B000089581E0089582E00895089508950895C9
:1006C000E091D8048091D704E81730F4F0E0E752C5
:1006D000FB4F808190E008958FEF9FEF08959091F8
:1006E000D8048091D704981750F4E92FF0E0E7522E
:1006F000FB4F208130E09F5F9093D80402C02FEF22
:100700003FEFC90108958091D70490E02091D8046B
:10071000821B91090895CF92DF92EF92FF920F937F
:100720001F93CF93DF937C01CB018A012091510469
:10073000222389F0EB016B01C40ED51ECC15DD051B
:1007400069F06991D701ED91FC910190F081E02D64
:10075000C7011995F3CF642F0E943503C801DF91BB
:10076000CF911F910F91FF90EF90DF90CF90089560
:10077000CF93DF931F92CDB7DEB7698320915104E9
:100780002223D1F020915204203240F021E030E0C9
:10079000FC013383228380E090E015C080915304F4
:1007A000E82FF0E0EF5CFB4F998190838F5F80939F
:1007B00053048093520405C061E0CE0101960E946B
:1007C000350381E090E00F90DF91CF91089580E0B4
:1007D00090E008950F931F93CF93DF938C01C62F62
:1007E000D62FD07FD1606D2F0E94B20E6D2FC80121
:1007F0000E94C90E80E1C89FB0011124C62FC160BC
:100800006C2FC8010E94B20E6C2FC8010E94C90E45
:1008100081E090E0DF91CF911F910F9108951F9299
:100820000F920FB60F9211240BB60F922F933F9396
:100830004F935F936F937F938F939F93AF93BF93E8
:10084000EF93FF9380919D0490919E04A0919F044B
:10085000B091A004892B8A2B8B2B49F190919C0499
:100860008091000089278093000080919D049091E1
:100870009E04A0919F04B091A004181619061A06B0
:100880001B060CF056C080919D0490919E04A0918F
:100890009F04B091A0040197A109B10980939D0420
:1008A00090939E04A0939F04B093A00442C08091B3
:1008B0000002EFE3F2E0E4919FEF90930002E23058
:1008C000C9F050F4EE2399F0E13081F590916F007A
:1008D0009D7F90936F002AC0E43019F1E0F0E5307D
:1008E00029F5909173009D7F909373001FC0109223
:1008F0006E001CC0909170009D7F9093700091E0FD
:100900009093B0009091B100987F94609093B10063
:100910001092B3000BC0909171009D7F9093710075
:1009200005C0909172009D7F9093720060E00E94DC
:100930002A0FFF91EF91BF91AF919F918F917F917E
:100940006F915F914F913F912F910F900BBE0F9040
:100950000FBE0F901F9018951F920F920FB60F9217
:1009600011240BB60F922F933F934F935F936F9386
:100970007F938F939F93AF93BF93EF93FF9389EFF1
:1009800094E00E946A02FF91EF91BF91AF919F9115
:100990008F917F916F915F914F913F912F910F9028
:1009A0000BBE0F900FBE0F901F9018951F920F92C5
:1009B0000FB60F9211240BB60F922F933F934F93C4
:1009C0005F936F937F938F939F93AF93BF93EF93B7
:1009D000FF9389EF94E00E94DE0EFF91EF91BF91AB
:1009E000AF919F918F917F916F915F914F913F91C7
:1009F0002F910F900BBE0F900FBE0F901F90189568
:100A00001F920F920FB60F9211240BB60F922F93D5
:100A10003F934F935F936F937F938F939F93AF9386
:100A2000BF93EF93FF9386E995E00E946A02FF91DE
:100A3000EF91BF91AF919F918F917F916F915F9156
:100A40004F913F912F910F900BBE0F900FBE0F90C3
:100A50001F9018951F920F920FB60F9211240BB68C
:100A60000F922F933F934F935F936F937F938F9347
:100A70009F93AF93BF93EF93FF9386E995E00E9416
:100A8000DE0EFF91EF91BF91AF919F918F917F917A
:100A90006F915F914F913F912F910F900BBE0F90EF
:100AA0000FBE0F901F9018951F920F920FB60F92C6
:100AB00011240BB60F922F933F934F935F936F9335
:100AC0007F938F939F93AF93BF93EF93FF9383E3B2
:100AD00096E00E946A02FF91EF91BF91AF919F91C2
:100AE0008F917F916F915F914F913F912F910F90D7
:100AF0000BBE0F900FBE0F901F9018951F920F9274
:100B00000FB60F9211240BB60F922F933F934F9372
:100B10005F936F937F938F939F93AF93BF93EF9365
:100B2000FF9383E396E00E94DE0EFF91EF91BF9169
:100B3000AF919F918F917F916F915F914F913F9175
:100B40002F910F900BBE0F900FBE0F901F90189516
:100B50001F920F920FB60F9211240BB60F922F9384
:100B60003F934F935F936F937F938F939F93AF9335
:100B7000BF93EF93FF938091D1060E94010F2091C4
:100B8000D5063091D6062F5F3F4F3093D60620937F
:100B9000D5069091D406953618F096E09093D0063D
:100BA0009091D0069430C9F128F4923069F09330D6
:100BB000D1F05EC0953009F451C0963009F058C0AC
:100BC00091E09093A10751C0811152C02091D506A8
:100BD0003091D6062436310508F442C01092A107A0
:100BE0001092D4061CC0813009F042C0E091D406B6
:100BF00091E09E0F9093D406F0E02091D5063091BD
:100C0000D606EE0FFF1FE053F94F3087278310926F
:100C1000D6061092D50694E029C0811117C0E09144
:100C2000D40691E09E0F9093D406F0E02091D50673
:100C30003091D606EE0FFF1FE053F94F3087278320
:100C40001092D6061092D50693E010C02091D506DA
:100C50003091D6062536310558F007C0811108C0FD
:100C60001092D6061092D50603C095E09093D00658
:100C70009091D3069923B9F081110AC08091D206D0
:100C8000882321F08091D20661E009C02F9A0BC021
:100C90008091D206882331F08091D20660E00E94D4
:100CA0002A0F01C02F98FF91EF91BF91AF919F91B3
:100CB0008F917F916F915F914F913F912F910F9005
:100CC0000BBE0F900FBE0F901F9018958F929F92A2
:100CD000AF92BF92CF92DF92EF92FF920F931F934A
:100CE000CF93DF93EC016A017B0120E030E04FE716
:100CF00053E4C701B6010E948F1F4B015C0120E045
:100D000030E0A9010E94F02118161CF4C501B401BD
:100D100003C0C501B40190580E94BA218B0120E0A4
:100D200030E0A901C701B6010E94F021181614F4A1
:100D300060E001C061E089810E942A0F0F3F110528
:100D400009F01CF4B801772702C06FEF70E08881CA
:100D5000DF91CF911F910F91FF90EF90DF90CF9097
:100D6000BF90AF909F908F900C94BD0F8EBD0000F0
:100D70000DB407FEFDCF8EB50895CF93DF93EC0140
:100D800060E088810E942A0F88E90E94B60680E010
:100D90000E94B60680E00E94B60680E00E94B60679
:100DA00080E00E94B60661E088810E942A0F8BE8ED
:100DB00091E00197F1F760E088810E942A0F80EEB0
:100DC0000E94B60661E08881DF91CF910C942A0FD2
:100DD000AF92BF92CF92DF92EF92FF920F931F9349
:100DE000CF93DF93CDB7DEB760970FB6F894DEBF31
:100DF0000FBECDBF5C0160E0FC0180810E942A0F24
:100E000080E60E94B6068E010F5F1F4F7E01F1E162
:100E1000EF0EF11C680180E00E94B60690E0A0E0B1
:100E2000B0E0F60181939193A193B1936F01EE1518
:100E3000FF0589F761E0F50180810E942A0F80E0BB
:100E400090E0DC01F80141915191619171918F0124
:100E5000BA2FA92F982F8827840F951FA61FB71F79
:100E6000EE15FF0579F79C01AD0166277727CB01C9
:100E7000621B730B840B950B60960FB6F894DEBF64
:100E80000FBECDBFDF91CF911F910F91FF90EF90DB
:100E9000DF90CF90BF90AF9008951F93CF93DF93D3
:100EA000EC01162F88818C3008F04DC061E0812F55
:100EB0000E94590FE88195E09E9FF0011124EE55A4
:100EC000F84F1F738081807C182B10831382E88178
:100ED0009E9FF0011124EE55F84F148288816CE03A
:100EE0000E94B3209CE0899FA001112420E030E003
:100EF00095E0BA01620F731F969FF001979FF00D66
:100F00001124EE55F84F608166FD13C02F5F3F4FEF
:100F10002C30310571F781110CC01092800082E0F5
:100F200080938100109285001092840086BB80938C
:100F30006F00E88185E0E89FF0011124EE55F84F3D
:100F40008081806480838881DF91CF911F91089593
:100F50001F920F920FB60F9211240BB60F922F9380
:100F60003F934F935F936F937F938F939F93AF9331
:100F7000BF93EF93FF9380919B0487FF05C010926E
:100F800085001092840016C020919B04022E000C54
:100F9000330B8091DE0790E0281739075CF430911D
:100FA0009B0425E03203F0011124EE55F84F8081B7
:100FB00086FD15C080919B048F5F80939B042091D8
:100FC0009B04022E000C330B8091DE0790E0281763
:100FD000390794F480919B048C302CF10DC0309132
:100FE0009B043203F0011124EE55F84F808160E03C
:100FF0008F730E942A0FDECF80918400909185002C
:1010000084349C4918F480E49CE905C080918400F4
:1010100090918500049690938900809388008FEFCB
:1010200080939B042AC040918400509185003091A8
:101030009B0425E03203F0011124EE55F84F818125
:101040009281840F951F909389008093880030913E
:101050009B043203F0011124EE55F84F808186FF86
:101060000CC030919B043203F0011124EE55F84F6F
:10107000808161E08F730E942A0FFF91EF91BF91F1
:10108000AF919F918F917F916F915F914F913F9120
:101090002F910F900BBE0F900FBE0F901F901895C1
:1010A000823030F063E472E083E396E00C949215B2
:1010B000813009F4705890E0880F991F8150984F43
:1010C0000C9466061F920F920FB60F9211240BB666
:1010D0000F922F933F934F935F936F937F938F93D1
:1010E0009F93AF93BF93EF93FF938091B900887F55
:1010F000803609F49CC068F5883209F45BC090F42E
:10110000803109F454C038F4882309F4F6C08830DB
:1011100009F44DC0F6C0883109F44CC0803209F49E
:101120005DC0EFC0803409F468C048F4803309F42E
:1011300055C0883309F0E5C08093D404D8C0803509
:1011400009F44FC0883509F45DC0883409F0D9C06E
:10115000D6C0883909F4C7C0A8F4883709F467C035
:1011600038F4883609F463C0803709F460C0C9C018
:10117000883809F4B8C0803909F45FC0803809F0B4
:10118000C0C05BC0803B09F486C038F4803A09F4E3
:1011900066C0883A09F47FC0B4C0803C09F4A7C097
:1011A000883C09F4A4C0883B09F48AC0AAC0809195
:1011B000D10410C09091D3048091D204981770F597
:1011C000E091D30481E08E0F8093D304F0E0E055EA
:1011D000FB4F80818093BB0085EC86C08093D40454
:1011E0008EC0E091D30481E08E0F8093D304809170
:1011F000BB00F0E0E055FB4F80839091D3048091D9
:10120000D2046EC0E091D30481E08E0F8093D304AA
:101210008091BB00F0E0E055FB4F80838091D504C6
:1012200081116DC081E08093D00484EA61C083E0C5
:101230008093D60410929A04CFCF80919A04803282
:1012400008F051C0E0919A0481E08E0F80939A04D7
:101250008091BB00F0E0E658FB4F8083BDCF85EC6A
:101260008093BC001092D60480919A04803230F4AE
:10127000E0919A04F0E0E658FB4F108260919A04E6
:1012800070E0E0917804F09179048AE794E0199590
:1012900010929A0436C084E08093D60410927704AA
:1012A00010927604E0917404F09175041995809180
:1012B0007604811105C081E0809376041092540475
:1012C000E091770481E08E0F80937704F0E0EC5A90
:1012D000FB4F80818093BB009091770480917604CE
:1012E000981708F479CF85E88093BC000AC085EC94
:1012F0008093BC001092D60404C01092D4040E94C3
:101300002B03FF91EF91BF91AF919F918F917F91AF
:101310006F915F914F913F912F910F900BBE0F9066
:101320000FBE0F901F90189530915204313208F083
:101330004BC08091D6048111FCCF9091300422E003
:101340002093D60421E02093D5042FEF2093D404DA
:101350001092D3043093D204E1E3F4E0A0EBB4E0C4
:1013600020E0321721F041914D932F5FFACF109278
:10137000D1042091D104990F922B9093D104909194
:10138000D004913061F41092D0049091D1049093E4
:10139000BB009091BC0093FDF8CF95EC01C095EE99
:1013A0009093BC009091D6049230E1F39091D404D4
:1013B0009F3F79F08091D404803241F08091D40431
:1013C000803331F084E005C081E003C082E001C0D9
:1013D00083E0109253041092520410925104089525
:1013E00081E0809351046093300410925304109272
:1013F000520408951092D8041092D7041092530406
:10140000109252041092D60481E08093D504109279
:10141000D00461E084E10E942A0F61E085E10E942E
:101420002A0FE9EBF0E080818E7F808380818D7FC1
:10143000808388E48093B80085E48093BC008DE5C8
:1014400093E090937504809374048EE593E09093F9
:101450007904809378040895CF93DF93EC0165E0DD
:101460008DE198E00E94F009CE010E94F1158DE116
:1014700098E00E949409C82F65E572E083E396E046
:101480000E94A6158C2F90E0DF91CF910C94EB0A6F
:1014900090E0FC013197E231F10508F04EC0882759
:1014A000EE58FF4F8F4F0C94D320809180008F77A0
:1014B00003C0809180008F7D80938000089580918B
:1014C0008000877FF9CF84B58F7702C084B58F7D88
:1014D00084BD08958091B0008F7703C08091B000E3
:1014E0008F7D8093B0000895809190008F7707C022
:1014F000809190008F7D03C080919000877F8093C2
:10150000900008958091A0008F7707C08091A0007F
:101510008F7D03C08091A000877F8093A0000895F5
:10152000809120018F7707C0809120018F7D03C0BB
:1015300080912001877F8093200108950F931F934E
:101540000E94DF1060939E0570939F058093A00515
:101550009093A10586E995E00E941E0297FF1FC0A7
:101560000E94DF1000919E0510919F052091A0051B
:101570003091A105DC01CB01801B910BA20BB30BB9
:1015800000919A0510919B0520919C0530919D0535
:1015900080179107A207B307E8F28FEF9FEF1F9123
:1015A0000F910895CF93DF93C82FD42F69E28DE177
:1015B00098E00E94F0098C2F806890E00E94F1155D
:1015C0006D2F8DE198E00E94B8038DE198E0DF91E6
:1015D000CF910C949409CF93DF93AC01990F660BD4
:1015E000770B77FF05C0CB01BA010E94BC1705C07D
:1015F0002AE083E396E00E947317EC016AE672E04A
:1016000083E396E00E9482158C0F9D1FDF91CF919E
:1016100008952F923F924F925F926F927F928F9296
:101620009F92AF92BF92CF92DF92EF92FF920F9371
:101630001F93CF93DF9300D000D0CDB7DEB77C01EE
:1016400081E089831E141F040CF419829981692E8C
:10165000712C47010F2C000CAA08BB08B7FE05C06F
:10166000C501B4010E94BC1707C02AE0B501A4015E
:1016700083E396E00E947317C501B4010E94301FF6
:1016800025E535E541EB51E40E948F1F0E94BA2108
:101690004B015C016B016DE672E083E396E00E9412
:1016A000A615C4010E94EB0A4DEC5CEC6CEC7DE3EA
:1016B00089810E94500881E01E141F040CF080E014
:1016C00040E050E0BA010E9450088301000F111F52
:1016D000035E1F4F0A51184FC8010E94BD061E1419
:1016E0001F043CF4812C912C80E8A82E8FE3B82EA7
:1016F00003C0812C912C54011E821D82222433248C
:101700002C183D08C301770CAA0BBB0B89839A8365
:10171000AB83BC832D813E8137FF03C0319521957A
:101720003109C601D7FCC101281739070CF044C0A4
:1017300066E772E083E396E00E94A6158D819E81A4
:101740000E94EB0A6AE070E080E090E00E94A51041
:10175000C8011E141F0454F40E94E8069095809559
:10176000709561957F4F8F4F9F4F02C00E94E80692
:101770007E836D832DEC3CEC4CEC5DE3C501B40144
:101780000E948F1F2B013C0169817A818B819C8192
:101790000E94301F2DEC3CEC4CEC5DE30E948F1F4F
:1017A000A30192010E94A5118111B4CF6CE772E0F0
:1017B00083E396E00E94921526960FB6F894DEBF5A
:1017C0000FBECDBFDF91CF911F910F91FF90EF9092
:1017D000DF90CF90BF90AF909F908F907F906F9051
:1017E0005F904F903F902F900C9496117F928F9224
:1017F0009F92AF92BF92CF92DF92EF92FF920F93A0
:101800001F93CF93DF938C016A017B01722E9A01A3
:10181000AB01C701B6010E94F521882319F062E8E7
:1018200072E027C046015701E894B7F82FEF3FEF69
:101830004FE75FE7C501B4010E94F52181110DC09A
:101840002FEF3FEF4FE75FE7C501B4010E94291F6B
:1018500018161CF466E872E00CC02FEF3FEF4FE75C
:101860005FE4C701B6010E94F021181694F46AE8FB
:1018700072E0C801DF91CF911F910F91FF90EF901F
:10188000DF90CF90BF90AF909F908F907F900C94FF
:1018900082152FEF3FEF4FE75FECC701B6010E94C3
:1018A000291F87FDE4CF20E030E0A901C701B60180
:1018B0000E94291F87FF0AC06DE2C8010E948C02A6
:1018C000EC01F7FAF094F7F8F09402C0C0E0D0E031
:1018D000B12C60E070E080E09FE37B1441F020E0F9
:1018E00030E040E251E40E944821B394F6CFA701D2
:1018F00096010E94DC206B017C010E94C1214B01FA
:101900005C012AE0AB01BC01C8010E947317C80F3B
:10191000D91F7720C1F1C501B4010E942E1F9B0180
:10192000AC01C701B6010E94DB206B017C016EE2B5
:10193000C8010E948C02C80FD91F20E030E040E2AD
:1019400051E4C701B6010E948F1F4B015C010E9448
:10195000C1216B01E12CF12C2AE0B701A601C801DD
:101960000E947317C80FD91FC701B6010E942E1F0E
:101970009B01AC01C501B4010E94DB206B017C011D
:101980007A947110DACFCE01DF91CF911F910F9130
:10199000FF90EF90DF90CF90BF90AF909F908F908F
:1019A0007F9008950F931F93CF93DF93EC0122E074
:1019B0000E94F60B8C016AE672E0CE010E9482154D
:1019C000800F911FDF91CF911F910F9108950F9379
:1019D0001F93CF93DF93EC018B010E946F1128813D
:1019E000398181110DC02115310519F0C9010E94FD
:1019F0009222198218821D821C821B821A8207C0C1
:101A00001D830C836CE672E0C9010E941724CE018D
:101A1000DF91CF911F910F910895CF92DF92EF92B6
:101A2000FF920F931F93CF93DF931F921F92CDB717
:101A3000DEB78C01C62EFC01118210821382128245
:101A40001582148260E070E00E94E70C0E949E0AFA
:101A50000C2C000CDD0897FD23C08C159D0501F1B1
:101A600089831A82F801E480F580FFEFEF1AFF0AFC
:101A7000B701C8010E946F11882379F0F801208115
:101A8000318184819581BE016F5F7F4F820F931FEB
:101A90000E941724F801F582E4820E949E0ADBCF9F
:101AA000C8010F900F90DF91CF911F910F91FF9080
:101AB000EF90DF90CF9008956EE872E083E396E0B8
:101AC0000E94A615809107080E948610AC0160E074
:101AD00070E02AE083E396E00E9473176AE672E002
:101AE00083E396E00E948215809107080E94861089
:101AF00021E08C32914008F420E0822F0895CF92AB
:101B0000DF92EF92FF92CF93DF93823018F063E978
:101B100072E00AC090911108691720F090911208A4
:101B2000961760F465EA72E083E396E0DF91CF9167
:101B3000FF90EF90DF90CF900C949215E82FF0E09B
:101B4000E95FF74FC089CC3008F072C0262F30E033
:101B5000D0E085E08C9FF0018D9FF00D1124EE55B3
:101B6000F84F8381283C31059CF528E830E0690175
:101B7000C81AD10887FDD394CC0CDD1CCC0CDD1C1D
:101B80000D2C000CEE08FF08848128E532E0281BAC
:101B9000310987FD3395220F331F220F331FC901EF
:101BA000330FAA0BBB0B9C01AD012C193D094E094B
:101BB0005F09A62FB0E00E946F2024EB30E040E0E8
:101BC00050E00E945020C20ED31EE41EF51E1EC01F
:101BD00048E850E06A01C81AD10887FDD394CC0CBC
:101BE000DD1CCC0CDD1C2C153D0584F0448188E502
:101BF00092E0841B910947FD9395880F991F880FE8
:101C0000991F69018C159D050CF46C018FB7F89430
:101C100095E09C9FF0019D9FF00D1124EE55F84F2B
:101C200096E0C91AD108CC0CDD1CD282C1828FBFCC
:101C3000DF91CF91FF90EF90DF90CF900895CF93F9
:101C4000DF938DE198E00E94FA0969E28DE198E066
:101C50000E94F00982E990E00E94F1158DE198E080
:101C60000E94940981E090E00E94A8158DE198E01F
:101C70000E946F03843411F08031D1F581E08093AC
:101C80002908C0912C08D0912D08AE0160E070E0C9
:101C90000E94D20AD0932D08C0932C08C0912A0824
:101CA000D0912B0880912908811102C00E941F0E3B
:101CB000AE0160E070E08FE00E94D20AD0932B0862
:101CC000C0932A0841E050E060E070E080E00E94AC
:101CD000D20A63E070E080E090E00E94A51043E04B
:101CE00050E060E070E080E00E94D20A81E001C034
:101CF00080E0DF91CF910895FF920F931F93CF93D0
:101D0000DF93F82E162F072FC6EED7E06C858A8555
:101D10009B850E94F0098A859B85DC01ED91FC91F1
:101D20000190F081E02D6F2D19958A859B85DC014E
:101D3000ED91FC910190F081E02D602F19958A853D
:101D40009B85DC01ED91FC910190F081E02D612FEC
:101D500019958A859B85DF91CF911F910F91FF90F7
:101D60000C9494091F93CF93DF93EC01162F6C8191
:101D70008DE198E00E94F0096C85812F862B90E020
:101D80000E94F1158DE198E0DF91CF911F910C94A5
:101D900094090F931F93CF938C01C62F64600E9408
:101DA000B20E6C2F6B7FC8010E94B20E83EC90E0E4
:101DB0000197F1F7CF911F910F910895FC01A08930
:101DC000B1898C91A689B78982FD0FC09C91818DC4
:101DD0008F5F8F73228D821749F0218DDF01A20F53
:101DE000B11D5D969C93818F08958C9108951F92EB
:101DF0000F920FB60F9211240F900FBE0F901F90ED
:101E00001895CF93DF93282F30E0F901E65EFC4F61
:101E10008491F901EC52FD4FD491F901E257FD4F45
:101E2000C491CC2391F081110E94480AEC2FF0E07C
:101E3000EE0FFF1FEC58FD4FA591B491EC91ED23EF
:101E400081E090E021F480E002C080E090E0DF914A
:101E5000CF9108951F93CF93DF93282F30E0F9019E
:101E6000E65EFC4F8491F901EC52FD4FD491F901EB
:101E7000E257FD4FC491CC23C1F0162F81110E946F
:101E8000480AEC2FF0E0EE0FFF1FE65AFD4FA59138
:101E9000B4919FB7F894111104C08C91D095D823B8
:101EA00002C0EC91DE2BDC939FBFDF91CF911F919D
:101EB0000895CF93DF9390E0FC01EC52FD4F249105
:101EC000FC01E257FD4F8491882361F190E0880F77
:101ED000991FFC01E05CFD4FC591D491FC01E65ACD
:101EE000FD4FA591B491611109C09FB7F894888105
:101EF000209582238883EC912E230BC0623061F4FD
:101F00009FB7F8948881322F309583238883EC9192
:101F10002E2B2C939FBF06C08FB7F894E8812E2BF1
:101F200028838FBFDF91CF9108953FB7F8948091B8
:101F3000AC049091AD04A091AE04B091AF0426B56D
:101F4000A89B05C02F3F19F00196A11DB11D3FBFF1
:101F5000BA2FA92F982F8827820F911DA11DB11D7F
:101F6000BC01CD0142E0660F771F881F991F4A957B
:101F7000D1F7089508950E9400241F93CF93DF9313
:101F8000182FEB0161E00E94590F209711F460E0D7
:101F900004C0CF3FD10539F461E0812FDF91CF91AB
:101FA0001F910C942A0FE12FF0E0E65EFC4FE491C4
:101FB0008E2F90E0FC013197E231F10508F09DC0D1
:101FC0008827EC57FF4F8F4F0C94D32084B580683F
:101FD00084BDC7BD97C084B5806284BDC8BD92C0B2
:101FE00080918000806880938000D0938900C093A6
:101FF000880088C080918000806280938000D093A8
:102000008B00C0938A007EC080918000886080939E
:102010008000D0938D00C0938C0074C08091B0007C
:1020200080688093B000C093B3006CC08091B00012
:1020300080628093B000C093B40064C0809190002F
:10204000806880939000D0939900C09398005AC004
:1020500080919000806280939000D0939B00C09309
:102060009A0050C080919000886080939000D09337
:102070009D00C0939C0046C08091A0008068809322
:10208000A0008091A0008F7B8093A000D093A90036
:10209000C093A80037C08091A00080628093A00008
:1020A000D093AB00C093AA002DC08091A00088609F
:1020B0008093A000D093AD00C093AC0023C080916A
:1020C0002001806880932001D0932901C0932801CA
:1020D00019C080912001806280932001D0932B0150
:1020E000C0932A010FC08091200188608093200155
:1020F000D0932D01C0932C0105C0C038D1050CF040
:102100004BCF45CFDF91CF911F910895863308F0D3
:10211000865390917B00282F2870977F922B909365
:102120007B008770806480937C0080917A0080645B
:1021300080937A0080917A0086FDFCCF80917800B0
:102140002091790090E0922B08958F929F92AF9208
:10215000BF92CF92DF92EF92FF926B017C010E94BF
:10216000950F4B015C01C114D104E104F104F1F0BD
:102170000E94950FDC01CB0188199909AA09BB09B6
:10218000883E9340A105B10570F321E0C21AD10841
:10219000E108F10888EE880E83E0981EA11CB11CAE
:1021A000C114D104E104F10419F7DDCFFF90EF90E1
:1021B000DF90CF90BF90AF909F908F9008952FB7F2
:1021C000F8946091A8047091A9048091AA04909158
:1021D000AB042FBF08951F920F920FB60F921124D8
:1021E0002F933F938F939F93AF93BF938091A804B6
:1021F0009091A904A091AA04B091AB043091A704D6
:1022000023E0230F2D3720F40196A11DB11D05C039
:1022100026E8230F0296A11DB11D2093A7048093E9
:10222000A8049093A904A093AA04B093AB0480914E
:10223000AC049091AD04A091AE04B091AF040196AE
:10224000A11DB11D8093AC049093AD04A093AE0486
:10225000B093AF04BF91AF919F918F913F912F9118
:102260000F900FBE0F901F9018950F931F93CF9351
:10227000DF938C01EB01FC0180819181009739F0A3
:102280006881798161157105A1F40E94922288818B
:102290009981F801918380838A819B8193838283D2
:1022A0008C819D8195838483198218821B821A8276
:1022B0000FC0F801428153812C813D8142175307A1
:1022C00020F30E9417248C819D81F80195838483DB
:1022D0001D821C82DF91CF911F910F9108950F9362
:1022E0001F93CF93DF93EC0188819981009729F0A8
:1022F0002A813B812617370788F48B016F5F7F4F58
:102300000E941B23009761F0998388831B830A83B3
:102310002C813D81232B11F4FC01108281E001C04E
:1023200080E0DF91CF911F910F91089540E050E040
:10233000BA018FEF97E00E94660640E050E060E04F
:1023400070E881E098E00C9466062F923F924F92DD
:102350005F926F927F928F929F92AF92BF92CF9235
:10236000DF92EF92FF920F931F93CF93DF93CDB73E
:10237000DEB764970FB6F894DEBF0FBECDBF6B011A
:102380007C0129013A0163E173E083E396E00E9456
:1023900092150E945C0D882309F44EC067E173E03A
:1023A00083E396E00E9492150E94961187E090E0E8
:1023B0000E942C0A68E780E00E947F0D60ED77E0C4
:1023C00080E090E00E94A51060E080E00E947F0D18
:1023D00068EE73E080E090E00E94A5100E945C0D22
:1023E00081110CC0B701A6018FEF97E00E9466062D
:1023F000B301A20181E00E9450081EC06BE173E0AE
:1024000083E396E00E94921520E030E0A901C70125
:10241000B6010E94291F882321F0C701B6019058F8
:1024200004C06DEC7CEC8CEC9DEB20E030E040E2F5
:1024300051E40E9480164BC169E28DE198E00E9450
:10244000F0098DE198E00E949409E82EF12CE11446
:10245000F10451F060E273E083E396E00E94A61578
:10246000C7010E94EB0A8BC069E373E083E396E047
:102470000E9492156CE370E080E090E00E94A5104D
:102480006DE373E083E396E00E94A61584E10E9469
:10249000F6158C016DEC72E083E396E00E94A615C0
:1024A00086E10E94F6155C0160E773E083E396E045
:1024B0000E94A61588E10E94F6159E878D876FE31E
:1024C00073E083E396E00E9492158AE10E94F6157C
:1024D0001C0161E473E083E396E00E949215B5016C
:1024E00080E090E00E942E1F4B015C01B80180E06B
:1024F00090E00E942E1F6B017C019B01AC01C50185
:10250000B4010E9448212B013C012D853E85B90173
:1025100080E090E00E942E1FA70196010E944821B2
:102520004B015C01B10180E090E00E942E1FA701E9
:1025300096010E9448216B017C0120E030E040E8D8
:1025400053E4C301B2010E948F1F698B7A8B8B8B7E
:102550009C8B20E030E040E853E4C501B4010E94C8
:102560008F1F6D877E878F87988B20E030E040E853
:1025700053E4C701B6010E948F1F4B015C0165E463
:1025800073E083E396E00E94A61522E049895A8908
:102590006B897C8983E396E00E94F60B61E573E02A
:1025A00083E396E00E94A61522E04D855E856F8547
:1025B000788983E396E00E94F60B66E573E083E397
:1025C00096E00E94A615B501A40183E396E00E945F
:1025D000D20C20E030E044EB52E4C501B4010E948B
:1025E000F02118160CF075C00E94961162E370E09D
:1025F00080E090E00E94A51020E030E040E751E448
:102600006DEC7CEC8CEC9DEB0E9480160E94961188
:1026100083E098E00E94BD0685E098E00E94BD0638
:102620004DEC5CEC6CEC7DE38FEF97E00E9466066E
:102630004DEC5CEC6CEC7DEB81E00E94500800E01E
:1026400010E0C80117FF03C0919581959109863963
:102650009F40DCF56AE070E080E090E00E94A51009
:1026600083E098E00E94E8066B017C0185E098E039
:102670000E94E806F094E094D094C094C11CD11C50
:10268000E11CF11C9601D7FE04C0222733272C1928
:102690003D09AB0177FF04C044275527461B570B64
:1026A000B901640F751F072E000C880B990B0E944F
:1026B000301F20E030E040E05FE30E948F1F0E9467
:1026C000BA218B010E94A511BCCF0E94961180E017
:1026D00000C26BE573E083E396E00E949215712CD3
:1026E00001E010E06FE573E086E995E00E94921545
:1026F00068EE73E080E090E00E94A51086E995E026
:102700000E944002892B09F474C162E773E083E3FD
:1027100096E00E9492156BE3CE0107960E940D0D84
:10272000AF80B884A114B10409F43FC0EB84FC84E9
:10273000E114F104D1F1650146018FEF881A980A7E
:10274000F6018081082E000C990B0E94081F892B2E
:1027500011F06401F1CFF1E0EF1AF108EA0CFB1C73
:10276000F7018081082E000C990B0E94081F892B0D
:1027700039F0EC14FD0420F0F1E0EF1AF108F0CF8D
:10278000A7014F5F5F4F4C195D095C874B87AC1405
:10279000BD0420F4B601C5010E940524EF81F8852F
:1027A0008B859C85E80FF91F10828B859C85892B72
:1027B00009F40EC1EF80F8846DE873E0C7010E9450
:1027C0000E24892B09F0DFC064E873E086E995E008
:1027D0000E9492156BE3CE0101960E940D0DBE0181
:1027E0006F5F7F4FCE0107960E94351189819A81D4
:1027F0000E9492228F819885009729F00E94A81D3F
:102800004B015C0103C0812C912C540160E973E001
:1028100086E995E00E94A615B501A40186E995E038
:102820000E94D20C6AE0CE0101960E940D0DBE01FD
:102830006F5F7F4FCE0107960E94351189819A8183
:102840000E9492228F819885009729F00E94A81DEE
:102850006B017C0104C0C12CD12CE12CF12C68E966
:1028600073E086E995E00E94A615A601B70186E906
:1028700095E00E94D20C86E995E00E94D90260EAB8
:1028800073E083E396E00E94921520E030E0A90116
:10289000C501B4010E94291F87FF1DC0C501B401F5
:1028A0000E94BA219B0177FF04C022273327261BF1
:1028B000370BB801621B730B072E000C880B990BAA
:1028C0000E94301F9601A7010E948F1F46015701E9
:1028D0006B017C011AC0C501B4010E94BA219B01A1
:1028E00077FF04C022273327261B370BB801621B52
:1028F000730B072E000C880B990B0E94301F96015A
:10290000A7010E948F1F4B015C0168EA73E083E31B
:1029100096E00E94A61522E0A601B70183E396E0A7
:102920000E94F60B66EB73E083E396E00E94A61527
:1029300022E0A401B50183E396E00E94F60B2DECA2
:102940003CEC4CE45EE3B601C7010E948F1FAB0173
:10295000BC018FEF97E00E9466062DEC3CEC4CE446
:102960005EE3B401C5010E948F1FAB01BC0181E091
:102970000E94500868EC70E080E090E00E94A51092
:102980007724739430C06FEB73E0C7010E940E246C
:10299000892B29F485E090E00E942C0A24C065EC84
:1029A00073E0C7010E940E24892BE9F06AEC73E002
:1029B000C7010E940E24892B59F483E090E00E9405
:1029C0002C0A69ED73E083E396E00E94A6150BC024
:1029D00061EF73E083E396E00E9492158F81988502
:1029E0000E94922206C08F8198850E9492227110C7
:1029F00079CE86E30E9486107C0187E30E948610D0
:102A00008C0168EC70E080E090E00E94A51086E305
:102A10000E9486106C0187E30E948610081B190B28
:102A2000EC18FD0829E1E20EF11C33E3E316F10492
:102A300030F4075E1F4F0333110508F444C069EFFB
:102A400073E083E396E00E94921584E090E00E9498
:102A50002C0A6FEF70E082E00E94BD0F68EE73E019
:102A600080E090E00E94A51068EC70E082E00E9497
:102A7000BD0F64EF71E080E090E00E94A51066E970
:102A800070E082E00E94BD0F64EF71E080E090E0B2
:102A90000E94A51065E08DE198E00E94F00981E0B8
:102AA00090E00E94F1158DE198E00E949409182FA2
:102AB00063E074E083E396E00E94A615812F90E026
:102AC0000E94EB0A05C060E070E082E00E94BD0F4A
:102AD00081E064960FB6F894DEBF0FBECDBFDF91E4
:102AE000CF911F910F91FF90EF90DF90CF90BF900B
:102AF000AF909F908F907F906F905F904F903F909E
:102B00002F9008956115710551F0FB01019000208F
:102B1000E9F73197AF01461B570B0C94E50180E0B4
:102B200090E008950F931F93CF93DF93EC010E94E1
:102B300082158C016AE672E0CE010E948215800F38
:102B4000911FDF91CF911F910F9108950C948215E1
:102B50009091D6049111FCCF982F813208F090E229
:102B600081E08093D6048093D5042FEF2093D40482
:102B70001092D304290F2093D2048093D104809122
:102B8000D10482658093D1048091D004813061F4B6
:102B90001092D0048091D1048093BB008091BC003E
:102BA00083FDF8CF85EC01C085EE8093BC00809159
:102BB000D6048130E1F38091D304891710F4909109
:102BC000D304E0EBF4E0A9EDB4E080E0891721F054
:102BD00021912D938F5FFACF1092D8048093D70460
:102BE0000895682F8DE198E00C94B803CF93DF939C
:102BF000C82F69E28DE198E00E94F0098C2F80686F
:102C000090E00E94F1158DE198E00E94940982E025
:102C100090E00E94A8158DE198E00E946F03EC01FE
:102C20008DE198E00E946F0320E030E0382FCE0164
:102C3000822B932BDF91CF910895CF92DF92EF9269
:102C4000FF92CF93DF93EC016A017B01E889F98958
:102C500082E080834115514E61057105B1F060E05D
:102C600079E08DE390E0A70196010E948220DA01CD
:102C7000C9010197A109B109B695A79597958795BF
:102C80009C01211580E13807A8F0E889F9891082B4
:102C900060E874E88EE190E0A70196010E9482202E
:102CA000DA01C9010197A109B109B695A7959795D0
:102CB00087959C01EC85FD853083EE85FF8520831B
:102CC000188EEC89FD8986E08083EA89FB89808102
:102CD00080618083EA89FB89808188608083EA89BA
:102CE000FB89808180688083EA89FB8980818F7D70
:102CF0008083DF91CF91FF90EF90DF90CF90089588
:102D00002F923F924F925F926F927F928F929F92FB
:102D1000AF92BF92CF92DF92EF92FF920F931F93E9
:102D2000CF93DF9300D000D0CDB7DEB76E837D8325
:102D3000D82EC92E49015A0183E098E00E94BD06B1
:102D400085E098E00E94BD0625E83BEA45E053E4B3
:102D5000C501B4010E948F1F0E94BA217A83698342
:102D60004E815D816D2D7C2D8FEF97E00E94660670
:102D70004E815D816D2D7C2D81E00E9450080E9466
:102D8000DF104B015C010E94DF102B013C01EE8043
:102D9000FD800D2D1C2D212C312C29813A8131955E
:102DA000219531093C832B83910137FE04C02227F2
:102DB00033272219330989819A8197FF02C08B81B9
:102DC0009C81281739070CF075C084E690E0A0E0DC
:102DD000B0E084199509A609B709BC01CD01680DB9
:102DE000791D8A1D9B1D0E94A5100E94DF104B01BA
:102DF0005C0183E098E00E94E8069B01AC01882713
:102E00009927DC01821B930BA40BB50B280E391EEE
:102E100020E030E0A901B701C8010E94DC2020E0D9
:102E200030E0A9010E94DC207B018C0120E030E031
:102E300040E85FE30E94291F87FD04C0E12CF12CCC
:102E400000E81FE30E94DF102B013C0120E030E08E
:102E5000A9016E817D818D2D9C2D0E94F021181677
:102E60000CF0A2CF9701A8016E817D818D2D9C2D44
:102E70000E94A511811198CF6DE174E083E396E083
:102E800026960FB6F894DEBF0FBECDBFDF91CF916F
:102E90001F910F91FF90EF90DF90CF90BF90AF9078
:102EA0009F908F907F906F905F904F903F902F906A
:102EB0000C94A61526960FB6F894DEBF0FBECDBFB4
:102EC000DF91CF911F910F91FF90EF90DF90CF9006
:102ED000BF90AF909F908F907F906F905F904F903A
:102EE0003F902F9008958F929F92AF92BF92EF9252
:102EF000FF920F931F93CF93DF93CDB7DEB7A197C8
:102F00000FB6F894DEBF0FBECDBF7C01FA01CB0136
:102F100019A2223008F42AE08E010F5D1F4F822E85
:102F2000912CA12CB12CBF01A50194010E948220FB
:102F3000F901CA01015011096A3014F4605D01C041
:102F4000695CD8016C93232B242B252B61F7B801E6
:102F5000C7010E948215A1960FB6F894DEBF0FBE7E
:102F6000CDBFDF91CF911F910F91FF90EF90BF9058
:102F7000AF909F908F900895CF92DF92EF92FF9243
:102F8000CF93DF936B017C016DE283E396E00E94B7
:102F90008C02EC0144275527BA014C195D096E09D2
:102FA0007F092AE083E396E00E9473178C0F9D1F30
:102FB000DF91CF91FF90EF90DF90CF9008958091B7
:102FC000DF079091E0070C949222789484B5826098
:102FD00084BD84B5816084BD85B5826085BD85B5BD
:102FE000816085BD80916E00816080936E0010923B
:102FF00081008091810082608093810080918100B6
:103000008160809381008091800081608093800046
:103010008091B10084608093B1008091B0008160A4
:103020008093B000809191008260809391008091A4
:1030300091008160809391008091900081608093E5
:1030400090008091A10082608093A1008091A100F6
:1030500081608093A1008091A00081608093A00096
:103060008091210182608093210180912101816002
:1030700080932101809120018160809320018091C3
:103080007A00846080937A0080917A0082608093D5
:103090007A0080917A00816080937A0080917A0032
:1030A000806880937A001092C10040E855E260E0A9
:1030B00070E083E396E00E941D1661E08091E707CF
:1030C0000E94590F60E08091E7070E942A0F60E09C
:1030D0008091E6070E94590F8DE198E09093F107E7
:1030E0008093F0070E94FA0980E090E1A0E0B0E050
:1030F0008093F3079093F407A093F507B093F60736
:103100008AE090E0A0E0B0E08093F7079093F807A2
:10311000A093F907B093FA0780E090E0A0E0B0E454
:103120008093FB079093FC07A093FD07B093FE07E5
:1031300060E070E185E00E947C0E6FE979E380E059
:103140000E947C0EC6EED7E08E0162E0762E73EC14
:10315000A72E72E0B72EE9E08E2EE3E09E2EFBEC68
:10316000EF2EF7E0FF2ED80114969C91149712963B
:103170008C91898F9A8F61E00E94590F61E08A8D4E
:103180000E94590FF801908586816E01FDE1CF0EF6
:10319000D11C8D8F9E8F61E00E94590F60E08E8D53
:1031A0000E94590F61E08D8D0E942A0F6FB6F8942E
:1031B0008091A104811126C0F5018491F40124912C
:1031C000E82FF0E0EE0FFF1FE05CFD4FA591B491FA
:1031D0009C91822F892321F461E085E30E942A0FCC
:1031E00061E085E30E94590F8CB580618CBD8CB580
:1031F00080648CBD61E084E30E94590F61E083E349
:103200000E94590F8091A1048F5F8093A1046FBE2B
:10321000C7010197F1F760E08D8D0E942A0F88E8C1
:103220000E94B60683E00E94B60661E08D8D0E9482
:103230002A0FC7010197F1F7C6010E94BD067A94D3
:103240000F5F1F4F229671108ECF0BE018E0CFE07A
:10325000D8E060E0D8018D918D010E94590FC01710
:10326000D107B9F707E018E041E1C42E48E0D42EB9
:103270007E01BFEFEB1AFB0A688170E0CE01089671
:103280000E944D07F70195818381D80152968C9356
:10329000529753969C9360E00E94590F61E0F801A9
:1032A00083890E94590F60E0D80153968C910E9447
:1032B0002A0F0E5F1F4FE701CE14DF04C9F6F89402
:1032C0001092200189E08093210180E293E09093A5
:1032D000290180932801109225011092240182E097
:1032E0008093730078948093D0061092D4068091D6
:1032F000D10660E00E94590F40E855E260E070E0BE
:1033000083E396E00E941D1660910F0870E087E14C
:1033100098E00E944D0760E080E00E947F0D61E030
:1033200082E00E94590F60E086E30E94590F60E03E
:1033300087E30E94590F0E941F0E882319F062EC48
:1033400072E002C06FEC72E083E396E00E94921597
:1033500040E056E960E070E086E995E00E941D16C5
:103360008DE198E00E94FA0982E090E00E942C0A28
:1033700028E6222E3324339435E0832E912CA12C81
:10338000B12C6CEF72E083E396E00E94921580917D
:10339000A60481110DC080910B080E94010F892B9A
:1033A00039F462E370E080E090E00E94A510EFCF76
:1033B000F1E0F093A60480910C080E94010F892B84
:1033C00059F068E073E083E396E00E949215109252
:1033D000A6040E94961151C10E94511D26E030E0C2
:1033E00040E050E00E9450208B010F5F1F4F0E9471
:1033F000511D23E030E040E050E00E945020EB01FE
:1034000021968DEC9CECACECBDE38093A2049093F0
:10341000A304A093A404B093A5046DE073E083E338
:1034200096E00E94A615A80160E070E02AE083E320
:1034300096E00E9473176AE672E083E396E00E94CA
:1034400082150330110509F44CC078F401301105E0
:1034500089F10230110509F010C1BE01660F771F16
:103460006C0F7D1F88E99EEF42C00430110509F4FE
:1034700044C00530110509F000C10E9496110E9458
:10348000511DA50194010E945020DC01CB01019641
:10349000A11DB11DE8EEF3E08E9F60018F9FD00C5F
:1034A0009E9FD00C11240E94DF102B013C01E12CC7
:1034B000F12CCDC08AE08C9FB0018D9F700D11243E
:1034C00080E090E00E942E1F9B01AC016091A2045D
:1034D0007091A3048091A4049091A5040E94801689
:1034E000CCC0BE01660F771F6C0F7D1FC1010E940B
:1034F000BF20CB010E94090BC0C0C090A204D09095
:10350000A304E090A404F090A504BE0180E090E044
:103510000E942E1F9B01AC016BED7FE089E490E4DB
:103520000E9448212B013C0120E030E0A9010E94CB
:10353000291F87FD03C0C1E0D0E002C0CFEFDFEF5D
:103540002EEC31EC4EE954E4C301B2010E948F1F0E
:103550002B013C0183E098E00E94BD0685E098E0E5
:103560000E94BD06BE010D2E000C880B990B0E9417
:10357000301FA70196010E948F1FAB01BC018FEF86
:1035800097E00E946606D195C195D109BE01DD0F75
:10359000880B990B0E94301FA70196010E948F1F74
:1035A000AB01BC0181E00E94500800E010E0E8019E
:1035B00017FF03C0D195C195D109C301B2010E9483
:1035C000BA219B0177FF04C022273327261B370B24
:1035D0002C173D070CF451C06AE070E080E090E0E9
:1035E0000E94A51083E098E00E94E8066B017C0130
:1035F00085E098E00E94E806F094E094D094C094AE
:10360000C11CD11CE11CF11C9601D7FE04C022276D
:1036100033272C193D09AB0177FF04C044275527F8
:10362000461B570BB901640F751F072E000C880B42
:10363000990B0E94301F20E030E040E05FE30E94E1
:103640008F1F0E94BA218B010E94A511B0CF0E944A
:10365000DF10DC01CB0184199509A609B7098C1587
:103660009D05AE05BF0548F40E94A51162E370E018
:1036700080E090E00E94A510EACF0E94FE0281CE79
:103680001092FC041092FB0448EE53E060E070E0FE
:103690004093FD045093FE046093FF047093000573
:1036A00087E192E09093FA048093F90425E331E0F6
:1036B000309306052093050524E331E03093080597
:1036C0002093070520E331E030930A052093090594
:1036D00021E331E030930C0520930B0522E331E028
:1036E00030930E0520930D0526E331E0309310054D
:1036F00020930F05109212051092130510921405D5
:1037000010921505109299051092980540939A050C
:1037100050939B0560939C0570939D05909397052E
:103720008093960525ED30E03093A3052093A20504
:1037300024ED30E03093A5052093A40520ED30E082
:103740003093A7052093A60521ED30E03093A9051D
:103750002093A80522ED30E03093AB052093AA0515
:1037600026ED30E03093AD052093AC051092AF0507
:103770001092B0051092B1051092B2051092360663
:1037800010923506409337065093380660933906F9
:1037900070933A06909334068093330685EC90E05C
:1037A0009093400680933F0684EC90E0909342060D
:1037B0008093410680EC90E090934406809343060A
:1037C00081EC90E0909346068093450682EC90E071
:1037D000909348068093470686EC90E090934A06C3
:1037E0008093490610924C0610924D0610924E0698
:1037F00010924F0680910B0290910C02A0910D0245
:10380000B0910E028093070890930808A0930908CE
:10381000B0930A0880910F0290911002A0911102BA
:10382000B091120280930B0890930C08A0930D089E
:10383000B0930E0884E080930F0887E0809310080F
:103840001092110884EB8093120886E1809313088C
:1038500088E18093140887E18093150889E18093BB
:103860001608E091DE07EC3020F08FEF8093170808
:1038700010C081E08E0F8093DE07E093170825E0EB
:10388000E29FF0011124EE55F84F88EB9BE0928304
:103890008183E091DE07EC3020F08FEF80931808F1
:1038A00010C081E08E0F8093DE07E093180885E05A
:1038B000E89FF0011124EE55F84F88EB9BE09283CE
:1038C00081838CE08093E60784E28093E70786E0BB
:1038D0008093E80785E08093E9078FE18093EA070A
:1038E0008EE18093EB0783E28093EC0782E2809382
:1038F000ED0785E48093EE0784E48093EF0780E48E
:103900008093F2071092F7071092F8071092F907C8
:103910001092FA071092FB071092FC071092FD0715
:103920001092FE07E2E3F8E08FEF9FEFDC011282D6
:10393000138214821582168217821086118683875D
:103940009487A587B6878787908BA18BB28B1286C9
:1039500011821082739628E0E03FF20741F78DE074
:1039600090E00E94FA21FC011382128289E292E027
:1039700091838083118687E2848384E1828784E057
:1039800083871486F0932F08E0932E081092300856
:103990001092310885E28093D1061092D3061092DE
:1039A000E0071092DF071092E2071092E1071092F1
:1039B000E4071092E30760E070E08FED97E00E946B
:1039C000E70C1092200810921F0888EE93E0A0E008
:1039D000B0E08093210890932208A0932308B0932D
:1039E000240885E392E090931E0880931D081092AE
:1039F00029088BEE90E090932D0880932C0881E0AD
:103A000090E090932B0880932A0808958F929F92BC
:103A1000AF92BF92CF92DF92EF92FF92CF93DF935C
:103A2000EC01688179818A819B816115710581052D
:103A3000910521F464E279ED8BE597E02DE133EF18
:103A400041E050E00E94502049015A019B01AC0125
:103A5000A7EAB1E40E946F206B017C01ACEEB4EFE9
:103A6000A50194010E947D20DC01CB018C0D9D1DE0
:103A7000AE1DBF1DB7FF03C00197A109B0488883E1
:103A80009983AA83BB83BC01CD019F77DF91CF913E
:103A9000FF90EF90DF90CF90BF90AF909F908F906E
:103AA00008958F929F92AF92BF92CF92DF92EF9242
:103AB000FF92609101027091020280910302909145
:103AC0000402611571058105910521F464E279ED27
:103AD0008BE597E02DE133EF41E050E00E9450206C
:103AE00049015A019B01AC01A7EAB1E40E946F2091
:103AF0006B017C01ACEEB4EFA50194010E947D2026
:103B0000DC01CB018C0D9D1DAE1DBF1DB7FF03C099
:103B10000197A109B0488093010290930202A093FB
:103B20000302B0930402BC01CD019F77FF90EF9098
:103B3000DF90CF90BF90AF909F908F90089560934B
:103B4000010270930202809303029093040208958D
:103B5000662777270C94AC1D8F929F92AF92BF92ED
:103B6000CF92DF92EF92FF920F931F93CF93DF9349
:103B7000EC016B016115710519F0FB0191838083E4
:103B80007E01FFEFEF1AFF0A0881802F90E00E946C
:103B9000081F892B11F0E701F3CF0D3239F47E01B4
:103BA00082E0E80EF11C098111E008C00B3229F413
:103BB0007E0192E0E90EF11C098110E0E7012197F6
:103BC00043E050E06CE072E0CE010E94111F892BAF
:103BD000C1F4239645E050E067E072E0CE010E9418
:103BE000111F892B09F42596C114D10419F0F6018F
:103BF000D183C0831111F6C060E070E080E89FE7D8
:103C0000FAC043E050E064E072E0CE010E94111F70
:103C1000892B59F4C114D10409F4E9C0F2E0EF0E84
:103C2000F11CF601F182E082E2C020E030E0A9015F
:103C3000C0E0D0E0F70160EDA62EA00E89E08A1565
:103C400030F1912F9260B92E812F887012FF04C03D
:103C5000811124C0219622C081112197A5E0B0E0F6
:103C60000E946F20DC01CB01880F991FAA1FBB1F88
:103C70009C01AD012A0D311D411D511D283989E9D5
:103C80003807480789E1580748F0166006C09EEFDC
:103C9000A9120AC013FD40C01860B12E8FEFE81AB8
:103CA000F80A00811B2DC6CF802F8F7D8534A1F5AA
:103CB00080818D3211F4106106C08B3221F0319673
:103CC00061E070E004C08181329662E070E0805370
:103CD0008A3018F0E61BF70B1FC060E070E0603818
:103CE0009CE079075CF4DB01AA0FBB1FAA0FBB1F86
:103CF0006A0F7B1F660F771F680F711D3196DF01FA
:103D000011978C9180538A3050F314FF03C0719542
:103D100061957109C60FD71F11FF08C0C114D104E6
:103D200029F0CF010197F60191838083CA01B9017F
:103D30000E942E1F212F2370233019F04B015C01AC
:103D400006C04B015C01B7FAB094B7F8B09420E01C
:103D500030E0A901C501B4010E94291F882309F49C
:103D60003EC0D7FF06C0D195C195D10903E212E04C
:103D700002C00BE312E06801F8E1CF1AD10890E22B
:103D8000E92EF12CCE15DF0574F0F801259135915F
:103D900045915491C501B4010E948F1F4B015C01F4
:103DA000CE19DF09EFCF04501109F594E7940C15F3
:103DB0001D0541F78A2D880F8B2D881F8F3F49F0F5
:103DC00020E030E0A901C501B4010E94291F811142
:103DD00006C082E290E09093F1088093F008C5015C
:103DE000B40109C060E070E080E89FEF04C060E0CB
:103DF00070E080EC9FE7DF91CF911F910F91FF90D2
:103E0000EF90DF90CF90BF90AF909F908F900895EC
:103E100091110C94FC1F803219F089508550C8F71D
:103E20000895FB01DC014150504088F08D918134B0
:103E30001CF08B350CF4805E659161341CF06B35A1
:103E40000CF4605E861B611171F3990B0895881B59
:103E5000FCCF0E946B1F08F481E00895E89409C02C
:103E600097FB3EF490958095709561957F4F8F4FAD
:103E70009F4F9923A9F0F92F96E9BB279395F695C3
:103E8000879577956795B795F111F8CFFAF4BB0F41
:103E900011F460FF1BC06F5F7F4F8F4F9F4F16C0A5
:103EA000882311F096E911C0772321F09EE8872F2F
:103EB000762F05C0662371F096E8862F70E060E0EB
:103EC0002AF09A95660F771F881FDAF7880F969564
:103ED000879597F90895990F0008550FAA0BE0E808
:103EE000FEEF16161706E807F907C0F012161306BC
:103EF000E407F50798F0621B730B840B950B39F4FC
:103F00000A2661F0232B242B252B21F408950A2661
:103F100009F4A140A6958FEF811D811D08950E948F
:103F2000A21F0C9416200E94082038F00E940F2037
:103F300020F0952311F00C94FF1F0C940520112400
:103F40000C944A200E94272070F3959FC1F3950F8F
:103F500050E0551F629FF001729FBB27F00DB11D0D
:103F6000639FAA27F00DB11DAA1F649F6627B00D9D
:103F7000A11D661F829F2227B00DA11D621F739F86
:103F8000B00DA11D621F839FA00D611D221F749F94
:103F90003327A00D611D231F849F600D211D822FDB
:103FA000762F6A2F11249F5750409AF0F1F0882302
:103FB0004AF0EE0FFF1FBB1F661F771F881F91502F
:103FC0005040A9F79E3F510580F00C94FF1F0C94C0
:103FD0004A205F3FE4F3983ED4F386957795679542
:103FE000B795F795E7959F5FC1F7FE2B880F911D59
:103FF0009695879597F9089599278827089597F9B1
:104000009F6780E870E060E008959FEF80EC08957E
:1040100000240A94161617061806090608950024A7
:104020000A9412161306140605060895092E039421
:10403000000C11F4882352F0BB0F40F4BF2B11F495
:1040400060FF04C06F5F7F4F8F4F9F4F089557FDF4
:104050009058440F551F59F05F3F71F04795880FF6
:1040600097FB991F61F09F3F79F08795089512168D
:1040700013061406551FF2CF4695F1DF08C0161639
:1040800017061806991FF1CF8695710561050894EA
:104090000895E894BB2766277727CB0197F9089501
:1040A000052E97FB1EF400940E94672057FD07D051
:1040B0000E94822007FC03D04EF40C946720509598
:1040C0004095309521953F4F4F4F5F4F0895909504
:1040D0008095709561957F4F8F4F9F4F08950E94F7
:1040E000A420A59F900DB49F900DA49F800D911DBD
:1040F00011240895B7FF0C946F200E946F20821B3B
:10410000930B0895A1E21A2EAA1BBB1BFD010DC043
:10411000AA1FBB1FEE1FFF1FA217B307E407F50777
:1041200020F0A21BB30BE40BF50B661F771F881F53
:10413000991F1A9469F760957095809590959B01E9
:10414000AC01BD01CF010895A29FB001B39FC00192
:10415000A39F700D811D1124911DB29F700D811DB3
:104160001124911D0895991B79E004C0991F961799
:1041700008F0961B881F7A95C9F780950895AA1BA9
:10418000BB1B51E107C0AA1FBB1FA617B70710F042
:10419000A61BB70B881F991F5A95A9F78095909574
:1041A000BC01CD010895EE0FFF1F881F8BBF079044
:1041B000F691E02D19945058BB27AA270E94F320AE
:1041C0000C9416200E94082038F00E940F2020F046
:1041D00039F49F3F19F426F40C9405200EF4E09571
:1041E000E7FB0C94FF1FE92F0E94272058F3BA1712
:1041F000620773078407950720F079F4A6F50C94FD
:1042000049200EF4E0950B2EBA2FA02D0B01B90119
:1042100090010C01CA01A0011124FF27591B99F03C
:10422000593F50F4503E68F11A16F040A22F232F48
:10423000342F4427585FF3CF469537952795A79598
:10424000F0405395C9F77EF41F16BA0B620B730B3F
:10425000840BBAF09150A1F0FF0FBB1F661F771FB0
:10426000881FC2F70EC0BA0F621F731F841F48F465
:10427000879577956795B795F7959E3F08F0B0CFEE
:104280009395880F08F09927EE0F979587950895D5
:104290000E945C210C9416200E940F2058F00E946E
:1042A000082040F029F45F3F29F00C94FF1F5111C2
:1042B0000C944A200C9405200E94272068F399232F
:1042C000B1F3552391F3951B550BBB27AA27621712
:1042D0007307840738F09F5F5F4F220F331F441F1F
:1042E000AA1FA9F335D00E2E3AF0E0E832D0915053
:1042F0005040E695001CCAF72BD0FE2F29D0660F40
:10430000771F881FBB1F261737074807AB07B0E882
:1043100009F0BB0B802DBF01FF2793585F4F3AF088
:104320009E3F510578F00C94FF1F0C944A205F3F8C
:10433000E4F3983ED4F3869577956795B795F7950E
:104340009F5FC9F7880F911D9695879597F90895F6
:10435000E1E0660F771F881FBB1F62177307840792
:10436000BA0720F0621B730B840BBA0BEE1F88F7A1
:10437000E09508950E94C1216894B1110C944A20DF
:1043800008950E942F2088F09F5798F0B92F992701
:10439000B751B0F0E1F0660F771F881F991F1AF030
:1043A000BA95C9F714C0B13091F00E944920B1E02C
:1043B00008950C944920672F782F8827B85F39F02B
:1043C000B93FCCF3869577956795B395D9F73EF4C9
:1043D00090958095709561957F4F8F4F9F4F089571
:1043E0000E946B1F08F48FEF08950E946B1F880BCB
:1043F000990B08950F931F93CF93DF93823091050C
:1044000010F482E090E0E091F408F091F50820E0EB
:1044100030E0A0E0B0E0309719F140815181028195
:10442000138148175907C8F08417950769F4109746
:1044300031F012960C93129713961C9327C0009399
:10444000F4081093F50822C02115310519F0421720
:10445000530718F49A01BD01EF01DF01F801DBCF2A
:1044600021153105F9F0281B390B2430310580F472
:104470008A819B816115710521F0FB019383828301
:1044800004C09093F5088093F408FE01329644C06E
:10449000FE01E20FF31F819391932250310939837A
:1044A00028833AC02091F2083091F308232B41F47D
:1044B00020910702309108023093F3082093F2080C
:1044C00020910502309106022115310541F42DB7E6
:1044D0003EB74091090250910A02241B350BE0912E
:1044E000F208F091F308E217F307A0F42E1B3F0B3C
:1044F0002817390778F0AC014E5F5F4F2417350756
:1045000048F04E0F5F1F5093F3084093F2088193D9
:10451000919302C0E0E0F0E0CF01DF91CF911F91D5
:104520000F910895CF93DF93009709F481C0FC01A8
:10453000329713821282A091F408B091F508109777
:1045400081F420813181820F931F2091F2083091F4
:10455000F3082817390751F5F093F308E093F208B0
:1045600067C0ED0120E030E0CE17DF0740F44A815C
:104570005B819E0141155105F1F0EA01F5CFD3832E
:10458000C28340815181840F951FC817D90759F400
:1045900088819981840F951F0296918380838A81F7
:1045A0009B81938382832115310529F4F093F508CB
:1045B000E093F4083DC0E901FB83EA8349915991F6
:1045C000C40FD51FEC17FD0761F480819181840F22
:1045D000951F0296E90199838883828193819B8349
:1045E0008A83E0E0F0E012968D919C9113970097FA
:1045F00019F0FD01DC01F7CF8D919C9111979D0180
:104600002E5F3F4F820F931F2091F2083091F308E5
:104610002817390769F4309729F41092F508109299
:10462000F40802C013821282B093F308A093F20838
:10463000DF91CF9108956F927F928F929F92AF9268
:10464000BF92CF92DF92EF92FF920F931F93CF937F
:10465000DF93009789F4CB01DF91CF911F910F91E8
:10466000FF90EF90DF90CF90BF90AF909F908F9092
:104670007F906F900C94FA21FC01E60FF71F9C01CC
:1046800022503109E217F30708F4A9C0EC01D9015F
:104690000D911C91119706171707B0F00530110501
:1046A00008F49BC0C80104978617970708F495C0C3
:1046B00002501109061B170B019311936D937C9304
:1046C000CF010E94922289C05B01A01AB10A4C015D
:1046D000800E911EA091F408B091F508612C712C08
:1046E000E12CF12C109709F446C08D919C91119703
:1046F000A815B905B1F56C0142E0C40ED11CCA146D
:10470000DB0478F14C018A189B08640142E0C40E76
:10471000D11C1296BC9012971396AC91B5E0CB16B3
:10472000D10440F0B282A38391828082D9016D933B
:104730007C9309C00E5F1F4F800F911FF901918379
:104740008083EB2DFA2FE114F10431F0D701139699
:10475000FC93EE93129741C0F093F508E093F408B0
:104760003CC06816790608F43C017D0112960D9054
:10477000BC91A02DB7CF8091F2089091F3088816D4
:104780009906E1F466167706C8F4809105029091C7
:104790000602009741F48DB79EB7409109025091EF
:1047A0000A02841B950BE817F907C8F4F093F30885
:1047B000E093F208F901718360830FC0CB010E947E
:1047C000FA217C01009759F0A801BE010E9405243E
:1047D000CE010E949222C70104C0CE0102C080E037
:1047E00090E0DF91CF911F910F91FF90EF90DF90BC
:1047F000CF90BF90AF909F908F907F906F900895D3
:1048000081E090E0F8940C941E24FB01DC0102C0CE
:1048100001900D9241505040D8F70895FB01DC0102
:104820008D91019080190110D9F3990B0895FB0126
:10483000DC0101900D920020E1F7089511E0C1EB39
:10484000D1E000E006C0802FFE010E94D320219617
:10485000011DC23BD10780E00807A9F7F894FFCFFC
:10486000FF010000000000F6082000363738391B31
:104870001D1A1C000000008C02E5010F02D9024045
:10488000021E02320200000000EA03E501E703BA5B
:104890000F00000000B8038B03E7035F0383036F7F
:1048A000036003496E76616C6964206D6F746F728A
:1048B000206964210053656E74206D7573696320EF
:1048C000726571756573743A20000D0A0020414EBF
:1048D000676C65203A004E4274203A00627265614E
:1048E0006B006E616E00696E66006F766600445301
:1048F000543A00496E76616C696420736572766F14
:104900002069642100536572766F20616E676C6563
:10491000206973206F7574206F662072616E676501
:104920002100466F756E642073656E736F72004E62
:104930006F20544353333437323520666F756E64BD
:10494000202E2E2E20636865636B20796F75722090
:10495000636F6E6E656374696F6E7300537461721A
:1049600074696E672E2E2E0053544F50004D4F56D3
:104970003A200070743100707432007465737400F2
:1049800049324320636F6C6F722073656E7365727A
:10499000206572726F72203A007074340063006296
:1049A0000070743500434F554C4555523A20523AE9
:1049B0000020473A200020423A200070743300570C
:1049C000616974696E6720666F7220537472696ED4
:1049D000670053455249414C3220415641494C41B0
:1049E000424C45005265636569766564204F4E0010
:1049F000706F735F783A2000706F735F793A2000B0
:104A000044524956494E470053706565643A204CFC
:104A10004546543A20002052494748543A20004D18
:104A20005553494300464F4F440053544F505F5233
:104A3000414E445F505552520053544F5050494ECE
:104A4000472052414E444F4D2050555252494E47F7
:104A50000045786974696E670050555252494E4757
:104A600021210053656E742053544F50206D75738F
:104A7000696320726571756573743A200053454E01
:104A8000534F522045584954494E472050494400FD
:00000001FF
