:100000000C9495010C94C6010C94C6010C94C60185
:100010000C94C6010C94C6010C94C6010C94C60144
:100020000C94C6010C947E050C947E050C947E0500
:100030000C94C6010C94FE010C94C6010C94C601EC
:100040000C94C6010C94BF0B0C94C6010C94C60111
:100050000C94C6010C94C6010C94C6010C94BC0D02
:100060000C94C6010C94E6070C945C080C94C60131
:100070000C94C6010C94C6010C94C6010C94C601E4
:100080000C94C6010C94C6010C94C6010C94C601D4
:100090000C94C6010C94C6010C94C6010C948805FE
:1000A0000C94C6010C94C6010C94C6010C94C601B4
:1000B0000C94C6010C94C6010C94C6010C94F5086E
:1000C0000C94C6010C94C6010C94C6010C94BC0798
:1000D0000C9432080C94C6010C94C5020C949B023B
:1000E0000C94C601140A190A1E0A280A320AAB0A1D
:1000F0003C0A440A4C0A560A600A6A0A790A830AC8
:10010000AB0A8D0A970AA10AEC0CEF0CDE0CE20C8C
:10011000E80C260DF30CF70CFD0C010D050D0B0D75
:100120000F0D130D260D190D1D0D210D0C94DE0C58
:100130000C948F030C94F70C0C94EC0C0C94350776
:100140000C9497070C944C0A0C947D030C94E80CC7
:100150000C94210D0C94600A0C94560A0C944307DD
:100160000C94440A0C9486080C94190D0C94C80144
:100170000C948D0A0C94AB030C94140A0C94940701
:100180000C941D0D0C94D8030C9480030C94D3088C
:100190000C94C0110C94AB0A0C94830A0C94A81311
:1001A0000C941E0A0C94790A0C94280A0C946A0A7E
:1001B0000C943C0A0C9493070C94A3030C94260D06
:1001C0000C940F0D0C94A10A0C94E20C0C940B0DE2
:1001D0000C947E030C94010D0C94970A0C94FD0C66
:1001E0000C94130D0C94050D0C94EF0C0C94120749
:1001F0000C947F030C94F30C0C94320A0C94190A9F
:100200000C9421070200002200250028002B002E5C
:10021000003100340002010000050108010B01005B
:100220000020002300260029002C002F00320000AF
:100230000100000301060109010505050507050880
:10024000080808020202020A0A0808040404040159
:10025000010101010101010303030303030303047B
:100260000707070C0C0C0C0C0C0C0C02020202060B
:10027000060606060606060B0B0B0B0B0B0B0B01FB
:1002800002102020080810204010204080020102A7
:10029000010804020101020408102040808040206F
:1002A00010080402018004020180402010080402AA
:1002B0000108040201010204081020408001020428
:1002C000081020408000000A0B02090C0D0E0807E0
:1002D0000304010000000000000000000000000016
:1002E000000000000000000000000000000000000E
:1002F00000121110000000000000000000000000CB
:1003000000000000000000000000000000210024A8
:100310000027002A002D00300033000101000004F6
:100320000107010A0100C011A81311241FBECFEF5D
:10033000D1E2DEBFCDBF00E00CBF12E0A0E0B2E032
:10034000ECE2F0E300E00BBF02C007900D92A6398B
:10035000B107D9F727E0A6E9B2E001C01D92AF3698
:10036000B207E1F711E0C4E9D1E000E006C021974F
:100370000109802FFE010E943915C339D10780E0A1
:100380000807A9F70E94060E0C9404180C940000AC
:10039000CF92DF92EF92FF920F931F93CF93DF9351
:1003A0006C017A018B01C0E0D0E0CE15DF0581F051
:1003B000D8016D918D01D601ED91FC910190F081F4
:1003C000E02DC6011995892B11F02196EECF7E0103
:1003D000C701DF91CF911F910F91FF90EF90DF90B8
:1003E000CF9008950E94EF1787EB92E00E94430799
:1003F00021E0892B09F420E0822F08951F920F92AB
:100400000FB60F9211240BB60F922F933F934F9379
:100410005F936F937F938F939F93AF93BF93EF936C
:10042000FF938091970290919802A0919902B091C8
:100430009A02892B8A2B8B2B49F1909196028091FD
:100440000000892780930000809197029091980284
:10045000A0919902B0919A02181619061A061B0665
:100460000CF056C08091970290919802A091990249
:10047000B0919A020197A109B109809397029093D4
:100480009802A0939902B0939A0242C08091000210
:10049000E4E0F2E0E4919FEF90930002E230C9F0D3
:1004A00050F4EE2399F0E13081F590916F009D7F3B
:1004B00090936F002AC0E43019F1E0F0E53029F59F
:1004C000909173009D7F909373001FC010926E00F7
:1004D0001CC0909170009D7F9093700091E090936C
:1004E000B0009091B100987F94609093B100109209
:1004F000B3000BC0909171009D7F9093710005C077
:10050000909172009D7F9093720060E00E94E306DC
:10051000FF91EF91BF91AF919F918F917F916F91DB
:100520005F914F913F912F910F900BBE0F900FBE97
:100530000F901F9018951F920F920FB60F921124D3
:100540000BB60F922F933F934F935F936F937F93CD
:100550008F939F93AF93BF93EF93FF9387EB92E0BB
:100560000E941008FF91EF91BF91AF919F918F91E1
:100570007F916F915F914F913F912F910F900BBEA3
:100580000F900FBE0F901F9018951F920F920FB6ED
:100590000F9211240BB60F922F933F934F935F93BB
:1005A0006F937F938F939F93AF93BF93EF93FF933B
:1005B00087EB92E00E946505FF91EF91BF91AF91AB
:1005C0009F918F917F916F915F914F913F912F916B
:1005D0000F900BBE0F900FBE0F901F90189530918B
:1005E000AA02313208F04BC08091A8028111FCCFE1
:1005F0009091850622E02093A80221E02093A70293
:100600002FEF209363061092620630936106E5E6B1
:10061000F6E0A1E4B6E020E0321721F041914D93DD
:100620002F5FFACF1092400620914006990F922B2F
:10063000909340069091A602913061F41092A60228
:10064000909140069093BB009091BC0093FDF8CF31
:1006500095EC01C095EE9093BC009091A802923069
:10066000E1F3909163069F3F79F0809163068032B9
:1006700041F080916306803331F084E005C081E071
:1006800003C082E001C083E01092A9021092AA0286
:1006900010926406089585ED8093BC008091BC00A3
:1006A00084FDFCCF1092A802089540911B06262FCE
:1006B00030E0240F311D21323105DCF42091A802F5
:1006C0002430C9F4FC0180E090E0861758F43091A2
:1006D0001B062191DC01A550BA4FA30FB11D2C932D
:1006E0000196F3CF80911B06680F60931B0680E094
:1006F000089581E0089582E0089508950895089589
:10070000E091A1028091A002E81730F4F0E0E552F8
:10071000FA4F808190E008958FEF9FEF08959091B8
:10072000A1028091A002981750F4E92FF0E0E55261
:10073000FA4F208130E09F5F9093A10202C02FEF1B
:100740003FEFC90108958091A00290E02091A1029D
:10075000821B91090895CF92DF92EF92FF920F933F
:100760001F93CF93DF937C01CB018A012091640614
:10077000222389F0EB016B01C40ED51ECC15DD05DB
:1007800069F06991D701ED91FC910190F081E02D24
:10079000C7011995F3CF642F0E945503C801DF915B
:1007A000CF911F910F91FF90EF90DF90CF90089520
:1007B000CF93DF931F92CDB7DEB769832091640694
:1007C0002223D1F02091AA02203240F021E030E033
:1007D000FC013383228380E090E015C08091A90260
:1007E000E82FF0E0EB59F94F998190838F5F809368
:1007F000A9028093AA0205C061E0CE0101960E9481
:10080000550381E090E00F90DF91CF91089500971C
:1008100069F0FC0101900020E9F73197AF01481B16
:10082000590BBC0181EF93E00C94C80180E090E08B
:100830000895CF93DF930E940704EC0184E592E0D2
:100840000E9407048C0F9D1FDF91CF9108950F9395
:100850001F93CF93DF93162F072FC4EAD5E09C8513
:1008600021E020936406909385061092A9021092CD
:10087000AA02AA85BB85ED91FC9111970190F081A8
:10088000E02D682FCD0119958A859B85DC01ED91BE
:10089000FC910190F081E02D602F19958A859B8550
:1008A000DC01ED91FC910190F081E02D612F199513
:1008B000DF91CF911F910F910C94EF028F929F9235
:1008C000AF92BF920F931F93CF93DF93CDB7DEB755
:1008D000A1970FB6F894DEBF0FBECDBF19A242306C
:1008E00008F44AE08E010F5D1F4F842E912CA12C3D
:1008F000B12CA50194010E94FC14E62FB901CA0194
:1009000001501109EA3014F4E05D01C0E95CD8013E
:10091000EC93232B242B252B61F7C8010E9407049D
:10092000A1960FB6F894DEBF0FBECDBFDF91CF9179
:100930001F910F91BF90AF909F908F900895CF928D
:10094000DF92EF92FF92CF93DF93823018F087E52A
:1009500092E00AC09091CF05691720F09091D005E0
:10096000961750F489E692E0DF91CF91FF90EF90D7
:10097000DF90CF900C941904E82FF0E0EB53FA4F7E
:10098000C089CC3008F072C0262F30E0D0E085E07E
:100990008C9FF0018D9FF00D1124E05AFA4F838156
:1009A000283C31059CF528E830E06901C81AD108D7
:1009B00087FDD394CC0CDD1CCC0CDD1C0D2C000C65
:1009C000EE08FF08848128E532E0281B310987FD05
:1009D0003395220F331F220F331FC901330FAA0B88
:1009E000BB0B9C01AD012C193D094E095F09A62FD7
:1009F000B0E00E94F11424EB30E040E050E00E94AF
:100A0000D214C20ED31EE41EF51E1EC048E850E0EC
:100A10006A01C81AD10887FDD394CC0CDD1CCC0C1C
:100A2000DD1C2C153D0584F0448188E592E0841B93
:100A3000910947FD9395880F991F880F991F6901A8
:100A40008C159D050CF46C018FB7F89495E09C9F74
:100A5000F0019D9FF00D1124E05AFA4F96E0C91A5B
:100A6000D108CC0CDD1CD282C1828FBFDF91CF9127
:100A7000FF90EF90DF90CF900895FC01248131E04A
:100A800030936406209385061092A9021092AA0260
:100A90008485682B8BEA92E00E94D8030C94EF02C5
:100AA0000F931F93CF938C01C62F64600E943D0566
:100AB0006C2F6B7FC8010E943D0583EC90E001978D
:100AC000F1F7CF911F910F910895FC01A089B18991
:100AD0008C91A689B78982FD0FC09C91818D8F5F13
:100AE0008F73228D821749F0218DDF01A20FB11D76
:100AF0005D969C93818F08958C9108951F920F921B
:100B00000FB60F9211240F900FBE0F901F901895E3
:100B10001F920F920FB60F9211240BB60F922F93C4
:100B20003F934F935F936F937F938F939F93AF9375
:100B3000BF93EF93FF938091B900887F803609F4CB
:100B40009CC068F5883209F45BC090F4803109F4E8
:100B500054C038F4882309F4F6C0883009F44DC035
:100B6000F6C0883109F44CC0803209F45DC0EFC092
:100B7000803409F468C048F4803309F455C08833E0
:100B800009F0E5C080936306D8C0803509F44FC0F2
:100B9000883509F45DC0883409F0D9C0D6C08839D9
:100BA00009F4C7C0A8F4883709F467C038F4883658
:100BB00009F463C0803709F460C0C9C0883809F4FB
:100BC000B8C0803909F45FC0803809F0C0C05BC08C
:100BD000803B09F486C038F4803A09F466C0883A4C
:100BE00009F47FC0B4C0803C09F4A7C0883C09F474
:100BF000A4C0883B09F48AC0AAC08091400610C0F6
:100C00009091620680916106981770F5E0916206F6
:100C100081E08E0F80936206F0E0EF5BF94F8081F8
:100C20008093BB0085EC86C0809363068EC0E09104
:100C3000620681E08E0F809362068091BB00F0E037
:100C4000EF5BF94F808390916206809161066EC0E0
:100C5000E091620681E08E0F809362068091BB0076
:100C6000F0E0EF5BF94F80838091A70281116DC0A6
:100C700081E08093A60284EA61C083E08093A802A9
:100C800010923D06CFCF80913D06803208F051C0D2
:100C9000E0913D0681E08E0F80933D068091BB0080
:100CA000F0E0E35EF94F8083BDCF85EC8093BC001C
:100CB0001092A80280913D06803230F4E0913D060A
:100CC000F0E0E35EF94F108260913D0670E0E09144
:100CD000A402F091A5028DE196E0199510923D06CF
:100CE00036C084E08093A80210921C0610921B0666
:100CF000E091A202F091A302199580911B06811147
:100D000005C081E080931B061092FB05E0911C0654
:100D100081E08E0F80931C06F0E0E550FA4F808151
:100D20008093BB0090911C0680911B06981708F4D5
:100D300079CF85E88093BC000AC085EC8093BC0025
:100D40001092A80204C0109263060E944B03FF9108
:100D5000EF91BF91AF919F918F917F916F915F9133
:100D60004F913F912F910F900BBE0F900FBE0F90A0
:100D70001F901895CF93DF93282F30E0F901EB53A4
:100D8000FD4F8491F901E158FD4FD491F901E75CE1
:100D9000FD4FC491CC2391F081110E94D10CEC2F16
:100DA000F0E0EE0FFF1FE15EFD4FA591B491EC91D5
:100DB000ED2381E090E021F480E002C080E090E04B
:100DC000DF91CF9108951F93CF93DF93282F30E0C9
:100DD000F901EB53FD4F8491F901E158FD4FD49196
:100DE000F901E75CFD4FC491CC23C1F0162F8111AE
:100DF0000E94D10CEC2FF0E0EE0FFF1FEB5FFD4FD8
:100E0000A591B4919FB7F894111104C08C91D0951D
:100E1000D82302C0EC91DE2BDC939FBFDF91CF91F2
:100E20001F910895FC01538D448D252F30E0842FB0
:100E300090E0821B930B541710F0CF960895019702
:100E40000895FC01918D828D981761F0828DDF01EC
:100E5000A80FB11D5D968C91928D9F5F9F73928FAD
:100E600090E008958FEF9FEF0895FC01918D828DA2
:100E7000981731F0828DE80FF11D858D90E008956F
:100E80008FEF9FEF0895FC01918D228D892F90E0C7
:100E9000805C9F4F821B91098F739927089584E589
:100EA00093E00E94430721E0892B09F420E0822F80
:100EB000089581EF93E00E94430721E0892B09F414
:100EC00020E0822F0895E0E0F0E0199480E090E0C7
:100ED000892B21F00E945907811119C080E090E010
:100EE000892B41F080E090E0892B21F00E940000E6
:100EF000811110C00E944F0781110FC080E090E067
:100F0000892B81F00E94F40181110AC008950E948A
:100F10000000E4CF0E940000EDCF0E946307EECFF7
:100F20000C9400000895089580E090E008950F93D8
:100F30001F93CF93DF938C01C62FD62FD07FD16024
:100F40006D2F0E943D056D2FC8010E94500580E164
:100F5000C89FB0011124C62FC1606C2FC8010E9428
:100F60003D056C2FC8010E94500581E090E0DF91A3
:100F7000CF911F910F9108951F920F920FB60F926C
:100F800011240BB60F922F933F934F935F936F9360
:100F90007F938F939F93AF93BF93EF93FF9384E5DA
:100FA00093E00E946505FF91EF91BF91AF919F91F2
:100FB0008F917F916F915F914F913F912F910F9002
:100FC0000BBE0F900FBE0F901F9018951F920F929F
:100FD0000FB60F9211240BB60F922F933F934F939E
:100FE0005F936F937F938F939F93AF93BF93EF9391
:100FF000FF9381EF93E00E946505FF91EF91BF9110
:10100000AF919F918F917F916F915F914F913F91A0
:101010002F910F900BBE0F900FBE0F901F90189541
:10102000FC01848DDF01A80FB11DA35ABF4F2C9185
:10103000848D90E001968F739927848FA689B78954
:101040002C93A089B1898C91837080648C93938D4B
:10105000848D981306C00288F389E02D80818F7DEE
:10106000808308951F920F920FB60F9211240BB632
:101070000F922F933F934F935F936F937F938F9331
:101080009F93AF93BF93EF93FF9384E593E00E9408
:101090001008FF91EF91BF91AF919F918F917F9138
:1010A0006F915F914F913F912F910F900BBE0F90D9
:1010B0000FBE0F901F9018951F920F920FB60F92B0
:1010C00011240BB60F922F933F934F935F936F931F
:1010D0007F938F939F93AF93BF93EF93FF9381EF92
:1010E00093E00E941008FF91EF91BF91AF919F9103
:1010F0008F917F916F915F914F913F912F910F90C1
:101100000BBE0F900FBE0F901F901895EF92FF929D
:101110000F931F93CF93DF93EC0181E0888F9B8D1A
:101120008C8D981305C0E889F989808185FD26C0DA
:10113000F62E0B8D10E00F5F1F4F0F731127E02E5F
:101140008C8DE8120CC00FB607FCFACFE889F9893C
:10115000808185FFF5CFCE010E941008F1CF8B8DE5
:10116000FE01E80FF11DE35AFF4FF0829FB7F8949C
:101170000B8FEA89FB89808180620AC09FB7F8944F
:10118000EE89FF896083E889F989808183708064B2
:1011900080839FBF81E090E0DF91CF911F910F91FD
:1011A000FF90EF900895CF93DF93EC01888D882313
:1011B000C9F0EA89FB89808185FD05C0A889B989C4
:1011C0008C9186FD0FC00FB607FCF5CF808185FF9F
:1011D000F2CFA889B9898C9185FFEDCFCE010E940D
:1011E0001008E7CFDF91CF9108951F920F920FB6AD
:1011F0000F9211240BB60F922F933F934F935F934F
:101200006F937F938F939F93AF93BF93EF93FF93CE
:1012100080918F040E94BA06209193043091940427
:101220002F5F3F4F30939404209393049091920446
:10123000953618F096E090938E0490918E04943039
:10124000C9F128F4923069F09330D1F05EC0953046
:1012500009F451C0963009F058C091E090935F05B1
:1012600051C0811152C020919304309194042436CE
:10127000310508F442C010925F05109292041CC020
:10128000813009F042C0E091920491E09E0F90936A
:101290009204F0E02091930430919404EE0FFF1F2C
:1012A000E257FB4F308727831092940410929304E7
:1012B00094E029C0811117C0E091920491E09E0F43
:1012C00090939204F0E02091930430919404EE0FF7
:1012D000FF1FE257FB4F3087278310929404109230
:1012E000930493E010C02091930430919404253628
:1012F000310558F007C0811108C010929404109273
:10130000930403C095E090938E04909191049923E7
:10131000B9F081110AC080919004882321F0809156
:10132000900461E009C02F9A0BC08091900488233B
:1013300031F08091900460E00E94E30601C02F9894
:10134000FF91EF91BF91AF919F918F917F916F919D
:101350005F914F913F912F910F900BBE0F900FBE59
:101360000F901F9018958F929F92AF92BF92CF923D
:10137000DF92EF92FF920F931F93CF93DF938C0135
:101380006A017B0120E030E04FE753E4C701B6017A
:101390000E9414144B015C0120E030E0A9010E947E
:1013A000E41518161CF4C501B40103C0C501B4014D
:1013B00090580E94AE15EB0120E030E0A901C70172
:1013C000B6010E94E415181614F460E001C061E053
:1013D000F80181810E94E306CF3FD10509F014F4A2
:1013E000DD2702C0CFEFD0E0F801108161E0812F4E
:1013F0000E94270D209709F4B1C0CF3FD10509F411
:10140000AFC0E12FF0E0EB53FD4FE4918E2F90E061
:10141000FC013197E231F10508F09DC08827EE58B4
:10142000FF4F8F4F0C94391584B5806884BDC7BDBC
:10143000A7C084B5806284BDC8BDA2C08091800071
:10144000806880938000D0938900C093880098C002
:1014500080918000806280938000D0938B00C09345
:101460008A008EC080918000886080938000D09335
:101470008D00C0938C0084C08091B0008068809300
:10148000B000C093B3007CC08091B00080628093B4
:10149000B000C093B40074C08091900080688093C5
:1014A0009000D0939900C09398006AC080919000FA
:1014B000806280939000D0939B00C0939A0060C09C
:1014C00080919000886080939000D0939D00C0939D
:1014D0009C0056C08091A00080688093A0008091FD
:1014E000A0008F7B8093A000D093A900C093A80098
:1014F00047C08091A00080628093A000D093AB0091
:10150000C093AA003DC08091A00088608093A00095
:10151000D093AD00C093AC0033C0809120018068AF
:1015200080932001D0932901C093280129C0809184
:101530002001806280932001D0932B01C0932A0167
:101540001FC080912001886080932001D0932D01DD
:10155000C0932C0115C0C038D10514F460E001C05F
:1015600061E0812FDF91CF911F910F91FF90EF905C
:10157000DF90CF90BF90AF909F908F900C94E30638
:10158000DF91CF911F910F91FF90EF90DF90CF905F
:10159000BF90AF909F908F9008958EBD00000DB4C6
:1015A00007FEFDCF8EB50895CF93DF93EC0160E089
:1015B00088810E94E30688E90E94CD0A80E00E94AB
:1015C000CD0A80E00E94CD0A80E00E94CD0A80E032
:1015D0000E94CD0A61E088810E94E3068BE891E0D9
:1015E0000197F1F760E088810E94E30680EE0E9497
:1015F000CD0A61E08881DF91CF910C94E306AF9230
:10160000BF92CF92DF92EF92FF920F931F93CF93EF
:10161000DF93CDB7DEB760970FB6F894DEBF0FBE8D
:10162000CDBF5C0160E0FC0180810E94E30680E6A2
:101630000E94CD0A8E010F5F1F4F7E01F1E1EF0E78
:10164000F11C680180E00E94CD0A90E0A0E0B0E0CB
:10165000F60181939193A193B1936F01EE15FF056C
:1016600089F761E0F50180810E94E30680E090E067
:10167000DC01F80141915191619171918F01BA2F73
:10168000A92F982F8827840F951FA61FB71FEE1527
:10169000FF0579F79C01AD0166277727CB01621B17
:1016A000730B840B950B60960FB6F894DEBF0FBEDC
:1016B000CDBFDF91CF911F910F91FF90EF90DF9001
:1016C000CF90BF90AF9008951F93CF93DF93EC011D
:1016D000162F88818C3008F04DC061E0812F0E9468
:1016E000270DE88195E09E9FF0011124E05AFA4F02
:1016F0001F738081807C182B10831382E8819E9F4A
:10170000F0011124E05AFA4F148288816CE00E94A3
:101710002D159CE0899FA001112420E030E095E088
:10172000BA01620F731F969FF001979FF00D11246D
:10173000E05AFA4F608166FD13C02F5F3F4F2C3097
:10174000310571F781110CC01092800082E0809306
:101750008100109285001092840086BB80936F00F8
:10176000E88185E0E89FF0011124E05AFA4F80817A
:10177000806480838881DF91CF911F9108951F92AB
:101780000F920FB60F9211240BB60F922F933F9327
:101790004F935F936F937F938F939F93AF93BF9379
:1017A000EF93FF938091610787FF05C0109285003A
:1017B0001092840016C020916107022E000C330B9A
:1017C00080919C0590E0281739075CF430916107FF
:1017D00025E03203F0011124E05AFA4F808186FDA2
:1017E00015C0809161078F5F809361072091610729
:1017F000022E000C330B80919C0590E028173907CE
:1018000094F4809161078C302CF10DC03091610708
:101810003203F0011124E05AFA4F808160E08F73A7
:101820000E94E306DECF809184009091850084348D
:101830009C4918F480E49CE905C080918400909153
:101840008500049690938900809388008FEF8093A1
:1018500061072AC040918400509185003091610752
:1018600025E03203F0011124E05AFA4F8181928180
:10187000840F951F909389008093880030916107B1
:101880003203F0011124E05AFA4F808186FF0CC028
:10189000309161073203F0011124E05AFA4F808140
:1018A00061E08F730E94E306FF91EF91BF91AF91CA
:1018B0009F918F917F916F915F914F913F912F9168
:1018C0000F900BBE0F900FBE0F901F9018951F9397
:1018D000CF93DF93EC01182F853038F086E892E043
:1018E0000E94190480E090E007C0FC01FF27EB5341
:1018F000FA4F80810E94630DBC0180E090E04AE0D5
:101900000E945E0484E592E00E940704153028F0EE
:1019100086E892E00E9419040AC0DD27CB53DA4F13
:1019200088810E94630D21E08C32914008F420E010
:10193000822FDF91CF911F91089540E050E0BA01CE
:101940008DEB95E00E94B30940E050E060E070E864
:101950008FEB95E00C94B3093FB7F894809167073B
:1019600090916807A0916907B0916A0726B5A89B76
:1019700005C02F3F19F00196A11DB11D3FBFBA2F21
:10198000A92F982F8827820F911DA11DB11DBC0181
:10199000CD0142E0660F771F881F991F4A95D1F746
:1019A000089590E0FC013197E231F10508F04EC056
:1019B0008827EC57FF4F8F4F0C943915809180008A
:1019C0008F7703C0809180008F7D80938000089581
:1019D00080918000877FF9CF84B58F7702C084B56E
:1019E0008F7D84BD08958091B0008F7703C0809172
:1019F000B0008F7D8093B0000895809190008F7724
:101A000007C0809190008F7D03C080919000877FF8
:101A10008093900008958091A0008F7707C08091F7
:101A2000A0008F7D03C08091A000877F8093A000DD
:101A30000895809120018F7707C0809120018F7DCC
:101A400003C080912001877F809320010895CF9368
:101A5000DF9390E0FC01E158FD4F2491FC01E75C2D
:101A6000FD4F8491882361F190E0880F991FFC015C
:101A7000E55FFC4FC591D491FC01EB5FFD4FA59153
:101A8000B491611109C09FB7F89488812095822391
:101A90008883EC912E230BC0623061F49FB7F894D9
:101AA0008881322F309583238883EC912E2B2C93C1
:101AB0009FBF06C08FB7F894E8812E2B28838FBF75
:101AC000DF91CF910895863308F0865390917B0083
:101AD000282F2870977F922B90937B0087708064CB
:101AE00080937C0080917A00806480937A0080915A
:101AF0007A0086FDFCCF809178002091790090E0FB
:101B0000922B08958F929F92AF92BF92CF92DF92C5
:101B1000EF92FF926B017C010E94AC0C4B015C01C7
:101B2000C114D104E104F104F1F00E94AC0CDC0119
:101B3000CB0188199909AA09BB09883E9340A105E0
:101B4000B10570F321E0C21AD108E108F10888EE6E
:101B5000880E83E0981EA11CB11CC114D104E104BD
:101B6000F10419F7DDCFFF90EF90DF90CF90BF9099
:101B7000AF909F908F9008951F920F920FB60F9283
:101B800011242F933F938F939F93AF93BF93809193
:101B9000620790916307A0916407B0916507309147
:101BA000660723E0230F2D3720F40196A11DB11DF8
:101BB00005C026E8230F0296A11DB11D20936607DC
:101BC0008093620790936307A0936407B0936507BF
:101BD0008091670790916807A0916907B0916A07A3
:101BE0000196A11DB11D8093670790936807A0938C
:101BF0006907B0936A07BF91AF919F918F913F9111
:101C00002F910F900FBE0F901F901895CF93DF93D9
:101C1000CDB7DEB766970FB6F894DEBF0FBECDBF67
:101C2000789484B5826084BD84B5816084BD85B5B7
:101C3000826085BD85B5816085BD80916E008160C3
:101C400080936E0010928100809181008260809369
:101C5000810080918100816080938100809180006B
:101C60008160809380008091B10084608093B10096
:101C70008091B00081608093B0008091910082607B
:101C80008093910080919100816080939100809178
:101C900090008160809390008091A1008260809389
:101CA000A1008091A10081608093A1008091A0009B
:101CB00081608093A0008091210182608093210146
:101CC00080912101816080932101809120018160B8
:101CD0008093200180917A00846080937A008091C3
:101CE0007A00826080937A0080917A00816080938C
:101CF0007A0080917A00806880937A001092C10007
:101D0000E0910104F091020482E08083E091FD0300
:101D1000F091FE031082E091FF03F09100048FEC3C
:101D2000808310920904E0910504F091060486E096
:101D30008083E0910304F0910404808180618083BA
:101D4000E0910304F0910404808188608083E09135
:101D50000304F0910404808180688083E09103048F
:101D6000F091040480818F7D808361E08091A505DE
:101D70000E94270D60E08091A5050E94E30660E0C7
:101D80008091A4050E94270D8BEA92E09093AF0505
:101D90008093AE051092A1021092A0021092A902A7
:101DA0001092AA021092A80281E08093A7021092DA
:101DB000A60261E084E10E94E30661E085E10E9401
:101DC000E3068091B9008E7F8093B9008091B900BD
:101DD0008D7F8093B90088E48093B80085E4809378
:101DE000BC008DE793E09093A3028093A2028EE75C
:101DF00093E09093A5028093A40280E090E1A0E09C
:101E0000B0E08093B1059093B205A093B305B09371
:101E1000B4058AE090E0A0E0B0E08093B50590932F
:101E2000B605A093B705B093B80580E090E0A0E0B8
:101E3000B0E48093B9059093BA05A093BB05B09325
:101E4000BC0560E070E185E00E9427046FE979E35A
:101E500080E00E94270424EA35E03A83298389013F
:101E600022E0722E3EE6A32E32E0B32E44EB842E07
:101E700042E0942E5BECE52E57E0F52ED801149647
:101E80009C91149712968C91E981FA81818F928F9F
:101E900061E00E94270D61E0A981BA815A968C9178
:101EA0000E94270DF80190858681C980DA80FDE1C6
:101EB000CF0ED11CA981BA815D968C935D975E96F9
:101EC0009C9361E00E94270D60E0E981FA81868D94
:101ED0000E94270D61E0A981BA815D968C910E94D4
:101EE000E3066FB6F89480919B02811126C0F5013C
:101EF0008491F4012491E82FF0E0EE0FFF1FE55FDD
:101F0000FC4FA591B4919C91822F892321F461E02B
:101F100085E30E94E30661E085E30E94270D8CB50E
:101F200080618CBD8CB580648CBD61E084E30E94CF
:101F3000270D61E083E30E94270D80919B028F5F54
:101F400080939B026FBEC7010197F1F760E0A98102
:101F5000BA815D968C910E94E30688E80E94CD0AC2
:101F600083E00E94CD0A61E0E981FA81858D0E94BB
:101F7000E306C7010197F1F7C6010E94D40A7A94DB
:101F80000F5F1F4F29813A812E5F3F4F3A8329838C
:101F9000711074CF09EC15E04DEC55E05A8349837C
:101FA00060E0D8018D918D010E94270DE981FA81B1
:101FB000E017F107A9F705EC15E0E980FA80FFEFDB
:101FC000EF1AFF0AA981BA816C9170E0CD010896E1
:101FD0000E94640BF70195818381D80152968C93FE
:101FE000529753969C9360E00E94270D61E0F801A0
:101FF00083890E94270D60E0D80153968C910E943E
:10200000E3060E5F1F4FFA82E982F701EF5CF540AD
:10201000A1F6F8941092200189E08093210180E2DA
:1020200093E090932901809328011092250110924A
:10203000240182E080937300789480938E04109240
:10204000920480918F0460E00E94270D6091CE057C
:1020500070E086ED95E00E94640B6091CD0570E024
:1020600085ED95E00E94640B01E08091CC050E9413
:10207000BA06892B39F462E370E080E090E00E94B8
:10208000820DF3CF8DEC9CECACE4BEE380939C021C
:1020900090939D02A0939E02B0939F028EE492E0E3
:1020A0000E9407044AE061E070E080E090E00E9456
:1020B0005E0484E592E00E940704C0909C02D090E8
:1020C0009D02E0909E02F0909F0281EC95E00E94BC
:1020D000D40A83EC95E00E94D40AB701A6018DEBE7
:1020E00095E00E94B309A7019601505829873A87C5
:1020F0004B875C87BA01A9018FEB95E00E94B30979
:102100008FB7F8942091620730916307409164077C
:10211000509165072D833E834F8358878FBF8FB7BC
:10212000F894409062075090630760906407709045
:1021300065078FBF460157011E8A1D8A212C312C4D
:10214000C10137FE04C08827992782199309873374
:1021500094430CF00CC184E690E0A0E0B0E0841958
:102160009509A609B7092D813E814F815885280F11
:10217000391F4A1F5B1FCA01B9010E94820D8FB728
:10218000F894209162073091630740916407509161
:1021900065072D833E834F8358878FBF81EC95E081
:1021A0000E94FF0A698B7A8B8B8B9C8B81EC95E06C
:1021B0000E94FF0A69837A838B839C8381EC95E07C
:1021C0000E94D40A83EC95E00E94FF0A2B013C0197
:1021D00083EC95E00E94D40A89819A81AB81BC810D
:1021E000B095A095909581959F4FAF4FBF4F9C01A3
:1021F000AD012419350946095709AAE0B0E00E944B
:10220000F1144D895E89460F571F5E8B4D8B0E94DE
:10221000B51327E137EB41ED58E30E941414A501F3
:1022200094010E9442154B015C01AD89BE89BD013C
:10223000BB0F880B990B0E94B51320EB3FE041E2E6
:1022400055E30E941414A50194010E9442154B010C
:102250005C0120E030E040E85FE30E94AE1387FDC0
:1022600006C0812C912C80E8A82E8FE3B82EA50102
:10227000940150582D873E874F87588BBA01A9018A
:102280008FEB95E00E94B3098FB7F89440906207F6
:102290005090630760906407709065078FBF11E0EE
:1022A00020E030E0A901C701B6010E94E41518162C
:1022B0000CF010E01027412F50E05A834983CA01E7
:1022C0000E94670C81110EC089899A89AB89BC89EB
:1022D000B095A095909581959F4FAF4FBF4F280E19
:1022E000391E2ECF0E949D0C68E2812F0E949F0410
:1022F00060ED77E080E090E00E94820D68E7812F3A
:102300000E949F0468EE73E080E090E00E94820DDE
:1023100089819A810E94670C81110FC0B701A601C3
:102320008DEB95E00E94B3094D855E856F857889B8
:102330008FEB95E00E94B309C7CF49855A856B851D
:102340007C858DEB95E00E94B309B701A6018FEB68
:1023500095E00E94B30964EF71E080E090E00E9494
:10236000820D0E949D0C8FE392E00E94190488E484
:1023700092E00E9407040E949D0C0E94660775CEA1
:102380001092AE021092AD0288EE93E0A0E0B0E0B1
:102390008093AF029093B002A093B102B093B202C7
:1023A00023E132E03093AC022093AB021092BA02E8
:1023B0001092B9028093BB029093BC02A093BD021D
:1023C000B093BE0225E232E03093B8022093B70208
:1023D00045E351E05093C4024093C30244E351E00B
:1023E0005093C6024093C50240E351E05093C802A7
:1023F0004093C70241E351E05093CA024093C9029F
:1024000042E351E05093CC024093CB0246E351E0CB
:102410005093CE024093CD021092D0021092D1027E
:102420001092D2021092D3021092570310925603C8
:102430008093580390935903A0935A03B0935B037E
:10244000309355032093540345ED50E050936103BE
:102450004093600344ED50E0509363034093620364
:1024600040ED50E0509365034093640341ED50E02C
:10247000509367034093660342ED50E05093690325
:102480004093680346ED50E050936B0340936A031A
:1024900010926D0310926E0310926F0310927003EE
:1024A0001092F4031092F3038093F5039093F603D4
:1024B000A093F703B093F8033093F2032093F10352
:1024C00085EC90E09093FE038093FD0384EC90E014
:1024D000909300048093FF0380EC90E090930204BB
:1024E0008093010481EC90E09093040480930304B2
:1024F00082EC90E0909306048093050486EC90E0D3
:10250000909308048093070410920A0410920B041D
:1025100010920C0410920D04809107029091080211
:10252000A0910902B0910A028093C5059093C60557
:10253000A093C705B093C80580910B0290910C023F
:10254000A0910D02B0910E028093C9059093CA0527
:10255000A093CB05B093CC0584E08093CD0587E0B4
:102560008093CE051092CF0584EB8093D00586E151
:102570008093D10588E18093D20587E18093D305CC
:1025800089E18093D405E0919C05EC3020F08FEF39
:102590008093D50510C081E08E0F80939C05E09359
:1025A000D50585E0E89FF0011124E05AFA4F88EB49
:1025B0009BE092838183E0919C05EC3020F08FEFCB
:1025C0008093D60510C081E08E0F80939C05E09328
:1025D000D60585E0E89FF0011124E05AFA4F88EB18
:1025E0009BE0928381838CE08093A40584E28093B6
:1025F000A50586E08093A60585E08093A7058FE179
:102600008093A8058EE18093A90583E28093AA05B3
:1026100082E28093AB0585E48093AC0584E48093EB
:10262000AD0580E48093B0051092B5051092B60513
:102630001092B7051092B8051092B9051092BA051C
:102640001092BB051092BC05EAE8F6E028E437E0FA
:102650008FEF9FEFDC0112821382148215821682A3
:1026600017821086118683879487A587B687878708
:10267000908BA18BB28B12861182108273962E17CB
:102680003F0749F78DE090E00E94E915FC011382B5
:10269000128287E392E091838083118687E28483AC
:1026A00084E1828784E083871486F0938706E09331
:1026B0008606109288061092890685E280938F0420
:1026C0001092910410929E0510929D051092A00503
:1026D00010929F051092A2051092A10561E070E092
:1026E00080E090E00E940A17009789F090939E0581
:1026F00080939D051092A00510929F052091A10541
:102700003091A205232BC1F4FC01108215C08091E9
:102710009D0590919E05009711F00E9481161092E0
:102720009E0510929D051092A2051092A10510928F
:10273000A00510929F0508951092A2051092A10580
:1027400066E572E080919D0590919E050C94FD17C1
:1027500080919D0590919E050C9481160E94F01326
:1027600008F481E00895E89409C097FB3EF4909541
:102770008095709561957F4F8F4F9F4F9923A9F05A
:10278000F92F96E9BB279395F695879577956795E9
:10279000B795F111F8CFFAF4BB0F11F460FF1BC02D
:1027A0006F5F7F4F8F4F9F4F16C0882311F096E9C0
:1027B00011C0772321F09EE8872F762F05C066236E
:1027C00071F096E8862F70E060E02AF09A95660F27
:1027D000771F881FDAF7880F9695879597F90895E0
:1027E000990F0008550FAA0BE0E8FEEF1616170622
:1027F000E807F907C0F012161306E407F50798F08A
:10280000621B730B840B950B39F40A2661F0232BA2
:10281000242B252B21F408950A2609F4A140A6951E
:102820008FEF811D811D08950E9427140C94981428
:102830000E948A1438F00E94911420F0952311F020
:102840000C9481140C94871411240C94CC140E94C1
:10285000A91470F3959FC1F3950F50E0551F629F27
:10286000F001729FBB27F00DB11D639FAA27F00DE9
:10287000B11DAA1F649F6627B00DA11D661F829F10
:102880002227B00DA11D621F739FB00DA11D621FF5
:10289000839FA00D611D221F749F3327A00D611D12
:1028A000231F849F600D211D822F762F6A2F1124F4
:1028B0009F5750409AF0F1F088234AF0EE0FFF1F27
:1028C000BB1F661F771F881F91505040A9F79E3F7E
:1028D000510580F00C9481140C94CC145F3FE4F308
:1028E000983ED4F3869577956795B795F795E795D4
:1028F0009F5FC1F7FE2B880F911D9695879597F9DD
:10290000089597F99F6780E870E060E008959FEF71
:1029100080EC089500240A94161617061806090676
:10292000089500240A941216130614060506089545
:10293000092E0394000C11F4882352F0BB0F40F4CD
:10294000BF2B11F460FF04C06F5F7F4F8F4F9F4F0D
:10295000089557FD9058440F551F59F05F3F71F08F
:102960004795880F97FB991F61F09F3F79F08795F6
:102970000895121613061406551FF2CF4695F1DF7F
:1029800008C0161617061806991FF1CF869571050F
:10299000610508940895E894BB2766277727CB0143
:1029A00097F90895052E97FB1EF400940E94E914F0
:1029B00057FD07D00E94FC1407FC03D04EF40C9482
:1029C000E91450954095309521953F4F4F4F5F4FFB
:1029D000089590958095709561957F4F8F4F9F4F8B
:1029E00008950E941E15A59F900DB49F900DA49F61
:1029F000800D911D11240895A1E21A2EAA1BBB1B64
:102A0000FD010DC0AA1FBB1FEE1FFF1FA217B307BA
:102A1000E407F50720F0A21BB30BE40BF50B661FD0
:102A2000771F881F991F1A9469F760957095809594
:102A300090959B01AC01BD01CF010895A29FB0010B
:102A4000B39FC001A39F700D811D1124911DB29FE2
:102A5000700D811D1124911D0895991B79E004C00A
:102A6000991F961708F0961B881F7A95C9F78095CD
:102A70000895EE0FFF1F881F8BBF0790F691E02D82
:102A800019945058BB27AA270E9459150C949814E2
:102A90000E948A1438F00E94911420F039F49F3F6C
:102AA00019F426F40C9487140EF4E095E7FB0C94CB
:102AB0008114E92F0E94A91458F3BA17620773070B
:102AC0008407950720F079F4A6F50C94CB140EF446
:102AD000E0950B2EBA2FA02D0B01B90190010C012E
:102AE000CA01A0011124FF27591B99F0593F50F446
:102AF000503E68F11A16F040A22F232F342F44279E
:102B0000585FF3CF469537952795A795F040539595
:102B1000C9F77EF41F16BA0B620B730B840BBAF065
:102B20009150A1F0FF0FBB1F661F771F881FC2F7D0
:102B30000EC0BA0F621F731F841F48F487957795E4
:102B40006795B795F7959E3F08F0B0CF9395880F9E
:102B500008F09927EE0F9795879508950E94B5156F
:102B60006894B1110C94CC1408950E94B11488F0AB
:102B70009F5798F0B92F9927B751B0F0E1F0660F41
:102B8000771F881F991F1AF0BA95C9F714C0B13082
:102B900091F00E94CB14B1E008950C94CB14672FF0
:102BA000782F8827B85F39F0B93FCCF386957795B1
:102BB0006795B395D9F73EF490958095709561959A
:102BC0007F4F8F4F9F4F08950E94F01308F48FEFAF
:102BD00008950F931F93CF93DF938230910510F4E4
:102BE00082E090E0E0916D07F0916E0720E030E028
:102BF000A0E0B0E0309719F140815181028113814A
:102C000048175907C8F08417950769F4109731F0F1
:102C100012960C93129713961C9327C000936D077E
:102C200010936E0722C02115310519F04217530782
:102C300018F49A01BD01EF01DF01F801DBCF211586
:102C40003105F9F0281B390B2430310580F48A81D5
:102C50009B816115710521F0FB019383828304C080
:102C600090936E0780936D07FE01329644C0FE017B
:102C7000E20FF31F81939193225031093983288306
:102C80003AC020916B0730916C07232B41F42091BF
:102C900003023091040230936C0720936B0720915C
:102CA0000102309102022115310541F42DB73EB7E2
:102CB0004091050250910602241B350BE0916B07F1
:102CC000F0916C07E217F307A0F42E1B3F0B2817B7
:102CD000390778F0AC014E5F5F4F2417350748F095
:102CE0004E0F5F1F50936C0740936B078193919336
:102CF00002C0E0E0F0E0CF01DF91CF911F910F9192
:102D00000895CF93DF93009709F481C0FC013297B7
:102D100013821282A0916D07B0916E07109781F413
:102D200020813181820F931F20916B0730916C07B6
:102D30002817390751F5F0936C07E0936B0767C0CC
:102D4000ED0120E030E0CE17DF0740F44A815B81DF
:102D50009E0141155105F1F0EA01F5CFD383C283FD
:102D600040815181840F951FC817D90759F4888174
:102D70009981840F951F0296918380838A819B811C
:102D8000938382832115310529F4F0936E07E09334
:102D90006D073DC0E901FB83EA8349915991C40F56
:102DA000D51FEC17FD0761F480819181840F951F79
:102DB0000296E90199838883828193819B838A8328
:102DC000E0E0F0E012968D919C911397009719F036
:102DD000FD01DC01F7CF8D919C9111979D012E5F34
:102DE0003F4F820F931F20916B0730916C0728177C
:102DF000390769F4309729F410926E0710926D0725
:102E000002C013821282B0936C07A0936B07DF910C
:102E1000CF9108956F927F928F929F92AF92BF92BF
:102E2000CF92DF92EF92FF920F931F93CF93DF9396
:102E3000009789F4CB01DF91CF911F910F91FF9003
:102E4000EF90DF90CF90BF90AF909F908F907F904A
:102E50006F900C94E915FC01E60FF71F9C012250BE
:102E60003109E217F30708F4A9C0EC01D9010D916B
:102E70001C91119706171707B0F00530110508F4DB
:102E80009BC0C80104978617970708F495C00250A5
:102E90001109061B170B019311936D937C93CF01BE
:102EA0000E94811689C05B01A01AB10A4C01800EF4
:102EB000911EA0916D07B0916E07612C712CE12CD1
:102EC000F12C109709F446C08D919C911197A8158B
:102ED000B905B1F56C0142E0C40ED11CCA14DB0483
:102EE00078F14C018A189B08640142E0C40ED11CA1
:102EF0001296BC9012971396AC91B5E0CB16D10404
:102F000040F0B282A38391828082D9016D937C9339
:102F100009C00E5F1F4F800F911FF90191838083BD
:102F2000EB2DFA2FE114F10431F0D7011396FC9345
:102F3000EE93129741C0F0936E07E0936D073CC08B
:102F40006816790608F43C017D0112960D90BC913B
:102F5000A02DB7CF80916B0790916C0788169906CA
:102F6000E1F466167706C8F480910102909102029E
:102F7000009741F48DB79EB740910502509106022B
:102F8000841B950BE817F907C8F4F0936C07E093DE
:102F90006B07F901718360830FC0CB010E94E915B3
:102FA0007C01009759F0A801BE010E94F417CE01E0
:102FB0000E948116C70104C0CE0102C080E090E0EB
:102FC000DF91CF911F910F91FF90EF90DF90CF9005
:102FD000BF90AF909F908F907F906F90089581E009
:102FE00090E0F8940C940418FB01DC0102C00190FD
:102FF0000D9241505040D8F70895FB01DC0101903B
:103000000D920020E1F7089511E0C4E9D1E000E05D
:1030100006C0802FFE010E9439152196011DC53979
:0C302000D10780E00807A9F7F894FFCF63
:10302C00FF00006F072000363738391B1D1A1C00B3
:10303C00000000D803AB0394077F03A3038F038026
:10304C0003000000008608C8011207D308430721BB
:10305C00073507000000009707C801940793073253
:10306C0031343332343332004444444444004D4F01
:10307C00563A20000D0A00496E76616C6964207323
:10308C006572766F2069642100536572766F2061DA
:10309C006E676C65206973206F7574206F66207283
:1030AC00616E67652100496E76616C6964204952D6
:0630BC0020696421000000
:00000001FF
