:100000000C9495010C94C6010C94C6010C94C60185
:100010000C94C6010C94C6010C94C6010C94C60144
:100020000C94C6010C9457040C9457040C94570478
:100030000C94C6010C945A070C94C6010C94C6018A
:100040000C94C6010C94BD0B0C94C6010C94C60113
:100050000C94C6010C94C6010C94C6010C94AB0D13
:100060000C94C6010C94C9080C949F080C94C6010A
:100070000C94C6010C94C6010C94C6010C94C601E4
:100080000C94C6010C94C6010C94C6010C94C601D4
:100090000C94C6010C94C6010C94C6010C94610426
:1000A0000C94C6010C94C6010C94C6010C94C601B4
:1000B0000C94C6010C94C6010C94C6010C94F30870
:1000C0000C94C6010C94C6010C94C6010C947508DE
:1000D0000C944B080C94C6010C9421080C94F7075F
:1000E0000C94C601120A170A1C0A260A300AA90A29
:1000F0003A0A420A4A0A540A5E0A680A770A810AD8
:10010000A90A8B0A950A9F0ADB0CDE0CCD0CD10CD8
:10011000D70C150DE20CE60CEC0CF00CF40CFA0C00
:10012000FE0C020D150D080D0C0D100D0C94CD0CD0
:100130000C9424060C94E60C0C94DB0C0C944A0AE8
:100140000C9458020C9484020C94D70C0C94260A3C
:100150000C94300A0C94810A0C94100D0C94DF0658
:100160000C94080D0C9457020C9468020C944606EB
:100170000C94A90A0C941C0A0C94770A0C94380667
:100180000C940C0D0C947C020C94420A0C94AD134C
:100190000C94170A0C94120A0C9492060C945602B2
:1001A0000C94150D0C94FE0C0C94D10C0C94FA0CC0
:1001B0000C94C5110C948B0A0C94F00C0C94EC0C60
:1001C0000C94020D0C94680A0C945E0A0C949F0A1D
:1001D0000C94F40C0C94950A0C94DE0C0C94B10263
:1001E0000C9431070C943A0A0C94540A0C94E20CC7
:1001F0000C94EB050C9459020C9415060C943507DD
:100200000C94320700002200250028002B002E004D
:100210003100340002010000050108010B0100005B
:1002200020002300260029002C002F0032000001AE
:100230000000030106010901050505050705080879
:100240000808020202020A0A080804040404010160
:100250000101010101010303030303030303040775
:1002600007070C0C0C0C0C0C0C0C0202020206060C
:100270000606060606060B0B0B0B0B0B0B0B0102FF
:1002800010202008081020401020408002010201A8
:100290000804020101020408102040808040201060
:1002A00008040201800402018040201008040201B9
:1002B0000804020101020408102040800102040821
:1002C0001020408000000A0B02090C0D0E080703E5
:1002D0000401000000000000000000000000000019
:1002E000000000000000000000000000000000000E
:1002F00012111000000000000000000000000000CB
:1003000000000000000000000000020000210024A6
:100310000027002A002D00300033000101000004F6
:100320000107010A0100C511AD1311241FBECFEF53
:10033000D1E2DEBFCDBF00E00CBF12E0A0E0B2E032
:10034000E4E6F2E300E00BBF02C007900D92AA388A
:10035000B107D9F727E0AAE8B2E001C01D92A5369F
:10036000B207E1F711E0C4E9D1E000E006C021974F
:100370000109802FFE010E94E815C339D10780E0F2
:100380000807A9F70E94F50D0C9420190C940000A1
:1003900030919B02313208F04BC08091990281115B
:1003A000FCCF9091760622E02093990221E02093E1
:1003B00098022FEF20935406109253063093520662
:1003C000E6E5F6E0A2E3B6E020E0321721F0419145
:1003D0004D932F5FFACF1092310620913106990F7D
:1003E000922B9093310690919702913061F4109284
:1003F0009702909131069093BB009091BC0093FDC1
:10040000F8CF95EC01C095EE9093BC0090919902C5
:100410009230E1F3909154069F3F79F08091540619
:10042000803241F080915406803331F084E005C081
:1004300081E003C082E001C083E010929A02109232
:100440009B0210925506089585ED8093BC00809123
:10045000BC0084FDFCCF10929902089540910C06D7
:10046000262F30E0240F311D21323105DCF420919C
:1004700099022430C9F4FC0180E090E0861758F41A
:1004800030910C062191DC01A451BA4FA30FB11D8C
:100490002C930196F3CF80910C06680F60930C06A5
:1004A00080E0089581E0089582E008950895089518
:1004B0000895E091920280919102E81730F4F0E003
:1004C000E453FA4F808190E008958FEF9FEF0895F5
:1004D0009091920280919102981750F4E92FF0E0E8
:1004E000E453FA4F208130E09F5F9093920202C064
:1004F0002FEF3FEFC90108958091910290E0209184
:100500009202821B91090895CF92DF92EF92FF929F
:100510000F931F93CF93DF937C01CB018A0120912E
:100520005506222389F0EB016B01C40ED51ECC15B4
:10053000DD0569F06991D701ED91FC910190F081A1
:10054000E02DC7011995F3CF642F0E942E02C80138
:10055000DF91CF911F910F91FF90EF90DF90CF909F
:100560000895CF93DF931F92CDB7DEB769832091B3
:1005700055062223D1F020919B02203240F021E049
:1005800030E0FC013383228380E090E015C080914D
:100590009A02E82FF0E0EA5AF94F998190838F5F31
:1005A00080939A0280939B0205C061E0CE01019680
:1005B0000E942E0281E090E00F90DF91CF9108958C
:1005C000009769F0FC0101900020E9F73197AF0135
:1005D000481B590BBC0182EE93E00C94EB0580E0C4
:1005E00090E00895CF93DF930E94E002EC0189E44C
:1005F00092E00E94E0028C0F9D1FDF91CF91089541
:100600000F931F93CF93DF93162F072FC5E9D5E0E4
:100610009C8521E0209355069093760610929A02CD
:1006200010929B02AA85BB85ED91FC9111970190D8
:10063000F081E02D682FCD0119958A859B85DC011D
:10064000ED91FC910190F081E02D602F19958A8544
:100650009B85DC01ED91FC910190F081E02D612FF3
:100660001995DF91CF911F910F910C94C8018F9232
:100670009F92AF92BF920F931F93CF93DF93CDB70B
:10068000DEB7A1970FB6F894DEBF0FBECDBF19A29B
:10069000423008F44AE08E010F5D1F4F842E912CEA
:1006A000A12CB12CA50194010E94AB15E62FB90134
:1006B000CA0101501109EA3014F4E05D01C0E95C9F
:1006C000D801EC93232B242B252B61F7C8010E9422
:1006D000E002A1960FB6F894DEBF0FBECDBFDF914A
:1006E000CF911F910F91BF90AF909F908F900895E1
:1006F000CF92DF92EF92FF92CF93DF93823018F088
:100700008CE492E00AC09091C005691720F09091A6
:10071000C105961750F48EE592E0DF91CF91FF90DE
:10072000EF90DF90CF900C94F202E82FF0E0EA54C3
:10073000FA4FC089CC3008F072C0262F30E0D0E0EC
:1007400085E08C9FF0018D9FF00D1124EF5AFA4F38
:100750008381283C31059CF528E830E06901C81AFE
:10076000D10887FDD394CC0CDD1CCC0CDD1C0D2CEA
:10077000000CEE08FF08848128E532E0281B3109CF
:1007800087FD3395220F331F220F331FC901330F0B
:10079000AA0BBB0B9C01AD012C193D094E095F0949
:1007A000A62FB0E00E94981524EB30E040E050E026
:1007B0000E947915C20ED31EE41EF51E1EC048E825
:1007C00050E06A01C81AD10887FDD394CC0CDD1C17
:1007D000CC0CDD1C2C153D0584F0448188E592E0AD
:1007E000841B910947FD9395880F991F880F991FC6
:1007F00069018C159D050CF46C018FB7F89495E098
:100800009C9FF0019D9FF00D1124EF5AFA4F96E046
:10081000C91AD108CC0CDD1CD282C1828FBFDF91F6
:10082000CF91FF90EF90DF90CF900895FC0124814D
:1008300031E0309355062093760610929A0210927A
:100840009B028485682B8CE992E00E94B1020C9493
:10085000C8010F931F93CF938C01C62F64600E9431
:1008600016046C2F6B7FC8010E94160483EC90E085
:100870000197F1F7CF911F910F910895FC01A08985
:10088000B1898C91A689B78982FD0FC09C91818D19
:100890008F5F8F73228D821749F0218DDF01A20FA8
:1008A000B11D5D969C93818F08958C9108951F9240
:1008B0000F920FB60F9211240F900FBE0F901F9042
:1008C00018951F920F920FB60F9211240BB60F922C
:1008D0002F933F934F935F936F937F938F939F9348
:1008E000AF93BF93EF93FF938091B900887F8036D9
:1008F00009F49CC068F5883209F45BC090F480313B
:1009000009F454C038F4882309F4F6C0883009F497
:100910004DC0F6C0883109F44CC0803209F45DC086
:10092000EFC0803409F468C048F4803309F455C03E
:10093000883309F0E5C080935406D8C0803509F4A7
:100940004FC0883509F45DC0883409F0D9C0D6C0DD
:10095000883909F4C7C0A8F4883709F467C038F4A7
:10096000883609F463C0803709F460C0C9C088388C
:1009700009F4B8C0803909F45FC0803809F0C0C0FC
:100980005BC0803B09F486C038F4803A09F466C045
:10099000883A09F47FC0B4C0803C09F4A7C0883C01
:1009A00009F4A4C0883B09F48AC0AAC0809131062A
:1009B00010C09091530680915206981770F5E091FF
:1009C000530681E08E0F80935306F0E0EE5CF94F02
:1009D00080818093BB0085EC86C0809354068EC0D6
:1009E000E091530681E08E0F809353068091BB0007
:1009F000F0E0EE5CF94F80839091530680915206AF
:100A00006EC0E091530681E08E0F80935306809173
:100A1000BB00F0E0EE5CF94F808380919802811179
:100A20006DC081E08093970284EA61C083E0809387
:100A3000990210922E06CFCF80912E06803208F0B8
:100A400051C0E0912E0681E08E0F80932E0680919A
:100A5000BB00F0E0E25FF94F8083BDCF85EC80936F
:100A6000BC001092990280912E06803230F4E09101
:100A70002E06F0E0E25FF94F108260912E0670E0E2
:100A8000E0919502F09196028EE096E01995109211
:100A90002E0636C084E08093990210920D061092C3
:100AA0000C06E0919302F0919402199580910C0646
:100AB000811105C081E080930C061092EC05E09155
:100AC0000D0681E08E0F80930D06F0E0E451FA4FA1
:100AD00080818093BB0090910D0680910C06981741
:100AE00008F479CF85E88093BC000AC085EC809338
:100AF000BC001092990204C0109254060E94240275
:100B0000FF91EF91BF91AF919F918F917F916F91E5
:100B10005F914F913F912F910F900BBE0F900FBEA1
:100B20000F901F901895CF93DF93282F30E0F90195
:100B3000EC53FD4F8491F901E258FD4FD491F90136
:100B4000E85CFD4FC491CC2391F081110E94C00C50
:100B5000EC2FF0E0EE0FFF1FE25EFD4FA591B49188
:100B6000EC91ED2381E090E021F480E002C080E090
:100B700090E0DF91CF9108951F93CF93DF93282FBB
:100B800030E0F901EC53FD4F8491F901E258FD4F3B
:100B9000D491F901E85CFD4FC491CC23C1F0162F2C
:100BA00081110E94C00CEC2FF0E0EE0FFF1FEC5FF4
:100BB000FD4FA591B4919FB7F894111104C08C9189
:100BC000D095D82302C0EC91DE2BDC939FBFDF9140
:100BD000CF911F910895CF92DF92EF92FF920F93E2
:100BE0001F93CF93DF936C017A018B01C0E0D0E0BB
:100BF000CE15DF0581F0D8016D918D01D601ED9103
:100C0000FC910190F081E02DC6011995892B11F01E
:100C10002196EECF7E01C701DF91CF911F910F91F9
:100C2000FF90EF90DF90CF900895FC01538D448D9D
:100C3000252F30E0842F90E0821B930B541710F087
:100C4000CF96089501970895FC01918D828D981794
:100C500061F0828DDF01A80FB11D5D968C91928DA0
:100C60009F5F9F73928F90E008958FEF9FEF08959D
:100C7000FC01918D828D981731F0828DE80FF11D66
:100C8000858D90E008958FEF9FEF0895FC01918D81
:100C9000228D892F90E0805C9F4F821B91098F737A
:100CA0009927089588EA92E00E94460621E0892B60
:100CB00009F420E0822F089585E493E00E9446061F
:100CC00021E0892B09F420E0822F089582EE93E041
:100CD0000E94460621E0892B09F420E0822F089526
:100CE000FC01848DDF01A80FB11DA35ABF4F2C91C9
:100CF000848D90E001968F739927848FA689B78998
:100D00002C93A089B1898C91837080648C93938D8E
:100D1000848D981306C00288F389E02D80818F7D31
:100D200080830895EF92FF920F931F93CF93DF93E9
:100D3000EC0181E0888F9B8D8C8D981305C0E8892C
:100D4000F989808185FD26C0F62E0B8D10E00F5F9E
:100D50001F4F0F731127E02E8C8DE8120CC00FB6B9
:100D600007FCFACFE889F989808185FFF5CFCE01AC
:100D70000E947006F1CF8B8DFE01E80FF11DE35A42
:100D8000FF4FF0829FB7F8940B8FEA89FB8980812F
:100D900080620AC09FB7F894EE89FF896083E88972
:100DA000F98980818370806480839FBF81E090E0B7
:100DB000DF91CF911F910F91FF90EF900895CF9306
:100DC000DF93EC01888D8823C9F0EA89FB89808153
:100DD00085FD05C0A889B9898C9186FD0FC00FB625
:100DE00007FCF5CF808185FFF2CFA889B9898C9166
:100DF00085FFEDCFCE010E947006E7CFDF91CF9146
:100E00000895E0E0F0E0199480E090E0892B21F073
:100E10000E946606811119C080E090E0892B41F0A4
:100E200080E090E0892B21F00E940000811110C029
:100E30000E945C0681110FC080E090E0892B81F058
:100E40000E94520681110AC008950E940000E4CF5A
:100E50000E940000EDCF0E940107EECF0C9400002D
:100E60000895089580E090E008950F931F93CF9325
:100E7000DF938C01C62FD62FD07FD1606D2F0E94BB
:100E800016046D2FC8010E94290480E1C89FB0019B
:100E90001124C62FC1606C2FC8010E9416046C2F4C
:100EA000C8010E94290481E090E0DF91CF911F9159
:100EB0000F9108951F920F920FB60F9211240BB647
:100EC0000F922F933F934F935F936F937F938F93E3
:100ED0009F93AF93BF93EF93FF93809154079091AB
:100EE0005507A0915607B0915707892B8A2B8B2B5A
:100EF00049F1909153078091000089278093000069
:100F00008091540790915507A0915607B0915707CB
:100F1000181619061A061B060CF056C080915407C5
:100F200090915507A0915607B09157070197A109D5
:100F3000B1098093540790935507A0935607B09337
:100F4000570742C080910002EAE0F3E0E4919FEF8E
:100F500090930002E230C9F050F4EE2399F0E130B2
:100F600081F590916F009D7F90936F002AC0E430CF
:100F700019F1E0F0E53029F5909173009D7F909391
:100F800073001FC010926E001CC0909170009D7F76
:100F90009093700091E09093B0009091B100987F91
:100FA00094609093B1001092B3000BC090917100C7
:100FB0009D7F9093710005C0909172009D7F9093EA
:100FC000720060E00E94BC05FF91EF91BF91AF916C
:100FD0009F918F917F916F915F914F913F912F9151
:100FE0000F900BBE0F900FBE0F901F9018951F9281
:100FF0000F920FB60F9211240BB60F922F933F93BF
:101000004F935F936F937F938F939F93AF93BF9310
:10101000EF93FF9388EA92E00E947006FF91EF91B0
:10102000BF91AF919F918F917F916F915F914F9100
:101030003F912F910F900BBE0F900FBE0F901F90FE
:1010400018951F920F920FB60F9211240BB60F92A4
:101050002F933F934F935F936F937F938F939F93C0
:10106000AF93BF93EF93FF9388EA92E00E943E0410
:10107000FF91EF91BF91AF919F918F917F916F9170
:101080005F914F913F912F910F900BBE0F900FBE2C
:101090000F901F9018951F920F920FB60F92112468
:1010A0000BB60F922F933F934F935F936F937F9362
:1010B0008F939F93AF93BF93EF93FF9385E493E058
:1010C0000E947006FF91EF91BF91AF919F918F9118
:1010D0007F916F915F914F913F912F910F900BBE38
:1010E0000F900FBE0F901F9018951F920F920FB682
:1010F0000F9211240BB60F922F933F934F935F9350
:101100006F937F938F939F93AF93BF93EF93FF93CF
:1011100085E493E00E943E04FF91EF91BF91AF916F
:101120009F918F917F916F915F914F913F912F91FF
:101130000F900BBE0F900FBE0F901F9018951F922F
:101140000F920FB60F9211240BB60F922F933F936D
:101150004F935F936F937F938F939F93AF93BF93BF
:10116000EF93FF9382EE93E00E947006FF91EF9160
:10117000BF91AF919F918F917F916F915F914F91AF
:101180003F912F910F900BBE0F900FBE0F901F90AD
:1011900018951F920F920FB60F9211240BB60F9253
:1011A0002F933F934F935F936F937F938F939F936F
:1011B000AF93BF93EF93FF9382EE93E00E943E04C0
:1011C000FF91EF91BF91AF919F918F917F916F911F
:1011D0005F914F913F912F910F900BBE0F900FBEDB
:1011E0000F901F9018951F920F920FB60F92112417
:1011F0000BB60F922F933F934F935F936F937F9311
:101200008F939F93AF93BF93EF93FF93809180044D
:101210000E94930520918404309185042F5F3F4FF5
:10122000309385042093840490918304953618F0BC
:1012300096E090937F0490917F049430C9F128F454
:10124000923069F09330D1F05EC0953009F451C00E
:10125000963009F058C091E09093500551C081112B
:1012600052C020918404309185042436310508F45D
:1012700042C010925005109283041CC0813009F0C6
:1012800042C0E091830491E09E0F90938304F0E0CC
:101290002091840430918504EE0FFF1FE158FB4F2D
:1012A00030872783109285041092840494E029C02B
:1012B000811117C0E091830491E09E0F9093830405
:1012C000F0E02091840430918504EE0FFF1FE15877
:1012D000FB4F30872783109285041092840493E09B
:1012E00010C020918404309185042536310558F0D2
:1012F00007C0811108C0109285041092840403C0B5
:1013000095E090937F04909182049923B9F0811124
:101310000AC080918104882321F08091810461E0DA
:1013200009C02F9A0BC080918104882331F08091ED
:10133000810460E00E94BC0501C02F98FF91EF91ED
:10134000BF91AF919F918F917F916F915F914F91DD
:101350003F912F910F900BBE0F900FBE0F901F90DB
:1013600018958F929F92AF92BF92CF92DF92EF9299
:10137000FF920F931F93CF93DF938C016A017B0140
:1013800020E030E04FE753E4C701B6010E94BB14F0
:101390004B015C0120E030E0A9010E9405171816FE
:1013A0001CF4C501B40103C0C501B40190580E94EA
:1013B000CF16EB0120E030E0A901C701B6010E9481
:1013C0000517181614F460E001C061E0F80181818E
:1013D0000E94BC05CF3FD10509F014F4DD2702C0FF
:1013E000CFEFD0E0F801108161E0812F0E94160D4F
:1013F000209709F4B1C0CF3FD10509F4AFC0E12F68
:10140000F0E0EC53FD4FE4918E2F90E0FC0131971A
:10141000E231F10508F09DC08827EE58FF4F8F4F4D
:101420000C94E81584B5806884BDC7BDA7C084B599
:10143000806284BDC8BDA2C0809180008068809316
:101440008000D0938900C093880098C0809180006C
:10145000806280938000D0938B00C0938A008EC0FE
:1014600080918000886080938000D0938D00C0932D
:101470008C0084C08091B00080688093B000C093DD
:10148000B3007CC08091B00080628093B000C093B4
:10149000B40074C080919000806880939000D093D5
:1014A0009900C09398006AC08091900080628093F8
:1014B0009000D0939B00C0939A0060C080919000F0
:1014C000886080939000D0939D00C0939C0056C08C
:1014D0008091A00080688093A0008091A0008F7B05
:1014E0008093A000D093A900C093A80047C080912A
:1014F000A00080628093A000D093AB00C093AA00AC
:101500003DC08091A00088608093A000D093AD0082
:10151000C093AC0033C0809120018068809320018B
:10152000D0932901C093280129C0809120018062B5
:1015300080932001D0932B01C0932A011FC080917A
:101540002001886080932001D0932D01C0932C014D
:1015500015C0C038D10514F460E001C061E0812FEE
:10156000DF91CF911F910F91FF90EF90DF90CF907F
:10157000BF90AF909F908F900C94BC05DF91CF915E
:101580001F910F91FF90EF90DF90CF90BF90AF90A1
:101590009F908F9008958EBD00000DB407FEFDCF83
:1015A0008EB50895CF93DF93EC0160E088810E94AF
:1015B000BC0588E90E94CB0A80E00E94CB0A80E04B
:1015C0000E94CB0A80E00E94CB0A80E00E94CB0AF6
:1015D00061E088810E94BC058BE891E00197F1F7FA
:1015E00060E088810E94BC0580EE0E94CB0A61E029
:1015F0008881DF91CF910C94BC05AF92BF92CF92BE
:10160000DF92EF92FF920F931F93CF93DF93CDB7AB
:10161000DEB760970FB6F894DEBF0FBECDBF5C019A
:1016200060E0FC0180810E94BC0580E60E94CB0A3C
:101630008E010F5F1F4F7E01F1E1EF0EF11C68017B
:1016400080E00E94CB0A90E0A0E0B0E0F601819338
:101650009193A193B1936F01EE15FF0589F761E0B6
:10166000F50180810E94BC0580E090E0DC01F8017A
:1016700041915191619171918F01BA2FA92F982FAA
:101680008827840F951FA61FB71FEE15FF0579F752
:101690009C01AD0166277727CB01621B730B840B7E
:1016A000950B60960FB6F894DEBF0FBECDBFDF91ED
:1016B000CF911F910F91FF90EF90DF90CF90BF904F
:1016C000AF9008951F93CF93DF93EC01162F88817D
:1016D0008C3008F04DC061E0812F0E94160DE8812A
:1016E00095E09E9FF0011124EF5AFA4F1F738081FD
:1016F000807C182B10831382E8819E9FF0011124B7
:10170000EF5AFA4F148288816CE00E94DC159CE04D
:10171000899FA001112420E030E095E0BA01620F1A
:10172000731F969FF001979FF00D1124EF5AFA4F07
:10173000608166FD13C02F5F3F4F2C30310571F77C
:1017400081110CC01092800082E080938100109281
:1017500085001092840086BB80936F00E88185E04D
:10176000E89FF0011124EF5AFA4F80818064808352
:101770008881DF91CF911F9108951F920F920FB62C
:101780000F9211240BB60F922F933F934F935F93B9
:101790006F937F938F939F93AF93BF93EF93FF9339
:1017A0008091520787FF05C0109285001092840037
:1017B00016C020915207022E000C330B80918D052C
:1017C00090E0281739075CF43091520725E0320386
:1017D000F0011124EF5AFA4F808186FD15C08091E7
:1017E00052078F5F8093520720915207022E000C00
:1017F000330B80918D0590E02817390794F4809180
:1018000052078C302CF10DC0309152073203F00199
:101810001124EF5AFA4F808160E08F730E94BC055B
:10182000DECF809184009091850084349C4918F427
:1018300080E49CE905C08091840090918500049625
:1018400090938900809388008FEF809352072AC07D
:1018500040918400509185003091520725E0320379
:10186000F0011124EF5AFA4F81819281840F951F64
:101870009093890080938800309152073203F001E1
:101880001124EF5AFA4F808186FF0CC03091520725
:101890003203F0011124EF5AFA4F808161E08F7317
:1018A0000E94BC05FF91EF91BF91AF919F918F91E5
:1018B0007F916F915F914F913F912F910F900BBE50
:1018C0000F900FBE0F901F9018951F93CF93DF932B
:1018D000EC01182F853038F08BE792E00E94F2027D
:1018E00080E090E007C0FC01FF27EA54FA4F8081B6
:1018F0000E94520DBC0180E090E04AE00E94370354
:1019000089E492E00E94E002153028F08BE792E033
:101910000E94F2020AC0DD27CA54DA4F88810E9471
:10192000520D21E08C32914008F420E0822FDF91AB
:10193000CF911F9108953FB7F89480915D079091E2
:101940005E07A0915F07B091600726B5A89B05C010
:101950002F3F19F00196A11DB11D3FBFBA2FA92F2E
:10196000982F8827820F911DA11DB11DBC01CD01AB
:1019700042E0660F771F881F991F4A95D1F7089597
:1019800090E0FC013197E231F10508F04EC0882764
:10199000EC57FF4F8F4F0C94E815809180008F77A4
:1019A00003C0809180008F7D809380000895809196
:1019B0008000877FF9CF84B58F7702C084B58F7D93
:1019C00084BD08958091B0008F7703C08091B000EE
:1019D0008F7D8093B0000895809190008F7707C02D
:1019E000809190008F7D03C080919000877F8093CD
:1019F000900008958091A0008F7707C08091A0008B
:101A00008F7D03C08091A000877F8093A000089500
:101A1000809120018F7707C0809120018F7D03C0C6
:101A200080912001877F809320010895CF93DF93D9
:101A300090E0FC01E258FD4F2491FC01E85CFD4F71
:101A40008491882361F190E0880F991FFC01E55F84
:101A5000FC4FC591D491FC01EC5FFD4FA591B49171
:101A6000611109C09FB7F8948881209582238883EB
:101A7000EC912E230BC0623061F49FB7F8948881FB
:101A8000322F309583238883EC912E2B2C939FBF8C
:101A900006C08FB7F894E8812E2B28838FBFDF9183
:101AA000CF910895863308F0865390917B00282FBC
:101AB0002870977F922B90937B008770806480932F
:101AC0007C0080917A00806480937A0080917A0013
:101AD00086FDFCCF809178002091790090E0922BD8
:101AE00008958F929F92AF92BF92CF92DF92EF9222
:101AF000FF926B017C010E949B0C4B015C01C114A5
:101B0000D104E104F104F1F00E949B0CDC01CB0153
:101B100088199909AA09BB09883E9340A105B10516
:101B200070F321E0C21AD108E108F10888EE880EAE
:101B300083E0981EA11CB11CC114D104E104F1047E
:101B400019F7DDCFFF90EF90DF90CF90BF90AF906F
:101B50009F908F9008951F920F920FB60F921124AD
:101B60002F933F938F939F93AF93BF938091580789
:101B700090915907A0915A07B0915B0730915C078B
:101B800023E0230F2D3720F40196A11DB11D05C0C0
:101B900026E8230F0296A11DB11D20935C078093B8
:101BA000580790935907A0935A07B0935B07809109
:101BB0005D0790915E07A0915F07B0916007019665
:101BC000A11DB11D80935D0790935E07A0935F07F1
:101BD000B0936007BF91AF919F918F913F912F91EB
:101BE0000F900FBE0F901F901895CF93DF93CDB736
:101BF000DEB762970FB6F894DEBF0FBECDBF789404
:101C000084B5826084BD84B5816084BD85B5826001
:101C100085BD85B5816085BD80916E0081608093B2
:101C20006E0010928100809181008260809381001B
:101C3000809181008160809381008091800081602B
:101C4000809380008091B10084608093B100809186
:101C5000B00081608093B000809191008260809399
:101C6000910080919100816080939100809190001B
:101C70008160809390008091A10082608093A10098
:101C80008091A10081608093A1008091A00081607B
:101C90008093A00080912101826080932101809136
:101CA00021018160809321018091200181608093D6
:101CB000200180917A00846080937A0080917A007C
:101CC000826080937A0080917A00816080937A00AC
:101CD00080917A00806880937A001092C100E09130
:101CE000F203F091F30382E08083E091EE03F09140
:101CF000EF031082E091F003F091F1038FEC808309
:101D00001092FA03E091F603F091F70386E08083E6
:101D1000E091F403F091F503808180618083E0918C
:101D2000F403F091F503808188608083E091F403EF
:101D3000F091F503808180688083E091F403F09155
:101D4000F50380818F7D808361E0809196050E94FC
:101D5000160D60E0809196050E94BC0560E08091C0
:101D600095050E94160D8CE992E09093A005809352
:101D70009F05109292021092910210929A02109274
:101D80009B021092990281E0809398021092970230
:101D900061E084E10E94BC0561E085E10E94BC0530
:101DA0008091B9008E7F8093B9008091B9008D7FBA
:101DB0008093B90088E48093B80085E48093BC00E8
:101DC00086E592E0909394028093930287E592E0F7
:101DD000909396028093950280E090E1A0E0B0E0BD
:101DE0008093A2059093A305A093A405B093A505A5
:101DF0008AE090E0A0E0B0E08093A6059093A7056C
:101E0000A093A805B093A90580E090E0A0E0B0E41D
:101E10008093AA059093AB05A093AC05B093AD0554
:101E200060E070E185E00E9400036FE979E380E003
:101E30000E94000325E935E03A832983890122E0E5
:101E4000722E3DE6A32E32E0B32E43EB842E42E009
:101E5000942E5BECE52E57E0F52ED80114969C915C
:101E6000149712968C91E981FA81818F928F61E0AB
:101E70000E94160D61E0A981BA815A968C910E9448
:101E8000160DF80190858681C980DA80FDE1CF0EBC
:101E9000D11CA981BA815D968C935D975E969C93C7
:101EA00061E00E94160D60E0E981FA81868D0E9452
:101EB000160D61E0A981BA815D968C910E94BC05E6
:101EC0006FB6F89480918A02811126C0F501849141
:101ED000F4012491E82FF0E0EE0FFF1FE55FFC4FC7
:101EE000A591B4919C91822F892321F461E085E32F
:101EF0000E94BC0561E085E30E94160D8CB58061EF
:101F00008CBD8CB580648CBD61E084E30E94160DAD
:101F100061E083E30E94160D80918A028F5F8093B7
:101F20008A026FBEC7010197F1F760E0A981BA810B
:101F30005D968C910E94BC0588E80E94CB0A83E0E4
:101F40000E94CB0A61E0E981FA81858D0E94BC057F
:101F5000C7010197F1F7C6010E94D20A7A940F5F78
:101F60001F4F29813A812E5F3F4F3A832983711099
:101F700074CF0AEB15E04EEB55E05A83498360E0DD
:101F8000D8018D918D010E94160DE981FA81E0172B
:101F9000F107A9F706EB15E0E980FA80FFEFEF1AE9
:101FA000FF0AA981BA816C9170E0CD0108960E9468
:101FB000620BF70195818381D80152968C935297D9
:101FC00053969C9360E00E94160D61E0F8018389AE
:101FD0000E94160D60E0D80153968C910E94BC05BA
:101FE0000E5F1F4FFA82E982F701E05CF540A1F62F
:101FF000F8941092200189E08093210180E293E01F
:1020000090932901809328011092250110922401B8
:1020100082E080937300789480937F04109283040D
:102020008091800460E00E94160D6091BF0570E011
:1020300087EC95E00E94620B6091BE0570E086EC33
:1020400095E00E94620B80918F0290919002892B03
:1020500069F48091BA050E949305892B39F462E3F3
:1020600070E080E090E00E94710DEDCF21E030E063
:102070003093900220938F020E94FE1323E030E001
:1020800040E050E00E9479156F5F7F4F8F4F9F4F68
:102090000E945C1420E030E040E251E40E945D16B2
:1020A00060938B0270938C0280938D0290938E02CA
:1020B00083E492E00E94E0024AE061E070E080E0A8
:1020C00090E00E94370389E492E00E94E002809051
:1020D0008B0290908C02A0908D02B0908E0282EBC9
:1020E00095E00E94D20A84EB95E00E94D20AB501E5
:1020F000A4018EEA95E00E94B109D501C401B0584F
:1021000089879A87AB87BC87AC01BD0180EB95E0DE
:102110000E94B1098FB7F894209158073091590760
:1021200040915A0750915B072D833E834F83588718
:102130008FBF8FB7F8944090580750905907609020
:102140005A0770905B078FBF7501640100E010E0D3
:10215000212C312CC10137FE04C088279927821910
:102160009309873394430CF00DC184E690E0A0E01E
:10217000B0E084199509A609B7092D813E814F81E8
:102180005885280F391F4A1F5B1FCA01B9010E94D9
:10219000710D8FB7F89420915807309159074091ED
:1021A0005A0750915B072D833E834F8358878FBF1B
:1021B00082EB95E00E94FD0A9B01AC0188279927DC
:1021C000DC01821B930BA40BB50B280E391E82EB8E
:1021D00095E00E94FD0A69837A838B839C8382EB5E
:1021E00095E00E94D20A84EB95E00E94FD0A2B0143
:1021F0003C0184EB95E00E94D20A89819A81AB81EF
:10220000BC81B095A095909581959F4FAF4FBF4FE2
:102210009C01AD012419350946095709AAE0B0E02F
:102220000E949815060F171F0E945C1427E137EBD8
:1022300041ED58E30E94BB14A70196010E94F115DD
:102240006B017C01B801012E000C880B990B0E94D8
:102250005C1420EB3FE041E255E30E94BB14A70170
:1022600096010E94F1156B017C0120E030E040E80E
:102270005FE30E94551487FD06C0C12CD12C80E875
:10228000E82E8FE3F82ED701C601B0588D879E87C0
:10229000AF87B88BAC01BD0180EB95E00E94B1091E
:1022A0008FB7F894409058075090590760905A079C
:1022B00070905B078FBF91E0998B20E030E0A9011F
:1022C000C501B4010E94051718160CF0198AA1E087
:1022D000B989AB27A983EB2FF0E0FA8BE98BCF010B
:1022E0000E94650C882309F435CF40E050E0BA0124
:1022F0008EEA95E00E94B10940E050E060E070E8AD
:1023000080EB95E00E94B10968E289810E94780320
:1023100060ED77E080E090E00E94710D64E68981D5
:102320000E94780368EE73E080E090E00E94710DF7
:1023300089899A890E94650C81110FC0B501A40199
:102340008EEA95E00E94B1094D855E856F8578899A
:1023500080EB95E00E94B109FDCE49855A856B85D9
:102360007C858EEA95E00E94B109B501A40180EB5D
:1023700095E00E94B10960ED77E080E090E00E9476
:10238000710DE8CE0E9404075ECE10929F0210925B
:102390009E0288EE93E0A0E0B0E08093A0029093CC
:1023A000A102A093A202B093A30227E132E03093EE
:1023B0009D0220939C021092AB021092AA0280937D
:1023C000AC029093AD02A093AE02B093AF0229E2AB
:1023D00032E03093A9022093A80245E351E05093E4
:1023E000B5024093B40244E351E05093B7024093E6
:1023F000B60240E351E05093B9024093B80241E382
:1024000051E05093BB024093BA0242E351E0509333
:10241000BD024093BC0246E351E05093BF0240939B
:10242000BE021092C1021092C2021092C302109218
:10243000C40210924803109247038093490390937B
:102440004A03A0934B03B0934C033093460320936D
:10245000450345ED50E0509352034093510344ED42
:1024600050E0509354034093530340ED50E0509399
:1024700056034093550341ED50E050935803409369
:10248000570342ED50E050935A034093590346EDF1
:1024900050E050935C0340935B0310925E031092F4
:1024A0005F0310926003109261031092E503109293
:1024B000E4038093E6039093E703A093E803B093CB
:1024C000E9033093E3032093E20385EC90E09093DB
:1024D000EF038093EE0384EC90E09093F1038093FC
:1024E000F00380EC90E09093F3038093F20381EC8F
:1024F00090E09093F5038093F40382EC90E0909346
:10250000F7038093F60386EC90E09093F9038093B1
:10251000F8031092FB031092FC031092FD0310923B
:10252000FE0380910B0290910C02A0910D02B091DC
:102530000E028093B6059093B705A093B805B093AB
:10254000B90580910F0290911002A0911102B091F3
:1025500012028093BA059093BB05A093BC05B0937B
:10256000BD0584E08093BE0587E08093BF0510928F
:10257000C00584EB8093C10586E18093C20588E1A4
:102580008093C30587E18093C40589E18093C505E5
:10259000E0918D05EC3020F08FEF8093C60510C0E0
:1025A00081E08E0F80938D05E093C60585E0E89F5E
:1025B000F0011124EF5AFA4F88EB9BE0928381835C
:1025C000E0918D05EC3020F08FEF8093C70510C0AF
:1025D00081E08E0F80938D05E093C70585E0E89F2D
:1025E000F0011124EF5AFA4F88EB9BE0928381832C
:1025F0008CE08093950584E28093960586E0809335
:10260000970585E0809398058FE1809399058EE189
:1026100080939A0583E280939B0582E280939C05D8
:1026200085E480939D0584E480939E0580E48093F7
:10263000A1051092A6051092A7051092A805109268
:10264000A9051092AA051092AB051092AC05109244
:10265000AD05EBE7F6E029E337E08FEF9FEFDC0114
:1026600012821382148215821682178210861186B6
:1026700083879487A587B6878787908BA18BB28B3A
:1026800012861182108273962E173F0749F78DE04C
:1026900090E00E940A17FC01138212828BE392E001
:1026A00091838083118687E2848384E1828784E03A
:1026B00083871486F0937806E09377061092790664
:1026C00010927A0685E28093800410928204109220
:1026D0008F0510928E051092910510929005109220
:1026E00093051092920561E070E080E090E00E9416
:1026F0002B18009789F090938F0580938E05109288
:102700009105109290052091920530919305232B0D
:10271000C1F4FC01108215C080918E0590918F0547
:10272000009711F00E94A21710928F0510928E054B
:1027300010929305109292051092910510929005B7
:10274000089510929305109292056BE472E08091C7
:102750008E0590918F050C94191980918E0590919A
:102760008F050C94A2178F929F92AF92BF92CF9237
:10277000DF92EF92FF92CF93DF93EC016881798132
:102780008A819B81611571058105910521F464E2BF
:1027900079ED8BE597E02DE133EF41E050E00E94C9
:1027A000791549015A019B01AC01A7EAB1E40E94E5
:1027B00098156B017C01ACEEB4EFA50194010E9469
:1027C000A615DC01CB018C0D9D1DAE1DBF1DB7FFF5
:1027D00003C00197A109B04888839983AA83BB836A
:1027E000BC01CD019F77DF91CF91FF90EF90DF90FB
:1027F000CF90BF90AF909F908F9008958F929F92AF
:10280000AF92BF92CF92DF92EF92FF92609101025E
:10281000709102028091030290910402611571058A
:102820008105910521F464E279ED8BE597E02DE1D6
:1028300033EF41E050E00E94791549015A019B01B4
:10284000AC01A7EAB1E40E9498156B017C01ACEEE3
:10285000B4EFA50194010E94A615DC01CB018C0DFB
:102860009D1DAE1DBF1DB7FF03C00197A109B04854
:102870008093010290930202A0930302B09304029A
:10288000BC01CD019F77FF90EF90DF90CF90BF907C
:10289000AF909F908F900895609301027093020211
:1028A000809303029093040208950E94971408F401
:1028B00081E00895E89409C097FB3EF490958095D7
:1028C000709561957F4F8F4F9F4F9923A9F0F92FF6
:1028D00096E9BB279395F695879577956795B79574
:1028E000F111F8CFFAF4BB0F11F460FF1BC06F5F5A
:1028F0007F4F8F4F9F4F16C0882311F096E911C06C
:10290000772321F09EE8872F762F05C0662371F08C
:1029100096E8862F70E060E02AF09A95660F771FA0
:10292000881FDAF7880F9695879597F90895990F7C
:102930000008550FAA0BE0E8FEEF16161706E80789
:10294000F907C0F012161306E407F50798F0621BAA
:10295000730B840B950B39F40A2661F0232B242B7F
:10296000252B21F408950A2609F4A140A6958FEF9E
:10297000811D811D08950E94CE140C943F150E9464
:10298000311538F00E94381520F0952311F00C9481
:1029900028150C942E1511240C9473150E945015B3
:1029A00070F3959FC1F3950F50E0551F629FF001A2
:1029B000729FBB27F00DB11D639FAA27F00DB11DBB
:1029C000AA1F649F6627B00DA11D661F829F222744
:1029D000B00DA11D621F739FB00DA11D621F839FCB
:1029E000A00D611D221F749F3327A00D611D231FA1
:1029F000849F600D211D822F762F6A2F11249F57EF
:102A000050409AF0F1F088234AF0EE0FFF1FBB1FF1
:102A1000661F771F881F91505040A9F79E3F5105B0
:102A200080F00C9428150C9473155F3FE4F3983EE6
:102A3000D4F3869577956795B795F795E7959F5F5A
:102A4000C1F7FE2B880F911D9695879597F90895EC
:102A500097F99F6780E870E060E008959FEF80EC51
:102A6000089500240A9416161706180609060895F4
:102A700000240A9412161306140605060895092E5A
:102A80000394000C11F4882352F0BB0F40F4BF2BC9
:102A900011F460FF04C06F5F7F4F8F4F9F4F089509
:102AA00057FD9058440F551F59F05F3F71F04795FF
:102AB000880F97FB991F61F09F3F79F087950895E4
:102AC000121613061406551FF2CF4695F1DF08C003
:102AD000161617061806991FF1CF86957105610520
:102AE00008940895E894BB2766277727CB0197F9C8
:102AF0000895052E97FB1EF400940E94901557FD33
:102B000007D00E94AB1507FC03D04EF40C9490152F
:102B100050954095309521953F4F4F4F5F4F089509
:102B200090958095709561957F4F8F4F9F4F089539
:102B30000E94CD15A59F900DB49F900DA49F800D70
:102B4000911D11240895B7FF0C9498150E949815B3
:102B5000821B930B0895A1E21A2EAA1BBB1BFD0139
:102B60000DC0AA1FBB1FEE1FFF1FA217B307E4076C
:102B7000F50720F0A21BB30BE40BF50B661F771FC4
:102B8000881F991F1A9469F76095709580959095A4
:102B90009B01AC01BD01CF010895A29FB001B39F7D
:102BA000C001A39F700D811D1124911DB29F700D56
:102BB000811D1124911D0895991B79E004C0991F6E
:102BC000961708F0961B881F7A95C9F78095089587
:102BD000EE0FFF1F881F8BBF0790F691E02D199411
:102BE0005058BB27AA270E9408160C943F150E9434
:102BF000311538F00E94381520F039F49F3F19F450
:102C000026F40C942E150EF4E095E7FB0C94281591
:102C1000E92F0E94501558F3BA176207730784070B
:102C2000950720F079F4A6F50C9472150EF4E09552
:102C30000B2EBA2FA02D0B01B90190010C01CA0176
:102C4000A0011124FF27591B99F0593F50F4503E21
:102C500068F11A16F040A22F232F342F4427585F13
:102C6000F3CF469537952795A795F0405395C9F72B
:102C70007EF41F16BA0B620B730B840BBAF09150E3
:102C8000A1F0FF0FBB1F661F771F881FC2F70EC082
:102C9000BA0F621F731F841F48F487957795679555
:102CA000B795F7959E3F08F0B0CF9395880F08F041
:102CB0009927EE0F9795879508950E9471160C94A9
:102CC0003F150E94381558F00E94311540F029F444
:102CD0005F3F29F00C94281551110C9473150C9436
:102CE0002E150E94501568F39923B1F3552391F3E3
:102CF000951B550BBB27AA2762177307840738F06B
:102D00009F5F5F4F220F331F441FAA1FA9F335D0C7
:102D10000E2E3AF0E0E832D091505040E695001C7B
:102D2000CAF72BD0FE2F29D0660F771F881FBB1F35
:102D3000261737074807AB07B0E809F0BB0B802D13
:102D4000BF01FF2793585F4F3AF09E3F510578F03F
:102D50000C9428150C9473155F3FE4F3983ED4F35C
:102D6000869577956795B795F7959F5FC9F7880F13
:102D7000911D9695879597F90895E1E0660F771F65
:102D8000881FBB1F621773078407BA0720F0621BF6
:102D9000730B840BBA0BEE1F88F7E09508950E9421
:102DA000D6166894B1110C94731508950E945815A5
:102DB00088F09F5798F0B92F9927B751B0F0E1F0FC
:102DC000660F771F881F991F1AF0BA95C9F714C0AC
:102DD000B13091F00E947215B1E008950C94721513
:102DE000672F782F8827B85F39F0B93FCCF38695E5
:102DF00077956795B395D9F73EF490958095709542
:102E000061957F4F8F4F9F4F08950E94971408F44C
:102E10008FEF08950F931F93CF93DF938230910527
:102E200010F482E090E0E0916307F091640720E005
:102E300030E0A0E0B0E0309719F14081518102818B
:102E4000138148175907C8F08417950769F410973C
:102E500031F012960C93129713961C9327C000938F
:102E600063071093640722C02115310519F042173A
:102E7000530718F49A01BD01EF01DF01F801DBCF20
:102E800021153105F9F0281B390B2430310580F468
:102E90008A819B816115710521F0FB0193838283F7
:102EA00004C09093640780936307FE01329644C088
:102EB000FE01E20FF31F8193919322503109398370
:102EC00028833AC02091610730916207232B41F497
:102ED0002091070230910802309362072093610726
:102EE00020910502309106022115310541F42DB7DC
:102EF0003EB74091090250910A02241B350BE09124
:102F00006107F0916207E217F307A0F42E1B3F0B55
:102F10002817390778F0AC014E5F5F4F241735074B
:102F200048F04E0F5F1F50936207409361078193F3
:102F3000919302C0E0E0F0E0CF01DF91CF911F91CB
:102F40000F910895CF93DF93009709F481C0FC019E
:102F5000329713821282A0916307B0916407109791
:102F600081F420813181820F931F2091610730917C
:102F700062072817390751F5F0936207E09361075C
:102F800067C0ED0120E030E0CE17DF0740F44A8152
:102F90005B819E0141155105F1F0EA01F5CFD38324
:102FA000C28340815181840F951FC817D90759F4F6
:102FB00088819981840F951F0296918380838A81ED
:102FC0009B81938382832115310529F4F093640753
:102FD000E09363073DC0E901FB83EA83499159917E
:102FE000C40FD51FEC17FD0761F480819181840F18
:102FF000951F0296E90199838883828193819B833F
:103000008A83E0E0F0E012968D919C9113970097EF
:1030100019F0FD01DC01F7CF8D919C9111979D0175
:103020002E5F3F4F820F931F2091610730916207FF
:103030002817390769F4309729F410926407109221
:10304000630702C013821282B0936207A0936107E4
:10305000DF91CF9108956F927F928F929F92AF925E
:10306000BF92CF92DF92EF92FF920F931F93CF9375
:10307000DF93009789F4CB01DF91CF911F910F91DE
:10308000FF90EF90DF90CF90BF90AF909F908F9088
:103090007F906F900C940A17FC01E60FF71F9C01BC
:1030A00022503109E217F30708F4A9C0EC01D90155
:1030B0000D911C91119706171707B0F005301105F7
:1030C00008F49BC0C80104978617970708F495C0B9
:1030D00002501109061B170B019311936D937C93FA
:1030E000CF010E94A21789C05B01A01AB10A4C014E
:1030F000800E911EA0916307B0916407612C712C22
:10310000E12CF12C109709F446C08D919C911197F8
:10311000A815B905B1F56C0142E0C40ED11CCA1462
:10312000DB0478F14C018A189B08640142E0C40E6C
:10313000D11C1296BC9012971396AC91B5E0CB16A9
:10314000D10440F0B282A38391828082D9016D9331
:103150007C9309C00E5F1F4F800F911FF90191836F
:103160008083EB2DFA2FE114F10431F0D70113968F
:10317000FC93EE93129741C0F0936407E0936307CA
:103180003CC06816790608F43C017D0112960D904A
:10319000BC91A02DB7CF80916107909162078816EE
:1031A0009906E1F466167706C8F4809105029091BD
:1031B0000602009741F48DB79EB7409109025091E5
:1031C0000A02841B950BE817F907C8F4F09362070D
:1031D000E0936107F901718360830FC0CB010E9406
:1031E0000A177C01009759F0A801BE010E9410192E
:1031F000CE010E94A217C70104C0CE0102C080E028
:1032000090E0DF91CF911F910F91FF90EF90DF90B1
:10321000CF90BF90AF909F908F907F906F900895C8
:10322000FB01DC0102C001900D9241505040D8F7E3
:103230000895FB01DC0101900D920020E1F7089553
:1032400011E0C4E9D1E000E006C0802FFE010E9439
:10325000E8152196011DC539D10780E00807A9F7B7
:04326000F894FFCF10
:10326400FF01000000000065072000363738391BD5
:103274001D1A1C00000000B1028402320758027CAF
:103284000268025902000000009206EB051506DFF1
:1032940006460624063806000000003507EB053212
:1032A4000731074D4F563A20000D0A00496E7661EA
:1032B4006C696420736572766F20696421005365BC
:1032C40072766F20616E676C65206973206F757408
:1032D400206F662072616E67652100496E76616CAD
:0A32E400696420495220696421004A
:00000001FF
