:100000000C9495010C94C6010C94C6010C94C60185
:100010000C94C6010C94C6010C94C6010C94C60144
:100020000C94C6010C94BF040C94BF040C94BF0440
:100030000C94C6010C94BA070C94C6010C94C6012A
:100040000C94C6010C94310F0C94C6010C94C6019B
:100050000C94C6010C94C6010C94C6010C94E511D5
:100060000C94C6010C9429090C94FF080C94C60149
:100070000C94C6010C94C6010C94C6010C94C601E4
:100080000C94C6010C94C6010C94C6010C94C601D4
:100090000C94C6010C94C6010C94C6010C94C904BE
:1000A0000C94C6010C94C6010C94C6010C94C601B4
:1000B0000C94C6010C94C6010C94C6010C94670CF8
:1000C0000C94C6010C94C6010C94C6010C94D5087E
:1000D0000C94AB080C94C6010C9481080C9457083E
:1000E0000C94C601860D8B0D900D9A0DA40D1D0E5E
:1000F000AE0DB60DBE0DC80DD20DDC0DEB0DF50D20
:100100001D0EFF0D090E130E09110C11FB10FF102F
:1001100005114311101114111A111E112211281169
:100120002C113011431136113A113E110C941A1151
:100130000C94FB100C94FA060C94860D0C94BE0DD6
:100140000C9405170C9409070C94FC010C94200CDA
:100150000C9409110C9455020C9498070C941E11E0
:100160000C94FF100C94EB0D0C943A110C948B0D25
:100170000C94D0060C942C110C9443110C941C0C70
:100180000C941D070C9410110C94900D0C943611C6
:100190000C944B070C94F50D0C94AE0D0C941B0CA9
:1001A0000C94DF0B0C94B60D0C94A40D0C943E1122
:1001B0000C94FD010C94FB010C94DC0D0C942811A3
:1001C0000C9420020C949A0D0C9405110C942802A6
:1001D0000C940E150C941D0E0C9414110C94130E0B
:1001E0000C94FF0D0C94090E0C9422110C940C111C
:1001F0000C9430110C94FA010C94C80D0C94D20D8F
:100200000C940C0200002200250028002B002E0078
:100210003100340002010000050108010B0100005B
:1002200020002300260029002C002F0032000001AE
:100230000000030106010901050505050705080879
:100240000808020202020A0A080804040404010160
:100250000101010101010303030303030303040775
:1002600007070C0C0C0C0C0C0C0C0202020206060C
:100270000606060606060B0B0B0B0B0B0B0B0102FF
:1002800010202008081020401020408002010201A8
:100290000804020101020408102040808040201060
:1002A00008040201800402018040201008040201B9
:1002B0000804020101020408102040800102040821
:1002C0001020408000000A0B02090C0D0E080703E5
:1002D0000401000000000000000000000000000019
:1002E000000000000000000000000000000000000E
:1002F00012111000000000000000000000000000CB
:1003000000000000000000000000020000210024A6
:100310000027002A002D00300033000101000004F6
:100320000107010A01000E15051711241FBECFEFAA
:10033000D1E2DEBFCDBF00E00CBF12E0A0E0B2E032
:10034000E6E4F9E300E00BBF02C007900D92A83C81
:10035000B107D9F727E0A8ECB2E001C01D92A83A96
:10036000B207E1F711E0C4E9D1E000E006C021974F
:100370000109802FFE010E945419C339D10780E082
:100380000807A9F70E942F120C94911C0C940000EE
:1003900085ED8093BC008091BC0084FDFCCF109261
:1003A0005703089540910A03262F30E0240F311D92
:1003B00021323105DCF4209157032430C9F4FC01CB
:1003C00080E090E0861758F430910A032191DC0117
:1003D000A851BD4FA30FB11D2C930196F3CF80916F
:1003E0000A03680F60930A0380E0089581E008958E
:1003F00082E00895089508950895E0915903809149
:100400005803E81730F4F0E0E65AFC4F808190E0A2
:1004100008958FEF9FEF08959091590380915803AD
:10042000981750F4E92FF0E0E65AFC4F208130E0B5
:100430009F5F9093590302C02FEF3FEFC9010895CA
:100440008091580390E020915903821B91090895EF
:10045000CF92DF92EF92FF920F931F93CF93DF9390
:100460007C01CB018A0120917D03222389F0EB01DD
:100470006B01C40ED51ECC15DD0569F06991D7015D
:10048000ED91FC910190F081E02DC7011995F3CF1A
:10049000642F0E94D201C801DF91CF911F910F916B
:1004A000FF90EF90DF90CF900895CF93DF931F924E
:1004B000CDB7DEB7698320917D032223D1F020914F
:1004C0007A03203240F021E030E0FC0133832283C4
:1004D00080E090E015C080917B03E82FF0E0E853C6
:1004E000FD4F998190838F5F80937B0380937A0384
:1004F00005C061E0CE0101960E94D20181E090E04A
:100500000F90DF91CF910895682F8AE893E00C94C3
:10051000550230917A03313208F04BC08091570375
:100520008111FCCF90917C0322E02093570321E0BE
:10053000209356032FEF20935503109254033093CA
:100540005303E8ECF2E0A1E3B3E020E0321721F03E
:1005500041914D932F5FFACF109252032091520395
:10056000990F922B9093520390915103913061F423
:1005700010925103909152039093BB009091BC0054
:1005800093FDF8CF95EC01C095EE9093BC0090914F
:1005900057039230E1F3909155039F3F79F080919A
:1005A0005503803241F080915503803331F084E06F
:1005B00005C081E003C082E001C083E010927B03AC
:1005C00010927A0310927D03089590915703911130
:1005D000FCCF982F813208F090E281E0809357039E
:1005E000809356032FEF2093550310925403290F45
:1005F000209353038093520380915203826580932A
:10060000520380915103813061F410925103809123
:1006100052038093BB008091BC0083FDF8CF85EC32
:1006200001C085EE8093BC00809157038130E1F3D7
:1006300080915403891710F490915403E1E3F3E09F
:10064000AAE5B3E080E0891721F021912D938F5F17
:10065000FACF109259038093580308958091A4060D
:100660000E948011BC0180E090E04AE00E949E0B55
:1006700083E492E00E947A098091A4060E9480118E
:1006800021E08C32914008F420E0822F0895CF922F
:10069000DF92EF92FF92CF93DF93823018F086E4DF
:1006A00092E00AC09091AE06691720F09091AF06D3
:1006B000961750F488E592E0DF91CF91FF90EF908C
:1006C000DF90CF900C948C09E82FF0E0EC55F94FB7
:1006D000C089CC3008F072C0262F30E0D0E085E031
:1006E0008C9FF0018D9FF00D1124E15CF94F838107
:1006F000283C31059CF528E830E06901C81AD1088A
:1007000087FDD394CC0CDD1CCC0CDD1C0D2C000C17
:10071000EE08FF08848128E532E0281B310987FDB7
:100720003395220F331F220F331FC901330FAA0B3A
:10073000BB0B9C01AD012C193D094E095F09A62F89
:10074000B0E00E94F01824EB30E040E050E00E945E
:10075000D118C20ED31EE41EF51E1EC048E850E09C
:100760006A01C81AD10887FDD394CC0CDD1CCC0CCF
:10077000DD1C2C153D0584F0448188E592E0841B46
:10078000910947FD9395880F991F880F991F69015B
:100790008C159D050CF46C018FB7F89495E09C9F27
:1007A000F0019D9FF00D1124E15CF94F96E0C91A0C
:1007B000D108CC0CDD1CD282C1828FBFDF91CF91DA
:1007C000FF90EF90DF90CF900895CF93C42F91E0EA
:1007D00090937D0399E290937C0310927B03109297
:1007E0007A03806890E00E9484026C2F8AE893E08C
:1007F0000E9455028AE893E0CF910C94890291E01F
:1008000090937D0399E290937C0310927B03109266
:100810007A03806890E00E9484028AE893E00E9454
:10082000890281E090E00E94E5028AE893E00E945C
:100830000C020895CF93DF9391E090937D0399E2AA
:1008400090937C0310927B0310927A03806890E06F
:100850000E9484028AE893E00E94890282E090E08C
:100860000E94E5028AE893E00E940C02EC018AE80B
:1008700093E00E940C0220E030E0382FCE01822B62
:10088000932BDF91CF9108950F931F93CF93DF9315
:10089000162F072FC3E8D6E09C8521E020937D0327
:1008A00090937C0310927B0310927A03AA85BB85F8
:1008B000ED91FC9111970190F081E02D682FCD0111
:1008C00019958A859B85DC01ED91FC910190F08161
:1008D000E02D602F19958A859B85DC01ED91FC91B7
:1008E0000190F081E02D612F19958A859B85DF911C
:1008F000CF911F910F910C948902FC01848191E0AA
:1009000090937D0380937C0310927B0310927A0373
:100910008485862B90E00E9484028AE893E00C9400
:1009200089020F931F93CF938C01C62F64600E949E
:100930007D046C2F6B7FC8010E947D0483EC90E0E6
:100940000197F1F7CF911F910F910895FC01A089B4
:10095000B1898C91A689B78982FD0FC09C91818D48
:100960008F5F8F73228D821749F0218DDF01A20FD7
:10097000B11D5D969C93818F08958C9108951F926F
:100980000F920FB60F9211240F900FBE0F901F9071
:1009900018951F920F920FB60F9211240BB60F925B
:1009A0002F933F934F935F936F937F938F939F9377
:1009B000AF93BF93EF93FF938091B900887F803608
:1009C00009F49CC068F5883209F45BC090F480316A
:1009D00009F454C038F4882309F4F6C0883009F4C7
:1009E0004DC0F6C0883109F44CC0803209F45DC0B6
:1009F000EFC0803409F468C048F4803309F455C06E
:100A0000883309F0E5C080935503D8C0803509F4D8
:100A10004FC0883509F45DC0883409F0D9C0D6C00C
:100A2000883909F4C7C0A8F4883709F467C038F4D6
:100A3000883609F463C0803709F460C0C9C08838BB
:100A400009F4B8C0803909F45FC0803809F0C0C02B
:100A50005BC0803B09F486C038F4803A09F466C074
:100A6000883A09F47FC0B4C0803C09F4A7C0883C30
:100A700009F4A4C0883B09F48AC0AAC0809152033B
:100A800010C09091540380915303981770F5E09132
:100A9000540381E08E0F80935403F0E0EF5CFC4F31
:100AA00080818093BB0085EC86C0809355038EC007
:100AB000E091540381E08E0F809354038091BB003A
:100AC000F0E0EF5CFC4F80839091540380915303DE
:100AD0006EC0E091540381E08E0F809354038091A7
:100AE000BB00F0E0EF5CFC4F8083809156038111E6
:100AF0006DC081E08093510384EA61C083E08093FC
:100B0000570310922E03CFCF80912E03803208F02E
:100B100051C0E0912E0381E08E0F80932E038091CF
:100B2000BB00F0E0E25FFC4F8083BDCF85EC80939B
:100B3000BC001092570380912E03803230F4E09174
:100B40002E03F0E0E25FFC4F108260912E0370E014
:100B5000E0910C03F0910D038EE093E01995109253
:100B60002E0336C084E08093570310920B0310923B
:100B70000A03E0910803F0910903199580910A0393
:100B8000811105C081E080930A031092E802E09190
:100B90000B0381E08E0F80930B03F0E0E851FD4FD3
:100BA00080818093BB0090910B0380910A0398177A
:100BB00008F479CF85E88093BC000AC085EC809367
:100BC000BC001092570304C0109255030E94C80144
:100BD000FF91EF91BF91AF919F918F917F916F9115
:100BE0005F914F913F912F910F900BBE0F900FBED1
:100BF0000F901F901895CF93DF93282F30E0F901C5
:100C0000EC53FD4F8491F901E258FD4FD491F90165
:100C1000E85CFD4FC491CC2391F081110E94EE104D
:100C2000EC2FF0E0EE0FFF1FE25EFD4FA591B491B7
:100C3000EC91ED2381E090E021F480E002C080E0BF
:100C400090E0DF91CF9108951F93CF93DF93282FEA
:100C500030E0F901EC53FD4F8491F901E258FD4F6A
:100C6000D491F901E85CFD4FC491CC23C1F0162F5B
:100C700081110E94EE10EC2FF0E0EE0FFF1FEC5FF1
:100C8000FD4FA591B4919FB7F894111104C08C91B8
:100C9000D095D82302C0EC91DE2BDC939FBFDF916F
:100CA000CF911F91089510925903109258031092FA
:100CB0007B0310927A031092570381E080935603CE
:100CC0001092510361E084E10E94240661E085E115
:100CD0000E942406E9EBF0E080818E7F8083808192
:100CE0008D7F808388E48093B80085E48093BC0086
:100CF0008AEF91E090930903809308038BEF91E0D2
:100D000090930D0380930C030895CF93DF938AE8AB
:100D100093E00E94530682E10E94FF03843411F0A5
:100D20008031D1F581E08093BA06C091BD06D091A3
:100D3000BE06AE0160E070E00E94E503D093BE06FF
:100D4000C093BD06C091BB06D091BC068091BA0687
:100D5000811102C00E948506AE0160E070E08FE064
:100D60000E94E503D093BC06C093BB0641E050E06F
:100D700060E070E080E00E94E50363E070E080E006
:100D800090E00E949F1143E050E060E070E080E05E
:100D90000E94E50381E001C080E0DF91CF910895DA
:100DA000CF92DF92EF92FF920F931F93CF93DF9337
:100DB0006C017A018B01C0E0D0E0CE15DF0581F037
:100DC000D8016D918D01D601ED91FC910190F081DA
:100DD000E02DC6011995892B11F02196EECF7E01E9
:100DE000C701DF91CF911F910F91FF90EF90DF909E
:100DF000CF900895FC01538D448D252F30E0842F32
:100E000090E0821B930B541710F0CF960895019732
:100E10000895FC01918D828D981761F0828DDF011C
:100E2000A80FB11D5D968C91928D9F5F9F73928FDD
:100E300090E008958FEF9FEF0895FC01918D828DD2
:100E4000981731F0828DE80FF11D858D90E008959F
:100E50008FEF9FEF08950E947C1C86E993E00E942B
:100E6000DF0B21E0892B09F420E0822F089583E332
:100E700094E00E94DF0B21E0892B09F420E0822F0F
:100E8000089580ED94E00E94DF0B21E0892B09F4A6
:100E900020E0822F0895EF92FF920F931F93CF933C
:100EA000DF93EC0181E0888F9B8D8C8D981305C0BA
:100EB000E889F989808185FD26C0F62E0B8D10E02A
:100EC0000F5F1F4F0F731127E02E8C8DE8120CC09F
:100ED0000FB607FCFACFE889F989808185FFF5CF45
:100EE000CE010E94450CF1CF8B8DFE01E80FF11D64
:100EF000E35AFF4FF0829FB7F8940B8FEA89FB8982
:100F0000808180620AC09FB7F894EE89FF89608370
:100F1000E889F98980818370806480839FBF81E044
:100F200090E0DF91CF911F910F91FF90EF90089586
:100F3000CF93DF93EC01888D8823C9F0EA89FB8980
:100F4000808185FD05C0A889B9898C9186FD0FC077
:100F50000FB607FCF5CF808185FFF2CFA889B9894C
:100F60008C9185FFEDCFCE010E94450CE7CFDF913C
:100F7000CF9108951F920F920FB60F9211240BB6C6
:100F80000F922F933F934F935F936F937F938F9322
:100F90009F93AF93BF93EF93FF9380917F039091C3
:100FA0008003A0918103B0918203892B8A2B8B2B24
:100FB00049F190917E038091000089278093000081
:100FC00080917F0390918003A0918103B09182036F
:100FD000181619061A061B060CF056C080917F03DE
:100FE00090918003A0918103B09182030197A109A0
:100FF000B10980937F0390938003A0938103B09302
:10100000820342C080910002EAE0F3E0E4919FEFA6
:1010100090930002E230C9F050F4EE2399F0E130F1
:1010200081F590916F009D7F90936F002AC0E4300E
:1010300019F1E0F0E53029F5909173009D7F9093D0
:1010400073001FC010926E001CC0909170009D7FB5
:101050009093700091E09093B0009091B100987FD0
:1010600094609093B1001092B3000BC09091710006
:101070009D7F9093710005C0909172009D7F909329
:10108000720060E00E942406FF91EF91BF91AF9142
:101090009F918F917F916F915F914F913F912F9190
:1010A0000F900BBE0F900FBE0F901F9018951F92C0
:1010B0000F920FB60F9211240BB60F922F933F93FE
:1010C0004F935F936F937F938F939F93AF93BF9350
:1010D000EF93FF9386E993E00E94450CFF91EF9117
:1010E000BF91AF919F918F917F916F915F914F9140
:1010F0003F912F910F900BBE0F900FBE0F901F903E
:1011000018951F920F920FB60F9211240BB60F92E3
:101110002F933F934F935F936F937F938F939F93FF
:10112000AF93BF93EF93FF9386E993E00E94A604E9
:10113000FF91EF91BF91AF919F918F917F916F91AF
:101140005F914F913F912F910F900BBE0F900FBE6B
:101150000F901F9018951F920F920FB60F921124A7
:101160000BB60F922F933F934F935F936F937F93A1
:101170008F939F93AF93BF93EF93FF9383E394E099
:101180000E94450CFF91EF91BF91AF919F918F917C
:101190007F916F915F914F913F912F910F900BBE77
:1011A0000F900FBE0F901F9018951F920F920FB6C1
:1011B0000F9211240BB60F922F933F934F935F938F
:1011C0006F937F938F939F93AF93BF93EF93FF930F
:1011D00083E394E00E94A604FF91EF91BF91AF9149
:1011E0009F918F917F916F915F914F913F912F913F
:1011F0000F900BBE0F900FBE0F901F9018951F926F
:101200000F920FB60F9211240BB60F922F933F93AC
:101210004F935F936F937F938F939F93AF93BF93FE
:10122000EF93FF9380ED94E00E94450CFF91EF91C6
:10123000BF91AF919F918F917F916F915F914F91EE
:101240003F912F910F900BBE0F900FBE0F901F90EC
:1012500018951F920F920FB60F9211240BB60F9292
:101260002F933F934F935F936F937F938F939F93AE
:10127000AF93BF93EF93FF9380ED94E00E94A60499
:10128000FF91EF91BF91AF919F918F917F916F915E
:101290005F914F913F912F910F900BBE0F900FBE1A
:1012A0000F901F901895FC01A089B18982E08C9362
:1012B000A485B5851C92A685B7858FEC8C93108E7E
:1012C000A489B58986E08C93A289B3898C918061C9
:1012D0008C93A289B3898C9188608C93A289B389FD
:1012E0008C9180688C930288F389E02D80818F7DBA
:1012F00080830895009769F0FC0101900020E9F7D0
:101300003197AF01481B590BBC0180ED94E00C9460
:10131000D00680E090E00895CF93DF930E947A0991
:10132000EC0183E492E00E947A098C0F9D1FDF910B
:10133000CF9108952F923F924F925F926F927F923A
:101340008F929F92AF92BF92CF92DF92EF92FF92D5
:101350000F931F93CF93DF9300D000D0CDB7DEB7AC
:101360007C0181E089831E141F040CF41982998189
:10137000692E712CB7010F2C000C880B990B0E9461
:10138000B41725E535E541EB51E40E9413180E949E
:101390003B1A8B0143E353E363EB7EE389810E94B5
:1013A000D90F81E01E141F040CF080E040E050E0F3
:1013B000BA010E94D90FD301AA0FBB1F5D96AD578A
:1013C000B94FBE83AD83CD010E94460E1E141F048B
:1013D0003CF4812C912C80E8A82E8FE3B82E03C01A
:1013E000812C912C5401312C212CCC24DD24C01AC9
:1013F000D10AC301770CAA0BBB0B89839A83AB83F9
:10140000BC83832D922D97FF03C0919581959109FF
:10141000980117FD960182179307ACF56AE070E01A
:1014200080E090E00E949F118D819E811E141F0418
:1014300054F40E94710E90958095709561957F4F40
:101440008F4F9F4F02C00E94710E362E272E23E32E
:1014500033E343EB5EE3C501B4010E9413182B0193
:101460003C0169817A818B819C810E94B41723E3BE
:1014700033E343EB5EE30E941318A30192010E9441
:10148000F80F8111BECF26960FB6F894DEBF0FBEBF
:10149000CDBFDF91CF911F910F91FF90EF90DF9023
:1014A000CF90BF90AF909F908F907F906F905F9004
:1014B0004F903F902F9008952F923F924F925F92BE
:1014C0006F927F928F929F92AF92BF92CF92DF9254
:1014D000EF92FF920F931F93CF93DF93CDB7DEB7B9
:1014E0002C970FB6F894DEBF0FBECDBF362E272E39
:1014F00089839A8369017A0180EA96E00E94460E08
:1015000082EA96E00E94460E25E83BEA45E053E475
:10151000C701B6010E9413180E943B1A7C836B839B
:10152000432D522D69817A818CE996E00E94250D28
:10153000432D522D69817A8181E00E94D90F0E944A
:10154000D9112B013C010E94D9116B017C01032DA3
:10155000122D29812C873A813B87812C912CA12C3B
:10156000B12C4B815C815195419551095A8749872E
:101570009501B7FE04C0222733272A193B098B8126
:101580009C8197FF02C089859A85281739070CF03E
:1015900096C084E690E0A0E0B0E08C199D09AE0909
:1015A000BF09BC01CD01640D751D861D971D0E94EC
:1015B0009F110E94D9112B013C0180EA96E00E9404
:1015C000710E6B017C0188279927DC018C199D091C
:1015D000AE09BF09A80EB91E80EA96E00E94710EFE
:1015E0006B017C0180EA96E00E94460E82EA96E05A
:1015F0000E94710E6D837E838F83988782EA96E0C6
:101600000E94460E88279927DC018C199D09AE0996
:10161000BF099C01AD01CD80DE80EF80F8842C19DC
:101620003D094E095F09AAE0B0E00E94F018860E5D
:10163000971E0E94B41727E137EB41ED58E30E9453
:10164000131898014C855B850E945D196B017C0124
:10165000B401092C000C880B990B0E94B41720EBE5
:101660003FE041E255E30E941318A70196010E9452
:101670005D198B018C879B8720E030E040E85FE3B9
:101680000E94AD1787FD06C000E010E020E82C871F
:101690003FE33B87A8016C857B8581E00E94D90FE1
:1016A0000E94D9116B017C0198014C855B85632DEB
:1016B000722D89819A810E94F80F811159CF2C9641
:1016C0000FB6F894DEBF0FBECDBFDF91CF911F9153
:1016D0000F91FF90EF90DF90CF90BF90AF909F90D1
:1016E0008F907F906F905F904F903F902F900895D4
:1016F00080EA96E00E94460E82EA96E00E94460E3C
:101700004AE959E969E17EE38CE996E00E94250DFA
:101710004AE959E969E17EEB81E00E94D90F6AE06C
:1017200070E080E090E00E949F1180EA96E00E94C5
:10173000710E82EA96E00E94710EFFCF8F929F9207
:10174000AF92BF920F931F93CF93DF93CDB7DEB7C6
:10175000A1970FB6F894DEBF0FBECDBF19A24230DD
:1017600008F44AE08E010F5D1F4F842E912CA12CAE
:10177000B12CA50194010E940319E62FB901CA01F9
:1017800001501109EA3014F4E05D01C0E95CD801B0
:10179000EC93232B242B252B61F7C8010E947A0997
:1017A000A1960FB6F894DEBF0FBECDBFDF91CF91EB
:1017B0001F910F91BF90AF909F908F900895FC0163
:1017C000918D228D892F90E0805C9F4F821B910923
:1017D0008F7399270895E0E0F0E0199480E090E09D
:1017E000892B21F00E944107811119C080E090E00F
:1017F000892B41F080E090E0892B21F00E940000CD
:10180000811110C00E94370781110FC080E090E065
:10181000892B81F00E942D0781110AC008950E9432
:101820000000E4CF0E940000EDCF0E94EB0BEECF52
:101830000C9400000895089580E090E00895FFCF93
:101840000F931F93CF93DF938C01C62FD62FD07F9A
:10185000D1606D2F0E947D046D2FC8010E949104FC
:1018600080E1C89FB0011124C62FC1606C2FC80150
:101870000E947D046C2FC8010E94910481E090E0D9
:10188000DF91CF911F910F910895FC01848DDF01AD
:10189000A80FB11DA35ABF4F2C91848D90E00196E3
:1018A0008F739927848FA689B7892C93A089B189D2
:1018B0008C91837080648C93938D848D981306C073
:1018C0000288F389E02D80818F7D808308951F92A7
:1018D0000F920FB60F9211240BB60F922F933F93D6
:1018E0004F935F936F937F938F939F93AF93BF9328
:1018F000EF93FF9380916E050E94FB052091720586
:10190000309173052F5F3F4F30937305209372051D
:1019100090917105953618F096E090936D05909131
:101920006D059430C9F128F4923069F09330D1F00C
:101930005EC0953009F451C0963009F058C091E06E
:1019400090933E0651C0811152C020917205309192
:1019500073052436310508F442C010923E061092F9
:1019600071051CC0813009F042C0E091710591E021
:101970009E0F90937105F0E02091720530917305F0
:10198000EE0FFF1FE359FA4F30872783109273053C
:101990001092720594E029C0811117C0E091710581
:1019A00091E09E0F90937105F0E0209172053091C7
:1019B0007305EE0FFF1FE359FA4F3087278310920C
:1019C00073051092720593E010C02091720530915A
:1019D00073052536310558F007C0811108C01092F3
:1019E00073051092720503C095E090936D05909178
:1019F00070059923B9F081110AC080916F05882381
:101A000021F080916F0561E009C02F9A0BC0809191
:101A10006F05882331F080916F0560E00E942406F5
:101A200001C02F98FF91EF91BF91AF919F918F913E
:101A30007F916F915F914F913F912F910F900BBECE
:101A40000F900FBE0F901F9018958F929F92AF929C
:101A5000BF92CF92DF92EF92FF920F931F93CF939B
:101A6000DF938C016A017B0120E030E04FE753E413
:101A7000C701B6010E9413184B015C0120E030E061
:101A8000A9010E94711A18161CF4C501B40103C003
:101A9000C501B40190580E943B1AEB0120E030E0F0
:101AA000A901C701B6010E94711A181614F460E06A
:101AB00001C061E0F80181810E942406CF3FD10579
:101AC00009F014F4DD2702C0CFEFD0E0F801108157
:101AD00061E0812F0E944411209709F4B1C0CF3FEB
:101AE000D10509F4AFC0E12FF0E0EC53FD4FE491D4
:101AF0008E2F90E0FC013197E231F10508F09DC096
:101B00008827EE58FF4F8F4F0C94541984B5806886
:101B100084BDC7BDA7C084B5806284BDC8BDA2C056
:101B200080918000806880938000D0938900C0936A
:101B3000880098C080918000806280938000D0935C
:101B40008B00C0938A008EC0809180008860809353
:101B50008000D0938D00C0938C0084C08091B00031
:101B600080688093B000C093B3007CC08091B000C7
:101B700080628093B000C093B40074C080919000E4
:101B8000806880939000D0939900C09398006AC0B9
:101B900080919000806280939000D0939B00C093CE
:101BA0009A0060C080919000886080939000D093EC
:101BB0009D00C0939C0056C08091A00080688093D7
:101BC000A0008091A0008F7B8093A000D093A900FB
:101BD000C093A80047C08091A00080628093A000BD
:101BE000D093AB00C093AA003DC08091A000886054
:101BF0008093A000D093AD00C093AC0033C080911F
:101C00002001806880932001D0932901C09328018E
:101C100029C080912001806280932001D0932B0104
:101C2000C0932A011FC08091200188608093200109
:101C3000D0932D01C0932C0115C0C038D10514F4E8
:101C400060E001C061E0812FDF91CF911F910F9182
:101C5000FF90EF90DF90CF90BF90AF909F908F90CC
:101C60000C942406DF91CF911F910F91FF90EF907C
:101C7000DF90CF90BF90AF909F908F9008958EBDD2
:101C800000000DB407FEFDCF8EB50895CF93DF930E
:101C9000EC0160E088810E94240688E90E943F0EE2
:101CA00080E00E943F0E80E00E943F0E80E00E9494
:101CB0003F0E80E00E943F0E61E088810E94240672
:101CC0008BE891E00197F1F760E088810E9424069B
:101CD00080EE0E943F0E61E08881DF91CF910C94ED
:101CE0002406AF92BF92CF92DF92EF92FF920F93B2
:101CF0001F93CF93DF93CDB7DEB760970FB6F894FD
:101D0000DEBF0FBECDBF5C0160E0FC0180810E94A0
:101D1000240680E60E943F0E8E010F5F1F4F7E015A
:101D2000F1E1EF0EF11C680180E00E943F0E90E0AF
:101D3000A0E0B0E0F60181939193A193B1936F017C
:101D4000EE15FF0589F761E0F50180810E94240608
:101D500080E090E0DC01F801419151916191719135
:101D60008F01BA2FA92F982F8827840F951FA61FA0
:101D7000B71FEE15FF0579F79C01AD0166277727A0
:101D8000CB01621B730B840B950B60960FB6F89416
:101D9000DEBF0FBECDBFDF91CF911F910F91FF909E
:101DA000EF90DF90CF90BF90AF9008951F93CF93A7
:101DB000DF93EC01162F88818C3008F04DC061E074
:101DC000812F0E944411E88195E09E9FF00111242B
:101DD000E15CF94F1F738081807C182B1083138284
:101DE000E8819E9FF0011124E15CF94F1482888103
:101DF0006CE00E9434199CE0899FA001112420E02E
:101E000030E095E0BA01620F731F969FF001979F33
:101E1000F00D1124E15CF94F608166FD13C02F5F66
:101E20003F4F2C30310571F781110CC010928000AA
:101E300082E080938100109285001092840086BB1E
:101E400080936F00E88185E0E89FF0011124E15C58
:101E5000F94F8081806480838881DF91CF911F91C9
:101E600008951F920F920FB60F9211240BB60F9286
:101E70002F933F934F935F936F937F938F939F9392
:101E8000AF93BF93EF93FF9380919A0787FF05C0AD
:101E9000109285001092840016C020919A07022E9D
:101EA000000C330B80917B0690E0281739075CF417
:101EB00030919A0725E03203F0011124E15CF94FDB
:101EC000808186FD15C080919A078F5F80939A0765
:101ED00020919A07022E000C330B80917B0690E034
:101EE0002817390794F480919A078C302CF10DC093
:101EF00030919A073203F0011124E15CF94F80819F
:101F000060E08F730E942406DECF80918400909160
:101F1000850084349C4918F480E49CE905C08091D4
:101F200084009091850004969093890080938800A6
:101F30008FEF80939A072AC04091840050918500CA
:101F400030919A0725E03203F0011124E15CF94F4A
:101F500081819281840F951F9093890080938800DE
:101F600030919A073203F0011124E15CF94F80812E
:101F700086FF0CC030919A073203F0011124E15C16
:101F8000F94F808161E08F730E942406FF91EF91E9
:101F9000BF91AF919F918F917F916F915F914F9181
:101FA0003F912F910F900BBE0F900FBE0F901F907F
:101FB0001895823020F085EB92E00C948C098130EA
:101FC00009F4705890E0880F991F8456994F0C942B
:101FD000250D40E050E0BA018CE996E00E94250D05
:101FE00040E050E060E070E88EE996E00C94250D4A
:101FF0008F929F92AF92BF92CF92DF92EF92FF9219
:102000000F931F93CF93DF936B017C0149015A011A
:102010000E942E03882389F10E94E90F68E780E07F
:102020000E94470360ED77E080E090E00E949F11FE
:1020300068E280E00E94470368EE73E080E090E091
:102040000E949F110E942E0381110CC0B701A601AE
:102050008CE996E00E94250DB501A40181E00E9463
:10206000D90F0BC00E94780B20E030E040E251E431
:10207000C701B6010E945C0A7EC080E00E94FF0397
:102080008F7E482F50E060E070E080E00E94E50322
:102090006CE370E080E090E00E949F118091BA06AE
:1020A000811102C00E94850684E10E941A04EC019D
:1020B00086E10E941A048C0188E10E941A048AE1D8
:1020C0000E941A048091BD069091BE06853D91053F
:1020D00019F150F4009729F1803C910541F56AE926
:1020E00070E080E090E021C0863F910581F08F3F55
:1020F000910541F08B3E9105D1F462E370E080E000
:1021000090E013C063E070E080E090E00EC068E112
:1021100070E080E090E009C065E670E080E090E06B
:1021200004C06CEB72E080E090E00E949F1180E0C0
:102130000E94FF038061482F50E060E070E080E083
:102140000E94E503B80180E090E09E0140E050E08D
:102150000E940319322F22272D33310558F00E9497
:10216000E90F62E370E080E090E00E949F110E941E
:10217000780B01C0FFCF80E0DF91CF911F910F91CD
:10218000FF90EF90DF90CF90BF90AF909F908F9097
:1021900008953FB7F8948091A0079091A107A0916E
:1021A000A207B091A30726B5A89B05C02F3F19F041
:1021B0000196A11DB11D3FBFBA2FA92F982F8827C7
:1021C000820F911DA11DB11DBC01CD0142E0660F22
:1021D000771F881F991F4A95D1F7089590E0FC0159
:1021E0003197E231F10508F04EC08827EC57FF4FD8
:1021F0008F4F0C945419809180008F7703C0809189
:1022000080008F7D80938000089580918000877F7B
:10221000F9CF84B58F7702C084B58F7D84BD0895D2
:102220008091B0008F7703C08091B0008F7D809344
:10223000B0000895809190008F7707C08091900042
:102240008F7D03C080919000877F809390000895D8
:102250008091A0008F7707C08091A0008F7D03C080
:102260008091A000877F8093A00008958091200135
:102270008F7707C0809120018F7D03C0809120015E
:10228000877F809320010895CF93DF9390E0FC0136
:10229000E258FD4F2491FC01E85CFD4F84918823B6
:1022A00061F190E0880F991FFC01E55FFC4FC5913B
:1022B000D491FC01EC5FFD4FA591B491611109C06F
:1022C0009FB7F8948881209582238883EC912E23F0
:1022D0000BC0623061F49FB7F8948881322F30953B
:1022E00083238883EC912E2B2C939FBF06C08FB73E
:1022F000F894E8812E2B28838FBFDF91CF9108952A
:10230000863308F0865390917B00282F2870977FA2
:10231000922B90937B008770806480937C008091E7
:102320007A00806480937A0080917A0086FDFCCFE9
:10233000809178002091790090E0922B08958F92FF
:102340009F92AF92BF92CF92DF92EF92FF926B017A
:102350007C010E94C9104B015C01C114D104E1044D
:10236000F104F1F00E94C910DC01CB018819990930
:10237000AA09BB09883E9340A105B10570F321E08D
:10238000C21AD108E108F10888EE880E83E0981E91
:10239000A11CB11CC114D104E104F10419F7DDCF73
:1023A000FF90EF90DF90CF90BF90AF909F908F9075
:1023B00008952FB7F89460919C0770919D078091C4
:1023C0009E0790919F072FBF08951F920F920FB6FF
:1023D0000F9211242F933F938F939F93AF93BF93AB
:1023E00080919C0790919D07A0919E07B0919F07B7
:1023F00030919B0723E0230F2D3720F40196A11D78
:10240000B11D05C026E8230F0296A11DB11D209322
:102410009B0780939C0790939D07A0939E07B09382
:102420009F078091A0079091A107A091A207B0916A
:10243000A3070196A11DB11D8093A0079093A1074A
:10244000A093A207B093A307BF91AF919F918F91E3
:102450003F912F910F900FBE0F901F901895789479
:1024600084B5826084BD84B5816084BD85B5826099
:1024700085BD85B5816085BD80916E00816080934A
:102480006E001092810080918100826080938100B3
:1024900080918100816080938100809180008160C3
:1024A000809380008091B10084608093B10080911E
:1024B000B00081608093B000809191008260809331
:1024C00091008091910081608093910080919000B3
:1024D0008160809390008091A10082608093A10030
:1024E0008091A10081608093A1008091A000816013
:1024F0008093A000809121018260809321018091CE
:10250000210181608093210180912001816080936D
:10251000200180917A00846080937A0080917A0013
:10252000826080937A0080917A00816080937A0043
:1025300080917A00806880937A001092C10080EDCB
:1025400094E00E94530961E0809184060E94441146
:1025500060E0809184060E94240660E080918306FA
:102560000E9444118AE893E090938E0680938D0632
:102570000E94530680E090E1A0E0B0E080939006D6
:1025800090939106A0939206B09393068AE090E010
:10259000A0E0B0E08093940690939506A0939606F1
:1025A000B093970680E090E0A0E0B0E480939806B6
:1025B00090939906A0939A06B0939B0660E070E111
:1025C00085E00E9444046FE979E380E00E944404BE
:1025D000C3E8D6E08E0142E0742E5DE6A52E52E0FF
:1025E000B52E63EB862E62E0962E7BECE72E77E02D
:1025F000F72EF80194818281898F9A8F61E00E9481
:10260000441161E08A8D0E944411F8019085868111
:102610006E01FDE1CF0ED11C8D8F9E8F61E00E9477
:10262000441160E08E8D0E94441161E08D8D0E9406
:1026300024066FB6F89480918303811126C0F501BA
:102640008491F4012491E82FF0E0EE0FFF1FE55F85
:10265000FC4FA591B4919C91822F892321F461E0D4
:1026600085E30E94240661E085E30E9444118CB555
:1026700080618CBD8CB580648CBD61E084E30E9478
:10268000441161E083E30E944411809183038F5FD2
:10269000809383036FBEC7010197F1F760E08D8DD2
:1026A0000E94240688E80E943F0E83E00E943F0EAD
:1026B00061E08D8D0E942406C7010197F1F7C601E4
:1026C0000E94460E7A940F5F1F4F2296711091CF91
:1026D00008EA16E0CCEAD6E060E0F80181918F01CB
:1026E0000E944411C017D107B9F704EA16E02EEA98
:1026F000C22E26E0D22E7E01FFEFEF1AFF0A68817C
:1027000070E0CE0108960E94D60EF7019581838174
:10271000F801828B938B60E00E94441161E0F80124
:1027200083890E94441160E0F80183890E94240695
:102730000E5F1F4FE701CE14DF04E9F6F894109204
:10274000200189E08093210180E293E090932901A8
:1027500080932801109225011092240182E0809339
:102760007300789480936D051092710580916E05C9
:1027700060E00E94441180ED94E00E945309609152
:10278000AC0670E084EB96E00E94D60E68E280E032
:102790000E94470361E082E00E94441160E086E30A
:1027A0000E94441160E087E30E9444110E94850664
:1027B000882319F085E792E002C082E892E00E9447
:1027C0008C0983E394E00E94530985E0C82ED12C44
:1027D000E12CF12C98E6292E332433948091880340
:1027E00090918903892B69F48091AB060E94FB05C7
:1027F000892B39F462E370E080E090E00E949F1141
:10280000EDCF21E030E030938903209388030E94CC
:10281000561726E030E040E050E00E94D118EB016E
:1028200021960E9456172AE030E040E050E00E94D6
:10283000D1188B010F5F1F4F0E94561723E030E025
:1028400040E050E00E94D1186F5F7F4F8F4F9F4F45
:102850000E94B41720E030E040E251E40E94C91920
:10286000609384037093850380938603909387031A
:102870008FEA92E00E947A09BE0180E090E04AE08F
:102880000E949E0B83E492E00E947A09C330D10536
:1028900041F4C101B8010E944019CB010E949A097C
:1028A0001CC0C430D10508F5C130D105C9F48AE097
:1028B000809FB001819F700D112480E090E00E9404
:1028C000B2179B01AC0160918403709185038091E4
:1028D0008603909187030E945C0A0E94EE0B7ECFD4
:1028E0002297D9F788E99EEFD5CFC430D10509F0FA
:1028F00060C0B80180E090E00E94B2179B01AC017B
:102900006BED7FE089EC90E40E94C9196B017C01BA
:1029100020E030E0A9010E94AD1787FD03C0C1E0AF
:10292000D0E002C0CFEFDFEF2EEC31EC4EE954E403
:10293000C701B6010E9413186B017C0180EA96E082
:102940000E94460E82EA96E00E94460EBE010D2EBF
:10295000000C880B990B0E94B417A70196010E94E6
:102960001318AB01BC018CE996E00E94250D662787
:1029700077276C1B7D0B072E000C880B990B0E9490
:10298000B417A70196010E941318AB01BC0181E0A6
:102990000E94D90F6AE070E080E090E00E949F11F1
:1029A00080EA96E00E94710E82EA96E00E94710E23
:1029B000FFCF259709F091CF0E94E90F0E9456178B
:1029C0004B015C010E94D9112B013C010E94D911DD
:1029D0009B01AC01241935094609570929013A011F
:1029E000C501B401A70196010E94D118AB01BC0139
:1029F0004F5F5F4F6F4F7F4FE8EEF3E04E9FC00198
:102A00004F9F900D5E9F900D1124A0E0B0E04816FE
:102A100059066A067B0608F060CFFFCF10928D033F
:102A200010928C0388EE93E0A0E0B0E080938E03D8
:102A300090938F03A0939003B093910327E132E02A
:102A400030938B0320938A0310929903109298037A
:102A500080939A0390939B03A0939C03B0939D0350
:102A600029E232E0309397032093960345E351E047
:102A70005093A3034093A20344E351E05093A50372
:102A80004093A40340E351E05093A7034093A6036F
:102A900041E351E05093A9034093A80342E351E07E
:102AA0005093AB034093AA0346E351E05093AD0328
:102AB0004093AC031092AF031092B0031092B10395
:102AC0001092B203109236041092350480933704AA
:102AD00090933804A0933904B0933A0430933404AB
:102AE0002093330445ED50E05093400440933F045D
:102AF00044ED50E0509342044093410440ED50E0D7
:102B0000509344044093430441ED50E050934604F5
:102B10004093450442ED50E05093480440934704ED
:102B200046ED50E050934A044093490410924C04FF
:102B300010924D0410924E0410924F041092D30440
:102B40001092D2048093D4049093D504A093D60419
:102B5000B093D7043093D1042093D00485EC90E057
:102B60009093DD048093DC0484EC90E09093DF0488
:102B70008093DE0480EC90E09093E1048093E00485
:102B800081EC90E09093E3048093E20482EC90E087
:102B90009093E5048093E40486EC90E09093E7043E
:102BA0008093E6041092E9041092EA041092EB0478
:102BB0001092EC0480910B0290910C02A0910D02F6
:102BC000B0910E028093A4069093A506A093A6064A
:102BD000B093A70680910F0290911002A09111026C
:102BE000B09112028093A8069093A906A093AA061A
:102BF000B093AB0684E08093AC0687E08093AD068B
:102C00001092AE0684EB8093AF0686E18093B00607
:102C100088E18093B10687E18093B20689E18093D1
:102C2000B306E0917B06EC3020F08FEF8093B40682
:102C300010C081E08E0F80937B06E093B40685E0A0
:102C4000E89FF0011124E15CF94F88EB9BE092834F
:102C50008183E0917B06EC3020F08FEF8093B50606
:102C600010C081E08E0F80937B06E093B50685E06F
:102C7000E89FF0011124E15CF94F88EB9BE092831F
:102C800081838CE08093830684E28093840686E0CF
:102C90008093850685E0809386068FE18093870682
:102CA0008EE18093880683E28093890682E2809396
:102CB0008A0685E480938B0684E480938C0680E406
:102CC00080938F06109294061092950610929606A5
:102CD00010929706109298061092990610929A06F2
:102CE00010929B06E3ECF6E021E837E08FEF9FEFD0
:102CF000DC011282138214821582168217821086DA
:102D0000118683879487A587B6878787908BA18B49
:102D1000B28B12861182108273962E173F0749F7E5
:102D20008DE090E00E94761AFC01138212828BE300
:102D300092E091838083118687E2848384E1828795
:102D400084E083871486F093C006E093BF06109258
:102D5000C1061092C20685E280936E05109270053E
:102D600010927D0610927C0610927F0610927E06CD
:102D7000109281061092800661E070E080E090E0A1
:102D80000E94971B009789F090937D0680937C06A4
:102D900010927F0610927E06209180063091810667
:102DA000232B31F5FC01108223C080917C06909189
:102DB0007D06009711F00E940E1B10927D06109266
:102DC0007C06109281061092800610927F06109267
:102DD0007E061092BA068BEE90E09093BE0680932A
:102DE000BD0681E090E09093BC068093BB060895F9
:102DF000109281061092800665E472E080917C0654
:102E000090917D060E948A1CE4CF80917C0690916F
:102E10007D060C940E1B8F929F92AF92BF92CF9221
:102E2000DF92EF92FF92CF93DF93EC01688179817B
:102E30008A819B81611571058105910521F464E208
:102E400079ED8BE597E02DE133EF41E050E00E9412
:102E5000D11849015A019B01AC01A7EAB1E40E94D3
:102E6000F0186B017C01ACEEB4EFA50194010E9457
:102E7000FE18DC01CB018C0D9D1DAE1DBF1DB7FFE3
:102E800003C00197A109B04888839983AA83BB83B3
:102E9000BC01CD019F77DF91CF91FF90EF90DF9044
:102EA000CF90BF90AF909F908F9008958F929F92F8
:102EB000AF92BF92CF92DF92EF92FF9260910102A8
:102EC00070910202809103029091040261157105D4
:102ED0008105910521F464E279ED8BE597E02DE120
:102EE00033EF41E050E00E94D11849015A019B01A3
:102EF000AC01A7EAB1E40E94F0186B017C01ACEED2
:102F0000B4EFA50194010E94FE18DC01CB018C0DE9
:102F10009D1DAE1DBF1DB7FF03C00197A109B0489D
:102F20008093010290930202A0930302B0930402E3
:102F3000BC01CD019F77FF90EF90DF90CF90BF90C5
:102F4000AF909F908F90089560930102709302025A
:102F5000809303029093040208950E94EF1708F4EF
:102F600081E00895E89409C097FB3EF49095809520
:102F7000709561957F4F8F4F9F4F9923A9F0F92F3F
:102F800096E9BB279395F695879577956795B795BD
:102F9000F111F8CFFAF4BB0F11F460FF1BC06F5FA3
:102FA0007F4F8F4F9F4F16C0882311F096E911C0B5
:102FB000772321F09EE8872F762F05C0662371F0D6
:102FC00096E8862F70E060E02AF09A95660F771FEA
:102FD000881FDAF7880F9695879597F90895990FC6
:102FE0000008550FAA0BE0E8FEEF16161706E807D3
:102FF000F907C0F012161306E407F50798F0621BF4
:10300000730B840B950B39F40A2661F0232B242BC8
:10301000252B21F408950A2609F4A140A6958FEFE7
:10302000811D811D08950E9426180C9497180E94F6
:10303000891838F00E94901820F0952311F00C9414
:1030400080180C94861811240C94CB180E94A81890
:1030500070F3959FC1F3950F50E0551F629FF001EB
:10306000729FBB27F00DB11D639FAA27F00DB11D04
:10307000AA1F649F6627B00DA11D661F829F22278D
:10308000B00DA11D621F739FB00DA11D621F839F14
:10309000A00D611D221F749F3327A00D611D231FEA
:1030A000849F600D211D822F762F6A2F11249F5738
:1030B00050409AF0F1F088234AF0EE0FFF1FBB1F3B
:1030C000661F771F881F91505040A9F79E3F5105FA
:1030D00080F00C9480180C94CB185F3FE4F3983E7A
:1030E000D4F3869577956795B795F795E7959F5FA4
:1030F000C1F7FE2B880F911D9695879597F9089536
:1031000097F99F6780E870E060E008959FEF80EC9A
:10311000089500240A94161617061806090608953D
:1031200000240A9412161306140605060895092EA3
:103130000394000C11F4882352F0BB0F40F4BF2B12
:1031400011F460FF04C06F5F7F4F8F4F9F4F089552
:1031500057FD9058440F551F59F05F3F71F0479548
:10316000880F97FB991F61F09F3F79F0879508952D
:10317000121613061406551FF2CF4695F1DF08C04C
:10318000161617061806991FF1CF86957105610569
:1031900008940895E894BB2766277727CB0197F911
:1031A0000895052E97FB1EF400940E94E81857FD21
:1031B00007D00E94031907FC03D04EF40C94E818C2
:1031C00050954095309521953F4F4F4F5F4F089553
:1031D00090958095709561957F4F8F4F9F4F089583
:1031E0000E942519A59F900DB49F900DA49F800D5E
:1031F000911D11240895B7FF0C94F0180E94F01847
:10320000821B930B0895A1E21A2EAA1BBB1BFD0182
:103210000DC0AA1FBB1FEE1FFF1FA217B307E407B5
:10322000F50720F0A21BB30BE40BF50B661F771F0D
:10323000881F991F1A9469F76095709580959095ED
:103240009B01AC01BD01CF010895A29FB001B39FC6
:10325000C001A39F700D811D1124911DB29F700D9F
:10326000811D1124911D0895991B79E004C0991FB7
:10327000961708F0961B881F7A95C9F780950895D0
:10328000AA1BBB1B51E107C0AA1FBB1FA617B7078C
:1032900010F0A61BB70B881F991F5A95A9F78095A8
:1032A0009095BC01CD010895EE0FFF1F881F8BBFC5
:1032B0000790F691E02D19945058BB27AA270E9439
:1032C00074190C9497180E94891838F00E9490186D
:1032D00020F039F49F3F19F426F40C9486180EF46C
:1032E000E095E7FB0C948018E92F0E94A81858F38A
:1032F000BA17620773078407950720F079F4A6F5DB
:103300000C94CA180EF4E0950B2EBA2FA02D0B01C9
:10331000B90190010C01CA01A0011124FF27591B1A
:1033200099F0593F50F4503E68F11A16F040A22F20
:10333000232F342F4427585FF3CF46953795279591
:10334000A795F0405395C9F77EF41F16BA0B620B90
:10335000730B840BBAF09150A1F0FF0FBB1F661FD7
:10336000771F881FC2F70EC0BA0F621F731F841F1A
:1033700048F4879577956795B795F7959E3F08F040
:10338000B0CF9395880F08F09927EE0F9795879502
:1033900008950E94DD190C9497180E94901858F017
:1033A0000E94891840F029F45F3F29F00C9480189E
:1033B00051110C94CB180C9486180E94A81868F32D
:1033C0009923B1F3552391F3951B550BBB27AA27DE
:1033D00062177307840738F09F5F5F4F220F331F18
:1033E000441FAA1FA9F335D00E2E3AF0E0E832D0E0
:1033F00091505040E695001CCAF72BD0FE2F29D0E3
:10340000660F771F881FBB1F261737074807AB07B4
:10341000B0E809F0BB0B802DBF01FF2793585F4F29
:103420003AF09E3F510578F00C9480180C94CB181C
:103430005F3FE4F3983ED4F3869577956795B7950B
:10344000F7959F5FC9F7880F911D9695879597F916
:103450000895E1E0660F771F881FBB1F621773078F
:103460008407BA0720F0621B730B840BBA0BEE1FA4
:1034700088F7E09508950E94421A6894B1110C945F
:10348000CB1808950E94B01888F09F5798F0B92F74
:103490009927B751B0F0E1F0660F771F881F991F89
:1034A0001AF0BA95C9F714C0B13091F00E94CA1849
:1034B000B1E008950C94CA18672F782F8827B85F59
:1034C00039F0B93FCCF3869577956795B395D9F7E1
:1034D0003EF490958095709561957F4F8F4F9F4FEB
:1034E00008950E94EF1708F48FEF08950F931F932C
:1034F000CF93DF938230910510F482E090E0E09169
:10350000A607F091A70720E030E0A0E0B0E03097F8
:1035100019F1408151810281138148175907C8F080
:103520008417950769F4109731F012960C9312974F
:1035300013961C9327C00093A6071093A70722C0D9
:103540002115310519F04217530718F49A01BD01EE
:10355000EF01DF01F801DBCF21153105F9F0281B60
:10356000390B2430310580F48A819B816115710506
:1035700021F0FB019383828304C09093A70780937B
:10358000A607FE01329644C0FE01E20FF31F8193AD
:10359000919322503109398328833AC02091A4079E
:1035A0003091A507232B41F42091070230910802A6
:1035B0003093A5072093A4072091050230910602BD
:1035C0002115310541F42DB73EB7409109025091C4
:1035D0000A02241B350BE091A407F091A507E2171E
:1035E000F307A0F42E1B3F0B2817390778F0AC0126
:1035F0004E5F5F4F2417350748F04E0F5F1F509303
:10360000A5074093A4078193919302C0E0E0F0E006
:10361000CF01DF91CF911F910F910895CF93DF9349
:10362000009709F481C0FC01329713821282A091A5
:10363000A607B091A707109781F420813181820FEE
:10364000931F2091A4073091A5072817390751F53A
:10365000F093A507E093A40767C0ED0120E030E0F8
:10366000CE17DF0740F44A815B819E014115510569
:10367000F1F0EA01F5CFD383C28340815181840FF9
:10368000951FC817D90759F488819981840F951F10
:103690000296918380838A819B8193838283211503
:1036A000310529F4F093A707E093A6073DC0E9018F
:1036B000FB83EA8349915991C40FD51FEC17FD078D
:1036C00061F480819181840F951F0296E9019983AD
:1036D0008883828193819B838A83E0E0F0E0129665
:1036E0008D919C911397009719F0FD01DC01F7CFA4
:1036F0008D919C9111979D012E5F3F4F820F931FDB
:103700002091A4073091A5072817390769F430974D
:1037100029F41092A7071092A60702C01382128202
:10372000B093A507A093A407DF91CF9108956F925E
:103730007F928F929F92AF92BF92CF92DF92EF9241
:10374000FF920F931F93CF93DF93009789F4CB01E0
:10375000DF91CF911F910F91FF90EF90DF90CF906D
:10376000BF90AF909F908F907F906F900C94761A3F
:10377000FC01E60FF71F9C0122503109E217F30705
:1037800008F4A9C0EC01D9010D911C9111970617FD
:103790001707B0F00530110508F49BC0C801049765
:1037A0008617970708F495C002501109061B170BDE
:1037B000019311936D937C93CF010E940E1B89C0DE
:1037C0005B01A01AB10A4C01800E911EA091A607C0
:1037D000B091A707612C712CE12CF12C109709F402
:1037E00046C08D919C911197A815B905B1F56C0152
:1037F00042E0C40ED11CCA14DB0478F14C018A18D3
:103800009B08640142E0C40ED11C1296BC90129732
:103810001396AC91B5E0CB16D10440F0B282A383ED
:1038200091828082D9016D937C9309C00E5F1F4FF6
:10383000800F911FF90191838083EB2DFA2FE11402
:10384000F10431F0D7011396FC93EE93129741C027
:10385000F093A707E093A6073CC06816790608F422
:103860003C017D0112960D90BC91A02DB7CF8091A7
:10387000A4079091A50788169906E1F466167706C5
:10388000C8F48091050290910602009741F48DB72B
:103890009EB74091090250910A02841B950BE817CC
:1038A000F907C8F4F093A507E093A407F901718321
:1038B00060830FC0CB010E94761A7C01009759F0FB
:1038C000A801BE010E94811CCE010E940E1BC701EF
:1038D00004C0CE0102C080E090E0DF91CF911F9143
:1038E0000F91FF90EF90DF90CF90BF90AF909F909F
:1038F0008F907F906F90089581E090E0F8940C9401
:10390000911CFB01DC0102C001900D92415050401E
:10391000D8F70895FB01DC0101900D920020E1F73A
:10392000089511E0C4E9D1E000E006C0802FFE0157
:103930000E9454192196011DC539D10780E008075E
:06394000A9F7F894FFCF87
:10394600FF010000000000A8072000363738391BA9
:103956001D1A1C00000000550228021C0CFC012048
:10396600020C02FD01000000004B07D006FA069883
:1039760007DF0B09071D0700000000200CD0061CFE
:103986000C1B0C0D0A00496E76616C696420736528
:1039960072766F2069642100536572766F20616EBE
:1039A600676C65206973206F7574206F662072617D
:1039B6006E67652100466F756E642073656E736F62
:1039C60072004E6F20544353333437323520666FBE
:1039D600756E64202E2E2E20636865636B20796FCA
:1039E600757220636F6E6E656374696F6E73004DDA
:1039F6004F563A2000496E76616C6964206D6F748B
:083A06006F72206964210000C9
:00000001FF
