:100000000C94B2010C94E3010C94E3010C94E30111
:100010000C94E3010C94E3010C94E3010C94E301D0
:100020000C94E3010C949D0E0C949D0E0C949D0E6B
:100030000C94E3010C940F040C94E3010C94E30181
:100040000C94E3010C94A8070C94E3010C94E301D5
:100050000C94E3010C94E3010C94E3010C949110D3
:100060000C94E3010C947E050C9454050C94E3016C
:100070000C94E3010C94E3010C94E3010C94E30170
:100080000C94E3010C94E3010C94E3010C94E30160
:100090000C94E3010C94E3010C94E3010C946208CA
:1000A0000C94E3010C94E3010C94E3010C94E30140
:1000B0000C94E3010C94E3010C94E3010C94A80567
:1000C0000C94E3010C94E3010C94E3010C942A05D5
:1000D0000C9400050C94E3010C94D6040C94AC042D
:1000E0000C94E301630A660A550A590A5F0A9D0ADD
:1000F0006A0A6E0A740A780A7C0A820A860A8A0ADE
:100100009D0A900A940A980A8C0F910F960FA00FDF
:10011000AA0F2310B40FBC0FC40FCE0FD80FE20FDD
:10012000F10FFB0F231005100F1019100C947C0A0F
:100130000C94980A0C948B030C94600F0C945E033F
:100140000C94740A0C9440020C946A0A0C943202C7
:100150000C94590A0C94CE0F0C94D9020C945F0A9B
:100160000C941E020C94E7030C94550A0C940F1087
:100170000C94C40F0C945D030C94D80F0C94EA03F8
:100180000C946E0A0C948C0F0C948C020C94AA0F95
:100190000C948A0A0C94820A0C94E5010C946F0367
:1001A0000C9483030C94900A0C94FB0F0C940F0294
:1001B0000C94F10F0C948A1A0C94A00F0C94E20F7B
:1001C0000C94910F0C9460030C94780A0C94BC0F5F
:1001D0000C945F030C94660A0C94960F0C94630ABB
:1001E0000C94940A0C94B40F0C9423100C941A17CA
:1001F0000C94860A0C9405100C949D0A0C94B80378
:100200000C9419104E414E494E495459494E46CD11
:10021000CCCC3D0AD7233C17B7D13877CC2B3295BD
:1002200095E6241FB14F0A000020410000C842009B
:10023000401C4620BCBE4CCA1B0E5AAEC59D740263
:1002400000002100240027002A002D003000330088
:1002500001010000040107010A010000220025003D
:1002600028002B002E00310034000201000005019F
:1002700008010B01000020002300260029002C00AB
:100280002F003200000100000301060109010505ED
:100290000505070508080808020202020A0A0808FC
:1002A000040404040101010101010101030303032A
:1002B00003030303040707070C0C0C0C0C0C0C0CB9
:1002C0000202020206060606060606060B0B0B0BCA
:1002D0000B0B0B0B010210202008081020401020EF
:1002E00040800201020108040201010204081020FA
:1002F00040808040201008040201800402018040F8
:100300002010080402010804020101020408102060
:100310004080010204081020408000000A0B0209FE
:100320000C0D0E080703040100000000000000008F
:1003300000000000000000000000000000000000BD
:10034000000000000000121110000000000000007A
:10035000000000000000000000000000000000009D
:100360008A1A1A1711241FBECFEFD1E2DEBFCDBF0C
:1003700000E00CBF14E0A0E0B2E0E4EFF6E400E03F
:100380000BBF02C007900D92A235B107D9F729E043
:10039000A2E5B4E001C01D92AA31B207E1F711E075
:1003A000C1EBD1E000E006C021970109802FFE01DA
:1003B0000E941D20C03BD10780E00807A9F70E94DA
:1003C00020170C9468230C940000CF92DF92EF92D8
:1003D000FF920F931F93CF93DF936C017A018B01F0
:1003E000C0E0D0E0CE15DF0581F0D8016D918D0120
:1003F000D601ED91FC910190F081E02DC601199597
:10040000892B11F02196EECF7E01C701DF91CF91AC
:100410001F910F91FF90EF90DF90CF900895FC0116
:10042000538D448D252F30E0842F90E0821B930B59
:10043000541710F0CF96089501970895FC01918DFF
:10044000828D981761F0828DDF01A80FB11D5D9636
:100450008C91928D9F5F9F73928F90E008958FEFA4
:100460009FEF0895FC01918D828D981731F0828D58
:10047000E80FF11D858D90E008958FEF9FEF0895AF
:10048000FC01918D228D892F90E0805C9F4F821B13
:1004900091098F73992708958DE195E00E9440029C
:1004A00021E0892B09F420E0822F08958AEB95E062
:1004B0000E94400221E0892B09F420E0822F089558
:1004C00087E596E00E94400221E0892B09F420E0B4
:1004D000822F0895FC01848DDF01A80FB11DA35A5E
:1004E000BF4F2C91848D90E001968F739927848F54
:1004F000A689B7892C93A089B1898C918370806477
:100500008C93938D848D981306C00288F389E02D17
:1005100080818F7D80830895EF92FF920F931F93C8
:10052000CF93DF93EC0181E0888F9B8D8C8D9813A6
:1005300005C0E889F989808185FD26C0F62E0B8DDE
:1005400010E00F5F1F4F0F731127E02E8C8DE81204
:100550000CC00FB607FCFACFE889F989808185FFC6
:10056000F5CFCE010E946A02F1CF8B8DFE01E80F1C
:10057000F11DE35AFF4FF0829FB7F8940B8FEA8981
:10058000FB89808180620AC09FB7F894EE89FF8959
:100590006083E889F98980818370806480839FBF4C
:1005A00081E090E0DF91CF911F910F91FF90EF904C
:1005B0000895CF93DF93EC01888D8823C9F0EA89F1
:1005C000FB89808185FD05C0A889B9898C9186FD4C
:1005D0000FC00FB607FCF5CF808185FFF2CFA88949
:1005E000B9898C9185FFEDCFCE010E946A02E7CFD9
:1005F000DF91CF910895E0E0F0E0199480E090E081
:10060000892B21F00E946002811119C080E090E0E6
:10061000892B41F080E090E0892B21F00E940000BE
:10062000811110C00E94560281110FC080E090E03D
:10063000892B81F00E944C0281110AC008950E940A
:100640000000E4CF0E940000EDCF0E94FB02EECF3D
:100650000C940000089585ED8093BC008091BC004F
:1006600084FDFCCF1092E904089540919804262F50
:1006700030E0240F311D21323105DCF42091E904F2
:100680002430C9F4FC0180E090E0861758F43091E2
:1006900098042191DC01AA58BB4FA30FB11D2C93E4
:1006A0000196F3CF80919804680F6093980480E0DE
:1006B000089581E0089582E00895089508950895C9
:1006C000E091EB048091EA04E81730F4F0E0E451A3
:1006D000FB4F808190E008958FEF9FEF08959091F8
:1006E000EB048091EA04981750F4E92FF0E0E4510C
:1006F000FB4F208130E09F5F9093EB0402C02FEF0F
:100700003FEFC90108958091EA0490E02091EB0445
:10071000821B91090895CF92DF92EF92FF920F937F
:100720001F93CF93DF937C01CB018A012091730447
:10073000222389F0EB016B01C40ED51ECC15DD051B
:1007400069F06991D701ED91FC910190F081E02D64
:10075000C7011995F3CF642F0E943503C801DF91BB
:10076000CF911F910F91FF90EF90DF90CF90089560
:10077000CF93DF931F92CDB7DEB7698320917304C7
:100780002223D1F020917404203240F021E030E0A7
:10079000FC013383228380E090E015C080917504D2
:1007A000E82FF0E0ED5AFB4F998190838F5F8093A3
:1007B00075048093740405C061E0CE0101960E9427
:1007C000350381E090E00F90DF91CF91089580E0B4
:1007D00090E008950F931F93CF93DF938C01C62F62
:1007E000D62FD07FD1606D2F0E94580E6D2FC8017B
:1007F0000E946F0E80E1C89FB0011124C62FC16016
:100800006C2FC8010E94580E6C2FC8010E946F0EF9
:1008100081E090E0DF91CF911F910F9108951F9299
:100820000F920FB60F9211240BB60F922F933F9396
:100830004F935F936F937F938F939F93AF93BF93E8
:10084000EF93FF938091BF049091C004A091C104E5
:10085000B091C204892B8A2B8B2B49F19091BE0455
:10086000809100008927809300008091BF049091BF
:10087000C004A091C104B091C204181619061A064A
:100880001B060CF056C08091BF049091C004A0914B
:10089000C104B091C2040197A109B1098093BF04BA
:1008A0009093C004A093C104B093C20442C080914D
:1008B0000002EFE3F2E0E4919FEF90930002E23058
:1008C000C9F050F4EE2399F0E13081F590916F007A
:1008D0009D7F90936F002AC0E43019F1E0F0E5307D
:1008E00029F5909173009D7F909373001FC0109223
:1008F0006E001CC0909170009D7F9093700091E0FD
:100900009093B0009091B100987F94609093B10063
:100910001092B3000BC0909171009D7F9093710075
:1009200005C0909172009D7F9093720060E00E94DC
:10093000D00EFF91EF91BF91AF919F918F917F91D9
:100940006F915F914F913F912F910F900BBE0F9040
:100950000FBE0F901F9018951F920F920FB60F9217
:1009600011240BB60F922F933F934F935F936F9386
:100970007F938F939F93AF93BF93EF93FF938DE1FB
:1009800095E00E946A02FF91EF91BF91AF919F9114
:100990008F917F916F915F914F913F912F910F9028
:1009A0000BBE0F900FBE0F901F9018951F920F92C5
:1009B0000FB60F9211240BB60F922F933F934F93C4
:1009C0005F936F937F938F939F93AF93BF93EF93B7
:1009D000FF938DE195E00E94840EFF91EF91BF910E
:1009E000AF919F918F917F916F915F914F913F91C7
:1009F0002F910F900BBE0F900FBE0F901F90189568
:100A00001F920F920FB60F9211240BB60F922F93D5
:100A10003F934F935F936F937F938F939F93AF9386
:100A2000BF93EF93FF938AEB95E00E946A02FF91D8
:100A3000EF91BF91AF919F918F917F916F915F9156
:100A40004F913F912F910F900BBE0F900FBE0F90C3
:100A50001F9018951F920F920FB60F9211240BB68C
:100A60000F922F933F934F935F936F937F938F9347
:100A70009F93AF93BF93EF93FF938AEB95E00E9410
:100A8000840EFF91EF91BF91AF919F918F917F91D4
:100A90006F915F914F913F912F910F900BBE0F90EF
:100AA0000FBE0F901F9018951F920F920FB60F92C6
:100AB00011240BB60F922F933F934F935F936F9335
:100AC0007F938F939F93AF93BF93EF93FF9387E5AC
:100AD00096E00E946A02FF91EF91BF91AF919F91C2
:100AE0008F917F916F915F914F913F912F910F90D7
:100AF0000BBE0F900FBE0F901F9018951F920F9274
:100B00000FB60F9211240BB60F922F933F934F9372
:100B10005F936F937F938F939F93AF93BF93EF9365
:100B2000FF9387E596E00E94840EFF91EF91BF91BD
:100B3000AF919F918F917F916F915F914F913F9175
:100B40002F910F900BBE0F900FBE0F901F90189516
:100B50001F920F920FB60F9211240BB60F922F9384
:100B60003F934F935F936F937F938F939F93AF9335
:100B7000BF93EF93FF938091F5060E94A70E2091FB
:100B8000F9063091FA062F5F3F4F3093FA06209313
:100B9000F9069091F806953618F096E09093F406D1
:100BA0009091F4069430C9F128F4923069F09330B2
:100BB000D1F05EC0953009F451C0963009F058C0AC
:100BC00091E09093C50751C0811152C02091F90660
:100BD0003091FA062436310508F442C01092C50758
:100BE0001092F8061CC0813009F042C0E091F8066E
:100BF00091E09E0F9093F806F0E02091F906309175
:100C0000FA06EE0FFF1FEC50F94F30872783109242
:100C1000FA061092F90694E029C0811117C0E091FC
:100C2000F80691E09E0F9093F806F0E02091F90607
:100C30003091FA06EE0FFF1FEC50F94F30872783F3
:100C40001092FA061092F90693E010C02091F9066E
:100C50003091FA062536310558F007C0811108C0D9
:100C60001092FA061092F90603C095E09093F406EC
:100C70009091F7069923B9F081110AC08091F60688
:100C8000882321F08091F60661E009C02F9A0BC0FD
:100C90008091F606882331F08091F60660E00E948C
:100CA000D00E01C02F98FF91EF91BF91AF919F910E
:100CB0008F917F916F915F914F913F912F910F9005
:100CC0000BBE0F900FBE0F901F9018958F929F92A2
:100CD000AF92BF92CF92DF92EF92FF920F931F934A
:100CE000CF93DF93EC016A017B0120E030E04FE716
:100CF00053E4C701B6010E94D91E4B015C0120E0FC
:100D000030E0A9010E943A2118161CF4C501B40173
:100D100003C0C501B40190580E9404218B0120E05A
:100D200030E0A901C701B6010E943A21181614F457
:100D300060E001C061E089810E94D00E0F3F110583
:100D400009F01CF4B801772702C06FEF70E08881CA
:100D5000DF91CF911F910F91FF90EF90DF90CF9097
:100D6000BF90AF909F908F900C94630F8EBD00004A
:100D70000DB407FEFDCF8EB50895CF93DF93EC0140
:100D800060E088810E94D00E88E90E94B60680E06B
:100D90000E94B60680E00E94B60680E00E94B60679
:100DA00080E00E94B60661E088810E94D00E8BE848
:100DB00091E00197F1F760E088810E94D00E80EE0B
:100DC0000E94B60661E08881DF91CF910C94D00E2D
:100DD000AF92BF92CF92DF92EF92FF920F931F9349
:100DE000CF93DF93CDB7DEB760970FB6F894DEBF31
:100DF0000FBECDBF5C0160E0FC0180810E94D00E7F
:100E000080E60E94B6068E010F5F1F4F7E01F1E162
:100E1000EF0EF11C680180E00E94B60690E0A0E0B1
:100E2000B0E0F60181939193A193B1936F01EE1518
:100E3000FF0589F761E0F50180810E94D00E80E016
:100E400090E0DC01F80141915191619171918F0124
:100E5000BA2FA92F982F8827840F951FA61FB71F79
:100E6000EE15FF0579F79C01AD0166277727CB01C9
:100E7000621B730B840B950B60960FB6F894DEBF64
:100E80000FBECDBFDF91CF911F910F91FF90EF90DB
:100E9000DF90CF90BF90AF9008951F93CF93DF93D3
:100EA000EC01162F88818C3008F04DC061E0812F55
:100EB0000E94FF0EE88195E09E9FF0011124EA5305
:100EC000F84F1F738081807C182B10831382E88178
:100ED0009E9FF0011124EA53F84F148288816CE040
:100EE0000E94FD1F9CE0899FA001112420E030E0BA
:100EF00095E0BA01620F731F969FF001979FF00D66
:100F00001124EA53F84F608166FD13C02F5F3F4FF5
:100F10002C30310571F781110CC01092800082E0F5
:100F200080938100109285001092840086BB80938C
:100F30006F00E88185E0E89FF0011124EA53F84F43
:100F40008081806480838881DF91CF911F91089593
:100F50001F920F920FB60F9211240BB60F922F9380
:100F60003F934F935F936F937F938F939F93AF9331
:100F7000BF93EF93FF938091BD0487FF05C010924C
:100F800085001092840016C02091BD04022E000C32
:100F9000330B8091020890E0281739075CF43091F8
:100FA000BD0425E03203F0011124EA53F84F80819B
:100FB00086FD15C08091BD048F5F8093BD04209194
:100FC000BD04022E000C330B8091020890E028171C
:100FD000390794F48091BD048C302CF10DC0309110
:100FE000BD043203F0011124EA53F84F808160E020
:100FF0008F730E94D00EDECF809184009091850087
:1010000084349C4918F480E49CE905C080918400F4
:1010100090918500049690938900809388008FEFCB
:101020008093BD042AC04091840050918500309186
:10103000BD0425E03203F0011124EA53F84F818109
:101040009281840F951F909389008093880030913E
:10105000BD043203F0011124EA53F84F808186FF6A
:101060000CC03091BD043203F0011124EA53F84F53
:10107000808161E08F730E94D00EFF91EF91BF914C
:10108000AF919F918F917F916F915F914F913F9120
:101090002F910F900BBE0F900FBE0F901F901895C1
:1010A000823030F063E472E087E596E00C94C0147F
:1010B000813009F4705890E0880F991F8D5D974F2B
:1010C0000C9466061F920F920FB60F9211240BB666
:1010D0000F922F933F934F935F936F937F938F93D1
:1010E0009F93AF93BF93EF93FF938091B900887F55
:1010F000803609F49CC068F5883209F45BC090F42E
:10110000803109F454C038F4882309F4F6C08830DB
:1011100009F44DC0F6C0883109F44CC0803209F49E
:101120005DC0EFC0803409F468C048F4803309F42E
:1011300055C0883309F0E5C08093E704D8C08035F6
:1011400009F44FC0883509F45DC0883409F0D9C06E
:10115000D6C0883909F4C7C0A8F4883709F467C035
:1011600038F4883609F463C0803709F460C0C9C018
:10117000883809F4B8C0803909F45FC0803809F0B4
:10118000C0C05BC0803B09F486C038F4803A09F4E3
:1011900066C0883A09F47FC0B4C0803C09F4A7C097
:1011A000883C09F4A4C0883B09F48AC0AAC0809195
:1011B000E40410C09091E6048091E504981770F55E
:1011C000E091E60481E08E0F8093E604F0E0ED53B9
:1011D000FB4F80818093BB0085EC86C08093E70441
:1011E0008EC0E091E60481E08E0F8093E60480914A
:1011F000BB00F0E0ED53FB4F80839091E6048091BB
:10120000E5046EC0E091E60481E08E0F8093E60471
:101210008091BB00F0E0ED53FB4F80838091E804A8
:1012200081116DC081E08093E30484EA61C083E0B2
:101230008093E9041092BC04CFCF8091BC0480322B
:1012400008F051C0E091BC0481E08E0F8093BC0493
:101250008091BB00F0E0E456FB4F8083BDCF85EC6E
:101260008093BC001092E9048091BC04803230F479
:10127000E091BC04F0E0E456FB4F10826091BC04A6
:1012800070E0E0919A04F0919B048CE994E0199548
:101290001092BC0436C084E08093E9041092990453
:1012A00010929804E0919604F0919704199580911A
:1012B0009804811105C081E080939804109276040F
:1012C000E091990481E08E0F80939904F0E0EA5850
:1012D000FB4F80818093BB0090919904809198048A
:1012E000981708F479CF85E88093BC000AC085EC94
:1012F0008093BC001092E90404C01092E7040E949D
:101300002B03FF91EF91BF91AF919F918F917F91AF
:101310006F915F914F913F912F910F900BBE0F9066
:101320000FBE0F901F90189530917404313208F061
:101330004BC08091E9048111FCCF9091520422E0CE
:101340002093E90421E02093E8042FEF2093E704A1
:101350001092E6043093E504E3E5F4E0A3ECB4E096
:1013600020E0321721F041914D932F5FFACF109278
:10137000E4042091E404990F922B9093E40490915B
:10138000E304913061F41092E3049091E4049093AB
:10139000BB009091BC0093FDF8CF95EC01C095EE99
:1013A0009093BC009091E9049230E1F39091E704AE
:1013B0009F3F79F08091E704803241F08091E7040B
:1013C000803331F084E005C081E003C082E001C0D9
:1013D00083E01092750410927404109273040895BF
:1013E00081E080937304609352041092750410920C
:1013F000740408951092EB041092EA04109275049C
:10140000109274041092E90481E08093E804109231
:10141000E30461E084E10E94D00E61E085E10E9476
:10142000D00EE9EBF0E080818E7F808380818D7F1C
:10143000808388E48093B80085E48093BC008DE5C8
:1014400093E090939704809396048EE593E09093B5
:101450009B0480939A040895CF93DF93EC0165E099
:1014600081E498E00E94F009CE010E94A91481E471
:1014700098E00E949409C82F65E572E087E596E040
:101480000E94BE148C2F90E0DF91CF910C94570BEB
:1014900090E0FC013197E231F10508F04EC0882759
:1014A000EE58FF4F8F4F0C941D20809180008F7756
:1014B00003C0809180008F7D80938000089580918B
:1014C0008000877FF9CF84B58F7702C084B58F7D88
:1014D00084BD08958091B0008F7703C08091B000E3
:1014E0008F7D8093B0000895809190008F7707C022
:1014F000809190008F7D03C080919000877F8093C2
:10150000900008958091A0008F7707C08091A0007F
:101510008F7D03C08091A000877F8093A0000895F5
:10152000809120018F7707C0809120018F7D03C0BB
:1015300080912001877F809320010895CF92DF92D0
:10154000EF92FF92CF93DF936B017C016DE287E511
:1015500096E00E948C02EC0144275527BA014C19F1
:101560005D096E097F092AE087E596E00E94D414A0
:101570008C0F9D1FDF91CF91FF90EF90DF90CF9068
:1015800008959091E9049111FCCF982F813208F0D1
:1015900090E281E08093E9048093E8042FEF2093A8
:1015A000E7041092E604290F2093E5048093E404F5
:1015B0008091E40482658093E4048091E3048130A7
:1015C00061F41092E3048091E4048093BB00809165
:1015D000BC0083FDF8CF85EC01C085EE8093BC0094
:1015E0008091E9048130E1F38091E604891710F4D9
:1015F0009091E604E3ECF4E0ACEEB4E080E089170F
:1016000021F021912D938F5FFACF1092EB048093FC
:10161000EA040895CF93DF93C82FD42F69E281E4C1
:1016200098E00E94F0098C2F806890E00E94A91435
:101630006D2F81E498E00E94B80381E498E0DF9187
:10164000CF910C9494090F931F930E94851060937F
:10165000C2057093C3058093C4059093C5058AEBBA
:1016600095E00E941E0297FF1FC00E948510009106
:10167000C2051091C3052091C4053091C505DC0158
:10168000CB01801B910BA20BB30B0091BE051091F7
:10169000BF052091C0053091C10580179107A207B1
:1016A000B307E8F28FEF9FEF1F910F910895CF934B
:1016B000DF93AC01990F660B770B77FF05C0CB0169
:1016C000BA010E949E0A05C02AE087E596E00E94C2
:1016D000D414EC016AE672E087E596E00E94AE144D
:1016E0008C0F9D1FDF91CF9108952F923F924F92C3
:1016F0005F926F927F928F929F92AF92BF92CF92A2
:10170000DF92EF92FF920F931F93CF93DF9300D05E
:1017100000D0CDB7DEB77C0181E089831E141F04A1
:101720000CF419829981692E712C6DE672E087E5BF
:1017300096E00E94BE1447010F2C000CAA08BB08BB
:10174000B7FE05C0C501B4010E949E0A07C02AE089
:10175000B501A40187E596E00E94D4146DE374E01E
:1017600087E596E00E94BE14C501B4010E947A1E6E
:1017700025E535E541EB51E40E94D91E0E94042184
:101780006B01CB010E94570B4AE959E969E17EE3FD
:1017900089810E94500881E01E141F040CF080E033
:1017A00040E050E0BA010E9450088301000F111F71
:1017B000035E1F4F065F174FC8010E94BD061E142F
:1017C0001F043CF4812C912C80E8A82E8FE3B82EC6
:1017D00003C0812C912C54011E821D8222243324AB
:1017E0002C183D08C301770CAA0BBB0B89839A8385
:1017F000AB83BC832D813E8137FF03C0319521959A
:101800003109C601D7FCC101281739070CF044C0C3
:1018100066E872E087E596E00E94BE148D819E81A5
:101820000E94570B6AE070E080E090E00E944B104D
:10183000C8011E141F0454F40E94E8069095809578
:10184000709561957F4F8F4F9F4F02C00E94E806B1
:101850007E836D832AE939E949E15EE3C501B4017C
:101860000E94D91E2B013C0169817A818B819C8168
:101870000E947A1E2AE939E949E15EE30E94D91EF5
:10188000A30192010E944B118111B4CF6CE872E068
:1018900087E596E00E94C01426960FB6F894DEBF46
:1018A0000FBECDBFDF91CF911F910F91FF90EF90B1
:1018B000DF90CF90BF90AF909F908F907F906F9070
:1018C0005F904F903F902F900C943C1162E972E032
:1018D00087E596E00E94BE1480912B080E942C1090
:1018E000AC0160E070E02AE087E596E00E94D41445
:1018F0006AE672E087E596E00E94AE1480912B08BC
:101900000E942C1021E08C32914008F420E0822FBC
:101910000895CF93DF93C82F69E281E498E00E9495
:10192000F0098C2F806890E00E94A91481E498E06F
:101930000E94940982E090E00E94C10A81E498E04C
:101940000E946F03EC0181E498E00E946F0320E0A5
:1019500030E0382FCE01822B932BDF91CF91089569
:10196000CF92DF92EF92FF92CF93DF93823018F005
:1019700067E972E00AC090913508691720F09091EC
:101980003608961760F469EA72E087E596E0DF9121
:10199000CF91FF90EF90DF90CF900C94C014E82F80
:1019A000F0E0E55DF74FC089CC3008F072C0262F1B
:1019B00030E0D0E085E08C9FF0018D9FF00D112488
:1019C000EA53F84F8381283C31059CF528E830E044
:1019D0006901C81AD10887FDD394CC0CDD1CCC0C4E
:1019E000DD1C0D2C000CEE08FF08848128E532E098
:1019F000281B310987FD3395220F331F220F331F18
:101A0000C901330FAA0BBB0B9C01AD012C193D0979
:101A10004E095F09A62FB0E00E94B91F24EB30E009
:101A200040E050E00E949A1FC20ED31EE41EF51E35
:101A30001EC048E850E06A01C81AD10887FDD39457
:101A4000CC0CDD1CCC0CDD1C2C153D0584F0448138
:101A500088E592E0841B910947FD9395880F991FB3
:101A6000880F991F69018C159D050CF46C018FB7C7
:101A7000F89495E09C9FF0019D9FF00D1124EA538E
:101A8000F84F96E0C91AD108CC0CDD1CD282C18275
:101A90008FBFDF91CF91FF90EF90DF90CF900895AF
:101AA000CF93DF9381E498E00E94FA0969E281E430
:101AB00098E00E94F00982E990E00E94A91481E474
:101AC00098E00E94940981E090E00E94C10A81E4BC
:101AD00098E00E946F03843411F08031D1F581E0E9
:101AE00080934D08C0915008D0915108AE0160E03C
:101AF00070E00E940A0BD0935108C0935008C09127
:101B00004E08D0914F0880914D08811102C00E946B
:101B1000500DAE0160E070E08FE00E940A0BD093A0
:101B20004F08C0934E0841E050E060E070E080E074
:101B30000E940A0B63E070E080E090E00E944B108E
:101B400043E050E060E070E080E00E940A0B81E03A
:101B500001C080E0DF91CF910895FF920F931F9312
:101B6000CF93DF93F82E162F072FCAE0D8E06C85AD
:101B70008A859B850E94F0098A859B85DC01ED9111
:101B8000FC910190F081E02D6F2D19958A859B8540
:101B9000DC01ED91FC910190F081E02D602F199511
:101BA0008A859B85DC01ED91FC910190F081E02D0F
:101BB000612F19958A859B85DF91CF911F910F9198
:101BC000FF900C9494090F931F93CF93DF93EC0134
:101BD0008B010E9415112881398181110DC02115B9
:101BE000310519F0C9010E94DC21198218821D8279
:101BF0001C821B821A8207C01D830C836CE672E074
:101C0000C9010E946123CE01DF91CF911F910F91F5
:101C10000895CF92DF92EF92FF920F931F93CF938D
:101C2000DF931F921F92CDB7DEB78C01C62EFC0149
:101C300011821082138212821582148260E070E099
:101C40000E94E30D0E94230B0C2C000CDD0897FD75
:101C500023C08C159D0501F189831A82F801E48067
:101C6000F580FFEFEF1AFF0AB701C8010E941511B6
:101C7000882379F0F8012081318184819581BE012A
:101C80006F5F7F4F820F931F0E946123F801F582DF
:101C9000E4820E94230BDBCFC8010F900F90DF91ED
:101CA000CF911F910F91FF90EF90DF90CF9008950B
:101CB0001F93CF93DF93EC01162F6C8181E498E0A2
:101CC0000E94F0096C85812F862B90E00E94A91458
:101CD00081E498E0DF91CF911F910C9494090F93C8
:101CE0001F93CF938C01C62F64600E94580E6C2FF7
:101CF0006B7FC8010E94580E83EC90E00197F1F7CA
:101D0000CF911F910F910895FC01A089B1898C9109
:101D1000A689B78982FD0FC09C91818D8F5F8F73DB
:101D2000228D821749F0218DDF01A20FB11D5D9632
:101D30009C93818F08958C9108951F920F920FB6F6
:101D40000F9211240F900FBE0F901F901895CF93F4
:101D5000DF93282F30E0F901E65EFC4F8491F90112
:101D6000EC52FD4FD491F901E257FD4FC491CC23C1
:101D700091F081110E94480AEC2FF0E0EE0FFF1F56
:101D8000EC58FD4FA591B491EC91ED2381E090E0EA
:101D900021F480E002C080E090E0DF91CF910895CF
:101DA0001F93CF93DF93282F30E0F901E65EFC4FBD
:101DB0008491F901EC52FD4FD491F901E257FD4FA6
:101DC000C491CC23C1F0162F81110E94480AEC2F38
:101DD000F0E0EE0FFF1FE65AFD4FA591B4919FB7BB
:101DE000F894111104C08C91D095D82302C0EC91C5
:101DF000DE2BDC939FBFDF91CF911F910895CF938E
:101E0000DF9390E0FC01EC52FD4F2491FC01E2577E
:101E1000FD4F8491882361F190E0880F991FFC01A8
:101E2000E05CFD4FC591D491FC01E65AFD4FA591B0
:101E3000B491611109C09FB7F894888120958223DD
:101E40008883EC912E230BC0623061F49FB7F89425
:101E50008881322F309583238883EC912E2B2C930D
:101E60009FBF06C08FB7F894E8812E2B28838FBFC1
:101E7000DF91CF9108953FB7F89480911905909123
:101E80001A05A0911B05B0911C0526B5A89B05C09D
:101E90002F3F19F00196A11DB11D3FBFBA2FA92FE9
:101EA000982F8827820F911DA11DB11DBC01CD0166
:101EB00042E0660F771F881F991F4A95D1F7089552
:101EC00008950E944A231F93CF93DF93182FEB01AD
:101ED00061E00E94FF0E209711F460E004C0CF3F44
:101EE000D10539F461E0812FDF91CF911F910C94DE
:101EF000D00EE12FF0E0E65EFC4FE4918E2F90E0F3
:101F0000FC013197E231F10508F09DC08827EC57BC
:101F1000FF4F8F4F0C941D2084B5806884BDC7BDD2
:101F200097C084B5806284BDC8BD92C08091800096
:101F3000806880938000D0938900C093880088C017
:101F400080918000806280938000D0938B00C0934A
:101F50008A007EC080918000886080938000D0934A
:101F60008D00C0938C0074C08091B0008068809315
:101F7000B000C093B3006CC08091B00080628093C9
:101F8000B000C093B40064C08091900080688093DA
:101F90009000D0939900C09398005AC0809190000F
:101FA000806280939000D0939B00C0939A0050C0B1
:101FB00080919000886080939000D0939D00C093A2
:101FC0009C0046C08091A00080688093A000809112
:101FD000A0008F7B8093A000D093A900C093A8009D
:101FE00037C08091A00080628093A000D093AB00A6
:101FF000C093AA002DC08091A00088608093A000AB
:10200000D093AD00C093AC0023C0809120018068C4
:1020100080932001D0932901C093280119C0809199
:102020002001806280932001D0932B01C0932A016C
:102030000FC080912001886080932001D0932D01F2
:10204000C0932C0105C0C038D1050CF04BCF45CF53
:10205000DF91CF911F910895863308F086539091B8
:102060007B00282F2870977F922B90937B0087709E
:10207000806480937C0080917A00806480937A00F1
:1020800080917A0086FDFCCF8091780020917900C4
:1020900090E0922B08958F929F92AF92BF92CF9231
:1020A000DF92EF92FF926B017C010E943B0F4B018C
:1020B0005C01C114D104E104F104F1F00E943B0F72
:1020C000DC01CB0188199909AA09BB09883E934014
:1020D000A105B10570F321E0C21AD108E108F108A9
:1020E00088EE880E83E0981EA11CB11CC114D10497
:1020F000E104F10419F7DDCFFF90EF90DF90CF906E
:10210000BF90AF909F908F9008952FB7F8946091F3
:1021100015057091160580911705909118052FBF30
:1021200008951F920F920FB60F9211242F933F9391
:102130008F939F93AF93BF93809115059091160550
:10214000A0911705B09118053091140523E0230FD5
:102150002D3720F40196A11DB11D05C026E8230FDF
:102160000296A11DB11D209314058093150590932F
:102170001605A0931705B093180580911905909145
:102180001A05A0911B05B0911C050196A11DB11D5A
:102190008093190590931A05A0931B05B0931C0515
:1021A000BF91AF919F918F913F912F910F900FBE53
:1021B0000F901F9018950F931F93CF93DF938C016F
:1021C000EB01FC0180819181009739F06881798170
:1021D00061157105A1F40E94DC2188819981F801C3
:1021E000918380838A819B81938382838C819D816B
:1021F00095838483198218821B821A820FC0F8018A
:10220000428153812C813D814217530720F30E9464
:1022100061238C819D81F801958384831D821C82BA
:10222000DF91CF911F910F9108950F931F93CF933B
:10223000DF93EC0188819981009729F02A813B8105
:102240002617370788F48B016F5F7F4F0E94652246
:10225000009761F0998388831B830A832C813D81D9
:10226000232B11F4FC01108281E001C080E0DF919A
:10227000CF911F910F91089540E050E0BA0183E2A1
:1022800098E00E94660640E050E060E070E885E279
:1022900098E00C9466064F925F926F927F928F92B5
:1022A0009F92AF92BF92CF92DF92EF92FF920F93E5
:1022B0001F93CF93DF93CDB7DEB72C970FB6F8946B
:1022C000DEBF0FBECDBF6B017C0149015A0167E142
:1022D00073E087E596E00E94C0140E94660C882394
:1022E00039F16BE173E087E596E00E94C0140E942B
:1022F0003C1187E090E00E942C0A68E780E00E9491
:10230000B00C60ED77E080E090E00E944B1060E060
:1023100080E00E94B00C68EE73E080E090E00E94E4
:102320004B100E94660C01E08027082F10E002C0CD
:102330000FEF1FEF6FE173E087E596E00E94BE1498
:10234000C8010E94570B0F3F8FEF180771F1013042
:10235000110561F4B701A60183E298E00E946606C8
:10236000B501A40181E00E9450081FC062E373E040
:1023700087E596E00E94C01420E030E0A901C70183
:10238000B6010E94731E882321F0C701B601905840
:1023900004C06DEC7CEC8CEC9DEB20E030E040E286
:1023A00051E40E940E1680E05AC267E373E087E5AD
:1023B00096E00E94C0146CE370E080E090E00E9420
:1023C0004B1069E281E498E00E94F00981E498E012
:1023D0000E949409082F10E00115110549F564E5E4
:1023E00073E087E596E00E94BE1484E10E94890CA8
:1023F00061ED72E087E596E00E94BE1486E10E94DE
:10240000890C61E773E087E596E00E94BE1488E1DD
:102410000E94890C69E281E498E00E94F00981E45D
:1024200098E00E949409082F10E00115110551F061
:102430006BE373E087E596E00E94BE14C8010E943A
:10244000570B0FC066E573E087E596E00E94C01465
:102450008AE10E94890C68E573E087E596E00E94B6
:10246000C0146CE573E087E596E00E94C014712CFF
:10247000AA24A394B12C60E673E08AEB95E00E9455
:10248000C01468EE73E080E090E00E944B108AEB8D
:1024900095E00E944002892B09F471C163E773E063
:1024A00087E596E00E94C0146BE3CE0107960E9478
:1024B000090ECF80D884C114D104E9F10B851C85A5
:1024C00001151105C1F176014701EFEF8E1A9E0A41
:1024D000F7018081082E000C990B0E94521E892B57
:1024E00011F07401F1CF015011090C0D1D1DF801FF
:1024F0008081082E000C990B0E94521E892B31F00E
:102500000E151F0518F001501109F1CFA8014F5FFA
:102510005F4F4E195F095C874B87CE14DF0420F4B0
:10252000B701C6010E944F23EF81F8858B859C85FA
:10253000E80FF91F10828B859C85892B09F40EC149
:102540000F8118856EE873E0C8010E945823892B1B
:1025500009F0DFC065E873E08AEB95E00E94C014E3
:102560006BE3CE0101960E94090EBE016F5F7F4FA3
:10257000CE0107960E94DB1089819A810E94DC219E
:102580008F819885009729F00E94F21C2B013C0155
:1025900003C0412C512C320161E973E08AEB95E0D4
:1025A0000E94BE14B301A2018AEB95E00E94F915C6
:1025B0006AE0CE0101960E94090EBE016F5F7F4F57
:1025C000CE0107960E94DB1089819A810E94DC214E
:1025D0008F819885009729F00E94F21C7B018C0165
:1025E00004C0E12CF12C00E010E069E973E08AEB13
:1025F00095E00E94BE14A701B8018AEB95E00E9405
:10260000F9158AEB95E00E94D90261EA73E087E54B
:1026100096E00E94C01420E030E0A901C301B2019D
:102620000E94731E87FF1DC0C301B2010E940421D6
:102630009B0177FF04C022273327261B370BB501E8
:10264000621B730B072E000C880B990B0E947A1EDD
:102650009701A8010E94D91E470168017B018C01E6
:102660001AC0C301B2010E9404219B0177FF04C07C
:1026700022273327261B370BB501621B730B072E4E
:10268000000C880B990B0E947A1E9701A8010E94EA
:10269000D91E4B016C0169EA73E087E596E00E9460
:1026A000BE1422E0A701B80187E596E00E941D153F
:1026B00067EB73E087E596E00E94BE1422E0A40178
:1026C000B60187E596E00E941D152DEC3CEC4CE42C
:1026D0005EE3B701C8010E94D91EAB01BC0183E2D1
:1026E00098E00E9466062DEC3CEC4CE45EE3B401FD
:1026F000C6010E94D91EAB01BC0181E00E945008B6
:1027000068EC70E080E090E00E944B1077247394B6
:1027100030C060EC73E0C8010E945823892B29F473
:1027200085E090E00E942C0A24C066EC73E0C801AA
:102730000E945823892BE9F06BEC73E0C8010E94DA
:102740005823892B59F483E090E00E942C0A6AED0B
:1027500073E087E596E00E94BE140BC062EF73E061
:1027600087E596E00E94C0148F8198850E94DC2145
:1027700006C08F8198850E94DC2171107CCE86E393
:102780000E942C107C0187E30E942C108C0168ECC5
:1027900070E080E090E00E944B1086E30E942C10D5
:1027A0006C0187E30E942C10081B190BEC18FD0824
:1027B000F9E1EF0EF11C83E3E816F10430F4075E53
:1027C0001F4F0333110508F444C06AEF73E087E537
:1027D00096E00E94C01484E090E00E942C0A6FEF03
:1027E00070E082E00E94630F68EE73E080E090E0AA
:1027F0000E944B1068EC70E082E00E94630F64EF6F
:1028000071E080E090E00E944B1066E970E082E0A9
:102810000E94630F64EF71E080E090E00E944B1033
:1028200065E081E498E00E94F00981E090E00E9478
:10283000A91481E498E00E949409182F64E074E0E0
:1028400087E596E00E94BE14812F90E00E94570B0E
:1028500005C060E070E082E00E94630F81E02C968A
:102860000FB6F894DEBF0FBECDBFDF91CF911F91A1
:102870000F91FF90EF90DF90CF90BF90AF909F901F
:102880008F907F906F905F904F900895CF92DF92DE
:10289000EF92FF92CF93DF93EC016A017B01E8890D
:1028A000F98982E080834115514E61057105B1F0CF
:1028B00060E079E08DE390E0A70196010E94CC1FD3
:1028C000DA01C9010197A109B109B695A7959795B4
:1028D00087959C01211580E13807A8F0E889F989DE
:1028E000108260E874E88EE190E0A70196010E94F2
:1028F000CC1FDA01C9010197A109B109B695A795C5
:10290000979587959C01EC85FD853083EE85FF8545
:102910002083188EEC89FD8986E08083EA89FB8913
:10292000808180618083EA89FB89808188608083DF
:10293000EA89FB89808180688083EA89FB898081BC
:102940008F7D8083DF91CF91FF90EF90DF90CF90CC
:102950000895682F81E498E00C94B803611571051F
:1029600051F0FB0101900020E9F73197AF01461BC0
:10297000570B0C94E50180E090E008950C94AE14A0
:102980000F931F93CF93DF93EC010E94AE148C0141
:102990006AE672E0CE010E94AE14800F911FDF91B3
:1029A000CF911F910F9108958F929F92AF92BF92F6
:1029B000EF92FF920F931F93CF93DF93CDB7DEB7C4
:1029C000A1970FB6F894DEBF0FBECDBF7C01FA0110
:1029D000CB0119A2223008F42AE08E010F5D1F4FAF
:1029E000822E912CA12CB12CBF01A50194010E9433
:1029F000CC1FF901CA01015011096A3014F4605D5D
:102A000001C0695CD8016C93232B242B252B61F723
:102A1000B801C7010E94AE14A1960FB6F894DEBFAC
:102A20000FBECDBFDF91CF911F910F91FF90EF901F
:102A3000BF90AF909F908F9008957F928F929F92BA
:102A4000AF92BF92CF92DF92EF92FF920F931F93BC
:102A5000CF93DF938C016A017B01722E9A01AB0147
:102A6000C701B6010E943F21882319F06EE174E08E
:102A700027C046015701E894B7F82FEF3FEF4FE723
:102A80005FE7C501B4010E943F2181110DC02FEF06
:102A90003FEF4FE75FE7C501B4010E94731E1816B0
:102AA0001CF462E274E00CC02FEF3FEF4FE75FE4ED
:102AB000C701B6010E943A21181694F466E274E048
:102AC000C801DF91CF911F910F91FF90EF90DF90A0
:102AD000CF90BF90AF909F908F907F900C94AE144A
:102AE0002FEF3FEF4FE75FECC701B6010E94731E67
:102AF00087FDE4CF20E030E0A901C701B6010E94C4
:102B0000731E87FF0AC06DE2C8010E948C02EC01AF
:102B1000F7FAF094F7F8F09402C0C0E0D0E0B12CDE
:102B200060E070E080E09FE37B1441F020E030E063
:102B300040E251E40E949220B394F6CFA70196019F
:102B40000E9426206B017C010E940B214B015C013D
:102B50002AE0AB01BC01C8010E94D414C80FD91FE0
:102B60007720C1F1C501B4010E94781E9B01AC0120
:102B7000C701B6010E9425206B017C016EE2C801ED
:102B80000E948C02C80FD91F20E030E040E251E4DF
:102B9000C701B6010E94D91E4B015C010E940B21A6
:102BA0006B01E12CF12C2AE0B701A601C8010E94BB
:102BB000D414C80FD91FC701B6010E94781E9B010B
:102BC000AC01C501B4010E9425206B017C017A94FF
:102BD0007110DACFCE01DF91CF911F910F91FF904D
:102BE000EF90DF90CF90BF90AF909F908F907F90AD
:102BF00008950F931F93CF93DF93EC0122E00E947F
:102C00001D158C016AE672E0CE010E94AE14800FA1
:102C1000911FDF91CF911F910F9108952F923F92B5
:102C20004F925F926F927F928F929F92AF92BF92DC
:102C3000CF92DF92EF92FF920F931F93CF93DF9388
:102C400000D000D0CDB7DEB78B018E839D836901A4
:102C50007A016AE274E087E596E00E94BE1422E001
:102C6000A8016E817D8187E596E00E941D156DE3C8
:102C700074E087E596E00E94BE14B701A60187E5DF
:102C800096E00E94F91587E298E00E94BD0689E26D
:102C900098E00E94BD0625E83BEA45E053E4C70101
:102CA000B6010E94D91E0E9404217A836983A8017B
:102CB0006E817D8183E298E00E946606A8016E81A4
:102CC0007D8181E00E9450080E9485104B015C01CB
:102CD0000E9485102B013C017801DE80CD80212CE3
:102CE000312C29813A813195219531093C832B83FF
:102CF000910137FE04C02227332722193309898125
:102D00009A8197FF02C08B819C81281739070CF0AC
:102D100078C084E690E0A0E0B0E084199509A609A7
:102D2000B709BC01CD01680D791D8A1D9B1D0E944C
:102D30004B100E9485104B015C0187E298E00E94D5
:102D4000E8069B01AC0188279927DC01821B930BC5
:102D5000A40BB50B280E391E20E030E0A901B70105
:102D60008D2D9C2D0E94262020E030E0A9010E949C
:102D700026207B01D82EC92E20E030E040E85FE31A
:102D80000E94731E87FD06C0E12CF12C80E8D82E2E
:102D90009FE3C92E0E9485102B013C0120E030E00A
:102DA000A901B8018E819D810E943A2118160CF06C
:102DB0009FCF97014D2D5C2DB8018E819D810E9482
:102DC0004B11811195CF6FE374E087E596E026966D
:102DD0000FB6F894DEBF0FBECDBFDF91CF911F912C
:102DE0000F91FF90EF90DF90CF90BF90AF909F90AA
:102DF0008F907F906F905F904F903F902F900C94AA
:102E0000BE1426960FB6F894DEBF0FBECDBFDF917D
:102E1000CF911F910F91FF90EF90DF90CF90BF90D7
:102E2000AF909F908F907F906F905F904F903F906A
:102E30002F90089580910308909104080C94DC2150
:102E4000789484B5826084BD84B5816084BD85B585
:102E5000826085BD85B5816085BD80916E00816091
:102E600080936E0010928100809181008260809337
:102E70008100809181008160809381008091800039
:102E80008160809380008091B10084608093B10064
:102E90008091B00081608093B00080919100826049
:102EA0008093910080919100816080939100809146
:102EB00090008160809390008091A1008260809357
:102EC000A1008091A10081608093A1008091A00069
:102ED00081608093A0008091210182608093210114
:102EE0008091210181608093210180912001816086
:102EF0008093200180917A00846080937A00809191
:102F00007A00826080937A0080917A008160809359
:102F10007A0080917A00806880937A001092C100D4
:102F200040E855E260E070E087E596E00E944614D4
:102F300061E080910B080E94FF0E60E080910B0819
:102F40000E94D00E60E080910A080E94FF0E81E48A
:102F500098E090931508809314080E94FA0980E085
:102F600090E1A0E0B0E08093170890931808A09338
:102F70001908B0931A088AE090E0A0E0B0E08093CE
:102F80001B0890931C08A0931D08B0931E0880E0B6
:102F900090E0A0E0B0E480931F0890932008A093F5
:102FA0002108B093220860E070E185E00E94AD0D39
:102FB0006FE979E380E00E94AD0DCAE0D8E08E01B0
:102FC00052E0752E63ECA62E62E0B62E79E0872ED5
:102FD00073E0972EEBECEE2EE7E0FE2ED801149670
:102FE0009C91149712968C91898F9A8F61E00E9420
:102FF000FF0E61E08A8D0E94FF0EF80190858681A8
:103000006E01FDE1CF0ED11C8D8F9E8F61E00E947D
:10301000FF0E60E08E8D0E94FF0E61E08D8D0E949C
:10302000D00E6FB6F89480910E05811126C0F5017F
:103030008491F4012491E82FF0E0EE0FFF1FE05C93
:10304000FD4FA591B4919C91822F892321F461E0D9
:1030500085E30E94D00E61E085E30E94FF0E8CB5EF
:1030600080618CBD8CB580648CBD61E084E30E947E
:10307000FF0E61E083E30E94FF0E80910E058F5FDB
:1030800080930E056FBEC7010197F1F760E08D8D4B
:103090000E94D00E88E80E94B60683E00E94B60621
:1030A00061E08D8D0E94D00EC7010197F1F7C60136
:1030B0000E94BD067A940F5F1F4F229671108ECF2B
:1030C0000FE218E0C3E3D8E060E0D8018D918D01F4
:1030D0000E94FF0EC017D107B9F70BE218E07E017E
:1030E000BFEFEB1AFB0A688170E0CE0108960E94E0
:1030F0004D07F70195818381D80152968C935297A1
:1031000053969C9360E00E94FF0E61E0F801838972
:103110000E94FF0E60E0D80153968C910E94D00E61
:103120000E5F1F4FE701B8E0C533DB07C1F6F89427
:103130001092200189E08093210180E293E0909336
:10314000290180932801109225011092240182E028
:103150008093730078948093F4061092F80680911F
:10316000F50660E00E94FF0E40E855E260E070E086
:1031700087E596E00E9446146091330870E08BE387
:1031800098E00E944D0760E080E00E94B00C61E092
:1031900082E00E94FF0E60E086E30E94FF0E60E086
:1031A00087E30E94FF0E0E94500D882319F066EC01
:1031B00072E002C063ED72E087E596E00E94C01401
:1031C00040E056E960E070E08AEB95E00E9446142A
:1031D00081E498E00E94FA0982E090E00E942C0AC3
:1031E00028E6222E3324339435E0832E912CA12C13
:1031F000B12C60E073E087E596E00E94C0148091F6
:10320000130581110DC080912F080E94A70E892BF4
:1032100039F487E596E00E944002892B09F473C1D6
:1032200087E596E00E944002892B29F087E596E029
:103230000E941E02F5CFE1E0E09313058091300873
:103240000E94A70E892B59F06CE073E087E596E0A9
:103250000E94C014109213050E943C1151C10E949B
:103260009B1C26E030E040E050E00E949A1F8B015A
:103270000F5F1F4F0E949B1C23E030E040E050E0B6
:103280000E949A1FEB0121968DEC9CECACECBDE307
:1032900080930F0590931005A0931105B09312052C
:1032A00061E173E087E596E00E94BE14A80160E04A
:1032B00070E02AE087E596E00E94D4146AE672E0A6
:1032C00087E596E00E94AE140330110509F44CC066
:1032D00078F40130110589F10230110509F010C1AF
:1032E000BE01660F771F6C0F7D1F88E99EEF42C0FD
:1032F0000430110509F444C00530110509F000C17E
:103300000E943C110E949B1CA50194010E949A1FDF
:10331000DC01CB010196A11DB11DE8EEF3E08E9F0B
:1033200060018F9FD00C9E9FD00C11240E948510AD
:103330002B013C01E12CF12CCDC08AE08C9FB00127
:103340008D9F700D112480E090E00E94781E9B01FB
:10335000AC0160910F05709110058091110590915D
:1033600012050E940E16CCC0BE01660F771F6C0FAF
:103370007D1FC1010E940920CB010E94750BC0C0B6
:10338000C0900F05D0901005E0901105F090120547
:10339000BE0180E090E00E94781E9B01AC016BEDC5
:1033A0007FE089E490E40E9492202B013C0120E020
:1033B00030E0A9010E94731E87FD03C0C1E0D0E088
:1033C00002C0CFEFDFEF2EEC31EC4EE954E4C30145
:1033D000B2010E94D91E2B013C0187E298E00E94B5
:1033E000BD0689E298E00E94BD06BE010D2E000CCC
:1033F000880B990B0E947A1EA70196010E94D91E84
:10340000AB01BC0183E298E00E946606D195C195AC
:10341000D109BE01DD0F880B990B0E947A1EA7010E
:1034200096010E94D91EAB01BC0181E00E945008A8
:1034300000E010E0E80117FF03C0D195C195D10964
:10344000C301B2010E9404219B0177FF04C022271F
:103450003327261B370B2C173D070CF451C06AE0AD
:1034600070E080E090E00E944B1087E298E00E94BC
:10347000E8066B017C0189E298E00E94E806F0947E
:10348000E094D094C094C11CD11CE11CF11C9601A5
:10349000D7FE04C0222733272C193D09AB0177FF43
:1034A00004C044275527461B570BB901640F751FED
:1034B000072E000C880B990B0E947A1E20E030E04A
:1034C00040E05FE30E94D91E0E9404218B010E940C
:1034D0004B11B0CF0E948510DC01CB0184199509F6
:1034E000A609B7098C159D05AE05BF0548F40E94D5
:1034F0004B1162E370E080E090E00E944B10EACF55
:103500000E94FE0276CE62E370E080E090E00E94CE
:103510004B1075CE1092200510921F0548EE53E017
:1035200060E070E0409321055093220560932305ED
:103530007093240587E192E090931E0580931D050A
:1035400025E331E030932A052093290524E331E077
:1035500030932C0520932B0520E331E030932E058A
:1035600020932D0521E331E03093300520932F0582
:1035700022E331E0309332052093310526E331E038
:103580003093340520933305109236051092370599
:1035900010923805109239051092BD051092BC05A5
:1035A0004093BE055093BF056093C0057093C1055D
:1035B0009093BB058093BA0525ED30E03093C705A5
:1035C0002093C60524ED30E03093C9052093C8054B
:1035D00020ED30E03093CB052093CA0521ED30E09B
:1035E0003093CD052093CC0522ED30E03093CF050C
:1035F0002093CE0526ED30E03093D1052093D00501
:103600001092D3051092D4051092D5051092D605CC
:1036100010925A061092590640935B0650935C062E
:1036200060935D0670935E069093580680935706EC
:1036300085EC90E0909364068093630684EC90E0C0
:10364000909366068093650680EC90E09093680600
:103650008093670681EC90E090936A0680936906F8
:1036600082EC90E090936C0680936B0686EC90E081
:1036700090936E0680936D061092700610927106FC
:10368000109272061092730680910B0290910C02B8
:10369000A0910D02B0910E0280932B0890932C08FC
:1036A000A0932D08B0932E0880910F0290911002E4
:1036B000A0911102B091120280932F0890933008CC
:1036C000A0933108B093320884E08093330887E0F8
:1036D000809334081092350884EB8093360886E195
:1036E0008093370888E18093380887E18093390810
:1036F00089E180933A08E0910208EC3020F08FEFE6
:1037000080933B0810C081E08E0F80930208E09305
:103710003B0825E0E29FF0011124EA53F84F88EBC3
:103720009BE092838183E0910208EC3020F08FEFE0
:1037300080933C0810C081E08E0F80930208E093D4
:103740003C0885E0E89FF0011124EA53F84F88EB2C
:103750009BE0928381838CE080930A0884E28093CB
:103760000B0886E080930C0885E080930D088FE1BC
:1037700080930E088EE180930F0883E280931008F7
:1037800082E28093110885E48093120884E4809398
:10379000130880E48093160810921B0810921C08EE
:1037A00010921D0810921E0810921F0810922008F7
:1037B0001092210810922208E6E5F8E08FEF9FEFC3
:1037C000DC011282138214821582168217821086FF
:1037D000118683879487A587B6878787908BA18B6F
:1037E000B28B128611821082739629E0E431F207BF
:1037F00041F78DE090E00E944421FC011382128287
:1038000089E292E091838083118687E2848384E158
:10381000828784E083871486F0935308E0935208EC
:10382000109254081092550885E28093F506109284
:10383000F7061092040810920308109206081092DE
:103840000508109208081092070860E070E083E015
:1038500098E00E94E30D109244081092430888EE0D
:1038600093E0A0E0B0E08093450890934608A093D1
:103870004708B093480885E392E09093420880930C
:10388000410810924D088BEE90E090935108809380
:10389000500881E090E090934F0880934E0808957F
:1038A0008F929F92AF92BF92CF92DF92EF92FF9250
:1038B000CF93DF93EC01688179818A819B816115C7
:1038C00071058105910521F464E279ED8BE597E0BE
:1038D0002DE133EF41E050E00E949A1F49015A0167
:1038E0009B01AC01A7EAB1E40E94B91F6B017C0106
:1038F000ACEEB4EFA50194010E94C71FDC01CB011F
:103900008C0D9D1DAE1DBF1DB7FF03C00197A10902
:10391000B04888839983AA83BB83BC01CD019F777C
:10392000DF91CF91FF90EF90DF90CF90BF90AF905D
:103930009F908F9008958F929F92AF92BF92CF9257
:10394000DF92EF92FF9260910102709102028091EA
:10395000030290910402611571058105910521F41E
:1039600064E279ED8BE597E02DE133EF41E050E043
:103970000E949A1F49015A019B01AC01A7EAB1E4D8
:103980000E94B91F6B017C01ACEEB4EFA50194015C
:103990000E94C71FDC01CB018C0D9D1DAE1DBF1DFC
:1039A000B7FF03C00197A109B0488093010290932B
:1039B0000202A0930302B0930402BC01CD019F77E1
:1039C000FF90EF90DF90CF90BF90AF909F908F903F
:1039D0000895609301027093020280930302909312
:1039E00004020895662777270C94F61C8F929F9205
:1039F000AF92BF92CF92DF92EF92FF920F931F93FD
:103A0000CF93DF93EC016B016115710519F0FB0198
:103A1000918380837E01FFEFEF1AFF0A0881802FD8
:103A200090E00E94521E892B11F0E701F3CF0D3276
:103A300039F47E0182E0E80EF11C098111E008C032
:103A40000B3229F47E0192E0E90EF11C098110E0AD
:103A5000E701219743E050E06CE072E0CE010E9464
:103A60005B1E892BC1F4239645E050E067E072E0CD
:103A7000CE010E945B1E892B09F42596C114D10446
:103A800019F0F601D183C0831111F6C060E070E037
:103A900080E89FE7FAC043E050E064E072E0CE01C6
:103AA0000E945B1E892B59F4C114D10409F4E9C0AA
:103AB000F2E0EF0EF11CF601F182E082E2C020E0BC
:103AC00030E0A901C0E0D0E0F70160EDA62EA00E25
:103AD00089E08A1530F1912F9260B92E812F88707C
:103AE00012FF04C0811124C0219622C081112197A8
:103AF000A5E0B0E00E94B91FDC01CB01880F991F3F
:103B0000AA1FBB1F9C01AD012A0D311D411D511D76
:103B1000283989E93807480789E1580748F01660CD
:103B200006C09EEFA9120AC013FD40C01860B12E56
:103B30008FEFE81AF80A00811B2DC6CF802F8F7DEA
:103B40008534A1F580818D3211F4106106C08B326D
:103B500021F0319661E070E004C08181329662E02C
:103B600070E080538A3018F0E61BF70B1FC060E04E
:103B700070E060389CE079075CF4DB01AA0FBB1FA2
:103B8000AA0FBB1F6A0F7B1F660F771F680F711D7F
:103B90003196DF0111978C9180538A3050F314FFD6
:103BA00003C0719561957109C60FD71F11FF08C039
:103BB000C114D10429F0CF010197F60191838083CC
:103BC000CA01B9010E94781E212F2370233019F0F9
:103BD0004B015C0106C04B015C01B7FAB094B7F829
:103BE000B09420E030E0A901C501B4010E94731E29
:103BF000882309F43EC0D7FF06C0D195C195D109ED
:103C000003E212E002C00BE312E06801F8E1CF1A10
:103C1000D10890E2E92EF12CCE15DF0574F0F80101
:103C20002591359145915491C501B4010E94D91E49
:103C30004B015C01CE19DF09EFCF04501109F59457
:103C4000E7940C151D0541F78A2D880F8B2D881FD1
:103C50008F3F49F020E030E0A901C501B4010E9486
:103C6000731E811106C082E290E090931509809343
:103C70001409C501B40109C060E070E080E89FEF5D
:103C800004C060E070E080EC9FE7DF91CF911F916E
:103C90000F91FF90EF90DF90CF90BF90AF909F90EB
:103CA0008F90089591110C94461F803219F089501D
:103CB0008550C8F70895FB01DC014150504088F061
:103CC0008D9181341CF08B350CF4805E65916134EC
:103CD0001CF06B350CF4605E861B611171F3990B5F
:103CE0000895881BFCCF0E94B51E08F481E008955A
:103CF000E89409C097FB3EF4909580957095619586
:103D00007F4F8F4F9F4F9923A9F0F92F96E9BB273B
:103D10009395F695879577956795B795F111F8CFB7
:103D2000FAF4BB0F11F460FF1BC06F5F7F4F8F4F22
:103D30009F4F16C0882311F096E911C0772321F018
:103D40009EE8872F762F05C0662371F096E8862FB0
:103D500070E060E02AF09A95660F771F881FDAF707
:103D6000880F9695879597F90895990F0008550F34
:103D7000AA0BE0E8FEEF16161706E807F907C0F0F1
:103D800012161306E407F50798F0621B730B840BF9
:103D9000950B39F40A2661F0232B242B252B21F4D3
:103DA00008950A2609F4A140A6958FEF811D811D73
:103DB00008950E94EC1E0C94601F0E94521F38F060
:103DC0000E94591F20F0952311F00C94491F0C9468
:103DD0004F1F11240C94941F0E94711F70F3959F24
:103DE000C1F3950F50E0551F629FF001729FBB27F2
:103DF000F00DB11D639FAA27F00DB11DAA1F649F8E
:103E00006627B00DA11D661F829F2227B00DA11D40
:103E1000621F739FB00DA11D621F839FA00D611DC6
:103E2000221F749F3327A00D611D231F849F600DE7
:103E3000211D822F762F6A2F11249F5750409AF010
:103E4000F1F088234AF0EE0FFF1FBB1F661F771F9C
:103E5000881F91505040A9F79E3F510580F00C9467
:103E6000491F0C94941F5F3FE4F3983ED4F386956A
:103E700077956795B795F795E7959F5FC1F7FE2B07
:103E8000880F911D9695879597F90895992788270A
:103E9000089597F99F6780E870E060E008959FEFCC
:103EA00080EC089500240A941616170618060906D1
:103EB000089500240A9412161306140605060895A0
:103EC000092E0394000C11F4882352F0BB0F40F428
:103ED000BF2B11F460FF04C06F5F7F4F8F4F9F4F68
:103EE000089557FD9058440F551F59F05F3F71F0EA
:103EF0004795880F97FB991F61F09F3F79F0879551
:103F00000895121613061406551FF2CF4695F1DFD9
:103F100008C0161617061806991FF1CF8695710569
:103F2000610508940895E894BB2766277727CB019D
:103F300097F90895052E97FB1EF400940E94B11F77
:103F400057FD07D00E94CC1F07FC03D04EF40C9401
:103F5000B11F50954095309521953F4F4F4F5F4F82
:103F6000089590958095709561957F4F8F4F9F4FE5
:103F700008950E94EE1FA59F900DB49F900DA49FE1
:103F8000800D911D11240895B7FF0C94B91F0E9454
:103F9000B91F821B930B0895A1E21A2EAA1BBB1B0B
:103FA000FD010DC0AA1FBB1FEE1FFF1FA217B30705
:103FB000E407F50720F0A21BB30BE40BF50B661F1B
:103FC000771F881F991F1A9469F7609570958095DF
:103FD00090959B01AC01BD01CF010895A29FB00156
:103FE000B39FC001A39F700D811D1124911DB29F2D
:103FF000700D811D1124911D0895991B79E004C055
:10400000991F961708F0961B881F7A95C9F7809517
:104010000895AA1BBB1B51E107C0AA1FBB1FA6170F
:10402000B70710F0A61BB70B881F991F5A95A9F761
:1040300080959095BC01CD010895EE0FFF1F881F5C
:104040008BBF0790F691E02D19945058BB27AA27F3
:104050000E943D200C94601F0E94521F38F00E9465
:10406000591F20F039F49F3F19F426F40C944F1F88
:104070000EF4E095E7FB0C94491FE92F0E94711F95
:1040800058F3BA17620773078407950720F079F48D
:10409000A6F50C94931F0EF4E0950B2EBA2FA02DCD
:1040A0000B01B90190010C01CA01A0011124FF27E5
:1040B000591B99F0593F50F4503E68F11A16F040E0
:1040C000A22F232F342F4427585FF3CF46953795DF
:1040D0002795A795F0405395C9F77EF41F16BA0BA4
:1040E000620B730B840BBAF09150A1F0FF0FBB1F52
:1040F000661F771F881FC2F70EC0BA0F621F731F9B
:10410000841F48F4879577956795B795F7959E3FF7
:1041100008F0B0CF9395880F08F09927EE0F979588
:10412000879508950E94A6200C94601F0E94591F35
:1041300058F00E94521F40F029F45F3F29F00C9480
:10414000491F51110C94941F0C944F1F0E94711F12
:1041500068F39923B1F3552391F3951B550BBB27B6
:10416000AA2762177307840738F09F5F5F4F220FFB
:10417000331F441FAA1FA9F335D00E2E3AF0E0E8F2
:1041800032D091505040E695001CCAF72BD0FE2F3C
:1041900029D0660F771F881FBB1F261737074807D0
:1041A000AB07B0E809F0BB0B802DBF01FF27935888
:1041B0005F4F3AF09E3F510578F00C94491F0C94E4
:1041C000941F5F3FE4F3983ED4F386957795679507
:1041D000B795F7959F5FC9F7880F911D96958795BD
:1041E00097F90895E1E0660F771F881FBB1F6217DC
:1041F00073078407BA0720F0621B730B840BBA0B9A
:10420000EE1F88F7E09508950E940B216894B11184
:104210000C94941F08950E94791F88F09F5798F07E
:10422000B92F9927B751B0F0E1F0660F771F881FBB
:10423000991F1AF0BA95C9F714C0B13091F00E94D5
:10424000931FB1E008950C94931F672F782F882750
:10425000B85F39F0B93FCCF3869577956795B395FC
:10426000D9F73EF490958095709561957F4F8F4F6B
:104270009F4F08950E94B51E08F48FEF08950E9485
:10428000B51E880B990B08950F931F93CF93DF935F
:104290008230910510F482E090E0E0911809F091ED
:1042A000190920E030E0A0E0B0E0309719F140813A
:1042B00051810281138148175907C8F08417950767
:1042C00069F4109731F012960C93129713961C9381
:1042D00027C0009318091093190922C02115310530
:1042E00019F04217530718F49A01BD01EF01DF01DD
:1042F000F801DBCF21153105F9F0281B390B2430EB
:10430000310580F48A819B816115710521F0FB01E3
:104310009383828304C09093190980931809FE0146
:10432000329644C0FE01E20FF31F81939193225015
:104330003109398328833AC0209116093091170931
:10434000232B41F420910702309108023093170982
:10435000209316092091050230910602211531059E
:1043600041F42DB73EB74091090250910A02241B37
:10437000350BE0911609F0911709E217F307A0F445
:104380002E1B3F0B2817390778F0AC014E5F5F4FAB
:104390002417350748F04E0F5F1F509317094093BD
:1043A00016098193919302C0E0E0F0E0CF01DF9124
:1043B000CF911F910F910895CF93DF93009709F448
:1043C00081C0FC01329713821282A0911809B0912A
:1043D0001909109781F420813181820F931F209158
:1043E0001609309117092817390751F5F093170965
:1043F000E093160967C0ED0120E030E0CE17DF073B
:1044000040F44A815B819E0141155105F1F0EA01BA
:10441000F5CFD383C28340815181840F951FC81784
:10442000D90759F488819981840F951F0296918349
:1044300080838A819B81938382832115310529F4AE
:10444000F0931909E09318093DC0E901FB83EA8361
:1044500049915991C40FD51FEC17FD0761F4808174
:104460009181840F951F0296E90199838883828147
:1044700093819B838A83E0E0F0E012968D919C917A
:104480001397009719F0FD01DC01F7CF8D919C91F6
:1044900011979D012E5F3F4F820F931F20911609A8
:1044A000309117092817390769F4309729F41092C9
:1044B00019091092180902C013821282B0931709C9
:1044C000A0931609DF91CF9108956F927F928F92FA
:1044D0009F92AF92BF92CF92DF92EF92FF920F9393
:1044E0001F93CF93DF93009789F4CB01DF91CF9196
:1044F0001F910F91FF90EF90DF90CF90BF90AF9002
:104500009F908F907F906F900C944421FC01E60F58
:10451000F71F9C0122503109E217F30708F4A9C0E4
:10452000EC01D9010D911C91119706171707B0F0F6
:104530000530110508F49BC0C8010497861797073A
:1045400008F495C002501109061B170B0193119333
:104550006D937C93CF010E94DC2189C05B01A01A7E
:10456000B10A4C01800E911EA0911809B091190951
:10457000612C712CE12CF12C109709F446C08D911F
:104580009C911197A815B905B1F56C0142E0C40ED4
:10459000D11CCA14DB0478F14C018A189B08640111
:1045A00042E0C40ED11C1296BC9012971396AC91A7
:1045B000B5E0CB16D10440F0B282A3839182808211
:1045C000D9016D937C9309C00E5F1F4F800F911F1F
:1045D000F90191838083EB2DFA2FE114F10431F07E
:1045E000D7011396FC93EE93129741C0F0931909EB
:1045F000E09318093CC06816790608F43C017D0177
:1046000012960D90BC91A02DB7CF80911609909174
:10461000170988169906E1F466167706C8F48091A2
:10462000050290910602009741F48DB79EB7409124
:10463000090250910A02841B950BE817F907C8F488
:10464000F0931709E0931609F901718360830FC095
:10465000CB010E9444217C01009759F0A801BE01C2
:104660000E944F23CE010E94DC21C70104C0CE016D
:1046700002C080E090E0DF91CF911F910F91FF90F9
:10468000EF90DF90CF90BF90AF909F908F907F90F2
:104690006F90089581E090E0F8940C946823FB01FA
:1046A000DC0102C001900D9241505040D8F70895AE
:1046B000FB01DC018D91019080190110D9F3990B58
:1046C0000895FB01DC0101900D920020E1F70895AF
:1046D00011E0C1EBD1E000E006C0802FFE010E9496
:1046E0001D202196011DC23BD10780E00807A9F7D4
:0446F000F894FFCF6C
:1046F400FF0100000000001A092000363738391B7A
:104704001D1A1C000000008C02E5010F02D90240B2
:10471400021E02320200000000EA03E501E7036022
:104724000F00000000B8038B03E7035F0383036FEC
:10473400036003496E76616C6964206D6F746F72F7
:10474400206964210053656E74206D75736963205C
:10475400726571756573743A20000D0A00537461B3
:104764007274696E6720546F75726E657220776912
:104774007468203A20004E4274203A0062726561E7
:104784006B004453543A00496E76616C696420733B
:104794006572766F2069642100536572766F2061BB
:1047A4006E676C65206973206F7574206F66207264
:1047B400616E67652100466F756E642073656E7364
:1047C4006F72004E6F2054435333343732352066B2
:1047D4006F756E64202E2E2E20636865636B2079BE
:1047E4006F757220636F6E6E656374696F6E7300AC
:1047F4005374617274696E672E2E2E0053544F5099
:10480400004D4F563A200070743100707432006FBE
:104814006E4F62737461636C65526573756C74205A
:104824003A00746573740070743400493243206331
:104834006F6C6F722073656E736572206572726F30
:1048440072203A00630062007074350070743300A3
:1048540057616974696E6720666F72205374726958
:104864006E670053455249414C3220415641494CF0
:1048740041424C45005265636569766564204F4E3C
:1048840000706F735F783A2000706F735F793A201D
:104894000044524956494E470053706565643A20B6
:1048A4004C4546543A20002052494748543A200087
:1048B4004D5553494300464F4F440053544F505FA6
:1048C40052414E445F505552520053544F50504938
:1048D4004E472052414E444F4D2050555252494E5E
:1048E400470045786974696E670050555252494EC5
:1048F4004721210053656E742053544F50206D7529
:1049040073696320726571756573743A20006E6112
:104914006E00696E66006F76660053746172746926
:104924006E67205049442077697468203A20005308
:10493400454E534F522045584954494E47205049FB
:0249440044002D
:00000001FF
