:100000000C9495010C94C6010C94C6010C94C60185
:100010000C94C6010C94C6010C94C6010C94C60144
:100020000C94C6010C94E90D0C94E90D0C94E90DA7
:100030000C94C6010C9421030C94C6010C94C601C7
:100040000C94C6010C94B7080C94C6010C94C6011C
:100050000C94C6010C94C6010C94C6010C94D702F2
:100060000C94C6010C9490040C9466040C94C60184
:100070000C94C6010C94C6010C94C6010C94C601E4
:100080000C94C6010C94C6010C94C6010C94C601D4
:100090000C94C6010C94C6010C94C6010C94F30D8B
:1000A0000C94C6010C94C6010C94C6010C94C601B4
:1000B0000C94C6010C94C6010C94C6010C94ED0579
:1000C0000C94C6010C94C6010C94C6010C943C041B
:1000D0000C9412040C94C6010C94E8030C94BE0317
:1000E0000C94C6010C071107160720072A07A3075F
:1000F00034073C0744074E075807620771077B0720
:10010000A30785078F0799072C0D2F0D1E0D220DB4
:10011000280D660D330D370D3D0D410D450D4B0D71
:100120004F0D530D660D590D5D0D610D0C9471074A
:100130000C948A0C0C9416070C943D0D0C94220D13
:100140000C94330D0C9443020C94880C0C94370DD2
:100150000C94B50C0C9420070C94AD0C0C94440733
:100160000C94C8010C94990C0C94280D0C94530D0C
:100170000C944B0D0C946C050C9488120C945D0D32
:100180000C9485070C948E120C944E070C94890CD9
:100190000C9470050C942F0D0C9434070C94BA0435
:1001A0000C9462070C942A070C94410D0C94870C54
:1001B0000C9411070C9415020C944F0D0C94450DE2
:1001C0000C9401020C941E0D0C9490020C94580790
:1001D0000C940C070C942C0D0C9499070C94590D4D
:1001E0000C948F070C943C070C94610D0C94A3079E
:1001F0000C94F2010C947B070C94E20C0C94660DA9
:100200000C946D050200002100240027002A002D17
:10021000003000330001010000040107010A010061
:10022000002200250028002B002E0031003400029F
:10023000010000050108010B010000200023002639
:100240000029002C002F00320000010000030106ED
:10025000010901050505050705080808080202024D
:10026000020A0A0808040404040101010101010151
:10027000010303030303030303040707070C0C0C28
:100280000C0C0C0C0C020202020606060606060600
:10029000060B0B0B0B0B0B0B0B010210202008089D
:1002A00010204010204080020102010804020101D8
:1002B00002040810204080804020100804020180C1
:1002C0000402018040201008040201080402010118
:1002D0000204081020408001020408102040800021
:1002E000000A0B02090C0D0E0807030401000000B0
:1002F00000000000000000000000000000000000FE
:1003000000000000000000000000001211100000BA
:1003100000000000000000000000000000000000DD
:100320000000000000008E12881211241FBECFEFC3
:10033000D1E2DEBFCDBF00E00CBF12E0A0E0B2E032
:10034000E4EFF3E300E00BBF02C007900D92AA3880
:10035000B107D9F727E0AAE8B2E001C01D92A5369F
:10036000B207E1F711E0C4E9D1E000E006C021974F
:100370000109802FFE010E94AB16C339D10780E02E
:100380000807A9F70E9412100C94E8190C940000B9
:10039000CF92DF92EF92FF920F931F93CF93DF9351
:1003A0006C017A018B01C0E0D0E0CE15DF0581F051
:1003B000D8016D918D01D601ED91FC910190F081F4
:1003C000E02DC6011995892B11F02196EECF7E0103
:1003D000C701DF91CF911F910F91FF90EF90DF90B8
:1003E000CF900895FC01538D448D252F30E0842F4C
:1003F00090E0821B930B541710F0CF96089501974D
:100400000895FC01918D828D981761F0828DDF0136
:10041000A80FB11D5D968C91928D9F5F9F73928FF7
:1004200090E008958FEF9FEF0895FC01918D828DEC
:10043000981731F0828DE80FF11D858D90E00895B9
:100440008FEF9FEF08950E94D31980E193E00E94FF
:10045000BA0421E0892B09F420E0822F08958DEA67
:1004600093E00E94BA0421E0892B09F420E0822F56
:1004700008958AE494E00E94BA0421E0892B09F4EB
:1004800020E0822F0895EF92FF920F931F93CF9356
:10049000DF93EC0181E0888F9B8D8C8D981305C0D4
:1004A000E889F989808185FD26C0F62E0B8D10E044
:1004B0000F5F1F4F0F731127E02E8C8DE8120CC0B9
:1004C0000FB607FCFACFE889F989808185FFF5CF5F
:1004D000CE010E94CB05F1CF8B8DFE01E80FF11DFF
:1004E000E35AFF4FF0829FB7F8940B8FEA89FB899C
:1004F000808180620AC09FB7F894EE89FF8960838B
:10050000E889F98980818370806480839FBF81E05E
:1005100090E0DF91CF911F910F91FF90EF900895A0
:10052000CF93DF93EC01888D8823C9F0EA89FB899A
:10053000808185FD05C0A889B9898C9186FD0FC091
:100540000FB607FCF5CF808185FFF2CFA889B98966
:100550008C9185FFEDCFCE010E94CB05E7CFDF91D7
:10056000CF9108953FB7F8948091970290919802A7
:10057000A0919902B0919A0226B5A89B05C02F3F81
:1005800019F00196A11DB11D3FBFBA2FA92F982FB9
:100590008827820F911DA11DB11DBC01CD0142E034
:1005A000660F771F881F991F4A95D1F708951F92EC
:1005B0000F920FB60F9211242F933F938F939F9317
:1005C000AF93BF938091B5029091B602A091B7020C
:1005D000B091B8023091960223E0230F2D3720F41A
:1005E0000196A11DB11D05C026E8230F0296A11D8D
:1005F000B11D209396028093B5029093B602A0930A
:10060000B702B093B8028091970290919802A0919E
:100610009902B0919A020196A11DB11D8093970293
:1006200090939802A0939902B0939A02BF91AF91D0
:100630009F918F913F912F910F900FBE0F901F9020
:1006400018951F920F920FB60F9211240BB60F92AE
:100650002F933F934F935F936F937F938F939F93CA
:10066000AF93BF93EF93FF9380918B0290918C0295
:10067000A0918D02B0918E02892B8A2B8B2B49F190
:1006800090918A02809100008927809300008091D8
:100690008B0290918C02A0918D02B0918E0218165F
:1006A00019061A061B060CF056C080918B02909119
:1006B0008C02A0918D02B0918E020197A109B1091F
:1006C00080938B0290938C02A0938D02B0938E0244
:1006D00042C080910002E4E0F2E0E4919FEF909349
:1006E0000002E230C9F050F4EE2399F0E13081F5D8
:1006F00090916F009D7F90936F002AC0E43019F1B4
:10070000E0F0E53029F5909173009D7F90937300A0
:100710001FC010926E001CC0909170009D7F90933E
:10072000700091E09093B0009091B100987F946038
:100730009093B1001092B3000BC0909171009D7F17
:100740009093710005C0909172009D7F909372000C
:1007500060E00E944E0FFF91EF91BF91AF919F918A
:100760008F917F916F915F914F913F912F910F905A
:100770000BBE0F900FBE0F901F9018951F920F92F7
:100780000FB60F9211240BB60F922F933F934F93F6
:100790005F936F937F938F939F93AF93BF93EF93E9
:1007A000FF9380E193E00E94CB05FF91EF91BF9111
:1007B000AF919F918F917F916F915F914F913F91F9
:1007C0002F910F900BBE0F900FBE0F901F9018959A
:1007D0001F920F920FB60F9211240BB60F922F9308
:1007E0003F934F935F936F937F938F939F93AF93B9
:1007F000BF93EF93FF9380E193E00E94D00DFF91B0
:10080000EF91BF91AF919F918F917F916F915F9188
:100810004F913F912F910F900BBE0F900FBE0F90F5
:100820001F9018951F920F920FB60F9211240BB6BE
:100830000F922F933F934F935F936F937F938F9379
:100840009F93AF93BF93EF93FF938DEA93E00E9442
:10085000CB05FF91EF91BF91AF919F918F917F91C8
:100860006F915F914F913F912F910F900BBE0F9021
:100870000FBE0F901F9018951F920F920FB60F92F8
:1008800011240BB60F922F933F934F935F936F9367
:100890007F938F939F93AF93BF93EF93FF938DEAD3
:1008A00093E00E94D00DFF91EF91BF91AF919F9186
:1008B0008F917F916F915F914F913F912F910F9009
:1008C0000BBE0F900FBE0F901F9018951F920F92A6
:1008D0000FB60F9211240BB60F922F933F934F93A5
:1008E0005F936F937F938F939F93AF93BF93EF9398
:1008F000FF938AE494E00E94CB05FF91EF91BF91B2
:10090000AF919F918F917F916F915F914F913F91A7
:100910002F910F900BBE0F900FBE0F901F90189548
:100920001F920F920FB60F9211240BB60F922F93B6
:100930003F934F935F936F937F938F939F93AF9367
:10094000BF93EF93FF938AE494E00E94D00DFF9150
:10095000EF91BF91AF919F918F917F916F915F9137
:100960004F913F912F910F900BBE0F900FBE0F90A4
:100970001F901895FC01918D228D892F90E0805C4D
:100980009F4F821B91098F7399270895E0E0F0E053
:10099000199480E090E0892B21F00E9439028111A6
:1009A00019C080E090E0892B41F080E090E0892B35
:1009B00021F00E940000811110C00E942F028111BD
:1009C0000FC080E090E0892B81F00E942502811108
:1009D0000AC008950E940000E4CF0E940000EDCFFD
:1009E0000E94C604EECF0C9400000895CF92DF92CF
:1009F000EF92FF92CF93DF93FC01C081CC3008F0DF
:100A000064C0D0E085E08C9FF0018D9FF00D112433
:100A1000E754FA4F838128E830E06901C81AD10809
:100A200087FDD394CC0CDD1CCC0CDD1C683C71051F
:100A30003CF50D2C000CEE08FF08848128E532E01F
:100A4000281B310987FD3395220F331F220F331FD7
:100A5000C901330FAA0BBB0B9C01AD012C193D0939
:100A60004E095F09DB010E94661624EB30E040E08E
:100A700050E00E943C16C20ED31EE41EF51E13C0A9
:100A80006C157D0584F0248188E592E0821B910934
:100A900027FD9395880F991F880F991F6B01861763
:100AA00097070CF46C018FB7F89495E09C9FF001C8
:100AB0009D9FF00D1124E754FA4F96E0C91AD10812
:100AC000CC0CDD1CD282C1828FBFDF91CF91FF9011
:100AD000EF90DF90CF900895089580E090E0089522
:100AE0000F931F93CF93DF938C01C62FD62FD07F08
:100AF000D1606D2F0E94A80D6D2FC8010E94BB0D03
:100B000080E1C89FB0011124C62FC1606C2FC801BD
:100B10000E94A80D6C2FC8010E94BB0D81E090E0DF
:100B2000DF91CF911F910F9108951F93CF93DF9382
:100B3000EC01182F853038F08CE492E00E94830A93
:100B400080E090E007C0FC01FF27E25EF94F808162
:100B50000E94B90FBC0180E090E04AE00E94670D5E
:100B600089E492E00E94710A153028F08CE492E04A
:100B70000E94830A0AC0DD27C25ED94F88810E9485
:100B8000B90F21E08C32914008F420E0822FDF91F0
:100B9000CF911F910895FC01848DDF01A80FB11D35
:100BA000A35ABF4F2C91848D90E001968F739927A3
:100BB000848FA689B7892C93A089B1898C91837081
:100BC00080648C93938D848D981306C00288F3897A
:100BD000E02D80818F7D808308951F920F920FB644
:100BE0000F9211240BB60F922F933F934F935F9365
:100BF0006F937F938F939F93AF93BF93EF93FF93E5
:100C00008091E8040E94250F2091EC043091ED04BE
:100C10002F5F3F4F3093ED042093EC049091EB0451
:100C2000953618F096E09093E7049091E70494309D
:100C3000C9F128F4923069F09330D1F05EC095305C
:100C400009F451C0963009F058C091E09093B8056E
:100C500051C0811152C02091EC043091ED04243632
:100C6000310508F442C01092B8051092EB041CC084
:100C7000813009F042C0E091EB0491E09E0F909327
:100C8000EB04F0E02091EC043091ED04EE0FFF1F37
:100C9000E951FB4F308727831092ED041092EC044A
:100CA00094E029C0811117C0E091EB0491E09E0F00
:100CB0009093EB04F0E02091EC043091ED04EE0F02
:100CC000FF1FE951FB4F308727831092ED041092EC
:100CD000EC0493E010C02091EC043091ED04253633
:100CE000310558F007C0811108C01092ED04109230
:100CF000EC0403C095E09093E7049091EA049923F3
:100D0000B9F081110AC08091E904882321F0809113
:100D1000E90461E009C02F9A0BC08091E90488239F
:100D200031F08091E90460E00E944E0F01C02F98DD
:100D3000FF91EF91BF91AF919F918F917F916F91B3
:100D40005F914F913F912F910F900BBE0F900FBE6F
:100D50000F901F9018958F929F92AF92BF92CF9253
:100D6000DF92EF92FF920F931F93CF93DF938C014B
:100D70006A017B0120E030E04FE753E4C701B60190
:100D80000E947E154B015C0120E030E0A9010E9429
:100D9000C81718161CF4C501B40103C0C501B4017D
:100DA00090580E949217EB0120E030E0A901C701A2
:100DB000B6010E94C817181614F460E001C061E083
:100DC000F80181810E944E0FCF3FD10509F014F444
:100DD000DD2702C0CFEFD0E0F801108161E0812F64
:100DE0000E947D0F209709F4B1C0CF3FD10509F4CF
:100DF000AFC0E12FF0E0E152FD4FE4918E2F90E083
:100E0000FC013197E231F10508F09DC08827EE58CA
:100E1000FF4F8F4F0C94AB1684B5806884BDC7BD5F
:100E2000A7C084B5806284BDC8BDA2C08091800087
:100E3000806880938000D0938900C093880098C018
:100E400080918000806280938000D0938B00C0935B
:100E50008A008EC080918000886080938000D0934B
:100E60008D00C0938C0084C08091B0008068809316
:100E7000B000C093B3007CC08091B00080628093CA
:100E8000B000C093B40074C08091900080688093DB
:100E90009000D0939900C09398006AC08091900010
:100EA000806280939000D0939B00C0939A0060C0B2
:100EB00080919000886080939000D0939D00C093B3
:100EC0009C0056C08091A00080688093A000809113
:100ED000A0008F7B8093A000D093A900C093A800AE
:100EE00047C08091A00080628093A000D093AB00A7
:100EF000C093AA003DC08091A00088608093A000AC
:100F0000D093AD00C093AC0033C0809120018068C5
:100F100080932001D0932901C093280129C080919A
:100F20002001806280932001D0932B01C0932A017D
:100F30001FC080912001886080932001D0932D01F3
:100F4000C0932C0115C0C038D10514F460E001C075
:100F500061E0812FDF91CF911F910F91FF90EF9072
:100F6000DF90CF90BF90AF909F908F900C944E0FDA
:100F7000DF91CF911F910F91FF90EF90DF90CF9075
:100F8000BF90AF909F908F9008958EBD00000DB4DC
:100F900007FEFDCF8EB50895CF93DF93EC0160E09F
:100FA00088810E944E0F88E90E94C50780E00E9458
:100FB000C50780E00E94C50780E00E94C50780E069
:100FC0000E94C50761E088810E944E0F8BE891E086
:100FD0000197F1F760E088810E944E0F80EE0E9439
:100FE000C50761E08881DF91CF910C944E0FAF92DD
:100FF000BF92CF92DF92EF92FF920F931F93CF9306
:10100000DF93CDB7DEB760970FB6F894DEBF0FBEA3
:10101000CDBF5C0160E0FC0180810E944E0F80E644
:101020000E94C5078E010F5F1F4F7E01F1E1EF0E99
:10103000F11C680180E00E94C50790E0A0E0B0E0EC
:10104000F60181939193A193B1936F01EE15FF0582
:1010500089F761E0F50180810E944E0F80E090E009
:10106000DC01F80141915191619171918F01BA2F89
:10107000A92F982F8827840F951FA61FB71FEE153D
:10108000FF0579F79C01AD0166277727CB01621B2D
:10109000730B840B950B60960FB6F894DEBF0FBEF2
:1010A000CDBFDF91CF911F910F91FF90EF90DF9017
:1010B000CF90BF90AF9008951F93CF93DF93EC0133
:1010C000162F88818C3008F04DC061E0812F0E947E
:1010D0007D0FE88195E09E9FF0011124E754FA4FBF
:1010E0001F738081807C182B10831382E8819E9F60
:1010F000F0011124E754FA4F148288816CE00E94B9
:101100009F169CE0899FA001112420E030E095E02B
:10111000BA01620F731F969FF001979FF00D112483
:10112000E754FA4F608166FD13C02F5F3F4F2C30AC
:10113000310571F781110CC01092800082E080931C
:101140008100109285001092840086BB80936F000E
:10115000E88185E0E89FF0011124E754FA4F80818F
:10116000806480838881DF91CF911F9108951F92C1
:101170000F920FB60F9211240BB60F922F933F933D
:101180004F935F936F937F938F939F93AF93BF938F
:10119000EF93FF938091B40287FF05C01092850002
:1011A0001092840016C02091B402022E000C330B62
:1011B0008091F50590E0281739075CF43091B4026E
:1011C00025E03203F0011124E754FA4F808186FDB7
:1011D00015C08091B4028F5F8093B4022091B40255
:1011E000022E000C330B8091F50590E0281739078B
:1011F00094F48091B4028C302CF10DC03091B40283
:101200003203F0011124E754FA4F808160E08F73BC
:101210000E944E0FDECF809184009091850084342F
:101220009C4918F480E49CE905C080918400909169
:101230008500049690938900809388008FEF8093B7
:10124000B4022AC040918400509185003091B402CC
:1012500025E03203F0011124E754FA4F8181928195
:10126000840F951F90938900809388003091B40279
:101270003203F0011124E754FA4F808186FF0CC03D
:101280003091B4023203F0011124E754FA4F808107
:1012900061E08F730E944E0FFF91EF91BF91AF916C
:1012A0009F918F917F916F915F914F913F912F917E
:1012B0000F900BBE0F900FBE0F901F9018958230AD
:1012C00020F08BE592E00C94830A813009F4705889
:1012D00090E0880F991F8A5E994F0C94AB0640E00E
:1012E00050E0BA0186E196E00E94AB0640E050E093
:1012F00060E070E888E196E00C94AB068F929F92D4
:10130000AF92BF92CF92DF92EF92FF92CF93DF9393
:101310006B017C0149015A01C1E0D0E020E030E0DE
:10132000A9010E94C817181614F0C0E0D0E0CE0141
:101330000E949505882309F465C00E946F09809179
:101340002806853B20F480912906843B28F48DE60D
:1013500092E00E94830A06C064EB70E08FE296E0A0
:101360000E94F60468EB7BE080E090E00E94D80FDA
:1013700080912806811107C060E070E08FE296E05E
:101380000E94F60404C08DE692E00E94830ACE011A
:101390000E949505811115C0B701A60186E196E06E
:1013A0000E94AB06B501A40181E0DF91CF91FF90CF
:1013B000EF90DF90CF90BF90AF909F908F900C9464
:1013C0005F09F7FAF094F7F8F094B701A60186E107
:1013D00096E00E94AB06B701A60181E00E945F097A
:1013E00060ED77E080E090E00E94D80FDF91CF9130
:1013F000FF90EF90DF90CF90BF90AF909F908F9035
:101400000C946F09DF91CF91FF90EF90DF90CF9018
:10141000BF90AF909F908F900895CF92DF92EF9200
:10142000FF920F931F93CF93DF937C01C1E01816B7
:1014300019060CF4C0E025EE33E0E29EC001E39E05
:10144000900DF29E900D1124181619061CF02FEF26
:101450003FEF02C021E030E0289F6001299FD00CBF
:10146000389FD00C112443E353E363EB7EE38C2FCE
:101470000E945F0981E01E141F040CF080E040E030
:1014800050E0BA010E945F09D0E0CC0FDD1F6D96DD
:10149000C350DA4FCE010E94CC070C151D05C4F4D1
:1014A0006AE070E080E090E00E94D80FCE011E1448
:1014B0001F0454F40E94F7079095809570956195EC
:1014C0007F4F8F4F9F4F02C00E94F7078B01E5CFE0
:1014D000DF91CF911F910F91FF90EF90DF90CF9010
:1014E0000895009769F0FC0101900020E9F7319719
:1014F000AF01481B590BBC018AE494E00C94C8016D
:1015000080E090E00895CF93DF930E94710AEC0190
:1015100089E492E00E94710A8C0F9D1FDF91CF91A8
:10152000089530910303313208F04BC08091DF02FF
:101530008111FCCF9091020322E02093DF0221E091
:101540002093DE022FEF2093DD021092DC02309315
:10155000DB02E2EEF2E0ABEBB2E020E0321721F08A
:1015600041914D932F5FFACF1092BA022091BA02A7
:10157000990F922B9093BA029091B902913061F435
:101580001092B9029091BA029093BB009091BC0066
:1015900093FDF8CF95EC01C095EE9093BC0090912F
:1015A000DF029230E1F39091DD029F3F79F080916C
:1015B000DD02803241F08091DD02803331F084E041
:1015C00005C081E003C082E001C083E01092E10227
:1015D000109203031092E00208950F931F93CF938C
:1015E000DF93162F072FCDEFD5E09C8521E02093C8
:1015F000E002909302031092E10210920303AA8585
:10160000BB85ED91FC9111970190F081E02D682F41
:10161000CD0119958A859B85DC01ED91FC910190A6
:10162000F081E02D602F19958A859B85DC01ED9175
:10163000FC910190F081E02D612F1995DF91CF9100
:101640001F910F910C94910A2F923F924F925F92AB
:101650006F927F928F929F92AF92BF92CF92DF92C2
:10166000EF92FF920F931F93CF93DF93CDB7DEB727
:101670002C970FB6F894DEBF0FBECDBF4B015C01B7
:1016800069017A018AE196E00E94CC078CE196E03C
:101690000E94CC0725E83BEA45E053E4C701B601C8
:1016A0000E947E150E9492177A836983A401B50176
:1016B00086E196E00E94AB06A401B50181E00E949C
:1016C0005F098FB7F8944090B5025090B6026090D1
:1016D000B7027090B8028FBF8FB7F894C090B50270
:1016E000D090B602E090B702F090B8028FBF8401AC
:1016F000AC86BB861C821B82212C312C29813A812D
:101700003195219531093A872987910137FE04C027
:10171000222733272219330989819A8197FF02C032
:1017200089859A85281739070CF0A6C084E690E0D1
:10173000A0E0B0E08C199D09AE09BF09BC01CD0144
:10174000640D751D861D971D0E94D80F8FB7F894E4
:101750004090B5025090B6026090B7027090B80207
:101760008FBF8AE196E00E94F7076B017C01882712
:101770009927DC018C199D09AE09BF09280E391E75
:101780008AE196E00E94F7076B017C018AE196E00E
:101790000E94CC078CE196E00E94F7076D837E8360
:1017A0008F8398878CE196E00E94CC078827992741
:1017B000DC018C199D09AE09BF099C01AD01CD80EA
:1017C000DE80EF80F8842C193D094E095F09AAE0FC
:1017D000B0E00E945B16EB80FC80E60EF71EFC82F8
:1017E000EB820E941F1527E137EB41ED58E30E9481
:1017F0007E1598014C855B850E94B4166B017C01B7
:101800002B813C81B901330F880B990B0E941F1566
:1018100020EB3FE041E255E30E947E15A7019601CF
:101820000E94B4168B018C879B8720E030E040E853
:101830005FE30E94181587FD06C000E010E030E865
:101840003C874FE34B87A8016C857B8581E00E9434
:101850005F098FB7F894C090B502D090B602E090BF
:10186000B702F090B8028FBF98014C855B85B40138
:10187000C5010E947E0949CF2C960FB6F894DEBFB1
:101880000FBECDBFDF91CF911F910F91FF90EF90D1
:10189000DF90CF90BF90AF909F908F907F906F9090
:1018A0005F904F903F902F90089585ED8093BC00FE
:1018B0008091BC0084FDFCCF1092DF02089540911E
:1018C0003C07262F30E0240F311D21323105DCF496
:1018D0002091DF022430C9F4FC0180E090E08617FB
:1018E00058F430913C072191DC01A45EB84FA30F5E
:1018F000B11D2C930196F3CF80913C07680F609344
:101900003C0780E0089581E0089582E008950895FD
:1019100008950895E091F7068091F606E81730F4EF
:10192000F0E0E450F94F808190E008958FEF9FEF51
:1019300008959091F7068091F606981750F4E92FD4
:10194000F0E0E450F94F208130E09F5F9093F7067C
:1019500002C02FEF3FEFC90108958091F60690E095
:101960002091F706821B91090895CF92DF92EF92A2
:10197000FF920F931F93CF93DF937C01CB018A01DA
:101980002091E002222389F0EB016B01C40ED51EE9
:10199000CC15DD0569F06991D701ED91FC910190BD
:1019A000F081E02DC7011995F3CF642F0E945F0CE1
:1019B000C801DF91CF911F910F91FF90EF90DF90C1
:1019C000CF900895CF93DF931F92CDB7DEB7698391
:1019D0002091E0022223D1F020910303203240F035
:1019E00021E030E0FC013383228380E090E015C0E9
:1019F0008091E102E82FF0E0EE51FD4F9981908354
:101A00008F5F8093E1028093030305C061E0CE0104
:101A100001960E945F0C81E090E00F90DF91CF91E2
:101A2000089590E0FC013197E231F10508F04EC0D5
:101A30008827EC57FF4F8F4F0C94AB168091800096
:101A40008F7703C0809180008F7D80938000089500
:101A500080918000877FF9CF84B58F7702C084B5ED
:101A60008F7D84BD08958091B0008F7703C08091F1
:101A7000B0008F7D8093B0000895809190008F77A3
:101A800007C0809190008F7D03C080919000877F78
:101A90008093900008958091A0008F7707C0809177
:101AA000A0008F7D03C08091A000877F8093A0005D
:101AB0000895809120018F7707C0809120018F7D4C
:101AC00003C080912001877F8093200108958F9229
:101AD0009F92AF92BF920F931F93CF93DF93CDB797
:101AE000DEB7A1970FB6F894DEBF0FBECDBF19A227
:101AF000423008F44AE08E010F5D1F4F842E912C76
:101B0000A12CB12CA50194010E946E16E62FB901FB
:101B1000CA0101501109EA3014F4E05D01C0E95C2A
:101B2000D801EC93232B242B252B61F7C8010E94AD
:101B3000710AA1960FB6F894DEBF0FBECDBFDF913C
:101B4000CF911F910F91BF90AF909F908F9008956C
:101B5000FC01248131E03093E002209302031092D3
:101B6000E102109203038485682B84E093E00E94D5
:101B7000E20C0C94910A0F931F93CF938C01C62F04
:101B800064600E94A80D6C2F6B7FC8010E94A80D95
:101B900083EC90E00197F1F7CF911F910F91089599
:101BA000FC01A089B1898C91A689B78982FD0FC0FB
:101BB0009C91818D8F5F8F73228D821749F0218DCB
:101BC000DF01A20FB11D5D969C93818F08958C91CA
:101BD00008951F920F920FB60F9211240F900FBE0F
:101BE0000F901F9018951F920F920FB60F9211240D
:101BF0000BB60F922F933F934F935F936F937F9307
:101C00008F939F93AF93BF93EF93FF938091B9000E
:101C1000887F803609F49CC068F5883209F45BC07F
:101C200090F4803109F454C038F4882309F4F6C0E4
:101C3000883009F44DC0F6C0883109F44CC08032B8
:101C400009F45DC0EFC0803409F468C048F4803303
:101C500009F455C0883309F0E5C08093DD02D8C08F
:101C6000803509F44FC0883509F45DC0883409F027
:101C7000D9C0D6C0883909F4C7C0A8F4883709F498
:101C800067C038F4883609F463C0803709F460C04F
:101C9000C9C0883809F4B8C0803909F45FC08038F9
:101CA00009F0C0C05BC0803B09F486C038F4803ABC
:101CB00009F466C0883A09F47FC0B4C0803C09F4D6
:101CC000A7C0883C09F4A4C0883B09F48AC0AAC014
:101CD0008091BA0210C09091DC028091DB029817CB
:101CE00070F5E091DC0281E08E0F8093DC02F0E081
:101CF000E554FD4F80818093BB0085EC86C08093C6
:101D0000DD028EC0E091DC0281E08E0F8093DC0268
:101D10008091BB00F0E0E554FD4F80839091DC02A0
:101D20008091DB026EC0E091DC0281E08E0F809337
:101D3000DC028091BB00F0E0E554FD4F8083809190
:101D4000DE0281116DC081E08093B90284EA61C036
:101D500083E08093DF0210925E07CFCF80915E0711
:101D6000803208F051C0E0915E0781E08E0F8093D1
:101D70005E078091BB00F0E0E25CF84F8083BDCF4E
:101D800085EC8093BC001092DF0280915E07803268
:101D900030F4E0915E07F0E0E25CF84F1082609171
:101DA0005E0770E0E091FA06F091FB068EE397E0A3
:101DB000199510925E0736C084E08093DF0210927E
:101DC0003D0710923C07E091F806F091F90619954D
:101DD00080913C07811105C081E080933C071092FF
:101DE0001C07E0913D0781E08E0F80933D07F0E0F6
:101DF000E45EF84F80818093BB0090913D07809115
:101E00003C07981708F479CF85E88093BC000AC096
:101E100085EC8093BC001092DF0204C01092DD02BA
:101E20000E94550CFF91EF91BF91AF919F918F91BF
:101E30007F916F915F914F913F912F910F900BBECA
:101E40000F900FBE0F901F901895CF93DF93282F00
:101E500030E0F901E152FD4F8491F901E756FD4F61
:101E6000D491F901ED5AFD4FC491CC2391F0811129
:101E70000E94110DEC2FF0E0EE0FFF1FE75CFD4F0D
:101E8000A591B491EC91ED2381E090E021F480E004
:101E900002C080E090E0DF91CF9108951F93CF932F
:101EA000DF93282F30E0F901E152FD4F8491F901D1
:101EB000E756FD4FD491F901ED5AFD4FC491CC2363
:101EC000C1F0162F81110E94110DEC2FF0E0EE0FE2
:101ED000FF1FE15EFD4FA591B4919FB7F8941111DA
:101EE00004C08C91D095D82302C0EC91DE2BDC93FA
:101EF0009FBFDF91CF911F910895CF93DF9390E023
:101F0000FC01E756FD4F2491FC01ED5AFD4F8491F1
:101F1000882361F190E0880F991FFC01EB5FFD4F72
:101F2000C591D491FC01E15EFD4FA591B491611181
:101F300009C09FB7F8948881209582238883EC910B
:101F40002E230BC0623061F49FB7F8948881322F42
:101F5000309583238883EC912E2B2C939FBF06C052
:101F60008FB7F894E8812E2B28838FBFDF91CF9114
:101F70000895863308F0865390917B00282F2870AF
:101F8000977F922B90937B008770806480937C0076
:101F900080917A00806480937A0080917A0086FD37
:101FA000FCCF809178002091790090E0922B0895E9
:101FB0008F929F92AF92BF92CF92DF92EF92FF9259
:101FC0006B017C010E94B2024B015C01C114D1047F
:101FD000E104F104F1F00E94B202DC01CB018819A6
:101FE0009909AA09BB09883E9340A105B10570F380
:101FF00021E0C21AD108E108F10888EE880E83E0DA
:10200000981EA11CB11CC114D104E104F10419F7FC
:10201000DDCFFF90EF90DF90CF90BF90AF909F907B
:102020008F900895789484B5826084BD84B5816072
:1020300084BD85B5826085BD85B5816085BD809193
:102040006E00816080936E0010928100809181000B
:102050008260809381008091810081608093810003
:10206000809180008160809380008091B1008460C5
:102070008093B1008091B00081608093B000809126
:1020800091008260809391008091910081608093A3
:102090009100809190008160809390008091A100D8
:1020A00082608093A1008091A10081608093A10053
:1020B0008091A00081608093A000809121018260C6
:1020C0008093210180912101816080932101809181
:1020D000200181608093200180917A008460809348
:1020E0007A0080917A00826080937A0080917A00F1
:1020F000816080937A0080917A00806880937A0072
:102100001092C100E0915A04F0915B0482E0808358
:10211000E0915604F09157041082E0915804F09138
:1021200059048FEC808310926204E0915E04F09178
:102130005F0486E08083E0915C04F0915D0480811F
:1021400080618083E0915C04F0915D04808188600F
:102150008083E0915C04F0915D04808180688083DD
:10216000E0915C04F0915D0480818F7D808361E06B
:102170008091FE050E947D0F60E08091FE050E9427
:102180004E0F60E08091FD050E947D0F84E093E09A
:1021900090930806809307061092F7061092F606B1
:1021A0001092E102109203031092DF0281E080930B
:1021B000DE021092B90261E084E10E944E0F61E0FC
:1021C00085E10E944E0F8091B9008E7F8093B90007
:1021D0008091B9008D7F8093B90088E48093B80026
:1021E00085E48093BC0087E89CE09093F906809397
:1021F000F80688E89CE09093FB068093FA0680E05E
:1022000090E1A0E0B0E080930A0690930B06A093C3
:102210000C06B0930D068AE090E0A0E0B0E0809359
:102220000E0690930F06A0931006B093110680E05F
:1022300090E0A0E0B0E48093120690931306A09380
:102240001406B093150660E070E185E00E94ED0A87
:102250006FE979E380E00E94ED0ACDEFD5E08E01D1
:1022600042E0742E58E8A52E52E0B52E6EEC862E74
:1022700062E0962E7BECE72E77E0F72EF801948152
:102280008281898F9A8F61E00E947D0F61E08A8D43
:102290000E947D0FF801908586816E01FDE1CF0ED1
:1022A000D11C8D8F9E8F61E00E947D0F60E08E8D2E
:1022B0000E947D0F61E08D8D0E944E0F6FB6F894E5
:1022C00080918F02811126C0F5018491F40124913F
:1022D000E82FF0E0EE0FFF1FEB5FFD4FA591B491EB
:1022E0009C91822F892321F461E085E30E944E0FA7
:1022F00061E085E30E947D0F8CB580618CBD8CB55B
:1023000080648CBD61E084E30E947D0F61E083E323
:102310000E947D0F80918F028F5F80938F026FBE2E
:10232000C7010197F1F760E08D8D0E944E0F88E89C
:102330000E94C50783E00E94C50761E08D8D0E9461
:102340004E0FC7010197F1F7C6010E94CC077A949E
:102350000F5F1F4F2296711091CF02E216E0C6E286
:10236000D6E060E0F80181918F010E947D0FC017D7
:10237000D107B9F70EE116E028E2C22E26E0D22EF0
:102380007E01FFEFEF1AFF0A688170E0CE01089628
:102390000E945C08F70195818381F801828B938B01
:1023A00060E00E947D0F61E0F80183890E947D0F4B
:1023B00060E0F80183890E944E0F0E5F1F4FE70116
:1023C000CE14DF04E9F6F8941092200189E080939E
:1023D000210180E293E090932901809328011092DB
:1023E00025011092240182E08093730078948093F9
:1023F000E7041092EB048091E80460E00E947D0FF6
:102400006091260670E08EE296E00E945C08609182
:10241000270670E08FE296E00E945C08C1E0D0E001
:1024200083E0882E912CA12CB12C96E0C92ED12CC2
:10243000E12CF12C14E68091940290919502892B65
:1024400069F4809122060E94250F892B39F462E3FA
:1024500070E080E090E00E94D80FEDCFD09395021D
:10246000C09394020E94C1140E94C1142B013C012C
:102470000E94C114A50194010E943C166F5F7F4F1A
:102480008F4F9F4F0E941F1520E030E040E251E443
:102490000E942017609390027093910280939202A1
:1024A0009093930283E492E00E94710A4AE061E013
:1024B00070E080E090E00E94670D89E492E00E9465
:1024C000710AC301B201A70196010E943C16169F32
:1024D0009001179F300D1124B90180E090E00E9417
:1024E0001D159B01AC016091900270919102809149
:1024F0009202909193020E94240B0E946F0960EA5D
:1025000076E881E090E00E94D80F0E94C90493CF42
:102510008091F6059091F7050C94651810920703C9
:102520001092060388EE93E0A0E0B0E080930803E9
:1025300090930903A0930A03B0930B0327E132E0C1
:102540003093050320930403109213031092120397
:102550008093140390931503A0931603B09317036D
:1025600029E232E0309311032093100345E351E058
:1025700050931D0340931C0344E351E050931F0309
:1025800040931E0340E351E0509321034093200306
:1025900041E351E0509323034093220342E351E08F
:1025A000509325034093240346E351E050932703BF
:1025B000409326031092290310922A0310922B03B2
:1025C00010922C031092B0031092AF038093B103CA
:1025D0009093B203A093B303B093B4033093AE03CC
:1025E0002093AD0345ED50E05093BA034093B903F7
:1025F00044ED50E05093BC034093BB0340ED50E0EA
:102600005093BE034093BD0341ED50E05093C0038F
:102610004093BF0342ED50E05093C2034093C10387
:1026200046ED50E05093C4034093C3031092C60399
:102630001092C7031092C8031092C90310924D0460
:1026400010924C0480934E0490934F04A093500436
:10265000B093510430934B0420934A0485EC90E0EE
:10266000909357048093560484EC90E0909359041F
:102670008093580480EC90E090935B0480935A041C
:1026800081EC90E090935D0480935C0482EC90E098
:1026900090935F0480935E0486EC90E090936104D5
:1026A0008093600410926304109264041092650495
:1026B0001092660480910B0290910C02A0910D0281
:1026C000B0910E0280931E0690931F06A0932006E1
:1026D000B093210680910F0290911002A0911102F7
:1026E000B09112028093220690932306A0932406B1
:1026F000B093250684E08093260687E08093270622
:102700001092280684EB8093290686E180932A069E
:1027100088E180932B0687E180932C0689E18093E2
:102720002D06E091F505EC3020F08FEF80932E061A
:1027300010C081E08E0F8093F505E0932E0685E0B2
:10274000E89FF0011124E754FA4F88EB9BE0928355
:102750008183E091F505EC3020F08FEF80932F0618
:1027600010C081E08E0F8093F505E0932F0685E081
:10277000E89FF0011124E754FA4F88EB9BE0928325
:1027800081838CE08093FD0584E28093FE0586E0E2
:102790008093FF0585E0809300068FE1809301061A
:1027A0008EE18093020683E28093030682E28093A7
:1027B000040685E48093050684E48093060680E49D
:1027C0008093090610920E0610920F0610921006C2
:1027D000109211061092120610921306109214060F
:1027E00010921506E8E3F6E026EF36E08FEF9FEF54
:1027F000DC011282138214821582168217821086DF
:10280000118683879487A587B6878787908BA18B4E
:10281000B28B12861182108273962E173F0749F7EA
:102820008DE090E00E94CD17FC01138212828BE3B1
:1028300092E091838083118687E2848384E182879A
:1028400084E083871486F0933506E0933406109273
:1028500036061092370685E28093E8041092EA0467
:102860001092F7051092F6051092F9051092F805EE
:102870001092FB051092FA0561E070E080E090E0B4
:102880000E94EE18009789F09093F7058093F60563
:102890001092F9051092F8052091FA053091FB0588
:1028A000232BC1F4FC01108215C08091F605909194
:1028B000F705009711F00E9465181092F705109225
:1028C000F6051092FB051092FA051092F905109288
:1028D000F80508951092FB051092FA056BE472E07A
:1028E0008091F6059091F7050C94E1198F929F92D3
:1028F000AF92BF92CF92DF92EF92FF92CF93DF938E
:10290000EC01688179818A819B816115710581055E
:10291000910521F464E279ED8BE597E02DE133EF49
:1029200041E050E00E943C1649015A019B01AC0174
:10293000A7EAB1E40E945B166B017C01ACEEB4EF38
:10294000A50194010E946916DC01CB018C0D9D1D2F
:10295000AE1DBF1DB7FF03C00197A109B048888312
:102960009983AA83BB83BC01CD019F77DF91CF916F
:10297000FF90EF90DF90CF90BF90AF909F908F909F
:1029800008958F929F92AF92BF92CF92DF92EF9273
:10299000FF92609101027091020280910302909176
:1029A0000402611571058105910521F464E279ED58
:1029B0008BE597E02DE133EF41E050E00E943C16BB
:1029C00049015A019B01AC01A7EAB1E40E945B16E0
:1029D0006B017C01ACEEB4EFA50194010E94691675
:1029E000DC01CB018C0D9D1DAE1DBF1DB7FF03C0CB
:1029F0000197A109B0488093010290930202A0932D
:102A00000302B0930402BC01CD019F77FF90EF90C9
:102A1000DF90CF90BF90AF909F908F90089560937C
:102A200001027093020280930302909304020895BE
:102A30000E945A1508F481E00895E89409C097FBB4
:102A40003EF490958095709561957F4F8F4F9F4F85
:102A50009923A9F0F92F96E9BB279395F6958795C9
:102A600077956795B795F111F8CFFAF4BB0F11F48C
:102A700060FF1BC06F5F7F4F8F4F9F4F16C0882333
:102A800011F096E911C0772321F09EE8872F762F69
:102A900005C0662371F096E8862F70E060E02AF0AA
:102AA0009A95660F771F881FDAF7880F9695879596
:102AB00097F90895990F0008550FAA0BE0E8FEEF6B
:102AC00016161706E807F907C0F012161306E407F2
:102AD000F50798F0621B730B840B950B39F40A26EB
:102AE00061F0232B242B252B21F408950A2609F4C9
:102AF000A140A6958FEF811D811D08950E9491151B
:102B00000C9402160E94F41538F00E94FB1520F078
:102B1000952311F00C94EB150C94F11511240C94E1
:102B200036160E94131670F3959FC1F3950F50E06F
:102B3000551F629FF001729FBB27F00DB11D639F6F
:102B4000AA27F00DB11DAA1F649F6627B00DA11D15
:102B5000661F829F2227B00DA11D621F739FB00DBB
:102B6000A11D621F839FA00D611D221F749F33272B
:102B7000A00D611D231F849F600D211D822F762FC4
:102B80006A2F11249F5750409AF0F1F088234AF0A1
:102B9000EE0FFF1FBB1F661F771F881F915050400D
:102BA000A9F79E3F510580F00C94EB150C94361656
:102BB0005F3FE4F3983ED4F3869577956795B79594
:102BC000F795E7959F5FC1F7FE2B880F911D9695AE
:102BD000879597F9089597F99F6780E870E060E01E
:102BE00008959FEF80EC089500240A9416161706A6
:102BF00018060906089500240A94121613061406EE
:102C000005060895092E0394000C11F4882352F050
:102C1000BB0F40F4BF2B11F460FF04C06F5F7F4F08
:102C20008F4F9F4F089557FD9058440F551F59F0EF
:102C30005F3F71F04795880F97FB991F61F09F3FA9
:102C400079F087950895121613061406551FF2CFD2
:102C50004695F1DF08C0161617061806991FF1CF22
:102C600086957105610508940895E894BB27662749
:102C70007727CB0197F90895052E97FB1EF4009452
:102C80000E94531657FD07D00E946E1607FC03D012
:102C90004EF40C94531650954095309521953F4F26
:102CA0004F4F5F4F089590958095709561957F4F38
:102CB0008F4F9F4F08950E949016A59F900DB49F2F
:102CC000900DA49F800D911D11240895B7FF0C94C1
:102CD0005B160E945B16821B930B0895A1E21A2ECD
:102CE000AA1BBB1BFD010DC0AA1FBB1FEE1FFF1FB0
:102CF000A217B307E407F50720F0A21BB30BE40B00
:102D0000F50B661F771F881F991F1A9469F7609546
:102D10007095809590959B01AC01BD01CF01089500
:102D2000A29FB001B39FC001A39F700D811D11240C
:102D3000911DB29F700D811D1124911D0895991B45
:102D400079E004C0991F961708F0961B881F7A95A2
:102D5000C9F780950895EE0FFF1F881F8BBF07905E
:102D6000F691E02D19945058BB27AA270E94CB1644
:102D70000C9402160E94F41538F00E94FB1520F006
:102D800039F49F3F19F426F40C94F1150EF4E095F4
:102D9000E7FB0C94EB15E92F0E94131658F3BA17B2
:102DA000620773078407950720F079F4A6F50C9461
:102DB00035160EF4E0950B2EBA2FA02D0B01B9019C
:102DC00090010C01CA01A0011124FF27591B99F0A1
:102DD000593F50F4503E68F11A16F040A22F232FAD
:102DE000342F4427585FF3CF469537952795A795FD
:102DF000F0405395C9F77EF41F16BA0B620B730BA4
:102E0000840BBAF09150A1F0FF0FBB1F661F771F14
:102E1000881FC2F70EC0BA0F621F731F841F48F4C9
:102E2000879577956795B795F7959E3F08F0B0CF52
:102E30009395880F08F09927EE0F97958795089539
:102E40000E9434170C9402160E94FB1558F00E9441
:102E5000F41540F029F45F3F29F00C94EB15511163
:102E60000C9436160C94F1150E94131668F39923EE
:102E7000B1F3552391F3951B550BBB27AA27621776
:102E80007307840738F09F5F5F4F220F331F441F83
:102E9000AA1FA9F335D00E2E3AF0E0E832D09150B7
:102EA0005040E695001CCAF72BD0FE2F29D0660FA4
:102EB000771F881FBB1F261737074807AB07B0E8E7
:102EC00009F0BB0B802DBF01FF2793585F4F3AF0ED
:102ED0009E3F510578F00C94EB150C9436165F3F2D
:102EE000E4F3983ED4F3869577956795B795F79573
:102EF0009F5FC9F7880F911D9695879597F908955B
:102F0000E1E0660F771F881FBB1F621773078407F6
:102F1000BA0720F0621B730B840BBA0BEE1F88F705
:102F2000E09508950E9499176894B1110C94361693
:102F300008950E941B1688F09F5798F0B92F992783
:102F4000B751B0F0E1F0660F771F881F991F1AF094
:102F5000BA95C9F714C0B13091F00E943516B1E0AE
:102F600008950C943516672F782F8827B85F39F0AD
:102F7000B93FCCF3869577956795B395D9F73EF42D
:102F800090958095709561957F4F8F4F9F4F0895D5
:102F90000E945A1508F48FEF08950F931F93CF9353
:102FA000DF938230910510F482E090E0E0916307B6
:102FB000F091640720E030E0A0E0B0E0309719F134
:102FC000408151810281138148175907C8F0841745
:102FD000950769F4109731F012960C931297139697
:102FE0001C9327C0009363071093640722C0211528
:102FF000310519F04217530718F49A01BD01EF018A
:10300000DF01F801DBCF21153105F9F0281B390B61
:103010002430310580F48A819B816115710521F08E
:10302000FB019383828304C09093640780936307BA
:10303000FE01329644C0FE01E20FF31F819391938B
:1030400022503109398328833AC020916107309199
:103050006207232B41F4209107023091080230933C
:103060006207209361072091050230910602211525
:10307000310541F42DB73EB74091090250910A0243
:10308000241B350BE0916107F0916207E217F3070B
:10309000A0F42E1B3F0B2817390778F0AC014E5FC8
:1030A0005F4F2417350748F04E0F5F1F509362079C
:1030B000409361078193919302C0E0E0F0E0CF017B
:1030C000DF91CF911F910F910895CF93DF930097D8
:1030D00009F481C0FC01329713821282A091630728
:1030E000B0916407109781F420813181820F931F82
:1030F00020916107309162072817390751F5F09345
:103100006207E093610767C0ED0120E030E0CE1771
:10311000DF0740F44A815B819E0141155105F1F0C2
:10312000EA01F5CFD383C28340815181840F951F7B
:10313000C817D90759F488819981840F951F029681
:10314000918380838A819B819383828321153105BA
:1031500029F4F0936407E09363073DC0E901FB8322
:10316000EA8349915991C40FD51FEC17FD0761F40B
:1031700080819181840F951F0296E901998388834C
:10318000828193819B838A83E0E0F0E012968D91A7
:103190009C911397009719F0FD01DC01F7CF8D91F9
:1031A0009C9111979D012E5F3F4F820F931F20919D
:1031B0006107309162072817390769F4309729F4BD
:1031C000109264071092630702C013821282B093B8
:1031D0006207A0936107DF91CF9108956F927F926C
:1031E0008F929F92AF92BF92CF92DF92EF92FF9217
:1031F0000F931F93CF93DF93009789F4CB01DF9157
:10320000CF911F910F91FF90EF90DF90CF90BF90E3
:10321000AF909F908F907F906F900C94CD17FC0192
:10322000E60FF71F9C0122503109E217F30708F45B
:10323000A9C0EC01D9010D911C9111970617170730
:10324000B0F00530110508F49BC0C801049786173B
:10325000970708F495C002501109061B170B01933C
:1032600011936D937C93CF010E94651889C05B0117
:10327000A01AB10A4C01800E911EA0916307B09173
:103280006407612C712CE12CF12C109709F446C0D5
:103290008D919C911197A815B905B1F56C0142E08B
:1032A000C40ED11CCA14DB0478F14C018A189B08A7
:1032B000640142E0C40ED11C1296BC901297139682
:1032C000AC91B5E0CB16D10440F0B282A3839182D9
:1032D0008082D9016D937C9309C00E5F1F4F800FD0
:1032E000911FF90191838083EB2DFA2FE114F104F2
:1032F00031F0D7011396FC93EE93129741C0F093EF
:103300006407E09363073CC06816790608F43C0143
:103310007D0112960D90BC91A02DB7CF80916107D1
:103320009091620788169906E1F466167706C8F44C
:103330008091050290910602009741F48DB79EB7E7
:103340004091090250910A02841B950BE817F90776
:10335000C8F4F0936207E0936107F9017183608319
:103360000FC0CB010E94CD177C01009759F0A80136
:10337000BE010E94D819CE010E946518C70104C081
:10338000CE0102C080E090E0DF91CF911F910F91BC
:10339000FF90EF90DF90CF90BF90AF909F908F9075
:1033A0007F906F90089581E090E0F8940C94E81974
:1033B000FB01DC0102C001900D9241505040D8F752
:1033C0000895FB01DC0101900D920020E1F70895C2
:1033D00011E0C4E9D1E000E006C0802FFE010E94A8
:1033E000AB162196011DC539D10780E00807A9F762
:0433F000F894FFCF7F
:1033F400FF01000000000065072000363738391B44
:103404001D1A1C00000000E20CB50C6D05890CAD02
:103414000C990C8A0C000000004302C801F20190D0
:1034240002BA0401021502000000007005C8016D13
:10343400056C054D4F563A20000D0A00496E766121
:103444006C69642049522069642100496E76616C7C
:103454006964206D6F746F72206964210053657212
:10346400766F20616E676C65206973206F757420B8
:0A3474006F662072616E676521002B
:00000001FF
