:100000000C94B6010C94E7010C94E7010C94E70101
:100010000C94E7010C94E7010C94E7010C94E701C0
:100020000C94E7010C949F0C0C949F0C0C949F0C67
:100030000C94E7010C9414080C94E7010C94E7016C
:100040000C94E7010C94C9120C94E7010C94E7019D
:100050000C94E7010C94E7010C94E7010C946907F8
:100060000C94E7010C9483090C9459090C94E70152
:100070000C94E7010C94E7010C94E7010C94E70160
:100080000C94E7010C94E7010C94E7010C94E70150
:100090000C94E7010C94E7010C94E7010C94831392
:1000A0000C94E7010C94E7010C94E7010C94E70130
:1000B0000C94E7010C94E7010C94E7010C94C9102F
:1000C0000C94E7010C94E7010C94E7010C942F09C0
:1000D0000C9405090C94E7010C94DB080C94B1080E
:1000E0000C94E701C809CB09BA09BE09C409020A80
:1000F000CF09D309D909DD09E109E709EB09EF09BE
:10010000020AF509F909FD09660D6B0D700D7A0DEE
:10011000840DFD0D8E0D960D9E0DA80DB20DBC0D1E
:10012000CB0DD50DFD0DDF0DE90DF30D0C94E90D93
:100130000C94560F0C94E1090C94D50D0C94870F78
:100140000C94F30D0C94CF090C94650F0C94F60FDE
:100150000C94BC0D0C94F9090C9407100C947A0DB6
:100160000C94960D0C94700D0C94020A0C94B0062D
:100170000C9423100C94A80D0C94EB090C94FD0D19
:100180000C949E0D0C94DF0D0C94F80F0C94840DC0
:100190000C9450100C94E7090C94C8090C94B20DFF
:1001A0000C946B0D0C94FD090C94EF090C948E0DBE
:1001B0000C94FA1A0C941B100C94F41A0C94F70F6C
:1001C0000C9447070C94660D0C94CB0D0C94D3093A
:1001D0000C94E9010C94D9090C9482100C94CB096D
:1001E0000C94F50F0C94BA090C94F5090C94AF0615
:1001F0000C94F4020C94FA060C947F100C94C4092D
:100200000C94BE090C94DD090C94790F4E414E49B3
:100210004E495459494E46CDCCCC3D0AD7233C17C4
:10022000B7D13877CC2B329595E6241FB14F0A0011
:100230000020410000C84200401C4620BCBE4CCA01
:100240001B0E5AAEC59D7402000021002400270039
:100250002A002D00300033000101000004010701D5
:100260000A0100002200250028002B002E0031008A
:10027000340002010000050108010B01000020000C
:100280002300260029002C002F003200000100006E
:100290000301060109010505050507050808080809
:1002A000020202020A0A080804040404010101010E
:1002B0000101010103030303030303030407070709
:1002C0000C0C0C0C0C0C0C0C0202020206060606AE
:1002D000060606060B0B0B0B0B0B0B0B010210207B
:1002E000200808102040102040800201020108046C
:1002F0000201010204081020408080402010080400
:100300000201800402018040201008040201080458
:10031000020101020408102040800102040810209C
:10032000408000000A0B02090C0D0E0807030401AF
:1003300000000000000000000000000000000000BD
:10034000000000000000000000000000000012118A
:10035000100000000000000000000000000000008D
:100360000000000000000000FA1AF41A11241FBE59
:10037000CFEFD1E2DEBFCDBF00E00CBF13E0A0E0C5
:10038000B2E0E4EDF7E400E00BBF02C007900D928D
:10039000A03EB107D9F728E0A0EEB3E001C01D925E
:1003A000A83AB207E1F711E0C5EBD1E000E006C0E2
:1003B00021970109802FFE010E948D20C43BD107A7
:1003C00080E00807A9F70E9497170C94D8230C9493
:1003D000000081E0089540E050E0BA0181EB97E031
:1003E0000E94871140E050E060E070E883EB97E006
:1003F0000C9487112F923F924F925F926F927F924F
:100400008F929F92AF92BF92CF92DF92EF92FF9224
:100410000F931F93CF93DF93CDB7DEB728970FB617
:10042000F894DEBF0FBECDBF68877F83D82EC92E5C
:1004300049015A011C830B8385EB97E00E94DE1172
:1004400087EB97E00E94DE1125E83BEA45E053E4A4
:10045000C501B4010E94491F0E9474217A836983F7
:1004600048855F816D2D7C2D81EB97E00E9487117F
:1004700048855F816D2D7C2D81E00E9471130E9463
:10048000C70E4B015C010E94C70E2B013C01E884A2
:10049000FF800D2D1C2D212C312C29813A81319585
:1004A000219531093E832D83910137FE04C0222717
:1004B00033272219330989819A8197FF02C08D81E0
:1004C0009E81281739070CF076C084E690E0A0E002
:1004D000B0E084199509A609B709BC01CD01680DE2
:1004E000791D8A1D9B1D0E94420E0E94C70E4B0162
:1004F0005C0185EB97E00E9409129B01AC01882703
:100500009927DC01821B930BA40BB50B280E391E17
:1005100020E030E0A901B701C8010E94962020E048
:1005200030E0A9010E9496207B018C0120E030E0A0
:1005300040E85FE30E94E31E87FD04C0E12CF12C3C
:1005400000E81FE30E94C70E2B013C0120E030E0D1
:10055000A90168857F818D2D9C2D0E94AA211816E6
:100560000CF0A2CF9701A80168857F818D2D9C2D6D
:10057000EB81FC811995811197CF63E472E085EEE0
:1005800095E028960FB6F894DEBF0FBECDBFDF9181
:10059000CF911F910F91FF90EF90DF90CF90BF9080
:1005A000AF909F908F907F906F905F904F903F9013
:1005B0002F900C94321728960FB6F894DEBF0FBE1A
:1005C000CDBFDF91CF911F910F91FF90EF90DF9002
:1005D000CF90BF90AF909F908F907F906F905F90E3
:1005E0004F903F902F9008954F925F926F927F921D
:1005F0008F929F92AF92BF92CF92DF92EF92FF9233
:100600000F931F93CF93DF93CDB7DEB72C970FB621
:10061000F894DEBF0FBECDBF6B017C0149015A01CA
:100620000E94250E8823B1F10E94EB0187E090E043
:100630000E94431568E780E00E94840B60ED77E03C
:1006400080E090E00E94420E68E280E00E94840B0D
:1006500068EE73E080E090E00E94420E0E94250E5A
:1006600081110CC0B701A60181EB97E00E948711B0
:10067000B501A40181E00E9471130CC0C701B6014D
:10068000905809EE11E020E030E040E251E40E9491
:10069000FA0146C380E00E94280A8F7E482F50E06E
:1006A00060E070E080E00E9434176CE370E080E06E
:1006B00090E00E94420E8091DB07811102C00E94EF
:1006C0007C0E84E10E94430A7C0186E10E94430A79
:1006D0006C0188E10E94430A5C018AE10E94430A9E
:1006E0008C018091DE079091DF07853D910519F11E
:1006F00050F4009729F1803C910541F56AE970E0DA
:1007000080E090E021C0863F910581F08F3F910508
:1007100041F08B3E9105D1F462E370E080E090E01F
:1007200013C063E070E080E090E00EC068E170E02C
:1007300080E090E009C065E670E080E090E004C0F1
:100740006CEB72E080E090E00E94420E80E00E943C
:10075000280A8061482F50E060E070E080E00E944D
:100760003417B60180E090E00E94E81E2B013C01A6
:10077000B70180E090E00E94E81E6B017C019B01C4
:10078000AC01C301B2010E9402212B013C01B50161
:1007900080E090E00E94E81EA70196010E940221DD
:1007A0004B015C01B80180E090E00E94E81EA701C7
:1007B00096010E94022120E030E040E853E40E94CC
:1007C000491F6B017C0166E572E085EE95E00E94B1
:1007D000321720E030E040E853E4C301B2010E9448
:1007E000491FAB01BC0122E085EE95E00E946D0A35
:1007F00062E672E085EE95E00E94321720E030E07C
:1008000040E853E4C501B4010E94491FAB01BC019B
:1008100022E085EE95E00E946D0A67E672E085EEC3
:1008200095E00E943217B701A60185EE95E00E947F
:10083000490B20E030E044EB52E4C701B6010E94CE
:10084000AA2118160CF076C00E94EB0162E370E05A
:1008500080E090E00E94420E04EF12E020E030E0E1
:1008600040E751E46DEC7CEC8CEC9DEB0E94FA01CE
:100870000E94EB0185EB97E00E94DE1187EB97E089
:100880000E94DE114DEC5CEC6CEC7DE381EB97E0BB
:100890000E9487114DEC5CEC6CEC7DEB81E00E94DA
:1008A000711300E010E0C80117FF03C09195819516
:1008B000910986399F40DCF56AE070E080E090E0C5
:1008C0000E94420E85EB97E00E9409126B017C01A9
:1008D00087EB97E00E940912F094E094D094C094C2
:1008E000C11CD11CE11CF11C9601D7FE04C02227BB
:1008F00033272C193D09AB0177FF04C04427552746
:10090000461B570BB901640F751F072E000C880B8F
:10091000990B0E94EA1E20E030E040E05FE30E9475
:10092000491F0E9474218B010E94F402BCCF0E94D7
:10093000EB01F6C1712CAA24A394B12C6CE672E0F1
:1009400088E495E00E94D81568EE73E080E090E0BE
:100950000E94420E88E495E00E94870F892B09F4DB
:1009600071C16FE772E085EE95E00E94D8156BE3E8
:10097000CE0107960E94070FCF80D884C114D104FE
:10098000E9F10B851C8501151105C1F176014701BF
:100990008FEF881A980AF7018081082E000C990BB6
:1009A0000E94C21E892B11F07401F1CF0150110970
:1009B0000C0D1D1DF8018081082E000C990B0E9462
:1009C000C21E892B31F00E151F0518F001501109B8
:1009D000F1CFA8014F5F5F4F4E195F095C874B87CE
:1009E000CE14DF0420F4B701C6010E94BF23EF81BB
:1009F000F8858B859C85E80FF91F10828B859C8577
:100A0000892B09F40EC10F8118856AE972E0C801CB
:100A10000E94C823892B09F0DFC061E972E088E4F5
:100A200095E00E94D8156BE3CE0101960E94070F56
:100A3000BE016F5F7F4FCE0107960E94B307898189
:100A40009A810E944C228F819885009729F00E94FC
:100A5000621D2B013C0103C0412C512C32016DE978
:100A600072E088E495E00E943217B301A20188E4A5
:100A700095E00E94490B6AE0CE0101960E94070FA3
:100A8000BE016F5F7F4FCE0107960E94B307898139
:100A90009A810E944C228F819885009729F00E94AC
:100AA000621D7B018C0104C0E12CF12C00E010E000
:100AB00065EA72E088E495E00E943217A701B80168
:100AC00088E495E00E94490B88E495E00E9447077E
:100AD0006DEA72E085EE95E00E94D81520E030E0E6
:100AE000A901C301B2010E94E31E87FF1DC0C3011B
:100AF000B2010E9474219B0177FF04C02227332793
:100B0000261B370BB501621B730B072E000C880BDD
:100B1000990B0E94EA1E9701A8010E94491F4701F4
:100B200068017B018C011AC0C301B2010E947421CB
:100B30009B0177FF04C022273327261B370BB50103
:100B4000621B730B072E000C880B990B0E94EA1E88
:100B50009701A8010E94491F4B016C0165EB72E0EF
:100B600085EE95E00E94321722E0A701B80185EEDC
:100B700095E00E946D0A63EC72E085EE95E00E94BC
:100B8000321722E0A401B60185EE95E00E946D0ABD
:100B90002DEC3CEC4CE45EE3B701C8010E94491F18
:100BA000AB01BC0181EB97E00E9487112DEC3CEC7E
:100BB0004CE45EE3B401C6010E94491FAB01BC01D5
:100BC00081E00E94711368EC70E080E090E00E9488
:100BD000420E7724739430C06CEC72E0C8010E941E
:100BE000C823892B29F485E090E00E94431524C096
:100BF00062ED72E0C8010E94C823892BE9F067ED1D
:100C000072E0C8010E94C823892B59F483E090E068
:100C10000E94431566EE72E085EE95E00E94321761
:100C20000BC06EEF72E085EE95E00E94D8158F81C3
:100C300098850E944C2206C08F8198850E944C2284
:100C400071107CCE86E30E94060E7C0187E30E9431
:100C5000060E8C0168EC70E080E090E00E94420E8D
:100C600086E30E94060E6C0187E30E94060E081BB5
:100C7000190BEC18FD08F9E1EF0EF11C23E3E21665
:100C8000F10430F4075E1F4F0333110508F44AC026
:100C900066E073E085EE95E00E94D81584E090E070
:100CA0000E9443156FEF70E082E00E943D0D68EEF8
:100CB00073E080E090E00E94420E68EC70E082E019
:100CC0000E943D0D64EF71E080E090E00E94420ED2
:100CD00066E970E082E00E943D0D64EF71E080E023
:100CE00090E00E94420E81E08093AA0485E0809308
:100CF000A9041092A8041092A70481E090E00E9439
:100D0000C3158FEC97E00E94B514182F60E173E0D3
:100D100085EE95E00E943217812F90E00E943516F3
:100D200080E006C060E070E082E00E943D0D81E05E
:100D30002C960FB6F894DEBF0FBECDBFDF91CF91DA
:100D40001F910F91FF90EF90DF90CF90BF90AF90E9
:100D50009F908F907F906F905F904F90089508952F
:100D6000CF92DF92EF92FF920F931F93CF93DF9377
:100D70006C017A018B01C0E0D0E0CE15DF0581F077
:100D8000D8016D918D01D601ED91FC910190F0811A
:100D9000E02DC6011995892B11F02196EECF7E0129
:100DA000C701DF91CF911F910F91FF90EF90DF90DE
:100DB000CF9008950E94BA238BEA94E00E94870F97
:100DC00021E0892B09F420E0822F089588E495E042
:100DD0000E94870F21E0892B09F420E0822F0895DB
:100DE00085EE95E00E94870F21E0892B09F420E031
:100DF000822F0895EF92FF920F931F93CF93DF936B
:100E0000EC0181E0888F9B8D8C8D981305C0E8895B
:100E1000F989808185FD26C0F62E0B8D10E00F5FCD
:100E20001F4F0F731127E02E8C8DE8120CC00FB6E8
:100E300007FCFACFE889F989808185FFF5CFCE01DB
:100E40000E94A710F1CF8B8DFE01E80FF11DE35A30
:100E5000FF4FF0829FB7F8940B8FEA89FB8980815E
:100E600080620AC09FB7F894EE89FF896083E889A1
:100E7000F98980818370806480839FBF81E090E0E6
:100E8000DF91CF911F910F91FF90EF900895CF9335
:100E9000DF93EC01888D8823C9F0EA89FB89808182
:100EA00085FD05C0A889B9898C9186FD0FC00FB654
:100EB00007FCF5CF808185FFF2CFA889B9898C9195
:100EC00085FFEDCFCE010E94A710E7CFDF91CF9134
:100ED00008951F920F920FB60F9211242F933F93F4
:100EE0008F939F93AF93BF938091EC039091ED0309
:100EF000A091EE03B091EF033091EB0323E0230FB9
:100F00002D3720F40196A11DB11D05C026E8230F41
:100F10000296A11DB11D2093EB038093EC039093E7
:100F2000ED03A093EE03B093EF038091F003909153
:100F3000F103A091F203B091F3030196A11DB11D3D
:100F40008093F0039093F103A093F203B093F30323
:100F5000BF91AF919F918F913F912F910F900FBEB5
:100F60000F901F9018950F931F93CF93DF938C01D1
:100F7000EB01FC0180819181009739F068817981D2
:100F800061157105A1F40E944C2288819981F801B4
:100F9000918380838A819B81938382838C819D81CD
:100FA00095838483198218821B821A820FC0F801EC
:100FB000428153812C813D814217530720F30E94C7
:100FC000D1238C819D81F801958384831D821C82AD
:100FD000DF91CF911F910F9108950F931F93CF939E
:100FE000DF93EC0188819981009729F02A813B8168
:100FF0002617370788F48B016F5F7F4F0E94D52239
:10100000009761F0998388831B830A832C813D813B
:10101000232B11F4FC01108281E001C080E0DF91FC
:10102000CF911F910F9108951F920F920FB60F92BB
:1010300011240BB60F922F933F934F935F936F93AF
:101040007F938F939F93AF93BF93EF93FF93809181
:10105000E1039091E203A091E303B091E403892BB3
:101060008A2B8B2B49F19091E00380910000892716
:10107000809300008091E1039091E203A091E3034B
:10108000B091E403181619061A061B060CF056C098
:101090008091E1039091E203A091E303B091E40316
:1010A0000197A109B1098093E1039093E203A09312
:1010B000E303B093E40342C080910002E7E4F2E06E
:1010C000E4919FEF90930002E230C9F050F4EE23D8
:1010D00099F0E13081F590916F009D7F90936F00C2
:1010E0002AC0E43019F1E0F0E53029F59091730061
:1010F0009D7F909373001FC010926E001CC0909152
:1011000070009D7F9093700091E09093B00090915B
:10111000B100987F94609093B1001092B3000BC01F
:10112000909171009D7F9093710005C09091720025
:101130009D7F9093720060E00E94D20CFF91EF912E
:10114000BF91AF919F918F917F916F915F914F91DF
:101150003F912F910F900BBE0F900FBE0F901F90DD
:1011600018951F920F920FB60F9211240BB60F9283
:101170002F933F934F935F936F937F938F939F939F
:10118000AF93BF93EF93FF938BEA94E00E94A71075
:10119000FF91EF91BF91AF919F918F917F916F914F
:1011A0005F914F913F912F910F900BBE0F900FBE0B
:1011B0000F901F9018951F920F920FB60F92112447
:1011C0000BB60F922F933F934F935F936F937F9341
:1011D0008F939F93AF93BF93EF93FF938BEA94E02A
:1011E0000E94860CFF91EF91BF91AF919F918F91DB
:1011F0007F916F915F914F913F912F910F900BBE17
:101200000F900FBE0F901F9018951F920F920FB660
:101210000F9211240BB60F922F933F934F935F932E
:101220006F937F938F939F93AF93BF93EF93FF93AE
:1012300088E495E00E94A710FF91EF91BF91AF91D4
:101240009F918F917F916F915F914F913F912F91DE
:101250000F900BBE0F900FBE0F901F9018951F920E
:101260000F920FB60F9211240BB60F922F933F934C
:101270004F935F936F937F938F939F93AF93BF939E
:10128000EF93FF9388E495E00E94860CFF91EF9125
:10129000BF91AF919F918F917F916F915F914F918E
:1012A0003F912F910F900BBE0F900FBE0F901F908C
:1012B00018951F920F920FB60F9211240BB60F9232
:1012C0002F933F934F935F936F937F938F939F934E
:1012D000AF93BF93EF93FF9385EE95E00E94A71025
:1012E000FF91EF91BF91AF919F918F917F916F91FE
:1012F0005F914F913F912F910F900BBE0F900FBEBA
:101300000F901F9018951F920F920FB60F921124F5
:101310000BB60F922F933F934F935F936F937F93EF
:101320008F939F93AF93BF93EF93FF9385EE95E0D9
:101330000E94860CFF91EF91BF91AF919F918F9189
:101340007F916F915F914F913F912F910F900BBEC5
:101350000F900FBE0F901F90189590E0FC013197F1
:10136000E231F10508F04EC08827EE58FF4F8F4F4D
:101370000C948D20809180008F7703C08091800035
:101380008F7D80938000089580918000877FF9CFC2
:1013900084B58F7702C084B58F7D84BD0895809118
:1013A000B0008F7703C08091B0008F7D8093B00034
:1013B0000895809190008F7707C0809190008F7D75
:1013C00003C080919000877F809390000895809162
:1013D000A0008F7707C08091A0008F7D03C080910F
:1013E000A000877F8093A0000895809120018F77CF
:1013F00007C0809120018F7D03C080912001877FED
:101400008093200108953FB7F8948091F003909164
:10141000F103A091F203B091F30326B5A89B05C098
:101420002F3F19F00196A11DB11D3FBFBA2FA92F63
:10143000982F8827820F911DA11DB11DBC01CD01E0
:1014400042E0660F771F881F991F4A95D1F70895CC
:1014500091E09093AA0499E29093A9041092A804B1
:101460001092A704806890E00E94C3158FEC97E06B
:101470000E94B51481E090E00E944E178FEC97E037
:101480000E9407100895CF93DF9391E09093AA04F0
:1014900099E29093A9041092A8041092A70480687E
:1014A00090E00E94C3158FEC97E00E94B51482E093
:1014B00090E00E944E178FEC97E00E940710EC011D
:1014C0008FEC97E00E94071020E030E0382FCE012B
:1014D000822B932BDF91CF9108957F928F929F92D1
:1014E000AF92BF92CF92DF92EF92FF920F931F9332
:1014F000CF93DF938C016A017B01722E9A01AB01BD
:10150000C701B6010E94AF21882319F06EE773E08E
:1015100027C046015701E894B7F82FEF3FEF4FE798
:101520005FE7C501B4010E94AF2181110DC02FEF0B
:101530003FEF4FE75FE7C501B4010E94E31E1816B5
:101540001CF462E873E00CC02FEF3FEF4FE75FE45D
:10155000C701B6010E94AA21181694F466E873E048
:10156000C801DF91CF911F910F91FF90EF90DF9015
:10157000CF90BF90AF909F908F907F900C94C815A4
:101580002FEF3FEF4FE75FECC701B6010E94E31E6C
:1015900087FDE4CF20E030E0A901C701B6010E9439
:1015A000E31E87FF0AC06DE2C8010E94FA06EC0143
:1015B000F7FAF094F7F8F09402C0C0E0D0E0B12C54
:1015C00060E070E080E09FE37B1441F020E030E0D9
:1015D00040E251E40E940221B394F6CFA7019601A4
:1015E0000E9496206B017C010E947B214B015C01D3
:1015F0002AE0AB01BC01C8010E94EC15C80FD91F3D
:101600007720C1F1C501B4010E94E81E9B01AC0125
:10161000C701B6010E9495206B017C016EE2C801F2
:101620000E94FA06C80FD91F20E030E040E251E4E2
:10163000C701B6010E94491F4B015C010E947B213A
:101640006B01E12CF12C2AE0B701A601C8010E9430
:10165000EC15C80FD91FC701B6010E94E81E9B01F7
:10166000AC01C501B4010E9495206B017C017A9404
:101670007110DACFCE01DF91CF911F910F91FF90C2
:10168000EF90DF90CF90BF90AF909F908F907F9022
:1016900008950F931F93CF93DF93EC0122E00E94F4
:1016A0006D0A8C016BE773E0CE010E94C815800FB4
:1016B000911FDF91CF911F910F9108950F931F9369
:1016C000CF93DF93EC018B010E94ED0728813981D4
:1016D00081110DC02115310519F0C9010E944C225C
:1016E000198218821D821C821B821A8207C01D83E8
:1016F0000C836DE773E0C9010E94D123CE01DF9115
:10170000CF911F910F910895CF92DF92EF92FF92A8
:10171000CF93DF93823018F06AE873E00AC09091AB
:10172000C307691720F09091C407961760F46CE91D
:1017300073E085EE95E0DF91CF91FF90EF90DF9021
:10174000CF900C94D815E82FF0E0E754F84FC089FB
:10175000CC3008F072C0262F30E0D0E085E08C9FBE
:10176000F0018D9FF00D1124EC5AF84F8381283C35
:1017700031059CF528E830E06901C81AD10887FDD9
:10178000D394CC0CDD1CCC0CDD1C0D2C000CEE0815
:10179000FF08848128E532E0281B310987FD339555
:1017A000220F331F220F331FC901330FAA0BBB0BAC
:1017B0009C01AD012C193D094E095F09A62FB0E02F
:1017C0000E94292024EB30E040E050E00E940A20F3
:1017D000C20ED31EE41EF51E1EC048E850E06A018A
:1017E000C81AD10887FDD394CC0CDD1CCC0CDD1CB1
:1017F0002C153D0584F0448188E592E0841B910915
:1018000047FD9395880F991F880F991F69018C15C3
:101810009D050CF46C018FB7F89495E09C9FF00146
:101820009D9FF00D1124EC5AF84F96E0C91AD1088B
:10183000CC0CDD1CD282C1828FBFDF91CF91FF9093
:10184000EF90DF90CF9008950F931F93CF93DF9386
:10185000162F072FC8E9D7E09C8521E02093AA0422
:101860009093A9041092A8041092A704AA85BB859E
:10187000ED91FC9111970190F081E02D682FCD0141
:1018800019958A859B85DC01ED91FC910190F08191
:10189000E02D602F19958A859B85DC01ED91FC91E7
:1018A0000190F081E02D612F19958A859B85DF914C
:1018B000CF911F910F910C94B514FC01848191E09C
:1018C0009093AA048093A9041092A8041092A704EC
:1018D0008485862B90E00E94C3158FEC97E00C94D2
:1018E000B5140F931F93CF938C01C62F64600E9491
:1018F0005D0C6C2F6B7FC8010E945D0C83EC90E047
:101900000197F1F7CF911F910F910895FC01A089E4
:10191000B1898C91A689B78982FD0FC09C91818D78
:101920008F5F8F73228D821749F0218DDF01A20F07
:10193000B11D5D969C93818F08958C9108951F929F
:101940000F920FB60F9211240F900FBE0F901F90A1
:101950001895CF93DF93282F30E0F901EE5DFC4F0F
:101960008491F901E452FD4FD491F901EA56FD4FFB
:10197000C491CC2391F081110E94AD09EC2FF0E0CD
:10198000EE0FFF1FE458FD4FA591B491EC91ED23AC
:1019900081E090E021F480E002C080E090E0DF91FF
:1019A000CF9108951F93CF93DF93282F30E0F90153
:1019B000EE5DFC4F8491F901E452FD4FD491F901A1
:1019C000EA56FD4FC491CC23C1F0162F81110E941D
:1019D000AD09EC2FF0E0EE0FFF1FEE59FD4FA59182
:1019E000B4919FB7F894111104C08C91D095D8236D
:1019F00002C0EC91DE2BDC939FBFDF91CF911F9152
:101A00000895CF93DF9390E0FC01E452FD4F2491C1
:101A1000FC01EA56FD4F8491882361F190E0880F24
:101A2000991FFC01E85BFD4FC591D491FC01EE5973
:101A3000FD4FA591B491611109C09FB7F8948881B9
:101A4000209582238883EC912E230BC0623061F4B1
:101A50009FB7F8948881322F309583238883EC9147
:101A60002E2B2C939FBF06C08FB7F894E8812E2BA6
:101A700028838FBFDF91CF9108951F93CF93DF937A
:101A8000182FEB0161E00E94010D209711F460E036
:101A900004C0CF3FD10539F461E0812FDF91CF91B0
:101AA0001F910C94D20CE12FF0E0EE5DFC4FE4911D
:101AB0008E2F90E0FC013197E231F10508F09DC0D6
:101AC0008827EC57FF4F8F4F0C948D2084B580688A
:101AD00084BDC7BD97C084B5806284BDC8BD92C0B7
:101AE00080918000806880938000D0938900C093AB
:101AF000880088C080918000806280938000D093AD
:101B00008B00C0938A007EC08091800088608093A3
:101B10008000D0938D00C0938C0074C08091B00081
:101B200080688093B000C093B3006CC08091B00017
:101B300080628093B000C093B40064C08091900034
:101B4000806880939000D0939900C09398005AC009
:101B500080919000806280939000D0939B00C0930E
:101B60009A0050C080919000886080939000D0933C
:101B70009D00C0939C0046C08091A0008068809327
:101B8000A0008091A0008F7B8093A000D093A9003B
:101B9000C093A80037C08091A00080628093A0000D
:101BA000D093AB00C093AA002DC08091A0008860A4
:101BB0008093A000D093AD00C093AC0023C080916F
:101BC0002001806880932001D0932901C0932801CF
:101BD00019C080912001806280932001D0932B0155
:101BE000C0932A010FC0809120018860809320015A
:101BF000D0932D01C0932C0105C0C038D1050CF045
:101C00004BCF45CFDF91CF911F910895863308F0D8
:101C1000865390917B00282F2870977F922B90936A
:101C20007B008770806480937C0080917A00806460
:101C300080937A0080917A0086FDFCCF80917800B5
:101C40002091790090E0922B08958091B9070E942D
:101C5000060EAC0160E070E02AE085EE95E00E949F
:101C6000EC156BE773E085EE95E00E94C815809156
:101C7000B9070E94060E21E08C32914008F420E062
:101C8000822F08958F929F92AF92BF92CF92DF9250
:101C9000EF92FF926B017C010E94030A4B015C01F1
:101CA000C114D104E104F104F1F00E94030ADC0143
:101CB000CB0188199909AA09BB09883E9340A1055F
:101CC000B10570F321E0C21AD108E108F10888EEED
:101CD000880E83E0981EA11CB11CC114D104E1043C
:101CE000F10419F7DDCFFF90EF90DF90CF90BF9018
:101CF000AF909F908F900895CF93DF938FEC97E0F4
:101D00000E94111582E10E94280A843411F080316A
:101D1000D1F581E08093DB07C091DE07D091DF072A
:101D2000AE0160E070E00E943417D093DF07C093EB
:101D3000DE07C091DC07D091DD078091DB078111C0
:101D400002C00E947C0EAE0160E070E08FE00E9455
:101D50003417D093DD07C093DC0741E050E060E02A
:101D600070E080E00E94341763E070E080E090E073
:101D70000E94420E43E050E060E070E080E00E948C
:101D8000341781E001C080E0DF91CF9108952FB733
:101D9000F8946091EC037091ED038091EE039091C3
:101DA000EF032FBF08950F931F930E94C70E6093F8
:101DB000500570935105809352059093530588E424
:101DC00095E00E94650F97FF1FC00E94C70E00910B
:101DD0005005109151052091520530915305DC01B9
:101DE000CB01801B910BA20BB30B00914C05109102
:101DF0004D0520914E0530914F0580179107A207A0
:101E0000B307E8F28FEF9FEF1F910F910895CF92E4
:101E1000DF92EF92FF920F931F93CF93DF931F9266
:101E20001F92CDB7DEB78C01C62EFC011182108245
:101E3000138212821582148260E070E00E945E0BB1
:101E40000E94D30E0C2C000CDD0897FD23C08C15CE
:101E50009D0501F189831A82F801E480F580FFEF86
:101E6000EF1AFF0AB701C8010E94ED07882379F035
:101E7000F8012081318184819581BE016F5F7F4FA0
:101E8000820F931F0E94D123F801F582E4820E9401
:101E9000D30EDBCFC8010F900F90DF91CF911F9130
:101EA0000F91FF90EF90DF90CF900895FC01538D3C
:101EB000448D252F30E0842F90E0821B930B541724
:101EC00010F0CF96089501970895FC01918D828DB1
:101ED000981761F0828DDF01A80FB11D5D968C917E
:101EE000928D9F5F9F73928F90E008958FEF9FEF89
:101EF0000895FC01918D828D981731F0828DE80F45
:101F0000F11D858D90E008958FEF9FEF0895FC01FE
:101F1000918D228D892F90E0805C9F4F821B9109CB
:101F20008F7399270895E0E0F0E0199480E090E045
:101F3000892B21F00E94F006811119C080E090E009
:101F4000892B41F080E090E0892B21F00E94000075
:101F5000811110C00E94E60681110FC080E090E060
:101F6000892B81F00E94DC0681110AC008950E942D
:101F70000000E4CF0E940000EDCF0E94930FEECF4F
:101F80000C940000089585ED8093BC008091BC0006
:101F900084FDFCCF10928404089540913804262FCC
:101FA00030E0240F311D21323105DCF4209184040E
:101FB0002430C9F4FC0180E090E0861758F4309199
:101FC00038042191DC01AA5EBB4FA30FB11D2C93F5
:101FD0000196F3CF80913804680F6093380480E055
:101FE000089581E0089582E0089508950895089580
:101FF000E091860480918504E81730F4F0E0E95719
:10200000FB4F808190E008958FEF9FEF08959091AE
:10201000860480918504981750F4E92FF0E0E95781
:10202000FB4F208130E09F5F9093860402C02FEF2A
:102030003FEFC90108958091850490E020918604C6
:10204000821B91090895CF92DF92EF92FF920F9336
:102050001F93CF93DF937C01CB018A012091AA04C7
:10206000222389F0EB016B01C40ED51ECC15DD05D2
:1020700069F06991D701ED91FC910190F081E02D1B
:10208000C7011995F3CF642F0E94CD0FC801DF91CE
:10209000CF911F910F91FF90EF90DF90CF90089517
:1020A000CF93DF931F92CDB7DEB769832091AA0447
:1020B0002223D1F02091A704203240F021E030E02B
:1020C000FC013383228380E090E015C08091A80456
:1020D000E82FF0E0EA50FC4F998190838F5F809366
:1020E000A8048093A70405C061E0CE0101960E9478
:1020F000CD0F81E090E00F90DF91CF91089580E0C7
:1021000090E008950F931F93CF93DF938C01C62F18
:10211000D62FD07FD1606D2F0E945D0C6D2FC8012E
:102120000E94710C80E1C89FB0011124C62FC160CC
:102130006C2FC8010E945D0C6C2FC8010E94710CAD
:1021400081E090E0DF91CF911F910F910895FC0104
:10215000848DDF01A80FB11DA35ABF4F2C91848D30
:1021600090E001968F739927848FA689B7892C9365
:10217000A089B1898C91837080648C93938D848DB8
:10218000981306C00288F389E02D80818F7D8083BB
:1021900008951F920F920FB60F9211240BB60F9253
:1021A0002F933F934F935F936F937F938F939F935F
:1021B000AF93BF93EF93FF93809183060E94A90C86
:1021C00020918706309188062F5F3F4F3093880615
:1021D0002093870690918606953618F096E09093A6
:1021E0008206909182069430C9F128F4923069F009
:1021F0009330D1F05EC0953009F451C0963009F0AB
:1022000058C091E09093530751C0811152C0209162
:102210008706309188062436310508F442C01092B2
:102220005307109286061CC0813009F042C0E0912D
:10223000860691E09E0F90938606F0E02091870637
:1022400030918806EE0FFF1FEE57F94F3087278336
:10225000109288061092870694E029C0811117C059
:10226000E091860691E09E0F90938606F0E0209123
:10227000870630918806EE0FFF1FEE57F94F308723
:102280002783109288061092870693E010C0209151
:102290008706309188062536310558F007C0811130
:1022A00008C0109288061092870603C095E09093AC
:1022B0008206909185069923B9F081110AC0809118
:1022C0008406882321F08091840661E009C02F9A5A
:1022D0000BC080918406882331F08091840660E0F1
:1022E0000E94D20C01C02F98FF91EF91BF91AF9146
:1022F0009F918F917F916F915F914F913F912F911E
:102300000F900BBE0F900FBE0F901F9018958F92DD
:102310009F92AF92BF92CF92DF92EF92FF920F9374
:102320001F93CF93DF93EC016A017B0120E030E043
:102330004FE753E4C701B6010E94491F4B015C01FE
:1023400020E030E0A9010E94AA2118161CF4C50162
:10235000B40103C0C501B40190580E9474218B01DF
:1023600020E030E0A901C701B6010E94AA21181699
:1023700014F460E001C061E089810E94D20C0F3F3B
:10238000110509F01CF4B801772702C06FEF70E067
:102390008881DF91CF911F910F91FF90EF90DF9097
:1023A000CF90BF90AF909F908F900C943D0D8EBDBD
:1023B00000000DB407FEFDCF8EB50895CF93DF93D7
:1023C000EC0160E088810E94D20C88E90E94D7115C
:1023D00080E00E94D71180E00E94D71180E00E9427
:1023E000D71180E00E94D71161E088810E94D20C51
:1023F0008BE891E00197F1F760E088810E94D20CB0
:1024000080EE0E94D71161E08881DF91CF910C941A
:10241000D20CAF92BF92CF92DF92EF92FF920F93C6
:102420001F93CF93DF93CDB7DEB760970FB6F894C5
:10243000DEBF0FBECDBF5C0160E0FC0180810E9469
:10244000D20C80E60E94D7118E010F5F1F4F7E01D4
:10245000F1E1EF0EF11C680180E00E94D71190E0DD
:10246000A0E0B0E0F60181939193A193B1936F0145
:10247000EE15FF0589F761E0F50180810E94D20C1D
:1024800080E090E0DC01F8014191519161917191FE
:102490008F01BA2FA92F982F8827840F951FA61F69
:1024A000B71FEE15FF0579F79C01AD016627772769
:1024B000CB01621B730B840B950B60960FB6F894DF
:1024C000DEBF0FBECDBFDF91CF911F910F91FF9067
:1024D000EF90DF90CF90BF90AF9008951F93CF9370
:1024E000DF93EC01162F88818C3008F04DC061E03D
:1024F000812F0E94010DE88195E09E9FF00111243B
:10250000EC5AF84F1F738081807C182B1083138244
:10251000E8819E9FF0011124EC5AF84F14828881C3
:102520006CE00E946D209CE0899FA001112420E0B6
:1025300030E095E0BA01620F731F969FF001979FFC
:10254000F00D1124EC5AF84F608166FD13C02F5F27
:102550003F4F2C30310571F781110CC01092800073
:1025600082E080938100109285001092840086BBE7
:1025700080936F00E88185E0E89FF0011124EC5A18
:10258000F84F8081806480838881DF91CF911F9193
:1025900008951F920F920FB60F9211240BB60F924F
:1025A0002F933F934F935F936F937F938F939F935B
:1025B000AF93BF93EF93FF9380915D0487FF05C0B6
:1025C000109285001092840016C020915D04022EA6
:1025D000000C330B8091900790E0281739075CF4CA
:1025E00030915D0425E03203F0011124EC5AF84FDC
:1025F000808186FD15C080915D048F5F80935D04AE
:1026000020915D04022E000C330B8091900790E026
:102610002817390794F480915D048C302CF10DC09B
:1026200030915D043203F0011124EC5AF84F80819F
:1026300060E08F730E94D20CDECF80918400909175
:10264000850084349C4918F480E49CE905C080919D
:10265000840090918500049690938900809388006F
:102660008FEF80935D042AC04091840050918500D3
:1026700030915D0425E03203F0011124EC5AF84F4B
:1026800081819281840F951F9093890080938800A7
:1026900030915D043203F0011124EC5AF84F80812F
:1026A00086FF0CC030915D043203F0011124EC5A16
:1026B000F84F808161E08F730E94D20CFF91EF91FF
:1026C000BF91AF919F918F917F916F915F914F914A
:1026D0003F912F910F900BBE0F900FBE0F901F9048
:1026E0001895823030F069EB73E085EE95E00C943C
:1026F000D815813009F4705890E0880F991F8F54D5
:10270000984F0C9487111F920F920FB60F921124BD
:102710000BB60F922F933F934F935F936F937F93DB
:102720008F939F93AF93BF93EF93FF938091B900E3
:10273000887F803609F49CC068F5883209F45BC054
:1027400090F4803109F454C038F4882309F4F6C0B9
:10275000883009F44DC0F6C0883109F44CC080328D
:1027600009F45DC0EFC0803409F468C048F48033D8
:1027700009F455C0883309F0E5C080938204D8C0BD
:10278000803509F44FC0883509F45DC0883409F0FC
:10279000D9C0D6C0883909F4C7C0A8F4883709F46D
:1027A00067C038F4883609F463C0803709F460C024
:1027B000C9C0883809F4B8C0803909F45FC08038CE
:1027C00009F0C0C05BC0803B09F486C038F4803A91
:1027D00009F466C0883A09F47FC0B4C0803C09F4AB
:1027E000A7C0883C09F4A4C0883B09F48AC0AAC0E9
:1027F00080917F0410C0909181048091800498178B
:1028000070F5E091810481E08E0F80938104F0E007
:10281000E25AFB4F80818093BB0085EC86C0809399
:1028200082048EC0E091810481E08E0F8093810448
:102830008091BB00F0E0E25AFB4F808390918104CD
:10284000809180046EC0E091810481E08E0F8093BE
:1028500081048091BB00F0E0E25AFB4F80838091BD
:10286000830481116DC081E080937E0484EA61C09D
:1028700083E08093840410925C04CFCF80915C0449
:10288000803208F051C0E0915C0481E08E0F8093AB
:102890005C048091BB00F0E0E45CFB4F8083BDCF23
:1028A00085EC8093BC001092840480915C0480329B
:1028B00030F4E0915C04F0E0E45CFB4F1082609146
:1028C0005C0470E0E0913A04F0913B048CE394E006
:1028D000199510925C0436C084E0809384041092B1
:1028E000390410923804E0913604F09137041995B8
:1028F00080913804811105C081E0809338041092E2
:102900001604E091390481E08E0F80933904F0E0E1
:10291000EA5EFB4F80818093BB00909139048091E7
:102920003804981708F479CF85E88093BC000AC072
:1029300085EC8093BC001092840404C01092820441
:102940000E94C30FFF91EF91BF91AF919F918F9123
:102950007F916F915F914F913F912F910F900BBE9F
:102960000F900FBE0F901F9018953091A704313231
:1029700008F04BC0809184048111FCCF9091A90490
:1029800022E02093840421E0209383042FEF2093FE
:1029900082041092810430938004E6EFF3E0AEE508
:1029A000B4E020E0321721F041914D932F5FFACF30
:1029B00010927F0420917F04990F922B90937F04B3
:1029C00090917E04913061F410927E0490917F0486
:1029D0009093BB009091BC0093FDF8CF95EC01C0A3
:1029E00095EE9093BC00909184049230E1F3909125
:1029F00082049F3F79F080918204803241F080917F
:102A00008204803331F084E005C081E003C082E0BD
:102A100001C083E01092A8041092A7041092AA04A7
:102A2000089510928604109285041092A8041092C2
:102A3000A7041092840481E08093830410927E04A2
:102A400061E084E10E94D20C61E085E10E94D20C39
:102A5000E9EBF0E080818E7F808380818D7F8083B1
:102A600088E48093B80085E48093BC0085EF9FE004
:102A7000909337048093360486EF9FE090933B0455
:102A800080933A040895CF9321E02093AA0425E08F
:102A90002093A9041092A8041092A7040E94C315C1
:102AA0008FEC97E00E94B514C82F6BEC73E085EEB5
:102AB00095E00E9432178C2F90E0CF910C94351640
:102AC000CF92DF92EF92FF92CF93DF93EC016A01F6
:102AD0007B01E889F98982E080834115514E6105C7
:102AE0007105B1F060E079E08DE390E0A701960117
:102AF0000E943C20DA01C9010197A109B109B695EC
:102B0000A795979587959C01211580E13807A8F036
:102B1000E889F989108260E874E88EE190E0A70105
:102B200096010E943C20DA01C9010197A109B1096F
:102B3000B695A795979587959C01EC85FD85308383
:102B4000EE85FF852083188EEC89FD8986E08083E1
:102B5000EA89FB89808180618083EA89FB898081A1
:102B600088608083EA89FB89808180688083EA8924
:102B7000FB8980818F7D8083DF91CF91FF90EF90E3
:102B8000DF90CF900895682F8FEC97E00C94501051
:102B90006115710551F0FB0101900020E9F73197B3
:102BA000AF01461B570B0C94B00680E090E00895EF
:102BB0000F931F93CF93DF93EC010E94C8158C01F4
:102BC0006BE773E0CE010E94C815800F911FDF9163
:102BD000CF911F910F9108958F929F92AF92BF92C4
:102BE000EF92FF920F931F93CF93DF93CDB7DEB792
:102BF000A1970FB6F894DEBF0FBECDBF7C01FA01DE
:102C0000CB0119A2223008F42AE08E010F5D1F4F7C
:102C1000822E912CA12CB12CBF01A50194010E9400
:102C20003C20F901CA01015011096A3014F4605DB9
:102C300001C0695CD8016C93232B242B252B61F7F1
:102C4000B801C7010E94C815A1960FB6F894DEBF5F
:102C50000FBECDBFDF91CF911F910F91FF90EF90ED
:102C6000BF90AF909F908F900895CF92DF92EF9298
:102C7000FF92CF93DF936C01990FEE08FF08F7FEE8
:102C800015C06DE285EE95E00E94FA06EC0144273E
:102C90005527BA014C195D096E097F092AE085EEB6
:102CA00095E00E94EC15C80FD91F08C02AE0B701B3
:102CB000A60185EE95E00E94EC15EC016BE773E050
:102CC00085EE95E00E94C8158C0F9D1FDF91CF9176
:102CD000FF90EF90DF90CF9008952F923F924F9208
:102CE0005F926F927F928F929F92AF92BF92CF929C
:102CF000DF92EF92FF920F931F93CF93DF9300D059
:102D000000D0CDB7DEB78C0181E0898310161106A3
:102D10000CF419829981692E712CB801012E000CD6
:102D2000880B990B0E94EA1E25E535E541EB51E43D
:102D30000E94491F0E9474217B01CB010E9435161D
:102D40004DEC5CEC6CEC7DE389810E94711381E0B9
:102D5000101611060CF080E040E050E0BA010E942D
:102D60007113D301AA0FBB1F5D96A856B84FBE833F
:102D7000AD83CD010E94DE11101611063CF4812CAA
:102D8000912C80E8A82E8FE3B82E03C0812C912CC3
:102D90005401312C212CCC24DD24CE18DF08C301B2
:102DA000770CAA0BBB0B89839A83AB83BC83832DDF
:102DB000922D97FF03C09195819591099701F7FC9A
:102DC000960182179307ACF56AE070E080E090E02E
:102DD0000E94420E8D819E811016110654F40E94AD
:102DE000091290958095709561957F4F8F4F9F4FF9
:102DF00002C00E940912362E272E2DEC3CEC4CEC22
:102E00005DE3C501B4010E94491F2B013C016981AA
:102E10007A818B819C810E94EA1E2DEC3CEC4CEC6B
:102E20005DE30E94491FA30192010E94F4028111F7
:102E3000BECF26960FB6F894DEBF0FBECDBFDF9192
:102E4000CF911F910F91FF90EF90DF90CF90BF90A7
:102E5000AF909F908F907F906F905F904F903F903A
:102E60002F9008950C94C815CF93C42F91E09093A0
:102E7000AA0499E29093A9041092A8041092A704BE
:102E8000806890E00E94C3156C2F8FEC97E00E9441
:102E900050108FEC97E0CF910C94B514909184046E
:102EA0009111FCCF982F813208F090E281E080935D
:102EB0008404809383042FEF209382041092810472
:102EC000290F2093800480937F0480917F04826582
:102ED00080937F0480917E04813061F410927E049F
:102EE00080917F048093BB008091BC0083FDF8CF6C
:102EF00085EC01C085EE8093BC0080918404813014
:102F0000E1F380918104891710F490918104EEE53A
:102F1000F4E0A7E8B4E080E0891721F021912D9337
:102F20008F5FFACF10928604809385040895789479
:102F300084B5826084BD84B5816084BD85B58260BE
:102F400085BD85B5816085BD80916E00816080936F
:102F50006E001092810080918100826080938100D8
:102F600080918100816080938100809180008160E8
:102F7000809380008091B10084608093B100809143
:102F8000B00081608093B000809191008260809356
:102F900091008091910081608093910080919000D8
:102FA0008160809390008091A10082608093A10055
:102FB0008091A10081608093A1008091A000816038
:102FC0008093A000809121018260809321018091F3
:102FD0002101816080932101809120018160809393
:102FE000200180917A00846080937A0080917A0039
:102FF000826080937A0080917A00816080937A0069
:1030000080917A00806880937A001092C10040E835
:1030100055E260E070E085EE95E00E94601561E0A9
:10302000809199070E94010D60E0809199070E94AC
:10303000D20C60E0809198070E94010D8FEC97E020
:103040009093A3078093A2070E94111580E090E15E
:10305000A0E0B0E08093A5079093A607A093A707F0
:10306000B093A8078AE090E0A0E0B0E08093A907C1
:103070009093AA07A093AB07B093AC0780E090E0D1
:10308000A0E0B0E48093AD079093AE07A093AF07A4
:10309000B093B00760E070E185E00E94240C6FE916
:1030A00079E380E00E94240CC8E9D7E08E0162E059
:1030B000762E7BECA72E72E0B72EE1E18E2EE3E0B8
:1030C0009E2EFBECEF2EF7E0FF2ED80114969C917C
:1030D000149712968C91898F9A8F61E00E94010D4E
:1030E00061E08A8D0E94010DF801908586816E0154
:1030F000FDE1CF0ED11C8D8F9E8F61E00E94010DEE
:1031000060E08E8D0E94010D61E08D8D0E94D20CD9
:103110006FB6F8948091E503811126C0F501849182
:10312000F4012491E82FF0E0EE0FFF1FE85BFD4F64
:10313000A591B4919C91822F892321F461E085E3CC
:103140000E94D20C61E085E30E94010D8CB5806184
:103150008CBD8CB580648CBD61E084E30E94010D60
:1031600061E083E30E94010D8091E5038F5F80930E
:10317000E5036FBEC7010197F1F760E08D8D0E94F6
:10318000D20C88E80E94D71183E00E94D71161E039
:103190008D8D0E94D20CC7010197F1F7C6010E94E4
:1031A000DE117A940F5F1F4F229671108ECF0DEBB8
:1031B00017E0C1ECD7E060E0D8018D918D010E944D
:1031C000010DC017D107B9F709EB17E043ECC42E86
:1031D00047E0D42E7E01BFEFEB1AFB0A688170E056
:1031E000CE0108960E946E12F70195818381D80165
:1031F00052968C93529753969C9360E00E94010DD7
:1032000061E0F80183890E94010D60E0D8015396C6
:103210008C910E94D20C0E5F1F4FE701CE14DF0489
:10322000C9F6F8941092200189E08093210180E290
:1032300093E0909329018093280110922501109228
:10324000240182E080937300789480938206109228
:1032500086068091830660E00E94010D40E855E2F9
:1032600060E070E085EE95E00E9460156091C10716
:1032700070E089EC97E00E946E1268E280E00E94A4
:10328000840B61E082E00E94010D60E086E30E9411
:10329000010D60E087E30E94010D0E947C0E8823EF
:1032A00019F06AE273E002C067E373E085EE95E02F
:1032B0000E94D81540E056E960E070E088E495E0AF
:1032C0000E9460158FEC97E00E94111582E090E05B
:1032D0000E94431528E6222E3324339435E0832EB2
:1032E000912CA12CB12C64E673E085EE95E00E9450
:1032F000D8158091EA0381110DC08091BD070E940D
:10330000A90C892B39F462E370E080E090E00E9420
:10331000420EEFCFF1E0F093EA038091BE070E94E6
:10332000A90C892B59F060E773E085EE95E00E94C7
:10333000D8151092EA030E94EB0153C10E940B1DA5
:1033400026E030E040E050E00E940A208B010F5F51
:103350001F4F0E940B1D23E030E040E050E00E9430
:103360000A20EB0121968DEC9CECACECBDE3809344
:10337000E6039093E703A093E803B093E90365E7BE
:1033800073E085EE95E00E943217A80160E070E0DE
:103390002AE085EE95E00E94EC156BE773E085EE80
:1033A00095E00E94C8150330110509F44EC078F469
:1033B0000130110589F10230110509F012C1BE0179
:1033C000660F771F6C0F7D1F88E99EEF44C00430A5
:1033D000110509F446C00530110509F002C10E942B
:1033E000EB010E940B1DA50194010E940A20DC0143
:1033F000CB010196A11DB11DE8EEF3E08E9F6001A7
:103400008F9FD00C9E9FD00C11240E94C70E2B01C1
:103410003C01E12CF12CCFC08AE08C9FB0018D9F44
:10342000700D112480E090E00E94E81E9B01AC0129
:103430006091E6037091E7038091E8039091E903BE
:1034400004EF12E00E94FA01CCC0BE01660F771FA4
:103450006C0F7D1FC1010E947920CB010E946D1667
:10346000C0C0C090E603D090E703E090E803F0907E
:10347000E903BE0180E090E00E94E81E9B01AC01E0
:103480006BED7FE089E490E40E9402212B013C0176
:1034900020E030E0A9010E94E31E87FD03C0C1E0E7
:1034A000D0E002C0CFEFDFEF2EEC31EC4EE954E478
:1034B000C301B2010E94491F2B013C0185EB97E03B
:1034C0000E94DE1187EB97E00E94DE11BE010D2EF7
:1034D000000C880B990B0E94EA1EA70196010E941E
:1034E000491FAB01BC0181EB97E00E948711D19588
:1034F000C195D109BE01DD0F880B990B0E94EA1E10
:10350000A70196010E94491FAB01BC0181E00E9406
:10351000711300E010E0E80117FF03C0D195C195D9
:10352000D109C301B2010E9474219B0177FF04C03D
:1035300022273327261B370B2C173D070CF451C0CD
:103540006AE070E080E090E00E94420E85EB97E038
:103550000E9409126B017C0187EB97E00E9409121F
:10356000F094E094D094C094C11CD11CE11CF11CD7
:103570009601D7FE04C0222733272C193D09AB0141
:1035800077FF04C044275527461B570BB901640F2A
:10359000751F072E000C880B990B0E94EA1E20E075
:1035A00030E040E05FE30E94491F0E9474218B01DC
:1035B0000E94F402B0CF0E94C70EDC01CB01841937
:1035C0009509A609B7098C159D05AE05BF0548F4F8
:1035D0000E94F40262E370E080E090E00E94420EFC
:1035E000EACF0E94960F7FCE80919107909192072B
:1035F0000C944C221092AE041092AD0448EE53E0AD
:1036000060E070E04093AF045093B0046093B10465
:103610007093B20487E192E09093AC048093AB0482
:1036200025E331E03093B8042093B70424E331E07C
:103630003093BA042093B90420E331E03093BC0402
:103640002093BB0421E331E03093BE042093BD04FA
:1036500022E331E03093C0042093BF0426E331E03D
:103660003093C2042093C1041092C4041092C50484
:103670001092C6041092C70410924B0510924A058E
:1036800040934C0550934D0560934E0570934F0544
:10369000909349058093480525ED30E0309355051A
:1036A0002093540524ED30E03093570520935605C0
:1036B00020ED30E0309359052093580521ED30E09E
:1036C00030935B0520935A0522ED30E030935D0581
:1036D00020935C0526ED30E030935F0520935E0576
:1036E00010926105109262051092630510926405B4
:1036F0001092E8051092E7054093E9055093EA051A
:103700006093EB057093EC059093E6058093E505D7
:1037100085EC90E09093F2058093F10584EC90E0C5
:103720009093F4058093F30580EC90E09093F60578
:103730008093F50581EC90E09093F8058093F70570
:1037400082EC90E09093FA058093F90586EC90E086
:103750009093FC058093FB051092FE051092FF05E7
:10376000109200061092010680910B0290910C02BB
:10377000A0910D02B0910E028093B9079093BA0701
:10378000A093BB07B093BC0780910F0290911002E9
:10379000A0911102B09112028093BD079093BE07D1
:1037A000A093BF07B093C00784E08093C10787E070
:1037B0008093C2071092C30784EB8093C40786E10D
:1037C0008093C50788E18093C60787E18093C70788
:1037D00089E18093C807E0919007EC3020F08FEFEB
:1037E0008093C90710C081E08E0F80939007E0930B
:1037F000C90725E0E29FF0011124EC5AF84F88EB4D
:103800009BE092838183E0919007EC3020F08FEF72
:103810008093CA0710C081E08E0F80939007E093D9
:10382000CA0785E0E89FF0011124EC5AF84F88EBB5
:103830009BE0928381838CE08093980784E280935D
:10384000990786E080939A0785E080939B078FE134
:1038500080939C078EE180939D0783E280939E076F
:1038600082E280939F0785E48093A00784E480939D
:10387000A10780E48093A4071092A9071092AA07D9
:103880001092AB071092AC071092AD071092AE07E2
:103890001092AF071092B007E4EEF7E08FEF9FEFC2
:1038A000DC0112821382148215821682178210861E
:1038B000118683879487A587B6878787908BA18B8E
:1038C000B28B128611821082739628E0E23AF207D8
:1038D00041F78DE090E00E94B421FC011382128236
:1038E00089E292E091838083118687E2848384E178
:1038F000828784E083871486F093E107E093E007F2
:103900001092E2071092E30785E2809383061092FB
:1039100085061092920710929107109294071092C8
:103920009307109296071092950760E070E081E986
:1039300097E00E945E0B1092D2071092D10788EE9A
:1039400093E0A0E0B0E08093D3079093D407A093D6
:10395000D507B093D60785E392E09093D007809384
:10396000CF071092DB078BEE90E09093DF078093F8
:10397000DE0781E090E09093DD078093DC070895F7
:103980008F929F92AF92BF92CF92DF92EF92FF926F
:10399000CF93DF93EC01688179818A819B816115E6
:1039A00071058105910521F464E279ED8BE597E0DD
:1039B0002DE133EF41E050E00E940A2049015A0115
:1039C0009B01AC01A7EAB1E40E9429206B017C01B4
:1039D000ACEEB4EFA50194010E943720DC01CB01CD
:1039E0008C0D9D1DAE1DBF1DB7FF03C00197A10922
:1039F000B04888839983AA83BB83BC01CD019F779C
:103A0000DF91CF91FF90EF90DF90CF90BF90AF907C
:103A10009F908F9008958F929F92AF92BF92CF9276
:103A2000DF92EF92FF926091010270910202809109
:103A3000030290910402611571058105910521F43D
:103A400064E279ED8BE597E02DE133EF41E050E062
:103A50000E940A2049015A019B01AC01A7EAB1E486
:103A60000E9429206B017C01ACEEB4EFA50194010A
:103A70000E943720DC01CB018C0D9D1DAE1DBF1DAA
:103A8000B7FF03C00197A109B0488093010290934A
:103A90000202A0930302B0930402BC01CD019F7700
:103AA000FF90EF90DF90CF90BF90AF909F908F905E
:103AB0000895609301027093020280930302909331
:103AC00004020895662777270C94661D8F929F92B3
:103AD000AF92BF92CF92DF92EF92FF920F931F931C
:103AE000CF93DF93EC016B016115710519F0FB01B8
:103AF000918380837E01FFEFEF1AFF0A0881802FF8
:103B000090E00E94C21E892B11F0E701F3CF0D3225
:103B100039F47E0182E0E80EF11C098111E008C051
:103B20000B3229F47E0192E0E90EF11C098110E0CC
:103B3000E701219743E050E064E172E0CE010E948A
:103B4000CB1E892BC1F4239645E050E06FE072E074
:103B5000CE010E94CB1E892B09F42596C114D104F5
:103B600019F0F601D183C0831111F6C060E070E056
:103B700080E89FE7FAC043E050E06CE072E0CE01DD
:103B80000E94CB1E892B59F4C114D10409F4E9C059
:103B9000F2E0EF0EF11CF601F182E082E2C020E0DB
:103BA00030E0A901C0E0D0E0F70160EDA62EA00E44
:103BB00089E08A1530F1912F9260B92E812F88709B
:103BC00012FF04C0811124C0219622C081112197C7
:103BD000A5E0B0E00E942920DC01CB01880F991FED
:103BE000AA1FBB1F9C01AD012A0D311D411D511D96
:103BF000283989E93807480789E1580748F01660ED
:103C000006C09EEFA9120AC013FD40C01860B12E75
:103C10008FEFE81AF80A00811B2DC6CF802F8F7D09
:103C20008534A1F580818D3211F4106106C08B328C
:103C300021F0319661E070E004C08181329662E04B
:103C400070E080538A3018F0E61BF70B1FC060E06D
:103C500070E060389CE079075CF4DB01AA0FBB1FC1
:103C6000AA0FBB1F6A0F7B1F660F771F680F711D9E
:103C70003196DF0111978C9180538A3050F314FFF5
:103C800003C0719561957109C60FD71F11FF08C058
:103C9000C114D10429F0CF010197F60191838083EB
:103CA000CA01B9010E94E81E212F2370233019F0A8
:103CB0004B015C0106C04B015C01B7FAB094B7F848
:103CC000B09420E030E0A901C501B4010E94E31ED8
:103CD000882309F43EC0D7FF06C0D195C195D1090C
:103CE0000BE212E002C003E412E06801F8E1CF1A2F
:103CF000D10890E2E92EF12CCE15DF0574F0F80121
:103D00002591359145915491C501B4010E94491FF7
:103D10004B015C01CE19DF09EFCF04501109F59476
:103D2000E7940C151D0541F78A2D880F8B2D881FF0
:103D30008F3F49F020E030E0A901C501B4010E94A5
:103D4000E31E811106C082E290E09093A308809365
:103D5000A208C501B40109C060E070E080E89FEFEF
:103D600004C060E070E080EC9FE7DF91CF911F918D
:103D70000F91FF90EF90DF90CF90BF90AF909F900A
:103D80008F90089591110C94B61F803219F08950CC
:103D90008550C8F70895FB01DC014150504088F080
:103DA0008D9181341CF08B350CF4805E659161340B
:103DB0001CF06B350CF4605E861B611171F3990B7E
:103DC0000895881BFCCF0E94251F08F481E0089508
:103DD000E89409C097FB3EF49095809570956195A5
:103DE0007F4F8F4F9F4F9923A9F0F92F96E9BB275B
:103DF0009395F695879577956795B795F111F8CFD7
:103E0000FAF4BB0F11F460FF1BC06F5F7F4F8F4F41
:103E10009F4F16C0882311F096E911C0772321F037
:103E20009EE8872F762F05C0662371F096E8862FCF
:103E300070E060E02AF09A95660F771F881FDAF726
:103E4000880F9695879597F90895990F0008550F53
:103E5000AA0BE0E8FEEF16161706E807F907C0F010
:103E600012161306E407F50798F0621B730B840B18
:103E7000950B39F40A2661F0232B242B252B21F4F2
:103E800008950A2609F4A140A6958FEF811D811D92
:103E900008950E945C1F0C94D01F0E94C21F38F02E
:103EA0000E94C91F20F0952311F00C94B91F0C94A7
:103EB000BF1F11240C9404200E94E11F70F3959FF2
:103EC000C1F3950F50E0551F629FF001729FBB2711
:103ED000F00DB11D639FAA27F00DB11DAA1F649FAD
:103EE0006627B00DA11D661F829F2227B00DA11D60
:103EF000621F739FB00DA11D621F839FA00D611DE6
:103F0000221F749F3327A00D611D231F849F600D06
:103F1000211D822F762F6A2F11249F5750409AF02F
:103F2000F1F088234AF0EE0FFF1FBB1F661F771FBB
:103F3000881F91505040A9F79E3F510580F00C9486
:103F4000B91F0C9404205F3FE4F3983ED4F38695A8
:103F500077956795B795F795E7959F5FC1F7FE2B26
:103F6000880F911D9695879597F908959927882729
:103F7000089597F99F6780E870E060E008959FEFEB
:103F800080EC089500240A941616170618060906F0
:103F9000089500240A9412161306140605060895BF
:103FA000092E0394000C11F4882352F0BB0F40F447
:103FB000BF2B11F460FF04C06F5F7F4F8F4F9F4F87
:103FC000089557FD9058440F551F59F05F3F71F009
:103FD0004795880F97FB991F61F09F3F79F0879570
:103FE0000895121613061406551FF2CF4695F1DFF9
:103FF00008C0161617061806991FF1CF8695710589
:10400000610508940895E894BB2766277727CB01BC
:1040100097F90895052E97FB1EF400940E94212025
:1040200057FD07D00E943C2007FC03D04EF40C94AF
:10403000212050954095309521953F4F4F4F5F4F30
:10404000089590958095709561957F4F8F4F9F4F04
:1040500008950E945E20A59F900DB49F900DA49F8F
:10406000800D911D11240895B7FF0C9429200E9402
:104070002920821B930B0895A1E21A2EAA1BBB1BB9
:10408000FD010DC0AA1FBB1FEE1FFF1FA217B30724
:10409000E407F50720F0A21BB30BE40BF50B661F3A
:1040A000771F881F991F1A9469F7609570958095FE
:1040B00090959B01AC01BD01CF010895A29FB00175
:1040C000B39FC001A39F700D811D1124911DB29F4C
:1040D000700D811D1124911D0895991B79E004C074
:1040E000991F961708F0961B881F7A95C9F7809537
:1040F0000895AA1BBB1B51E107C0AA1FBB1FA6172F
:10410000B70710F0A61BB70B881F991F5A95A9F780
:1041100080959095BC01CD010895EE0FFF1F881F7B
:104120008BBF0790F691E02D19945058BB27AA2712
:104130000E94AD200C94D01F0E94C21F38F00E9434
:10414000C91F20F039F49F3F19F426F40C94BF1FC7
:104150000EF4E095E7FB0C94B91FE92F0E94E11FD4
:1041600058F3BA17620773078407950720F079F4AC
:10417000A6F50C9403200EF4E0950B2EBA2FA02D7B
:104180000B01B90190010C01CA01A0011124FF2704
:10419000591B99F0593F50F4503E68F11A16F040FF
:1041A000A22F232F342F4427585FF3CF46953795FE
:1041B0002795A795F0405395C9F77EF41F16BA0BC3
:1041C000620B730B840BBAF09150A1F0FF0FBB1F71
:1041D000661F771F881FC2F70EC0BA0F621F731FBA
:1041E000841F48F4879577956795B795F7959E3F17
:1041F00008F0B0CF9395880F08F09927EE0F9795A8
:10420000879508950E9416210C94D01F0E94C91F03
:1042100058F00E94C21F40F029F45F3F29F00C942F
:10422000B91F51110C9404200C94BF1F0E94E11F70
:1042300068F39923B1F3552391F3951B550BBB27D5
:10424000AA2762177307840738F09F5F5F4F220F1A
:10425000331F441FAA1FA9F335D00E2E3AF0E0E811
:1042600032D091505040E695001CCAF72BD0FE2F5B
:1042700029D0660F771F881FBB1F261737074807EF
:10428000AB07B0E809F0BB0B802DBF01FF279358A7
:104290005F4F3AF09E3F510578F00C94B91F0C9493
:1042A00004205F3FE4F3983ED4F3869577956795B5
:1042B000B795F7959F5FC9F7880F911D96958795DC
:1042C00097F90895E1E0660F771F881FBB1F6217FB
:1042D00073078407BA0720F0621B730B840BBA0BB9
:1042E000EE1F88F7E09508950E947B216894B11134
:1042F0000C94042008950E94E91F88F09F5798F0BD
:10430000B92F9927B751B0F0E1F0660F771F881FDA
:10431000991F1AF0BA95C9F714C0B13091F00E94F4
:104320000320B1E008950C940320672F782F88278D
:10433000B85F39F0B93FCCF3869577956795B3951B
:10434000D9F73EF490958095709561957F4F8F4F8A
:104350009F4F08950E94251F08F48FEF08950E9433
:10436000251F880B990B08950F931F93CF93DF930D
:104370008230910510F482E090E0E091A608F0917F
:10438000A70820E030E0A0E0B0E0309719F14081CC
:1043900051810281138148175907C8F08417950786
:1043A00069F4109731F012960C93129713961C93A0
:1043B00027C00093A6081093A70822C02115310535
:1043C00019F04217530718F49A01BD01EF01DF01FC
:1043D000F801DBCF21153105F9F0281B390B24300A
:1043E000310580F48A819B816115710521F0FB0103
:1043F0009383828304C09093A7088093A608FE014C
:10440000329644C0FE01E20FF31F81939193225034
:104410003109398328833AC02091A4083091A50836
:10442000232B41F420910702309108023093A50814
:104430002093A40820910502309106022115310530
:1044400041F42DB73EB74091090250910A02241B56
:10445000350BE091A408F091A508E217F307A0F44A
:104460002E1B3F0B2817390778F0AC014E5F5F4FCA
:104470002417350748F04E0F5F1F5093A50840934F
:10448000A4088193919302C0E0E0F0E0CF01DF91B6
:10449000CF911F910F910895CF93DF93009709F467
:1044A00081C0FC01329713821282A091A608B091BC
:1044B000A708109781F420813181820F931F2091EA
:1044C000A4083091A5082817390751F5F093A508DD
:1044D000E093A40867C0ED0120E030E0CE17DF07CD
:1044E00040F44A815B819E0141155105F1F0EA01DA
:1044F000F5CFD383C28340815181840F951FC817A4
:10450000D90759F488819981840F951F0296918368
:1045100080838A819B81938382832115310529F4CD
:10452000F093A708E093A6083DC0E901FB83EA8366
:1045300049915991C40FD51FEC17FD0761F4808193
:104540009181840F951F0296E90199838883828166
:1045500093819B838A83E0E0F0E012968D919C9199
:104560001397009719F0FD01DC01F7CF8D919C9115
:1045700011979D012E5F3F4F820F931F2091A4083A
:104580003091A5082817390769F4309729F410925B
:10459000A7081092A60802C013821282B093A50841
:1045A000A093A408DF91CF9108956F927F928F928C
:1045B0009F92AF92BF92CF92DF92EF92FF920F93B2
:1045C0001F93CF93DF93009789F4CB01DF91CF91B5
:1045D0001F910F91FF90EF90DF90CF90BF90AF9021
:1045E0009F908F907F906F900C94B421FC01E60F08
:1045F000F71F9C0122503109E217F30708F4A9C004
:10460000EC01D9010D911C91119706171707B0F015
:104610000530110508F49BC0C80104978617970759
:1046200008F495C002501109061B170B0193119352
:104630006D937C93CF010E944C2289C05B01A01A2C
:10464000B10A4C01800E911EA091A608B091A70856
:10465000612C712CE12CF12C109709F446C08D913E
:104660009C911197A815B905B1F56C0142E0C40EF3
:10467000D11CCA14DB0478F14C018A189B08640130
:1046800042E0C40ED11C1296BC9012971396AC91C6
:10469000B5E0CB16D10440F0B282A3839182808230
:1046A000D9016D937C9309C00E5F1F4F800F911F3E
:1046B000F90191838083EB2DFA2FE114F10431F09D
:1046C000D7011396FC93EE93129741C0F093A7087D
:1046D000E093A6083CC06816790608F43C017D0109
:1046E00012960D90BC91A02DB7CF8091A408909107
:1046F000A50888169906E1F466167706C8F4809135
:10470000050290910602009741F48DB79EB7409143
:10471000090250910A02841B950BE817F907C8F4A7
:10472000F093A508E093A408F901718360830FC09A
:10473000CB010E94B4217C01009759F0A801BE0171
:104740000E94BF23CE010E944C22C70104C0CE01AB
:1047500002C080E090E0DF91CF911F910F91FF9018
:10476000EF90DF90CF90BF90AF909F908F907F9011
:104770006F90089581E090E0F8940C94D823FB01A9
:10478000DC0102C001900D9241505040D8F70895CD
:10479000FB01DC018D91019080190110D9F3990B77
:1047A0000895FB01DC0101900D920020E1F70895CE
:1047B00011E0C5EBD1E000E006C0802FFE010E94B1
:1047C0008D202196011DC63BD10780E00807A9F77F
:0447D000F894FFCF8B
:1047D400FF010000000000A8082000363738391B0C
:1047E4001D1A1C00000000FA06B006560F47078782
:1047F4000F650F790F000000008210B0067F10AF24
:104804000600000000501023107F10F70F1B100744
:1048140010F80F53454E534F522045584954494EB2
:10482400472050494400434F554C4555523A205275
:104834003A0020473A200020423A20005761697428
:10484400696E6720666F7220537472696E670053D5
:10485400455249414C3220415641494C41424C4514
:10486400005265636569766564204F4E00706F730E
:104874005F783A2000706F735F793A2000445249A0
:1048840056494E470053706565643A204C4546547A
:104894003A20002052494748543A20004D55534984
:1048A4004300464F4F440053544F505F52414E44CF
:1048B4005F505552520053544F5050494E47205266
:1048C400414E444F4D2050555252494E4700457871
:1048D4006974696E670050555252494E4721210050
:1048E40053656E742053544F50206D757369632063
:1048F400726571756573743A2000466F756E642035
:1049040073656E736F72004E6F20544353333437A4
:10491400323520666F756E64202E2E2E20636865F6
:10492400636B20796F757220636F6E6E6563746953
:104934006F6E73005374617274696E672E2E2E004D
:1049440053544F50004D4F563A20000D0A006E61EB
:104954006E00696E66006F766600496E76616C69FA
:104964006420736572766F206964210053657276E2
:104974006F20616E676C65206973206F7574206F9A
:10498400662072616E67652100496E76616C6964A8
:10499400206D6F746F72206964210053656E7420FA
:1049A4006D7573696320726571756573743A20005F
:00000001FF
