:100000000C9495010C94C6010C94C6010C94C60185
:100010000C94C6010C94C6010C94C6010C94C60144
:100020000C94C6010C947A030C947A030C947A0312
:100030000C94C6010C946F0D0C94C6010C94C6016F
:100040000C94C6010C945F090C94C6010C94C60173
:100050000C94C6010C94C6010C94C6010C94250D99
:100060000C94C6010C94DE0E0C94B40E0C94C601D4
:100070000C94C6010C94C6010C94C6010C94C601E4
:100080000C94C6010C94C6010C94C6010C94C601D4
:100090000C94C6010C94C6010C94C6010C94840304
:1000A0000C94C6010C94C6010C94C6010C94C601B4
:1000B0000C94C6010C94C6010C94C6010C947307F1
:1000C0000C94C6010C94C6010C94C6010C948A0EC3
:1000D0000C94600E0C94C6010C94360E0C940C0E0D
:1000E0000C94C601D104D404C304C704CD040B0589
:1000F000D804DC04E204E604EA04F004F404F8049E
:100100000B05FE0402050605730678067D068706C4
:1001100091060A079B06A306AB06B506BF06C906ED
:10012000D806E2060A07EC06F60600070C949B06C2
:100130000C94BF060C94C90C0C940A070C94A306EB
:100140000C94FE040C94C3040C94F8040C94DC048A
:100150000C94F4040C9487060C94010C0C9478060F
:100160000C942B0C0C94AB060C9459020C942C0799
:100170000C9406050C9484020C94B1020C94D404E3
:100180000C94D8040C94D8060C940F060C943A0CDA
:100190000C9468020C94F0040C9456020C940B0519
:1001A0000C94E2060C94E2040C94D1040C94EC063A
:1001B0000C94080F0C940E060C94CD040C947C0C3B
:1001C0000C9400070C94C7040C94B5060C947C02A4
:1001D0000C9473060C94D2050C9457020C94F606FA
:1001E0000C9458020C94EA040C944E0C0C94910656
:1001F0000C94F0100C94E6040C9402050C947D060B
:100200000C94C90600002100240027002A002D00BC
:100210003000330001010000040107010A01000061
:100220002200250028002B002E003100340002019E
:100230000000050108010B01050505050705080873
:100240000808020202020A0A080804040404010160
:100250000101010101010303030303030303040775
:1002600007070C0C0C0C0C0C0C0C0202020206060C
:100270000606060606060B0B0B0B0B0B0B0B0102FF
:1002800010202008081020401020408002010201A8
:100290000804020101020408102040808040201060
:1002A00008040201800402018040201008040201B9
:1002B0000804020101020408102040800102040821
:1002C0001020408000000A0B02090C0D0E080703E5
:1002D0000401000000000000000000000000000019
:1002E000000000000000000000000000000000000E
:1002F00012111000000000000000000000000000CB
:1003000000000000000000000000000020002300AA
:10031000260029002C002F003200000100000301FC
:10032000060109010200080FF01011241FBECFEFD3
:10033000D1E2DEBFCDBF00E00CBF12E0A0E0B2E032
:10034000E2E7F0E300E00BBF02C007900D92A03699
:10035000B107D9F727E0A0E6B2E001C01D92A633AD
:10036000B207E1F711E0C4E9D1E000E006C021974F
:100370000109802FFE010E945C15C339D10780E07E
:100380000807A9F70E94F6100C9427180C94000097
:1003900030916A02313208F04BC0809168028111BD
:1003A000FCCF9091450622E02093680221E0209343
:1003B00067022FEF20932306109222063093210626
:1003C000E5E2F6E0A1E0B6E020E0321721F041914D
:1003D0004D932F5FFACF1092000620910006990FDF
:1003E000922B9093000690916602913061F41092E6
:1003F0006602909100069093BB009091BC0093FD23
:10040000F8CF95EC01C095EE9093BC0090916802F6
:100410009230E1F3909123069F3F79F0809123067B
:10042000803241F080912306803331F084E005C0B2
:1004300081E003C082E001C083E010926902109263
:100440006A0210922406089585ED8093BC00809185
:10045000BC0084FDFCCF1092680208954091DB053A
:10046000262F30E0240F311D21323105DCF420919C
:1004700068022430C9F4FC0180E090E0861758F44B
:100480003091DB052191DC01A554BA4FA30FB11DBA
:100490002C930196F3CF8091DB05680F6093DB0509
:1004A00080E0089581E0089582E008950895089518
:1004B0000895E091610280916002E81730F4F0E065
:1004C000E556FA4F808190E008958FEF9FEF0895F1
:1004D0009091610280916002981750F4E92FF0E04A
:1004E000E556FA4F208130E09F5F9093610202C091
:1004F0002FEF3FEFC90108958091600290E02091B5
:100500006102821B91090895CF92DF92EF92FF92D0
:100510000F931F93CF93DF937C01CB018A0120912E
:100520002406222389F0EB016B01C40ED51ECC15E5
:10053000DD0569F06991D701ED91FC910190F081A1
:10054000E02DC7011995F3CF642F0E942E02C80138
:10055000DF91CF911F910F91FF90EF90DF90CF909F
:100560000895CF93DF931F92CDB7DEB769832091B3
:1005700024062223D1F020916A02203240F021E0AB
:1005800030E0FC013383228380E090E015C080914D
:100590006902E82FF0E0EB5DF94F998190838F5F5E
:1005A0008093690280936A0205C061E0CE010196E2
:1005B0000E942E0281E090E00F90DF91CF9108958C
:1005C000CF93DF93009779F0FC0101900020E9F7C9
:1005D0003197AF01481B590BBC0181EB93E00E949E
:1005E000010CEC0102C0C0E0D0E042E050E06FE35B
:1005F00072E081EB93E00E94010C8C0F9D1FDF9154
:10060000CF9108950F931F93CF93DF93162F072F4A
:10061000C4E6D5E09C8521E020932406909345060E
:100620001092690210926A02AA85BB85ED91FC9135
:1006300011970190F081E02D682FCD0119958A85E1
:100640009B85DC01ED91FC910190F081E02D602F04
:1006500019958A859B85DC01ED91FC910190F081D3
:10066000E02D612F1995DF91CF911F910F910C947F
:10067000C801FC01248131E0309324062093450613
:100680001092690210926A028485682B8BE692E0D0
:100690000E94B1020C94C8010F931F93CF938C0159
:1006A000C62F64600E9439036C2F6B7FC8010E94C3
:1006B000390383EC90E00197F1F7CF911F910F91EF
:1006C0000895FC01A089B1898C91A689B78982FD22
:1006D0000FC09C91818D8F5F8F73228D821749F09F
:1006E000218DDF01A20FB11D5D969C93818F08952E
:1006F0008C9108951F920F920FB60F9211240F90B4
:100700000FBE0F901F9018951F920F920FB60F9269
:1007100011240BB60F922F933F934F935F936F93D8
:100720007F938F939F93AF93BF93EF93FF938091AA
:10073000B900887F803609F49CC068F5883209F4D6
:100740005BC090F4803109F454C038F4882309F474
:10075000F6C0883009F44DC0F6C0883109F44CC0A9
:10076000803209F45DC0EFC0803409F468C048F4F9
:10077000803309F455C0883309F0E5C0809323061F
:10078000D8C0803509F44FC0883509F45DC088347D
:1007900009F0D9C0D6C0883909F4C7C0A8F4883791
:1007A00009F467C038F4883609F463C0803709F467
:1007B00060C0C9C0883809F4B8C0803909F45FC086
:1007C000803809F0C0C05BC0803B09F486C038F4B3
:1007D000803A09F466C0883A09F47FC0B4C0803C0E
:1007E00009F4A7C0883C09F4A4C0883B09F48AC076
:1007F000AAC08091000610C0909122068091210627
:10080000981770F5E091220681E08E0F8093220602
:10081000F0E0EF5FF94F80818093BB0085EC86C0EC
:10082000809323068EC0E091220681E08E0F809394
:1008300022068091BB00F0E0EF5FF94F808390913A
:100840002206809121066EC0E091220681E08E0F83
:10085000809322068091BB00F0E0EF5FF94F808328
:100860008091670281116DC081E08093660284EA05
:1008700061C083E0809368021092FD05CFCF809124
:10088000FD05803208F051C0E091FD0581E08E0F3A
:100890008093FD058091BB00F0E0E352FA4F808326
:1008A000BDCF85EC8093BC00109268028091FD055D
:1008B000803230F4E091FD05F0E0E352FA4F10820F
:1008C0006091FD0570E0E0916402F09165028DEDAC
:1008D00095E019951092FD0536C084E0809368027A
:1008E0001092DC051092DB05E0916202F091630248
:1008F00019958091DB05811105C081E08093DB05AE
:100900001092BB05E091DC0581E08E0F8093DC0541
:10091000F0E0E554FA4F80818093BB009091DC05B4
:100920008091DB05981708F479CF85E88093BC00A7
:100930000AC085EC8093BC001092680204C010923B
:1009400023060E942402FF91EF91BF91AF919F91E6
:100950008F917F916F915F914F913F912F910F9068
:100960000BBE0F900FBE0F901F90189590E0FC01EA
:100970003197E231F10508F04EC08827EE58FF4F5D
:100980008F4F0C945C15809180008F7703C080910D
:1009900080008F7D80938000089580918000877F04
:1009A000F9CF84B58F7702C084B58F7D84BD08955B
:1009B0008091B0008F7703C08091B0008F7D8093CD
:1009C000B0000895809190008F7707C080919000CB
:1009D0008F7D03C080919000877F80939000089561
:1009E0008091A0008F7707C08091A0008F7D03C009
:1009F0008091A000877F8093A000089580912001BE
:100A00008F7707C0809120018F7D03C080912001E6
:100A1000877F8093200108951F93CF93DF93282F22
:100A200030E0F901EC53FD4F8491F901E258FD4F9C
:100A3000D491F901E85CFD4FC491CC23C1F0162F8D
:100A400081110E94B604EC2FF0E0EE0FFF1FE25E72
:100A5000FD4FA591B4919FB7F894111104C08C91EA
:100A6000D095D82302C0EC91DE2BDC939FBFDF91A1
:100A7000CF911F910895CF93DF9390E0FC01E2584E
:100A8000FD4F2491FC01E85CFD4F8491882361F1C6
:100A900090E0880F991FFC01EC5FFD4FC591D49148
:100AA000FC01E25EFD4FA591B491611109C09FB7B1
:100AB000F8948881209582238883EC912E230BC0A3
:100AC000623061F49FB7F8948881322F3095832388
:100AD0008883EC912E2B2C939FBF06C08FB7F89480
:100AE000E8812E2B28838FBFDF91CF9108951F932C
:100AF000CF93DF93EC01162F88818C3008F04DC026
:100B000061E0812F0E943B05E88195E09E9FF00106
:100B10001124E05EFA4F1F738081807C182B1083B4
:100B20001382E8819E9FF0011124E05EFA4F148247
:100B300088816CE00E9450159CE0899FA0011124DF
:100B400020E030E095E0BA01620F731F969FF0013C
:100B5000979FF00D1124E05EFA4F608166FD13C08F
:100B60002F5F3F4F2C30310571F781110CC010926F
:100B7000800082E0809381001092850010928400B2
:100B800086BB80936F00E88185E0E89FF001112427
:100B9000E05EFA4F8081806480838881DF91CF910D
:100BA0001F910895FC01918D228D892F90E0805C2A
:100BB0009F4F821B91098F7399270895E0E0F0E021
:100BC000199480E090E0892B21F00E94720C811131
:100BD00019C080E090E0892B41F080E090E0892B03
:100BE00021F00E940000811110C00E94680C811148
:100BF0000FC080E090E0892B81F00E945E0C811193
:100C00000AC008950E940000E4CF0E940000EDCFCA
:100C10000E94DE05EECF0C9400000895089580E058
:100C200090E008958F929F92AF92BF92CF92DF9201
:100C3000EF92FF920F931F93CF93DF938C016A0182
:100C40007B0120E030E04FE753E4C701B6010E948A
:100C50002F144B015C0120E030E0A9010E9407162F
:100C600018161CF4C501B40103C0C501B4019058A5
:100C70000E94D115EB0120E030E0A901C701B601C7
:100C80000E940716181614F460E001C061E0F80134
:100C900081810E940C05CF3FD10509F014F4DD27B6
:100CA00002C0CFEFD0E0F801108161E0812F0E94F7
:100CB0003B05209709F4B1C0CF3FD10509F4AFC07F
:100CC000E12FF0E0EC53FD4FE4918E2F90E0FC011A
:100CD0003197E231F10508F09DC08827EC57FF4FAE
:100CE0008F4F0C945C1584B5806884BDC7BDA7C0C8
:100CF00084B5806284BDC8BDA2C080918000806838
:100D000080938000D0938900C093880098C0809120
:100D10008000806280938000D0938B00C0938A0013
:100D20008EC080918000886080938000D0938D0079
:100D3000C0938C0084C08091B00080688093B00024
:100D4000C093B3007CC08091B00080628093B000FB
:100D5000C093B40074C0809190008068809390002C
:100D6000D0939900C09398006AC0809190008062EF
:100D700080939000D0939B00C0939A0060C08091B4
:100D80009000886080939000D0939D00C0939C0059
:100D900056C08091A00080688093A0008091A00040
:100DA0008F7B8093A000D093A900C093A80047C078
:100DB0008091A00080628093A000D093AB00C0938C
:100DC000AA003DC08091A00088608093A000D093CD
:100DD000AD00C093AC0033C0809120018068809347
:100DE0002001D0932901C093280129C080912001BE
:100DF000806280932001D0932B01C0932A011FC0F1
:100E000080912001886080932001D0932D01C093B0
:100E10002C0115C0C038D10514F460E001C061E0B8
:100E2000812FDF91CF911F910F91FF90EF90DF9075
:100E3000CF90BF90AF909F908F900C940C05DF9156
:100E4000CF911F910F91FF90EF90DF90CF90BF90C7
:100E5000AF909F908F9008950F931F93CF93DF9340
:100E60008C01C62FD62FD07FD1606D2F0E94390301
:100E70006D2FC8010E944C0380E1C89FB00111246E
:100E8000C62FC1606C2FC8010E9439036C2FC801A6
:100E90000E944C0381E090E0DF91CF911F910F9170
:100EA0000895FC01848DDF01A80FB11DA35ABF4F27
:100EB0002C91848D90E001968F739927848FA68959
:100EC000B7892C93A089B1898C91837080648C93AD
:100ED000938D848D981306C00288F389E02D80815C
:100EE0008F7D808308951F920F920FB60F92112469
:100EF0000BB60F922F933F934F935F936F937F9314
:100F00008F939F93AF93BF93CF93DF93EF93FF9311
:100F100020914F0430E0F901EC53FD4F8491F90129
:100F2000E258FD4FD491F901E85CFD4FC491CC2308
:100F300079F081110E94B604EC2FF0E0EE0FFF1F54
:100F4000E65FFC4FA591B491EC91ED2381E009F4AB
:100F500080E020915304309154042F5F3F4F309331
:100F600054042093530490915204953618F096E05F
:100F700090934E0490914E049430C9F128F492302D
:100F800069F09330D1F05EC0953009F451C09630CD
:100F900009F058C091E090931F0551C0811152C0D3
:100FA00020915304309154042436310508F442C092
:100FB00010921F05109252041CC0813009F042C0EB
:100FC000E091520491E09E0F90935204F0E0209142
:100FD000530430915404EE0FFF1FE25BFB4F308748
:100FE0002783109254041092530494E029C0811175
:100FF00017C0E091520491E09E0F90935204F0E0EC
:101000002091530430915404EE0FFF1FE25BFB4F1D
:1010100030872783109254041092530493E010C039
:1010200020915304309154042536310558F007C0FF
:10103000811108C0109254041092530403C095E02B
:1010400090934E04909151049923B9F081110AC0F4
:1010500080915004882321F08091500461E009C000
:101060002F9A0BC080915004882331F08091500456
:1010700060E00E940C0501C02F98FF91EF91DF9175
:10108000CF91BF91AF919F918F917F916F915F9120
:101090004F913F912F910F900BBE0F900FBE0F906D
:1010A0001F9018958EBD00000DB407FEFDCF8EB5C4
:1010B0000895CF93DF93EC0160E088810E940C05D6
:1010C00088E90E94520880E00E94520880E00E9455
:1010D000520880E00E94520880E00E94520861E0BD
:1010E00088810E940C058BE891E00197F1F760E0A0
:1010F00088810E940C0580EE0E94520861E0888180
:10110000DF91CF910C940C05AF92BF92CF92DF92FA
:10111000EF92FF920F931F93CF93DF93CDB7DEB77C
:1011200060970FB6F894DEBF0FBECDBF5C0160E0E4
:10113000FC0180810E940C0580E60E9452088E010D
:101140000F5F1F4F7E01F1E1EF0EF11C680180E09F
:101150000E94520890E0A0E0B0E0F60181939193E4
:10116000A193B1936F01EE15FF0589F761E0F501D9
:1011700080810E940C0580E090E0DC01F801419143
:101180005191619171918F01BA2FA92F982F8827C2
:10119000840F951FA61FB71FEE15FF0579F79C0159
:1011A000AD0166277727CB01621B730B840B950B70
:1011B00060960FB6F894DEBF0FBECDBFDF91CF9122
:1011C0001F910F91FF90EF90DF90CF90BF90AF9065
:1011D0000895CF92DF92EF92FF92CF93DF93FC01BD
:1011E000C081CC3008F064C0D0E085E08C9FF00175
:1011F0008D9FF00D1124E05EFA4F838128E830E0E6
:101200006901C81AD10887FDD394CC0CDD1CCC0C25
:10121000DD1C683C71053CF50D2C000CEE08FF0848
:10122000848128E532E0281B310987FD3395220FA0
:10123000331F220F331FC901330FAA0BBB0B9C01B5
:10124000AD012C193D094E095F09DB010E941715FC
:1012500024EB30E040E050E00E94ED14C20ED31EBB
:10126000E41EF51E13C06C157D0584F0248188E50D
:1012700092E0821B910927FD9395880F991F880F93
:10128000991F6B01861797070CF46C018FB7F894C0
:1012900095E09C9FF0019D9FF00D1124E05EFA4FB8
:1012A00096E0C91AD108CC0CDD1CD282C1828FBF56
:1012B000DF91CF91FF90EF90DF90CF9008951F9234
:1012C0000F920FB60F9211240BB60F922F933F93EC
:1012D0004F935F936F937F938F939F93AF93BF933E
:1012E000EF93FF938091210787FF05C0109285003F
:1012F0001092840016C020912107022E000C330B9F
:1013000080915C0590E0281739075CF43091210743
:1013100025E03203F0011124E05EFA4F808186FD62
:1013200015C0809121078F5F8093210720912107AD
:10133000022E000C330B80915C0590E028173907D2
:1013400094F4809121078C302CF10DC0309121074D
:101350003203F0011124E05EFA4F808160E08F7368
:101360000E940C05DECF809184009091850084342A
:101370009C4918F480E49CE905C080918400909118
:101380008500049690938900809388008FEF809366
:1013900021072AC040918400509185003091210797
:1013A00025E03203F0011124E05EFA4F8181928141
:1013B000840F951F909389008093880030912107B6
:1013C0003203F0011124E05EFA4F808186FF0CC0E9
:1013D000309121073203F0011124E05EFA4F808141
:1013E00061E08F730E940C05FF91EF91BF91AF9167
:1013F0009F918F917F916F915F914F913F912F912D
:101400000F900BBE0F900FBE0F901F901895CF92AC
:10141000DF92EF92FF920F931F93CF93DF9397FD8D
:1014200003C001E010E002C00FEF1FEF25EE33E034
:10143000829FE001839FD00D929FD00D112481E8FF
:1014400095E00E9484086B017C0181E895E00E9490
:10145000590888279927DC018C199D09AE09BF0915
:10146000F82EE92E83E895E00E945908B801012E74
:10147000000C880B990B0E94D0132AE939E949E145
:101480005EE30E942F14AB01BC018DE795E00E9442
:10149000120666277727601B710B072E000C880B3E
:1014A000990B0E94D0132AE939E949E15EE30E94D1
:1014B0002F14AB01BC0170588FE795E00E94120613
:1014C000002711270C1B1D0B8F2D9E2D97FF03C08E
:1014D0009195819591099E01D7FD980182179307F7
:1014E000D4F56AE070E080E090E00E94EB0C81E8C7
:1014F00095E00E9484086B017C0183E895E00E94DE
:101500008408F094E094D094C094C11CD11CE11CD8
:10151000F11C9601D7FE04C0222733272C193D0960
:10152000AB0177FF04C044275527461B570BB90171
:10153000640F751F072E000C880B990B0E94D013A7
:1015400020E030E040E05FE30E942F140E94D115BC
:10155000F62EE72EB9CFDF91CF911F910F91FF901B
:10156000EF90DF90CF90089540E050E0BA018DE712
:1015700095E00E94120640E050E060E070E88FE7DE
:1015800095E00C9412062F923F924F925F926F92C9
:101590007F928F929F92AF92BF92CF92DF92EF9203
:1015A000FF920F931F93CF93DF93CDB7DEB72897AA
:1015B0000FB6F894DEBF0FBECDBF6B017C014901B1
:1015C0005A0181E895E00E94590883E895E00E945D
:1015D000590825E83BEA45E053E4C501B4010E94FF
:1015E0002F140E94D1158B01B701A6018DE795E05C
:1015F0000E941206B701A60170588FE795E00E947D
:1016000012068FB7F8948090220790902307A0903D
:101610002407B09025078FBF212C312C18861F82FC
:1016200022273327201B310B3E832D832F813885C2
:1016300037FF03C0319521953109C80117FF02C05A
:101640008D819E81281739070CF09DC02FB7F89423
:101650008091220790912307A0912407B09125073C
:101660002FBF24E630E040E050E0281B390B4A0B46
:101670005B0BCA01B901680D791D8A1D9B1D0E9473
:10168000EB0C8FB7F8948090220790902307A090DE
:101690002407B09025078FBF81E895E00E94840859
:1016A0009B01AC0188279927DC01821B930BA40BBB
:1016B000B50B4F815885480F591F58874F8381E8D4
:1016C00095E00E94840869837A838B839C8381E8F8
:1016D00095E00E94590883E895E00E9484082B0158
:1016E0003C0183E895E00E94590889819A81AB8189
:1016F000BC81B095A095909581959F4FAF4FBF4FFE
:101700009C01AD012419350946095709AAE0B0E04A
:101710000E940C15260E371E0E94D01327E137EBCE
:1017200041ED58E30E942F14A70196010E94651510
:101730006B017C01B101032C000C880B990B0E94FA
:10174000D01320EB3FE041E255E30E942F14A701A4
:1017500096010E9465156B017C0120E030E040E8B5
:101760005FE30E94C91387FD06C0C12CD12C80E81D
:10177000E82E8FE3F82EB701A60170588FE795E0A9
:101780000E94120653CF28960FB6F894DEBF0FBE04
:10179000CDBFDF91CF911F910F91FF90EF90DF9020
:1017A000CF90BF90AF909F908F907F906F905F9001
:1017B0004F903F902F9008953FB7F89480912E0757
:1017C00090912F07A0913007B091310726B5A89BC3
:1017D00005C02F3F19F00196A11DB11D3FBFBA2FC3
:1017E000A92F982F8827820F911DA11DB11DBC0123
:1017F000CD0142E0660F771F881F991F4A95D1F7E8
:101800000895CF92DF92EF92FF920F931F93CF93A1
:10181000DF936C017A018B01C0E0D0E0CE15DF05CB
:1018200081F0D8016D918D01D601ED91FC9101906F
:10183000F081E02DC6011995892B11F02196EECF8C
:101840007E01C701DF91CF911F910F91FF90EF9023
:10185000DF90CF900895FC01538D448D252F30E00B
:10186000842F90E0821B930B541710F0CF960895AD
:1018700001970895FC01918D828D981761F0828DFA
:10188000DF01A80FB11D5D968C91928D9F5F9F73B4
:10189000928F90E008958FEF9FEF0895FC01918D56
:1018A000828D981731F0828DE80FF11D858D90E0C3
:1018B00008958FEF9FEF08950E94121887E792E036
:1018C0000E94D20521E0892B09F420E0822F08959F
:1018D00084E193E00E94D20521E0892B09F420E005
:1018E000822F089581EB93E00E94D20521E0892B9D
:1018F00009F420E0822F0895EF92FF920F931F9337
:10190000CF93DF93EC0181E0888F9B8D8C8D9813B2
:1019100005C0E889F989808185FD26C0F62E0B8DEA
:1019200010E00F5F1F4F0F731127E02E8C8DE81210
:101930000CC00FB607FCFACFE889F989808185FFD2
:10194000F5CFCE010E945107F1CF8B8DFE01E80F3C
:10195000F11DE35AFF4FF0829FB7F8940B8FEA898D
:10196000FB89808180620AC09FB7F894EE89FF8965
:101970006083E889F98980818370806480839FBF58
:1019800081E090E0DF91CF911F910F91FF90EF9058
:101990000895CF93DF93EC01888D8823C9F0EA89FD
:1019A000FB89808185FD05C0A889B9898C9186FD58
:1019B0000FC00FB607FCF5CF808185FFF2CFA88955
:1019C000B9898C9185FFEDCFCE010E945107E7CFF9
:1019D000DF91CF9108958F929F92AF92BF92CF9255
:1019E000DF92EF92FF926B017C010E94DC0B4B01B6
:1019F0005C01C114D104E104F104F1F00E94DC0B9C
:101A0000DC01CB0188199909AA09BB09883E9340DA
:101A1000A105B10570F321E0C21AD108E108F1086F
:101A200088EE880E83E0981EA11CB11CC114D1045D
:101A3000E104F10419F7DDCFFF90EF90DF90CF9034
:101A4000BF90AF909F908F9008951F920F920FB606
:101A50000F9211242F933F938F939F93AF93BF9334
:101A60008091220790912307A0912407B091250728
:101A700030912D0723E0230F2D3720F40196A11D6F
:101A8000B11D05C026E8230F0296A11DB11D2093AC
:101A90002D078093220790932307A0932407B093E8
:101AA000250780912E0790912F07A0913007B091C4
:101AB00031070196A11DB11D80932E0790932F072A
:101AC000A0933007B0933107BF91AF919F918F9151
:101AD0003F912F910F900FBE0F901F9018951F925E
:101AE0000F920FB60F9211240BB60F922F933F93C4
:101AF0004F935F936F937F938F939F93AF93BF9316
:101B0000EF93FF938091270790912807A0912907D1
:101B1000B0912A07892B8A2B8B2B49F190912607AC
:101B20008091000089278093000080912707909181
:101B30002807A0912907B0912A07181619061A0636
:101B40001B060CF056C08091270790912807A091A2
:101B50002907B0912A070197A109B10980932707A6
:101B600090932807A0932907B0932A0742C0809139
:101B70000002E4E2F3E0E4919FEF90930002E23090
:101B8000C9F050F4EE2399F0E13081F590916F00A7
:101B90009D7F90936F002AC0E43019F1E0F0E530AA
:101BA00029F5909173009D7F909373001FC0109250
:101BB0006E001CC0909170009D7F9093700091E02A
:101BC0009093B0009091B100987F94609093B10091
:101BD0001092B3000BC0909171009D7F90937100A3
:101BE00005C0909172009D7F9093720060E00E940A
:101BF0000C05FF91EF91BF91AF919F918F917F91D4
:101C00006F915F914F913F912F910F900BBE0F906D
:101C10000FBE0F901F9018951F920F920FB60F9244
:101C200011240BB60F922F933F934F935F936F93B3
:101C30007F938F939F93AF93BF93EF93FF9387E728
:101C400092E00E945107FF91EF91BF91AF919F9158
:101C50008F917F916F915F914F913F912F910F9055
:101C60000BBE0F900FBE0F901F9018951F920F92F2
:101C70000FB60F9211240BB60F922F933F934F93F1
:101C80005F936F937F938F939F93AF93BF93EF93E4
:101C9000FF9387E792E00E946103FF91EF91BF916C
:101CA000AF919F918F917F916F915F914F913F91F4
:101CB0002F910F900BBE0F900FBE0F901F90189595
:101CC0001F920F920FB60F9211240BB60F922F9303
:101CD0003F934F935F936F937F938F939F93AF93B4
:101CE000BF93EF93FF9384E193E00E945107FF912C
:101CF000EF91BF91AF919F918F917F916F915F9184
:101D00004F913F912F910F900BBE0F900FBE0F90F0
:101D10001F9018951F920F920FB60F9211240BB6B9
:101D20000F922F933F934F935F936F937F938F9374
:101D30009F93AF93BF93EF93FF9384E193E00E944F
:101D40006103FF91EF91BF91AF919F918F917F912F
:101D50006F915F914F913F912F910F900BBE0F901C
:101D60000FBE0F901F9018951F920F920FB60F92F3
:101D700011240BB60F922F933F934F935F936F9362
:101D80007F938F939F93AF93BF93EF93FF9381EBD9
:101D900093E00E945107FF91EF91BF91AF919F9106
:101DA0008F917F916F915F914F913F912F910F9004
:101DB0000BBE0F900FBE0F901F9018951F920F92A1
:101DC0000FB60F9211240BB60F922F933F934F93A0
:101DD0005F936F937F938F939F93AF93BF93EF9393
:101DE000FF9381EB93E00E946103FF91EF91BF911C
:101DF000AF919F918F917F916F915F914F913F91A3
:101E00002F910F900BBE0F900FBE0F901F90189543
:101E100010926E0210926D0288EE93E0A0E0B0E0A6
:101E200080936F0290937002A0937102B09372023C
:101E300023E132E030936C0220936B0210927A021D
:101E40001092790280937B0290937C02A0937D0292
:101E5000B0937E0225E232E030937802209377023D
:101E600045E351E0509384024093830244E351E000
:101E7000509386024093850240E351E050938802DC
:101E80004093870241E351E050938A0240938902D4
:101E900042E351E050938C0240938B0246E351E0C1
:101EA00050938E0240938D021092900210929102F4
:101EB000109292021092930210921703109216033E
:101EC0008093180390931903A0931A03B0931B03F4
:101ED000309315032093140345ED50E050932103F4
:101EE0004093200344ED50E050932303409322039A
:101EF00040ED50E0509325034093240341ED50E022
:101F0000509327034093260342ED50E0509329035A
:101F10004093280346ED50E050932B0340932A034F
:101F200010922D0310922E0310922F031092300363
:101F30001092B4031092B3038093B5039093B60349
:101F4000A093B703B093B8033093B2032093B103C7
:101F500085EC90E09093BE038093BD0384EC90E009
:101F60009093C0038093BF0380EC90E09093C203F2
:101F70008093C10381EC90E09093C4038093C303EA
:101F800082EC90E09093C6038093C50386EC90E0CA
:101F90009093C8038093C7031092CA031092CB0397
:101FA0001092CC031092CD03809107029091080209
:101FB000A0910902B0910A0280938505909386054D
:101FC000A0938705B093880580910B0290910C0235
:101FD000A0910D02B0910E028093890590938A051D
:101FE000A0938B05B0938C0584E080938D0587E0EA
:101FF00080938E0510928F0584EB8093900586E187
:102000008093910588E18093920587E18093930501
:1020100089E180939405E0915C05EC3020F08FEF2E
:102020008093950510C081E08E0F80935C05E0934E
:10203000950585E0E89FF0011124E05EFA4F88EBFA
:102040009BE092838183E0915C05EC3020F08FEF80
:102050008093960510C081E08E0F80935C05E0931D
:10206000960585E0E89FF0011124E05EFA4F88EBC9
:102070009BE0928381838CE08093640584E280936B
:10208000650586E08093660585E0809367058FE1AE
:10209000809368058EE18093690583E280936A05E9
:1020A00082E280936B0585E480936C0584E48093E1
:1020B0006D0580E480937005109275051092760589
:1020C00010927705109278051092790510927A0592
:1020D00010927B0510927C05EAE4F6E028E037E0F8
:1020E0008FEF9FEFDC011282138214821582168219
:1020F00017821086118683879487A587B68787877E
:10210000908BA18BB28B12861182108273962E1740
:102110003F0749F78DE090E00E940C16FC01138206
:10212000128287E392E091838083118687E2848321
:1021300084E1828784E083871486F0934706E093E6
:102140004606109248061092490685E280934F0495
:102150001092510410925E0510925D051092600578
:1021600010925F05109262051092610561E070E0C7
:1021700080E090E00E942D17009789F090935E0513
:1021800080935D051092600510925F0520916105B6
:1021900030916205232BC1F4FC01108215C080919F
:1021A0005D0590915E05009711F00E94A4161092B3
:1021B0005E0510925D051092620510926105109205
:1021C000600510925F0508951092620510926105F6
:1021D00061E472E080915D0590915E050C94201899
:1021E00080915D0590915E050C94A416789484B559
:1021F000826084BD84B5816084BD85B5826085BD03
:1022000085B5816085BD80916E00816080936E0090
:102210001092810080918100826080938100809182
:102220008100816080938100809180008160809333
:1022300080008091B10084608093B1008091B000F3
:1022400081608093B00080919100826080939100C2
:1022500080919100816080939100809190008160D5
:10226000809390008091A10082608093A100809172
:10227000A10081608093A1008091A0008160809383
:10228000A000809121018260809321018091210131
:1022900081608093210180912001816080932001E1
:1022A00080917A00846080937A0080917A008260C5
:1022B00080937A0080917A00816080937A00809187
:1022C0007A00806880937A001092C100E091C10387
:1022D000F091C20382E08083E091BD03F091BE03E0
:1022E0001082E091BF03F091C0038FEC80831092C5
:1022F000C903E091C503F091C60386E08083E091B5
:10230000C303F091C403808180618083E091C303A3
:10231000F091C403808188608083E091C303F091D1
:10232000C403808180688083E091C303F091C4037B
:1023300080818F7D808361E0809165050E943B05EF
:1023400060E0809165050E940C0560E08091640565
:102350000E943B058BE692E090936F0580936E059B
:1023600010926102109260021092690210926A0249
:102370001092680281E0809367021092660261E029
:1023800084E10E940C0561E085E10E940C058091CA
:10239000B9008E7F8093B9008091B9008D7F8093C2
:1023A000B90088E48093B80085E48093BC0086E59A
:1023B00092E0909363028093620287E592E09093AB
:1023C00065028093640280E090E1A0E0B0E0809339
:1023D000710590937205A0937305B09374058AE01C
:1023E00090E0A0E0B0E08093750590937605A0930F
:1023F0007705B093780580E090E0A0E0B0E48093AA
:10240000790590937A05A0937B05B0937C0560E0F5
:1024100070E185E00E9402036FE979E380E00E94A9
:102420000203C4E6D5E08E0192E0792E2DE6A22EBD
:1024300022E0B22E33EB832E32E0932E4BECE42ECF
:1024400047E0F42EF80194818281898F9A8F61E0B0
:102450000E943B0561E08A8D0E943B05F801908552
:1024600086816E01FDE1CF0ED11C8D8F9E8F61E0C4
:102470000E943B0560E08E8D0E943B0561E08D8DE2
:102480000E940C056FB6F89480912B07811126C02D
:10249000F5018491F4012491E82FF0E0EE0FFF1F85
:1024A000EC5FFD4FA591B4919C91822F892321F47B
:1024B00061E085E30E940C0561E085E30E943B0535
:1024C0008CB580618CBD8CB580648CBD61E084E38B
:1024D0000E943B0561E083E30E943B0580912B074E
:1024E0008F5F80932B076FBEC7010197F1F760E004
:1024F0008D8D0E940C0588E80E94520883E00E949E
:10250000520861E08D8D0E940C05C7010197F1F71B
:10251000C6010E9459087A940F5F1F4F22967110CE
:1025200091CF09E815E0CDE8D5E060E0F8018191B0
:102530008F010E943B05C017D107B9F705E815E0E8
:102540007E01FFEFEF1AFF0A688170E0CE01089666
:102550000E947705F70195818381F801828B938B27
:1025600060E00E943B0561E0F80183890E943B0521
:1025700060E0F80183890E940C050E5F1F4FE701A0
:10258000F5E0CF38DF07E1F6F8941092200189E0FA
:102590008093210180E293E09093290180932801A8
:1025A000109225011092240182E0809373007894A8
:1025B00080934E041092520480914F0460E00E9478
:1025C0003B05C5E0D1E080912C078111D9C0609115
:1025D0008D0570E085E995E00E9477058EEF9FEF0D
:1025E0000E94070A20E030E040E752E46AE979E916
:1025F00089E99EE30E94C30A82E090E00E94070AF4
:1026000020E030E048EC52E46AE979E989E99EE3A8
:102610000E94C30A8FEF9FEF0E94070A20E030E07C
:1026200040EF51E46AE979E989E99EE30E94C30A2F
:102630000E94B40A68EE73E080E090E00E94EB0C28
:1026400080918F05803920F4809190058F3828F48F
:1026500082E492E00E94E00206C06FE870E085E943
:1026600095E00E94E9080E94B40A68EE73E080E0F9
:1026700090E00E94EB0C20E030E040E450E46EEC8F
:102680007CEC8CE49EE30E94C30A0E94B40A68EECC
:1026900073E080E090E00E94EB0C20E030E040EF3F
:1026A00051E46AE979E989E99EEB0E94C30A8DEF5A
:1026B0009FEF0E94070A20E030E04CE752E46AE90D
:1026C00079E989E99EE30E94C30A8EEF9FEF0E9499
:1026D000070A20E030E040EA51E46AE979E989E953
:1026E0009EE30E94C30A20E030E040EF51E46DEC2D
:1026F0007CEC8CEC9EE30E94C30A0E94B40A6CED51
:1027000075E080E090E00E94EB0C80918F058E32A6
:1027100020F4809190058D3228F482E492E00E94AA
:10272000E00206C06DE270E085E995E00E94E908EC
:1027300068EE73E080E090E00E94EB0C20E030E077
:102740004CE052E46AE979E989E99EEB0E94C30A08
:1027500020E030E040E752E46AE979E989E99EEB5C
:102760000E94C30AE0919505CE9FF0011124E05E1E
:10277000FA4F80818F7B80830E94B40AD0932C070C
:1027800068EE73E080E090E00E94EB0C0E94E105AF
:102790001ACF0E940B1408F481E00895E89409C050
:1027A00097FB3EF490958095709561957F4F8F4F84
:1027B0009F4F9923A9F0F92F96E9BB279395F6959A
:1027C000879577956795B795F111F8CFFAF4BB0F18
:1027D00011F460FF1BC06F5F7F4F8F4F9F4F16C07C
:1027E000882311F096E911C0772321F09EE8872F06
:1027F000762F05C0662371F096E8862F70E060E0C2
:102800002AF09A95660F771F881FDAF7880F96953A
:10281000879597F90895990F0008550FAA0BE0E8DE
:10282000FEEF16161706E807F907C0F01216130692
:10283000E407F50798F0621B730B840B950B39F4D2
:102840000A2661F0232B242B252B21F408950A2638
:1028500009F4A140A6958FEF811D811D08950E9466
:1028600042140C94B3140E94A51438F00E94AC14C6
:1028700020F0952311F00C949C140C94A2141124B4
:102880000C94E7140E94C41470F3959FC1F3950F44
:1028900050E0551F629FF001729FBB27F00DB11DE4
:1028A000639FAA27F00DB11DAA1F649F6627B00D74
:1028B000A11D661F829F2227B00DA11D621F739F5D
:1028C000B00DA11D621F839FA00D611D221F749F6B
:1028D0003327A00D611D231F849F600D211D822FB2
:1028E000762F6A2F11249F5750409AF0F1F08823D9
:1028F0004AF0EE0FFF1FBB1F661F771F881F915006
:102900005040A9F79E3F510580F00C949C140C9404
:10291000E7145F3FE4F3983ED4F386957795679587
:10292000B795F795E7959F5FC1F7FE2B880F911D2F
:102930009695879597F9089597F99F6780E870E0D5
:1029400060E008959FEF80EC089500240A94161625
:10295000170618060906089500240A94121613068D
:10296000140605060895092E0394000C11F488231B
:1029700052F0BB0F40F4BF2B11F460FF04C06F5F37
:102980007F4F8F4F9F4F089557FD9058440F551F0D
:1029900059F05F3F71F04795880F97FB991F61F0E1
:1029A0009F3F79F087950895121613061406551F58
:1029B000F2CF4695F1DF08C0161617061806991FC4
:1029C000F1CF86957105610508940895E894BB27B9
:1029D00066277727CB0197F90895052E97FB1EF4FC
:1029E00000940E94041557FD07D00E941F1507FC94
:1029F00003D04EF40C9404155095409530952195D4
:102A00003F4F4F4F5F4F089590958095709561951A
:102A10007F4F8F4F9F4F08950E944115A59F900DA6
:102A2000B49F900DA49F800D911D11240895B7FFB0
:102A30000C940C150E940C15821B930B0895A1E2B7
:102A40001A2EAA1BBB1BFD010DC0AA1FBB1FEE1F28
:102A5000FF1FA217B307E407F50720F0A21BB30B73
:102A6000E40BF50B661F771F881F991F1A9469F7EF
:102A700060957095809590959B01AC01BD01CF014B
:102A80000895A29FB001B39FC001A39F700D811D47
:102A90001124911DB29F700D811D1124911D089567
:102AA000991B79E004C0991F961708F0961B881FA0
:102AB0007A95C9F780950895EE0FFF1F881F8BBF89
:102AC0000790F691E02D19945058BB27AA270E9431
:102AD0007C150C94B3140E94A51438F00E94AC1419
:102AE00020F039F49F3F19F426F40C94A2140EF44C
:102AF000E095E7FB0C949C14E92F0E94C41458F352
:102B0000BA17620773078407950720F079F4A6F5D2
:102B10000C94E6140EF4E0950B2EBA2FA02D0B01A9
:102B2000B90190010C01CA01A0011124FF27591B12
:102B300099F0593F50F4503E68F11A16F040A22F18
:102B4000232F342F4427585FF3CF46953795279589
:102B5000A795F0405395C9F77EF41F16BA0B620B88
:102B6000730B840BBAF09150A1F0FF0FBB1F661FCF
:102B7000771F881FC2F70EC0BA0F621F731F841F12
:102B800048F4879577956795B795F7959E3F08F038
:102B9000B0CF9395880F08F09927EE0F97958795FA
:102BA00008950E94D8156894B1110C94E714089503
:102BB0000E94CC1488F09F5798F0B92F9927B751ED
:102BC000B0F0E1F0660F771F881F991F1AF0BA95D1
:102BD000C9F714C0B13091F00E94E614B1E0089535
:102BE0000C94E614672F782F8827B85F39F0B93F27
:102BF000CCF3869577956795B395D9F73EF4909584
:102C00008095709561957F4F8F4F9F4F08950E94DB
:102C10000B1408F48FEF08950F931F93CF93DF9356
:102C20008230910510F482E090E0E0913407F09159
:102C3000350720E030E0A0E0B0E0309719F14081A6
:102C400051810281138148175907C8F084179507ED
:102C500069F4109731F012960C93129713961C9307
:102C600027C0009334071093350722C02115310582
:102C700019F04217530718F49A01BD01EF01DF0163
:102C8000F801DBCF21153105F9F0281B390B243071
:102C9000310580F48A819B816115710521F0FB016A
:102CA0009383828304C09093350780933407FE0199
:102CB000329644C0FE01E20FF31F8193919322509C
:102CC0003109398328833AC0209132073091330784
:102CD000232B41F4209103023091040230933307F7
:102CE0002093320720910102309102022115310513
:102CF00041F42DB73EB74091050250910602241BC6
:102D0000350BE0913207F0913307E217F307A0F497
:102D10002E1B3F0B2817390778F0AC014E5F5F4F31
:102D20002417350748F04E0F5F1F50933307409329
:102D300032078193919302C0E0E0F0E0CF01DF9190
:102D4000CF911F910F910895CF93DF93009709F4CE
:102D500081C0FC01329713821282A0913407B09196
:102D60003507109781F420813181820F931F2091C4
:102D70003207309133072817390751F5F09333079D
:102D8000E093320767C0ED0120E030E0CE17DF07A7
:102D900040F44A815B819E0141155105F1F0EA0141
:102DA000F5CFD383C28340815181840F951FC8170B
:102DB000D90759F488819981840F951F02969183D0
:102DC00080838A819B81938382832115310529F435
:102DD000F0933507E09334073DC0E901FB83EA83B4
:102DE00049915991C40FD51FEC17FD0761F48081FB
:102DF0009181840F951F0296E901998388838281CE
:102E000093819B838A83E0E0F0E012968D919C9100
:102E10001397009719F0FD01DC01F7CF8D919C917C
:102E200011979D012E5F3F4F820F931F2091320714
:102E3000309133072817390769F4309729F4109235
:102E400035071092340702C013821282B093330701
:102E5000A0933207DF91CF9108956F927F928F9266
:102E60009F92AF92BF92CF92DF92EF92FF920F9319
:102E70001F93CF93DF93009789F4CB01DF91CF911C
:102E80001F910F91FF90EF90DF90CF90BF90AF9088
:102E90009F908F907F906F900C940C16FC01E60F22
:102EA000F71F9C0122503109E217F30708F4A9C06B
:102EB000EC01D9010D911C91119706171707B0F07D
:102EC0000530110508F49BC0C801049786179707C1
:102ED00008F495C002501109061B170B01931193BA
:102EE0006D937C93CF010E94A41689C05B01A01A48
:102EF000B10A4C01800E911EA0913407B0913507A4
:102F0000612C712CE12CF12C109709F446C08D91A5
:102F10009C911197A815B905B1F56C0142E0C40E5A
:102F2000D11CCA14DB0478F14C018A189B08640197
:102F300042E0C40ED11C1296BC9012971396AC912D
:102F4000B5E0CB16D10440F0B282A3839182808297
:102F5000D9016D937C9309C00E5F1F4F800F911FA5
:102F6000F90191838083EB2DFA2FE114F10431F004
:102F7000D7011396FC93EE93129741C0F093350757
:102F8000E09334073CC06816790608F43C017D01E3
:102F900012960D90BC91A02DB7CF809132079091E1
:102FA000330788169906E1F466167706C8F480910F
:102FB000010290910202009741F48DB79EB74091B3
:102FC000050250910602841B950BE817F907C8F417
:102FD000F0933307E0933207F901718360830FC0E8
:102FE000CB010E940C167C01009759F0A801BE018C
:102FF0000E941718CE010E94A416C70104C0CE017A
:1030000002C080E090E0DF91CF911F910F91FF907F
:10301000EF90DF90CF90BF90AF909F908F907F9078
:103020006F90089581E090E0F8940C942718FB01CC
:10303000DC0102C001900D9241505040D8F7089534
:10304000FB01DC0101900D920020E1F7089511E0F1
:10305000C4E9D1E000E006C0802FFE010E945C15AB
:103060002196011DC539D10780E00807A9F7F8941A
:02307000FFCF90
:10307200FF000036072000363738391B1D1A1C00A6
:10308200000000B10284020F0658027C0268025955
:1030920002000000007C0C010C2B0CC90CD2053A7A
:1030A2000C4E0C000000002C07010C0F060E060D42
:1030B2000A00536572766F20616E676C65206973D2
:1030C200206F7574206F662072616E676521000043
:00000001FF
