:100000000C94B2010C94E3010C94E3010C94E30111
:100010000C94E3010C94E3010C94E3010C94E301D0
:100020000C94E3010C94AF0C0C94AF0C0C94AF0C3B
:100030000C94E3010C9475040C94E3010C94E3011B
:100040000C94E3010C94A9070C94E3010C94E301D4
:100050000C94E3010C94E3010C94E3010C9458110B
:100060000C94E3010C94E4050C94BA050C94E301A0
:100070000C94E3010C94E3010C94E3010C94E30170
:100080000C94E3010C94E3010C94E3010C94E30160
:100090000C94E3010C94E3010C94E3010C945108DB
:1000A0000C94E3010C94E3010C94E3010C94E30140
:1000B0000C94E3010C94E3010C94E3010C940E0600
:1000C0000C94E3010C94E3010C94E3010C9490056F
:1000D0000C9466050C94E3010C943C050C941205F9
:1000E0000C94E301630A660A550A590A5F0A9D0ADD
:1000F0006A0A6E0A740A780A7C0A820A860A8A0ADE
:100100009D0A900A940A980A760D7B0D800D8A0D3F
:10011000940D0D0E9E0DA60DAE0DB80DC20DCC0D9D
:10012000DB0DE50D0D0EEF0DF90D030E0C94A60D74
:100130000C9460030C94AE0D0C945E030C940D0EA5
:100140000C94CC0D0C94E8030C94900A0C949D0A2A
:100150000C947C0A0C94780A0C94940A0C94800DEC
:100160000C94740A0C94DB0D0C94B80D0C94660A74
:100170000C94590A0C94940D0C94A2170C94C20D73
:100180000C9470030C94E50D0C945F030C94EF0D2C
:100190000C94EF030C94030E0C94550A0C94980ADB
:1001A0000C94E6010C941F020C947B0D0C9433020A
:1001B0000C949E0D0C9461030C94760D0C948403A6
:1001C0000C9410020C94B9030C94630A0C949C17C1
:1001D0000C948A0A0C94F90D0C94DA020C946A0AB5
:1001E0000C948C030C94820A0C9441020C94E5014B
:1001F0000C945F0A0C946E0A0C948A0D0C948D0278
:100200000C94860A4E414E494E495459494E46CDAA
:10021000CCCC3D0AD7233C17B7D13877CC2B3295BD
:1002200095E6241FB14F0A000020410000C842009B
:10023000401C4620BCBE4CCA1B0E5AAEC59D740263
:1002400000002100240027002A002D003000330088
:1002500001010000040107010A010000220025003D
:1002600028002B002E00310034000201000005019F
:1002700008010B01000020002300260029002C00AB
:100280002F003200000100000301060109010505ED
:100290000505070508080808020202020A0A0808FC
:1002A000040404040101010101010101030303032A
:1002B00003030303040707070C0C0C0C0C0C0C0CB9
:1002C0000202020206060606060606060B0B0B0BCA
:1002D0000B0B0B0B010210202008081020401020EF
:1002E00040800201020108040201010204081020FA
:1002F00040808040201008040201800402018040F8
:100300002010080402010804020101020408102060
:100310004080010204081020408000000A0B0209FE
:100320000C0D0E080703040100000000000000008F
:1003300000000000000000000000000000000000BD
:10034000000000000000121110000000000000007A
:10035000000000000000000000000000000000009D
:10036000A2179C1711241FBECFEFD1E2DEBFCDBF75
:1003700000E00CBF14E0A0E0B2E0E8EAFFE300E038
:100380000BBF02C007900D92A035B107D9F729E045
:10039000A0E5B4E001C01D92AD32B207E1F711E073
:1003A000C1EBD1E000E006C021970109802FFE01DA
:1003B0000E94771CC03BD10780E00807A9F70E9484
:1003C000A2110C94C21F0C9400000895CF92DF92EA
:1003D000EF92FF920F931F93CF93DF936C017A01FB
:1003E0008B01C0E0D0E0CE15DF0581F0D8016D9122
:1003F0008D01D601ED91FC910190F081E02DC601B7
:100400001995892B11F02196EECF7E01C701DF915E
:10041000CF911F910F91FF90EF90DF90CF900895B3
:10042000FC01538D448D252F30E0842F90E0821BFA
:10043000930B541710F0CF96089501970895FC017F
:10044000918D828D981761F0828DDF01A80FB11D0B
:100450005D968C91928D9F5F9F73928F90E008952F
:100460008FEF9FEF0895FC01918D828D981731F0E9
:10047000828DE80FF11D858D90E008958FEF9FEF3D
:100480000895FC01918D228D892F90E0805C9F4F13
:10049000821B91098F73992708958BE295E00E9442
:1004A000410221E0892B09F420E0822F089588EC95
:1004B00095E00E94410221E0892B09F420E0822F7F
:1004C000089585E696E00E94410221E0892B09F417
:1004D00020E0822F0895FC01848DDF01A80FB11D5B
:1004E000A35ABF4F2C91848D90E001968F7399276A
:1004F000848FA689B7892C93A089B1898C91837048
:1005000080648C93938D848D981306C00288F38940
:10051000E02D80818F7D80830895EF92FF920F936D
:100520001F93CF93DF93EC0181E0888F9B8D8C8D9F
:10053000981305C0E889F989808185FD26C0F62ECB
:100540000B8D10E00F5F1F4F0F731127E02E8C8D66
:10055000E8120CC00FB607FCFACFE889F989808150
:1005600085FFF5CFCE010E946B02F1CF8B8DFE018E
:10057000E80FF11DE35AFF4FF0829FB7F8940B8FFD
:10058000EA89FB89808180620AC09FB7F894EE896E
:10059000FF896083E889F989808183708064808322
:1005A0009FBF81E090E0DF91CF911F910F91FF906D
:1005B000EF900895CF93DF93EC01888D8823C9F0E5
:1005C000EA89FB89808185FD05C0A889B9898C915C
:1005D00086FD0FC00FB607FCF5CF808185FFF2CFF7
:1005E000A889B9898C9185FFEDCFCE010E946B025D
:1005F000E7CFDF91CF910895E0E0F0E0199480E03B
:1006000090E0892B21F00E946102811119C080E0E5
:1006100090E0892B41F080E090E0892B21F00E944E
:100620000000811110C00E94570281110FC080E0AC
:1006300090E0892B81F00E944D0281110AC008953B
:100640000E940000E4CF0E940000EDCF0E94FC0257
:10065000EECF0C940000089585ED8093BC0080914E
:10066000BC0084FDFCCF1092080508954091B104B0
:10067000262F30E0240F311D21323105DCF420918A
:1006800008052430C9F4FC0180E090E0861758F496
:100690003091B1042191DC01A157BB4FA30FB11DD3
:1006A0002C930196F3CF8091B104680F6093B1044D
:1006B00080E0089581E0089582E008950895089506
:1006C0000895E0910A0580910905E81730F4F0E0FB
:1006D000E55FFA4F808190E008958FEF9FEF0895D6
:1006E00090910A0580910905981750F4E92FF0E0E0
:1006F000E55FFA4F208130E09F5F90930A0502C0CA
:100700002FEF3FEFC90108958091090590E02091F6
:100710000A05821B91090895CF92DF92EF92FF9212
:100720000F931F93CF93DF937C01CB018A0120911C
:100730008C04222389F0EB016B01C40ED51ECC156D
:10074000DD0569F06991D701ED91FC910190F0818F
:10075000E02DC7011995F3CF642F0E943603C8011D
:10076000DF91CF911F910F91FF90EF90DF90CF908D
:100770000895CF93DF931F92CDB7DEB769832091A1
:100780008C042223D1F020918D04203240F021E00E
:1007900030E0FC013383228380E090E015C080913B
:1007A0008E04E82FF0E0E459FB4F998190838F5F2E
:1007B00080938E0480938D0405C061E0CE01019684
:1007C0000E94360381E090E00F90DF91CF91089571
:1007D00080E090E0089581E008950E94A41F0F93A7
:1007E0001F93CF93DF938C01C62FD62FD07FD1607C
:1007F0006D2F0E946A0C6D2FC8010E94810C80E150
:10080000C89FB0011124C62FC1606C2FC8010E947F
:100810006A0C6C2FC8010E94810C81E090E0DF918E
:10082000CF911F910F9108950F931F93CF93DF9353
:100830008C01EB01FC0180819181009739F0688186
:10084000798161157105A1F40E94361E8881998114
:10085000F801918380838A819B81938382838C8139
:100860009D8195838483198218821B821A820FC00E
:10087000F801428153812C813D814217530720F3B7
:100880000E94BB1F8C819D81F801958384831D820A
:100890001C82DF91CF911F910F9108950F931F93A9
:1008A000CF93DF93EC0188819981009729F02A8109
:1008B0003B812617370788F48B016F5F7F4F0E94BB
:1008C000BF1E009761F0998388831B830A832C8164
:1008D0003D81232B11F4FC01108281E001C080E0F6
:1008E000DF91CF911F910F9108951F920F920FB634
:1008F0000F9211240BB60F922F933F934F935F9358
:100900006F937F938F939F93AF93BF93EF93FF93D7
:100910008091D8049091D904A091DA04B091DB04BD
:10092000892B8A2B8B2B49F19091D7048091000061
:100930008927809300008091D8049091D904A091D8
:10094000DA04B091DB04181619061A061B060CF01F
:1009500056C08091D8049091D904A091DA04B09146
:10096000DB040197A109B1098093D8049093D904BD
:10097000A093DA04B093DB0442C080910002EFE35D
:10098000F2E0E4919FEF90930002E230C9F050F45E
:10099000EE2399F0E13081F590916F009D7F909367
:1009A0006F002AC0E43019F1E0F0E53029F59091AC
:1009B00073009D7F909373001FC010926E001CC047
:1009C000909170009D7F9093700091E09093B000A3
:1009D0009091B100987F94609093B1001092B30011
:1009E0000BC0909171009D7F9093710005C0909114
:1009F00072009D7F9093720060E00E94E20CFF9174
:100A0000EF91BF91AF919F918F917F916F915F9186
:100A10004F913F912F910F900BBE0F900FBE0F90F3
:100A20001F9018951F920F920FB60F9211240BB6BC
:100A30000F922F933F934F935F936F937F938F9377
:100A40009F93AF93BF93EF93FF938BE295E00E9448
:100A50006B02FF91EF91BF91AF919F918F917F9129
:100A60006F915F914F913F912F910F900BBE0F901F
:100A70000FBE0F901F9018951F920F920FB60F92F6
:100A800011240BB60F922F933F934F935F936F9365
:100A90007F938F939F93AF93BF93EF93FF938BE2DB
:100AA00095E00E94960CFF91EF91BF91AF919F91BD
:100AB0008F917F916F915F914F913F912F910F9007
:100AC0000BBE0F900FBE0F901F9018951F920F92A4
:100AD0000FB60F9211240BB60F922F933F934F93A3
:100AE0005F936F937F938F939F93AF93BF93EF9396
:100AF000FF9388EC95E00E946B02FF91EF91BF910C
:100B0000AF919F918F917F916F915F914F913F91A5
:100B10002F910F900BBE0F900FBE0F901F90189546
:100B20001F920F920FB60F9211240BB60F922F93B4
:100B30003F934F935F936F937F938F939F93AF9365
:100B4000BF93EF93FF9388EC95E00E94960CFF9182
:100B5000EF91BF91AF919F918F917F916F915F9135
:100B60004F913F912F910F900BBE0F900FBE0F90A2
:100B70001F9018951F920F920FB60F9211240BB66B
:100B80000F922F933F934F935F936F937F938F9326
:100B90009F93AF93BF93EF93FF9385E696E00E94F8
:100BA0006B02FF91EF91BF91AF919F918F917F91D8
:100BB0006F915F914F913F912F910F900BBE0F90CE
:100BC0000FBE0F901F9018951F920F920FB60F92A5
:100BD00011240BB60F922F933F934F935F936F9314
:100BE0007F938F939F93AF93BF93EF93FF9385E68C
:100BF00096E00E94960CFF91EF91BF91AF919F916B
:100C00008F917F916F915F914F913F912F910F90B5
:100C10000BBE0F900FBE0F901F9018951F920F9252
:100C20000FB60F9211240BB60F922F933F934F9351
:100C30005F936F937F938F939F93AF93BF93EF9344
:100C4000FF93809103070E94B90C20910707309110
:100C500008072F5F3F4F30930807209307079091B5
:100C60000607953618F096E09093020790910207D8
:100C70009430C9F128F4923069F09330D1F05EC01D
:100C8000953009F451C0963009F058C091E0909326
:100C9000D30751C0811152C0209107073091080736
:100CA0002436310508F442C01092D307109206078B
:100CB0001CC0813009F042C0E091060791E09E0F10
:100CC00090930607F0E02091070730910807EE0F98
:100CD000FF1FEE5FF84F30872783109208071092AE
:100CE000070794E029C0811117C0E091060791E041
:100CF0009E0F90930607F0E02091070730910807B8
:100D0000EE0FFF1FEE5FF84F308727831092080722
:100D10001092070793E010C0209107073091080751
:100D20002536310558F007C0811108C01092080718
:100D30001092070703C095E0909302079091050772
:100D40009923B9F081110AC080910407882321F00A
:100D50008091040761E009C02F9A0BC080910407BD
:100D6000882331F08091040760E00E94E20C01C00A
:100D70002F98FF91EF91BF91AF919F918F917F91AC
:100D80006F915F914F913F912F910F900BBE0F90FC
:100D90000FBE0F901F9018958F929F92AF92BF92A7
:100DA000CF92DF92EF92FF920F931F93CF93DF9337
:100DB000EC016A017B0120E030E04FE753E4C7011A
:100DC000B6010E944F1B4B015C0120E030E0A901FD
:100DD0000E94941D18161CF4C501B40103C0C5017E
:100DE000B40190580E945E1D8B0120E030E0A90103
:100DF000C701B6010E94941D181614F460E001C0EA
:100E000061E089810E94E20C0F3F110509F01CF49A
:100E1000B801772702C06FEF70E08881DF91CF9132
:100E20001F910F91FF90EF90DF90CF90BF90AF9008
:100E30009F908F900C944D0D8EBD00000DB407FE59
:100E4000FDCF8EB50895CF93DF93EC0160E08881EC
:100E50000E94E20C88E90E941C0780E00E941C07A7
:100E600080E00E941C0780E00E941C0780E00E9436
:100E70001C0761E088810E94E20C8BE891E00197F9
:100E8000F1F760E088810E94E20C80EE0E941C076E
:100E900061E08881DF91CF910C94E20C1F93CF9396
:100EA000DF93EC01162F88818C3008F04DC061E093
:100EB000812F0E94110DE88195E09E9FF001112481
:100EC000EC52F84F1F738081807C182B10831382A3
:100ED000E8819E9FF0011124EC52F84F1482888122
:100EE0006CE00E946B1C9CE0899FA001112420E013
:100EF00030E095E0BA01620F731F969FF001979F53
:100F0000F00D1124EC52F84F608166FD13C02F5F85
:100F10003F4F2C30310571F781110CC010928000C9
:100F200082E080938100109285001092840086BB3D
:100F300080936F00E88185E0E89FF0011124EC5276
:100F4000F84F8081806480838881DF91CF911F91E9
:100F500008951F920F920FB60F9211240BB60F92A5
:100F60002F933F934F935F936F937F938F939F93B1
:100F7000AF93BF93EF93FF938091D60487FF05C093
:100F8000109285001092840016C02091D604022E83
:100F9000000C330B8091100890E0281739075CF49F
:100FA0003091D60425E03203F0011124EC52F84FC1
:100FB000808186FD15C08091D6048F5F8093D60412
:100FC0002091D604022E000C330B8091100890E083
:100FD0002817390794F48091D6048C302CF10DC079
:100FE0003091D6043203F0011124EC52F84F808185
:100FF00060E08F730E94E20CDECF809184009091BC
:10100000850084349C4918F480E49CE905C08091F3
:1010100084009091850004969093890080938800C5
:101020008FEF8093D6042AC04091840050918500B0
:101030003091D60425E03203F0011124EC52F84F30
:1010400081819281840F951F9093890080938800FD
:101050003091D6043203F0011124EC52F84F808114
:1010600086FF0CC03091D6043203F0011124EC52FB
:10107000F84F808161E08F730E94E20CFF91EF9145
:10108000BF91AF919F918F917F916F915F914F91A0
:101090003F912F910F900BBE0F900FBE0F901F909E
:1010A00018951F920F920FB60F9211240BB60F9244
:1010B0002F933F934F935F936F937F938F939F9360
:1010C000AF93BF93EF93FF938091B900887F8036F1
:1010D00009F49CC068F5883209F45BC090F4803153
:1010E00009F454C038F4882309F4F6C0883009F4B0
:1010F0004DC0F6C0883109F44CC0803209F45DC09F
:10110000EFC0803409F468C048F4803309F455C056
:10111000883309F0E5C080930605D8C0803509F40E
:101120004FC0883509F45DC0883409F0D9C0D6C0F5
:10113000883909F4C7C0A8F4883709F467C038F4BF
:10114000883609F463C0803709F460C0C9C08838A4
:1011500009F4B8C0803909F45FC0803809F0C0C014
:101160005BC0803B09F486C038F4803A09F466C05D
:10117000883A09F47FC0B4C0803C09F4A7C0883C19
:1011800009F4A4C0883B09F48AC0AAC08091030571
:1011900010C09091050580910405981770F5E091B5
:1011A000050581E08E0F80930505F0E0EE51FB4FC1
:1011B00080818093BB0085EC86C0809306058EC03D
:1011C000E091050581E08E0F809305058091BB00BD
:1011D000F0E0EE51FB4F808390910505809104056E
:1011E0006EC0E091050581E08E0F8093050580912A
:1011F000BB00F0E0EE51FB4F808380910705811129
:101200006DC081E08093020584EA61C083E0809331
:1012100008051092D504CFCF8091D504803208F014
:1012200051C0E091D50481E08E0F8093D504809168
:10123000BB00F0E0EB54FB4F8083BDCF85EC809387
:10124000BC00109208058091D504803230F4E09102
:10125000D504F0E0EB54FB4F10826091D50470E0B0
:10126000E091B304F091B40485EB94E019951092E9
:10127000D50436C084E0809308051092B204109221
:10128000B104E091AF04F091B00419958091B104DC
:10129000811105C081E08093B10410928F04E09128
:1012A000B20481E08E0F8093B204F0E0E157FB4F6F
:1012B00080818093BB009091B2048091B104981713
:1012C00008F479CF85E88093BC000AC085EC809350
:1012D000BC001092080504C0109206050E942C0361
:1012E000FF91EF91BF91AF919F918F917F916F91FE
:1012F0005F914F913F912F910F900BBE0F900FBEBA
:101300000F901F90189530918D04313208F04BC02A
:10131000809108058111FCCF90916B0422E020930D
:10132000080521E0209307052FEF20930605109272
:10133000050530930405ECE6F4E0A2EEB4E020E00D
:10134000321721F041914D932F5FFACF1092030590
:1013500020910305990F922B90930305909102051C
:10136000913061F410920205909103059093BB00B7
:101370009091BC0093FDF8CF95EC01C095EE909351
:10138000BC00909108059230E1F3909106059F3FD3
:1013900079F080910605803241F080910605803316
:1013A00031F084E005C081E003C082E001C083E049
:1013B00010928E0410928D0410928C04089581E096
:1013C00080938C0460936B0410928E0410928D04B1
:1013D000089510920A051092090510928E04109239
:1013E0008D041092080581E0809307051092020594
:1013F00061E084E10E94E20C61E085E10E94E20C80
:10140000E9EBF0E080818E7F808380818D7F808317
:1014100088E48093B80085E48093BC008EE593E077
:101420009093B0048093AF048FE593E09093B4045D
:101430008093B30408951F93CF93DF93EC0165E08D
:101440008FE498E00E94DF09CE010E941D0F8FE417
:1014500098E00E948309182F60EF73E085E696E01C
:101460000E948010AE01DD0F660B770B20E185E650
:1014700096E00E94460F63EE73E085E696E00E94D8
:101480008010812F90E0DF91CF911F910C948210FA
:1014900090E0FC013197E231F10508F04EC0882759
:1014A000EE58FF4F8F4F0C94771C809180008F7700
:1014B00003C0809180008F7D80938000089580918B
:1014C0008000877FF9CF84B58F7702C084B58F7D88
:1014D00084BD08958091B0008F7703C08091B000E3
:1014E0008F7D8093B0000895809190008F7707C022
:1014F000809190008F7D03C080919000877F8093C2
:10150000900008958091A0008F7707C08091A0007F
:101510008F7D03C08091A000877F8093A0000895F5
:10152000809120018F7707C0809120018F7D03C0BB
:1015300080912001877F8093200108952FB7F89430
:101540008091DC049091DD04A091DE04B091DF0471
:101550002FBF8093D0059093D105A093D205B0936F
:10156000D30588EC95E00E941F0297FF26C02FB795
:10157000F8948091DC049091DD04A091DE04B09198
:10158000DF042FBF4091D0055091D1056091D20565
:101590007091D305841B950BA60BB70B4091CC051E
:1015A0005091CD056091CE057091CF0584179507B8
:1015B000A607B707B0F28FEF9FEF0895CF93C82F1C
:1015C00069E28FE498E00E94DF098C2F806890E048
:1015D0000E941D0F8FE498E00E94830981E090E053
:1015E0000E94EA108FE498E00E947003CF91089562
:1015F000CF93DF93C82F69E28FE498E00E94DF0960
:101600008C2F806890E00E941D0F8FE498E00E946C
:10161000830982E090E00E94EA108FE498E00E9443
:101620007003EC018FE498E00E94700320E030E04A
:10163000382FCE01822B932BDF91CF910895CF923B
:10164000DF92EF92FF92CF93DF93823018F06FEF2B
:1016500073E00AC090914308691720F09091440804
:10166000961760F461E174E085E696E0DF91CF9132
:10167000FF90EF90DF90CF900C94320FE82FF0E0C6
:10168000E75CF74FC089CC3008F072C0262F30E0FD
:10169000D0E085E08C9FF0018D9FF00D1124EC527D
:1016A000F84F8381283C31059CF528E830E069013A
:1016B000C81AD10887FDD394CC0CDD1CCC0CDD1CE2
:1016C0000D2C000CEE08FF08848128E532E0281B71
:1016D000310987FD3395220F331F220F331FC901B4
:1016E000330FAA0BBB0B9C01AD012C193D094E0910
:1016F0005F09A62FB0E00E942F1C24EB30E040E0F1
:1017000050E00E94101CC20ED31EE41EF51E1EC027
:1017100048E850E06A01C81AD10887FDD394CC0C80
:10172000DD1CCC0CDD1C2C153D0584F0448188E5C6
:1017300092E0841B910947FD9395880F991F880FAC
:10174000991F69018C159D050CF46C018FB7F894F5
:1017500095E09C9FF0019D9FF00D1124EC52F84FF5
:1017600096E0C91AD108CC0CDD1CD282C1828FBF91
:10177000DF91CF91FF90EF90DF90CF900895FF928F
:101780000F931F93CF93DF93F82E162F072FC8E1E7
:10179000D8E06C858A859B850E94DF098A859B85B8
:1017A000DC01ED91FC910190F081E02D6F2D1995F8
:1017B0008A859B85DC01ED91FC910190F081E02D03
:1017C000602F19958A859B85DC01ED91FC91019034
:1017D000F081E02D612F19958A859B85DF91CF914E
:1017E0001F910F91FF900C9483090F931F93CF9338
:1017F000DF93EC018B010E944E0428813981811115
:101800000DC02115310519F0C9010E94361E19823B
:1018100018821D821C821B821A8207C01D830C83C2
:101820006DEA72E0C9010E94BB1FCE01DF91CF912A
:101830001F910F910895CF92DF92EF92FF920F9335
:101840001F93CF93DF931F921F92CDB7DEB78C010A
:10185000C62EFC011182108213821282158214821C
:1018600060E070E00E94F50B0E949E0A0C2C000CB8
:10187000DD0897FD23C08C159D0501F189831A822F
:10188000F801E480F580FFEFEF1AFF0AB701C80105
:101890000E944E04882379F0F801208131818481EF
:1018A0009581BE016F5F7F4F820F931F0E94BB1F08
:1018B000F801F582E4820E949E0ADBCFC8010F90F6
:1018C0000F90DF91CF911F910F91FF90EF90DF90DC
:1018D000CF9008951F93CF93DF93EC01162F6C8167
:1018E0008FE498E00E94DF096C85812F862B90E0C1
:1018F0000E941D0F8FE498E0DF91CF911F910C940F
:1019000083090F931F93CF938C01C62F64600E94AD
:101910006A0C6C2F6B7FC8010E946A0C83EC90E00C
:101920000197F1F7CF911F910F910895FC01A089C4
:10193000B1898C91A689B78982FD0FC09C91818D58
:101940008F5F8F73228D821749F0218DDF01A20FE7
:10195000B11D5D969C93818F08958C9108951F927F
:101960000F920FB60F9211240F900FBE0F901F9081
:101970001895CF93DF93282F30E0F901E65EFC4FF6
:101980008491F901EC52FD4FD491F901E257FD4FDA
:10199000C491CC2391F081110E94480AEC2FF0E011
:1019A000EE0FFF1FEC58FD4FA591B491EC91ED2384
:1019B00081E090E021F480E002C080E090E0DF91DF
:1019C000CF9108951F93CF93DF93282F30E0F90133
:1019D000E65EFC4F8491F901EC52FD4FD491F90180
:1019E000E257FD4FC491CC23C1F0162F81110E9404
:1019F000480AEC2FF0E0EE0FFF1FE65AFD4FA591CD
:101A0000B4919FB7F894111104C08C91D095D8234C
:101A100002C0EC91DE2BDC939FBFDF91CF911F9131
:101A20000895CF93DF9390E0FC01EC52FD4F249199
:101A3000FC01E257FD4F8491882361F190E0880F0B
:101A4000991FFC01E05CFD4FC591D491FC01E65A61
:101A5000FD4FA591B491611109C09FB7F894888199
:101A6000209582238883EC912E230BC0623061F491
:101A70009FB7F8948881322F309583238883EC9127
:101A80002E2B2C939FBF06C08FB7F894E8812E2B86
:101A900028838FBFDF91CF9108951F93CF93DF935A
:101AA000182FEB0161E00E94110D209711F460E006
:101AB00004C0CF3FD10539F461E0812FDF91CF9190
:101AC0001F910C94E20CE12FF0E0E65EFC4FE491F4
:101AD0008E2F90E0FC013197E231F10508F09DC0B6
:101AE0008827EC57FF4F8F4F0C94771C84B5806884
:101AF00084BDC7BD97C084B5806284BDC8BD92C097
:101B000080918000806880938000D0938900C0938A
:101B1000880088C080918000806280938000D0938C
:101B20008B00C0938A007EC0809180008860809383
:101B30008000D0938D00C0938C0074C08091B00061
:101B400080688093B000C093B3006CC08091B000F7
:101B500080628093B000C093B40064C08091900014
:101B6000806880939000D0939900C09398005AC0E9
:101B700080919000806280939000D0939B00C093EE
:101B80009A0050C080919000886080939000D0931C
:101B90009D00C0939C0046C08091A0008068809307
:101BA000A0008091A0008F7B8093A000D093A9001B
:101BB000C093A80037C08091A00080628093A000ED
:101BC000D093AB00C093AA002DC08091A000886084
:101BD0008093A000D093AD00C093AC0023C080914F
:101BE0002001806880932001D0932901C0932801AF
:101BF00019C080912001806280932001D0932B0135
:101C0000C0932A010FC08091200188608093200139
:101C1000D0932D01C0932C0105C0C038D1050CF024
:101C20004BCF45CFDF91CF911F910895863308F0B8
:101C3000865390917B00282F2870977F922B90934A
:101C40007B008770806480937C0080917A00806440
:101C500080937A0080917A0086FDFCCF8091780095
:101C60002091790090E0922B08958F929F92AF92ED
:101C7000BF92CF92DF92EF92FF926B017C010E94A4
:101C800033114B015C01C114D104E104F104F1F002
:101C90000E943311DC01CB0188199909AA09BB09FB
:101CA000883E9340A105B10570F321E0C21AD10826
:101CB000E108F10888EE880E83E0981EA11CB11C93
:101CC000C114D104E104F10419F7DDCFFF90EF90C6
:101CD000DF90CF90BF90AF909F908F900895CF935B
:101CE000DF938FE498E00E94E90982E10E94DE0A16
:101CF000843411F08031D1F581E080935B08C0918C
:101D00005E08D0915F08AE0160E070E00E94D110E3
:101D1000D0935F08C0935E08C0915C08D0915D08C5
:101D200080915B08811102C00E946F0EAE0160E0DD
:101D300070E08FE00E94D110D0935D08C0935C08E2
:101D400041E050E060E070E080E00E94D11063E08C
:101D500070E080E090E00E94350E43E050E060E0EB
:101D600070E080E00E94D11081E001C080E0DF914E
:101D7000CF910895CF92DF92EF92FF92CF93DF93AE
:101D8000EC016A017B01E889F98982E080834115D1
:101D9000514E61057105B1F060E079E08DE390E0AE
:101DA000A70196010E943A1CDA01C9010197A10915
:101DB000B109B695A795979587959C01211580E166
:101DC0003807A8F0E889F989108260E874E88EE1A4
:101DD00090E0A70196010E943A1CDA01C90101971F
:101DE000A109B109B695A795979587959C01EC85B2
:101DF000FD853083EE85FF852083188EEC89FD8973
:101E000086E08083EA89FB89808180618083EA891A
:101E1000FB89808188608083EA89FB898081806872
:101E20008083EA89FB8980818F7D8083DF91CF91D8
:101E3000FF90EF90DF90CF900895682F8FE498E0A7
:101E40000C94B9036115710551F0FB01019000205C
:101E5000E9F73197AF01461B570B0C94E60180E080
:101E600090E008950F931F93CF93DF93EC010E94AE
:101E7000220F8C0165EB73E0CE010E94220F800FD0
:101E8000911FDF91CF911F910F9108958F929F9293
:101E9000AF92BF92EF92FF920F931F93CF93DF9376
:101EA000CDB7DEB7A1970FB6F894DEBF0FBECDBF9A
:101EB0007C01FA01CB0119A2223008F42AE08E013C
:101EC0000F5D1F4F822E912CA12CB12CBF01A501BB
:101ED00094010E943A1CF901CA01015011096A30AB
:101EE00014F4605D01C0695CD8016C93232B242B32
:101EF000252B61F7B801C7010E94220FA1960FB6EA
:101F0000F894DEBF0FBECDBFDF91CF911F910F912F
:101F1000FF90EF90BF90AF909F908F9008957F9229
:101F20008F929F92AF92BF92CF92DF92EF92FF92E9
:101F30000F931F93CF93DF938C016A017B01722E65
:101F40009A01AB01C701B6010E94991D882319F0BF
:101F50006EE274E027C046015701E894B7F82FEF0E
:101F60003FEF4FE75FE7C501B4010E94991D811162
:101F70000DC02FEF3FEF4FE75FE7C501B4010E94AF
:101F8000E91A18161CF462E374E00CC02FEF3FEF5F
:101F90004FE75FE4C701B6010E94941D181694F440
:101FA00066E374E0C801DF91CF911F910F91FF901C
:101FB000EF90DF90CF90BF90AF909F908F907F90E9
:101FC0000C94220F2FEF3FEF4FE75FECC701B601F4
:101FD0000E94E91A87FDE4CF20E030E0A901C701A3
:101FE000B6010E94E91A87FF0AC06DE2C8010E948B
:101FF0008D02EC01F7FAF094F7F8F09402C0C0E01B
:10200000D0E0B12C60E070E080E09FE37B1441F011
:1020100020E030E040E251E40E94EC1CB394F6CFA3
:10202000A70196010E94801C6B017C010E94651D26
:102030004B015C012AE0AB01BC01C8010E94460FC4
:10204000C80FD91F7720C1F1C501B4010E94EE1A53
:102050009B01AC01C701B6010E947F1C6B017C0192
:102060006EE2C8010E948D02C80FD91F20E030E047
:1020700040E251E4C701B6010E944F1B4B015C01D5
:102080000E94651D6B01E12CF12C2AE0B701A6012D
:10209000C8010E94460FC80FD91FC701B6010E9490
:1020A000EE1A9B01AC01C501B4010E947F1C6B01BB
:1020B0007C017A947110DACFCE01DF91CF911F911C
:1020C0000F91FF90EF90DF90CF90BF90AF909F90D7
:1020D0008F907F9008950F931F93CF93DF93EC0120
:1020E00022E00E948F0F8C0165EB73E0CE010E940D
:1020F000220F800F911FDF91CF911F910F910895B3
:102100000C94220FCF92DF92EF92FF92CF93DF9346
:102110006C01990FEE08FF08F7FE15C06DE285E629
:1021200096E00E948D02EC0144275527BA014C1914
:102130005D096E097F092AE085E696E00E94460F58
:10214000C80FD91F08C02AE0B701A60185E696E0AE
:102150000E94460FEC0165EB73E085E696E00E9475
:10216000220F8C0F9D1FDF91CF91FF90EF90DF909A
:10217000CF900895CF93DF936AE374E085E696E00D
:102180000E948010809139080E94160EEC010E9476
:10219000821081E0CC32D1400CF480E0DF91CF910D
:1021A0000895CF93DF93C82FD42F69E28FE498E08E
:1021B0000E94DF098C2F806890E00E941D0F6D2F18
:1021C0008FE498E00E94B9038FE498E0DF91CF910B
:1021D0000C948309909108059111FCCF982F8132BE
:1021E00008F090E281E080930805809307052FEFC7
:1021F0002093060510920505290F2093040580936E
:102200000305809103058265809303058091020593
:10221000813061F410920205809103058093BB0028
:102220008091BC0083FDF8CF85EC01C085EE8093E2
:10223000BC00809108058130E1F380910505891784
:1022400010F490910505E2EEF4E0ABE0B5E080E03B
:10225000891721F021912D938F5FFACF10920A05F3
:102260008093090508953FB7F894809123099091D0
:102270002409A0912509B091260926B5A89B05C07F
:102280002F3F19F00196A11DB11D3FBFBA2FA92FF5
:10229000982F8827820F911DA11DB11DBC01CD0172
:1022A00042E0660F771F881F991F4A95D1F708955E
:1022B0001F920F920FB60F9211242F933F938F937B
:1022C0009F93AF93BF938091DC049091DD04A09124
:1022D000DE04B091DF043091220923E0230F2D3773
:1022E00020F40196A11DB11D05C026E8230F02961A
:1022F000A11DB11D209322098093DC049093DD047D
:10230000A093DE04B093DF04809123099091240907
:10231000A0912509B09126090196A11DB11D8093B8
:10232000230990932409A0932509B0932609BF910E
:10233000AF919F918F913F912F910F900FBE0F9072
:102340001F901895CF93DF93CDB7DEB760970FB688
:10235000F894DEBF0FBECDBF789484B5826084BD93
:1023600084B5816084BD85B5826085BD85B5816099
:1023700085BD80916E00816080936E001092810017
:1023800080918100826080938100809181008160D2
:102390008093810080918000816080938000809193
:1023A000B10084608093B1008091B000816080931F
:1023B000B0008091910082608093910080919100A3
:1023C0008160809391008091900081608093900063
:1023D0008091A10082608093A1008091A100816022
:1023E0008093A1008091A00081608093A0008091E3
:1023F000210182608093210180912101816080937D
:1024000021018091200181608093200180917A00D8
:10241000846080937A0080917A00826080937A0051
:1024200080917A00816080937A0080917A00806840
:1024300080937A001092C10040E855E260E070E0BD
:1024400085E696E00E94BA0E61E0809119080E942C
:10245000110D60E0809119080E94E20C60E080910B
:1024600018080E94110D8FE498E090932308809340
:1024700022080E94E90980E090E1A0E0B0E08093AA
:10248000250890932608A0932708B09328088AE08F
:1024900090E0A0E0B0E08093290890932A08A093F0
:1024A0002B08B0932C0880E090E0A0E0B0E480938B
:1024B0002D0890932E08A0932F08B093300860E069
:1024C00070E185E00E94BF0B6FE979E380E00E9434
:1024D000BF0B08E118E0780162E0562E73EC672E1E
:1024E00072E0772EE9E08E2EE3E09E2EFBECCF2EFD
:1024F000F7E0DF2EF70194818281F801818F928FBE
:1025000061E00E94110D61E0F801828D0E94110DC1
:10251000F701908586815801FDE1AF0EB11CF801ED
:10252000858F968F61E00E94110D60E0F801868D25
:102530000E94110D61E0F801858D0E94E20C4FB6FA
:10254000F89480915004811126C0F3018491F40124
:102550002491E82FF0E0EE0FFF1FE05CFD4FA59106
:10256000B4919C91822F892321F461E085E30E943C
:10257000E20C61E085E30E94110D8CB580618CBD99
:102580008CB580648CBD61E084E30E94110D61E034
:1025900083E30E94110D809150048F5F809350045B
:1025A0004FBEC6010197F1F760E0F801858D0E94EA
:1025B000E20C88E80E941C0783E00E941C0761E08F
:1025C000F801858D0E94E20CC6010197F1F7C50163
:1025D0000E9423075A94FFEFEF1AFF0A0E5F1F4F66
:1025E000511088CF4DE3E42E48E0F42E01E418E0CA
:1025F00060E0F70181917F010E94110D0E151F050A
:10260000B9F729E3E22E28E0F22E33E4A32E38E0D6
:10261000B32E6801FFEFCF1ADF0AF801608170E086
:10262000C80108960E944E07F60195818381F70143
:10263000828B938B60E00E94110D61E0F70183892A
:102640000E94110D60E0F70183890E94E20CF2E024
:10265000EF0EF11C8601AC14BD04D9F6F89410926B
:10266000200189E08093210180E293E09093290189
:1026700080932801109225011092240182E080931A
:1026800073007894809302071092060780910307E5
:1026900060E00E94110D40E855E260E070E085E6E0
:1026A00096E00E94BA0E6091410870E089E498E0DB
:1026B0000E944E0760E080E00E941F0B61E082E014
:1026C0000E94110D60E086E30E94110D60E087E337
:1026D0000E94110D0E946F0E882319F06FE372E0C3
:1026E00002C06CE472E085E696E00E94320F40E0A2
:1026F00056E960E070E088EC95E00E94BA0E8FE445
:1027000098E00E94E90982E090E00E941B0A69E7D4
:1027100072E085E696E00E94320F22242394312C49
:102720008091510481110DC080913D080E94B90C27
:10273000892B39F485E696E00E944102892B09F441
:1027400002C285E696E00E944102892B29F085E6C7
:1027500096E00E941F02F5CF21E0209351048FB72D
:10276000F8942091DC043091DD044091DE04509116
:10277000DF042D873E874F87588B8FBF2FB7F89484
:102780008091DC049091DD04A091DE04B091DF041F
:102790002FBF2D853E854F855889821B930BA40B37
:1027A000B50B803D9740A105B10508F0C9C10E9455
:1027B000BA10882309F4CEC165E872E085E696E098
:1027C0000E94801040E050E0BA0181E398E00E944E
:1027D000CC0640E050E060E070E883E398E00E94BF
:1027E000CC0687E090E00E941B0A68E780E00E9428
:1027F0001F0B6CED75E080E090E00E94350E60E00C
:1028000080E00E941F0B68EE73E080E090E00E9481
:10281000350E0E94BA108DC160E073E085E696E047
:102820000E94320F6BE3CE0107960E941B0CCF80F3
:10283000D884C114D10409F0D6C28B859C85892B1C
:1028400009F45AC30F81188560E273E0C8010E9441
:10285000B21F892B09F02AC367E173E088EC95E089
:102860000E94320F6BE3CE0101960E941B0CBE0149
:102870006F5F7F4FCE0107960E94140489819A8171
:102880000E94361E8F819885009709F4EBC20E9442
:1028900068194B015C0163E273E088EC95E00E94EB
:1028A0008010B501A40188EC95E00E946B106AE0ED
:1028B000CE0101960E941B0CBE016F5F7F4FCE01BF
:1028C00007960E94140489819A810E94361E8F8186
:1028D0009885009709F4CAC20E9468197B018C018F
:1028E0006BE273E088EC95E00E948010A701B801CC
:1028F00088EC95E00E946B1088EC95E00E94DA026B
:1029000063E373E085E696E00E94320F20E030E05A
:10291000A901C501B4010E94E91A87FFACC2C50133
:10292000B4010E945E1D9B0177FF04C0222733275C
:10293000261B370BB101621B730B072E000C880B93
:10294000990B0E94F01A9701A8010E944F1B570192
:1029500068017B018C016BE373E085E696E00E94E1
:10296000801022E0A701B80185E696E00E948F0F53
:1029700069E473E085E696E00E94801022E0A501FC
:10298000B60185E696E00E948F0F2DEC3CEC4CE4FE
:102990005EE3B701C8010E944F1BAB01BC0181E39C
:1029A00098E00E94CC062DEC3CEC4CE45EE3B501D3
:1029B000C6010E944F1BAB01BC01705883E398E035
:1029C0000E94CC0668EC70E080E090E00E94350E3A
:1029D000992493948F8198850E94361E992099F0AE
:1029E0006DEE72E088EC95E00E94320F68EE73E0C5
:1029F00080E090E00E94350E88EC95E00E94410254
:102A0000892B09F009CFC12CD12C7601C3941C2D40
:102A10006C2D8FE498E00E94DF098FE498E00E941B
:102A20008309811174C266E973E085E696E00E942D
:102A30008010103130F46DEF73E085E696E00E946F
:102A4000801020E1B701A60185E696E00E94460FBE
:102A500065EB73E085E696E00E94220FFFEFCF1A48
:102A6000DF0AEF0AFF0A2FE7C216D104E104F104DE
:102A700071F686E30E94160E7C0187E30E94160E13
:102A80008C0168EC70E080E090E00E94350E86E3F7
:102A90000E94160E6C0187E30E94160E081B190B8C
:102AA000EC18FD08F7FE03C0F194E194F10835E15C
:102AB000E316F1040CF431C284E090E00E941B0A9A
:102AC0006FEF70E082E00E944D0D68EE73E080E0F1
:102AD00090E00E94350E68EC70E082E00E944D0D9F
:102AE00064EF71E080E090E00E94350E66E970E0EE
:102AF00082E00E944D0D64EF71E080E090E00E9462
:102B0000350E65E08FE498E00E94DF0981E090E0F7
:102B10000E941D0F8FE498E00E948309182F64ED36
:102B200073E085E696E00E948010812F90E00E947D
:102B300082106AE070E080E090E00E94350E1ECEC8
:102B40000E94FF02EDCD62E370E080E090E00E9421
:102B5000350EE6CD80E00E94DE0A8F7E482F50E0E1
:102B600060E070E080E00E94D1106CE370E080E0F3
:102B700090E00E94350E69E28FE498E00E94DF0940
:102B80008FE498E00E948309082F10E06EEE73E056
:102B900085E696E00E9480100115110541F063E979
:102BA00072E085E696E00E948010C80145C084E18D
:102BB0000E94F80A7C016CEA72E085E696E00E94C9
:102BC00080106AE472E085E696E00E94801086E15B
:102BD0000E94F80A6C016CEA72E085E696E00E94B9
:102BE00080106EEF72E085E696E00E94801088E12A
:102BF0000E94F80A3C016CEA72E085E696E00E94C9
:102C000080106EEA72E085E696E00E94801069E22C
:102C10008FE498E00E94DF098FE498E00E94830926
:102C2000A82EB12CA114B10451F063E972E085E63D
:102C300096E00E948010C5010E948210D2C08AE1F5
:102C40000E94F80A8C016CEA72E085E696E00E9428
:102C5000801080E00E94DE0A8061482F50E060E032
:102C600070E080E00E94D110B60180E090E00E9408
:102C7000EE1A4B015C01B70180E090E00E94EE1A71
:102C80006B017C019B01AC01C501B4010E94EC1CED
:102C90004B015C01B30180E090E00E94EE1AA701B5
:102CA00096010E94EC1C2B013C01B80180E090E0F1
:102CB0000E94EE1AA70196010E94EC1C6B017C0198
:102CC00020E030E040E853E4C301B2010E944F1B12
:102CD0002B013C0120E030E040E853E4C701B6019D
:102CE0000E944F1B6B017C0160EB72E085E696E071
:102CF0000E94801020E030E040E853E4C501B401B8
:102D00000E944F1BAB01BC0122E085E696E00E94C9
:102D10008F0F6CEB72E085E696E00E94801022E057
:102D2000B301A20185E696E00E948F0F61EC72E08C
:102D300085E696E00E948010B701A60185E696E040
:102D40000E946B1020E030E044EB52E4C701B60172
:102D50000E94941D87FF0AC020E030E044EB52E45B
:102D6000C301B2010E94941D87FD3BC066EC72E076
:102D700085E696E00E94320F85E398E00E942307E3
:102D800087E398E00E9423074AE959E969E17EE375
:102D900081E398E00E94CC064AE959E969E17EE3C3
:102DA00083E398E00E94CC0661ED72E085E696E050
:102DB0000E9480102AE040E050E0BA0185E696E0EB
:102DC0000E94460F67EE72E085E696E00E94801052
:102DD00040E050E669E775E485E696E00E946B10F6
:102DE000E3CF912CFDCD0B851C850115110509F450
:102DF00024CD760157014FEFA41AB40AF701808160
:102E0000082E000C990B0E94C81A892B11F075012D
:102E1000F1CF015011090C0D1D1DF8018081082E04
:102E2000000C990B0E94C81A892B31F00E151F0552
:102E300018F001501109F1CFA8014F5F5F4F4E19F3
:102E40005F095C874B87CE14DF0420F4B701C6010D
:102E50000E94A91FEF81F8858B859C85E80FF91FDB
:102E60001082EBCC812C912C540115CDE12CF12C4E
:102E700000E010E035CDC501B4010E945E1D9B014C
:102E800077FF04C022273327261B370BB101621BB3
:102E9000730B072E000C880B990B0E94F01A9701F8
:102EA000A8010E944F1B5B016C0155CD62E573E0E8
:102EB000C8010E94B21F892B29F485E090E00E948E
:102EC0001B0A88CD68E573E0C8010E94B21F892BF8
:102ED00009F480CD6DE573E0C8010E94B21F892B13
:102EE00059F483E090E00E941B0A6CE673E085E6EB
:102EF00096E00E9480106ECD64E873E085E696E06F
:102F00000E94320F8F8198850E94361E7CCD8430BE
:102F100009F0A4CD68EB73E088CD17FF03C01195CD
:102F200001951109053111050CF0C6CD60E070E086
:102F300082E00E944D0DFDCD809111089091120804
:102F40000C94361E10922E0510922D0548EE53E07B
:102F500060E070E040932F05509330056093310599
:102F60007093320583E192E090932C0580932B05BA
:102F700025E331E0309338052093370524E331E031
:102F800030933A052093390520E331E030933C0536
:102F900020933B0521E331E030933E0520933D052E
:102FA00022E331E03093400520933F0526E331E0F2
:102FB0003093420520934105109244051092450537
:102FC00010924605109247051092CB051092CA0543
:102FD0004093CC055093CD056093CE057093CF05FB
:102FE0009093C9058093C80525ED30E03093D50551
:102FF0002093D40524ED30E03093D7052093D605F7
:1030000020ED30E03093D9052093D80521ED30E054
:103010003093DB052093DA0522ED30E03093DD05B7
:103020002093DC0526ED30E03093DF052093DE05AC
:103030001092E1051092E2051092E3051092E4056A
:1030400010926806109267064093690650936A06CC
:1030500060936B0670936C0690936606809365068A
:1030600085EC90E0909372068093710684EC90E07A
:10307000909374068093730680EC90E090937606AC
:103080008093750681EC90E09093780680937706A4
:1030900082EC90E090937A068093790686EC90E03B
:1030A00090937C0680937B0610927E0610927F069A
:1030B000109280061092810680910702909108027A
:1030C000A0910902B0910A028093390890933A08BE
:1030D000A0933B08B0933C0880910B0290910C02A6
:1030E000A0910D02B0910E0280933D0890933E088E
:1030F000A0933F08B093400884E08093410887E0A4
:10310000809342081092430884EB8093440886E140
:103110008093450888E18093460887E180934708BB
:1031200089E180934808E0911008EC3020F08FEF9F
:103130008093490810C081E08E0F80931008E093BF
:10314000490825E0E29FF0011124EC52F84F88EB8A
:103150009BE092838183E0911008EC3020F08FEFA8
:1031600080934A0810C081E08E0F80931008E0938E
:103170004A0885E0E89FF0011124EC52F84F88EBF3
:103180009BE0928381838CE08093180884E2809393
:10319000190886E080931A0885E080931B088FE168
:1031A00080931C088EE180931D0883E280931E08A3
:1031B00082E280931F0885E48093200884E4809352
:1031C000210880E4809324081092290810922A088C
:1031D00010922B0810922C0810922D0810922E0895
:1031E00010922F0810923008E4E6F8E08FEF9FEF7E
:1031F000DC011282138214821582168217821086D5
:10320000118683879487A587B6878787908BA18B44
:10321000B28B128611821082739629E0E232F20795
:1032200041F78DE090E00E949E1DFC011382128206
:1032300085E292E091838083118687E2848384E132
:10324000828784E083871486F0936108E0936008A6
:10325000109262081092630885E28093030710922F
:10326000050710921208109211081092140810927B
:103270001308109216081092150860E070E081E1C2
:1032800098E00E94F50B109252081092510888EEB7
:1032900093E0A0E0B0E08093530890935408A0938B
:1032A0005508B093560881E392E0909350088093BC
:1032B0004F0810925B088BEE90E090935F0880932C
:1032C0005E0881E090E090935D0880935C0808952B
:1032D000662777270C946C198F929F92AF92BF92BA
:1032E000CF92DF92EF92FF920F931F93CF93DF93D2
:1032F000EC016B016115710519F0FB01918380836D
:103300007E01FFEFEF1AFF0A0881802F90E00E94F4
:10331000C81A892B11F0E701F3CF0D3239F47E0181
:1033200082E0E80EF11C098111E008C00B3229F49B
:103330007E0192E0E90EF11C098110E0E70121977E
:1033400043E050E06CE072E0CE010E94D11A892B7C
:10335000C1F4239645E050E067E072E0CE010E94A0
:10336000D11A892B09F42596C114D10419F0F6015C
:10337000D183C0831111F6C060E070E080E89FE760
:10338000FAC043E050E064E072E0CE010E94D11A3E
:10339000892B59F4C114D10409F4E9C0F2E0EF0E0D
:1033A000F11CF601F182E082E2C020E030E0A901E8
:1033B000C0E0D0E0F70160EDA62EA00E89E08A15EE
:1033C00030F1912F9260B92E812F887012FF04C0C6
:1033D000811124C0219622C081112197A5E0B0E07F
:1033E0000E942F1CDC01CB01880F991FAA1FBB1F55
:1033F0009C01AD012A0D311D411D511D283989E95E
:103400003807480789E1580748F0166006C09EEF64
:10341000A9120AC013FD40C01860B12E8FEFE81A40
:10342000F80A00811B2DC6CF802F8F7D8534A1F532
:1034300080818D3211F4106106C08B3221F03196FB
:1034400061E070E004C08181329662E070E08053F8
:103450008A3018F0E61BF70B1FC060E070E06038A0
:103460009CE079075CF4DB01AA0FBB1FAA0FBB1F0E
:103470006A0F7B1F660F771F680F711D3196DF0182
:1034800011978C9180538A3050F314FF03C07195CB
:1034900061957109C60FD71F11FF08C0C114D1046F
:1034A00029F0CF010197F60191838083CA01B90108
:1034B0000E94EE1A212F2370233019F04B015C017A
:1034C00006C04B015C01B7FAB094B7F8B09420E0A5
:1034D00030E0A901C501B4010E94E91A882309F46A
:1034E0003EC0D7FF06C0D195C195D10903E212E0D5
:1034F00002C00BE312E06801F8E1CF1AD10890E2B4
:10350000E92EF12CCE15DF0574F0F80125913591E7
:1035100045915491C501B4010E944F1B4B015C01C0
:10352000CE19DF09EFCF04501109F594E7940C157B
:103530001D0541F78A2D880F8B2D881F8F3F49F07D
:1035400020E030E0A901C501B4010E94E91A81110F
:1035500006C082E290E09093280980932709C50174
:10356000B40109C060E070E080E89FEF04C060E053
:1035700070E080EC9FE7DF91CF911F910F91FF905A
:10358000EF90DF90CF90BF90AF909F908F90089575
:1035900091110C94BC1B803219F089508550C8F7EA
:1035A0000895FB01DC014150504088F08D91813439
:1035B0001CF08B350CF4805E659161341CF06B352A
:1035C0000CF4605E861B611171F3990B0895881BE2
:1035D000FCCF0E942B1B08F481E00895E89409C0F9
:1035E00097FB3EF490958095709561957F4F8F4F36
:1035F0009F4F9923A9F0F92F96E9BB279395F6954C
:10360000879577956795B795F111F8CFFAF4BB0FC9
:1036100011F460FF1BC06F5F7F4F8F4F9F4F16C02D
:10362000882311F096E911C0772321F09EE8872FB7
:10363000762F05C0662371F096E8862F70E060E073
:103640002AF09A95660F771F881FDAF7880F9695EC
:10365000879597F90895990F0008550FAA0BE0E890
:10366000FEEF16161706E807F907C0F01216130644
:10367000E407F50798F0621B730B840B950B39F484
:103680000A2661F0232B242B252B21F408950A26EA
:1036900009F4A140A6958FEF811D811D08950E9418
:1036A000621B0C94D61B0E94C81B38F00E94CF1BD3
:1036B00020F0952311F00C94BF1B0C94C51B112412
:1036C0000C940A1C0E94E71B70F3959FC1F3950FA1
:1036D00050E0551F629FF001729FBB27F00DB11D96
:1036E000639FAA27F00DB11DAA1F649F6627B00D26
:1036F000A11D661F829F2227B00DA11D621F739F0F
:10370000B00DA11D621F839FA00D611D221F749F1C
:103710003327A00D611D231F849F600D211D822F63
:10372000762F6A2F11249F5750409AF0F1F088238A
:103730004AF0EE0FFF1FBB1F661F771F881F9150B7
:103740005040A9F79E3F510580F00C94BF1B0C948C
:103750000A1C5F3FE4F3983ED4F38695779567950E
:10376000B795F795E7959F5FC1F7FE2B880F911DE1
:103770009695879597F9089599278827089597F939
:103780009F6780E870E060E008959FEF80EC089507
:1037900000240A9416161706180609060895002430
:1037A0000A9412161306140605060895092E0394AA
:1037B000000C11F4882352F0BB0F40F4BF2B11F41E
:1037C00060FF04C06F5F7F4F8F4F9F4F089557FD7D
:1037D0009058440F551F59F05F3F71F04795880F7F
:1037E00097FB991F61F09F3F79F087950895121616
:1037F00013061406551FF2CF4695F1DF08C01616C2
:1038000017061806991FF1CF869571056105089472
:103810000895E894BB2766277727CB0197F9089589
:10382000052E97FB1EF400940E94271C57FD07D01D
:103830000E943A1C07FC03D04EF40C94271C5095B0
:103840004095309521953F4F4F4F5F4F089590958C
:103850008095709561957F4F8F4F9F4F08950E947F
:103860005C1CA59F900DB49F900DA49F800D911D91
:1038700011240895A1E21A2EAA1BBB1BFD010DC045
:10388000AA1FBB1FEE1FFF1FA217B307E407F50710
:1038900020F0A21BB30BE40BF50B661F771F881FEC
:1038A000991F1A9469F760957095809590959B0182
:1038B000AC01BD01CF010895A29FB001B39FC0012B
:1038C000A39F700D811D1124911DB29F700D811D4C
:1038D0001124911D0895991B79E004C0991F961732
:1038E00008F0961B881F7A95C9F780950895EE0F0A
:1038F000FF1F881F8BBF0790F691E02D1994505839
:10390000BB27AA270E94971C0C94D61B0E94C81B99
:1039100038F00E94CF1B20F039F49F3F19F426F4B1
:103920000C94C51B0EF4E095E7FB0C94BF1BE92F2C
:103930000E94E71B58F3BA176207730784079507BD
:1039400020F079F4A6F50C94091C0EF4E0950B2EEA
:10395000BA2FA02D0B01B90190010C01CA01A001E1
:103960001124FF27591B99F0593F50F4503E68F13C
:103970001A16F040A22F232F342F4427585FF3CF7D
:10398000469537952795A795F0405395C9F77EF44E
:103990001F16BA0B620B730B840BBAF09150A1F097
:1039A000FF0FBB1F661F771F881FC2F70EC0BA0F1D
:1039B000621F731F841F48F4879577956795B795A5
:1039C000F7959E3F08F0B0CF9395880F08F09927A0
:1039D000EE0F9795879508950E94001D0C94D61BB5
:1039E0000E94CF1B58F00E94C81B40F029F45F3F93
:1039F00029F00C94BF1B51110C940A1C0C94C51B8C
:103A00000E94E71B68F39923B1F3552391F3951BAB
:103A1000550BBB27AA2762177307840738F09F5FEF
:103A20005F4F220F331F441FAA1FA9F335D00E2E5C
:103A30003AF0E0E832D091505040E695001CCAF7C9
:103A40002BD0FE2F29D0660F771F881FBB1F26178C
:103A500037074807AB07B0E809F0BB0B802DBF0163
:103A6000FF2793585F4F3AF09E3F510578F00C9432
:103A7000BF1B0C940A1C5F3FE4F3983ED4F3869579
:103A800077956795B795F7959F5FC9F7880F911D53
:103A90009695879597F90895E1E0660F771F881F3F
:103AA000BB1F621773078407BA0720F0621B730BF2
:103AB000840BBA0BEE1F88F7E09508950E94651DF0
:103AC0006894B1110C940A1C08950E94EF1B88F0B1
:103AD0009F5798F0B92F9927B751B0F0E1F0660FD2
:103AE000771F881F991F1AF0BA95C9F714C0B13013
:103AF00091F00E94091CB1E008950C94091C672FF5
:103B0000782F8827B85F39F0B93FCCF38695779541
:103B10006795B395D9F73EF490958095709561952A
:103B20007F4F8F4F9F4F08950E942B1B08F48FEFFC
:103B300008950E942B1B880B990B08950F931F93D8
:103B4000CF93DF938230910510F482E090E0E09112
:103B50002B09F0912C0920E030E0A0E0B0E0309794
:103B600019F1408151810281138148175907C8F02A
:103B70008417950769F4109731F012960C931297F9
:103B800013961C9327C000932B0910932C0922C075
:103B90002115310519F04217530718F49A01BD0198
:103BA000EF01DF01F801DBCF21153105F9F0281B0A
:103BB000390B2430310580F48A819B8161157105B0
:103BC00021F0FB019383828304C090932C0980939E
:103BD0002B09FE01329644C0FE01E20FF31F8193D0
:103BE000919322503109398328833AC020912909C1
:103BF00030912A09232B41F42091030230910402D1
:103C000030932A0920932909209101023091020260
:103C10002115310541F42DB73EB740910502509171
:103C20000602241B350BE0912909F0912A09E217BD
:103C3000F307A0F42E1B3F0B2817390778F0AC01CF
:103C40004E5F5F4F2417350748F04E0F5F1F5093AC
:103C50002A09409329098193919302C0E0E0F0E0A2
:103C6000CF01DF91CF911F910F910895CF93DF93F3
:103C7000009709F481C0FC01329713821282A0914F
:103C80002B09B0912C09109781F420813181820F8A
:103C9000931F2091290930912A092817390751F5D6
:103CA000F0932A09E093290967C0ED0120E030E094
:103CB000CE17DF0740F44A815B819E014115510513
:103CC000F1F0EA01F5CFD383C28340815181840FA3
:103CD000951FC817D90759F488819981840F951FBA
:103CE0000296918380838A819B81938382832115AD
:103CF000310529F4F0932C09E0932B093DC0E9012B
:103D0000FB83EA8349915991C40FD51FEC17FD0736
:103D100061F480819181840F951F0296E901998356
:103D20008883828193819B838A83E0E0F0E012960E
:103D30008D919C911397009719F0FD01DC01F7CF4D
:103D40008D919C9111979D012E5F3F4F820F931F84
:103D50002091290930912A092817390769F43097E9
:103D600029F410922C0910922B0902C0138212829E
:103D7000B0932A09A0932909DF91CF9108956F92FA
:103D80007F928F929F92AF92BF92CF92DF92EF92EB
:103D9000FF920F931F93CF93DF93009789F4CB018A
:103DA000DF91CF911F910F91FF90EF90DF90CF9017
:103DB000BF90AF909F908F907F906F900C949E1DBE
:103DC000FC01E60FF71F9C0122503109E217F307AF
:103DD00008F4A9C0EC01D9010D911C9111970617A7
:103DE0001707B0F00530110508F49BC0C80104970F
:103DF0008617970708F495C002501109061B170B88
:103E0000019311936D937C93CF010E94361E89C05C
:103E10005B01A01AB10A4C01800E911EA0912B09E2
:103E2000B0912C09612C712CE12CF12C109709F424
:103E300046C08D919C911197A815B905B1F56C01FB
:103E400042E0C40ED11CCA14DB0478F14C018A187C
:103E50009B08640142E0C40ED11C1296BC901297DC
:103E60001396AC91B5E0CB16D10440F0B282A38397
:103E700091828082D9016D937C9309C00E5F1F4FA0
:103E8000800F911FF90191838083EB2DFA2FE114AC
:103E9000F10431F0D7011396FC93EE93129741C0D1
:103EA000F0932C09E0932B093CC06816790608F4BE
:103EB0003C017D0112960D90BC91A02DB7CF809151
:103EC000290990912A0988169906E1F46616770661
:103ED000C8F48091010290910202009741F48DB7DD
:103EE0009EB74091050250910602841B950BE8177E
:103EF000F907C8F4F0932A09E0932909F9017183BD
:103F000060830FC0CB010E949E1D7C01009759F079
:103F1000A801BE010E94A91FCE010E94361EC70142
:103F200004C0CE0102C080E090E0DF91CF911F91EC
:103F30000F91FF90EF90DF90CF90BF90AF909F9048
:103F40008F907F906F90089581E090E0F8940C94AA
:103F5000C21FFB01DC0102C001900D924150504094
:103F6000D8F70895FB01DC018D91019080190110B3
:103F7000D9F3990B0895FB01DC0101900D9200200B
:103F8000E1F7089511E0C1EBD1E000E006C0802F19
:103F9000FE010E94771C2196011DC23BD10780E0E3
:083FA0000807A9F7F894FFCF10
:103FA800FF00002D092000363738391B1D1A1C0068
:103FB8000000008D02E6011002DA0241021F0233FE
:103FC8000200000000EF03E601E803E5010000003D
:103FD80000B9038C03E8036003840370036103469C
:103FE8006F756E642073656E736F72004E6F205428
:103FF8004353333437323520666F756E64202E2E66
:104008002E20636865636B20796F757220636F6E0D
:104018006E656374696F6E73005374617274696E50
:10402800672E2E2E006F626A65742074726F757623
:10403800C3A90049324320636F6C6F722073656EA9
:10404800736572206572726F72203A000800620010
:10405800434F554C4555523A2052200020473A20AC
:104068000020423A2000464F554E44204C494E45C8
:104078000044656D6920746F7572207375722070C5
:104088006C616365203A002073757220005761697E
:1040980074696E6720666F7220537472696E670068
:1040A80050454E44494E4720424C5545544F4F5475
:1040B800482044415441005265636569766564202F
:1040C8004F4E00706F735F783A2000706F735F799E
:1040D8003A200044524956494E470053706565647A
:1040E8003A204C4546543A20002052494748543A11
:1040F80020004D5553494300464F4F440053544FF9
:10410800505F52414E445F505552520053544F50E5
:1041180050494E472052414E444F4D20505552521F
:10412800494E470045584954494E4720424C554549
:10413800544F4F544800493243206465766963659B
:1041480020666F756E6420617420616464726573A3
:1041580073203078000D0A00556E6B6E6F776E20F5
:104168006572726F72206174206164647265737322
:104178002030780053656E742053544F50206D756D
:1041880073696320726571756573743A2000630002
:1041980053656E74206D75736963203078300049FB
:1041A8006E76616C696420736572766F206964212C
:1041B80000536572766F20616E676C6520697320A5
:1041C8006F7574206F662072616E676521006E617D
:1041D8006E00696E66006F76660044697374616E7E
:1041E8006365206F62737461636C65203A20000018
:00000001FF
