:100000000C94B2010C94E3010C94E3010C94E30111
:100010000C94E3010C94E3010C94E3010C94E301D0
:100020000C94E3010C94450E0C94450E0C94450E73
:100030000C94E3010C9473040C94E3010C94E3011D
:100040000C94E3010C9471080C94E3010C94E3010B
:100050000C94E3010C94E3010C94E3010C94CC0F99
:100060000C94E3010C94E2050C94B8050C94E301A4
:100070000C94E3010C94E3010C94E3010C94E30170
:100080000C94E3010C94E3010C94E3010C94E30160
:100090000C94E3010C94E3010C94E3010C94190912
:1000A0000C94E3010C94E3010C94E3010C94E30140
:1000B0000C94E3010C94E3010C94E3010C940C0602
:1000C0000C94E3010C94E3010C94E3010C948E0571
:1000D0000C9464050C94E3010C943A050C941005FF
:1000E0000C94E3012B07300735073F074907C20788
:1000F00053075B0763076D077707810790079A0728
:10010000C207A407AE07B8076A0D6D0D5C0D600D40
:10011000660DA40D710D750D7B0D7F0D830D890D81
:100120008D0D910DA40D970D9B0D9F0D0C941F022D
:100130000C94B8070C94970D0C943F070C948D0DFC
:100140000C949A070C94E5010C94C2070C943302AA
:100150000C94DA020C9435070C949B0D0C945E03FE
:100160000C947F0D0C94600D0C94E8030C946307C1
:100170000C94750D0C9461030C948C030C94910DEC
:100180000C9490070C94AE070C9430070C948403E5
:100190000C9460030C94D4140C94A4070C94810761
:1001A0000C947B0D0C945C0D0C945B070C946D0D02
:1001B0000C94A40D0C9410020C948D020C9441022A
:1001C0000C946A0D0C942B070C94660D0C94710D15
:1001D0000C94830D0C949F0D0C94DA140C94890DDF
:1001E0000C9453070C94B9030C94E6010C9470031F
:1001F0000C94ED030C9449070C945F030C9477075F
:100200000C946D074E414E494E495459494E46CDC6
:10021000CCCC3D0AD7233C17B7D13877CC2B3295BD
:1002200095E6241FB14F0A000020410000C842009B
:10023000401C4620BCBE4CCA1B0E5AAEC59D740263
:1002400000002100240027002A002D003000330088
:1002500001010000040107010A010000220025003D
:1002600028002B002E00310034000201000005019F
:1002700008010B01000020002300260029002C00AB
:100280002F003200000100000301060109010505ED
:100290000505070508080808020202020A0A0808FC
:1002A000040404040101010101010101030303032A
:1002B00003030303040707070C0C0C0C0C0C0C0CB9
:1002C0000202020206060606060606060B0B0B0BCA
:1002D0000B0B0B0B010210202008081020401020EF
:1002E00040800201020108040201010204081020FA
:1002F00040808040201008040201800402018040F8
:100300002010080402010804020101020408102060
:100310004080010204081020408000000A0B0209FE
:100320000C0D0E080703040100000000000000008F
:1003300000000000000000000000000000000000BD
:10034000000000000000121110000000000000007A
:10035000000000000000000000000000000000009D
:10036000DA14D41411241FBECFEFD1E2DEBFCDBF0B
:1003700000E00CBF13E0A0E0B2E0ECE6FBE300E03D
:100380000BBF02C007900D92AE33B107D9F728E03A
:10039000AEE3B3E001C01D92A032B207E1F711E075
:1003A000C1EBD1E000E006C021970109802FFE01DA
:1003B0000E94591AC03BD10780E00807A9F70E94A4
:1003C00016100C94A41D0C9400000895CF92DF9297
:1003D000EF92FF920F931F93CF93DF936C017A01FB
:1003E0008B01C0E0D0E0CE15DF0581F0D8016D9122
:1003F0008D01D601ED91FC910190F081E02DC601B7
:100400001995892B11F02196EECF7E01C701DF915E
:10041000CF911F910F91FF90EF90DF90CF900895B3
:10042000FC01538D448D252F30E0842F90E0821BFA
:10043000930B541710F0CF96089501970895FC017F
:10044000918D828D981761F0828DDF01A80FB11D0B
:100450005D968C91928D9F5F9F73928F90E008952F
:100460008FEF9FEF0895FC01918D828D981731F0E9
:10047000828DE80FF11D858D90E008958FEF9FEF3D
:100480000895FC01918D228D892F90E0805C9F4F13
:10049000821B91098F73992708958FEC93E00E9436
:1004A000410221E0892B09F420E0822F08958CE697
:1004B00094E00E94410221E0892B09F420E0822F80
:1004C000089589E095E00E94410221E0892B09F41A
:1004D00020E0822F0895FC01848DDF01A80FB11D5B
:1004E000A35ABF4F2C91848D90E001968F7399276A
:1004F000848FA689B7892C93A089B1898C91837048
:1005000080648C93938D848D981306C00288F38940
:10051000E02D80818F7D80830895EF92FF920F936D
:100520001F93CF93DF93EC0181E0888F9B8D8C8D9F
:10053000981305C0E889F989808185FD26C0F62ECB
:100540000B8D10E00F5F1F4F0F731127E02E8C8D66
:10055000E8120CC00FB607FCFACFE889F989808150
:1005600085FFF5CFCE010E946B02F1CF8B8DFE018E
:10057000E80FF11DE35AFF4FF0829FB7F8940B8FFD
:10058000EA89FB89808180620AC09FB7F894EE896E
:10059000FF896083E889F989808183708064808322
:1005A0009FBF81E090E0DF91CF911F910F91FF906D
:1005B000EF900895CF93DF93EC01888D8823C9F0E5
:1005C000EA89FB89808185FD05C0A889B9898C915C
:1005D00086FD0FC00FB607FCF5CF808185FFF2CFF7
:1005E000A889B9898C9185FFEDCFCE010E946B025D
:1005F000E7CFDF91CF910895E0E0F0E0199480E03B
:1006000090E0892B21F00E946102811119C080E0E5
:1006100090E0892B41F080E090E0892B21F00E944E
:100620000000811110C00E94570281110FC080E0AC
:1006300090E0892B81F00E944D0281110AC008953B
:100640000E940000E4CF0E940000EDCF0E94FC0257
:10065000EECF0C940000089585ED8093BC0080914E
:10066000BC0084FDFCCF1092EC0708954091A003DC
:10067000262F30E0240F311D21323105DCF420918A
:10068000EC072430C9F4FC0180E090E0861758F4B0
:100690003091A0032191DC01A258BC4FA30FB11DE2
:1006A0002C930196F3CF8091A003680F6093A00371
:1006B00080E0089581E0089582E008950895089506
:1006C0000895E091EE078091ED07E81730F4F0E02F
:1006D000E151F84F808190E008958FEF9FEF0895EA
:1006E0009091EE078091ED07981750F4E92FF0E014
:1006F000E151F84F208130E09F5F9093EE0702C0F8
:100700002FEF3FEFC90108958091ED0790E0209110
:10071000EE07821B91090895CF92DF92EF92FF922C
:100720000F931F93CF93DF937C01CB018A0120911C
:10073000CE03222389F0EB016B01C40ED51ECC152C
:10074000DD0569F06991D701ED91FC910190F0818F
:10075000E02DC7011995F3CF642F0E943603C8011D
:10076000DF91CF911F910F91FF90EF90DF90CF908D
:100770000895CF93DF931F92CDB7DEB769832091A1
:10078000CE032223D1F02091CB03203240F021E090
:1007900030E0FC013383228380E090E015C080913B
:1007A000CC03E82FF0E0E25AFC4F998190838F5FF1
:1007B0008093CC038093CB0305C061E0CE0101960A
:1007C0000E94360381E090E00F90DF91CF91089571
:1007D00080E090E008950E94861D0F931F93CF93B1
:1007E000DF938C01C62FD62FD07FD1606D2F0E9452
:1007F000030E6D2FC8010E94170E80E1C89FB00143
:100800001124C62FC1606C2FC8010E94030E6C2FEB
:10081000C8010E94170E81E090E0DF91CF911F91F7
:100820000F9108950F931F93CF93DF938C01EB01EA
:10083000FC0180819181009739F06881798161158F
:100840007105A1F40E94181C88819981F801918397
:1008500080838A819B81938382838C819D81958310
:100860008483198218821B821A820FC0F801428188
:1008700053812C813D814217530720F30E949D1D17
:100880008C819D81F801958384831D821C82DF9178
:10089000CF911F910F9108950F931F93CF93DF93E3
:1008A000EC0188819981009729F02A813B812617E4
:1008B000370788F48B016F5F7F4F0E94A11C009760
:1008C00061F0998388831B830A832C813D81232BCC
:1008D00011F4FC01108281E001C080E0DF91CF9132
:1008E0001F910F9108951F920F920FB60F9211242E
:1008F0000BB60F922F933F934F935F936F937F931A
:100900008F939F93AF93BF93EF93FF938091C70310
:100910009091C803A091C903B091CA03892B8A2B77
:100920008B2B49F19091C603809100008927809319
:1009300000008091C7039091C803A091C903B091B2
:10094000CA03181619061A061B060CF056C0809129
:10095000C7039091C803A091C903B091CA0301973E
:10096000A109B1098093C7039093C803A093C90359
:10097000B093CA0342C080910002EFE3F2E0E49139
:100980009FEF90930002E230C9F050F4EE2399F00B
:10099000E13081F590916F009D7F90936F002AC0A8
:1009A000E43019F1E0F0E53029F5909173009D7F76
:1009B000909373001FC010926E001CC09091700045
:1009C0009D7F9093700091E09093B0009091B10062
:1009D000987F94609093B1001092B3000BC09091F7
:1009E00071009D7F9093710005C0909172009D7F72
:1009F0009093720060E00E94780EFF91EF91BF919A
:100A0000AF919F918F917F916F915F914F913F91A6
:100A10002F910F900BBE0F900FBE0F901F90189547
:100A20001F920F920FB60F9211240BB60F922F93B5
:100A30003F934F935F936F937F938F939F93AF9366
:100A4000BF93EF93FF938FEC93E00E946B02FF91B3
:100A5000EF91BF91AF919F918F917F916F915F9136
:100A60004F913F912F910F900BBE0F900FBE0F90A3
:100A70001F9018951F920F920FB60F9211240BB66C
:100A80000F922F933F934F935F936F937F938F9327
:100A90009F93AF93BF93EF93FF938FEC93E00E94EC
:100AA0002C0EFF91EF91BF91AF919F918F917F910C
:100AB0006F915F914F913F912F910F900BBE0F90CF
:100AC0000FBE0F901F9018951F920F920FB60F92A6
:100AD00011240BB60F922F933F934F935F936F9315
:100AE0007F938F939F93AF93BF93EF93FF938CE686
:100AF00094E00E946B02FF91EF91BF91AF919F91A3
:100B00008F917F916F915F914F913F912F910F90B6
:100B10000BBE0F900FBE0F901F9018951F920F9253
:100B20000FB60F9211240BB60F922F933F934F9352
:100B30005F936F937F938F939F93AF93BF93EF9345
:100B4000FF938CE694E00E942C0EFF91EF91BF91F1
:100B5000AF919F918F917F916F915F914F913F9155
:100B60002F910F900BBE0F900FBE0F901F901895F6
:100B70001F920F920FB60F9211240BB60F922F9364
:100B80003F934F935F936F937F938F939F93AF9315
:100B9000BF93EF93FF9389E095E00E946B02FF9172
:100BA000EF91BF91AF919F918F917F916F915F91E5
:100BB0004F913F912F910F900BBE0F900FBE0F9052
:100BC0001F9018951F920F920FB60F9211240BB61B
:100BD0000F922F933F934F935F936F937F938F93D6
:100BE0009F93AF93BF93EF93FF9389E095E00E94AB
:100BF0002C0EFF91EF91BF91AF919F918F917F91BB
:100C00006F915F914F913F912F910F900BBE0F907D
:100C10000FBE0F901F9018951F920F920FB60F9254
:100C200011240BB60F922F933F934F935F936F93C3
:100C30007F938F939F93AF93BF93EF93FF93809195
:100C4000A7050E944F0E2091AB053091AC052F5F98
:100C50003F4F3093AC052093AB059091AA05953694
:100C600018F096E09093A6059091A6059430C9F1EE
:100C700028F4923069F09330D1F05EC0953009F4D9
:100C800051C0963009F058C091E09093770651C05A
:100C9000811152C02091AB053091AC05243631054D
:100CA00008F442C0109277061092AA051CC0813049
:100CB00009F042C0E091AA0591E09E0F9093AA0529
:100CC000F0E02091AB053091AC05EE0FFF1FEA5527
:100CD000FA4F308727831092AC051092AB0594E051
:100CE00029C0811117C0E091AA0591E09E0F909351
:100CF000AA05F0E02091AB053091AC05EE0FFF1F87
:100D0000EA55FA4F308727831092AC051092AB0555
:100D100093E010C02091AB053091AC05253631052C
:100D200058F007C0811108C01092AC051092AB05B5
:100D300003C095E09093A6059091A9059923B9F079
:100D400081110AC08091A805882321F08091A8050F
:100D500061E009C02F9A0BC08091A805882331F06B
:100D60008091A80560E00E94780E01C02F98FF9145
:100D7000EF91BF91AF919F918F917F916F915F9113
:100D80004F913F912F910F900BBE0F900FBE0F9080
:100D90001F9018958F929F92AF92BF92CF92DF9241
:100DA000EF92FF920F931F93CF93DF938C016A0111
:100DB0007B0120E030E04FE753E4C701B6010E9419
:100DC00029194B015C0120E030E0A9010E94761B4B
:100DD00018161CF4C501B40103C0C501B401905834
:100DE0000E94401BEB0120E030E0A901C701B601E1
:100DF0000E94761B181614F460E001C061E0F8014F
:100E000081810E94780ECF3FD10509F014F4DD27CF
:100E100002C0CFEFD0E0F801108161E0812F0E9485
:100E2000A70E209709F4B1C0CF3FD10509F4AFC098
:100E3000E12FF0E0E65EFC4FE4918E2F90E0FC01A4
:100E40003197E231F10508F09DC08827EE58FF4F39
:100E50008F4F0C94591A84B5806884BDC7BDA7C054
:100E600084B5806284BDC8BDA2C0809180008068C6
:100E700080938000D0938900C093880098C08091AF
:100E80008000806280938000D0938B00C0938A00A2
:100E90008EC080918000886080938000D0938D0008
:100EA000C0938C0084C08091B00080688093B000B3
:100EB000C093B3007CC08091B00080628093B0008A
:100EC000C093B40074C080919000806880939000BB
:100ED000D0939900C09398006AC08091900080627E
:100EE00080939000D0939B00C0939A0060C0809143
:100EF0009000886080939000D0939D00C0939C00E8
:100F000056C08091A00080688093A0008091A000CE
:100F10008F7B8093A000D093A900C093A80047C006
:100F20008091A00080628093A000D093AB00C0931A
:100F3000AA003DC08091A00088608093A000D0935B
:100F4000AD00C093AC0033C08091200180688093D5
:100F50002001D0932901C093280129C0809120014C
:100F6000806280932001D0932B01C0932A011FC07F
:100F700080912001886080932001D0932D01C0933F
:100F80002C0115C0C038D10514F460E001C061E047
:100F9000812FDF91CF911F910F91FF90EF90DF9004
:100FA000CF90BF90AF909F908F900C94780EDF9170
:100FB000CF911F910F91FF90EF90DF90CF90BF9056
:100FC000AF909F908F9008958EBD00000DB407FEE6
:100FD000FDCF8EB50895CF93DF93EC0160E088815B
:100FE0000E94780E88E90E94E40780E00E94E407EE
:100FF00080E00E94E40780E00E94E40780E00E9415
:10100000E40761E088810E94780E8BE891E0019707
:10101000F1F760E088810E94780E80EE0E94E4077C
:1010200061E08881DF91CF910C94780E1F93CF936C
:10103000DF93EC01162F88818C3008F04DC061E001
:10104000812F0E94A70EE88195E09E9FF001112458
:10105000E858F94F1F738081807C182B108313820E
:10106000E8819E9FF0011124E858F94F148288818D
:101070006CE00E944D1A9CE0899FA001112420E0A1
:1010800030E095E0BA01620F731F969FF001979FC1
:10109000F00D1124E858F94F608166FD13C02F5FF1
:1010A0003F4F2C30310571F781110CC01092800038
:1010B00082E080938100109285001092840086BBAC
:1010C00080936F00E88185E0E89FF0011124E858E3
:1010D000F94F8081806480838881DF91CF911F9157
:1010E00008951F920F920FB60F9211240BB60F9214
:1010F0002F933F934F935F936F937F938F939F9320
:10110000AF93BF93EF93FF938091C50387FF05C013
:10111000109285001092840016C02091C503022E03
:10112000000C330B8091B40690E0281739075CF46B
:101130003091C50325E03203F0011124E858F94F3E
:10114000808186FD15C08091C5038F5F8093C503A4
:101150002091C503022E000C330B8091B40690E061
:101160002817390794F48091C5038C302CF10DC0F9
:101170003091C5033203F0011124E858F94F808102
:1011800060E08F730E94780EDECF80918400909192
:10119000850084349C4918F480E49CE905C0809162
:1011A0008400909185000496909389008093880034
:1011B0008FEF8093C5032AC0409184005091850031
:1011C0003091C50325E03203F0011124E858F94FAE
:1011D00081819281840F951F90938900809388006C
:1011E0003091C5033203F0011124E858F94F808192
:1011F00086FF0CC03091C5033203F0011124E8587A
:10120000F94F808161E08F730E94780EFF91EF911A
:10121000BF91AF919F918F917F916F915F914F910E
:101220003F912F910F900BBE0F900FBE0F901F900C
:1012300018951F920F920FB60F9211240BB60F92B2
:101240002F933F934F935F936F937F938F939F93CE
:10125000AF93BF93EF93FF938091B900887F80365F
:1012600009F49CC068F5883209F45BC090F48031C1
:1012700009F454C038F4882309F4F6C0883009F41E
:101280004DC0F6C0883109F44CC0803209F45DC00D
:10129000EFC0803409F468C048F4803309F455C0C5
:1012A000883309F0E5C08093EA07D8C0803509F497
:1012B0004FC0883509F45DC0883409F0D9C0D6C064
:1012C000883909F4C7C0A8F4883709F467C038F42E
:1012D000883609F463C0803709F460C0C9C0883813
:1012E00009F4B8C0803909F45FC0803809F0C0C083
:1012F0005BC0803B09F486C038F4803A09F466C0CC
:10130000883A09F47FC0B4C0803C09F4A7C0883C87
:1013100009F4A4C0883B09F48AC0AAC08091E707F9
:1013200010C09091E9078091E807981770F5E09157
:10133000E90781E08E0F8093E907F0E0EA53F84F68
:1013400080818093BB0085EC86C08093EA078EC0C5
:10135000E091E90781E08E0F8093E9078091BB005F
:10136000F0E0EA53F84F80839091E9078091E80715
:101370006EC0E091E90781E08E0F8093E9078091CC
:10138000BB00F0E0EA53F84F80838091EB078111B6
:101390006DC081E08093E60784EA61C083E08093BA
:1013A000EC071092C403CFCF8091C403803208F0C1
:1013B00051C0E091C40381E08E0F8093C4038091FB
:1013C000BB00F0E0EC55FC4F8083BDCF85EC8093F3
:1013D000BC001092EC078091C403803230F4E0919D
:1013E000C403F0E0EC55FC4F10826091C40370E040
:1013F000E091A203F091A30384EA93E0199510927F
:10140000C40336C084E08093EC071092A1031092CD
:10141000A003E0919E03F0919F0319958091A00392
:10142000811105C081E08093A00310927E03E091BA
:10143000A10381E08E0F8093A103F0E0E258FC4FFE
:1014400080818093BB009091A1038091A0039817A5
:1014500008F479CF85E88093BC000AC085EC8093BE
:10146000BC001092EC0704C01092EA070E942C0303
:10147000FF91EF91BF91AF919F918F917F916F916C
:101480005F914F913F912F910F900BBE0F900FBE28
:101490000F901F9018953091CB03313208F04BC05C
:1014A0008091EC078111FCCF9091CD0322E0209335
:1014B000EC0721E02093EB072FEF2093EA0710922F
:1014C000E9073093E807EEE5F3E0A6ECB7E020E0AB
:1014D000321721F041914D932F5FFACF1092E70719
:1014E0002091E707990F922B9093E7079091E607D9
:1014F000913061F41092E6079091E7079093BB005A
:101500009091BC0093FDF8CF95EC01C095EE9093BF
:10151000BC009091EC079230E1F39091EA079F3F75
:1015200079F08091EA07803241F08091EA078033B8
:1015300031F084E005C081E003C082E001C083E0B7
:101540001092CC031092CB031092CE030895109208
:10155000EE071092ED071092CC031092CB0310927D
:10156000EC0781E08093EB071092E60761E084E1ED
:101570000E94780E61E085E10E94780EE9EBF0E0D0
:1015800080818E7F808380818D7F808388E48093BB
:10159000B80085E48093BC008EE593E090939F03B0
:1015A00080939E038FE593E09093A3038093A2031F
:1015B00008950F931F930E94C00F6093740470935B
:1015C000750480937604909377048CE694E00E94EF
:1015D0001F0297FF1FC00E94C00F0091740410915A
:1015E00075042091760430917704DC01CB01801BD7
:1015F000910BA20BB30B0091700410917104209118
:1016000072043091730480179107A207B307E8F2C0
:101610008FEF9FEF1F910F9108950F931F93CF931B
:10162000DF93EC018B010E944C04288139818111E8
:101630000DC02115310519F0C9010E94181C19822D
:1016400018821D821C821B821A8207C01D830C8394
:1016500061EE72E0C9010E949D1DCE01DF91CF9124
:101660001F910F910895CF92DF92EF92FF92CF9347
:10167000DF93EC016A017B01E889F98982E08083CC
:101680004115514E61057105B1F060E079E08DE3DF
:1016900090E0A70196010E941C1ADA01C901019786
:1016A000A109B109B695A795979587959C01211534
:1016B00080E13807A8F0E889F989108260E874E8C9
:1016C0008EE190E0A70196010E941C1ADA01C9017F
:1016D0000197A109B109B695A795979587959C01A2
:1016E000EC85FD853083EE85FF852083188EEC899F
:1016F000FD8986E08083EA89FB898081806180831F
:10170000EA89FB89808188608083EA89FB898081FE
:1017100080688083EA89FB8980818F7D8083DF9167
:10172000CF91FF90EF90DF90CF900895682F83EFD7
:1017300096E00C94B9036115710551F0FB0101901D
:101740000020E9F73197AF01461B570B0C94E601D7
:1017500080E090E008950C949B0B0F931F93CF9320
:10176000DF93EC010E949B0B8C016FED72E0CE01C8
:101770000E949B0B800F911FDF91CF911F910F91C2
:1017800008958F929F92AF92BF92EF92FF920F9324
:101790001F93CF93DF93CDB7DEB7A1970FB6F89421
:1017A000DEBF0FBECDBF7C01FA01CB0119A22230F2
:1017B00008F42AE08E010F5D1F4F822E912CA12C80
:1017C000B12CBF01A50194010E941C1AF901CA01A4
:1017D000015011096A3014F4605D01C0695CD801E0
:1017E0006C93232B242B252B61F7B801C7010E9492
:1017F0009B0BA1960FB6F894DEBF0FBECDBFDF9155
:10180000CF911F910F91FF90EF90BF90AF909F905D
:101810008F9008957F928F929F92AF92BF92CF92B6
:10182000DF92EF92FF920F931F93CF93DF938C0180
:101830006A017B01722E9A01AB01C701B6010E94B9
:101840007B1B882319F062E373E027C04601570130
:10185000E894B7F82FEF3FEF4FE75FE7C501B4011A
:101860000E947B1B81110DC02FEF3FEF4FE75FE719
:10187000C501B4010E94C31818161CF466E373E096
:101880000CC02FEF3FEF4FE75FE4C701B6010E94A6
:10189000761B181694F46AE373E0C801DF91CF91C8
:1018A0001F910F91FF90EF90DF90CF90BF90AF907E
:1018B0009F908F907F900C949B0B2FEF3FEF4FE703
:1018C0005FECC701B6010E94C31887FDE4CF20E09A
:1018D00030E0A901C701B6010E94C31887FF0AC002
:1018E0006DE2C8010E948D02EC01F7FAF094F7F85E
:1018F000F09402C0C0E0D0E0B12C60E070E080E085
:101900009FE37B1441F020E030E040E251E40E948C
:10191000CE1AB394F6CFA70196010E94621A6B010A
:101920007C010E94471B4B015C012AE0AB01BC011A
:10193000C8010E94C10BC80FD91F7720C1F1C50192
:10194000B4010E94C8189B01AC01C701B6010E94F6
:10195000611A6B017C016EE2C8010E948D02C80F02
:10196000D91F20E030E040E251E4C701B6010E94F7
:1019700029194B015C010E94471B6B01E12CF12CE2
:101980002AE0B701A601C8010E94C10BC80FD91FE8
:10199000C701B6010E94C8189B01AC01C501B40182
:1019A0000E94611A6B017C017A947110DACFCE012A
:1019B000DF91CF911F910F91FF90EF90DF90CF902B
:1019C000BF90AF909F908F907F900895CF92DF92BD
:1019D000EF92FF920F931F93CF93DF931F921F926B
:1019E000CDB7DEB78C01C62EFC01118210821382A6
:1019F00012821582148260E070E00E940D0B0E943A
:101A0000D90A0C2C000CDD0897FD23C08C159D0510
:101A100001F189831A82F801E480F580FFEFEF1A63
:101A2000FF0AB701C8010E944C04882379F0F8012D
:101A30002081318184819581BE016F5F7F4F820F4C
:101A4000931F0E949D1DF801F582E4820E94D90A2D
:101A5000DBCFC8010F900F90DF91CF911F910F91B5
:101A6000FF90EF90DF90CF900895CF93C42F91E037
:101A70009093CE0399E29093CD031092CC031092F1
:101A8000CB03806890E00E94960B6C2F83EF96E06A
:101A90000E94B90383EF96E0CF910C944B0A90E03B
:101AA000FC013197E231F10508F04EC08827EC5770
:101AB000FF4F8F4F0C94591A809180008F7703C08D
:101AC000809180008F7D80938000089580918000B8
:101AD000877FF9CF84B58F7702C084B58F7D84BDB1
:101AE00008958091B0008F7703C08091B0008F7D02
:101AF0008093B0000895809190008F7707C0809107
:101B000090008F7D03C080919000877F809390002C
:101B100008958091A0008F7707C08091A0008F7DED
:101B200003C08091A000877F8093A00008958091DA
:101B300020018F7707C0809120018F7D03C08091A5
:101B40002001877F8093200108953FB7F89480910A
:101B5000140890911508A0911608B091170826B5A1
:101B6000A89B05C02F3F19F00196A11DB11D3FBFD5
:101B7000BA2FA92F982F8827820F911DA11DB11D63
:101B8000BC01CD0142E0660F771F881F991F4A955F
:101B9000D1F708950F931F93CF93DF93162F072F3D
:101BA000CCEBD6E09C8521E02093CE039093CD032F
:101BB0001092CC031092CB03AA85BB85ED91FC91CA
:101BC00011970190F081E02D682FCD0119958A853C
:101BD0009B85DC01ED91FC910190F081E02D602F5F
:101BE00019958A859B85DC01ED91FC910190F0812E
:101BF000E02D612F19958A859B85DF91CF911F91EB
:101C00000F910C944B0AFC01848191E09093CE03D8
:101C10008093CD031092CC031092CB038485862B46
:101C200090E00E94960B83EF96E00C944B0A0F9382
:101C30001F93CF938C01C62F64600E94030E6C2FFC
:101C40006B7FC8010E94030E83EC90E00197F1F7CF
:101C5000CF911F910F910895FC01A089B1898C91BA
:101C6000A689B78982FD0FC09C91818D8F5F8F738C
:101C7000228D821749F0218DDF01A20FB11D5D96E3
:101C80009C93818F08958C9108951F920F920FB6A7
:101C90000F9211240F900FBE0F901F901895CF93A5
:101CA000DF93282F30E0F901E65EFC4F8491F901C3
:101CB000EC52FD4FD491F901E257FD4FC491CC2372
:101CC00091F081110E944F0DEC2FF0E0EE0FFF1FFD
:101CD000EC58FD4FA591B491EC91ED2381E090E09B
:101CE00021F480E002C080E090E0DF91CF91089580
:101CF0001F93CF93DF93282F30E0F901E65EFC4F6E
:101D00008491F901EC52FD4FD491F901E257FD4F56
:101D1000C491CC23C1F0162F81110E944F0DEC2FDE
:101D2000F0E0EE0FFF1FE65AFD4FA591B4919FB76B
:101D3000F894111104C08C91D095D82302C0EC9175
:101D4000DE2BDC939FBFDF91CF911F910895CF933E
:101D5000DF9390E0FC01EC52FD4F2491FC01E2572F
:101D6000FD4F8491882361F190E0880F991FFC0159
:101D7000E05CFD4FC591D491FC01E65AFD4FA59161
:101D8000B491611109C09FB7F8948881209582238E
:101D90008883EC912E230BC0623061F49FB7F894D6
:101DA0008881322F309583238883EC912E2B2C93BE
:101DB0009FBF06C08FB7F894E8812E2B28838FBF72
:101DC000DF91CF9108958F929F92AF92BF92CF9261
:101DD000DF92EF92FF926B017C010E94A50D4B01F7
:101DE0005C01C114D104E104F104F1F00E94A50DDD
:101DF000DC01CB0188199909AA09BB09883E9340E7
:101E0000A105B10570F321E0C21AD108E108F1087B
:101E100088EE880E83E0981EA11CB11CC114D10469
:101E2000E104F10419F7DDCFFF90EF90DF90CF9040
:101E3000BF90AF909F908F900895CF93DF9383EFE3
:101E400096E00E94A70A81E08093CE0389E2809306
:101E5000CD031092CC031092CB0382E990E00E9454
:101E6000960B83EF96E00E944B0A8091EC0781115C
:101E7000FCCF81E08093EC078093EB079FEF90937A
:101E8000EA071092E9071092E8078093E70780912C
:101E9000E70782658093E7078091E607813061F468
:101EA0001092E6078091E7078093BB008091BC0009
:101EB00083FDF8CF85EC01C085EE8093BC00809156
:101EC000EC078130E1F38091E907811103C0909123
:101ED000E90701C091E0E6ECF7E0AFEEB7E080E0A3
:101EE000891721F021912D938F5FFACF1092EE0781
:101EF0008093ED0783EF96E00E947003843411F025
:101F00008031D1F581E08093FF06C0910207D09126
:101F10000307AE0160E070E00E94350DD093030727
:101F2000C0930207C0910007D09101078091FF067E
:101F3000811102C00E941D0FAE0160E070E08FE0D1
:101F40000E94350DD0930107C093000741E050E097
:101F500060E070E080E00E94350D63E070E080E0BA
:101F600090E00E94E30E43E050E060E070E080E02B
:101F70000E94350D81E001C080E0DF91CF9108958E
:101F80002FB7F89460911008709111088091120891
:101F9000909113082FBF08951F920F920FB60F92C2
:101FA00011242F933F938F939F93AF93BF9380916F
:101FB000100890911108A0911208B0911308309167
:101FC0000F0823E0230F2D3720F40196A11DB11D2A
:101FD00005C026E8230F0296A11DB11D20930F080E
:101FE0008093100890931108A0931208B0931308DF
:101FF0008091140890911508A0911608B0911708C7
:102000000196A11DB11D8093140890931508A0930B
:102010001608B0931708BF91AF919F918F913F9190
:102020002F910F900FBE0F901F901895CF93DF93B5
:10203000CDB7DEB7A5970FB6F894DEBF0FBECDBF04
:10204000789484B5826084BD84B5816084BD85B593
:10205000826085BD85B5816085BD80916E0081609F
:1020600080936E0010928100809181008260809345
:102070008100809181008160809381008091800047
:102080008160809380008091B10084608093B10072
:102090008091B00081608093B00080919100826057
:1020A0008093910080919100816080939100809154
:1020B00090008160809390008091A1008260809365
:1020C000A1008091A10081608093A1008091A00077
:1020D00081608093A0008091210182608093210122
:1020E0008091210181608093210180912001816094
:1020F0008093200180917A00846080937A0080919F
:102100007A00826080937A0080917A008160809367
:102110007A0080917A00806880937A001092C100E2
:1021200040E855E260E070E089E095E00E94330B02
:1021300061E08091BD060E94A70E60E08091BD061F
:102140000E94780E60E08091BC060E94A70E83EF8B
:1021500096E09093C7068093C6060E94A70A80E087
:1021600090E1A0E0B0E08093C9069093CA06A093E6
:10217000CB06B093CC068AE090E0A0E0B0E080937C
:10218000CD069093CE06A093CF06B093D00680E004
:1021900090E0A0E0B0E48093D1069093D206A093A3
:1021A000D306B093D40660E070E185E00E94CA0DCA
:1021B0006FE979E380E00E94CA0D0CEB16E078012C
:1021C000512CB3EC6B2EB2E07B2E89E0882E83E09D
:1021D000982E9BECC92E97E0D92EF701948182812D
:1021E000F801818F928F61E00E94A70E61E0F801F3
:1021F000828D0E94A70EF701908586815801FDE12E
:10220000AF0EB11CF801858F968F61E00E94A70E7A
:1022100060E0F801868D0E94A70E61E0F801858DCF
:102220000E94780E4FB6F89480913E03811126C02B
:10223000F3018491F4012491E82FF0E0EE0FFF1FE9
:10224000E05CFD4FA591B4919C91822F892321F4EC
:1022500061E085E30E94780E61E085E30E94A70EAD
:102260008CB580618CBD8CB580648CBD61E084E3ED
:102270000E94A70E61E083E30E94A70E80913E03B7
:102280008F5F80933E034FBEC6010197F1F760E078
:10229000F801858D0E94780E88E80E94E40783E0AB
:1022A0000E94E40761E0F801858D0E94780EC60166
:1022B0000197F1F7C5010E94EB075394FFEFEF1A66
:1022C000FF0A0E5F1F4F22E0521287CFE1EEEE2E83
:1022D000E6E0FE2E05EE16E060E0F70181917F0159
:1022E0000E94A70E0E151F05B9F76DEDE62E66E0EC
:1022F000F62E77EEA72E76E0B72E6801FFEFCF1A05
:10230000DF0AF801608170E0C80108960E94160893
:10231000F60195818381F701828B938B60E00E94A7
:10232000A70E61E0F70183890E94A70E60E0F70124
:1023300083890E94780EF2E0EF0EF11C8601AC1446
:10234000BD04D9F6F8941092200189E08093210110
:1023500080E293E090932901809328011092250157
:102360001092240182E08093730078948093A605F4
:102370001092AA058091A70560E00E94A70E40E890
:1023800055E260E070E089E095E00E94330B6091D7
:10239000E50670E08DEE96E00E9416088091E70653
:1023A000893220F48091E806883238F463E472E0E0
:1023B00089E095E00E94AD0B4AC00091ED060C301B
:1023C00008F045C025E0029F800111240858194FEC
:1023D000F801838128E830E06901C81AD10887FD37
:1023E000D394CC0CDD1CCC0CDD1C0D2C000CEE08A9
:1023F000FF08848128E532E0281B310987FD3395E9
:10240000220F331F220F331FC901330FAA0BBB0B3F
:102410009C01AD012C193D094E095F09A8E2B0E00D
:102420000E94091A24EB30E040E050E00E94EA19D3
:10243000C20ED31EE41EF51EF6E0CF1AD108CC0C56
:10244000DD1C8FB7F894F801D282C1828FBF61E0A2
:1024500082E00E94A70E60E086E30E94A70E60E083
:1024600087E30E94A70E0E941D0F882319F060E6E3
:1024700072E002C06DE672E089E095E00E94AD0B6B
:1024800040E056E960E070E08CE694E00E94330B97
:1024900083EF96E00E94A70A4E01F1E18F0E911C96
:1024A0006AE972E089E095E00E94AB0B80914303FA
:1024B00090914403892B69F48091E1060E944F0EAC
:1024C000892B39F462E370E080E090E00E94E30E33
:1024D000EDCF81E090E090934403809343030E940A
:1024E000EB166B017C010E94EB1622E030E040E02D
:1024F00050E00E94EA196F5F7F4F8F4F9F4F0E94FD
:10250000CA1820E030E040E251E40E94CE1A609305
:102510003F037093400380934103909342036CE226
:1025200073E089E095E00E94AB0B2AE041E050E0C7
:1025300060E070E089E095E00E94C10B6FED72E011
:1025400089E095E00E949B0B40903F035090400330
:10255000609041037090420389ED96E00E94EB0782
:102560008BED96E00E94EB07C701B60123E030E057
:1025700040E050E00E94EA196F5F7F4F2AE0269FFB
:10258000C001279F900D1124BC0180E090E00E94C3
:10259000C81825E83BEA45E053E40E9429190E9447
:1025A000401B5B01B301A20185ED96E00E94CA06C3
:1025B000B301A201705887ED96E00E94CA060E94FE
:1025C000C00F698F7A8F8B8F9C8F0E94C00F6D8F89
:1025D0007E8F8F8F98A3212C312CEE27FF27EA19AD
:1025E000FB09FDA3ECA3910137FE04C0222733278A
:1025F00022193309C501B7FE02C08CA19DA128177D
:1026000039070CF0CEC1898D9A8DAB8DBC8D8C595C
:102610009F4FAF4FBF4FBC01CD012D8D3E8D4F8DD4
:1026200058A1621B730B840B950B0E94E30E0E9452
:10263000C00F698F7A8F8B8F9C8F60E08091D90655
:102640000E94780E80E60E94E4078E010F5F1F4F04
:1026500078010F8B188F80E00E94E40790E0A0E0E3
:10266000B0E0F70181939193A193B1937F018E160E
:102670009F0689F761E08091D9060E94780E80E07C
:1026800090E0DC01F80141915191619171918F01CC
:10269000BA2FA92F982F8827840F951FA61FB71F21
:1026A0008E169F0679F7280E391E20E030E0A9012A
:1026B000C301B2010E94621A20E030E0A9010E9429
:1026C000621A2B013C0120E030E040E85FE30E9409
:1026D000C31887FD06C0412C512C80E8682E8FE37B
:1026E000782EB301A201705887ED96E00E94CA06C9
:1026F0000E94C00F6D8F7E8F8F8F98A319A266EAFC
:1027000072E08CE694E00E94AD0B68EE73E080E02E
:1027100090E00E94E30E8CE694E00E944102892B37
:1027200009F461CF69EB72E089E095E00E94AD0B9E
:102730006BE3C4010E94E60CC988DA88C114D10495
:1027400009F43FC00D891E8901151105D1F17601EB
:1027500097012F5F3F4F3BA32AA3F7018081082EEB
:10276000000C990B0E94A218892B19F0EAA0FBA07B
:10277000EFCF015011090C0D1D1DF8018081082EAD
:10278000000C990B0E94A218892B31F00E151F0521
:1027900018F001501109F1CFA8014F5F5F4F4E199A
:1027A0005F095E8B4D8BCE14DF0420F4B701C601A8
:1027B0000E948B1DE989FA898D899E89E80FF91F8E
:1027C00010828D899E89892B09F4D8C009891A89BC
:1027D00064ED72E0C8010E94941D892B09F09EC02F
:1027E0006BEC72E08CE694E00E94AD0B6BE38F899A
:1027F000988D0E94E60C6F89788DC4010E941204A6
:1028000089819A810E94181C89899A89009729F0E8
:102810000E9442176B017C0103C0C12CD12C7601B0
:1028200067ED72E08CE694E00E94AB0B22E0B7010A
:10283000A6018CE694E00E940A0C6FED72E08CE633
:1028400094E00E949B0B6AE08F89988D0E94E60CB1
:102850006F89788DC4010E94120489819A810E9437
:10286000181C89899A89009729F00E9442176B01E8
:102870007C0103C0C12CD12C760162EE72E08CE6A3
:1028800094E00E94AB0B22E0B701A6018CE694E035
:102890000E940A0C6FED72E08CE694E00E949B0BA4
:1028A0008CE694E00E94DA026AEE72E089E095E03C
:1028B0000E94AD0B62EF72E089E095E00E94AB0BE5
:1028C00022E0B701A60189E095E00E940A0C60E0D1
:1028D00073E089E095E00E94AB0B22E0B701A6010E
:1028E00089E095E00E940A0C2DEC3CEC4CE45EE3A0
:1028F000C701B6010E9429196B017C01AB01BC0123
:1029000085ED96E00E94CA06B701A601705887EDD2
:1029100096E00E94CA06F1E0F9A33BC069E073E0CB
:10292000C8010E94941D892B49F521E02093CE0314
:1029300035E03093CD031092CC031092CB0385E0A9
:1029400090E00E94960B83EF96E00E944B0A182FAE
:102950006FE073E089E095E00E94AB0B412F50E0FF
:1029600060E070E02AE089E095E00E94C10B6FED25
:1029700072E089E095E00E949B0B0BC064E273E07B
:1029800089E095E00E94AD0B89899A890E94181C04
:102990002ACE89899A890E94181C49A14111AFCE7B
:1029A00022CE0E94FF027CCD8091B5069091B606A2
:1029B0000C94181C1092D2031092D10348EE53E0ED
:1029C00060E070E04093D3035093D4036093D50349
:1029D0007093D60387E192E09093D0038093CF0366
:1029E00025E331E03093DC032093DB0324E331E083
:1029F0003093DE032093DD0320E331E03093E003E6
:102A00002093DF0321E331E03093E2032093E103DD
:102A100022E331E03093E4032093E30326E331E043
:102A20003093E6032093E5031092E8031092E90344
:102A30001092EA031092EB0310926F0410926E044E
:102A40004093700450937104609372047093730404
:102A500090936D0480936C0425ED30E030937904FD
:102A60002093780424ED30E030937B0420937A04A3
:102A700020ED30E030937D0420937C0421ED30E0A4
:102A800030937F0420937E0422ED30E03093810464
:102A90002093800426ED30E0309383042093820459
:102AA0001092850410928604109287041092880474
:102AB00010920C0510920B0540930D0550930E05D6
:102AC00060930F057093100590930A058093090594
:102AD00085EC90E0909316058093150584EC90E0CA
:102AE000909318058093170580EC90E090931A0559
:102AF0008093190581EC90E090931C0580931B0551
:102B000082EC90E090931E0580931D0586EC90E08A
:102B10009093200580931F051092220510922305A3
:102B2000109224051092250580910B0290910C02C1
:102B3000A0910D02B0910E028093DD069093DE0607
:102B4000A093DF06B093E00680910F0290911002EF
:102B5000A0911102B09112028093E1069093E206D7
:102B6000A093E306B093E40684E08093E50687E053
:102B70008093E6061092E70684EB8093E80686E1F0
:102B80008093E90688E18093EA0687E18093EB066B
:102B900089E18093EC06E091B406EC3020F08FEFF1
:102BA0008093ED0610C081E08E0F8093B406E09311
:102BB000ED0625E0E29FF0011124E858F94F88EB7B
:102BC0009BE092838183E091B406EC3020F08FEF9C
:102BD0008093EE0610C081E08E0F8093B406E093E0
:102BE000EE0685E0E89FF0011124E858F94F88EBE4
:102BF0009BE0928381838CE08093BC0684E2809387
:102C0000BD0686E08093BE0685E08093BF068FE117
:102C10008093C0068EE18093C10683E28093C20652
:102C200082E28093C30685E48093C40684E48093A3
:102C3000C50680E48093C8061092CD061092CE0699
:102C40001092CF061092D0061092D1061092D206A2
:102C50001092D3061092D406E8E0F7E08FEF9FEFD2
:102C6000DC0112821382148215821682178210866A
:102C7000118683879487A587B6878787908BA18BDA
:102C8000B28B128611821082739627E0E63CF2071F
:102C900041F78DE090E00E94801BFC0113821282BC
:102CA00089E292E091838083118687E2848384E1C4
:102CB000828784E083871486F0930507E0930407F6
:102CC000109206071092070785E28093A7051092DD
:102CD000A9051092B6061092B5061092B806109289
:102CE000B7061092BA061092B90660E070E085EB64
:102CF00096E00E940D0B1092F6061092F50688EEF3
:102D000093E0A0E0B0E08093F7069093F806A093DC
:102D1000F906B093FA0685E392E09093F406809367
:102D2000F3061092FF068BEE90E0909303078093DA
:102D3000020781E090E090930107809300070895D7
:102D40008F929F92AF92BF92CF92DF92EF92FF92BB
:102D5000CF93DF93EC01688179818A819B81611532
:102D600071058105910521F464E279ED8BE597E029
:102D70002DE133EF41E050E00E94EA1949015A0188
:102D80009B01AC01A7EAB1E40E94091A6B017C0126
:102D9000ACEEB4EFA50194010E94171ADC01CB013F
:102DA0008C0D9D1DAE1DBF1DB7FF03C00197A1096E
:102DB000B04888839983AA83BB83BC01CD019F77E8
:102DC000DF91CF91FF90EF90DF90CF90BF90AF90C9
:102DD0009F908F9008958F929F92AF92BF92CF92C3
:102DE000DF92EF92FF926091010270910202809156
:102DF000030290910402611571058105910521F48A
:102E000064E279ED8BE597E02DE133EF41E050E0AE
:102E10000E94EA1949015A019B01AC01A7EAB1E4F9
:102E20000E94091A6B017C01ACEEB4EFA50194017C
:102E30000E94171ADC01CB018C0D9D1DAE1DBF1D1C
:102E4000B7FF03C00197A109B04880930102909396
:102E50000202A0930302B0930402BC01CD019F774C
:102E6000FF90EF90DF90CF90BF90AF909F908F90AA
:102E7000089560930102709302028093030290937D
:102E800004020895662777270C9446178F929F9225
:102E9000AF92BF92CF92DF92EF92FF920F931F9368
:102EA000CF93DF93EC016B016115710519F0FB0104
:102EB000918380837E01FFEFEF1AFF0A0881802F44
:102EC00090E00E94A218892B11F0E701F3CF0D3298
:102ED00039F47E0182E0E80EF11C098111E008C09E
:102EE0000B3229F47E0192E0E90EF11C098110E019
:102EF000E701219743E050E06CE072E0CE010E94D0
:102F0000AB18892BC1F4239645E050E067E072E0EE
:102F1000CE010E94AB18892B09F42596C114D10467
:102F200019F0F601D183C0831111F6C060E070E0A2
:102F300080E89FE7FAC043E050E064E072E0CE0131
:102F40000E94AB18892B59F4C114D10409F4E9C0CB
:102F5000F2E0EF0EF11CF601F182E082E2C020E027
:102F600030E0A901C0E0D0E0F70160EDA62EA00E90
:102F700089E08A1530F1912F9260B92E812F8870E7
:102F800012FF04C0811124C0219622C08111219713
:102F9000A5E0B0E00E94091ADC01CB01880F991F5F
:102FA000AA1FBB1F9C01AD012A0D311D411D511DE2
:102FB000283989E93807480789E1580748F0166039
:102FC00006C09EEFA9120AC013FD40C01860B12EC2
:102FD0008FEFE81AF80A00811B2DC6CF802F8F7D56
:102FE0008534A1F580818D3211F4106106C08B32D9
:102FF00021F0319661E070E004C08181329662E098
:1030000070E080538A3018F0E61BF70B1FC060E0B9
:1030100070E060389CE079075CF4DB01AA0FBB1F0D
:10302000AA0FBB1F6A0F7B1F660F771F680F711DEA
:103030003196DF0111978C9180538A3050F314FF41
:1030400003C0719561957109C60FD71F11FF08C0A4
:10305000C114D10429F0CF010197F6019183808337
:10306000CA01B9010E94C818212F2370233019F01A
:103070004B015C0106C04B015C01B7FAB094B7F894
:10308000B09420E030E0A901C501B4010E94C3184A
:10309000882309F43EC0D7FF06C0D195C195D10958
:1030A00003E212E002C00BE312E06801F8E1CF1A7C
:1030B000D10890E2E92EF12CCE15DF0574F0F8016D
:1030C0002591359145915491C501B4010E9429196A
:1030D0004B015C01CE19DF09EFCF04501109F594C3
:1030E000E7940C151D0541F78A2D880F8B2D881F3D
:1030F0008F3F49F020E030E0A901C501B4010E94F2
:10310000C318811106C082E290E090931B0880935F
:103110001A08C501B40109C060E070E080E89FEFC3
:1031200004C060E070E080EC9FE7DF91CF911F91D9
:103130000F91FF90EF90DF90CF90BF90AF909F9056
:103140008F90089591110C949619803219F089503E
:103150008550C8F70895FB01DC014150504088F0CC
:103160008D9181341CF08B350CF4805E6591613457
:103170001CF06B350CF4605E861B611171F3990BCA
:103180000895881BFCCF0E94051908F481E008957A
:10319000E89409C097FB3EF49095809570956195F1
:1031A0007F4F8F4F9F4F9923A9F0F92F96E9BB27A7
:1031B0009395F695879577956795B795F111F8CF23
:1031C000FAF4BB0F11F460FF1BC06F5F7F4F8F4F8E
:1031D0009F4F16C0882311F096E911C0772321F084
:1031E0009EE8872F762F05C0662371F096E8862F1C
:1031F00070E060E02AF09A95660F771F881FDAF773
:10320000880F9695879597F90895990F0008550F9F
:10321000AA0BE0E8FEEF16161706E807F907C0F05C
:1032200012161306E407F50798F0621B730B840B64
:10323000950B39F40A2661F0232B242B252B21F43E
:1032400008950A2609F4A140A6958FEF811D811DDE
:1032500008950E943C190C94B0190E94A21938F0EC
:103260000E94A91920F0952311F00C9499190C943F
:103270009F1911240C94E4190E94C11970F3959FB1
:10328000C1F3950F50E0551F629FF001729FBB275D
:10329000F00DB11D639FAA27F00DB11DAA1F649FF9
:1032A0006627B00DA11D661F829F2227B00DA11DAC
:1032B000621F739FB00DA11D621F839FA00D611D32
:1032C000221F749F3327A00D611D231F849F600D53
:1032D000211D822F762F6A2F11249F5750409AF07C
:1032E000F1F088234AF0EE0FFF1FBB1F661F771F08
:1032F000881F91505040A9F79E3F510580F00C94D3
:1033000099190C94E4195F3FE4F3983ED4F3869541
:1033100077956795B795F795E7959F5FC1F7FE2B72
:10332000880F911D9695879597F908959927882775
:10333000089597F99F6780E870E060E008959FEF37
:1033400080EC089500240A9416161706180609063C
:10335000089500240A94121613061406050608950B
:10336000092E0394000C11F4882352F0BB0F40F493
:10337000BF2B11F460FF04C06F5F7F4F8F4F9F4FD3
:10338000089557FD9058440F551F59F05F3F71F055
:103390004795880F97FB991F61F09F3F79F08795BC
:1033A0000895121613061406551FF2CF4695F1DF45
:1033B00008C0161617061806991FF1CF86957105D5
:1033C000610508940895E894BB2766277727CB0109
:1033D00097F90895052E97FB1EF400940E94011A98
:1033E00057FD07D00E941C1A07FC03D04EF40C9422
:1033F000011A50954095309521953F4F4F4F5F4FA3
:10340000089590958095709561957F4F8F4F9F4F50
:1034100008950E943E1AA59F900DB49F900DA49F01
:10342000800D911D11240895B7FF0C94091A0E9474
:10343000091A821B930B0895A1E21A2EAA1BBB1B2B
:10344000FD010DC0AA1FBB1FEE1FFF1FA217B30770
:10345000E407F50720F0A21BB30BE40BF50B661F86
:10346000771F881F991F1A9469F76095709580954A
:1034700090959B01AC01BD01CF010895A29FB001C1
:10348000B39FC001A39F700D811D1124911DB29F98
:10349000700D811D1124911D0895991B79E004C0C0
:1034A000991F961708F0961B881F7A95C9F7809583
:1034B0000895EE0FFF1F881F8BBF0790F691E02D38
:1034C00019945058BB27AA270E94791A0C94B01956
:1034D0000E94A21938F00E94A91920F039F49F3FE8
:1034E00019F426F40C949F190EF4E095E7FB0C9464
:1034F0009919E92F0E94C11958F3BA176207730787
:103500008407950720F079F4A6F50C94E3190EF4DE
:10351000E0950B2EBA2FA02D0B01B90190010C01E3
:10352000CA01A0011124FF27591B99F0593F50F4FB
:10353000503E68F11A16F040A22F232F342F442753
:10354000585FF3CF469537952795A795F04053954B
:10355000C9F77EF41F16BA0B620B730B840BBAF01B
:103560009150A1F0FF0FBB1F661F771F881FC2F786
:103570000EC0BA0F621F731F841F48F4879577959A
:103580006795B795F7959E3F08F0B0CF9395880F54
:1035900008F09927EE0F9795879508950E94E21AF3
:1035A0000C94B0190E94A91958F00E94A21940F079
:1035B00029F45F3F29F00C94991951110C94E419E6
:1035C0000C949F190E94C11968F39923B1F35523F4
:1035D00091F3951B550BBB27AA2762177307840726
:1035E00038F09F5F5F4F220F331F441FAA1FA9F3BC
:1035F00035D00E2E3AF0E0E832D091505040E695AA
:10360000001CCAF72BD0FE2F29D0660F771F881F0A
:10361000BB1F261737074807AB07B0E809F0BB0BFD
:10362000802DBF01FF2793585F4F3AF09E3F510511
:1036300078F00C9499190C94E4195F3FE4F3983EE8
:10364000D4F3869577956795B795F7959F5FC9F7FA
:10365000880F911D9695879597F90895E1E0660F7B
:10366000771F881FBB1F621773078407BA0720F0F4
:10367000621B730B840BBA0BEE1F88F7E09508955D
:103680000E94471B6894B1110C94E41908950E949C
:10369000C91988F09F5798F0B92F9927B751B0F002
:1036A000E1F0660F771F881F991F1AF0BA95C9F7C6
:1036B00014C0B13091F00E94E319B1E008950C9468
:1036C000E319672F782F8827B85F39F0B93FCCF31B
:1036D000869577956795B395D9F73EF49095809543
:1036E000709561957F4F8F4F9F4F08950E940519E8
:1036F00008F48FEF08950E940519880B990B08951F
:103700000F931F93CF93DF938230910510F482E0E3
:1037100090E0E0911E08F0911F0820E030E0A0E06A
:10372000B0E0309719F1408151810281138148172F
:103730005907C8F08417950769F4109731F012966D
:103740000C93129713961C9327C000931E08109396
:103750001F0822C02115310519F04217530718F42C
:103760009A01BD01EF01DF01F801DBCF2115310521
:10377000F9F0281B390B2430310580F48A819B81B4
:103780006115710521F0FB019383828304C090933E
:103790001F0880931E08FE01329644C0FE01E20F0E
:1037A000F31F8193919322503109398328833AC0C2
:1037B00020911C0830911D08232B41F42091070211
:1037C0003091080230931D0820931C0820910502B7
:1037D000309106022115310541F42DB73EB74091D5
:1037E000090250910A02241B350BE0911C08F0914C
:1037F0001D08E217F307A0F42E1B3F0B281739070B
:1038000078F0AC014E5F5F4F2417350748F04E0F3C
:103810005F1F50931D0840931C088193919302C031
:10382000E0E0F0E0CF01DF91CF911F910F9108957B
:10383000CF93DF93009709F481C0FC013297138284
:103840001282A0911E08B0911F08109781F4208168
:103850003181820F931F20911C0830911D08281779
:10386000390751F5F0931D08E0931C0867C0ED017E
:1038700020E030E0CE17DF0740F44A815B819E01F3
:1038800041155105F1F0EA01F5CFD383C2834081A0
:103890005181840F951FC817D90759F488819981E0
:1038A000840F951F0296918380838A819B819383E5
:1038B00082832115310529F4F0931F08E0931E0837
:1038C0003DC0E901FB83EA8349915991C40FD51F9B
:1038D000EC17FD0761F480819181840F951F02969A
:1038E000E90199838883828193819B838A83E0E0C5
:1038F000F0E012968D919C911397009719F0FD01BD
:10390000DC01F7CF8D919C9111979D012E5F3F4F68
:10391000820F931F20911C0830911D08281739072A
:1039200069F4309729F410921F0810921E0802C003
:1039300013821282B0931D08A0931C08DF91CF91CF
:1039400008956F927F928F929F92AF92BF92CF9283
:10395000DF92EF92FF920F931F93CF93DF93009725
:1039600089F4CB01DF91CF911F910F91FF90EF90E0
:10397000DF90CF90BF90AF909F908F907F906F908F
:103980000C94801BFC01E60FF71F9C0122503109AB
:10399000E217F30708F4A9C0EC01D9010D911C91BD
:1039A000119706171707B0F00530110508F49BC0F2
:1039B000C80104978617970708F495C002501109AB
:1039C000061B170B019311936D937C93CF010E94FB
:1039D000181C89C05B01A01AB10A4C01800E911E0F
:1039E000A0911E08B0911F08612C712CE12CF12CC4
:1039F000109709F446C08D919C911197A815B905AF
:103A0000B1F56C0142E0C40ED11CCA14DB0478F19C
:103A10004C018A189B08640142E0C40ED11C129626
:103A2000BC9012971396AC91B5E0CB16D10440F040
:103A3000B282A38391828082D9016D937C9309C065
:103A40000E5F1F4F800F911FF90191838083EB2D33
:103A5000FA2FE114F10431F0D7011396FC93EE93A1
:103A6000129741C0F0931F08E0931E083CC06816EF
:103A7000790608F43C017D0112960D90BC91A02DB1
:103A8000B7CF80911C0890911D0888169906E1F423
:103A900066167706C8F48091050290910602009799
:103AA00041F48DB79EB74091090250910A02841BE0
:103AB000950BE817F907C8F4F0931D08E0931C086C
:103AC000F901718360830FC0CB010E94801B7C01D0
:103AD000009759F0A801BE010E948B1DCE010E94E3
:103AE000181CC70104C0CE0102C080E090E0DF9145
:103AF000CF911F910F91FF90EF90DF90CF90BF90EB
:103B0000AF909F908F907F906F90089581E090E0AC
:103B1000F8940C94A41DFB01DC0102C001900D92ED
:103B200041505040D8F70895FB01DC018D91019080
:103B300080190110D9F3990B0895FB01DC01019064
:103B40000D920020E1F7089511E0C1EBD1E000E013
:103B500006C0802FFE010E94591A2196011DC23B0A
:0C3B6000D10780E00807A9F7F894FFCF18
:103B6C00FF01000000000020082000363738391B08
:103B7C001D1A1C000000008D02E6011002DA024141
:103B8C00021F02330200000000ED03E601E803E52A
:103B9C000100000000B9038C03E803600384037088
:103BAC00036103536572766F20616E676C652069E3
:103BBC0073206F7574206F662072616E67652100CB
:103BCC00466F756E642073656E736F72004E6F2056
:103BDC00544353333437323520666F756E64202E60
:103BEC002E2E20636865636B20796F757220636F6E
:103BFC006E6E656374696F6E730053746172746971
:103C0C006E672E2E2E0057616974696E6720666F81
:103C1C007220537472696E670053455249414C329D
:103C2C0020415641494C41424C45005265636569FF
:103C3C00766564204F4E00706F735F783A20000DEC
:103C4C000A00706F735F793A200044524956494E0E
:103C5C00470053706565643A204C4546543A200041
:103C6C002052494748543A20004D5553494300537C
:103C7C00656E74206D7573696320726571756573FB
:103C8C00743A200045786974696E67004D4F563A56
:0E3C9C0020006E616E00696E66006F76660035
:00000001FF
